{
  "_format": "hh-sol-artifact-1",
  "contractName": "CommunityFund",
  "sourceName": "contracts/protocol/CommunityFund.sol",
  "abi": [
    {
      "anonymous": false,
      "inputs": [
        {
          "indexed": true,
          "internalType": "address",
          "name": "previousOwner",
          "type": "address"
        },
        {
          "indexed": true,
          "internalType": "address",
          "name": "newOwner",
          "type": "address"
        }
      ],
      "name": "OwnershipTransferred",
      "type": "event"
    },
    {
      "inputs": [],
      "name": "owner",
      "outputs": [
        {
          "internalType": "address",
          "name": "",
          "type": "address"
        }
      ],
      "stateMutability": "view",
      "type": "function"
    },
    {
      "inputs": [],
      "name": "renounceOwnership",
      "outputs": [],
      "stateMutability": "nonpayable",
      "type": "function"
    },
    {
      "inputs": [
        {
          "internalType": "address",
          "name": "newOwner",
          "type": "address"
        }
      ],
      "name": "transferOwnership",
      "outputs": [],
      "stateMutability": "nonpayable",
      "type": "function"
    },
    {
      "inputs": [
        {
          "internalType": "address payable",
          "name": "_to",
          "type": "address"
        },
        {
          "internalType": "uint256",
          "name": "_amount",
          "type": "uint256"
        }
      ],
      "name": "withdrawNative",
      "outputs": [],
      "stateMutability": "nonpayable",
      "type": "function"
    },
    {
      "inputs": [
        {
          "internalType": "address",
          "name": "_token",
          "type": "address"
        },
        {
          "internalType": "address",
          "name": "_to",
          "type": "address"
        },
        {
          "internalType": "uint256",
          "name": "_amount",
          "type": "uint256"
        }
      ],
      "name": "withdrawTokens",
      "outputs": [],
      "stateMutability": "nonpayable",
      "type": "function"
    },
    {
      "stateMutability": "payable",
      "type": "receive"
    }
  ],
  "bytecode": "0x608060405234801561001057600080fd5b5061002d61002261003260201b60201c565b61003a60201b60201c565b6100fe565b600033905090565b60008060009054906101000a900473ffffffffffffffffffffffffffffffffffffffff169050816000806101000a81548173ffffffffffffffffffffffffffffffffffffffff021916908373ffffffffffffffffffffffffffffffffffffffff1602179055508173ffffffffffffffffffffffffffffffffffffffff168173ffffffffffffffffffffffffffffffffffffffff167f8be0079c531659141344cd1fd0a4f28419497f9722a3daafe3b4186f6b6457e060405160405180910390a35050565b610e3d8061010d6000396000f3fe60806040526004361061004e5760003560e01c806307b18bde1461005a5780635e35359e14610083578063715018a6146100ac5780638da5cb5b146100c3578063f2fde38b146100ee57610055565b3661005557005b600080fd5b34801561006657600080fd5b50610081600480360381019061007c919061089b565b610117565b005b34801561008f57600080fd5b506100aa60048036038101906100a59190610919565b6101de565b005b3480156100b857600080fd5b506100c161028a565b005b3480156100cf57600080fd5b506100d8610312565b6040516100e5919061097b565b60405180910390f35b3480156100fa57600080fd5b5061011560048036038101906101109190610996565b61033b565b005b61011f610433565b73ffffffffffffffffffffffffffffffffffffffff1661013d610312565b73ffffffffffffffffffffffffffffffffffffffff1614610193576040517f08c379a000000000000000000000000000000000000000000000000000000000815260040161018a90610a20565b60405180910390fd5b8173ffffffffffffffffffffffffffffffffffffffff166108fc829081150290604051600060405180830381858888f193505050501580156101d9573d6000803e3d6000fd5b505050565b6101e6610433565b73ffffffffffffffffffffffffffffffffffffffff16610204610312565b73ffffffffffffffffffffffffffffffffffffffff161461025a576040517f08c379a000000000000000000000000000000000000000000000000000000000815260040161025190610a20565b60405180910390fd5b61028582828573ffffffffffffffffffffffffffffffffffffffff1661043b9092919063ffffffff16565b505050565b610292610433565b73ffffffffffffffffffffffffffffffffffffffff166102b0610312565b73ffffffffffffffffffffffffffffffffffffffff1614610306576040517f08c379a00000000000000000000000000000000000000000000000000000000081526004016102fd90610a20565b60405180910390fd5b61031060006104c1565b565b60008060009054906101000a900473ffffffffffffffffffffffffffffffffffffffff16905090565b610343610433565b73ffffffffffffffffffffffffffffffffffffffff16610361610312565b73ffffffffffffffffffffffffffffffffffffffff16146103b7576040517f08c379a00000000000000000000000000000000000000000000000000000000081526004016103ae90610a20565b60405180910390fd5b600073ffffffffffffffffffffffffffffffffffffffff168173ffffffffffffffffffffffffffffffffffffffff161415610427576040517f08c379a000000000000000000000000000000000000000000000000000000000815260040161041e90610ab2565b60405180910390fd5b610430816104c1565b50565b600033905090565b6104bc8363a9059cbb60e01b848460405160240161045a929190610ae1565b604051602081830303815290604052907bffffffffffffffffffffffffffffffffffffffffffffffffffffffff19166020820180517bffffffffffffffffffffffffffffffffffffffffffffffffffffffff8381831617835250505050610585565b505050565b60008060009054906101000a900473ffffffffffffffffffffffffffffffffffffffff169050816000806101000a81548173ffffffffffffffffffffffffffffffffffffffff021916908373ffffffffffffffffffffffffffffffffffffffff1602179055508173ffffffffffffffffffffffffffffffffffffffff168173ffffffffffffffffffffffffffffffffffffffff167f8be0079c531659141344cd1fd0a4f28419497f9722a3daafe3b4186f6b6457e060405160405180910390a35050565b60006105e7826040518060400160405280602081526020017f5361666545524332303a206c6f772d6c6576656c2063616c6c206661696c65648152508573ffffffffffffffffffffffffffffffffffffffff1661064c9092919063ffffffff16565b905060008151111561064757808060200190518101906106079190610b42565b610646576040517f08c379a000000000000000000000000000000000000000000000000000000000815260040161063d90610be1565b60405180910390fd5b5b505050565b606061065b8484600085610664565b90509392505050565b6060824710156106a9576040517f08c379a00000000000000000000000000000000000000000000000000000000081526004016106a090610c73565b60405180910390fd5b6106b285610778565b6106f1576040517f08c379a00000000000000000000000000000000000000000000000000000000081526004016106e890610cdf565b60405180910390fd5b6000808673ffffffffffffffffffffffffffffffffffffffff16858760405161071a9190610d79565b60006040518083038185875af1925050503d8060008114610757576040519150601f19603f3d011682016040523d82523d6000602084013e61075c565b606091505b509150915061076c82828661079b565b92505050949350505050565b6000808273ffffffffffffffffffffffffffffffffffffffff163b119050919050565b606083156107ab578290506107fb565b6000835111156107be5782518084602001fd5b816040517f08c379a00000000000000000000000000000000000000000000000000000000081526004016107f29190610de5565b60405180910390fd5b9392505050565b600080fd5b600073ffffffffffffffffffffffffffffffffffffffff82169050919050565b600061083282610807565b9050919050565b61084281610827565b811461084d57600080fd5b50565b60008135905061085f81610839565b92915050565b6000819050919050565b61087881610865565b811461088357600080fd5b50565b6000813590506108958161086f565b92915050565b600080604083850312156108b2576108b1610802565b5b60006108c085828601610850565b92505060206108d185828601610886565b9150509250929050565b60006108e682610807565b9050919050565b6108f6816108db565b811461090157600080fd5b50565b600081359050610913816108ed565b92915050565b60008060006060848603121561093257610931610802565b5b600061094086828701610904565b935050602061095186828701610904565b925050604061096286828701610886565b9150509250925092565b610975816108db565b82525050565b6000602082019050610990600083018461096c565b92915050565b6000602082840312156109ac576109ab610802565b5b60006109ba84828501610904565b91505092915050565b600082825260208201905092915050565b7f4f776e61626c653a2063616c6c6572206973206e6f7420746865206f776e6572600082015250565b6000610a0a6020836109c3565b9150610a15826109d4565b602082019050919050565b60006020820190508181036000830152610a39816109fd565b9050919050565b7f4f776e61626c653a206e6577206f776e657220697320746865207a65726f206160008201527f6464726573730000000000000000000000000000000000000000000000000000602082015250565b6000610a9c6026836109c3565b9150610aa782610a40565b604082019050919050565b60006020820190508181036000830152610acb81610a8f565b9050919050565b610adb81610865565b82525050565b6000604082019050610af6600083018561096c565b610b036020830184610ad2565b9392505050565b60008115159050919050565b610b1f81610b0a565b8114610b2a57600080fd5b50565b600081519050610b3c81610b16565b92915050565b600060208284031215610b5857610b57610802565b5b6000610b6684828501610b2d565b91505092915050565b7f5361666545524332303a204552433230206f7065726174696f6e20646964206e60008201527f6f74207375636365656400000000000000000000000000000000000000000000602082015250565b6000610bcb602a836109c3565b9150610bd682610b6f565b604082019050919050565b60006020820190508181036000830152610bfa81610bbe565b9050919050565b7f416464726573733a20696e73756666696369656e742062616c616e636520666f60008201527f722063616c6c0000000000000000000000000000000000000000000000000000602082015250565b6000610c5d6026836109c3565b9150610c6882610c01565b604082019050919050565b60006020820190508181036000830152610c8c81610c50565b9050919050565b7f416464726573733a2063616c6c20746f206e6f6e2d636f6e7472616374000000600082015250565b6000610cc9601d836109c3565b9150610cd482610c93565b602082019050919050565b60006020820190508181036000830152610cf881610cbc565b9050919050565b600081519050919050565b600081905092915050565b60005b83811015610d33578082015181840152602081019050610d18565b83811115610d42576000848401525b50505050565b6000610d5382610cff565b610d5d8185610d0a565b9350610d6d818560208601610d15565b80840191505092915050565b6000610d858284610d48565b915081905092915050565b600081519050919050565b6000601f19601f8301169050919050565b6000610db782610d90565b610dc181856109c3565b9350610dd1818560208601610d15565b610dda81610d9b565b840191505092915050565b60006020820190508181036000830152610dff8184610dac565b90509291505056fea264697066735822122057ef1fe2b51a5d7349b3dfcaf4bba7b9a81fb7ae5fbd94ed27443a047bb99e5364736f6c634300080b0033",
  "linkReferences": {},
  "deployedLinkReferences": {}
}