{
  "_format": "hh-sol-artifact-1",
  "contractName": "StrategyPLFY",
  "sourceName": "contracts/strategies/Poolify/StrategyPLFY.sol",
  "abi": [
    {
      "inputs": [
        {
          "internalType": "address",
          "name": "_want",
          "type": "address"
        },
        {
          "internalType": "address",
          "name": "_rewardManager",
          "type": "address"
        },
        {
          "internalType": "address",
          "name": "_vault",
          "type": "address"
        },
        {
          "internalType": "address",
          "name": "_keeper",
          "type": "address"
        },
        {
          "internalType": "address",
          "name": "_poolifyFeeRecipient",
          "type": "address"
        }
      ],
      "stateMutability": "nonpayable",
      "type": "constructor"
    },
    {
      "anonymous": false,
      "inputs": [
        {
          "indexed": true,
          "internalType": "address",
          "name": "previousOwner",
          "type": "address"
        },
        {
          "indexed": true,
          "internalType": "address",
          "name": "newOwner",
          "type": "address"
        }
      ],
      "name": "OwnershipTransferred",
      "type": "event"
    },
    {
      "anonymous": false,
      "inputs": [
        {
          "indexed": false,
          "internalType": "address",
          "name": "account",
          "type": "address"
        }
      ],
      "name": "Paused",
      "type": "event"
    },
    {
      "anonymous": false,
      "inputs": [
        {
          "indexed": true,
          "internalType": "address",
          "name": "harvester",
          "type": "address"
        },
        {
          "indexed": true,
          "internalType": "uint256",
          "name": "timestamp",
          "type": "uint256"
        }
      ],
      "name": "StratHarvest",
      "type": "event"
    },
    {
      "anonymous": false,
      "inputs": [
        {
          "indexed": false,
          "internalType": "address",
          "name": "account",
          "type": "address"
        }
      ],
      "name": "Unpaused",
      "type": "event"
    },
    {
      "inputs": [],
      "name": "MAX_CALL_FEE",
      "outputs": [
        {
          "internalType": "uint256",
          "name": "",
          "type": "uint256"
        }
      ],
      "stateMutability": "view",
      "type": "function"
    },
    {
      "inputs": [],
      "name": "MAX_FEE",
      "outputs": [
        {
          "internalType": "uint256",
          "name": "",
          "type": "uint256"
        }
      ],
      "stateMutability": "view",
      "type": "function"
    },
    {
      "inputs": [],
      "name": "WITHDRAWAL_FEE_CAP",
      "outputs": [
        {
          "internalType": "uint256",
          "name": "",
          "type": "uint256"
        }
      ],
      "stateMutability": "view",
      "type": "function"
    },
    {
      "inputs": [],
      "name": "WITHDRAWAL_MAX",
      "outputs": [
        {
          "internalType": "uint256",
          "name": "",
          "type": "uint256"
        }
      ],
      "stateMutability": "view",
      "type": "function"
    },
    {
      "inputs": [],
      "name": "balanceOf",
      "outputs": [
        {
          "internalType": "uint256",
          "name": "",
          "type": "uint256"
        }
      ],
      "stateMutability": "view",
      "type": "function"
    },
    {
      "inputs": [],
      "name": "balanceOfPool",
      "outputs": [
        {
          "internalType": "uint256",
          "name": "",
          "type": "uint256"
        }
      ],
      "stateMutability": "view",
      "type": "function"
    },
    {
      "inputs": [],
      "name": "balanceOfWant",
      "outputs": [
        {
          "internalType": "uint256",
          "name": "",
          "type": "uint256"
        }
      ],
      "stateMutability": "view",
      "type": "function"
    },
    {
      "inputs": [],
      "name": "beforeDeposit",
      "outputs": [],
      "stateMutability": "nonpayable",
      "type": "function"
    },
    {
      "inputs": [],
      "name": "callFee",
      "outputs": [
        {
          "internalType": "uint256",
          "name": "",
          "type": "uint256"
        }
      ],
      "stateMutability": "view",
      "type": "function"
    },
    {
      "inputs": [],
      "name": "deposit",
      "outputs": [],
      "stateMutability": "nonpayable",
      "type": "function"
    },
    {
      "inputs": [],
      "name": "harvest",
      "outputs": [],
      "stateMutability": "nonpayable",
      "type": "function"
    },
    {
      "inputs": [],
      "name": "keeper",
      "outputs": [
        {
          "internalType": "address",
          "name": "",
          "type": "address"
        }
      ],
      "stateMutability": "view",
      "type": "function"
    },
    {
      "inputs": [],
      "name": "owner",
      "outputs": [
        {
          "internalType": "address",
          "name": "",
          "type": "address"
        }
      ],
      "stateMutability": "view",
      "type": "function"
    },
    {
      "inputs": [],
      "name": "panic",
      "outputs": [],
      "stateMutability": "nonpayable",
      "type": "function"
    },
    {
      "inputs": [],
      "name": "pause",
      "outputs": [],
      "stateMutability": "nonpayable",
      "type": "function"
    },
    {
      "inputs": [],
      "name": "paused",
      "outputs": [
        {
          "internalType": "bool",
          "name": "",
          "type": "bool"
        }
      ],
      "stateMutability": "view",
      "type": "function"
    },
    {
      "inputs": [],
      "name": "plfyFee",
      "outputs": [
        {
          "internalType": "uint256",
          "name": "",
          "type": "uint256"
        }
      ],
      "stateMutability": "view",
      "type": "function"
    },
    {
      "inputs": [],
      "name": "poolifyFeeRecipient",
      "outputs": [
        {
          "internalType": "address",
          "name": "",
          "type": "address"
        }
      ],
      "stateMutability": "view",
      "type": "function"
    },
    {
      "inputs": [],
      "name": "renounceOwnership",
      "outputs": [],
      "stateMutability": "nonpayable",
      "type": "function"
    },
    {
      "inputs": [],
      "name": "retireStrat",
      "outputs": [],
      "stateMutability": "nonpayable",
      "type": "function"
    },
    {
      "inputs": [],
      "name": "rewardManager",
      "outputs": [
        {
          "internalType": "address",
          "name": "",
          "type": "address"
        }
      ],
      "stateMutability": "view",
      "type": "function"
    },
    {
      "inputs": [
        {
          "internalType": "uint256",
          "name": "_fee",
          "type": "uint256"
        }
      ],
      "name": "setCallFee",
      "outputs": [],
      "stateMutability": "nonpayable",
      "type": "function"
    },
    {
      "inputs": [
        {
          "internalType": "address",
          "name": "_keeper",
          "type": "address"
        }
      ],
      "name": "setKeeper",
      "outputs": [],
      "stateMutability": "nonpayable",
      "type": "function"
    },
    {
      "inputs": [
        {
          "internalType": "address",
          "name": "_vault",
          "type": "address"
        }
      ],
      "name": "setVault",
      "outputs": [],
      "stateMutability": "nonpayable",
      "type": "function"
    },
    {
      "inputs": [
        {
          "internalType": "uint256",
          "name": "_fee",
          "type": "uint256"
        }
      ],
      "name": "setWithdrawalFee",
      "outputs": [],
      "stateMutability": "nonpayable",
      "type": "function"
    },
    {
      "inputs": [
        {
          "internalType": "address",
          "name": "_poolifyFeeRecipient",
          "type": "address"
        }
      ],
      "name": "setpoolifyFeeRecipient",
      "outputs": [],
      "stateMutability": "nonpayable",
      "type": "function"
    },
    {
      "inputs": [
        {
          "internalType": "address",
          "name": "newOwner",
          "type": "address"
        }
      ],
      "name": "transferOwnership",
      "outputs": [],
      "stateMutability": "nonpayable",
      "type": "function"
    },
    {
      "inputs": [],
      "name": "unpause",
      "outputs": [],
      "stateMutability": "nonpayable",
      "type": "function"
    },
    {
      "inputs": [],
      "name": "vault",
      "outputs": [
        {
          "internalType": "address",
          "name": "",
          "type": "address"
        }
      ],
      "stateMutability": "view",
      "type": "function"
    },
    {
      "inputs": [],
      "name": "want",
      "outputs": [
        {
          "internalType": "address",
          "name": "",
          "type": "address"
        }
      ],
      "stateMutability": "view",
      "type": "function"
    },
    {
      "inputs": [
        {
          "internalType": "uint256",
          "name": "_amount",
          "type": "uint256"
        }
      ],
      "name": "withdraw",
      "outputs": [],
      "stateMutability": "nonpayable",
      "type": "function"
    },
    {
      "inputs": [],
      "name": "withdrawalFee",
      "outputs": [
        {
          "internalType": "uint256",
          "name": "",
          "type": "uint256"
        }
      ],
      "stateMutability": "view",
      "type": "function"
    }
  ],
  "bytecode": "0x60806040526000600455600060055560006006553480156200002057600080fd5b5060405162003bd638038062003bd68339818101604052810190620000469190620007c7565b818382620000696200005d620001e660201b60201c565b620001ee60201b60201c565b60008060146101000a81548160ff02191690831515021790555082600160006101000a81548173ffffffffffffffffffffffffffffffffffffffff021916908373ffffffffffffffffffffffffffffffffffffffff16021790555081600260006101000a81548173ffffffffffffffffffffffffffffffffffffffff021916908373ffffffffffffffffffffffffffffffffffffffff16021790555080600360006101000a81548173ffffffffffffffffffffffffffffffffffffffff021916908373ffffffffffffffffffffffffffffffffffffffff16021790555050505083600860006101000a81548173ffffffffffffffffffffffffffffffffffffffff021916908373ffffffffffffffffffffffffffffffffffffffff16021790555084600760006101000a81548173ffffffffffffffffffffffffffffffffffffffff021916908373ffffffffffffffffffffffffffffffffffffffff160217905550620001db620002b260201b60201c565b505050505062000d0f565b600033905090565b60008060009054906101000a900473ffffffffffffffffffffffffffffffffffffffff169050816000806101000a81548173ffffffffffffffffffffffffffffffffffffffff021916908373ffffffffffffffffffffffffffffffffffffffff1602179055508173ffffffffffffffffffffffffffffffffffffffff168173ffffffffffffffffffffffffffffffffffffffff167f8be0079c531659141344cd1fd0a4f28419497f9722a3daafe3b4186f6b6457e060405160405180910390a35050565b62000348600860009054906101000a900473ffffffffffffffffffffffffffffffffffffffff167fffffffffffffffffffffffffffffffffffffffffffffffffffffffffffffffff600760009054906101000a900473ffffffffffffffffffffffffffffffffffffffff1673ffffffffffffffffffffffffffffffffffffffff166200034a60201b62001b34179092919060201c565b565b6000811480620003da575060008373ffffffffffffffffffffffffffffffffffffffff1663dd62ed3e30856040518363ffffffff1660e01b81526004016200039492919062000860565b602060405180830381865afa158015620003b2573d6000803e3d6000fd5b505050506040513d601f19601f82011682018060405250810190620003d89190620008c8565b145b6200041c576040517f08c379a0000000000000000000000000000000000000000000000000000000008152600401620004139062000981565b60405180910390fd5b620004a78363095ea7b360e01b84846040516024016200043e929190620009b4565b604051602081830303815290604052907bffffffffffffffffffffffffffffffffffffffffffffffffffffffff19166020820180517bffffffffffffffffffffffffffffffffffffffffffffffffffffffff8381831617835250505050620004ac60201b60201c565b505050565b600062000515826040518060400160405280602081526020017f5361666545524332303a206c6f772d6c6576656c2063616c6c206661696c65648152508573ffffffffffffffffffffffffffffffffffffffff166200058060201b62001c83179092919060201c565b90506000815111156200057b578080602001905181019062000538919062000a1e565b6200057a576040517f08c379a0000000000000000000000000000000000000000000000000000000008152600401620005719062000ac6565b60405180910390fd5b5b505050565b6060620005978484600085620005a060201b60201c565b90509392505050565b606082471015620005e8576040517f08c379a0000000000000000000000000000000000000000000000000000000008152600401620005df9062000b5e565b60405180910390fd5b620005f985620006ce60201b60201c565b6200063b576040517f08c379a0000000000000000000000000000000000000000000000000000000008152600401620006329062000bd0565b60405180910390fd5b6000808673ffffffffffffffffffffffffffffffffffffffff16858760405162000666919062000c75565b60006040518083038185875af1925050503d8060008114620006a5576040519150601f19603f3d011682016040523d82523d6000602084013e620006aa565b606091505b5091509150620006c2828286620006f160201b60201c565b92505050949350505050565b6000808273ffffffffffffffffffffffffffffffffffffffff163b119050919050565b60608315620007035782905062000756565b600083511115620007175782518084602001fd5b816040517f08c379a00000000000000000000000000000000000000000000000000000000081526004016200074d919062000ceb565b60405180910390fd5b9392505050565b600080fd5b600073ffffffffffffffffffffffffffffffffffffffff82169050919050565b60006200078f8262000762565b9050919050565b620007a18162000782565b8114620007ad57600080fd5b50565b600081519050620007c18162000796565b92915050565b600080600080600060a08688031215620007e657620007e56200075d565b5b6000620007f688828901620007b0565b95505060206200080988828901620007b0565b94505060406200081c88828901620007b0565b93505060606200082f88828901620007b0565b92505060806200084288828901620007b0565b9150509295509295909350565b6200085a8162000782565b82525050565b60006040820190506200087760008301856200084f565b6200088660208301846200084f565b9392505050565b6000819050919050565b620008a2816200088d565b8114620008ae57600080fd5b50565b600081519050620008c28162000897565b92915050565b600060208284031215620008e157620008e06200075d565b5b6000620008f184828501620008b1565b91505092915050565b600082825260208201905092915050565b7f5361666545524332303a20617070726f76652066726f6d206e6f6e2d7a65726f60008201527f20746f206e6f6e2d7a65726f20616c6c6f77616e636500000000000000000000602082015250565b600062000969603683620008fa565b915062000976826200090b565b604082019050919050565b600060208201905081810360008301526200099c816200095a565b9050919050565b620009ae816200088d565b82525050565b6000604082019050620009cb60008301856200084f565b620009da6020830184620009a3565b9392505050565b60008115159050919050565b620009f881620009e1565b811462000a0457600080fd5b50565b60008151905062000a1881620009ed565b92915050565b60006020828403121562000a375762000a366200075d565b5b600062000a478482850162000a07565b91505092915050565b7f5361666545524332303a204552433230206f7065726174696f6e20646964206e60008201527f6f74207375636365656400000000000000000000000000000000000000000000602082015250565b600062000aae602a83620008fa565b915062000abb8262000a50565b604082019050919050565b6000602082019050818103600083015262000ae18162000a9f565b9050919050565b7f416464726573733a20696e73756666696369656e742062616c616e636520666f60008201527f722063616c6c0000000000000000000000000000000000000000000000000000602082015250565b600062000b46602683620008fa565b915062000b538262000ae8565b604082019050919050565b6000602082019050818103600083015262000b798162000b37565b9050919050565b7f416464726573733a2063616c6c20746f206e6f6e2d636f6e7472616374000000600082015250565b600062000bb8601d83620008fa565b915062000bc58262000b80565b602082019050919050565b6000602082019050818103600083015262000beb8162000ba9565b9050919050565b600081519050919050565b600081905092915050565b60005b8381101562000c2857808201518184015260208101905062000c0b565b8381111562000c38576000848401525b50505050565b600062000c4b8262000bf2565b62000c57818562000bfd565b935062000c6981856020860162000c08565b80840191505092915050565b600062000c83828462000c3e565b915081905092915050565b600081519050919050565b6000601f19601f8301169050919050565b600062000cb78262000c8e565b62000cc38185620008fa565b935062000cd581856020860162000c08565b62000ce08162000c99565b840191505092915050565b6000602082019050818103600083015262000d07818462000caa565b905092915050565b612eb78062000d1f6000396000f3fe608060405234801561001057600080fd5b50600436106101f05760003560e01c80638456cb591161010f578063c1a3d44c116100a2578063dfbdc43711610071578063dfbdc437146104a5578063f2fde38b146104c3578063fb617787146104df578063fbfa77cf146104e9576101f0565b8063c1a3d44c14610441578063c4dc6ffa1461045f578063d0e30db01461047d578063dc917b7114610487576101f0565b806390321e1a116100de57806390321e1a146103cb578063ac1e5025146103e9578063aced166114610405578063bc063e1a14610423576101f0565b80638456cb591461036957806386726a64146103735780638bc7e8c41461038f5780638da5cb5b146103ad576101f0565b80634700d305116101875780636817031b116101565780636817031b14610309578063715018a614610325578063722713f71461032f578063748747e61461034d576101f0565b80634700d305146102b957806354518b1a146102c3578063573fef0a146102e15780635c975abb146102eb576101f0565b80632ad5a53f116101c35780632ad5a53f1461026b5780632e1a7d4d146102895780633f4ba83a146102a55780634641257d146102af576101f0565b80630f4ef8a6146101f557806311588086146102135780631f1fcd5114610231578063264658261461024f575b600080fd5b6101fd610507565b60405161020a9190612332565b60405180910390f35b61021b61052d565b6040516102289190612366565b60405180910390f35b6102396105d8565b6040516102469190612332565b60405180910390f35b610269600480360381019061026491906123b2565b6105fe565b005b61027361072f565b6040516102809190612366565b60405180910390f35b6102a3600480360381019061029e91906123b2565b610734565b005b6102ad610b2b565b005b6102b7610c12565b005b6102c1610e1c565b005b6102cb610f81565b6040516102d89190612366565b60405180910390f35b6102e9610f87565b005b6102f3610f91565b60405161030091906123fa565b60405180910390f35b610323600480360381019061031e9190612441565b610fa7565b005b61032d611067565b005b6103376110ef565b6040516103449190612366565b60405180910390f35b61036760048036038101906103629190612441565b611117565b005b610371611228565b005b61038d60048036038101906103889190612441565b611307565b005b6103976113c7565b6040516103a49190612366565b60405180910390f35b6103b56113cd565b6040516103c29190612332565b60405180910390f35b6103d36113f6565b6040516103e09190612366565b60405180910390f35b61040360048036038101906103fe91906123b2565b6113fc565b005b61040d611517565b60405161041a9190612332565b60405180910390f35b61042b61153d565b6040516104389190612366565b60405180910390f35b610449611543565b6040516104569190612366565b60405180910390f35b6104676115e6565b6040516104749190612332565b60405180910390f35b61048561160c565b005b61048f611787565b60405161049c9190612366565b60405180910390f35b6104ad61178d565b6040516104ba9190612366565b60405180910390f35b6104dd60048036038101906104d89190612441565b611792565b005b6104e761188a565b005b6104f1611b0e565b6040516104fe9190612332565b60405180910390f35b600860009054906101000a900473ffffffffffffffffffffffffffffffffffffffff1681565b600080600860009054906101000a900473ffffffffffffffffffffffffffffffffffffffff1673ffffffffffffffffffffffffffffffffffffffff166393f1a40b6000306040518363ffffffff1660e01b815260040161058e9291906124b3565b6040805180830381865afa1580156105aa573d6000803e3d6000fd5b505050506040513d601f19601f820116820180604052508101906105ce91906124f1565b5090508091505090565b600760009054906101000a900473ffffffffffffffffffffffffffffffffffffffff1681565b6106066113cd565b73ffffffffffffffffffffffffffffffffffffffff163373ffffffffffffffffffffffffffffffffffffffff16148061068c5750600160009054906101000a900473ffffffffffffffffffffffffffffffffffffffff1673ffffffffffffffffffffffffffffffffffffffff163373ffffffffffffffffffffffffffffffffffffffff16145b6106cb576040517f08c379a00000000000000000000000000000000000000000000000000000000081526004016106c29061258e565b60405180910390fd5b606f81111561070f576040517f08c379a0000000000000000000000000000000000000000000000000000000008152600401610706906125fa565b60405180910390fd5b806005819055506005546103e86107269190612649565b60068190555050565b606f81565b600260009054906101000a900473ffffffffffffffffffffffffffffffffffffffff1673ffffffffffffffffffffffffffffffffffffffff163373ffffffffffffffffffffffffffffffffffffffff16146107c4576040517f08c379a00000000000000000000000000000000000000000000000000000000081526004016107bb906126c9565b60405180910390fd5b6000600760009054906101000a900473ffffffffffffffffffffffffffffffffffffffff1673ffffffffffffffffffffffffffffffffffffffff166370a08231306040518263ffffffff1660e01b81526004016108219190612332565b602060405180830381865afa15801561083e573d6000803e3d6000fd5b505050506040513d601f19601f8201168201806040525081019061086291906126e9565b9050818110156109ad57600860009054906101000a900473ffffffffffffffffffffffffffffffffffffffff1673ffffffffffffffffffffffffffffffffffffffff1663441a3e7060006108bf8486611c9b90919063ffffffff16565b6040518363ffffffff1660e01b81526004016108dc929190612716565b600060405180830381600087803b1580156108f657600080fd5b505af115801561090a573d6000803e3d6000fd5b50505050600760009054906101000a900473ffffffffffffffffffffffffffffffffffffffff1673ffffffffffffffffffffffffffffffffffffffff166370a08231306040518263ffffffff1660e01b81526004016109699190612332565b602060405180830381865afa158015610986573d6000803e3d6000fd5b505050506040513d601f19601f820116820180604052508101906109aa91906126e9565b90505b818111156109b9578190505b6109c16113cd565b73ffffffffffffffffffffffffffffffffffffffff163273ffffffffffffffffffffffffffffffffffffffff1614806109fe57506109fd610f91565b5b15610a7757610a72600260009054906101000a900473ffffffffffffffffffffffffffffffffffffffff1682600760009054906101000a900473ffffffffffffffffffffffffffffffffffffffff1673ffffffffffffffffffffffffffffffffffffffff16611cb19092919063ffffffff16565b610b27565b6000610aa2612710610a9460045485611d3790919063ffffffff16565b611d4d90919063ffffffff16565b9050610b25600260009054906101000a900473ffffffffffffffffffffffffffffffffffffffff16610add8385611c9b90919063ffffffff16565b600760009054906101000a900473ffffffffffffffffffffffffffffffffffffffff1673ffffffffffffffffffffffffffffffffffffffff16611cb19092919063ffffffff16565b505b5050565b610b336113cd565b73ffffffffffffffffffffffffffffffffffffffff163373ffffffffffffffffffffffffffffffffffffffff161480610bb95750600160009054906101000a900473ffffffffffffffffffffffffffffffffffffffff1673ffffffffffffffffffffffffffffffffffffffff163373ffffffffffffffffffffffffffffffffffffffff16145b610bf8576040517f08c379a0000000000000000000000000000000000000000000000000000000008152600401610bef9061258e565b60405180910390fd5b610c00611d63565b610c08611e04565b610c1061160c565b565b610c1a610f91565b15610c5a576040517f08c379a0000000000000000000000000000000000000000000000000000000008152600401610c519061278b565b60405180910390fd5b3373ffffffffffffffffffffffffffffffffffffffff163273ffffffffffffffffffffffffffffffffffffffff161480610ce15750600260009054906101000a900473ffffffffffffffffffffffffffffffffffffffff1673ffffffffffffffffffffffffffffffffffffffff163373ffffffffffffffffffffffffffffffffffffffff16145b610d20576040517f08c379a0000000000000000000000000000000000000000000000000000000008152600401610d17906127f7565b60405180910390fd5b6000600860009054906101000a900473ffffffffffffffffffffffffffffffffffffffff1673ffffffffffffffffffffffffffffffffffffffff166308571c906000306040518363ffffffff1660e01b8152600401610d809291906124b3565b602060405180830381865afa158015610d9d573d6000803e3d6000fd5b505050506040513d601f19601f82011682018060405250810190610dc191906126e9565b90506000811115610e1957610dd461160c565b423373ffffffffffffffffffffffffffffffffffffffff167f865390bb5d5b45fc22d8882e7465202e4ddb75def64919391d59bde6faaffadf60405160405180910390a35b50565b610e246113cd565b73ffffffffffffffffffffffffffffffffffffffff163373ffffffffffffffffffffffffffffffffffffffff161480610eaa5750600160009054906101000a900473ffffffffffffffffffffffffffffffffffffffff1673ffffffffffffffffffffffffffffffffffffffff163373ffffffffffffffffffffffffffffffffffffffff16145b610ee9576040517f08c379a0000000000000000000000000000000000000000000000000000000008152600401610ee09061258e565b60405180910390fd5b610ef1611228565b600860009054906101000a900473ffffffffffffffffffffffffffffffffffffffff1673ffffffffffffffffffffffffffffffffffffffff16635312ea8e60006040518263ffffffff1660e01b8152600401610f4d9190612817565b600060405180830381600087803b158015610f6757600080fd5b505af1158015610f7b573d6000803e3d6000fd5b50505050565b61271081565b610f8f610c12565b565b60008060149054906101000a900460ff16905090565b610faf611e95565b73ffffffffffffffffffffffffffffffffffffffff16610fcd6113cd565b73ffffffffffffffffffffffffffffffffffffffff1614611023576040517f08c379a000000000000000000000000000000000000000000000000000000000815260040161101a9061287e565b60405180910390fd5b80600260006101000a81548173ffffffffffffffffffffffffffffffffffffffff021916908373ffffffffffffffffffffffffffffffffffffffff16021790555050565b61106f611e95565b73ffffffffffffffffffffffffffffffffffffffff1661108d6113cd565b73ffffffffffffffffffffffffffffffffffffffff16146110e3576040517f08c379a00000000000000000000000000000000000000000000000000000000081526004016110da9061287e565b60405180910390fd5b6110ed6000611e9d565b565b60006111126110fc61052d565b611104611543565b611f6190919063ffffffff16565b905090565b61111f6113cd565b73ffffffffffffffffffffffffffffffffffffffff163373ffffffffffffffffffffffffffffffffffffffff1614806111a55750600160009054906101000a900473ffffffffffffffffffffffffffffffffffffffff1673ffffffffffffffffffffffffffffffffffffffff163373ffffffffffffffffffffffffffffffffffffffff16145b6111e4576040517f08c379a00000000000000000000000000000000000000000000000000000000081526004016111db9061258e565b60405180910390fd5b80600160006101000a81548173ffffffffffffffffffffffffffffffffffffffff021916908373ffffffffffffffffffffffffffffffffffffffff16021790555050565b6112306113cd565b73ffffffffffffffffffffffffffffffffffffffff163373ffffffffffffffffffffffffffffffffffffffff1614806112b65750600160009054906101000a900473ffffffffffffffffffffffffffffffffffffffff1673ffffffffffffffffffffffffffffffffffffffff163373ffffffffffffffffffffffffffffffffffffffff16145b6112f5576040517f08c379a00000000000000000000000000000000000000000000000000000000081526004016112ec9061258e565b60405180910390fd5b6112fd611f77565b61130561201a565b565b61130f611e95565b73ffffffffffffffffffffffffffffffffffffffff1661132d6113cd565b73ffffffffffffffffffffffffffffffffffffffff1614611383576040517f08c379a000000000000000000000000000000000000000000000000000000000815260040161137a9061287e565b60405180910390fd5b80600360006101000a81548173ffffffffffffffffffffffffffffffffffffffff021916908373ffffffffffffffffffffffffffffffffffffffff16021790555050565b60045481565b60008060009054906101000a900473ffffffffffffffffffffffffffffffffffffffff16905090565b60055481565b6114046113cd565b73ffffffffffffffffffffffffffffffffffffffff163373ffffffffffffffffffffffffffffffffffffffff16148061148a5750600160009054906101000a900473ffffffffffffffffffffffffffffffffffffffff1673ffffffffffffffffffffffffffffffffffffffff163373ffffffffffffffffffffffffffffffffffffffff16145b6114c9576040517f08c379a00000000000000000000000000000000000000000000000000000000081526004016114c09061258e565b60405180910390fd5b603281111561150d576040517f08c379a0000000000000000000000000000000000000000000000000000000008152600401611504906125fa565b60405180910390fd5b8060048190555050565b600160009054906101000a900473ffffffffffffffffffffffffffffffffffffffff1681565b6103e881565b6000600760009054906101000a900473ffffffffffffffffffffffffffffffffffffffff1673ffffffffffffffffffffffffffffffffffffffff166370a08231306040518263ffffffff1660e01b81526004016115a09190612332565b602060405180830381865afa1580156115bd573d6000803e3d6000fd5b505050506040513d601f19601f820116820180604052508101906115e191906126e9565b905090565b600360009054906101000a900473ffffffffffffffffffffffffffffffffffffffff1681565b611614610f91565b15611654576040517f08c379a000000000000000000000000000000000000000000000000000000000815260040161164b9061278b565b60405180910390fd5b6000600760009054906101000a900473ffffffffffffffffffffffffffffffffffffffff1673ffffffffffffffffffffffffffffffffffffffff166370a08231306040518263ffffffff1660e01b81526004016116b19190612332565b602060405180830381865afa1580156116ce573d6000803e3d6000fd5b505050506040513d601f19601f820116820180604052508101906116f291906126e9565b9050600860009054906101000a900473ffffffffffffffffffffffffffffffffffffffff1673ffffffffffffffffffffffffffffffffffffffff1663e2bbb1586000836040518363ffffffff1660e01b8152600401611752929190612716565b600060405180830381600087803b15801561176c57600080fd5b505af1158015611780573d6000803e3d6000fd5b5050505050565b60065481565b603281565b61179a611e95565b73ffffffffffffffffffffffffffffffffffffffff166117b86113cd565b73ffffffffffffffffffffffffffffffffffffffff161461180e576040517f08c379a00000000000000000000000000000000000000000000000000000000081526004016118059061287e565b60405180910390fd5b600073ffffffffffffffffffffffffffffffffffffffff168173ffffffffffffffffffffffffffffffffffffffff16141561187e576040517f08c379a000000000000000000000000000000000000000000000000000000000815260040161187590612910565b60405180910390fd5b61188781611e9d565b50565b600260009054906101000a900473ffffffffffffffffffffffffffffffffffffffff1673ffffffffffffffffffffffffffffffffffffffff163373ffffffffffffffffffffffffffffffffffffffff161461191a576040517f08c379a0000000000000000000000000000000000000000000000000000000008152600401611911906126c9565b60405180910390fd5b600860009054906101000a900473ffffffffffffffffffffffffffffffffffffffff1673ffffffffffffffffffffffffffffffffffffffff16635312ea8e60006040518263ffffffff1660e01b81526004016119769190612817565b600060405180830381600087803b15801561199057600080fd5b505af11580156119a4573d6000803e3d6000fd5b505050506000600760009054906101000a900473ffffffffffffffffffffffffffffffffffffffff1673ffffffffffffffffffffffffffffffffffffffff166370a08231306040518263ffffffff1660e01b8152600401611a059190612332565b602060405180830381865afa158015611a22573d6000803e3d6000fd5b505050506040513d601f19601f82011682018060405250810190611a4691906126e9565b9050600760009054906101000a900473ffffffffffffffffffffffffffffffffffffffff1673ffffffffffffffffffffffffffffffffffffffff1663a9059cbb600260009054906101000a900473ffffffffffffffffffffffffffffffffffffffff16836040518363ffffffff1660e01b8152600401611ac7929190612930565b6020604051808303816000875af1158015611ae6573d6000803e3d6000fd5b505050506040513d601f19601f82011682018060405250810190611b0a9190612985565b5050565b600260009054906101000a900473ffffffffffffffffffffffffffffffffffffffff1681565b6000811480611bbe575060008373ffffffffffffffffffffffffffffffffffffffff1663dd62ed3e30856040518363ffffffff1660e01b8152600401611b7b9291906129b2565b602060405180830381865afa158015611b98573d6000803e3d6000fd5b505050506040513d601f19601f82011682018060405250810190611bbc91906126e9565b145b611bfd576040517f08c379a0000000000000000000000000000000000000000000000000000000008152600401611bf490612a4d565b60405180910390fd5b611c7e8363095ea7b360e01b8484604051602401611c1c929190612930565b604051602081830303815290604052907bffffffffffffffffffffffffffffffffffffffffffffffffffffffff19166020820180517bffffffffffffffffffffffffffffffffffffffffffffffffffffffff838183161783525050505061208c565b505050565b6060611c928484600085612153565b90509392505050565b60008183611ca99190612649565b905092915050565b611d328363a9059cbb60e01b8484604051602401611cd0929190612930565b604051602081830303815290604052907bffffffffffffffffffffffffffffffffffffffffffffffffffffffff19166020820180517bffffffffffffffffffffffffffffffffffffffffffffffffffffffff838183161783525050505061208c565b505050565b60008183611d459190612a6d565b905092915050565b60008183611d5b9190612af6565b905092915050565b611d6b610f91565b611daa576040517f08c379a0000000000000000000000000000000000000000000000000000000008152600401611da190612b73565b60405180910390fd5b60008060146101000a81548160ff0219169083151502179055507f5db9ee0a495bf2e6ff9c91a7834c1ba4fdd244a5e8aa4e537bd38aeae4b073aa611ded611e95565b604051611dfa9190612332565b60405180910390a1565b611e93600860009054906101000a900473ffffffffffffffffffffffffffffffffffffffff167fffffffffffffffffffffffffffffffffffffffffffffffffffffffffffffffff600760009054906101000a900473ffffffffffffffffffffffffffffffffffffffff1673ffffffffffffffffffffffffffffffffffffffff16611b349092919063ffffffff16565b565b600033905090565b60008060009054906101000a900473ffffffffffffffffffffffffffffffffffffffff169050816000806101000a81548173ffffffffffffffffffffffffffffffffffffffff021916908373ffffffffffffffffffffffffffffffffffffffff1602179055508173ffffffffffffffffffffffffffffffffffffffff168173ffffffffffffffffffffffffffffffffffffffff167f8be0079c531659141344cd1fd0a4f28419497f9722a3daafe3b4186f6b6457e060405160405180910390a35050565b60008183611f6f9190612b93565b905092915050565b611f7f610f91565b15611fbf576040517f08c379a0000000000000000000000000000000000000000000000000000000008152600401611fb69061278b565b60405180910390fd5b6001600060146101000a81548160ff0219169083151502179055507f62e78cea01bee320cd4e420270b5ea74000d11b0c9f74754ebdbfc544b05a258612003611e95565b6040516120109190612332565b60405180910390a1565b61208a600860009054906101000a900473ffffffffffffffffffffffffffffffffffffffff166000600760009054906101000a900473ffffffffffffffffffffffffffffffffffffffff1673ffffffffffffffffffffffffffffffffffffffff16611b349092919063ffffffff16565b565b60006120ee826040518060400160405280602081526020017f5361666545524332303a206c6f772d6c6576656c2063616c6c206661696c65648152508573ffffffffffffffffffffffffffffffffffffffff16611c839092919063ffffffff16565b905060008151111561214e578080602001905181019061210e9190612985565b61214d576040517f08c379a000000000000000000000000000000000000000000000000000000000815260040161214490612c5b565b60405180910390fd5b5b505050565b606082471015612198576040517f08c379a000000000000000000000000000000000000000000000000000000000815260040161218f90612ced565b60405180910390fd5b6121a185612267565b6121e0576040517f08c379a00000000000000000000000000000000000000000000000000000000081526004016121d790612d59565b60405180910390fd5b6000808673ffffffffffffffffffffffffffffffffffffffff1685876040516122099190612df3565b60006040518083038185875af1925050503d8060008114612246576040519150601f19603f3d011682016040523d82523d6000602084013e61224b565b606091505b509150915061225b82828661228a565b92505050949350505050565b6000808273ffffffffffffffffffffffffffffffffffffffff163b119050919050565b6060831561229a578290506122ea565b6000835111156122ad5782518084602001fd5b816040517f08c379a00000000000000000000000000000000000000000000000000000000081526004016122e19190612e5f565b60405180910390fd5b9392505050565b600073ffffffffffffffffffffffffffffffffffffffff82169050919050565b600061231c826122f1565b9050919050565b61232c81612311565b82525050565b60006020820190506123476000830184612323565b92915050565b6000819050919050565b6123608161234d565b82525050565b600060208201905061237b6000830184612357565b92915050565b600080fd5b61238f8161234d565b811461239a57600080fd5b50565b6000813590506123ac81612386565b92915050565b6000602082840312156123c8576123c7612381565b5b60006123d68482850161239d565b91505092915050565b60008115159050919050565b6123f4816123df565b82525050565b600060208201905061240f60008301846123eb565b92915050565b61241e81612311565b811461242957600080fd5b50565b60008135905061243b81612415565b92915050565b60006020828403121561245757612456612381565b5b60006124658482850161242c565b91505092915050565b6000819050919050565b6000819050919050565b600061249d6124986124938461246e565b612478565b61234d565b9050919050565b6124ad81612482565b82525050565b60006040820190506124c860008301856124a4565b6124d56020830184612323565b9392505050565b6000815190506124eb81612386565b92915050565b6000806040838503121561250857612507612381565b5b6000612516858286016124dc565b9250506020612527858286016124dc565b9150509250929050565b600082825260208201905092915050565b7f216d616e61676572000000000000000000000000000000000000000000000000600082015250565b6000612578600883612531565b915061258382612542565b602082019050919050565b600060208201905081810360008301526125a78161256b565b9050919050565b7f2163617000000000000000000000000000000000000000000000000000000000600082015250565b60006125e4600483612531565b91506125ef826125ae565b602082019050919050565b60006020820190508181036000830152612613816125d7565b9050919050565b7f4e487b7100000000000000000000000000000000000000000000000000000000600052601160045260246000fd5b60006126548261234d565b915061265f8361234d565b9250828210156126725761267161261a565b5b828203905092915050565b7f217661756c740000000000000000000000000000000000000000000000000000600082015250565b60006126b3600683612531565b91506126be8261267d565b602082019050919050565b600060208201905081810360008301526126e2816126a6565b9050919050565b6000602082840312156126ff576126fe612381565b5b600061270d848285016124dc565b91505092915050565b600060408201905061272b60008301856124a4565b6127386020830184612357565b9392505050565b7f5061757361626c653a2070617573656400000000000000000000000000000000600082015250565b6000612775601083612531565b91506127808261273f565b602082019050919050565b600060208201905081810360008301526127a481612768565b9050919050565b7f21636f6e74726163740000000000000000000000000000000000000000000000600082015250565b60006127e1600983612531565b91506127ec826127ab565b602082019050919050565b60006020820190508181036000830152612810816127d4565b9050919050565b600060208201905061282c60008301846124a4565b92915050565b7f4f776e61626c653a2063616c6c6572206973206e6f7420746865206f776e6572600082015250565b6000612868602083612531565b915061287382612832565b602082019050919050565b600060208201905081810360008301526128978161285b565b9050919050565b7f4f776e61626c653a206e6577206f776e657220697320746865207a65726f206160008201527f6464726573730000000000000000000000000000000000000000000000000000602082015250565b60006128fa602683612531565b91506129058261289e565b604082019050919050565b60006020820190508181036000830152612929816128ed565b9050919050565b60006040820190506129456000830185612323565b6129526020830184612357565b9392505050565b612962816123df565b811461296d57600080fd5b50565b60008151905061297f81612959565b92915050565b60006020828403121561299b5761299a612381565b5b60006129a984828501612970565b91505092915050565b60006040820190506129c76000830185612323565b6129d46020830184612323565b9392505050565b7f5361666545524332303a20617070726f76652066726f6d206e6f6e2d7a65726f60008201527f20746f206e6f6e2d7a65726f20616c6c6f77616e636500000000000000000000602082015250565b6000612a37603683612531565b9150612a42826129db565b604082019050919050565b60006020820190508181036000830152612a6681612a2a565b9050919050565b6000612a788261234d565b9150612a838361234d565b9250817fffffffffffffffffffffffffffffffffffffffffffffffffffffffffffffffff0483118215151615612abc57612abb61261a565b5b828202905092915050565b7f4e487b7100000000000000000000000000000000000000000000000000000000600052601260045260246000fd5b6000612b018261234d565b9150612b0c8361234d565b925082612b1c57612b1b612ac7565b5b828204905092915050565b7f5061757361626c653a206e6f7420706175736564000000000000000000000000600082015250565b6000612b5d601483612531565b9150612b6882612b27565b602082019050919050565b60006020820190508181036000830152612b8c81612b50565b9050919050565b6000612b9e8261234d565b9150612ba98361234d565b9250827fffffffffffffffffffffffffffffffffffffffffffffffffffffffffffffffff03821115612bde57612bdd61261a565b5b828201905092915050565b7f5361666545524332303a204552433230206f7065726174696f6e20646964206e60008201527f6f74207375636365656400000000000000000000000000000000000000000000602082015250565b6000612c45602a83612531565b9150612c5082612be9565b604082019050919050565b60006020820190508181036000830152612c7481612c38565b9050919050565b7f416464726573733a20696e73756666696369656e742062616c616e636520666f60008201527f722063616c6c0000000000000000000000000000000000000000000000000000602082015250565b6000612cd7602683612531565b9150612ce282612c7b565b604082019050919050565b60006020820190508181036000830152612d0681612cca565b9050919050565b7f416464726573733a2063616c6c20746f206e6f6e2d636f6e7472616374000000600082015250565b6000612d43601d83612531565b9150612d4e82612d0d565b602082019050919050565b60006020820190508181036000830152612d7281612d36565b9050919050565b600081519050919050565b600081905092915050565b60005b83811015612dad578082015181840152602081019050612d92565b83811115612dbc576000848401525b50505050565b6000612dcd82612d79565b612dd78185612d84565b9350612de7818560208601612d8f565b80840191505092915050565b6000612dff8284612dc2565b915081905092915050565b600081519050919050565b6000601f19601f8301169050919050565b6000612e3182612e0a565b612e3b8185612531565b9350612e4b818560208601612d8f565b612e5481612e15565b840191505092915050565b60006020820190508181036000830152612e798184612e26565b90509291505056fea26469706673582212206a71b41266a2bc010ac6926f13f55db7a11c5f37c24a99297f8db709ba66715764736f6c634300080b0033",
  "linkReferences": {},
  "deployedLinkReferences": {}
}