{
  "_format": "hh-sol-artifact-1",
  "contractName": "PLFY_Vault",
  "sourceName": "src/contracts/vaults/PLFY_Vault.sol",
  "abi": [
    {
      "inputs": [
        {
          "internalType": "string",
          "name": "_name",
          "type": "string"
        },
        {
          "internalType": "string",
          "name": "_symbol",
          "type": "string"
        },
        {
          "internalType": "uint256",
          "name": "_approvalDelay",
          "type": "uint256"
        }
      ],
      "stateMutability": "nonpayable",
      "type": "constructor"
    },
    {
      "anonymous": false,
      "inputs": [
        {
          "indexed": true,
          "internalType": "address",
          "name": "owner",
          "type": "address"
        },
        {
          "indexed": true,
          "internalType": "address",
          "name": "spender",
          "type": "address"
        },
        {
          "indexed": false,
          "internalType": "uint256",
          "name": "value",
          "type": "uint256"
        }
      ],
      "name": "Approval",
      "type": "event"
    },
    {
      "anonymous": false,
      "inputs": [
        {
          "indexed": false,
          "internalType": "address",
          "name": "implementation",
          "type": "address"
        }
      ],
      "name": "NewStratCandidate",
      "type": "event"
    },
    {
      "anonymous": false,
      "inputs": [
        {
          "indexed": true,
          "internalType": "address",
          "name": "previousOwner",
          "type": "address"
        },
        {
          "indexed": true,
          "internalType": "address",
          "name": "newOwner",
          "type": "address"
        }
      ],
      "name": "OwnershipTransferred",
      "type": "event"
    },
    {
      "anonymous": false,
      "inputs": [
        {
          "indexed": true,
          "internalType": "address",
          "name": "from",
          "type": "address"
        },
        {
          "indexed": true,
          "internalType": "address",
          "name": "to",
          "type": "address"
        },
        {
          "indexed": false,
          "internalType": "uint256",
          "name": "value",
          "type": "uint256"
        }
      ],
      "name": "Transfer",
      "type": "event"
    },
    {
      "anonymous": false,
      "inputs": [
        {
          "indexed": false,
          "internalType": "address",
          "name": "implementation",
          "type": "address"
        }
      ],
      "name": "UpgradeStrat",
      "type": "event"
    },
    {
      "inputs": [
        {
          "internalType": "address",
          "name": "owner",
          "type": "address"
        },
        {
          "internalType": "address",
          "name": "spender",
          "type": "address"
        }
      ],
      "name": "allowance",
      "outputs": [
        {
          "internalType": "uint256",
          "name": "",
          "type": "uint256"
        }
      ],
      "stateMutability": "view",
      "type": "function"
    },
    {
      "inputs": [],
      "name": "approvalDelay",
      "outputs": [
        {
          "internalType": "uint256",
          "name": "",
          "type": "uint256"
        }
      ],
      "stateMutability": "view",
      "type": "function"
    },
    {
      "inputs": [
        {
          "internalType": "address",
          "name": "spender",
          "type": "address"
        },
        {
          "internalType": "uint256",
          "name": "amount",
          "type": "uint256"
        }
      ],
      "name": "approve",
      "outputs": [
        {
          "internalType": "bool",
          "name": "",
          "type": "bool"
        }
      ],
      "stateMutability": "nonpayable",
      "type": "function"
    },
    {
      "inputs": [],
      "name": "available_want",
      "outputs": [
        {
          "internalType": "uint256",
          "name": "",
          "type": "uint256"
        }
      ],
      "stateMutability": "view",
      "type": "function"
    },
    {
      "inputs": [
        {
          "internalType": "address",
          "name": "account",
          "type": "address"
        }
      ],
      "name": "balanceOf",
      "outputs": [
        {
          "internalType": "uint256",
          "name": "",
          "type": "uint256"
        }
      ],
      "stateMutability": "view",
      "type": "function"
    },
    {
      "inputs": [],
      "name": "balance_reward",
      "outputs": [
        {
          "internalType": "uint256",
          "name": "",
          "type": "uint256"
        }
      ],
      "stateMutability": "view",
      "type": "function"
    },
    {
      "inputs": [],
      "name": "balance_want",
      "outputs": [
        {
          "internalType": "uint256",
          "name": "",
          "type": "uint256"
        }
      ],
      "stateMutability": "view",
      "type": "function"
    },
    {
      "inputs": [],
      "name": "decimals",
      "outputs": [
        {
          "internalType": "uint8",
          "name": "",
          "type": "uint8"
        }
      ],
      "stateMutability": "view",
      "type": "function"
    },
    {
      "inputs": [
        {
          "internalType": "address",
          "name": "spender",
          "type": "address"
        },
        {
          "internalType": "uint256",
          "name": "subtractedValue",
          "type": "uint256"
        }
      ],
      "name": "decreaseAllowance",
      "outputs": [
        {
          "internalType": "bool",
          "name": "",
          "type": "bool"
        }
      ],
      "stateMutability": "nonpayable",
      "type": "function"
    },
    {
      "inputs": [
        {
          "internalType": "uint256",
          "name": "_amount",
          "type": "uint256"
        }
      ],
      "name": "deposit",
      "outputs": [],
      "stateMutability": "nonpayable",
      "type": "function"
    },
    {
      "inputs": [],
      "name": "depositAll",
      "outputs": [],
      "stateMutability": "nonpayable",
      "type": "function"
    },
    {
      "inputs": [],
      "name": "earn",
      "outputs": [],
      "stateMutability": "nonpayable",
      "type": "function"
    },
    {
      "inputs": [],
      "name": "getPricePerFullShare_reward",
      "outputs": [
        {
          "internalType": "uint256",
          "name": "",
          "type": "uint256"
        }
      ],
      "stateMutability": "view",
      "type": "function"
    },
    {
      "inputs": [],
      "name": "getPricePerFullShare_want",
      "outputs": [
        {
          "internalType": "uint256",
          "name": "",
          "type": "uint256"
        }
      ],
      "stateMutability": "view",
      "type": "function"
    },
    {
      "inputs": [
        {
          "internalType": "address",
          "name": "_token",
          "type": "address"
        }
      ],
      "name": "inCaseTokensGetStuck",
      "outputs": [],
      "stateMutability": "nonpayable",
      "type": "function"
    },
    {
      "inputs": [
        {
          "internalType": "address",
          "name": "spender",
          "type": "address"
        },
        {
          "internalType": "uint256",
          "name": "addedValue",
          "type": "uint256"
        }
      ],
      "name": "increaseAllowance",
      "outputs": [
        {
          "internalType": "bool",
          "name": "",
          "type": "bool"
        }
      ],
      "stateMutability": "nonpayable",
      "type": "function"
    },
    {
      "inputs": [],
      "name": "name",
      "outputs": [
        {
          "internalType": "string",
          "name": "",
          "type": "string"
        }
      ],
      "stateMutability": "view",
      "type": "function"
    },
    {
      "inputs": [],
      "name": "owner",
      "outputs": [
        {
          "internalType": "address",
          "name": "",
          "type": "address"
        }
      ],
      "stateMutability": "view",
      "type": "function"
    },
    {
      "inputs": [
        {
          "internalType": "address",
          "name": "_implementation",
          "type": "address"
        }
      ],
      "name": "proposeStrat",
      "outputs": [],
      "stateMutability": "nonpayable",
      "type": "function"
    },
    {
      "inputs": [],
      "name": "renounceOwnership",
      "outputs": [],
      "stateMutability": "nonpayable",
      "type": "function"
    },
    {
      "inputs": [],
      "name": "reward",
      "outputs": [
        {
          "internalType": "contract IERC20",
          "name": "",
          "type": "address"
        }
      ],
      "stateMutability": "view",
      "type": "function"
    },
    {
      "inputs": [
        {
          "internalType": "address",
          "name": "_strategy",
          "type": "address"
        }
      ],
      "name": "setDefaultStrategy",
      "outputs": [],
      "stateMutability": "nonpayable",
      "type": "function"
    },
    {
      "inputs": [],
      "name": "stratCandidate",
      "outputs": [
        {
          "internalType": "address",
          "name": "implementation",
          "type": "address"
        },
        {
          "internalType": "uint256",
          "name": "proposedTime",
          "type": "uint256"
        }
      ],
      "stateMutability": "view",
      "type": "function"
    },
    {
      "inputs": [],
      "name": "strategy",
      "outputs": [
        {
          "internalType": "contract IStrategy",
          "name": "",
          "type": "address"
        }
      ],
      "stateMutability": "view",
      "type": "function"
    },
    {
      "inputs": [],
      "name": "symbol",
      "outputs": [
        {
          "internalType": "string",
          "name": "",
          "type": "string"
        }
      ],
      "stateMutability": "view",
      "type": "function"
    },
    {
      "inputs": [],
      "name": "totalSupply",
      "outputs": [
        {
          "internalType": "uint256",
          "name": "",
          "type": "uint256"
        }
      ],
      "stateMutability": "view",
      "type": "function"
    },
    {
      "inputs": [
        {
          "internalType": "address",
          "name": "to",
          "type": "address"
        },
        {
          "internalType": "uint256",
          "name": "amount",
          "type": "uint256"
        }
      ],
      "name": "transfer",
      "outputs": [
        {
          "internalType": "bool",
          "name": "",
          "type": "bool"
        }
      ],
      "stateMutability": "nonpayable",
      "type": "function"
    },
    {
      "inputs": [
        {
          "internalType": "address",
          "name": "from",
          "type": "address"
        },
        {
          "internalType": "address",
          "name": "to",
          "type": "address"
        },
        {
          "internalType": "uint256",
          "name": "amount",
          "type": "uint256"
        }
      ],
      "name": "transferFrom",
      "outputs": [
        {
          "internalType": "bool",
          "name": "",
          "type": "bool"
        }
      ],
      "stateMutability": "nonpayable",
      "type": "function"
    },
    {
      "inputs": [
        {
          "internalType": "address",
          "name": "newOwner",
          "type": "address"
        }
      ],
      "name": "transferOwnership",
      "outputs": [],
      "stateMutability": "nonpayable",
      "type": "function"
    },
    {
      "inputs": [],
      "name": "upgradeStrat",
      "outputs": [],
      "stateMutability": "nonpayable",
      "type": "function"
    },
    {
      "inputs": [],
      "name": "want",
      "outputs": [
        {
          "internalType": "contract IERC20",
          "name": "",
          "type": "address"
        }
      ],
      "stateMutability": "view",
      "type": "function"
    },
    {
      "inputs": [
        {
          "internalType": "uint256",
          "name": "_shares",
          "type": "uint256"
        }
      ],
      "name": "withdraw",
      "outputs": [],
      "stateMutability": "nonpayable",
      "type": "function"
    },
    {
      "inputs": [],
      "name": "withdrawAll",
      "outputs": [],
      "stateMutability": "nonpayable",
      "type": "function"
    }
  ],
  "bytecode": "0x60a06040526000600760006101000a81548160ff0219169083151502179055503480156200002c57600080fd5b506040516200448638038062004486833981810160405281019062000052919062000417565b828281600390805190602001906200006c9291906200018f565b508060049080519060200190620000859291906200018f565b505050620000a86200009c620000c160201b60201c565b620000c960201b60201c565b6001600681905550806080818152505050505062000516565b600033905090565b6000600560009054906101000a900473ffffffffffffffffffffffffffffffffffffffff16905081600560006101000a81548173ffffffffffffffffffffffffffffffffffffffff021916908373ffffffffffffffffffffffffffffffffffffffff1602179055508173ffffffffffffffffffffffffffffffffffffffff168173ffffffffffffffffffffffffffffffffffffffff167f8be0079c531659141344cd1fd0a4f28419497f9722a3daafe3b4186f6b6457e060405160405180910390a35050565b8280546200019d90620004e0565b90600052602060002090601f016020900481019282620001c157600085556200020d565b82601f10620001dc57805160ff19168380011785556200020d565b828001600101855582156200020d579182015b828111156200020c578251825591602001919060010190620001ef565b5b5090506200021c919062000220565b5090565b5b808211156200023b57600081600090555060010162000221565b5090565b6000604051905090565b600080fd5b600080fd5b600080fd5b600080fd5b6000601f19601f8301169050919050565b7f4e487b7100000000000000000000000000000000000000000000000000000000600052604160045260246000fd5b620002a8826200025d565b810181811067ffffffffffffffff82111715620002ca57620002c96200026e565b5b80604052505050565b6000620002df6200023f565b9050620002ed82826200029d565b919050565b600067ffffffffffffffff82111562000310576200030f6200026e565b5b6200031b826200025d565b9050602081019050919050565b60005b83811015620003485780820151818401526020810190506200032b565b8381111562000358576000848401525b50505050565b6000620003756200036f84620002f2565b620002d3565b90508281526020810184848401111562000394576200039362000258565b5b620003a184828562000328565b509392505050565b600082601f830112620003c157620003c062000253565b5b8151620003d38482602086016200035e565b91505092915050565b6000819050919050565b620003f181620003dc565b8114620003fd57600080fd5b50565b6000815190506200041181620003e6565b92915050565b60008060006060848603121562000433576200043262000249565b5b600084015167ffffffffffffffff8111156200045457620004536200024e565b5b6200046286828701620003a9565b935050602084015167ffffffffffffffff8111156200048657620004856200024e565b5b6200049486828701620003a9565b9250506040620004a78682870162000400565b9150509250925092565b7f4e487b7100000000000000000000000000000000000000000000000000000000600052602260045260246000fd5b60006002820490506001821680620004f957607f821691505b6020821081141562000510576200050f620004b1565b5b50919050565b608051613f4d6200053960003960008181611b900152611cc90152613f4d6000f3fe608060405234801561001057600080fd5b50600436106101fb5760003560e01c806376dfabb81161011a578063b6b55f25116100ad578063de5f62681161007c578063de5f626814610583578063def68a9c1461058d578063e2d1e75c146105a9578063e6685244146105c7578063f2fde38b146105d1576101fb565b8063b6b55f251461050f578063d389800f1461052b578063d892a2fc14610535578063dd62ed3e14610553576101fb565b80639fa4e8e9116100e95780639fa4e8e914610473578063a457c2d714610491578063a8c62e76146104c1578063a9059cbb146104df576101fb565b806376dfabb81461040e578063853828b61461042d5780638da5cb5b1461043757806395d89b4114610455576101fb565b8063313ce567116101925780635b12ff9b116101615780635b12ff9b1461039a5780636d4e7045146103b657806370a08231146103d4578063715018a614610404576101fb565b8063313ce56714610312578063395093511461033057806355c3c1cc1461036057806357bee9441461037e576101fb565b80631f1fcd51116101ce5780631f1fcd511461028a578063228cb733146102a857806323b872dd146102c65780632e1a7d4d146102f6576101fb565b806306fdde0314610200578063095ea7b31461021e57806309a3fe591461024e57806318160ddd1461026c575b600080fd5b6102086105ed565b6040516102159190612d3a565b60405180910390f35b61023860048036038101906102339190612df5565b61067f565b6040516102459190612e50565b60405180910390f35b6102566106a2565b6040516102639190612e7a565b60405180910390f35b6102746107cc565b6040516102819190612e7a565b60405180910390f35b6102926107d6565b60405161029f9190612ef4565b60405180910390f35b6102b061086e565b6040516102bd9190612ef4565b60405180910390f35b6102e060048036038101906102db9190612f0f565b610906565b6040516102ed9190612e50565b60405180910390f35b610310600480360381019061030b9190612f62565b610935565b005b61031a610c06565b6040516103279190612fab565b60405180910390f35b61034a60048036038101906103459190612df5565b610c0f565b6040516103579190612e50565b60405180910390f35b610368610cb9565b6040516103759190612e7a565b60405180910390f35b61039860048036038101906103939190612fc6565b610d18565b005b6103b460048036038101906103af9190612fc6565b610f25565b005b6103be611138565b6040516103cb9190612e7a565b60405180910390f35b6103ee60048036038101906103e99190612fc6565b611197565b6040516103fb9190612e7a565b60405180910390f35b61040c6111df565b005b610416611267565b604051610424929190613002565b60405180910390f35b610435611299565b005b61043f6112ac565b60405161044c919061302b565b60405180910390f35b61045d6112d6565b60405161046a9190612d3a565b60405180910390f35b61047b611368565b6040516104889190612e7a565b60405180910390f35b6104ab60048036038101906104a69190612df5565b6113f0565b6040516104b89190612e50565b60405180910390f35b6104c96114da565b6040516104d69190613067565b60405180910390f35b6104f960048036038101906104f49190612df5565b611500565b6040516105069190612e50565b60405180910390f35b61052960048036038101906105249190612f62565b611523565b005b6105336116bc565b005b61053d6117a1565b60405161054a9190612e7a565b60405180910390f35b61056d60048036038101906105689190613082565b6118dd565b60405161057a9190612e7a565b60405180910390f35b61058b611964565b005b6105a760048036038101906105a29190612fc6565b6119ef565b005b6105b1611b8e565b6040516105be9190612e7a565b60405180910390f35b6105cf611bb2565b005b6105eb60048036038101906105e69190612fc6565b611ede565b005b6060600380546105fc906130f1565b80601f0160208091040260200160405190810160405280929190818152602001828054610628906130f1565b80156106755780601f1061064a57610100808354040283529160200191610675565b820191906000526020600020905b81548152906001019060200180831161065857829003601f168201915b5050505050905090565b60008061068a611fd6565b9050610697818585611fde565b600191505092915050565b60006107c7600a60009054906101000a900473ffffffffffffffffffffffffffffffffffffffff1673ffffffffffffffffffffffffffffffffffffffff1663722713f76040518163ffffffff1660e01b8152600401602060405180830381865afa158015610714573d6000803e3d6000fd5b505050506040513d601f19601f820116820180604052508101906107389190613138565b6107406107d6565b73ffffffffffffffffffffffffffffffffffffffff166370a08231306040518263ffffffff1660e01b8152600401610778919061302b565b602060405180830381865afa158015610795573d6000803e3d6000fd5b505050506040513d601f19601f820116820180604052508101906107b99190613138565b6121a990919063ffffffff16565b905090565b6000600254905090565b6000600a60009054906101000a900473ffffffffffffffffffffffffffffffffffffffff1673ffffffffffffffffffffffffffffffffffffffff16631f1fcd516040518163ffffffff1660e01b8152600401602060405180830381865afa158015610845573d6000803e3d6000fd5b505050506040513d601f19601f8201168201806040525081019061086991906131a3565b905090565b6000600a60009054906101000a900473ffffffffffffffffffffffffffffffffffffffff1673ffffffffffffffffffffffffffffffffffffffff1663228cb7336040518163ffffffff1660e01b8152600401602060405180830381865afa1580156108dd573d6000803e3d6000fd5b505050506040513d601f19601f8201168201806040525081019061090191906131a3565b905090565b600080610911611fd6565b905061091e8582856121bf565b61092985858561224b565b60019150509392505050565b600061096a6109426107cc565b61095c8461094e6106a2565b6124cc90919063ffffffff16565b6124e290919063ffffffff16565b905060006109a16109796107cc565b610993856109856117a1565b6124cc90919063ffffffff16565b6124e290919063ffffffff16565b90506109ad33846124f8565b60006109b76107d6565b73ffffffffffffffffffffffffffffffffffffffff166370a08231306040518263ffffffff1660e01b81526004016109ef919061302b565b602060405180830381865afa158015610a0c573d6000803e3d6000fd5b505050506040513d601f19601f82011682018060405250810190610a309190613138565b905082811015610b9c576000610a4f82856126cf90919063ffffffff16565b9050600a60009054906101000a900473ffffffffffffffffffffffffffffffffffffffff1673ffffffffffffffffffffffffffffffffffffffff16632e1a7d4d826040518263ffffffff1660e01b8152600401610aac9190612e7a565b600060405180830381600087803b158015610ac657600080fd5b505af1158015610ada573d6000803e3d6000fd5b505050506000610ae86107d6565b73ffffffffffffffffffffffffffffffffffffffff166370a08231306040518263ffffffff1660e01b8152600401610b20919061302b565b602060405180830381865afa158015610b3d573d6000803e3d6000fd5b505050506040513d601f19601f82011682018060405250810190610b619190613138565b90506000610b7884836126cf90919063ffffffff16565b905082811015610b9857610b9581856121a990919063ffffffff16565b95505b5050505b610bce3383610ba961086e565b73ffffffffffffffffffffffffffffffffffffffff166126e59092919063ffffffff16565b610c003384610bdb6107d6565b73ffffffffffffffffffffffffffffffffffffffff166126e59092919063ffffffff16565b50505050565b60006012905090565b600080610c1a611fd6565b9050610cae818585600160008673ffffffffffffffffffffffffffffffffffffffff1673ffffffffffffffffffffffffffffffffffffffff16815260200190815260200160002060008973ffffffffffffffffffffffffffffffffffffffff1673ffffffffffffffffffffffffffffffffffffffff16815260200190815260200160002054610ca991906131ff565b611fde565b600191505092915050565b600080610cc46107cc565b14610d0957610d04610cd46107cc565b610cf6670de0b6b3a7640000610ce86106a2565b6124cc90919063ffffffff16565b6124e290919063ffffffff16565b610d13565b670de0b6b3a76400005b905090565b610d20611fd6565b73ffffffffffffffffffffffffffffffffffffffff16610d3e6112ac565b73ffffffffffffffffffffffffffffffffffffffff1614610d94576040517f08c379a0000000000000000000000000000000000000000000000000000000008152600401610d8b906132a1565b60405180910390fd5b8073ffffffffffffffffffffffffffffffffffffffff1663fbfa77cf6040518163ffffffff1660e01b8152600401602060405180830381865afa158015610ddf573d6000803e3d6000fd5b505050506040513d601f19601f82011682018060405250810190610e0391906132d6565b73ffffffffffffffffffffffffffffffffffffffff163073ffffffffffffffffffffffffffffffffffffffff1614610e70576040517f08c379a0000000000000000000000000000000000000000000000000000000008152600401610e6790613375565b60405180910390fd5b60001515600760009054906101000a900460ff16151514610ec6576040517f08c379a0000000000000000000000000000000000000000000000000000000008152600401610ebd906133e1565b60405180910390fd5b80600a60006101000a81548173ffffffffffffffffffffffffffffffffffffffff021916908373ffffffffffffffffffffffffffffffffffffffff1602179055506001600760006101000a81548160ff02191690831515021790555050565b610f2d611fd6565b73ffffffffffffffffffffffffffffffffffffffff16610f4b6112ac565b73ffffffffffffffffffffffffffffffffffffffff1614610fa1576040517f08c379a0000000000000000000000000000000000000000000000000000000008152600401610f98906132a1565b60405180910390fd5b8073ffffffffffffffffffffffffffffffffffffffff1663fbfa77cf6040518163ffffffff1660e01b8152600401602060405180830381865afa158015610fec573d6000803e3d6000fd5b505050506040513d601f19601f8201168201806040525081019061101091906132d6565b73ffffffffffffffffffffffffffffffffffffffff163073ffffffffffffffffffffffffffffffffffffffff161461107d576040517f08c379a000000000000000000000000000000000000000000000000000000000815260040161107490613375565b60405180910390fd5b60405180604001604052808273ffffffffffffffffffffffffffffffffffffffff16815260200142815250600860008201518160000160006101000a81548173ffffffffffffffffffffffffffffffffffffffff021916908373ffffffffffffffffffffffffffffffffffffffff160217905550602082015181600101559050507f1aae2ec5647db56da2d513de40528ba3565c6057525637050660c4323bbac7df8160405161112d919061302b565b60405180910390a150565b6000806111436107cc565b14611188576111836111536107cc565b611175670de0b6b3a76400006111676117a1565b6124cc90919063ffffffff16565b6124e290919063ffffffff16565b611192565b670de0b6b3a76400005b905090565b60008060008373ffffffffffffffffffffffffffffffffffffffff1673ffffffffffffffffffffffffffffffffffffffff168152602001908152602001600020549050919050565b6111e7611fd6565b73ffffffffffffffffffffffffffffffffffffffff166112056112ac565b73ffffffffffffffffffffffffffffffffffffffff161461125b576040517f08c379a0000000000000000000000000000000000000000000000000000000008152600401611252906132a1565b60405180910390fd5b611265600061276b565b565b60088060000160009054906101000a900473ffffffffffffffffffffffffffffffffffffffff16908060010154905082565b6112aa6112a533611197565b610935565b565b6000600560009054906101000a900473ffffffffffffffffffffffffffffffffffffffff16905090565b6060600480546112e5906130f1565b80601f0160208091040260200160405190810160405280929190818152602001828054611311906130f1565b801561135e5780601f106113335761010080835404028352916020019161135e565b820191906000526020600020905b81548152906001019060200180831161134157829003601f168201915b5050505050905090565b60006113726107d6565b73ffffffffffffffffffffffffffffffffffffffff166370a08231306040518263ffffffff1660e01b81526004016113aa919061302b565b602060405180830381865afa1580156113c7573d6000803e3d6000fd5b505050506040513d601f19601f820116820180604052508101906113eb9190613138565b905090565b6000806113fb611fd6565b90506000600160008373ffffffffffffffffffffffffffffffffffffffff1673ffffffffffffffffffffffffffffffffffffffff16815260200190815260200160002060008673ffffffffffffffffffffffffffffffffffffffff1673ffffffffffffffffffffffffffffffffffffffff168152602001908152602001600020549050838110156114c1576040517f08c379a00000000000000000000000000000000000000000000000000000000081526004016114b890613473565b60405180910390fd5b6114ce8286868403611fde565b60019250505092915050565b600a60009054906101000a900473ffffffffffffffffffffffffffffffffffffffff1681565b60008061150b611fd6565b905061151881858561224b565b600191505092915050565b60026006541415611569576040517f08c379a0000000000000000000000000000000000000000000000000000000008152600401611560906134df565b60405180910390fd5b6002600681905550600a60009054906101000a900473ffffffffffffffffffffffffffffffffffffffff1673ffffffffffffffffffffffffffffffffffffffff1663573fef0a6040518163ffffffff1660e01b8152600401600060405180830381600087803b1580156115db57600080fd5b505af11580156115ef573d6000803e3d6000fd5b5050505060006115fd6106a2565b905061163333308461160d6107d6565b73ffffffffffffffffffffffffffffffffffffffff16612831909392919063ffffffff16565b61163b6116bc565b60006116456106a2565b905061165a82826126cf90919063ffffffff16565b92506000806116676107cc565b1415611675578390506116a4565b6116a1836116936116846107cc565b876124cc90919063ffffffff16565b6124e290919063ffffffff16565b90505b6116ae33826128ba565b505050600160068190555050565b60006116c6611368565b905061171c600a60009054906101000a900473ffffffffffffffffffffffffffffffffffffffff16826116f76107d6565b73ffffffffffffffffffffffffffffffffffffffff166126e59092919063ffffffff16565b600a60009054906101000a900473ffffffffffffffffffffffffffffffffffffffff1673ffffffffffffffffffffffffffffffffffffffff1663d0e30db06040518163ffffffff1660e01b8152600401600060405180830381600087803b15801561178657600080fd5b505af115801561179a573d6000803e3d6000fd5b5050505050565b60006118d86117ae61086e565b73ffffffffffffffffffffffffffffffffffffffff166370a08231600a60009054906101000a900473ffffffffffffffffffffffffffffffffffffffff166040518263ffffffff1660e01b8152600401611808919061302b565b602060405180830381865afa158015611825573d6000803e3d6000fd5b505050506040513d601f19601f820116820180604052508101906118499190613138565b61185161086e565b73ffffffffffffffffffffffffffffffffffffffff166370a08231306040518263ffffffff1660e01b8152600401611889919061302b565b602060405180830381865afa1580156118a6573d6000803e3d6000fd5b505050506040513d601f19601f820116820180604052508101906118ca9190613138565b6121a990919063ffffffff16565b905090565b6000600160008473ffffffffffffffffffffffffffffffffffffffff1673ffffffffffffffffffffffffffffffffffffffff16815260200190815260200160002060008373ffffffffffffffffffffffffffffffffffffffff1673ffffffffffffffffffffffffffffffffffffffff16815260200190815260200160002054905092915050565b6119ed61196f6107d6565b73ffffffffffffffffffffffffffffffffffffffff166370a08231336040518263ffffffff1660e01b81526004016119a7919061302b565b602060405180830381865afa1580156119c4573d6000803e3d6000fd5b505050506040513d601f19601f820116820180604052508101906119e89190613138565b611523565b565b6119f7611fd6565b73ffffffffffffffffffffffffffffffffffffffff16611a156112ac565b73ffffffffffffffffffffffffffffffffffffffff1614611a6b576040517f08c379a0000000000000000000000000000000000000000000000000000000008152600401611a62906132a1565b60405180910390fd5b611a736107d6565b73ffffffffffffffffffffffffffffffffffffffff168173ffffffffffffffffffffffffffffffffffffffff161415611ae1576040517f08c379a0000000000000000000000000000000000000000000000000000000008152600401611ad89061354b565b60405180910390fd5b60008173ffffffffffffffffffffffffffffffffffffffff166370a08231306040518263ffffffff1660e01b8152600401611b1c919061302b565b602060405180830381865afa158015611b39573d6000803e3d6000fd5b505050506040513d601f19601f82011682018060405250810190611b5d9190613138565b9050611b8a33828473ffffffffffffffffffffffffffffffffffffffff166126e59092919063ffffffff16565b5050565b7f000000000000000000000000000000000000000000000000000000000000000081565b611bba611fd6565b73ffffffffffffffffffffffffffffffffffffffff16611bd86112ac565b73ffffffffffffffffffffffffffffffffffffffff1614611c2e576040517f08c379a0000000000000000000000000000000000000000000000000000000008152600401611c25906132a1565b60405180910390fd5b600073ffffffffffffffffffffffffffffffffffffffff16600860000160009054906101000a900473ffffffffffffffffffffffffffffffffffffffff1673ffffffffffffffffffffffffffffffffffffffff161415611cc3576040517f08c379a0000000000000000000000000000000000000000000000000000000008152600401611cba906135b7565b60405180910390fd5b42611cfc7f00000000000000000000000000000000000000000000000000000000000000006008600101546121a990919063ffffffff16565b10611d3c576040517f08c379a0000000000000000000000000000000000000000000000000000000008152600401611d3390613623565b60405180910390fd5b7f7f37d440e85aba7fbf641c4bda5ca4ef669a80bffaacde2aa8d9feb1b048c82c600860000160009054906101000a900473ffffffffffffffffffffffffffffffffffffffff16604051611d90919061302b565b60405180910390a1600a60009054906101000a900473ffffffffffffffffffffffffffffffffffffffff1673ffffffffffffffffffffffffffffffffffffffff1663fb6177876040518163ffffffff1660e01b8152600401600060405180830381600087803b158015611e0257600080fd5b505af1158015611e16573d6000803e3d6000fd5b50505050600860000160009054906101000a900473ffffffffffffffffffffffffffffffffffffffff16600a60006101000a81548173ffffffffffffffffffffffffffffffffffffffff021916908373ffffffffffffffffffffffffffffffffffffffff1602179055506000600860000160006101000a81548173ffffffffffffffffffffffffffffffffffffffff021916908373ffffffffffffffffffffffffffffffffffffffff16021790555064012a05f200600860010181905550611edc6116bc565b565b611ee6611fd6565b73ffffffffffffffffffffffffffffffffffffffff16611f046112ac565b73ffffffffffffffffffffffffffffffffffffffff1614611f5a576040517f08c379a0000000000000000000000000000000000000000000000000000000008152600401611f51906132a1565b60405180910390fd5b600073ffffffffffffffffffffffffffffffffffffffff168173ffffffffffffffffffffffffffffffffffffffff161415611fca576040517f08c379a0000000000000000000000000000000000000000000000000000000008152600401611fc1906136b5565b60405180910390fd5b611fd38161276b565b50565b600033905090565b600073ffffffffffffffffffffffffffffffffffffffff168373ffffffffffffffffffffffffffffffffffffffff16141561204e576040517f08c379a000000000000000000000000000000000000000000000000000000000815260040161204590613747565b60405180910390fd5b600073ffffffffffffffffffffffffffffffffffffffff168273ffffffffffffffffffffffffffffffffffffffff1614156120be576040517f08c379a00000000000000000000000000000000000000000000000000000000081526004016120b5906137d9565b60405180910390fd5b80600160008573ffffffffffffffffffffffffffffffffffffffff1673ffffffffffffffffffffffffffffffffffffffff16815260200190815260200160002060008473ffffffffffffffffffffffffffffffffffffffff1673ffffffffffffffffffffffffffffffffffffffff168152602001908152602001600020819055508173ffffffffffffffffffffffffffffffffffffffff168373ffffffffffffffffffffffffffffffffffffffff167f8c5be1e5ebec7d5bd14f71427d1e84f3dd0314c0f7b2291e5b200ac8c7c3b9258360405161219c9190612e7a565b60405180910390a3505050565b600081836121b791906131ff565b905092915050565b60006121cb84846118dd565b90507fffffffffffffffffffffffffffffffffffffffffffffffffffffffffffffffff81146122455781811015612237576040517f08c379a000000000000000000000000000000000000000000000000000000000815260040161222e90613845565b60405180910390fd5b6122448484848403611fde565b5b50505050565b600073ffffffffffffffffffffffffffffffffffffffff168373ffffffffffffffffffffffffffffffffffffffff1614156122bb576040517f08c379a00000000000000000000000000000000000000000000000000000000081526004016122b2906138d7565b60405180910390fd5b600073ffffffffffffffffffffffffffffffffffffffff168273ffffffffffffffffffffffffffffffffffffffff16141561232b576040517f08c379a000000000000000000000000000000000000000000000000000000000815260040161232290613969565b60405180910390fd5b612336838383612a1a565b60008060008573ffffffffffffffffffffffffffffffffffffffff1673ffffffffffffffffffffffffffffffffffffffff168152602001908152602001600020549050818110156123bc576040517f08c379a00000000000000000000000000000000000000000000000000000000081526004016123b3906139fb565b60405180910390fd5b8181036000808673ffffffffffffffffffffffffffffffffffffffff1673ffffffffffffffffffffffffffffffffffffffff16815260200190815260200160002081905550816000808573ffffffffffffffffffffffffffffffffffffffff1673ffffffffffffffffffffffffffffffffffffffff168152602001908152602001600020600082825461244f91906131ff565b925050819055508273ffffffffffffffffffffffffffffffffffffffff168473ffffffffffffffffffffffffffffffffffffffff167fddf252ad1be2c89b69c2b068fc378daa952ba7f163c4a11628f55a4df523b3ef846040516124b39190612e7a565b60405180910390a36124c6848484612a1f565b50505050565b600081836124da9190613a1b565b905092915050565b600081836124f09190613aa4565b905092915050565b600073ffffffffffffffffffffffffffffffffffffffff168273ffffffffffffffffffffffffffffffffffffffff161415612568576040517f08c379a000000000000000000000000000000000000000000000000000000000815260040161255f90613b47565b60405180910390fd5b61257482600083612a1a565b60008060008473ffffffffffffffffffffffffffffffffffffffff1673ffffffffffffffffffffffffffffffffffffffff168152602001908152602001600020549050818110156125fa576040517f08c379a00000000000000000000000000000000000000000000000000000000081526004016125f190613bd9565b60405180910390fd5b8181036000808573ffffffffffffffffffffffffffffffffffffffff1673ffffffffffffffffffffffffffffffffffffffff1681526020019081526020016000208190555081600260008282546126519190613bf9565b92505081905550600073ffffffffffffffffffffffffffffffffffffffff168373ffffffffffffffffffffffffffffffffffffffff167fddf252ad1be2c89b69c2b068fc378daa952ba7f163c4a11628f55a4df523b3ef846040516126b69190612e7a565b60405180910390a36126ca83600084612a1f565b505050565b600081836126dd9190613bf9565b905092915050565b6127668363a9059cbb60e01b8484604051602401612704929190613002565b604051602081830303815290604052907bffffffffffffffffffffffffffffffffffffffffffffffffffffffff19166020820180517bffffffffffffffffffffffffffffffffffffffffffffffffffffffff8381831617835250505050612a24565b505050565b6000600560009054906101000a900473ffffffffffffffffffffffffffffffffffffffff16905081600560006101000a81548173ffffffffffffffffffffffffffffffffffffffff021916908373ffffffffffffffffffffffffffffffffffffffff1602179055508173ffffffffffffffffffffffffffffffffffffffff168173ffffffffffffffffffffffffffffffffffffffff167f8be0079c531659141344cd1fd0a4f28419497f9722a3daafe3b4186f6b6457e060405160405180910390a35050565b6128b4846323b872dd60e01b85858560405160240161285293929190613c2d565b604051602081830303815290604052907bffffffffffffffffffffffffffffffffffffffffffffffffffffffff19166020820180517bffffffffffffffffffffffffffffffffffffffffffffffffffffffff8381831617835250505050612a24565b50505050565b600073ffffffffffffffffffffffffffffffffffffffff168273ffffffffffffffffffffffffffffffffffffffff16141561292a576040517f08c379a000000000000000000000000000000000000000000000000000000000815260040161292190613cb0565b60405180910390fd5b61293660008383612a1a565b806002600082825461294891906131ff565b92505081905550806000808473ffffffffffffffffffffffffffffffffffffffff1673ffffffffffffffffffffffffffffffffffffffff168152602001908152602001600020600082825461299d91906131ff565b925050819055508173ffffffffffffffffffffffffffffffffffffffff16600073ffffffffffffffffffffffffffffffffffffffff167fddf252ad1be2c89b69c2b068fc378daa952ba7f163c4a11628f55a4df523b3ef83604051612a029190612e7a565b60405180910390a3612a1660008383612a1f565b5050565b505050565b505050565b6000612a86826040518060400160405280602081526020017f5361666545524332303a206c6f772d6c6576656c2063616c6c206661696c65648152508573ffffffffffffffffffffffffffffffffffffffff16612aeb9092919063ffffffff16565b9050600081511115612ae65780806020019051810190612aa69190613cfc565b612ae5576040517f08c379a0000000000000000000000000000000000000000000000000000000008152600401612adc90613d9b565b60405180910390fd5b5b505050565b6060612afa8484600085612b03565b90509392505050565b606082471015612b48576040517f08c379a0000000000000000000000000000000000000000000000000000000008152600401612b3f90613e2d565b60405180910390fd5b612b5185612c17565b612b90576040517f08c379a0000000000000000000000000000000000000000000000000000000008152600401612b8790613e99565b60405180910390fd5b6000808673ffffffffffffffffffffffffffffffffffffffff168587604051612bb99190613f00565b60006040518083038185875af1925050503d8060008114612bf6576040519150601f19603f3d011682016040523d82523d6000602084013e612bfb565b606091505b5091509150612c0b828286612c3a565b92505050949350505050565b6000808273ffffffffffffffffffffffffffffffffffffffff163b119050919050565b60608315612c4a57829050612c9a565b600083511115612c5d5782518084602001fd5b816040517f08c379a0000000000000000000000000000000000000000000000000000000008152600401612c919190612d3a565b60405180910390fd5b9392505050565b600081519050919050565b600082825260208201905092915050565b60005b83811015612cdb578082015181840152602081019050612cc0565b83811115612cea576000848401525b50505050565b6000601f19601f8301169050919050565b6000612d0c82612ca1565b612d168185612cac565b9350612d26818560208601612cbd565b612d2f81612cf0565b840191505092915050565b60006020820190508181036000830152612d548184612d01565b905092915050565b600080fd5b600073ffffffffffffffffffffffffffffffffffffffff82169050919050565b6000612d8c82612d61565b9050919050565b612d9c81612d81565b8114612da757600080fd5b50565b600081359050612db981612d93565b92915050565b6000819050919050565b612dd281612dbf565b8114612ddd57600080fd5b50565b600081359050612def81612dc9565b92915050565b60008060408385031215612e0c57612e0b612d5c565b5b6000612e1a85828601612daa565b9250506020612e2b85828601612de0565b9150509250929050565b60008115159050919050565b612e4a81612e35565b82525050565b6000602082019050612e656000830184612e41565b92915050565b612e7481612dbf565b82525050565b6000602082019050612e8f6000830184612e6b565b92915050565b6000819050919050565b6000612eba612eb5612eb084612d61565b612e95565b612d61565b9050919050565b6000612ecc82612e9f565b9050919050565b6000612ede82612ec1565b9050919050565b612eee81612ed3565b82525050565b6000602082019050612f096000830184612ee5565b92915050565b600080600060608486031215612f2857612f27612d5c565b5b6000612f3686828701612daa565b9350506020612f4786828701612daa565b9250506040612f5886828701612de0565b9150509250925092565b600060208284031215612f7857612f77612d5c565b5b6000612f8684828501612de0565b91505092915050565b600060ff82169050919050565b612fa581612f8f565b82525050565b6000602082019050612fc06000830184612f9c565b92915050565b600060208284031215612fdc57612fdb612d5c565b5b6000612fea84828501612daa565b91505092915050565b612ffc81612d81565b82525050565b60006040820190506130176000830185612ff3565b6130246020830184612e6b565b9392505050565b60006020820190506130406000830184612ff3565b92915050565b600061305182612ec1565b9050919050565b61306181613046565b82525050565b600060208201905061307c6000830184613058565b92915050565b6000806040838503121561309957613098612d5c565b5b60006130a785828601612daa565b92505060206130b885828601612daa565b9150509250929050565b7f4e487b7100000000000000000000000000000000000000000000000000000000600052602260045260246000fd5b6000600282049050600182168061310957607f821691505b6020821081141561311d5761311c6130c2565b5b50919050565b60008151905061313281612dc9565b92915050565b60006020828403121561314e5761314d612d5c565b5b600061315c84828501613123565b91505092915050565b600061317082612d81565b9050919050565b61318081613165565b811461318b57600080fd5b50565b60008151905061319d81613177565b92915050565b6000602082840312156131b9576131b8612d5c565b5b60006131c78482850161318e565b91505092915050565b7f4e487b7100000000000000000000000000000000000000000000000000000000600052601160045260246000fd5b600061320a82612dbf565b915061321583612dbf565b9250827fffffffffffffffffffffffffffffffffffffffffffffffffffffffffffffffff0382111561324a576132496131d0565b5b828201905092915050565b7f4f776e61626c653a2063616c6c6572206973206e6f7420746865206f776e6572600082015250565b600061328b602083612cac565b915061329682613255565b602082019050919050565b600060208201905081810360008301526132ba8161327e565b9050919050565b6000815190506132d081612d93565b92915050565b6000602082840312156132ec576132eb612d5c565b5b60006132fa848285016132c1565b91505092915050565b7f50726f706f73616c206e6f742076616c696420666f722074686973205661756c60008201527f7400000000000000000000000000000000000000000000000000000000000000602082015250565b600061335f602183612cac565b915061336a82613303565b604082019050919050565b6000602082019050818103600083015261338e81613352565b9050919050565b7f4f6e6c7920312074696d65000000000000000000000000000000000000000000600082015250565b60006133cb600b83612cac565b91506133d682613395565b602082019050919050565b600060208201905081810360008301526133fa816133be565b9050919050565b7f45524332303a2064656372656173656420616c6c6f77616e63652062656c6f7760008201527f207a65726f000000000000000000000000000000000000000000000000000000602082015250565b600061345d602583612cac565b915061346882613401565b604082019050919050565b6000602082019050818103600083015261348c81613450565b9050919050565b7f5265656e7472616e637947756172643a207265656e7472616e742063616c6c00600082015250565b60006134c9601f83612cac565b91506134d482613493565b602082019050919050565b600060208201905081810360008301526134f8816134bc565b9050919050565b7f21746f6b656e0000000000000000000000000000000000000000000000000000600082015250565b6000613535600683612cac565b9150613540826134ff565b602082019050919050565b6000602082019050818103600083015261356481613528565b9050919050565b7f5468657265206973206e6f2063616e6469646174650000000000000000000000600082015250565b60006135a1601583612cac565b91506135ac8261356b565b602082019050919050565b600060208201905081810360008301526135d081613594565b9050919050565b7f44656c617920686173206e6f7420706173736564000000000000000000000000600082015250565b600061360d601483612cac565b9150613618826135d7565b602082019050919050565b6000602082019050818103600083015261363c81613600565b9050919050565b7f4f776e61626c653a206e6577206f776e657220697320746865207a65726f206160008201527f6464726573730000000000000000000000000000000000000000000000000000602082015250565b600061369f602683612cac565b91506136aa82613643565b604082019050919050565b600060208201905081810360008301526136ce81613692565b9050919050565b7f45524332303a20617070726f76652066726f6d20746865207a65726f2061646460008201527f7265737300000000000000000000000000000000000000000000000000000000602082015250565b6000613731602483612cac565b915061373c826136d5565b604082019050919050565b6000602082019050818103600083015261376081613724565b9050919050565b7f45524332303a20617070726f766520746f20746865207a65726f20616464726560008201527f7373000000000000000000000000000000000000000000000000000000000000602082015250565b60006137c3602283612cac565b91506137ce82613767565b604082019050919050565b600060208201905081810360008301526137f2816137b6565b9050919050565b7f45524332303a20696e73756666696369656e7420616c6c6f77616e6365000000600082015250565b600061382f601d83612cac565b915061383a826137f9565b602082019050919050565b6000602082019050818103600083015261385e81613822565b9050919050565b7f45524332303a207472616e736665722066726f6d20746865207a65726f20616460008201527f6472657373000000000000000000000000000000000000000000000000000000602082015250565b60006138c1602583612cac565b91506138cc82613865565b604082019050919050565b600060208201905081810360008301526138f0816138b4565b9050919050565b7f45524332303a207472616e7366657220746f20746865207a65726f206164647260008201527f6573730000000000000000000000000000000000000000000000000000000000602082015250565b6000613953602383612cac565b915061395e826138f7565b604082019050919050565b6000602082019050818103600083015261398281613946565b9050919050565b7f45524332303a207472616e7366657220616d6f756e742065786365656473206260008201527f616c616e63650000000000000000000000000000000000000000000000000000602082015250565b60006139e5602683612cac565b91506139f082613989565b604082019050919050565b60006020820190508181036000830152613a14816139d8565b9050919050565b6000613a2682612dbf565b9150613a3183612dbf565b9250817fffffffffffffffffffffffffffffffffffffffffffffffffffffffffffffffff0483118215151615613a6a57613a696131d0565b5b828202905092915050565b7f4e487b7100000000000000000000000000000000000000000000000000000000600052601260045260246000fd5b6000613aaf82612dbf565b9150613aba83612dbf565b925082613aca57613ac9613a75565b5b828204905092915050565b7f45524332303a206275726e2066726f6d20746865207a65726f2061646472657360008201527f7300000000000000000000000000000000000000000000000000000000000000602082015250565b6000613b31602183612cac565b9150613b3c82613ad5565b604082019050919050565b60006020820190508181036000830152613b6081613b24565b9050919050565b7f45524332303a206275726e20616d6f756e7420657863656564732062616c616e60008201527f6365000000000000000000000000000000000000000000000000000000000000602082015250565b6000613bc3602283612cac565b9150613bce82613b67565b604082019050919050565b60006020820190508181036000830152613bf281613bb6565b9050919050565b6000613c0482612dbf565b9150613c0f83612dbf565b925082821015613c2257613c216131d0565b5b828203905092915050565b6000606082019050613c426000830186612ff3565b613c4f6020830185612ff3565b613c5c6040830184612e6b565b949350505050565b7f45524332303a206d696e7420746f20746865207a65726f206164647265737300600082015250565b6000613c9a601f83612cac565b9150613ca582613c64565b602082019050919050565b60006020820190508181036000830152613cc981613c8d565b9050919050565b613cd981612e35565b8114613ce457600080fd5b50565b600081519050613cf681613cd0565b92915050565b600060208284031215613d1257613d11612d5c565b5b6000613d2084828501613ce7565b91505092915050565b7f5361666545524332303a204552433230206f7065726174696f6e20646964206e60008201527f6f74207375636365656400000000000000000000000000000000000000000000602082015250565b6000613d85602a83612cac565b9150613d9082613d29565b604082019050919050565b60006020820190508181036000830152613db481613d78565b9050919050565b7f416464726573733a20696e73756666696369656e742062616c616e636520666f60008201527f722063616c6c0000000000000000000000000000000000000000000000000000602082015250565b6000613e17602683612cac565b9150613e2282613dbb565b604082019050919050565b60006020820190508181036000830152613e4681613e0a565b9050919050565b7f416464726573733a2063616c6c20746f206e6f6e2d636f6e7472616374000000600082015250565b6000613e83601d83612cac565b9150613e8e82613e4d565b602082019050919050565b60006020820190508181036000830152613eb281613e76565b9050919050565b600081519050919050565b600081905092915050565b6000613eda82613eb9565b613ee48185613ec4565b9350613ef4818560208601612cbd565b80840191505092915050565b6000613f0c8284613ecf565b91508190509291505056fea26469706673582212207b873b2a860e125291ef1aebba14e2405e02f9a423e084c850e789c8e56cbee164736f6c634300080b0033",
  "linkReferences": {},
  "deployedLinkReferences": {}
}