{
  "_format": "hh-sol-artifact-1",
  "contractName": "PLFY_Vault",
  "sourceName": "src/contracts/vaults/PLFY_Vault.sol",
  "abi": [
    {
      "inputs": [
        {
          "internalType": "string",
          "name": "_name",
          "type": "string"
        },
        {
          "internalType": "string",
          "name": "_symbol",
          "type": "string"
        },
        {
          "internalType": "uint256",
          "name": "_approvalDelay",
          "type": "uint256"
        }
      ],
      "stateMutability": "nonpayable",
      "type": "constructor"
    },
    {
      "anonymous": false,
      "inputs": [
        {
          "indexed": true,
          "internalType": "address",
          "name": "owner",
          "type": "address"
        },
        {
          "indexed": true,
          "internalType": "address",
          "name": "spender",
          "type": "address"
        },
        {
          "indexed": false,
          "internalType": "uint256",
          "name": "value",
          "type": "uint256"
        }
      ],
      "name": "Approval",
      "type": "event"
    },
    {
      "anonymous": false,
      "inputs": [
        {
          "indexed": false,
          "internalType": "address",
          "name": "implementation",
          "type": "address"
        }
      ],
      "name": "NewStratCandidate",
      "type": "event"
    },
    {
      "anonymous": false,
      "inputs": [
        {
          "indexed": true,
          "internalType": "address",
          "name": "previousOwner",
          "type": "address"
        },
        {
          "indexed": true,
          "internalType": "address",
          "name": "newOwner",
          "type": "address"
        }
      ],
      "name": "OwnershipTransferred",
      "type": "event"
    },
    {
      "anonymous": false,
      "inputs": [
        {
          "indexed": true,
          "internalType": "address",
          "name": "from",
          "type": "address"
        },
        {
          "indexed": true,
          "internalType": "address",
          "name": "to",
          "type": "address"
        },
        {
          "indexed": false,
          "internalType": "uint256",
          "name": "value",
          "type": "uint256"
        }
      ],
      "name": "Transfer",
      "type": "event"
    },
    {
      "anonymous": false,
      "inputs": [
        {
          "indexed": false,
          "internalType": "address",
          "name": "implementation",
          "type": "address"
        }
      ],
      "name": "UpgradeStrat",
      "type": "event"
    },
    {
      "inputs": [
        {
          "internalType": "address",
          "name": "owner",
          "type": "address"
        },
        {
          "internalType": "address",
          "name": "spender",
          "type": "address"
        }
      ],
      "name": "allowance",
      "outputs": [
        {
          "internalType": "uint256",
          "name": "",
          "type": "uint256"
        }
      ],
      "stateMutability": "view",
      "type": "function"
    },
    {
      "inputs": [],
      "name": "approvalDelay",
      "outputs": [
        {
          "internalType": "uint256",
          "name": "",
          "type": "uint256"
        }
      ],
      "stateMutability": "view",
      "type": "function"
    },
    {
      "inputs": [
        {
          "internalType": "address",
          "name": "spender",
          "type": "address"
        },
        {
          "internalType": "uint256",
          "name": "amount",
          "type": "uint256"
        }
      ],
      "name": "approve",
      "outputs": [
        {
          "internalType": "bool",
          "name": "",
          "type": "bool"
        }
      ],
      "stateMutability": "nonpayable",
      "type": "function"
    },
    {
      "inputs": [],
      "name": "available_want",
      "outputs": [
        {
          "internalType": "uint256",
          "name": "",
          "type": "uint256"
        }
      ],
      "stateMutability": "view",
      "type": "function"
    },
    {
      "inputs": [
        {
          "internalType": "address",
          "name": "account",
          "type": "address"
        }
      ],
      "name": "balanceOf",
      "outputs": [
        {
          "internalType": "uint256",
          "name": "",
          "type": "uint256"
        }
      ],
      "stateMutability": "view",
      "type": "function"
    },
    {
      "inputs": [],
      "name": "balance_reward",
      "outputs": [
        {
          "internalType": "uint256",
          "name": "",
          "type": "uint256"
        }
      ],
      "stateMutability": "view",
      "type": "function"
    },
    {
      "inputs": [],
      "name": "balance_want",
      "outputs": [
        {
          "internalType": "uint256",
          "name": "",
          "type": "uint256"
        }
      ],
      "stateMutability": "view",
      "type": "function"
    },
    {
      "inputs": [],
      "name": "decimals",
      "outputs": [
        {
          "internalType": "uint8",
          "name": "",
          "type": "uint8"
        }
      ],
      "stateMutability": "view",
      "type": "function"
    },
    {
      "inputs": [
        {
          "internalType": "address",
          "name": "spender",
          "type": "address"
        },
        {
          "internalType": "uint256",
          "name": "subtractedValue",
          "type": "uint256"
        }
      ],
      "name": "decreaseAllowance",
      "outputs": [
        {
          "internalType": "bool",
          "name": "",
          "type": "bool"
        }
      ],
      "stateMutability": "nonpayable",
      "type": "function"
    },
    {
      "inputs": [
        {
          "internalType": "uint256",
          "name": "_amount",
          "type": "uint256"
        }
      ],
      "name": "deposit",
      "outputs": [],
      "stateMutability": "nonpayable",
      "type": "function"
    },
    {
      "inputs": [],
      "name": "depositAll",
      "outputs": [],
      "stateMutability": "nonpayable",
      "type": "function"
    },
    {
      "inputs": [],
      "name": "earn",
      "outputs": [],
      "stateMutability": "nonpayable",
      "type": "function"
    },
    {
      "inputs": [],
      "name": "getPricePerFullShare_reward",
      "outputs": [
        {
          "internalType": "uint256",
          "name": "",
          "type": "uint256"
        }
      ],
      "stateMutability": "view",
      "type": "function"
    },
    {
      "inputs": [],
      "name": "getPricePerFullShare_want",
      "outputs": [
        {
          "internalType": "uint256",
          "name": "",
          "type": "uint256"
        }
      ],
      "stateMutability": "view",
      "type": "function"
    },
    {
      "inputs": [
        {
          "internalType": "address",
          "name": "_token",
          "type": "address"
        }
      ],
      "name": "inCaseTokensGetStuck",
      "outputs": [],
      "stateMutability": "nonpayable",
      "type": "function"
    },
    {
      "inputs": [
        {
          "internalType": "address",
          "name": "spender",
          "type": "address"
        },
        {
          "internalType": "uint256",
          "name": "addedValue",
          "type": "uint256"
        }
      ],
      "name": "increaseAllowance",
      "outputs": [
        {
          "internalType": "bool",
          "name": "",
          "type": "bool"
        }
      ],
      "stateMutability": "nonpayable",
      "type": "function"
    },
    {
      "inputs": [],
      "name": "name",
      "outputs": [
        {
          "internalType": "string",
          "name": "",
          "type": "string"
        }
      ],
      "stateMutability": "view",
      "type": "function"
    },
    {
      "inputs": [],
      "name": "owner",
      "outputs": [
        {
          "internalType": "address",
          "name": "",
          "type": "address"
        }
      ],
      "stateMutability": "view",
      "type": "function"
    },
    {
      "inputs": [
        {
          "internalType": "address",
          "name": "_implementation",
          "type": "address"
        }
      ],
      "name": "proposeStrat",
      "outputs": [],
      "stateMutability": "nonpayable",
      "type": "function"
    },
    {
      "inputs": [],
      "name": "renounceOwnership",
      "outputs": [],
      "stateMutability": "nonpayable",
      "type": "function"
    },
    {
      "inputs": [],
      "name": "reward",
      "outputs": [
        {
          "internalType": "contract IERC20",
          "name": "",
          "type": "address"
        }
      ],
      "stateMutability": "view",
      "type": "function"
    },
    {
      "inputs": [
        {
          "internalType": "address",
          "name": "_strategy",
          "type": "address"
        }
      ],
      "name": "setDefaultStrategy",
      "outputs": [],
      "stateMutability": "nonpayable",
      "type": "function"
    },
    {
      "inputs": [],
      "name": "stratCandidate",
      "outputs": [
        {
          "internalType": "address",
          "name": "implementation",
          "type": "address"
        },
        {
          "internalType": "uint256",
          "name": "proposedTime",
          "type": "uint256"
        }
      ],
      "stateMutability": "view",
      "type": "function"
    },
    {
      "inputs": [],
      "name": "strategy",
      "outputs": [
        {
          "internalType": "contract IStrategy",
          "name": "",
          "type": "address"
        }
      ],
      "stateMutability": "view",
      "type": "function"
    },
    {
      "inputs": [],
      "name": "symbol",
      "outputs": [
        {
          "internalType": "string",
          "name": "",
          "type": "string"
        }
      ],
      "stateMutability": "view",
      "type": "function"
    },
    {
      "inputs": [],
      "name": "totalSupply",
      "outputs": [
        {
          "internalType": "uint256",
          "name": "",
          "type": "uint256"
        }
      ],
      "stateMutability": "view",
      "type": "function"
    },
    {
      "inputs": [
        {
          "internalType": "address",
          "name": "to",
          "type": "address"
        },
        {
          "internalType": "uint256",
          "name": "amount",
          "type": "uint256"
        }
      ],
      "name": "transfer",
      "outputs": [
        {
          "internalType": "bool",
          "name": "",
          "type": "bool"
        }
      ],
      "stateMutability": "nonpayable",
      "type": "function"
    },
    {
      "inputs": [
        {
          "internalType": "address",
          "name": "from",
          "type": "address"
        },
        {
          "internalType": "address",
          "name": "to",
          "type": "address"
        },
        {
          "internalType": "uint256",
          "name": "amount",
          "type": "uint256"
        }
      ],
      "name": "transferFrom",
      "outputs": [
        {
          "internalType": "bool",
          "name": "",
          "type": "bool"
        }
      ],
      "stateMutability": "nonpayable",
      "type": "function"
    },
    {
      "inputs": [
        {
          "internalType": "address",
          "name": "newOwner",
          "type": "address"
        }
      ],
      "name": "transferOwnership",
      "outputs": [],
      "stateMutability": "nonpayable",
      "type": "function"
    },
    {
      "inputs": [],
      "name": "upgradeStrat",
      "outputs": [],
      "stateMutability": "nonpayable",
      "type": "function"
    },
    {
      "inputs": [],
      "name": "want",
      "outputs": [
        {
          "internalType": "contract IERC20",
          "name": "",
          "type": "address"
        }
      ],
      "stateMutability": "view",
      "type": "function"
    },
    {
      "inputs": [
        {
          "internalType": "uint256",
          "name": "_shares",
          "type": "uint256"
        }
      ],
      "name": "withdraw",
      "outputs": [],
      "stateMutability": "nonpayable",
      "type": "function"
    },
    {
      "inputs": [],
      "name": "withdrawAll",
      "outputs": [],
      "stateMutability": "nonpayable",
      "type": "function"
    }
  ],
  "bytecode": "0x60a06040526000600760006101000a81548160ff0219169083151502179055503480156200002c57600080fd5b506040516200447438038062004474833981810160405281019062000052919062000417565b828281600390805190602001906200006c9291906200018f565b508060049080519060200190620000859291906200018f565b505050620000a86200009c620000c160201b60201c565b620000c960201b60201c565b6001600681905550806080818152505050505062000516565b600033905090565b6000600560009054906101000a900473ffffffffffffffffffffffffffffffffffffffff16905081600560006101000a81548173ffffffffffffffffffffffffffffffffffffffff021916908373ffffffffffffffffffffffffffffffffffffffff1602179055508173ffffffffffffffffffffffffffffffffffffffff168173ffffffffffffffffffffffffffffffffffffffff167f8be0079c531659141344cd1fd0a4f28419497f9722a3daafe3b4186f6b6457e060405160405180910390a35050565b8280546200019d90620004e0565b90600052602060002090601f016020900481019282620001c157600085556200020d565b82601f10620001dc57805160ff19168380011785556200020d565b828001600101855582156200020d579182015b828111156200020c578251825591602001919060010190620001ef565b5b5090506200021c919062000220565b5090565b5b808211156200023b57600081600090555060010162000221565b5090565b6000604051905090565b600080fd5b600080fd5b600080fd5b600080fd5b6000601f19601f8301169050919050565b7f4e487b7100000000000000000000000000000000000000000000000000000000600052604160045260246000fd5b620002a8826200025d565b810181811067ffffffffffffffff82111715620002ca57620002c96200026e565b5b80604052505050565b6000620002df6200023f565b9050620002ed82826200029d565b919050565b600067ffffffffffffffff82111562000310576200030f6200026e565b5b6200031b826200025d565b9050602081019050919050565b60005b83811015620003485780820151818401526020810190506200032b565b8381111562000358576000848401525b50505050565b6000620003756200036f84620002f2565b620002d3565b90508281526020810184848401111562000394576200039362000258565b5b620003a184828562000328565b509392505050565b600082601f830112620003c157620003c062000253565b5b8151620003d38482602086016200035e565b91505092915050565b6000819050919050565b620003f181620003dc565b8114620003fd57600080fd5b50565b6000815190506200041181620003e6565b92915050565b60008060006060848603121562000433576200043262000249565b5b600084015167ffffffffffffffff8111156200045457620004536200024e565b5b6200046286828701620003a9565b935050602084015167ffffffffffffffff8111156200048657620004856200024e565b5b6200049486828701620003a9565b9250506040620004a78682870162000400565b9150509250925092565b7f4e487b7100000000000000000000000000000000000000000000000000000000600052602260045260246000fd5b60006002820490506001821680620004f957607f821691505b6020821081141562000510576200050f620004b1565b5b50919050565b608051613f3b6200053960003960008181611b7e0152611cb70152613f3b6000f3fe608060405234801561001057600080fd5b50600436106101fb5760003560e01c806376dfabb81161011a578063b6b55f25116100ad578063de5f62681161007c578063de5f626814610583578063def68a9c1461058d578063e2d1e75c146105a9578063e6685244146105c7578063f2fde38b146105d1576101fb565b8063b6b55f251461050f578063d389800f1461052b578063d892a2fc14610535578063dd62ed3e14610553576101fb565b80639fa4e8e9116100e95780639fa4e8e914610473578063a457c2d714610491578063a8c62e76146104c1578063a9059cbb146104df576101fb565b806376dfabb81461040e578063853828b61461042d5780638da5cb5b1461043757806395d89b4114610455576101fb565b8063313ce567116101925780635b12ff9b116101615780635b12ff9b1461039a5780636d4e7045146103b657806370a08231146103d4578063715018a614610404576101fb565b8063313ce56714610312578063395093511461033057806355c3c1cc1461036057806357bee9441461037e576101fb565b80631f1fcd51116101ce5780631f1fcd511461028a578063228cb733146102a857806323b872dd146102c65780632e1a7d4d146102f6576101fb565b806306fdde0314610200578063095ea7b31461021e57806309a3fe591461024e57806318160ddd1461026c575b600080fd5b6102086105ed565b6040516102159190612d28565b60405180910390f35b61023860048036038101906102339190612de3565b61067f565b6040516102459190612e3e565b60405180910390f35b6102566106a2565b6040516102639190612e68565b60405180910390f35b6102746107cc565b6040516102819190612e68565b60405180910390f35b6102926107d6565b60405161029f9190612ee2565b60405180910390f35b6102b061086e565b6040516102bd9190612ee2565b60405180910390f35b6102e060048036038101906102db9190612efd565b610906565b6040516102ed9190612e3e565b60405180910390f35b610310600480360381019061030b9190612f50565b610935565b005b61031a610c06565b6040516103279190612f99565b60405180910390f35b61034a60048036038101906103459190612de3565b610c0f565b6040516103579190612e3e565b60405180910390f35b610368610cb9565b6040516103759190612e68565b60405180910390f35b61039860048036038101906103939190612fb4565b610d18565b005b6103b460048036038101906103af9190612fb4565b610f25565b005b6103be611138565b6040516103cb9190612e68565b60405180910390f35b6103ee60048036038101906103e99190612fb4565b611197565b6040516103fb9190612e68565b60405180910390f35b61040c6111df565b005b610416611267565b604051610424929190612ff0565b60405180910390f35b610435611299565b005b61043f6112ac565b60405161044c9190613019565b60405180910390f35b61045d6112d6565b60405161046a9190612d28565b60405180910390f35b61047b611368565b6040516104889190612e68565b60405180910390f35b6104ab60048036038101906104a69190612de3565b6113f0565b6040516104b89190612e3e565b60405180910390f35b6104c96114da565b6040516104d69190613055565b60405180910390f35b6104f960048036038101906104f49190612de3565b611500565b6040516105069190612e3e565b60405180910390f35b61052960048036038101906105249190612f50565b611523565b005b6105336116bc565b005b61053d6117a1565b60405161054a9190612e68565b60405180910390f35b61056d60048036038101906105689190613070565b6118cb565b60405161057a9190612e68565b60405180910390f35b61058b611952565b005b6105a760048036038101906105a29190612fb4565b6119dd565b005b6105b1611b7c565b6040516105be9190612e68565b60405180910390f35b6105cf611ba0565b005b6105eb60048036038101906105e69190612fb4565b611ecc565b005b6060600380546105fc906130df565b80601f0160208091040260200160405190810160405280929190818152602001828054610628906130df565b80156106755780601f1061064a57610100808354040283529160200191610675565b820191906000526020600020905b81548152906001019060200180831161065857829003601f168201915b5050505050905090565b60008061068a611fc4565b9050610697818585611fcc565b600191505092915050565b60006107c7600a60009054906101000a900473ffffffffffffffffffffffffffffffffffffffff1673ffffffffffffffffffffffffffffffffffffffff1663722713f76040518163ffffffff1660e01b8152600401602060405180830381865afa158015610714573d6000803e3d6000fd5b505050506040513d601f19601f820116820180604052508101906107389190613126565b6107406107d6565b73ffffffffffffffffffffffffffffffffffffffff166370a08231306040518263ffffffff1660e01b81526004016107789190613019565b602060405180830381865afa158015610795573d6000803e3d6000fd5b505050506040513d601f19601f820116820180604052508101906107b99190613126565b61219790919063ffffffff16565b905090565b6000600254905090565b6000600a60009054906101000a900473ffffffffffffffffffffffffffffffffffffffff1673ffffffffffffffffffffffffffffffffffffffff16631f1fcd516040518163ffffffff1660e01b8152600401602060405180830381865afa158015610845573d6000803e3d6000fd5b505050506040513d601f19601f820116820180604052508101906108699190613191565b905090565b6000600a60009054906101000a900473ffffffffffffffffffffffffffffffffffffffff1673ffffffffffffffffffffffffffffffffffffffff1663228cb7336040518163ffffffff1660e01b8152600401602060405180830381865afa1580156108dd573d6000803e3d6000fd5b505050506040513d601f19601f820116820180604052508101906109019190613191565b905090565b600080610911611fc4565b905061091e8582856121ad565b610929858585612239565b60019150509392505050565b600061096a6109426107cc565b61095c8461094e6106a2565b6124ba90919063ffffffff16565b6124d090919063ffffffff16565b905060006109a16109796107cc565b610993856109856117a1565b6124ba90919063ffffffff16565b6124d090919063ffffffff16565b90506109ad33846124e6565b60006109b76107d6565b73ffffffffffffffffffffffffffffffffffffffff166370a08231306040518263ffffffff1660e01b81526004016109ef9190613019565b602060405180830381865afa158015610a0c573d6000803e3d6000fd5b505050506040513d601f19601f82011682018060405250810190610a309190613126565b905082811015610b9c576000610a4f82856126bd90919063ffffffff16565b9050600a60009054906101000a900473ffffffffffffffffffffffffffffffffffffffff1673ffffffffffffffffffffffffffffffffffffffff16632e1a7d4d826040518263ffffffff1660e01b8152600401610aac9190612e68565b600060405180830381600087803b158015610ac657600080fd5b505af1158015610ada573d6000803e3d6000fd5b505050506000610ae86107d6565b73ffffffffffffffffffffffffffffffffffffffff166370a08231306040518263ffffffff1660e01b8152600401610b209190613019565b602060405180830381865afa158015610b3d573d6000803e3d6000fd5b505050506040513d601f19601f82011682018060405250810190610b619190613126565b90506000610b7884836126bd90919063ffffffff16565b905082811015610b9857610b95818561219790919063ffffffff16565b95505b5050505b610bce3383610ba961086e565b73ffffffffffffffffffffffffffffffffffffffff166126d39092919063ffffffff16565b610c003384610bdb6107d6565b73ffffffffffffffffffffffffffffffffffffffff166126d39092919063ffffffff16565b50505050565b60006012905090565b600080610c1a611fc4565b9050610cae818585600160008673ffffffffffffffffffffffffffffffffffffffff1673ffffffffffffffffffffffffffffffffffffffff16815260200190815260200160002060008973ffffffffffffffffffffffffffffffffffffffff1673ffffffffffffffffffffffffffffffffffffffff16815260200190815260200160002054610ca991906131ed565b611fcc565b600191505092915050565b600080610cc46107cc565b14610d0957610d04610cd46107cc565b610cf6670de0b6b3a7640000610ce86106a2565b6124ba90919063ffffffff16565b6124d090919063ffffffff16565b610d13565b670de0b6b3a76400005b905090565b610d20611fc4565b73ffffffffffffffffffffffffffffffffffffffff16610d3e6112ac565b73ffffffffffffffffffffffffffffffffffffffff1614610d94576040517f08c379a0000000000000000000000000000000000000000000000000000000008152600401610d8b9061328f565b60405180910390fd5b8073ffffffffffffffffffffffffffffffffffffffff1663fbfa77cf6040518163ffffffff1660e01b8152600401602060405180830381865afa158015610ddf573d6000803e3d6000fd5b505050506040513d601f19601f82011682018060405250810190610e0391906132c4565b73ffffffffffffffffffffffffffffffffffffffff163073ffffffffffffffffffffffffffffffffffffffff1614610e70576040517f08c379a0000000000000000000000000000000000000000000000000000000008152600401610e6790613363565b60405180910390fd5b60001515600760009054906101000a900460ff16151514610ec6576040517f08c379a0000000000000000000000000000000000000000000000000000000008152600401610ebd906133cf565b60405180910390fd5b80600a60006101000a81548173ffffffffffffffffffffffffffffffffffffffff021916908373ffffffffffffffffffffffffffffffffffffffff1602179055506001600760006101000a81548160ff02191690831515021790555050565b610f2d611fc4565b73ffffffffffffffffffffffffffffffffffffffff16610f4b6112ac565b73ffffffffffffffffffffffffffffffffffffffff1614610fa1576040517f08c379a0000000000000000000000000000000000000000000000000000000008152600401610f989061328f565b60405180910390fd5b8073ffffffffffffffffffffffffffffffffffffffff1663fbfa77cf6040518163ffffffff1660e01b8152600401602060405180830381865afa158015610fec573d6000803e3d6000fd5b505050506040513d601f19601f8201168201806040525081019061101091906132c4565b73ffffffffffffffffffffffffffffffffffffffff163073ffffffffffffffffffffffffffffffffffffffff161461107d576040517f08c379a000000000000000000000000000000000000000000000000000000000815260040161107490613363565b60405180910390fd5b60405180604001604052808273ffffffffffffffffffffffffffffffffffffffff16815260200142815250600860008201518160000160006101000a81548173ffffffffffffffffffffffffffffffffffffffff021916908373ffffffffffffffffffffffffffffffffffffffff160217905550602082015181600101559050507f1aae2ec5647db56da2d513de40528ba3565c6057525637050660c4323bbac7df8160405161112d9190613019565b60405180910390a150565b6000806111436107cc565b14611188576111836111536107cc565b611175670de0b6b3a76400006111676117a1565b6124ba90919063ffffffff16565b6124d090919063ffffffff16565b611192565b670de0b6b3a76400005b905090565b60008060008373ffffffffffffffffffffffffffffffffffffffff1673ffffffffffffffffffffffffffffffffffffffff168152602001908152602001600020549050919050565b6111e7611fc4565b73ffffffffffffffffffffffffffffffffffffffff166112056112ac565b73ffffffffffffffffffffffffffffffffffffffff161461125b576040517f08c379a00000000000000000000000000000000000000000000000000000000081526004016112529061328f565b60405180910390fd5b6112656000612759565b565b60088060000160009054906101000a900473ffffffffffffffffffffffffffffffffffffffff16908060010154905082565b6112aa6112a533611197565b610935565b565b6000600560009054906101000a900473ffffffffffffffffffffffffffffffffffffffff16905090565b6060600480546112e5906130df565b80601f0160208091040260200160405190810160405280929190818152602001828054611311906130df565b801561135e5780601f106113335761010080835404028352916020019161135e565b820191906000526020600020905b81548152906001019060200180831161134157829003601f168201915b5050505050905090565b60006113726107d6565b73ffffffffffffffffffffffffffffffffffffffff166370a08231306040518263ffffffff1660e01b81526004016113aa9190613019565b602060405180830381865afa1580156113c7573d6000803e3d6000fd5b505050506040513d601f19601f820116820180604052508101906113eb9190613126565b905090565b6000806113fb611fc4565b90506000600160008373ffffffffffffffffffffffffffffffffffffffff1673ffffffffffffffffffffffffffffffffffffffff16815260200190815260200160002060008673ffffffffffffffffffffffffffffffffffffffff1673ffffffffffffffffffffffffffffffffffffffff168152602001908152602001600020549050838110156114c1576040517f08c379a00000000000000000000000000000000000000000000000000000000081526004016114b890613461565b60405180910390fd5b6114ce8286868403611fcc565b60019250505092915050565b600a60009054906101000a900473ffffffffffffffffffffffffffffffffffffffff1681565b60008061150b611fc4565b9050611518818585612239565b600191505092915050565b60026006541415611569576040517f08c379a0000000000000000000000000000000000000000000000000000000008152600401611560906134cd565b60405180910390fd5b6002600681905550600a60009054906101000a900473ffffffffffffffffffffffffffffffffffffffff1673ffffffffffffffffffffffffffffffffffffffff1663573fef0a6040518163ffffffff1660e01b8152600401600060405180830381600087803b1580156115db57600080fd5b505af11580156115ef573d6000803e3d6000fd5b5050505060006115fd6106a2565b905061163333308461160d6107d6565b73ffffffffffffffffffffffffffffffffffffffff1661281f909392919063ffffffff16565b61163b6116bc565b60006116456106a2565b905061165a82826126bd90919063ffffffff16565b92506000806116676107cc565b1415611675578390506116a4565b6116a1836116936116846107cc565b876124ba90919063ffffffff16565b6124d090919063ffffffff16565b90505b6116ae33826128a8565b505050600160068190555050565b60006116c6611368565b905061171c600a60009054906101000a900473ffffffffffffffffffffffffffffffffffffffff16826116f76107d6565b73ffffffffffffffffffffffffffffffffffffffff166126d39092919063ffffffff16565b600a60009054906101000a900473ffffffffffffffffffffffffffffffffffffffff1673ffffffffffffffffffffffffffffffffffffffff1663d0e30db06040518163ffffffff1660e01b8152600401600060405180830381600087803b15801561178657600080fd5b505af115801561179a573d6000803e3d6000fd5b5050505050565b60006118c6600a60009054906101000a900473ffffffffffffffffffffffffffffffffffffffff1673ffffffffffffffffffffffffffffffffffffffff1663722713f76040518163ffffffff1660e01b8152600401602060405180830381865afa158015611813573d6000803e3d6000fd5b505050506040513d601f19601f820116820180604052508101906118379190613126565b61183f61086e565b73ffffffffffffffffffffffffffffffffffffffff166370a08231306040518263ffffffff1660e01b81526004016118779190613019565b602060405180830381865afa158015611894573d6000803e3d6000fd5b505050506040513d601f19601f820116820180604052508101906118b89190613126565b61219790919063ffffffff16565b905090565b6000600160008473ffffffffffffffffffffffffffffffffffffffff1673ffffffffffffffffffffffffffffffffffffffff16815260200190815260200160002060008373ffffffffffffffffffffffffffffffffffffffff1673ffffffffffffffffffffffffffffffffffffffff16815260200190815260200160002054905092915050565b6119db61195d6107d6565b73ffffffffffffffffffffffffffffffffffffffff166370a08231336040518263ffffffff1660e01b81526004016119959190613019565b602060405180830381865afa1580156119b2573d6000803e3d6000fd5b505050506040513d601f19601f820116820180604052508101906119d69190613126565b611523565b565b6119e5611fc4565b73ffffffffffffffffffffffffffffffffffffffff16611a036112ac565b73ffffffffffffffffffffffffffffffffffffffff1614611a59576040517f08c379a0000000000000000000000000000000000000000000000000000000008152600401611a509061328f565b60405180910390fd5b611a616107d6565b73ffffffffffffffffffffffffffffffffffffffff168173ffffffffffffffffffffffffffffffffffffffff161415611acf576040517f08c379a0000000000000000000000000000000000000000000000000000000008152600401611ac690613539565b60405180910390fd5b60008173ffffffffffffffffffffffffffffffffffffffff166370a08231306040518263ffffffff1660e01b8152600401611b0a9190613019565b602060405180830381865afa158015611b27573d6000803e3d6000fd5b505050506040513d601f19601f82011682018060405250810190611b4b9190613126565b9050611b7833828473ffffffffffffffffffffffffffffffffffffffff166126d39092919063ffffffff16565b5050565b7f000000000000000000000000000000000000000000000000000000000000000081565b611ba8611fc4565b73ffffffffffffffffffffffffffffffffffffffff16611bc66112ac565b73ffffffffffffffffffffffffffffffffffffffff1614611c1c576040517f08c379a0000000000000000000000000000000000000000000000000000000008152600401611c139061328f565b60405180910390fd5b600073ffffffffffffffffffffffffffffffffffffffff16600860000160009054906101000a900473ffffffffffffffffffffffffffffffffffffffff1673ffffffffffffffffffffffffffffffffffffffff161415611cb1576040517f08c379a0000000000000000000000000000000000000000000000000000000008152600401611ca8906135a5565b60405180910390fd5b42611cea7f000000000000000000000000000000000000000000000000000000000000000060086001015461219790919063ffffffff16565b10611d2a576040517f08c379a0000000000000000000000000000000000000000000000000000000008152600401611d2190613611565b60405180910390fd5b7f7f37d440e85aba7fbf641c4bda5ca4ef669a80bffaacde2aa8d9feb1b048c82c600860000160009054906101000a900473ffffffffffffffffffffffffffffffffffffffff16604051611d7e9190613019565b60405180910390a1600a60009054906101000a900473ffffffffffffffffffffffffffffffffffffffff1673ffffffffffffffffffffffffffffffffffffffff1663fb6177876040518163ffffffff1660e01b8152600401600060405180830381600087803b158015611df057600080fd5b505af1158015611e04573d6000803e3d6000fd5b50505050600860000160009054906101000a900473ffffffffffffffffffffffffffffffffffffffff16600a60006101000a81548173ffffffffffffffffffffffffffffffffffffffff021916908373ffffffffffffffffffffffffffffffffffffffff1602179055506000600860000160006101000a81548173ffffffffffffffffffffffffffffffffffffffff021916908373ffffffffffffffffffffffffffffffffffffffff16021790555064012a05f200600860010181905550611eca6116bc565b565b611ed4611fc4565b73ffffffffffffffffffffffffffffffffffffffff16611ef26112ac565b73ffffffffffffffffffffffffffffffffffffffff1614611f48576040517f08c379a0000000000000000000000000000000000000000000000000000000008152600401611f3f9061328f565b60405180910390fd5b600073ffffffffffffffffffffffffffffffffffffffff168173ffffffffffffffffffffffffffffffffffffffff161415611fb8576040517f08c379a0000000000000000000000000000000000000000000000000000000008152600401611faf906136a3565b60405180910390fd5b611fc181612759565b50565b600033905090565b600073ffffffffffffffffffffffffffffffffffffffff168373ffffffffffffffffffffffffffffffffffffffff16141561203c576040517f08c379a000000000000000000000000000000000000000000000000000000000815260040161203390613735565b60405180910390fd5b600073ffffffffffffffffffffffffffffffffffffffff168273ffffffffffffffffffffffffffffffffffffffff1614156120ac576040517f08c379a00000000000000000000000000000000000000000000000000000000081526004016120a3906137c7565b60405180910390fd5b80600160008573ffffffffffffffffffffffffffffffffffffffff1673ffffffffffffffffffffffffffffffffffffffff16815260200190815260200160002060008473ffffffffffffffffffffffffffffffffffffffff1673ffffffffffffffffffffffffffffffffffffffff168152602001908152602001600020819055508173ffffffffffffffffffffffffffffffffffffffff168373ffffffffffffffffffffffffffffffffffffffff167f8c5be1e5ebec7d5bd14f71427d1e84f3dd0314c0f7b2291e5b200ac8c7c3b9258360405161218a9190612e68565b60405180910390a3505050565b600081836121a591906131ed565b905092915050565b60006121b984846118cb565b90507fffffffffffffffffffffffffffffffffffffffffffffffffffffffffffffffff81146122335781811015612225576040517f08c379a000000000000000000000000000000000000000000000000000000000815260040161221c90613833565b60405180910390fd5b6122328484848403611fcc565b5b50505050565b600073ffffffffffffffffffffffffffffffffffffffff168373ffffffffffffffffffffffffffffffffffffffff1614156122a9576040517f08c379a00000000000000000000000000000000000000000000000000000000081526004016122a0906138c5565b60405180910390fd5b600073ffffffffffffffffffffffffffffffffffffffff168273ffffffffffffffffffffffffffffffffffffffff161415612319576040517f08c379a000000000000000000000000000000000000000000000000000000000815260040161231090613957565b60405180910390fd5b612324838383612a08565b60008060008573ffffffffffffffffffffffffffffffffffffffff1673ffffffffffffffffffffffffffffffffffffffff168152602001908152602001600020549050818110156123aa576040517f08c379a00000000000000000000000000000000000000000000000000000000081526004016123a1906139e9565b60405180910390fd5b8181036000808673ffffffffffffffffffffffffffffffffffffffff1673ffffffffffffffffffffffffffffffffffffffff16815260200190815260200160002081905550816000808573ffffffffffffffffffffffffffffffffffffffff1673ffffffffffffffffffffffffffffffffffffffff168152602001908152602001600020600082825461243d91906131ed565b925050819055508273ffffffffffffffffffffffffffffffffffffffff168473ffffffffffffffffffffffffffffffffffffffff167fddf252ad1be2c89b69c2b068fc378daa952ba7f163c4a11628f55a4df523b3ef846040516124a19190612e68565b60405180910390a36124b4848484612a0d565b50505050565b600081836124c89190613a09565b905092915050565b600081836124de9190613a92565b905092915050565b600073ffffffffffffffffffffffffffffffffffffffff168273ffffffffffffffffffffffffffffffffffffffff161415612556576040517f08c379a000000000000000000000000000000000000000000000000000000000815260040161254d90613b35565b60405180910390fd5b61256282600083612a08565b60008060008473ffffffffffffffffffffffffffffffffffffffff1673ffffffffffffffffffffffffffffffffffffffff168152602001908152602001600020549050818110156125e8576040517f08c379a00000000000000000000000000000000000000000000000000000000081526004016125df90613bc7565b60405180910390fd5b8181036000808573ffffffffffffffffffffffffffffffffffffffff1673ffffffffffffffffffffffffffffffffffffffff16815260200190815260200160002081905550816002600082825461263f9190613be7565b92505081905550600073ffffffffffffffffffffffffffffffffffffffff168373ffffffffffffffffffffffffffffffffffffffff167fddf252ad1be2c89b69c2b068fc378daa952ba7f163c4a11628f55a4df523b3ef846040516126a49190612e68565b60405180910390a36126b883600084612a0d565b505050565b600081836126cb9190613be7565b905092915050565b6127548363a9059cbb60e01b84846040516024016126f2929190612ff0565b604051602081830303815290604052907bffffffffffffffffffffffffffffffffffffffffffffffffffffffff19166020820180517bffffffffffffffffffffffffffffffffffffffffffffffffffffffff8381831617835250505050612a12565b505050565b6000600560009054906101000a900473ffffffffffffffffffffffffffffffffffffffff16905081600560006101000a81548173ffffffffffffffffffffffffffffffffffffffff021916908373ffffffffffffffffffffffffffffffffffffffff1602179055508173ffffffffffffffffffffffffffffffffffffffff168173ffffffffffffffffffffffffffffffffffffffff167f8be0079c531659141344cd1fd0a4f28419497f9722a3daafe3b4186f6b6457e060405160405180910390a35050565b6128a2846323b872dd60e01b85858560405160240161284093929190613c1b565b604051602081830303815290604052907bffffffffffffffffffffffffffffffffffffffffffffffffffffffff19166020820180517bffffffffffffffffffffffffffffffffffffffffffffffffffffffff8381831617835250505050612a12565b50505050565b600073ffffffffffffffffffffffffffffffffffffffff168273ffffffffffffffffffffffffffffffffffffffff161415612918576040517f08c379a000000000000000000000000000000000000000000000000000000000815260040161290f90613c9e565b60405180910390fd5b61292460008383612a08565b806002600082825461293691906131ed565b92505081905550806000808473ffffffffffffffffffffffffffffffffffffffff1673ffffffffffffffffffffffffffffffffffffffff168152602001908152602001600020600082825461298b91906131ed565b925050819055508173ffffffffffffffffffffffffffffffffffffffff16600073ffffffffffffffffffffffffffffffffffffffff167fddf252ad1be2c89b69c2b068fc378daa952ba7f163c4a11628f55a4df523b3ef836040516129f09190612e68565b60405180910390a3612a0460008383612a0d565b5050565b505050565b505050565b6000612a74826040518060400160405280602081526020017f5361666545524332303a206c6f772d6c6576656c2063616c6c206661696c65648152508573ffffffffffffffffffffffffffffffffffffffff16612ad99092919063ffffffff16565b9050600081511115612ad45780806020019051810190612a949190613cea565b612ad3576040517f08c379a0000000000000000000000000000000000000000000000000000000008152600401612aca90613d89565b60405180910390fd5b5b505050565b6060612ae88484600085612af1565b90509392505050565b606082471015612b36576040517f08c379a0000000000000000000000000000000000000000000000000000000008152600401612b2d90613e1b565b60405180910390fd5b612b3f85612c05565b612b7e576040517f08c379a0000000000000000000000000000000000000000000000000000000008152600401612b7590613e87565b60405180910390fd5b6000808673ffffffffffffffffffffffffffffffffffffffff168587604051612ba79190613eee565b60006040518083038185875af1925050503d8060008114612be4576040519150601f19603f3d011682016040523d82523d6000602084013e612be9565b606091505b5091509150612bf9828286612c28565b92505050949350505050565b6000808273ffffffffffffffffffffffffffffffffffffffff163b119050919050565b60608315612c3857829050612c88565b600083511115612c4b5782518084602001fd5b816040517f08c379a0000000000000000000000000000000000000000000000000000000008152600401612c7f9190612d28565b60405180910390fd5b9392505050565b600081519050919050565b600082825260208201905092915050565b60005b83811015612cc9578082015181840152602081019050612cae565b83811115612cd8576000848401525b50505050565b6000601f19601f8301169050919050565b6000612cfa82612c8f565b612d048185612c9a565b9350612d14818560208601612cab565b612d1d81612cde565b840191505092915050565b60006020820190508181036000830152612d428184612cef565b905092915050565b600080fd5b600073ffffffffffffffffffffffffffffffffffffffff82169050919050565b6000612d7a82612d4f565b9050919050565b612d8a81612d6f565b8114612d9557600080fd5b50565b600081359050612da781612d81565b92915050565b6000819050919050565b612dc081612dad565b8114612dcb57600080fd5b50565b600081359050612ddd81612db7565b92915050565b60008060408385031215612dfa57612df9612d4a565b5b6000612e0885828601612d98565b9250506020612e1985828601612dce565b9150509250929050565b60008115159050919050565b612e3881612e23565b82525050565b6000602082019050612e536000830184612e2f565b92915050565b612e6281612dad565b82525050565b6000602082019050612e7d6000830184612e59565b92915050565b6000819050919050565b6000612ea8612ea3612e9e84612d4f565b612e83565b612d4f565b9050919050565b6000612eba82612e8d565b9050919050565b6000612ecc82612eaf565b9050919050565b612edc81612ec1565b82525050565b6000602082019050612ef76000830184612ed3565b92915050565b600080600060608486031215612f1657612f15612d4a565b5b6000612f2486828701612d98565b9350506020612f3586828701612d98565b9250506040612f4686828701612dce565b9150509250925092565b600060208284031215612f6657612f65612d4a565b5b6000612f7484828501612dce565b91505092915050565b600060ff82169050919050565b612f9381612f7d565b82525050565b6000602082019050612fae6000830184612f8a565b92915050565b600060208284031215612fca57612fc9612d4a565b5b6000612fd884828501612d98565b91505092915050565b612fea81612d6f565b82525050565b60006040820190506130056000830185612fe1565b6130126020830184612e59565b9392505050565b600060208201905061302e6000830184612fe1565b92915050565b600061303f82612eaf565b9050919050565b61304f81613034565b82525050565b600060208201905061306a6000830184613046565b92915050565b6000806040838503121561308757613086612d4a565b5b600061309585828601612d98565b92505060206130a685828601612d98565b9150509250929050565b7f4e487b7100000000000000000000000000000000000000000000000000000000600052602260045260246000fd5b600060028204905060018216806130f757607f821691505b6020821081141561310b5761310a6130b0565b5b50919050565b60008151905061312081612db7565b92915050565b60006020828403121561313c5761313b612d4a565b5b600061314a84828501613111565b91505092915050565b600061315e82612d6f565b9050919050565b61316e81613153565b811461317957600080fd5b50565b60008151905061318b81613165565b92915050565b6000602082840312156131a7576131a6612d4a565b5b60006131b58482850161317c565b91505092915050565b7f4e487b7100000000000000000000000000000000000000000000000000000000600052601160045260246000fd5b60006131f882612dad565b915061320383612dad565b9250827fffffffffffffffffffffffffffffffffffffffffffffffffffffffffffffffff03821115613238576132376131be565b5b828201905092915050565b7f4f776e61626c653a2063616c6c6572206973206e6f7420746865206f776e6572600082015250565b6000613279602083612c9a565b915061328482613243565b602082019050919050565b600060208201905081810360008301526132a88161326c565b9050919050565b6000815190506132be81612d81565b92915050565b6000602082840312156132da576132d9612d4a565b5b60006132e8848285016132af565b91505092915050565b7f50726f706f73616c206e6f742076616c696420666f722074686973205661756c60008201527f7400000000000000000000000000000000000000000000000000000000000000602082015250565b600061334d602183612c9a565b9150613358826132f1565b604082019050919050565b6000602082019050818103600083015261337c81613340565b9050919050565b7f4f6e6c7920312074696d65000000000000000000000000000000000000000000600082015250565b60006133b9600b83612c9a565b91506133c482613383565b602082019050919050565b600060208201905081810360008301526133e8816133ac565b9050919050565b7f45524332303a2064656372656173656420616c6c6f77616e63652062656c6f7760008201527f207a65726f000000000000000000000000000000000000000000000000000000602082015250565b600061344b602583612c9a565b9150613456826133ef565b604082019050919050565b6000602082019050818103600083015261347a8161343e565b9050919050565b7f5265656e7472616e637947756172643a207265656e7472616e742063616c6c00600082015250565b60006134b7601f83612c9a565b91506134c282613481565b602082019050919050565b600060208201905081810360008301526134e6816134aa565b9050919050565b7f21746f6b656e0000000000000000000000000000000000000000000000000000600082015250565b6000613523600683612c9a565b915061352e826134ed565b602082019050919050565b6000602082019050818103600083015261355281613516565b9050919050565b7f5468657265206973206e6f2063616e6469646174650000000000000000000000600082015250565b600061358f601583612c9a565b915061359a82613559565b602082019050919050565b600060208201905081810360008301526135be81613582565b9050919050565b7f44656c617920686173206e6f7420706173736564000000000000000000000000600082015250565b60006135fb601483612c9a565b9150613606826135c5565b602082019050919050565b6000602082019050818103600083015261362a816135ee565b9050919050565b7f4f776e61626c653a206e6577206f776e657220697320746865207a65726f206160008201527f6464726573730000000000000000000000000000000000000000000000000000602082015250565b600061368d602683612c9a565b915061369882613631565b604082019050919050565b600060208201905081810360008301526136bc81613680565b9050919050565b7f45524332303a20617070726f76652066726f6d20746865207a65726f2061646460008201527f7265737300000000000000000000000000000000000000000000000000000000602082015250565b600061371f602483612c9a565b915061372a826136c3565b604082019050919050565b6000602082019050818103600083015261374e81613712565b9050919050565b7f45524332303a20617070726f766520746f20746865207a65726f20616464726560008201527f7373000000000000000000000000000000000000000000000000000000000000602082015250565b60006137b1602283612c9a565b91506137bc82613755565b604082019050919050565b600060208201905081810360008301526137e0816137a4565b9050919050565b7f45524332303a20696e73756666696369656e7420616c6c6f77616e6365000000600082015250565b600061381d601d83612c9a565b9150613828826137e7565b602082019050919050565b6000602082019050818103600083015261384c81613810565b9050919050565b7f45524332303a207472616e736665722066726f6d20746865207a65726f20616460008201527f6472657373000000000000000000000000000000000000000000000000000000602082015250565b60006138af602583612c9a565b91506138ba82613853565b604082019050919050565b600060208201905081810360008301526138de816138a2565b9050919050565b7f45524332303a207472616e7366657220746f20746865207a65726f206164647260008201527f6573730000000000000000000000000000000000000000000000000000000000602082015250565b6000613941602383612c9a565b915061394c826138e5565b604082019050919050565b6000602082019050818103600083015261397081613934565b9050919050565b7f45524332303a207472616e7366657220616d6f756e742065786365656473206260008201527f616c616e63650000000000000000000000000000000000000000000000000000602082015250565b60006139d3602683612c9a565b91506139de82613977565b604082019050919050565b60006020820190508181036000830152613a02816139c6565b9050919050565b6000613a1482612dad565b9150613a1f83612dad565b9250817fffffffffffffffffffffffffffffffffffffffffffffffffffffffffffffffff0483118215151615613a5857613a576131be565b5b828202905092915050565b7f4e487b7100000000000000000000000000000000000000000000000000000000600052601260045260246000fd5b6000613a9d82612dad565b9150613aa883612dad565b925082613ab857613ab7613a63565b5b828204905092915050565b7f45524332303a206275726e2066726f6d20746865207a65726f2061646472657360008201527f7300000000000000000000000000000000000000000000000000000000000000602082015250565b6000613b1f602183612c9a565b9150613b2a82613ac3565b604082019050919050565b60006020820190508181036000830152613b4e81613b12565b9050919050565b7f45524332303a206275726e20616d6f756e7420657863656564732062616c616e60008201527f6365000000000000000000000000000000000000000000000000000000000000602082015250565b6000613bb1602283612c9a565b9150613bbc82613b55565b604082019050919050565b60006020820190508181036000830152613be081613ba4565b9050919050565b6000613bf282612dad565b9150613bfd83612dad565b925082821015613c1057613c0f6131be565b5b828203905092915050565b6000606082019050613c306000830186612fe1565b613c3d6020830185612fe1565b613c4a6040830184612e59565b949350505050565b7f45524332303a206d696e7420746f20746865207a65726f206164647265737300600082015250565b6000613c88601f83612c9a565b9150613c9382613c52565b602082019050919050565b60006020820190508181036000830152613cb781613c7b565b9050919050565b613cc781612e23565b8114613cd257600080fd5b50565b600081519050613ce481613cbe565b92915050565b600060208284031215613d0057613cff612d4a565b5b6000613d0e84828501613cd5565b91505092915050565b7f5361666545524332303a204552433230206f7065726174696f6e20646964206e60008201527f6f74207375636365656400000000000000000000000000000000000000000000602082015250565b6000613d73602a83612c9a565b9150613d7e82613d17565b604082019050919050565b60006020820190508181036000830152613da281613d66565b9050919050565b7f416464726573733a20696e73756666696369656e742062616c616e636520666f60008201527f722063616c6c0000000000000000000000000000000000000000000000000000602082015250565b6000613e05602683612c9a565b9150613e1082613da9565b604082019050919050565b60006020820190508181036000830152613e3481613df8565b9050919050565b7f416464726573733a2063616c6c20746f206e6f6e2d636f6e7472616374000000600082015250565b6000613e71601d83612c9a565b9150613e7c82613e3b565b602082019050919050565b60006020820190508181036000830152613ea081613e64565b9050919050565b600081519050919050565b600081905092915050565b6000613ec882613ea7565b613ed28185613eb2565b9350613ee2818560208601612cab565b80840191505092915050565b6000613efa8284613ebd565b91508190509291505056fea264697066735822122017d086b85e93a1cc77bead21e228bf674a54ee99fc1217741a6bfb912f0814d964736f6c634300080b0033",
  "linkReferences": {},
  "deployedLinkReferences": {}
}