{
  "_format": "hh-sol-artifact-1",
  "contractName": "StrategyPLFYLiquidity",
  "sourceName": "src/contracts/strategies/Poolify/StrategyPLFYLiquidity.sol",
  "abi": [
    {
      "inputs": [
        {
          "internalType": "address",
          "name": "_want",
          "type": "address"
        },
        {
          "internalType": "address",
          "name": "_reward",
          "type": "address"
        },
        {
          "internalType": "address",
          "name": "_rewardManager",
          "type": "address"
        },
        {
          "internalType": "uint256",
          "name": "_poolRewardId",
          "type": "uint256"
        },
        {
          "internalType": "address",
          "name": "_vault",
          "type": "address"
        },
        {
          "internalType": "address",
          "name": "_keeper",
          "type": "address"
        },
        {
          "internalType": "address",
          "name": "_strategistRecipient",
          "type": "address"
        }
      ],
      "stateMutability": "nonpayable",
      "type": "constructor"
    },
    {
      "anonymous": false,
      "inputs": [
        {
          "indexed": true,
          "internalType": "address",
          "name": "previousOwner",
          "type": "address"
        },
        {
          "indexed": true,
          "internalType": "address",
          "name": "newOwner",
          "type": "address"
        }
      ],
      "name": "OwnershipTransferred",
      "type": "event"
    },
    {
      "anonymous": false,
      "inputs": [
        {
          "indexed": false,
          "internalType": "address",
          "name": "account",
          "type": "address"
        }
      ],
      "name": "Paused",
      "type": "event"
    },
    {
      "anonymous": false,
      "inputs": [
        {
          "indexed": true,
          "internalType": "address",
          "name": "harvester",
          "type": "address"
        },
        {
          "indexed": true,
          "internalType": "uint256",
          "name": "timestamp",
          "type": "uint256"
        }
      ],
      "name": "StratHarvest",
      "type": "event"
    },
    {
      "anonymous": false,
      "inputs": [
        {
          "indexed": false,
          "internalType": "address",
          "name": "account",
          "type": "address"
        }
      ],
      "name": "Unpaused",
      "type": "event"
    },
    {
      "inputs": [],
      "name": "CALL_FEE",
      "outputs": [
        {
          "internalType": "uint256",
          "name": "",
          "type": "uint256"
        }
      ],
      "stateMutability": "view",
      "type": "function"
    },
    {
      "inputs": [],
      "name": "CALL_FEE_MAX",
      "outputs": [
        {
          "internalType": "uint256",
          "name": "",
          "type": "uint256"
        }
      ],
      "stateMutability": "view",
      "type": "function"
    },
    {
      "inputs": [],
      "name": "CALL_PRECISION",
      "outputs": [
        {
          "internalType": "uint256",
          "name": "",
          "type": "uint256"
        }
      ],
      "stateMutability": "view",
      "type": "function"
    },
    {
      "inputs": [],
      "name": "STRATEGIST_FEE",
      "outputs": [
        {
          "internalType": "uint256",
          "name": "",
          "type": "uint256"
        }
      ],
      "stateMutability": "view",
      "type": "function"
    },
    {
      "inputs": [],
      "name": "STRATEGIST_FEE_MAX",
      "outputs": [
        {
          "internalType": "uint256",
          "name": "",
          "type": "uint256"
        }
      ],
      "stateMutability": "view",
      "type": "function"
    },
    {
      "inputs": [],
      "name": "STRATEGIST_PRECISION",
      "outputs": [
        {
          "internalType": "uint256",
          "name": "",
          "type": "uint256"
        }
      ],
      "stateMutability": "view",
      "type": "function"
    },
    {
      "inputs": [],
      "name": "WITHDRAWAL_FEE",
      "outputs": [
        {
          "internalType": "uint256",
          "name": "",
          "type": "uint256"
        }
      ],
      "stateMutability": "view",
      "type": "function"
    },
    {
      "inputs": [],
      "name": "WITHDRAWAL_FEE_MAX",
      "outputs": [
        {
          "internalType": "uint256",
          "name": "",
          "type": "uint256"
        }
      ],
      "stateMutability": "view",
      "type": "function"
    },
    {
      "inputs": [],
      "name": "WITHDRAWAL_PRECISION",
      "outputs": [
        {
          "internalType": "uint256",
          "name": "",
          "type": "uint256"
        }
      ],
      "stateMutability": "view",
      "type": "function"
    },
    {
      "inputs": [],
      "name": "balanceOf",
      "outputs": [
        {
          "internalType": "uint256",
          "name": "",
          "type": "uint256"
        }
      ],
      "stateMutability": "view",
      "type": "function"
    },
    {
      "inputs": [],
      "name": "balanceOfPendingRewards",
      "outputs": [
        {
          "internalType": "uint256",
          "name": "",
          "type": "uint256"
        }
      ],
      "stateMutability": "view",
      "type": "function"
    },
    {
      "inputs": [],
      "name": "balanceOfPool",
      "outputs": [
        {
          "internalType": "uint256",
          "name": "",
          "type": "uint256"
        }
      ],
      "stateMutability": "view",
      "type": "function"
    },
    {
      "inputs": [],
      "name": "balanceOfReward",
      "outputs": [
        {
          "internalType": "uint256",
          "name": "",
          "type": "uint256"
        }
      ],
      "stateMutability": "view",
      "type": "function"
    },
    {
      "inputs": [],
      "name": "balanceOfWant",
      "outputs": [
        {
          "internalType": "uint256",
          "name": "",
          "type": "uint256"
        }
      ],
      "stateMutability": "view",
      "type": "function"
    },
    {
      "inputs": [],
      "name": "beforeDeposit",
      "outputs": [],
      "stateMutability": "nonpayable",
      "type": "function"
    },
    {
      "inputs": [],
      "name": "deposit",
      "outputs": [],
      "stateMutability": "nonpayable",
      "type": "function"
    },
    {
      "inputs": [
        {
          "internalType": "address",
          "name": "callFeeRecipient",
          "type": "address"
        }
      ],
      "name": "harvest",
      "outputs": [],
      "stateMutability": "nonpayable",
      "type": "function"
    },
    {
      "inputs": [],
      "name": "harvest",
      "outputs": [],
      "stateMutability": "nonpayable",
      "type": "function"
    },
    {
      "inputs": [],
      "name": "harvestOnDeposit",
      "outputs": [
        {
          "internalType": "bool",
          "name": "",
          "type": "bool"
        }
      ],
      "stateMutability": "view",
      "type": "function"
    },
    {
      "inputs": [],
      "name": "keeper",
      "outputs": [
        {
          "internalType": "address",
          "name": "",
          "type": "address"
        }
      ],
      "stateMutability": "view",
      "type": "function"
    },
    {
      "inputs": [],
      "name": "lastHarvest",
      "outputs": [
        {
          "internalType": "uint256",
          "name": "",
          "type": "uint256"
        }
      ],
      "stateMutability": "view",
      "type": "function"
    },
    {
      "inputs": [],
      "name": "managerHarvest",
      "outputs": [],
      "stateMutability": "nonpayable",
      "type": "function"
    },
    {
      "inputs": [],
      "name": "owner",
      "outputs": [
        {
          "internalType": "address",
          "name": "",
          "type": "address"
        }
      ],
      "stateMutability": "view",
      "type": "function"
    },
    {
      "inputs": [],
      "name": "panic",
      "outputs": [],
      "stateMutability": "nonpayable",
      "type": "function"
    },
    {
      "inputs": [],
      "name": "pause",
      "outputs": [],
      "stateMutability": "nonpayable",
      "type": "function"
    },
    {
      "inputs": [],
      "name": "paused",
      "outputs": [
        {
          "internalType": "bool",
          "name": "",
          "type": "bool"
        }
      ],
      "stateMutability": "view",
      "type": "function"
    },
    {
      "inputs": [],
      "name": "poolRewardId",
      "outputs": [
        {
          "internalType": "uint256",
          "name": "",
          "type": "uint256"
        }
      ],
      "stateMutability": "view",
      "type": "function"
    },
    {
      "inputs": [],
      "name": "renounceOwnership",
      "outputs": [],
      "stateMutability": "nonpayable",
      "type": "function"
    },
    {
      "inputs": [],
      "name": "retireStrat",
      "outputs": [],
      "stateMutability": "nonpayable",
      "type": "function"
    },
    {
      "inputs": [],
      "name": "reward",
      "outputs": [
        {
          "internalType": "address",
          "name": "",
          "type": "address"
        }
      ],
      "stateMutability": "view",
      "type": "function"
    },
    {
      "inputs": [],
      "name": "rewardManager",
      "outputs": [
        {
          "internalType": "address",
          "name": "",
          "type": "address"
        }
      ],
      "stateMutability": "view",
      "type": "function"
    },
    {
      "inputs": [
        {
          "internalType": "uint256",
          "name": "_fee",
          "type": "uint256"
        }
      ],
      "name": "setCallFee",
      "outputs": [],
      "stateMutability": "nonpayable",
      "type": "function"
    },
    {
      "inputs": [
        {
          "internalType": "address",
          "name": "_keeper",
          "type": "address"
        }
      ],
      "name": "setKeeper",
      "outputs": [],
      "stateMutability": "nonpayable",
      "type": "function"
    },
    {
      "inputs": [
        {
          "internalType": "uint256",
          "name": "_fee",
          "type": "uint256"
        }
      ],
      "name": "setStrategistFee",
      "outputs": [],
      "stateMutability": "nonpayable",
      "type": "function"
    },
    {
      "inputs": [
        {
          "internalType": "address",
          "name": "_strategistRecipient",
          "type": "address"
        }
      ],
      "name": "setStrategistRecipient",
      "outputs": [],
      "stateMutability": "nonpayable",
      "type": "function"
    },
    {
      "inputs": [
        {
          "internalType": "address",
          "name": "_vault",
          "type": "address"
        }
      ],
      "name": "setVault",
      "outputs": [],
      "stateMutability": "nonpayable",
      "type": "function"
    },
    {
      "inputs": [
        {
          "internalType": "uint256",
          "name": "_fee",
          "type": "uint256"
        }
      ],
      "name": "setWithdrawalFee",
      "outputs": [],
      "stateMutability": "nonpayable",
      "type": "function"
    },
    {
      "inputs": [],
      "name": "strategistRecipient",
      "outputs": [
        {
          "internalType": "address",
          "name": "",
          "type": "address"
        }
      ],
      "stateMutability": "view",
      "type": "function"
    },
    {
      "inputs": [
        {
          "internalType": "address",
          "name": "newOwner",
          "type": "address"
        }
      ],
      "name": "transferOwnership",
      "outputs": [],
      "stateMutability": "nonpayable",
      "type": "function"
    },
    {
      "inputs": [],
      "name": "unpause",
      "outputs": [],
      "stateMutability": "nonpayable",
      "type": "function"
    },
    {
      "inputs": [],
      "name": "vault",
      "outputs": [
        {
          "internalType": "address",
          "name": "",
          "type": "address"
        }
      ],
      "stateMutability": "view",
      "type": "function"
    },
    {
      "inputs": [],
      "name": "want",
      "outputs": [
        {
          "internalType": "address",
          "name": "",
          "type": "address"
        }
      ],
      "stateMutability": "view",
      "type": "function"
    },
    {
      "inputs": [
        {
          "internalType": "uint256",
          "name": "_amount",
          "type": "uint256"
        }
      ],
      "name": "withdraw",
      "outputs": [],
      "stateMutability": "nonpayable",
      "type": "function"
    }
  ],
  "bytecode": "0x60806040526064600455606460055560006006553480156200002057600080fd5b506040516200405a3803806200405a83398181016040528101906200004691906200084c565b818382620000696200005d6200023060201b60201c565b6200023860201b60201c565b60008060146101000a81548160ff02191690831515021790555082600160006101000a81548173ffffffffffffffffffffffffffffffffffffffff021916908373ffffffffffffffffffffffffffffffffffffffff16021790555081600260006101000a81548173ffffffffffffffffffffffffffffffffffffffff021916908373ffffffffffffffffffffffffffffffffffffffff16021790555080600360006101000a81548173ffffffffffffffffffffffffffffffffffffffff021916908373ffffffffffffffffffffffffffffffffffffffff16021790555050505084600960006101000a81548173ffffffffffffffffffffffffffffffffffffffff021916908373ffffffffffffffffffffffffffffffffffffffff16021790555085600860006101000a81548173ffffffffffffffffffffffffffffffffffffffff021916908373ffffffffffffffffffffffffffffffffffffffff16021790555083600b8190555086600760006101000a81548173ffffffffffffffffffffffffffffffffffffffff021916908373ffffffffffffffffffffffffffffffffffffffff16021790555062000223620002fc60201b60201c565b5050505050505062000d84565b600033905090565b60008060009054906101000a900473ffffffffffffffffffffffffffffffffffffffff169050816000806101000a81548173ffffffffffffffffffffffffffffffffffffffff021916908373ffffffffffffffffffffffffffffffffffffffff1602179055508173ffffffffffffffffffffffffffffffffffffffff168173ffffffffffffffffffffffffffffffffffffffff167f8be0079c531659141344cd1fd0a4f28419497f9722a3daafe3b4186f6b6457e060405160405180910390a35050565b62000392600960009054906101000a900473ffffffffffffffffffffffffffffffffffffffff167fffffffffffffffffffffffffffffffffffffffffffffffffffffffffffffffff600760009054906101000a900473ffffffffffffffffffffffffffffffffffffffff1673ffffffffffffffffffffffffffffffffffffffff166200039460201b62001cc4179092919060201c565b565b600081148062000424575060008373ffffffffffffffffffffffffffffffffffffffff1663dd62ed3e30856040518363ffffffff1660e01b8152600401620003de92919062000910565b602060405180830381865afa158015620003fc573d6000803e3d6000fd5b505050506040513d601f19601f820116820180604052508101906200042291906200093d565b145b62000466576040517f08c379a00000000000000000000000000000000000000000000000000000000081526004016200045d90620009f6565b60405180910390fd5b620004f18363095ea7b360e01b84846040516024016200048892919062000a29565b604051602081830303815290604052907bffffffffffffffffffffffffffffffffffffffffffffffffffffffff19166020820180517bffffffffffffffffffffffffffffffffffffffffffffffffffffffff8381831617835250505050620004f660201b60201c565b505050565b60006200055f826040518060400160405280602081526020017f5361666545524332303a206c6f772d6c6576656c2063616c6c206661696c65648152508573ffffffffffffffffffffffffffffffffffffffff16620005ca60201b62001e13179092919060201c565b9050600081511115620005c5578080602001905181019062000582919062000a93565b620005c4576040517f08c379a0000000000000000000000000000000000000000000000000000000008152600401620005bb9062000b3b565b60405180910390fd5b5b505050565b6060620005e18484600085620005ea60201b60201c565b90509392505050565b60608247101562000632576040517f08c379a0000000000000000000000000000000000000000000000000000000008152600401620006299062000bd3565b60405180910390fd5b62000643856200071860201b60201c565b62000685576040517f08c379a00000000000000000000000000000000000000000000000000000000081526004016200067c9062000c45565b60405180910390fd5b6000808673ffffffffffffffffffffffffffffffffffffffff168587604051620006b0919062000cea565b60006040518083038185875af1925050503d8060008114620006ef576040519150601f19603f3d011682016040523d82523d6000602084013e620006f4565b606091505b50915091506200070c8282866200073b60201b60201c565b92505050949350505050565b6000808273ffffffffffffffffffffffffffffffffffffffff163b119050919050565b606083156200074d57829050620007a0565b600083511115620007615782518084602001fd5b816040517f08c379a000000000000000000000000000000000000000000000000000000000815260040162000797919062000d60565b60405180910390fd5b9392505050565b600080fd5b600073ffffffffffffffffffffffffffffffffffffffff82169050919050565b6000620007d982620007ac565b9050919050565b620007eb81620007cc565b8114620007f757600080fd5b50565b6000815190506200080b81620007e0565b92915050565b6000819050919050565b620008268162000811565b81146200083257600080fd5b50565b60008151905062000846816200081b565b92915050565b600080600080600080600060e0888a0312156200086e576200086d620007a7565b5b60006200087e8a828b01620007fa565b9750506020620008918a828b01620007fa565b9650506040620008a48a828b01620007fa565b9550506060620008b78a828b0162000835565b9450506080620008ca8a828b01620007fa565b93505060a0620008dd8a828b01620007fa565b92505060c0620008f08a828b01620007fa565b91505092959891949750929550565b6200090a81620007cc565b82525050565b6000604082019050620009276000830185620008ff565b620009366020830184620008ff565b9392505050565b600060208284031215620009565762000955620007a7565b5b6000620009668482850162000835565b91505092915050565b600082825260208201905092915050565b7f5361666545524332303a20617070726f76652066726f6d206e6f6e2d7a65726f60008201527f20746f206e6f6e2d7a65726f20616c6c6f77616e636500000000000000000000602082015250565b6000620009de6036836200096f565b9150620009eb8262000980565b604082019050919050565b6000602082019050818103600083015262000a1181620009cf565b9050919050565b62000a238162000811565b82525050565b600060408201905062000a406000830185620008ff565b62000a4f602083018462000a18565b9392505050565b60008115159050919050565b62000a6d8162000a56565b811462000a7957600080fd5b50565b60008151905062000a8d8162000a62565b92915050565b60006020828403121562000aac5762000aab620007a7565b5b600062000abc8482850162000a7c565b91505092915050565b7f5361666545524332303a204552433230206f7065726174696f6e20646964206e60008201527f6f74207375636365656400000000000000000000000000000000000000000000602082015250565b600062000b23602a836200096f565b915062000b308262000ac5565b604082019050919050565b6000602082019050818103600083015262000b568162000b14565b9050919050565b7f416464726573733a20696e73756666696369656e742062616c616e636520666f60008201527f722063616c6c0000000000000000000000000000000000000000000000000000602082015250565b600062000bbb6026836200096f565b915062000bc88262000b5d565b604082019050919050565b6000602082019050818103600083015262000bee8162000bac565b9050919050565b7f416464726573733a2063616c6c20746f206e6f6e2d636f6e7472616374000000600082015250565b600062000c2d601d836200096f565b915062000c3a8262000bf5565b602082019050919050565b6000602082019050818103600083015262000c608162000c1e565b9050919050565b600081519050919050565b600081905092915050565b60005b8381101562000c9d57808201518184015260208101905062000c80565b8381111562000cad576000848401525b50505050565b600062000cc08262000c67565b62000ccc818562000c72565b935062000cde81856020860162000c7d565b80840191505092915050565b600062000cf8828462000cb3565b915081905092915050565b600081519050919050565b6000601f19601f8301169050919050565b600062000d2c8262000d03565b62000d3881856200096f565b935062000d4a81856020860162000c7d565b62000d558162000d0e565b840191505092915050565b6000602082019050818103600083015262000d7c818462000d1f565b905092915050565b6132c68062000d946000396000f3fe608060405234801561001057600080fd5b50600436106102695760003560e01c80638912cb8b11610151578063c1a3d44c116100c3578063e4c22eb111610087578063e4c22eb114610616578063ee5cab5914610634578063f1a392da14610650578063f2fde38b1461066e578063fb6177871461068a578063fbfa77cf1461069457610269565b8063c1a3d44c146105a8578063d0e30db0146105c6578063d6b15597146105d0578063d801d946146105ee578063d879f3f0146105f857610269565b8063951d6d2011610115578063951d6d20146104f657806395dc0e9f14610514578063a5d33ed514610532578063ac1e502514610550578063aced16611461056c578063c0ace0751461058a57610269565b80638912cb8b14610462578063897c9004146104805780638a2d64a61461049e5780638ba2f0ba146104bc5780638da5cb5b146104d857610269565b80634700d305116101ea5780637156fa88116101ae5780637156fa88146103c4578063722713f7146103e2578063748747e6146104005780637d38ca651461041c5780637f4882551461043a5780638456cb591461045857610269565b80634700d3051461036c578063573fef0a146103765780635c975abb146103805780636817031b1461039e578063715018a6146103ba57610269565b8063228cb73311610231578063228cb7331461030257806326465826146103205780632e1a7d4d1461033c5780633f4ba83a146103585780634641257d1461036257610269565b806306d8d18f1461026e5780630e5c011e1461028c5780630f4ef8a6146102a857806311588086146102c65780631f1fcd51146102e4575b600080fd5b6102766106b2565b60405161028391906127a1565b60405180910390f35b6102a660048036038101906102a191906127ed565b6106d8565b005b6102b06106e4565b6040516102bd91906127a1565b60405180910390f35b6102ce61070a565b6040516102db9190612833565b60405180910390f35b6102ec6107b6565b6040516102f991906127a1565b60405180910390f35b61030a6107dc565b60405161031791906127a1565b60405180910390f35b61033a6004803603810190610335919061287a565b610802565b005b6103566004803603810190610351919061287a565b61091e565b005b610360610b65565b005b61036a610c4c565b005b610374610c57565b005b61037e610dbd565b005b610388610e58565b60405161039591906128c2565b60405180910390f35b6103b860048036038101906103b391906127ed565b610e6e565b005b6103c2610f2e565b005b6103cc610fb6565b6040516103d99190612833565b60405180910390f35b6103ea610fbc565b6040516103f79190612833565b60405180910390f35b61041a600480360381019061041591906127ed565b610fe4565b005b6104246110f5565b6040516104319190612833565b60405180910390f35b6104426110fb565b60405161044f9190612833565b60405180910390f35b610460611101565b005b61046a6111e0565b60405161047791906128c2565b60405180910390f35b6104886111f3565b6040516104959190612833565b60405180910390f35b6104a66111f9565b6040516104b39190612833565b60405180910390f35b6104d660048036038101906104d1919061287a565b6111ff565b005b6104e061131b565b6040516104ed91906127a1565b60405180910390f35b6104fe611344565b60405161050b9190612833565b60405180910390f35b61051c61134a565b6040516105299190612833565b60405180910390f35b61053a611350565b6040516105479190612833565b60405180910390f35b61056a6004803603810190610565919061287a565b611356565b005b610574611472565b60405161058191906127a1565b60405180910390f35b610592611498565b60405161059f9190612833565b60405180910390f35b6105b061149e565b6040516105bd9190612833565b60405180910390f35b6105ce611541565b005b6105d8611633565b6040516105e59190612833565b60405180910390f35b6105f66116da565b005b6106006117b2565b60405161060d9190612833565b60405180910390f35b61061e6117b8565b60405161062b9190612833565b60405180910390f35b61064e600480360381019061064991906127ed565b61185b565b005b61065861191b565b6040516106659190612833565b60405180910390f35b610688600480360381019061068391906127ed565b611921565b005b610692611a19565b005b61069c611c9e565b6040516106a991906127a1565b60405180910390f35b600360009054906101000a900473ffffffffffffffffffffffffffffffffffffffff1681565b6106e181611e2b565b50565b600960009054906101000a900473ffffffffffffffffffffffffffffffffffffffff1681565b600080600960009054906101000a900473ffffffffffffffffffffffffffffffffffffffff1673ffffffffffffffffffffffffffffffffffffffff166393f1a40b600b54306040518363ffffffff1660e01b815260040161076c9291906128dd565b6040805180830381865afa158015610788573d6000803e3d6000fd5b505050506040513d601f19601f820116820180604052508101906107ac919061291b565b5090508091505090565b600760009054906101000a900473ffffffffffffffffffffffffffffffffffffffff1681565b600860009054906101000a900473ffffffffffffffffffffffffffffffffffffffff1681565b61080a61131b565b73ffffffffffffffffffffffffffffffffffffffff163373ffffffffffffffffffffffffffffffffffffffff1614806108905750600160009054906101000a900473ffffffffffffffffffffffffffffffffffffffff1673ffffffffffffffffffffffffffffffffffffffff163373ffffffffffffffffffffffffffffffffffffffff16145b6108cf576040517f08c379a00000000000000000000000000000000000000000000000000000000081526004016108c6906129b8565b60405180910390fd5b6103e8811115610914576040517f08c379a000000000000000000000000000000000000000000000000000000000815260040161090b90612a24565b60405180910390fd5b8060048190555050565b600260009054906101000a900473ffffffffffffffffffffffffffffffffffffffff1673ffffffffffffffffffffffffffffffffffffffff163373ffffffffffffffffffffffffffffffffffffffff16146109ae576040517f08c379a00000000000000000000000000000000000000000000000000000000081526004016109a590612a90565b60405180910390fd5b60006109b861149e565b905081811015610a7057600960009054906101000a900473ffffffffffffffffffffffffffffffffffffffff1673ffffffffffffffffffffffffffffffffffffffff1663441a3e70600b54610a16848661206a90919063ffffffff16565b6040518363ffffffff1660e01b8152600401610a33929190612ab0565b600060405180830381600087803b158015610a4d57600080fd5b505af1158015610a61573d6000803e3d6000fd5b50505050610a6d61149e565b90505b81811115610a7c578190505b610af2600260009054906101000a900473ffffffffffffffffffffffffffffffffffffffff16610aaa6117b8565b600860009054906101000a900473ffffffffffffffffffffffffffffffffffffffff1673ffffffffffffffffffffffffffffffffffffffff166120809092919063ffffffff16565b610b61600260009054906101000a900473ffffffffffffffffffffffffffffffffffffffff1682600760009054906101000a900473ffffffffffffffffffffffffffffffffffffffff1673ffffffffffffffffffffffffffffffffffffffff166120809092919063ffffffff16565b5050565b610b6d61131b565b73ffffffffffffffffffffffffffffffffffffffff163373ffffffffffffffffffffffffffffffffffffffff161480610bf35750600160009054906101000a900473ffffffffffffffffffffffffffffffffffffffff1673ffffffffffffffffffffffffffffffffffffffff163373ffffffffffffffffffffffffffffffffffffffff16145b610c32576040517f08c379a0000000000000000000000000000000000000000000000000000000008152600401610c29906129b8565b60405180910390fd5b610c3a612106565b610c426121a7565b610c4a611541565b565b610c5532611e2b565b565b610c5f61131b565b73ffffffffffffffffffffffffffffffffffffffff163373ffffffffffffffffffffffffffffffffffffffff161480610ce55750600160009054906101000a900473ffffffffffffffffffffffffffffffffffffffff1673ffffffffffffffffffffffffffffffffffffffff163373ffffffffffffffffffffffffffffffffffffffff16145b610d24576040517f08c379a0000000000000000000000000000000000000000000000000000000008152600401610d1b906129b8565b60405180910390fd5b610d2c611101565b600960009054906101000a900473ffffffffffffffffffffffffffffffffffffffff1673ffffffffffffffffffffffffffffffffffffffff16635312ea8e600b546040518263ffffffff1660e01b8152600401610d899190612833565b600060405180830381600087803b158015610da357600080fd5b505af1158015610db7573d6000803e3d6000fd5b50505050565b600260009054906101000a900473ffffffffffffffffffffffffffffffffffffffff1673ffffffffffffffffffffffffffffffffffffffff163373ffffffffffffffffffffffffffffffffffffffff1614610e4d576040517f08c379a0000000000000000000000000000000000000000000000000000000008152600401610e4490612a90565b60405180910390fd5b610e5632611e2b565b565b60008060149054906101000a900460ff16905090565b610e76612238565b73ffffffffffffffffffffffffffffffffffffffff16610e9461131b565b73ffffffffffffffffffffffffffffffffffffffff1614610eea576040517f08c379a0000000000000000000000000000000000000000000000000000000008152600401610ee190612b25565b60405180910390fd5b80600260006101000a81548173ffffffffffffffffffffffffffffffffffffffff021916908373ffffffffffffffffffffffffffffffffffffffff16021790555050565b610f36612238565b73ffffffffffffffffffffffffffffffffffffffff16610f5461131b565b73ffffffffffffffffffffffffffffffffffffffff1614610faa576040517f08c379a0000000000000000000000000000000000000000000000000000000008152600401610fa190612b25565b60405180910390fd5b610fb46000612240565b565b61271081565b6000610fdf610fc961070a565b610fd161149e565b61230490919063ffffffff16565b905090565b610fec61131b565b73ffffffffffffffffffffffffffffffffffffffff163373ffffffffffffffffffffffffffffffffffffffff1614806110725750600160009054906101000a900473ffffffffffffffffffffffffffffffffffffffff1673ffffffffffffffffffffffffffffffffffffffff163373ffffffffffffffffffffffffffffffffffffffff16145b6110b1576040517f08c379a00000000000000000000000000000000000000000000000000000000081526004016110a8906129b8565b60405180910390fd5b80600160006101000a81548173ffffffffffffffffffffffffffffffffffffffff021916908373ffffffffffffffffffffffffffffffffffffffff16021790555050565b60055481565b6103e881565b61110961131b565b73ffffffffffffffffffffffffffffffffffffffff163373ffffffffffffffffffffffffffffffffffffffff16148061118f5750600160009054906101000a900473ffffffffffffffffffffffffffffffffffffffff1673ffffffffffffffffffffffffffffffffffffffff163373ffffffffffffffffffffffffffffffffffffffff16145b6111ce576040517f08c379a00000000000000000000000000000000000000000000000000000000081526004016111c5906129b8565b60405180910390fd5b6111d661231a565b6111de6123bd565b565b600960149054906101000a900460ff1681565b600b5481565b6103e881565b61120761131b565b73ffffffffffffffffffffffffffffffffffffffff163373ffffffffffffffffffffffffffffffffffffffff16148061128d5750600160009054906101000a900473ffffffffffffffffffffffffffffffffffffffff1673ffffffffffffffffffffffffffffffffffffffff163373ffffffffffffffffffffffffffffffffffffffff16145b6112cc576040517f08c379a00000000000000000000000000000000000000000000000000000000081526004016112c3906129b8565b60405180910390fd5b6103e8811115611311576040517f08c379a000000000000000000000000000000000000000000000000000000000815260040161130890612a24565b60405180910390fd5b8060058190555050565b60008060009054906101000a900473ffffffffffffffffffffffffffffffffffffffff16905090565b60045481565b61271081565b60065481565b61135e61131b565b73ffffffffffffffffffffffffffffffffffffffff163373ffffffffffffffffffffffffffffffffffffffff1614806113e45750600160009054906101000a900473ffffffffffffffffffffffffffffffffffffffff1673ffffffffffffffffffffffffffffffffffffffff163373ffffffffffffffffffffffffffffffffffffffff16145b611423576040517f08c379a000000000000000000000000000000000000000000000000000000000815260040161141a906129b8565b60405180910390fd5b6103e8811115611468576040517f08c379a000000000000000000000000000000000000000000000000000000000815260040161145f90612a24565b60405180910390fd5b8060068190555050565b600160009054906101000a900473ffffffffffffffffffffffffffffffffffffffff1681565b61271081565b6000600760009054906101000a900473ffffffffffffffffffffffffffffffffffffffff1673ffffffffffffffffffffffffffffffffffffffff166370a08231306040518263ffffffff1660e01b81526004016114fb91906127a1565b602060405180830381865afa158015611518573d6000803e3d6000fd5b505050506040513d601f19601f8201168201806040525081019061153c9190612b45565b905090565b611549610e58565b15611589576040517f08c379a000000000000000000000000000000000000000000000000000000000815260040161158090612bbe565b60405180910390fd5b600061159361149e565b9050600081111561163057600960009054906101000a900473ffffffffffffffffffffffffffffffffffffffff1673ffffffffffffffffffffffffffffffffffffffff1663e2bbb158600b54836040518363ffffffff1660e01b81526004016115fd929190612ab0565b600060405180830381600087803b15801561161757600080fd5b505af115801561162b573d6000803e3d6000fd5b505050505b50565b6000600960009054906101000a900473ffffffffffffffffffffffffffffffffffffffff1673ffffffffffffffffffffffffffffffffffffffff166308571c90600b54306040518363ffffffff1660e01b81526004016116949291906128dd565b602060405180830381865afa1580156116b1573d6000803e3d6000fd5b505050506040513d601f19601f820116820180604052508101906116d59190612b45565b905090565b6116e261131b565b73ffffffffffffffffffffffffffffffffffffffff163373ffffffffffffffffffffffffffffffffffffffff1614806117685750600160009054906101000a900473ffffffffffffffffffffffffffffffffffffffff1673ffffffffffffffffffffffffffffffffffffffff163373ffffffffffffffffffffffffffffffffffffffff16145b6117a7576040517f08c379a000000000000000000000000000000000000000000000000000000000815260040161179e906129b8565b60405180910390fd5b6117b032611e2b565b565b6103e881565b6000600860009054906101000a900473ffffffffffffffffffffffffffffffffffffffff1673ffffffffffffffffffffffffffffffffffffffff166370a08231306040518263ffffffff1660e01b815260040161181591906127a1565b602060405180830381865afa158015611832573d6000803e3d6000fd5b505050506040513d601f19601f820116820180604052508101906118569190612b45565b905090565b611863612238565b73ffffffffffffffffffffffffffffffffffffffff1661188161131b565b73ffffffffffffffffffffffffffffffffffffffff16146118d7576040517f08c379a00000000000000000000000000000000000000000000000000000000081526004016118ce90612b25565b60405180910390fd5b80600360006101000a81548173ffffffffffffffffffffffffffffffffffffffff021916908373ffffffffffffffffffffffffffffffffffffffff16021790555050565b600a5481565b611929612238565b73ffffffffffffffffffffffffffffffffffffffff1661194761131b565b73ffffffffffffffffffffffffffffffffffffffff161461199d576040517f08c379a000000000000000000000000000000000000000000000000000000000815260040161199490612b25565b60405180910390fd5b600073ffffffffffffffffffffffffffffffffffffffff168173ffffffffffffffffffffffffffffffffffffffff161415611a0d576040517f08c379a0000000000000000000000000000000000000000000000000000000008152600401611a0490612c50565b60405180910390fd5b611a1681612240565b50565b600260009054906101000a900473ffffffffffffffffffffffffffffffffffffffff1673ffffffffffffffffffffffffffffffffffffffff163373ffffffffffffffffffffffffffffffffffffffff1614611aa9576040517f08c379a0000000000000000000000000000000000000000000000000000000008152600401611aa090612a90565b60405180910390fd5b600960009054906101000a900473ffffffffffffffffffffffffffffffffffffffff1673ffffffffffffffffffffffffffffffffffffffff16635312ea8e600b546040518263ffffffff1660e01b8152600401611b069190612833565b600060405180830381600087803b158015611b2057600080fd5b505af1158015611b34573d6000803e3d6000fd5b505050506000600760009054906101000a900473ffffffffffffffffffffffffffffffffffffffff1673ffffffffffffffffffffffffffffffffffffffff166370a08231306040518263ffffffff1660e01b8152600401611b9591906127a1565b602060405180830381865afa158015611bb2573d6000803e3d6000fd5b505050506040513d601f19601f82011682018060405250810190611bd69190612b45565b9050600760009054906101000a900473ffffffffffffffffffffffffffffffffffffffff1673ffffffffffffffffffffffffffffffffffffffff1663a9059cbb600260009054906101000a900473ffffffffffffffffffffffffffffffffffffffff16836040518363ffffffff1660e01b8152600401611c57929190612c70565b6020604051808303816000875af1158015611c76573d6000803e3d6000fd5b505050506040513d601f19601f82011682018060405250810190611c9a9190612cc5565b5050565b600260009054906101000a900473ffffffffffffffffffffffffffffffffffffffff1681565b6000811480611d4e575060008373ffffffffffffffffffffffffffffffffffffffff1663dd62ed3e30856040518363ffffffff1660e01b8152600401611d0b929190612cf2565b602060405180830381865afa158015611d28573d6000803e3d6000fd5b505050506040513d601f19601f82011682018060405250810190611d4c9190612b45565b145b611d8d576040517f08c379a0000000000000000000000000000000000000000000000000000000008152600401611d8490612d8d565b60405180910390fd5b611e0e8363095ea7b360e01b8484604051602401611dac929190612c70565b604051602081830303815290604052907bffffffffffffffffffffffffffffffffffffffffffffffffffffffff19166020820180517bffffffffffffffffffffffffffffffffffffffffffffffffffffffff838183161783525050505061242f565b505050565b6060611e2284846000856124f6565b90509392505050565b611e33610e58565b15611e73576040517f08c379a0000000000000000000000000000000000000000000000000000000008152600401611e6a90612bbe565b60405180910390fd5b3373ffffffffffffffffffffffffffffffffffffffff163273ffffffffffffffffffffffffffffffffffffffff161480611efa5750600260009054906101000a900473ffffffffffffffffffffffffffffffffffffffff1673ffffffffffffffffffffffffffffffffffffffff163373ffffffffffffffffffffffffffffffffffffffff16145b611f39576040517f08c379a0000000000000000000000000000000000000000000000000000000008152600401611f3090612df9565b60405180910390fd5b6000611f43611633565b9050600960009054906101000a900473ffffffffffffffffffffffffffffffffffffffff1673ffffffffffffffffffffffffffffffffffffffff1663441a3e70600b54836040518363ffffffff1660e01b8152600401611fa4929190612ab0565b600060405180830381600087803b158015611fbe57600080fd5b505af1158015611fd2573d6000803e3d6000fd5b50505050600081111561206657611fe88161260a565b42600a81905550612065600260009054906101000a900473ffffffffffffffffffffffffffffffffffffffff1661201d6117b8565b600860009054906101000a900473ffffffffffffffffffffffffffffffffffffffff1673ffffffffffffffffffffffffffffffffffffffff166120809092919063ffffffff16565b5b5050565b600081836120789190612e48565b905092915050565b6121018363a9059cbb60e01b848460405160240161209f929190612c70565b604051602081830303815290604052907bffffffffffffffffffffffffffffffffffffffffffffffffffffffff19166020820180517bffffffffffffffffffffffffffffffffffffffffffffffffffffffff838183161783525050505061242f565b505050565b61210e610e58565b61214d576040517f08c379a000000000000000000000000000000000000000000000000000000000815260040161214490612ec8565b60405180910390fd5b60008060146101000a81548160ff0219169083151502179055507f5db9ee0a495bf2e6ff9c91a7834c1ba4fdd244a5e8aa4e537bd38aeae4b073aa612190612238565b60405161219d91906127a1565b60405180910390a1565b612236600960009054906101000a900473ffffffffffffffffffffffffffffffffffffffff167fffffffffffffffffffffffffffffffffffffffffffffffffffffffffffffffff600760009054906101000a900473ffffffffffffffffffffffffffffffffffffffff1673ffffffffffffffffffffffffffffffffffffffff16611cc49092919063ffffffff16565b565b600033905090565b60008060009054906101000a900473ffffffffffffffffffffffffffffffffffffffff169050816000806101000a81548173ffffffffffffffffffffffffffffffffffffffff021916908373ffffffffffffffffffffffffffffffffffffffff1602179055508173ffffffffffffffffffffffffffffffffffffffff168173ffffffffffffffffffffffffffffffffffffffff167f8be0079c531659141344cd1fd0a4f28419497f9722a3daafe3b4186f6b6457e060405160405180910390a35050565b600081836123129190612ee8565b905092915050565b612322610e58565b15612362576040517f08c379a000000000000000000000000000000000000000000000000000000000815260040161235990612bbe565b60405180910390fd5b6001600060146101000a81548160ff0219169083151502179055507f62e78cea01bee320cd4e420270b5ea74000d11b0c9f74754ebdbfc544b05a2586123a6612238565b6040516123b391906127a1565b60405180910390a1565b61242d600960009054906101000a900473ffffffffffffffffffffffffffffffffffffffff166000600760009054906101000a900473ffffffffffffffffffffffffffffffffffffffff1673ffffffffffffffffffffffffffffffffffffffff16611cc49092919063ffffffff16565b565b6000612491826040518060400160405280602081526020017f5361666545524332303a206c6f772d6c6576656c2063616c6c206661696c65648152508573ffffffffffffffffffffffffffffffffffffffff16611e139092919063ffffffff16565b90506000815111156124f157808060200190518101906124b19190612cc5565b6124f0576040517f08c379a00000000000000000000000000000000000000000000000000000000081526004016124e790612fb0565b60405180910390fd5b5b505050565b60608247101561253b576040517f08c379a000000000000000000000000000000000000000000000000000000000815260040161253290613042565b60405180910390fd5b612544856126aa565b612583576040517f08c379a000000000000000000000000000000000000000000000000000000000815260040161257a906130ae565b60405180910390fd5b6000808673ffffffffffffffffffffffffffffffffffffffff1685876040516125ac9190613148565b60006040518083038185875af1925050503d80600081146125e9576040519150601f19603f3d011682016040523d82523d6000602084013e6125ee565b606091505b50915091506125fe8282866126cd565b92505050949350505050565b60006126356127106126276005548561273490919063ffffffff16565b61274a90919063ffffffff16565b90506126a6600360009054906101000a900473ffffffffffffffffffffffffffffffffffffffff1682600860009054906101000a900473ffffffffffffffffffffffffffffffffffffffff1673ffffffffffffffffffffffffffffffffffffffff166120809092919063ffffffff16565b5050565b6000808273ffffffffffffffffffffffffffffffffffffffff163b119050919050565b606083156126dd5782905061272d565b6000835111156126f05782518084602001fd5b816040517f08c379a000000000000000000000000000000000000000000000000000000000815260040161272491906131b4565b60405180910390fd5b9392505050565b6000818361274291906131d6565b905092915050565b60008183612758919061325f565b905092915050565b600073ffffffffffffffffffffffffffffffffffffffff82169050919050565b600061278b82612760565b9050919050565b61279b81612780565b82525050565b60006020820190506127b66000830184612792565b92915050565b600080fd5b6127ca81612780565b81146127d557600080fd5b50565b6000813590506127e7816127c1565b92915050565b600060208284031215612803576128026127bc565b5b6000612811848285016127d8565b91505092915050565b6000819050919050565b61282d8161281a565b82525050565b60006020820190506128486000830184612824565b92915050565b6128578161281a565b811461286257600080fd5b50565b6000813590506128748161284e565b92915050565b6000602082840312156128905761288f6127bc565b5b600061289e84828501612865565b91505092915050565b60008115159050919050565b6128bc816128a7565b82525050565b60006020820190506128d760008301846128b3565b92915050565b60006040820190506128f26000830185612824565b6128ff6020830184612792565b9392505050565b6000815190506129158161284e565b92915050565b60008060408385031215612932576129316127bc565b5b600061294085828601612906565b925050602061295185828601612906565b9150509250929050565b600082825260208201905092915050565b7f216d616e61676572000000000000000000000000000000000000000000000000600082015250565b60006129a260088361295b565b91506129ad8261296c565b602082019050919050565b600060208201905081810360008301526129d181612995565b9050919050565b7f2163617000000000000000000000000000000000000000000000000000000000600082015250565b6000612a0e60048361295b565b9150612a19826129d8565b602082019050919050565b60006020820190508181036000830152612a3d81612a01565b9050919050565b7f217661756c740000000000000000000000000000000000000000000000000000600082015250565b6000612a7a60068361295b565b9150612a8582612a44565b602082019050919050565b60006020820190508181036000830152612aa981612a6d565b9050919050565b6000604082019050612ac56000830185612824565b612ad26020830184612824565b9392505050565b7f4f776e61626c653a2063616c6c6572206973206e6f7420746865206f776e6572600082015250565b6000612b0f60208361295b565b9150612b1a82612ad9565b602082019050919050565b60006020820190508181036000830152612b3e81612b02565b9050919050565b600060208284031215612b5b57612b5a6127bc565b5b6000612b6984828501612906565b91505092915050565b7f5061757361626c653a2070617573656400000000000000000000000000000000600082015250565b6000612ba860108361295b565b9150612bb382612b72565b602082019050919050565b60006020820190508181036000830152612bd781612b9b565b9050919050565b7f4f776e61626c653a206e6577206f776e657220697320746865207a65726f206160008201527f6464726573730000000000000000000000000000000000000000000000000000602082015250565b6000612c3a60268361295b565b9150612c4582612bde565b604082019050919050565b60006020820190508181036000830152612c6981612c2d565b9050919050565b6000604082019050612c856000830185612792565b612c926020830184612824565b9392505050565b612ca2816128a7565b8114612cad57600080fd5b50565b600081519050612cbf81612c99565b92915050565b600060208284031215612cdb57612cda6127bc565b5b6000612ce984828501612cb0565b91505092915050565b6000604082019050612d076000830185612792565b612d146020830184612792565b9392505050565b7f5361666545524332303a20617070726f76652066726f6d206e6f6e2d7a65726f60008201527f20746f206e6f6e2d7a65726f20616c6c6f77616e636500000000000000000000602082015250565b6000612d7760368361295b565b9150612d8282612d1b565b604082019050919050565b60006020820190508181036000830152612da681612d6a565b9050919050565b7f21636f6e74726163740000000000000000000000000000000000000000000000600082015250565b6000612de360098361295b565b9150612dee82612dad565b602082019050919050565b60006020820190508181036000830152612e1281612dd6565b9050919050565b7f4e487b7100000000000000000000000000000000000000000000000000000000600052601160045260246000fd5b6000612e538261281a565b9150612e5e8361281a565b925082821015612e7157612e70612e19565b5b828203905092915050565b7f5061757361626c653a206e6f7420706175736564000000000000000000000000600082015250565b6000612eb260148361295b565b9150612ebd82612e7c565b602082019050919050565b60006020820190508181036000830152612ee181612ea5565b9050919050565b6000612ef38261281a565b9150612efe8361281a565b9250827fffffffffffffffffffffffffffffffffffffffffffffffffffffffffffffffff03821115612f3357612f32612e19565b5b828201905092915050565b7f5361666545524332303a204552433230206f7065726174696f6e20646964206e60008201527f6f74207375636365656400000000000000000000000000000000000000000000602082015250565b6000612f9a602a8361295b565b9150612fa582612f3e565b604082019050919050565b60006020820190508181036000830152612fc981612f8d565b9050919050565b7f416464726573733a20696e73756666696369656e742062616c616e636520666f60008201527f722063616c6c0000000000000000000000000000000000000000000000000000602082015250565b600061302c60268361295b565b915061303782612fd0565b604082019050919050565b6000602082019050818103600083015261305b8161301f565b9050919050565b7f416464726573733a2063616c6c20746f206e6f6e2d636f6e7472616374000000600082015250565b6000613098601d8361295b565b91506130a382613062565b602082019050919050565b600060208201905081810360008301526130c78161308b565b9050919050565b600081519050919050565b600081905092915050565b60005b838110156131025780820151818401526020810190506130e7565b83811115613111576000848401525b50505050565b6000613122826130ce565b61312c81856130d9565b935061313c8185602086016130e4565b80840191505092915050565b60006131548284613117565b915081905092915050565b600081519050919050565b6000601f19601f8301169050919050565b60006131868261315f565b613190818561295b565b93506131a08185602086016130e4565b6131a98161316a565b840191505092915050565b600060208201905081810360008301526131ce818461317b565b905092915050565b60006131e18261281a565b91506131ec8361281a565b9250817fffffffffffffffffffffffffffffffffffffffffffffffffffffffffffffffff048311821515161561322557613224612e19565b5b828202905092915050565b7f4e487b7100000000000000000000000000000000000000000000000000000000600052601260045260246000fd5b600061326a8261281a565b91506132758361281a565b92508261328557613284613230565b5b82820490509291505056fea2646970667358221220c37dc71705d5c5b761ff2fc2a25ae3492cd75d0e915bd97746d976f2820a40ee64736f6c634300080b0033",
  "linkReferences": {},
  "deployedLinkReferences": {}
}