{
  "_format": "hh-sol-artifact-1",
  "contractName": "PoolifyRewardManager",
  "sourceName": "src/contracts/protocol/PoolifyRewardManager.sol",
  "abi": [
    {
      "inputs": [
        {
          "internalType": "contract PLFYToken",
          "name": "_plfy",
          "type": "address"
        },
        {
          "internalType": "uint256",
          "name": "_poolifyPerBlock",
          "type": "uint256"
        },
        {
          "internalType": "uint256",
          "name": "_startBlock",
          "type": "uint256"
        },
        {
          "internalType": "address",
          "name": "_devaddr",
          "type": "address"
        }
      ],
      "stateMutability": "nonpayable",
      "type": "constructor"
    },
    {
      "anonymous": false,
      "inputs": [
        {
          "indexed": true,
          "internalType": "address",
          "name": "user",
          "type": "address"
        },
        {
          "indexed": true,
          "internalType": "uint256",
          "name": "pid",
          "type": "uint256"
        },
        {
          "indexed": false,
          "internalType": "uint256",
          "name": "amount",
          "type": "uint256"
        }
      ],
      "name": "Deposit",
      "type": "event"
    },
    {
      "anonymous": false,
      "inputs": [
        {
          "indexed": true,
          "internalType": "address",
          "name": "user",
          "type": "address"
        },
        {
          "indexed": true,
          "internalType": "uint256",
          "name": "pid",
          "type": "uint256"
        },
        {
          "indexed": false,
          "internalType": "uint256",
          "name": "amount",
          "type": "uint256"
        }
      ],
      "name": "EmergencyWithdraw",
      "type": "event"
    },
    {
      "anonymous": false,
      "inputs": [
        {
          "indexed": true,
          "internalType": "address",
          "name": "user",
          "type": "address"
        },
        {
          "indexed": true,
          "internalType": "uint256",
          "name": "pid",
          "type": "uint256"
        },
        {
          "indexed": false,
          "internalType": "uint256",
          "name": "amount",
          "type": "uint256"
        }
      ],
      "name": "Harvest",
      "type": "event"
    },
    {
      "anonymous": false,
      "inputs": [],
      "name": "LogInit",
      "type": "event"
    },
    {
      "anonymous": false,
      "inputs": [
        {
          "indexed": true,
          "internalType": "uint256",
          "name": "pid",
          "type": "uint256"
        },
        {
          "indexed": false,
          "internalType": "uint256",
          "name": "allocPoint",
          "type": "uint256"
        },
        {
          "indexed": true,
          "internalType": "contract IERC20",
          "name": "lpToken",
          "type": "address"
        }
      ],
      "name": "LogPoolAddition",
      "type": "event"
    },
    {
      "anonymous": false,
      "inputs": [
        {
          "indexed": true,
          "internalType": "uint256",
          "name": "pid",
          "type": "uint256"
        },
        {
          "indexed": false,
          "internalType": "uint256",
          "name": "lastRewardBlock",
          "type": "uint256"
        },
        {
          "indexed": false,
          "internalType": "uint256",
          "name": "lpSupply",
          "type": "uint256"
        },
        {
          "indexed": false,
          "internalType": "uint256",
          "name": "accPoolifyPerShare",
          "type": "uint256"
        }
      ],
      "name": "LogUpdatePool",
      "type": "event"
    },
    {
      "anonymous": false,
      "inputs": [
        {
          "indexed": true,
          "internalType": "address",
          "name": "previousOwner",
          "type": "address"
        },
        {
          "indexed": true,
          "internalType": "address",
          "name": "newOwner",
          "type": "address"
        }
      ],
      "name": "OwnershipTransferred",
      "type": "event"
    },
    {
      "anonymous": false,
      "inputs": [
        {
          "indexed": true,
          "internalType": "address",
          "name": "user",
          "type": "address"
        },
        {
          "indexed": true,
          "internalType": "uint256",
          "name": "pid",
          "type": "uint256"
        },
        {
          "indexed": false,
          "internalType": "uint256",
          "name": "amount",
          "type": "uint256"
        }
      ],
      "name": "Withdraw",
      "type": "event"
    },
    {
      "inputs": [],
      "name": "BONUS_MULTIPLIER",
      "outputs": [
        {
          "internalType": "uint256",
          "name": "",
          "type": "uint256"
        }
      ],
      "stateMutability": "view",
      "type": "function"
    },
    {
      "inputs": [],
      "name": "PLFY",
      "outputs": [
        {
          "internalType": "contract PLFYToken",
          "name": "",
          "type": "address"
        }
      ],
      "stateMutability": "view",
      "type": "function"
    },
    {
      "inputs": [
        {
          "internalType": "uint256",
          "name": "_allocPoint",
          "type": "uint256"
        },
        {
          "internalType": "contract IERC20",
          "name": "_stakeToken",
          "type": "address"
        },
        {
          "internalType": "bool",
          "name": "_withUpdate",
          "type": "bool"
        }
      ],
      "name": "addPool",
      "outputs": [],
      "stateMutability": "nonpayable",
      "type": "function"
    },
    {
      "inputs": [
        {
          "internalType": "uint256",
          "name": "_pid",
          "type": "uint256"
        },
        {
          "internalType": "uint256",
          "name": "_amount",
          "type": "uint256"
        }
      ],
      "name": "deposit",
      "outputs": [],
      "stateMutability": "nonpayable",
      "type": "function"
    },
    {
      "inputs": [],
      "name": "devaddr",
      "outputs": [
        {
          "internalType": "address",
          "name": "",
          "type": "address"
        }
      ],
      "stateMutability": "view",
      "type": "function"
    },
    {
      "inputs": [
        {
          "internalType": "uint256",
          "name": "_pid",
          "type": "uint256"
        }
      ],
      "name": "emergencyWithdraw",
      "outputs": [],
      "stateMutability": "nonpayable",
      "type": "function"
    },
    {
      "inputs": [
        {
          "internalType": "uint256",
          "name": "_amount",
          "type": "uint256"
        }
      ],
      "name": "enterStaking",
      "outputs": [],
      "stateMutability": "nonpayable",
      "type": "function"
    },
    {
      "inputs": [
        {
          "internalType": "uint256",
          "name": "_from",
          "type": "uint256"
        },
        {
          "internalType": "uint256",
          "name": "_to",
          "type": "uint256"
        }
      ],
      "name": "getMultiplier",
      "outputs": [
        {
          "internalType": "uint256",
          "name": "",
          "type": "uint256"
        }
      ],
      "stateMutability": "view",
      "type": "function"
    },
    {
      "inputs": [
        {
          "internalType": "contract IERC20",
          "name": "_stakeToken",
          "type": "address"
        }
      ],
      "name": "isDuplicatedPool",
      "outputs": [
        {
          "internalType": "bool",
          "name": "",
          "type": "bool"
        }
      ],
      "stateMutability": "view",
      "type": "function"
    },
    {
      "inputs": [
        {
          "internalType": "uint256",
          "name": "_amount",
          "type": "uint256"
        }
      ],
      "name": "leaveStaking",
      "outputs": [],
      "stateMutability": "nonpayable",
      "type": "function"
    },
    {
      "inputs": [],
      "name": "massUpdatePools",
      "outputs": [],
      "stateMutability": "nonpayable",
      "type": "function"
    },
    {
      "inputs": [],
      "name": "owner",
      "outputs": [
        {
          "internalType": "address",
          "name": "",
          "type": "address"
        }
      ],
      "stateMutability": "view",
      "type": "function"
    },
    {
      "inputs": [
        {
          "internalType": "uint256",
          "name": "_pid",
          "type": "uint256"
        },
        {
          "internalType": "address",
          "name": "_user",
          "type": "address"
        }
      ],
      "name": "pendingPoolify",
      "outputs": [
        {
          "internalType": "uint256",
          "name": "",
          "type": "uint256"
        }
      ],
      "stateMutability": "view",
      "type": "function"
    },
    {
      "inputs": [
        {
          "internalType": "uint256",
          "name": "",
          "type": "uint256"
        }
      ],
      "name": "poolInfo",
      "outputs": [
        {
          "internalType": "contract IERC20",
          "name": "lpToken",
          "type": "address"
        },
        {
          "internalType": "uint256",
          "name": "allocPoint",
          "type": "uint256"
        },
        {
          "internalType": "uint256",
          "name": "lastRewardBlock",
          "type": "uint256"
        },
        {
          "internalType": "uint256",
          "name": "accPoolifyPerShare",
          "type": "uint256"
        },
        {
          "internalType": "uint256",
          "name": "lpSupply",
          "type": "uint256"
        }
      ],
      "stateMutability": "view",
      "type": "function"
    },
    {
      "inputs": [],
      "name": "poolLength",
      "outputs": [
        {
          "internalType": "uint256",
          "name": "",
          "type": "uint256"
        }
      ],
      "stateMutability": "view",
      "type": "function"
    },
    {
      "inputs": [],
      "name": "poolifyPerBlock",
      "outputs": [
        {
          "internalType": "uint256",
          "name": "",
          "type": "uint256"
        }
      ],
      "stateMutability": "view",
      "type": "function"
    },
    {
      "inputs": [],
      "name": "renounceOwnership",
      "outputs": [],
      "stateMutability": "nonpayable",
      "type": "function"
    },
    {
      "inputs": [
        {
          "internalType": "uint256",
          "name": "_pid",
          "type": "uint256"
        },
        {
          "internalType": "uint256",
          "name": "_allocPoint",
          "type": "uint256"
        },
        {
          "internalType": "bool",
          "name": "_withUpdate",
          "type": "bool"
        }
      ],
      "name": "setPool",
      "outputs": [],
      "stateMutability": "nonpayable",
      "type": "function"
    },
    {
      "inputs": [
        {
          "internalType": "uint256",
          "name": "_poolifyPerBlock",
          "type": "uint256"
        }
      ],
      "name": "setPoolifyPerBlock",
      "outputs": [],
      "stateMutability": "nonpayable",
      "type": "function"
    },
    {
      "inputs": [
        {
          "internalType": "uint256",
          "name": "",
          "type": "uint256"
        }
      ],
      "name": "stakeTokens",
      "outputs": [
        {
          "internalType": "contract IERC20",
          "name": "",
          "type": "address"
        }
      ],
      "stateMutability": "view",
      "type": "function"
    },
    {
      "inputs": [],
      "name": "startBlock",
      "outputs": [
        {
          "internalType": "uint256",
          "name": "",
          "type": "uint256"
        }
      ],
      "stateMutability": "view",
      "type": "function"
    },
    {
      "inputs": [],
      "name": "totalAllocPoint",
      "outputs": [
        {
          "internalType": "uint256",
          "name": "",
          "type": "uint256"
        }
      ],
      "stateMutability": "view",
      "type": "function"
    },
    {
      "inputs": [
        {
          "internalType": "address",
          "name": "newOwner",
          "type": "address"
        }
      ],
      "name": "transferOwnership",
      "outputs": [],
      "stateMutability": "nonpayable",
      "type": "function"
    },
    {
      "inputs": [
        {
          "internalType": "uint256",
          "name": "multiplierNumber",
          "type": "uint256"
        }
      ],
      "name": "updateMultiplier",
      "outputs": [],
      "stateMutability": "nonpayable",
      "type": "function"
    },
    {
      "inputs": [
        {
          "internalType": "uint256",
          "name": "_pid",
          "type": "uint256"
        }
      ],
      "name": "updatePool",
      "outputs": [],
      "stateMutability": "nonpayable",
      "type": "function"
    },
    {
      "inputs": [
        {
          "internalType": "uint256",
          "name": "",
          "type": "uint256"
        },
        {
          "internalType": "address",
          "name": "",
          "type": "address"
        }
      ],
      "name": "userInfo",
      "outputs": [
        {
          "internalType": "uint256",
          "name": "amount",
          "type": "uint256"
        },
        {
          "internalType": "uint256",
          "name": "rewardDebt",
          "type": "uint256"
        }
      ],
      "stateMutability": "view",
      "type": "function"
    },
    {
      "inputs": [
        {
          "internalType": "uint256",
          "name": "_pid",
          "type": "uint256"
        },
        {
          "internalType": "uint256",
          "name": "_amount",
          "type": "uint256"
        }
      ],
      "name": "withdraw",
      "outputs": [],
      "stateMutability": "nonpayable",
      "type": "function"
    }
  ],
  "bytecode": "0x60a0604052600160045560006009553480156200001b57600080fd5b50604051620033c5380380620033c58339818101604052810190620000419190620003f6565b62000061620000556200024060201b60201c565b6200024860201b60201c565b600180819055508373ffffffffffffffffffffffffffffffffffffffff1660808173ffffffffffffffffffffffffffffffffffffffff1681525050826003819055508160078190555080600260006101000a81548173ffffffffffffffffffffffffffffffffffffffff021916908373ffffffffffffffffffffffffffffffffffffffff16021790555060056040518060a001604052808673ffffffffffffffffffffffffffffffffffffffff1681526020016103e881526020016007548152602001600081526020016000815250908060018154018082558091505060019003906000526020600020906005020160009091909190915060008201518160000160006101000a81548173ffffffffffffffffffffffffffffffffffffffff021916908373ffffffffffffffffffffffffffffffffffffffff1602179055506020820151816001015560408201518160020155606082015181600301556080820151816004015550506006849080600181540180825580915050600190039060005260206000200160009091909190916101000a81548173ffffffffffffffffffffffffffffffffffffffff021916908373ffffffffffffffffffffffffffffffffffffffff1602179055506103e86009819055505050505062000468565b600033905090565b60008060009054906101000a900473ffffffffffffffffffffffffffffffffffffffff169050816000806101000a81548173ffffffffffffffffffffffffffffffffffffffff021916908373ffffffffffffffffffffffffffffffffffffffff1602179055508173ffffffffffffffffffffffffffffffffffffffff168173ffffffffffffffffffffffffffffffffffffffff167f8be0079c531659141344cd1fd0a4f28419497f9722a3daafe3b4186f6b6457e060405160405180910390a35050565b600080fd5b600073ffffffffffffffffffffffffffffffffffffffff82169050919050565b60006200033e8262000311565b9050919050565b6000620003528262000331565b9050919050565b620003648162000345565b81146200037057600080fd5b50565b600081519050620003848162000359565b92915050565b6000819050919050565b6200039f816200038a565b8114620003ab57600080fd5b50565b600081519050620003bf8162000394565b92915050565b620003d08162000331565b8114620003dc57600080fd5b50565b600081519050620003f081620003c5565b92915050565b600080600080608085870312156200041357620004126200030c565b5b6000620004238782880162000373565b94505060206200043687828801620003ae565b93505060406200044987828801620003ae565b92505060606200045c87828801620003df565b91505092959194509250565b608051612f2c62000499600039600081816106ac01528181611118015281816111da0152611d940152612f2c6000f3fe608060405234801561001057600080fd5b50600436106101a95760003560e01c80635ffe6146116100f95780638dbb1e3a11610097578063d49e77cd11610071578063d49e77cd14610497578063e2bbb158146104b5578063ef4e18fe146104d1578063f2fde38b146104ef576101a9565b80638dbb1e3a1461040657806393f1a40b14610436578063b03df69d14610467576101a9565b80637547c7a3116100d35780637547c7a31461037e5780637abceffd146103ae5780638aa28550146103ca5780638da5cb5b146103e8576101a9565b80635ffe61461461034e578063630b5ba11461036a578063715018a614610374576101a9565b80631a3e87751161016657806346ca6bea1161014057806346ca6bea146102dc57806348cd4cb1146102f857806351eb05a6146103165780635312ea8e14610332576101a9565b80631a3e87751461028857806341441d3b146102a4578063441a3e70146102c0576101a9565b8063081e3eda146101ae57806308571c90146101cc5780630d5998a2146101fc5780631058d2811461021a5780631526fe271461023657806317caf6f11461026a575b600080fd5b6101b661050b565b6040516101c3919061224d565b60405180910390f35b6101e660048036038101906101e191906122f7565b610518565b6040516101f3919061224d565b60405180910390f35b6102046106aa565b6040516102119190612396565b60405180910390f35b610234600480360381019061022f91906123b1565b6106ce565b005b610250600480360381019061024b91906123b1565b610927565b6040516102619594939291906123ff565b60405180910390f35b61027261098d565b60405161027f919061224d565b60405180910390f35b6102a2600480360381019061029d91906123b1565b610993565b005b6102be60048036038101906102b991906123b1565b610a19565b005b6102da60048036038101906102d59190612452565b610c3b565b005b6102f660048036038101906102f191906124ca565b610f2b565b005b610300611062565b60405161030d919061224d565b60405180910390f35b610330600480360381019061032b91906123b1565b611068565b005b61034c600480360381019061034791906123b1565b611306565b005b610368600480360381019061036391906123b1565b611494565b005b61037261151a565b005b61037c61154d565b005b610398600480360381019061039391906123b1565b6115d5565b6040516103a5919061251d565b60405180910390f35b6103c860048036038101906103c39190612576565b611614565b005b6103d2611815565b6040516103df919061224d565b60405180910390f35b6103f061181b565b6040516103fd91906125d8565b60405180910390f35b610420600480360381019061041b9190612452565b611844565b60405161042d919061224d565b60405180910390f35b610450600480360381019061044b91906122f7565b611875565b60405161045e9291906125f3565b60405180910390f35b610481600480360381019061047c919061261c565b6118a6565b60405161048e9190612658565b60405180910390f35b61049f611958565b6040516104ac91906125d8565b60405180910390f35b6104cf60048036038101906104ca9190612452565b61197e565b005b6104d9611c37565b6040516104e6919061224d565b60405180910390f35b61050960048036038101906105049190612673565b611c3d565b005b6000600580549050905090565b6000806005848154811061052f5761052e6126a0565b5b9060005260206000209060050201905060006008600086815260200190815260200160002060008573ffffffffffffffffffffffffffffffffffffffff1673ffffffffffffffffffffffffffffffffffffffff16815260200190815260200160002090506000826003015490506000836004015490508360020154431180156105b9575060008114155b156106575760006105ce856002015443611844565b9050600061061160095461060388600101546105f560035487611d3590919063ffffffff16565b611d3590919063ffffffff16565b611d4b90919063ffffffff16565b905061065261064384610635670de0b6b3a764000085611d3590919063ffffffff16565b611d4b90919063ffffffff16565b85611d6190919063ffffffff16565b935050505b61069e8360010154610690670de0b6b3a7640000610682868860000154611d3590919063ffffffff16565b611d4b90919063ffffffff16565b611d7790919063ffffffff16565b94505050505092915050565b7f000000000000000000000000000000000000000000000000000000000000000081565b600060056000815481106106e5576106e46126a0565b5b9060005260206000209060050201905060006008600080815260200190815260200160002060003373ffffffffffffffffffffffffffffffffffffffff1673ffffffffffffffffffffffffffffffffffffffff16815260200190815260200160002090508281600001541015610790576040517f08c379a00000000000000000000000000000000000000000000000000000000081526004016107879061272c565b60405180910390fd5b61079a6000611068565b60006107e782600101546107d9670de0b6b3a76400006107cb87600301548760000154611d3590919063ffffffff16565b611d4b90919063ffffffff16565b611d7790919063ffffffff16565b905060008111156107fd576107fc3382611d8d565b5b60008411156108945761081d848360000154611d7790919063ffffffff16565b826000018190555061083c848460040154611d7790919063ffffffff16565b836004018190555061089333858560000160009054906101000a900473ffffffffffffffffffffffffffffffffffffffff1673ffffffffffffffffffffffffffffffffffffffff16611ddc9092919063ffffffff16565b5b6108c9670de0b6b3a76400006108bb85600301548560000154611d3590919063ffffffff16565b611d4b90919063ffffffff16565b826001018190555060003373ffffffffffffffffffffffffffffffffffffffff167ff279e6a1f5e320cca91135676d9cb6e44ca8a08c0b88342bcdb1144f6511b56886604051610919919061224d565b60405180910390a350505050565b6005818154811061093757600080fd5b90600052602060002090600502016000915090508060000160009054906101000a900473ffffffffffffffffffffffffffffffffffffffff16908060010154908060020154908060030154908060040154905085565b60095481565b61099b611e62565b73ffffffffffffffffffffffffffffffffffffffff166109b961181b565b73ffffffffffffffffffffffffffffffffffffffff1614610a0f576040517f08c379a0000000000000000000000000000000000000000000000000000000008152600401610a0690612798565b60405180910390fd5b8060038190555050565b60006005600081548110610a3057610a2f6126a0565b5b9060005260206000209060050201905060006008600080815260200190815260200160002060003373ffffffffffffffffffffffffffffffffffffffff1673ffffffffffffffffffffffffffffffffffffffff1681526020019081526020016000209050610a9e6000611068565b600081600001541115610b10576000610af88260010154610aea670de0b6b3a7640000610adc87600301548760000154611d3590919063ffffffff16565b611d4b90919063ffffffff16565b611d7790919063ffffffff16565b90506000811115610b0e57610b0d3382611d8d565b5b505b6000831115610ba957610b6a3330858560000160009054906101000a900473ffffffffffffffffffffffffffffffffffffffff1673ffffffffffffffffffffffffffffffffffffffff16611e6a909392919063ffffffff16565b610b81838360040154611d6190919063ffffffff16565b8260040181905550610ba0838260000154611d6190919063ffffffff16565b81600001819055505b610bde670de0b6b3a7640000610bd084600301548460000154611d3590919063ffffffff16565b611d4b90919063ffffffff16565b816001018190555060003373ffffffffffffffffffffffffffffffffffffffff167f90890809c654f11d6e72a28fa60149770a0d11ec6c92319d6ceb2bb0a4ea1a1585604051610c2e919061224d565b60405180910390a3505050565b60026001541415610c81576040517f08c379a0000000000000000000000000000000000000000000000000000000008152600401610c7890612804565b60405180910390fd5b60026001819055506000821415610ccd576040517f08c379a0000000000000000000000000000000000000000000000000000000008152600401610cc490612870565b60405180910390fd5b600060058381548110610ce357610ce26126a0565b5b9060005260206000209060050201905060006008600085815260200190815260200160002060003373ffffffffffffffffffffffffffffffffffffffff1673ffffffffffffffffffffffffffffffffffffffff16815260200190815260200160002090508281600001541015610d8e576040517f08c379a0000000000000000000000000000000000000000000000000000000008152600401610d859061272c565b60405180910390fd5b610d9784611068565b6000610de48260010154610dd6670de0b6b3a7640000610dc887600301548760000154611d3590919063ffffffff16565b611d4b90919063ffffffff16565b611d7790919063ffffffff16565b90506000811115610dfa57610df93382611d8d565b5b6000841115610e9157610e1a848360000154611d7790919063ffffffff16565b8260000181905550610e39848460040154611d7790919063ffffffff16565b8360040181905550610e9033858560000160009054906101000a900473ffffffffffffffffffffffffffffffffffffffff1673ffffffffffffffffffffffffffffffffffffffff16611ddc9092919063ffffffff16565b5b610ec6670de0b6b3a7640000610eb885600301548560000154611d3590919063ffffffff16565b611d4b90919063ffffffff16565b8260010181905550843373ffffffffffffffffffffffffffffffffffffffff167ff279e6a1f5e320cca91135676d9cb6e44ca8a08c0b88342bcdb1144f6511b56886604051610f15919061224d565b60405180910390a3505050600180819055505050565b610f33611e62565b73ffffffffffffffffffffffffffffffffffffffff16610f5161181b565b73ffffffffffffffffffffffffffffffffffffffff1614610fa7576040517f08c379a0000000000000000000000000000000000000000000000000000000008152600401610f9e90612798565b60405180910390fd5b8015610fb657610fb561151a565b5b61100282610ff460058681548110610fd157610fd06126a0565b5b906000526020600020906005020160010154600954611d7790919063ffffffff16565b611d6190919063ffffffff16565b60098190555060006005848154811061101e5761101d6126a0565b5b90600052602060002090600502016001015490508260058581548110611047576110466126a0565b5b90600052602060002090600502016001018190555050505050565b60075481565b60006005828154811061107e5761107d6126a0565b5b906000526020600020906005020190508060020154431161109f5750611303565b60008160040154905060008114156110c1574382600201819055505050611303565b60006110d1836002015443611844565b9050600061111460095461110686600101546110f860035487611d3590919063ffffffff16565b611d3590919063ffffffff16565b611d4b90919063ffffffff16565b90507f000000000000000000000000000000000000000000000000000000000000000073ffffffffffffffffffffffffffffffffffffffff166340c10f19600260009054906101000a900473ffffffffffffffffffffffffffffffffffffffff16611189600a85611d4b90919063ffffffff16565b6040518363ffffffff1660e01b81526004016111a6929190612890565b600060405180830381600087803b1580156111c057600080fd5b505af11580156111d4573d6000803e3d6000fd5b505050507f000000000000000000000000000000000000000000000000000000000000000073ffffffffffffffffffffffffffffffffffffffff166340c10f1930836040518363ffffffff1660e01b8152600401611233929190612890565b600060405180830381600087803b15801561124d57600080fd5b505af1158015611261573d6000803e3d6000fd5b505050506112a861129584611287670de0b6b3a764000085611d3590919063ffffffff16565b611d4b90919063ffffffff16565b8560030154611d6190919063ffffffff16565b8460030181905550438460020181905550847fcb7325664a4a3b7c7223eefc492a97ca4fdf94d46884621e5a8fae5a04b2b9d28560020154600087600301546040516112f6939291906128f4565b60405180910390a2505050505b50565b6002600154141561134c576040517f08c379a000000000000000000000000000000000000000000000000000000000815260040161134390612804565b60405180910390fd5b600260018190555060006005828154811061136a576113696126a0565b5b9060005260206000209060050201905060006008600084815260200190815260200160002060003373ffffffffffffffffffffffffffffffffffffffff1673ffffffffffffffffffffffffffffffffffffffff16815260200190815260200160002090506114213382600001548460000160009054906101000a900473ffffffffffffffffffffffffffffffffffffffff1673ffffffffffffffffffffffffffffffffffffffff16611ddc9092919063ffffffff16565b6000816000018190555060008160010181905550823373ffffffffffffffffffffffffffffffffffffffff167fbb757047c2b5f3974fe26b7c10f732e7bce710b0952a71082702781e62ae05958360000154604051611480919061224d565b60405180910390a350506001808190555050565b61149c611e62565b73ffffffffffffffffffffffffffffffffffffffff166114ba61181b565b73ffffffffffffffffffffffffffffffffffffffff1614611510576040517f08c379a000000000000000000000000000000000000000000000000000000000815260040161150790612798565b60405180910390fd5b8060048190555050565b6000600580549050905060005b818110156115495761153881611068565b806115429061295a565b9050611527565b5050565b611555611e62565b73ffffffffffffffffffffffffffffffffffffffff1661157361181b565b73ffffffffffffffffffffffffffffffffffffffff16146115c9576040517f08c379a00000000000000000000000000000000000000000000000000000000081526004016115c090612798565b60405180910390fd5b6115d36000611ef3565b565b600681815481106115e557600080fd5b906000526020600020016000915054906101000a900473ffffffffffffffffffffffffffffffffffffffff1681565b61161c611e62565b73ffffffffffffffffffffffffffffffffffffffff1661163a61181b565b73ffffffffffffffffffffffffffffffffffffffff1614611690576040517f08c379a000000000000000000000000000000000000000000000000000000000815260040161168790612798565b60405180910390fd5b801561169f5761169e61151a565b5b600060075443116116b2576007546116b4565b435b90506116cb84600954611d6190919063ffffffff16565b60098190555060056040518060a001604052808573ffffffffffffffffffffffffffffffffffffffff168152602001868152602001838152602001600081526020016000815250908060018154018082558091505060019003906000526020600020906005020160009091909190915060008201518160000160006101000a81548173ffffffffffffffffffffffffffffffffffffffff021916908373ffffffffffffffffffffffffffffffffffffffff1602179055506020820151816001015560408201518160020155606082015181600301556080820151816004015550506006839080600181540180825580915050600190039060005260206000200160009091909190916101000a81548173ffffffffffffffffffffffffffffffffffffffff021916908373ffffffffffffffffffffffffffffffffffffffff16021790555050505050565b60045481565b60008060009054906101000a900473ffffffffffffffffffffffffffffffffffffffff16905090565b600061186d60045461185f8585611d7790919063ffffffff16565b611d3590919063ffffffff16565b905092915050565b6008602052816000526040600020602052806000526040600020600091509150508060000154908060010154905082565b600080600680549050905060005b8181101561194c578373ffffffffffffffffffffffffffffffffffffffff16600682815481106118e7576118e66126a0565b5b9060005260206000200160009054906101000a900473ffffffffffffffffffffffffffffffffffffffff1673ffffffffffffffffffffffffffffffffffffffff16141561193957600192505050611953565b80806119449061295a565b9150506118b4565b5060009150505b919050565b600260009054906101000a900473ffffffffffffffffffffffffffffffffffffffff1681565b600260015414156119c4576040517f08c379a00000000000000000000000000000000000000000000000000000000081526004016119bb90612804565b60405180910390fd5b60026001819055506000821415611a10576040517f08c379a0000000000000000000000000000000000000000000000000000000008152600401611a07906129ef565b60405180910390fd5b600060058381548110611a2657611a256126a0565b5b9060005260206000209060050201905060006008600085815260200190815260200160002060003373ffffffffffffffffffffffffffffffffffffffff1673ffffffffffffffffffffffffffffffffffffffff1681526020019081526020016000209050611a9384611068565b600081600001541115611b05576000611aed8260010154611adf670de0b6b3a7640000611ad187600301548760000154611d3590919063ffffffff16565b611d4b90919063ffffffff16565b611d7790919063ffffffff16565b90506000811115611b0357611b023382611d8d565b5b505b6000831115611b9e57611b5f3330858560000160009054906101000a900473ffffffffffffffffffffffffffffffffffffffff1673ffffffffffffffffffffffffffffffffffffffff16611e6a909392919063ffffffff16565b611b76838360040154611d6190919063ffffffff16565b8260040181905550611b95838260000154611d6190919063ffffffff16565b81600001819055505b611bd3670de0b6b3a7640000611bc584600301548460000154611d3590919063ffffffff16565b611d4b90919063ffffffff16565b8160010181905550833373ffffffffffffffffffffffffffffffffffffffff167f90890809c654f11d6e72a28fa60149770a0d11ec6c92319d6ceb2bb0a4ea1a1585604051611c22919061224d565b60405180910390a35050600180819055505050565b60035481565b611c45611e62565b73ffffffffffffffffffffffffffffffffffffffff16611c6361181b565b73ffffffffffffffffffffffffffffffffffffffff1614611cb9576040517f08c379a0000000000000000000000000000000000000000000000000000000008152600401611cb090612798565b60405180910390fd5b600073ffffffffffffffffffffffffffffffffffffffff168173ffffffffffffffffffffffffffffffffffffffff161415611d29576040517f08c379a0000000000000000000000000000000000000000000000000000000008152600401611d2090612a81565b60405180910390fd5b611d3281611ef3565b50565b60008183611d439190612aa1565b905092915050565b60008183611d599190612b2a565b905092915050565b60008183611d6f9190612b5b565b905092915050565b60008183611d859190612bb1565b905092915050565b611dd882827f000000000000000000000000000000000000000000000000000000000000000073ffffffffffffffffffffffffffffffffffffffff16611ddc9092919063ffffffff16565b5050565b611e5d8363a9059cbb60e01b8484604051602401611dfb929190612890565b604051602081830303815290604052907bffffffffffffffffffffffffffffffffffffffffffffffffffffffff19166020820180517bffffffffffffffffffffffffffffffffffffffffffffffffffffffff8381831617835250505050611fb7565b505050565b600033905090565b611eed846323b872dd60e01b858585604051602401611e8b93929190612be5565b604051602081830303815290604052907bffffffffffffffffffffffffffffffffffffffffffffffffffffffff19166020820180517bffffffffffffffffffffffffffffffffffffffffffffffffffffffff8381831617835250505050611fb7565b50505050565b60008060009054906101000a900473ffffffffffffffffffffffffffffffffffffffff169050816000806101000a81548173ffffffffffffffffffffffffffffffffffffffff021916908373ffffffffffffffffffffffffffffffffffffffff1602179055508173ffffffffffffffffffffffffffffffffffffffff168173ffffffffffffffffffffffffffffffffffffffff167f8be0079c531659141344cd1fd0a4f28419497f9722a3daafe3b4186f6b6457e060405160405180910390a35050565b6000612019826040518060400160405280602081526020017f5361666545524332303a206c6f772d6c6576656c2063616c6c206661696c65648152508573ffffffffffffffffffffffffffffffffffffffff1661207e9092919063ffffffff16565b905060008151111561207957808060200190518101906120399190612c31565b612078576040517f08c379a000000000000000000000000000000000000000000000000000000000815260040161206f90612cd0565b60405180910390fd5b5b505050565b606061208d8484600085612096565b90509392505050565b6060824710156120db576040517f08c379a00000000000000000000000000000000000000000000000000000000081526004016120d290612d62565b60405180910390fd5b6120e4856121aa565b612123576040517f08c379a000000000000000000000000000000000000000000000000000000000815260040161211a90612dce565b60405180910390fd5b6000808673ffffffffffffffffffffffffffffffffffffffff16858760405161214c9190612e68565b60006040518083038185875af1925050503d8060008114612189576040519150601f19603f3d011682016040523d82523d6000602084013e61218e565b606091505b509150915061219e8282866121cd565b92505050949350505050565b6000808273ffffffffffffffffffffffffffffffffffffffff163b119050919050565b606083156121dd5782905061222d565b6000835111156121f05782518084602001fd5b816040517f08c379a00000000000000000000000000000000000000000000000000000000081526004016122249190612ed4565b60405180910390fd5b9392505050565b6000819050919050565b61224781612234565b82525050565b6000602082019050612262600083018461223e565b92915050565b600080fd5b61227681612234565b811461228157600080fd5b50565b6000813590506122938161226d565b92915050565b600073ffffffffffffffffffffffffffffffffffffffff82169050919050565b60006122c482612299565b9050919050565b6122d4816122b9565b81146122df57600080fd5b50565b6000813590506122f1816122cb565b92915050565b6000806040838503121561230e5761230d612268565b5b600061231c85828601612284565b925050602061232d858286016122e2565b9150509250929050565b6000819050919050565b600061235c61235761235284612299565b612337565b612299565b9050919050565b600061236e82612341565b9050919050565b600061238082612363565b9050919050565b61239081612375565b82525050565b60006020820190506123ab6000830184612387565b92915050565b6000602082840312156123c7576123c6612268565b5b60006123d584828501612284565b91505092915050565b60006123e982612363565b9050919050565b6123f9816123de565b82525050565b600060a08201905061241460008301886123f0565b612421602083018761223e565b61242e604083018661223e565b61243b606083018561223e565b612448608083018461223e565b9695505050505050565b6000806040838503121561246957612468612268565b5b600061247785828601612284565b925050602061248885828601612284565b9150509250929050565b60008115159050919050565b6124a781612492565b81146124b257600080fd5b50565b6000813590506124c48161249e565b92915050565b6000806000606084860312156124e3576124e2612268565b5b60006124f186828701612284565b935050602061250286828701612284565b9250506040612513868287016124b5565b9150509250925092565b600060208201905061253260008301846123f0565b92915050565b6000612543826122b9565b9050919050565b61255381612538565b811461255e57600080fd5b50565b6000813590506125708161254a565b92915050565b60008060006060848603121561258f5761258e612268565b5b600061259d86828701612284565b93505060206125ae86828701612561565b92505060406125bf868287016124b5565b9150509250925092565b6125d2816122b9565b82525050565b60006020820190506125ed60008301846125c9565b92915050565b6000604082019050612608600083018561223e565b612615602083018461223e565b9392505050565b60006020828403121561263257612631612268565b5b600061264084828501612561565b91505092915050565b61265281612492565b82525050565b600060208201905061266d6000830184612649565b92915050565b60006020828403121561268957612688612268565b5b6000612697848285016122e2565b91505092915050565b7f4e487b7100000000000000000000000000000000000000000000000000000000600052603260045260246000fd5b600082825260208201905092915050565b7f77697468647261773a206e6f7420676f6f640000000000000000000000000000600082015250565b60006127166012836126cf565b9150612721826126e0565b602082019050919050565b6000602082019050818103600083015261274581612709565b9050919050565b7f4f776e61626c653a2063616c6c6572206973206e6f7420746865206f776e6572600082015250565b60006127826020836126cf565b915061278d8261274c565b602082019050919050565b600060208201905081810360008301526127b181612775565b9050919050565b7f5265656e7472616e637947756172643a207265656e7472616e742063616c6c00600082015250565b60006127ee601f836126cf565b91506127f9826127b8565b602082019050919050565b6000602082019050818103600083015261281d816127e1565b9050919050565b7f776974686472617720504c465920627920756e7374616b696e67000000000000600082015250565b600061285a601a836126cf565b915061286582612824565b602082019050919050565b600060208201905081810360008301526128898161284d565b9050919050565b60006040820190506128a560008301856125c9565b6128b2602083018461223e565b9392505050565b6000819050919050565b60006128de6128d96128d4846128b9565b612337565b612234565b9050919050565b6128ee816128c3565b82525050565b6000606082019050612909600083018661223e565b61291660208301856128e5565b612923604083018461223e565b949350505050565b7f4e487b7100000000000000000000000000000000000000000000000000000000600052601160045260246000fd5b600061296582612234565b91507fffffffffffffffffffffffffffffffffffffffffffffffffffffffffffffffff8214156129985761299761292b565b5b600182019050919050565b7f6465706f73697420504c4659206279207374616b696e67000000000000000000600082015250565b60006129d96017836126cf565b91506129e4826129a3565b602082019050919050565b60006020820190508181036000830152612a08816129cc565b9050919050565b7f4f776e61626c653a206e6577206f776e657220697320746865207a65726f206160008201527f6464726573730000000000000000000000000000000000000000000000000000602082015250565b6000612a6b6026836126cf565b9150612a7682612a0f565b604082019050919050565b60006020820190508181036000830152612a9a81612a5e565b9050919050565b6000612aac82612234565b9150612ab783612234565b9250817fffffffffffffffffffffffffffffffffffffffffffffffffffffffffffffffff0483118215151615612af057612aef61292b565b5b828202905092915050565b7f4e487b7100000000000000000000000000000000000000000000000000000000600052601260045260246000fd5b6000612b3582612234565b9150612b4083612234565b925082612b5057612b4f612afb565b5b828204905092915050565b6000612b6682612234565b9150612b7183612234565b9250827fffffffffffffffffffffffffffffffffffffffffffffffffffffffffffffffff03821115612ba657612ba561292b565b5b828201905092915050565b6000612bbc82612234565b9150612bc783612234565b925082821015612bda57612bd961292b565b5b828203905092915050565b6000606082019050612bfa60008301866125c9565b612c0760208301856125c9565b612c14604083018461223e565b949350505050565b600081519050612c2b8161249e565b92915050565b600060208284031215612c4757612c46612268565b5b6000612c5584828501612c1c565b91505092915050565b7f5361666545524332303a204552433230206f7065726174696f6e20646964206e60008201527f6f74207375636365656400000000000000000000000000000000000000000000602082015250565b6000612cba602a836126cf565b9150612cc582612c5e565b604082019050919050565b60006020820190508181036000830152612ce981612cad565b9050919050565b7f416464726573733a20696e73756666696369656e742062616c616e636520666f60008201527f722063616c6c0000000000000000000000000000000000000000000000000000602082015250565b6000612d4c6026836126cf565b9150612d5782612cf0565b604082019050919050565b60006020820190508181036000830152612d7b81612d3f565b9050919050565b7f416464726573733a2063616c6c20746f206e6f6e2d636f6e7472616374000000600082015250565b6000612db8601d836126cf565b9150612dc382612d82565b602082019050919050565b60006020820190508181036000830152612de781612dab565b9050919050565b600081519050919050565b600081905092915050565b60005b83811015612e22578082015181840152602081019050612e07565b83811115612e31576000848401525b50505050565b6000612e4282612dee565b612e4c8185612df9565b9350612e5c818560208601612e04565b80840191505092915050565b6000612e748284612e37565b915081905092915050565b600081519050919050565b6000601f19601f8301169050919050565b6000612ea682612e7f565b612eb081856126cf565b9350612ec0818560208601612e04565b612ec981612e8a565b840191505092915050565b60006020820190508181036000830152612eee8184612e9b565b90509291505056fea26469706673582212205d83b57c41e678f547dd94041ebde40188cca499c2f7323ca05d7a217729571464736f6c634300080b0033",
  "linkReferences": {},
  "deployedLinkReferences": {}
}