{
  "_format": "hh-sol-artifact-1",
  "contractName": "PoolifyRewardManager",
  "sourceName": "src/contracts/protocol/PoolifyRewardManager.sol",
  "abi": [
    {
      "inputs": [
        {
          "internalType": "contract PLFYToken",
          "name": "_plfy",
          "type": "address"
        },
        {
          "internalType": "contract IcePLFY",
          "name": "_icePLFY",
          "type": "address"
        },
        {
          "internalType": "uint256",
          "name": "_poolifyPerBlock",
          "type": "uint256"
        },
        {
          "internalType": "uint256",
          "name": "_startBlock",
          "type": "uint256"
        },
        {
          "internalType": "address",
          "name": "_devaddr",
          "type": "address"
        }
      ],
      "stateMutability": "nonpayable",
      "type": "constructor"
    },
    {
      "anonymous": false,
      "inputs": [
        {
          "indexed": true,
          "internalType": "address",
          "name": "user",
          "type": "address"
        },
        {
          "indexed": true,
          "internalType": "uint256",
          "name": "pid",
          "type": "uint256"
        },
        {
          "indexed": false,
          "internalType": "uint256",
          "name": "amount",
          "type": "uint256"
        }
      ],
      "name": "Deposit",
      "type": "event"
    },
    {
      "anonymous": false,
      "inputs": [
        {
          "indexed": true,
          "internalType": "address",
          "name": "user",
          "type": "address"
        },
        {
          "indexed": true,
          "internalType": "uint256",
          "name": "pid",
          "type": "uint256"
        },
        {
          "indexed": false,
          "internalType": "uint256",
          "name": "amount",
          "type": "uint256"
        }
      ],
      "name": "EmergencyWithdraw",
      "type": "event"
    },
    {
      "anonymous": false,
      "inputs": [
        {
          "indexed": true,
          "internalType": "address",
          "name": "user",
          "type": "address"
        },
        {
          "indexed": true,
          "internalType": "uint256",
          "name": "pid",
          "type": "uint256"
        },
        {
          "indexed": false,
          "internalType": "uint256",
          "name": "amount",
          "type": "uint256"
        }
      ],
      "name": "Harvest",
      "type": "event"
    },
    {
      "anonymous": false,
      "inputs": [],
      "name": "LogInit",
      "type": "event"
    },
    {
      "anonymous": false,
      "inputs": [
        {
          "indexed": true,
          "internalType": "uint256",
          "name": "pid",
          "type": "uint256"
        },
        {
          "indexed": false,
          "internalType": "uint256",
          "name": "allocPoint",
          "type": "uint256"
        },
        {
          "indexed": true,
          "internalType": "contract IERC20",
          "name": "lpToken",
          "type": "address"
        }
      ],
      "name": "LogPoolAddition",
      "type": "event"
    },
    {
      "anonymous": false,
      "inputs": [
        {
          "indexed": true,
          "internalType": "uint256",
          "name": "pid",
          "type": "uint256"
        },
        {
          "indexed": false,
          "internalType": "uint256",
          "name": "lastRewardBlock",
          "type": "uint256"
        },
        {
          "indexed": false,
          "internalType": "uint256",
          "name": "lpSupply",
          "type": "uint256"
        },
        {
          "indexed": false,
          "internalType": "uint256",
          "name": "accPoolifyPerShare",
          "type": "uint256"
        }
      ],
      "name": "LogUpdatePool",
      "type": "event"
    },
    {
      "anonymous": false,
      "inputs": [
        {
          "indexed": true,
          "internalType": "address",
          "name": "previousOwner",
          "type": "address"
        },
        {
          "indexed": true,
          "internalType": "address",
          "name": "newOwner",
          "type": "address"
        }
      ],
      "name": "OwnershipTransferred",
      "type": "event"
    },
    {
      "anonymous": false,
      "inputs": [
        {
          "indexed": true,
          "internalType": "address",
          "name": "user",
          "type": "address"
        },
        {
          "indexed": true,
          "internalType": "uint256",
          "name": "pid",
          "type": "uint256"
        },
        {
          "indexed": false,
          "internalType": "uint256",
          "name": "amount",
          "type": "uint256"
        }
      ],
      "name": "Withdraw",
      "type": "event"
    },
    {
      "inputs": [],
      "name": "BONUS_MULTIPLIER",
      "outputs": [
        {
          "internalType": "uint256",
          "name": "",
          "type": "uint256"
        }
      ],
      "stateMutability": "view",
      "type": "function"
    },
    {
      "inputs": [],
      "name": "PLFY",
      "outputs": [
        {
          "internalType": "contract PLFYToken",
          "name": "",
          "type": "address"
        }
      ],
      "stateMutability": "view",
      "type": "function"
    },
    {
      "inputs": [
        {
          "internalType": "uint256",
          "name": "_allocPoint",
          "type": "uint256"
        },
        {
          "internalType": "contract IERC20",
          "name": "_stakeToken",
          "type": "address"
        },
        {
          "internalType": "bool",
          "name": "_withUpdate",
          "type": "bool"
        }
      ],
      "name": "addPool",
      "outputs": [],
      "stateMutability": "nonpayable",
      "type": "function"
    },
    {
      "inputs": [
        {
          "internalType": "uint256",
          "name": "_pid",
          "type": "uint256"
        },
        {
          "internalType": "uint256",
          "name": "_amount",
          "type": "uint256"
        }
      ],
      "name": "deposit",
      "outputs": [],
      "stateMutability": "nonpayable",
      "type": "function"
    },
    {
      "inputs": [],
      "name": "devaddr",
      "outputs": [
        {
          "internalType": "address",
          "name": "",
          "type": "address"
        }
      ],
      "stateMutability": "view",
      "type": "function"
    },
    {
      "inputs": [
        {
          "internalType": "uint256",
          "name": "_pid",
          "type": "uint256"
        }
      ],
      "name": "emergencyWithdraw",
      "outputs": [],
      "stateMutability": "nonpayable",
      "type": "function"
    },
    {
      "inputs": [
        {
          "internalType": "uint256",
          "name": "_amount",
          "type": "uint256"
        }
      ],
      "name": "enterStaking",
      "outputs": [],
      "stateMutability": "nonpayable",
      "type": "function"
    },
    {
      "inputs": [
        {
          "internalType": "uint256",
          "name": "_from",
          "type": "uint256"
        },
        {
          "internalType": "uint256",
          "name": "_to",
          "type": "uint256"
        }
      ],
      "name": "getMultiplier",
      "outputs": [
        {
          "internalType": "uint256",
          "name": "",
          "type": "uint256"
        }
      ],
      "stateMutability": "view",
      "type": "function"
    },
    {
      "inputs": [],
      "name": "icePLFY",
      "outputs": [
        {
          "internalType": "contract IcePLFY",
          "name": "",
          "type": "address"
        }
      ],
      "stateMutability": "view",
      "type": "function"
    },
    {
      "inputs": [
        {
          "internalType": "contract IERC20",
          "name": "_stakeToken",
          "type": "address"
        }
      ],
      "name": "isDuplicatedPool",
      "outputs": [
        {
          "internalType": "bool",
          "name": "",
          "type": "bool"
        }
      ],
      "stateMutability": "view",
      "type": "function"
    },
    {
      "inputs": [
        {
          "internalType": "uint256",
          "name": "_amount",
          "type": "uint256"
        }
      ],
      "name": "leaveStaking",
      "outputs": [],
      "stateMutability": "nonpayable",
      "type": "function"
    },
    {
      "inputs": [],
      "name": "massUpdatePools",
      "outputs": [],
      "stateMutability": "nonpayable",
      "type": "function"
    },
    {
      "inputs": [],
      "name": "owner",
      "outputs": [
        {
          "internalType": "address",
          "name": "",
          "type": "address"
        }
      ],
      "stateMutability": "view",
      "type": "function"
    },
    {
      "inputs": [
        {
          "internalType": "uint256",
          "name": "_pid",
          "type": "uint256"
        },
        {
          "internalType": "address",
          "name": "_user",
          "type": "address"
        }
      ],
      "name": "pendingPoolify",
      "outputs": [
        {
          "internalType": "uint256",
          "name": "",
          "type": "uint256"
        }
      ],
      "stateMutability": "view",
      "type": "function"
    },
    {
      "inputs": [
        {
          "internalType": "uint256",
          "name": "",
          "type": "uint256"
        }
      ],
      "name": "poolInfo",
      "outputs": [
        {
          "internalType": "contract IERC20",
          "name": "lpToken",
          "type": "address"
        },
        {
          "internalType": "uint256",
          "name": "allocPoint",
          "type": "uint256"
        },
        {
          "internalType": "uint256",
          "name": "lastRewardBlock",
          "type": "uint256"
        },
        {
          "internalType": "uint256",
          "name": "accPoolifyPerShare",
          "type": "uint256"
        },
        {
          "internalType": "uint256",
          "name": "lpSupply",
          "type": "uint256"
        }
      ],
      "stateMutability": "view",
      "type": "function"
    },
    {
      "inputs": [],
      "name": "poolLength",
      "outputs": [
        {
          "internalType": "uint256",
          "name": "",
          "type": "uint256"
        }
      ],
      "stateMutability": "view",
      "type": "function"
    },
    {
      "inputs": [],
      "name": "poolifyPerBlock",
      "outputs": [
        {
          "internalType": "uint256",
          "name": "",
          "type": "uint256"
        }
      ],
      "stateMutability": "view",
      "type": "function"
    },
    {
      "inputs": [],
      "name": "renounceOwnership",
      "outputs": [],
      "stateMutability": "nonpayable",
      "type": "function"
    },
    {
      "inputs": [
        {
          "internalType": "uint256",
          "name": "_pid",
          "type": "uint256"
        },
        {
          "internalType": "uint256",
          "name": "_allocPoint",
          "type": "uint256"
        },
        {
          "internalType": "bool",
          "name": "_withUpdate",
          "type": "bool"
        }
      ],
      "name": "setPool",
      "outputs": [],
      "stateMutability": "nonpayable",
      "type": "function"
    },
    {
      "inputs": [
        {
          "internalType": "uint256",
          "name": "_poolifyPerBlock",
          "type": "uint256"
        }
      ],
      "name": "setPoolifyPerBlock",
      "outputs": [],
      "stateMutability": "nonpayable",
      "type": "function"
    },
    {
      "inputs": [
        {
          "internalType": "uint256",
          "name": "",
          "type": "uint256"
        }
      ],
      "name": "stakeTokens",
      "outputs": [
        {
          "internalType": "contract IERC20",
          "name": "",
          "type": "address"
        }
      ],
      "stateMutability": "view",
      "type": "function"
    },
    {
      "inputs": [],
      "name": "startBlock",
      "outputs": [
        {
          "internalType": "uint256",
          "name": "",
          "type": "uint256"
        }
      ],
      "stateMutability": "view",
      "type": "function"
    },
    {
      "inputs": [],
      "name": "totalAllocPoint",
      "outputs": [
        {
          "internalType": "uint256",
          "name": "",
          "type": "uint256"
        }
      ],
      "stateMutability": "view",
      "type": "function"
    },
    {
      "inputs": [
        {
          "internalType": "address",
          "name": "newOwner",
          "type": "address"
        }
      ],
      "name": "transferOwnership",
      "outputs": [],
      "stateMutability": "nonpayable",
      "type": "function"
    },
    {
      "inputs": [
        {
          "internalType": "uint256",
          "name": "multiplierNumber",
          "type": "uint256"
        }
      ],
      "name": "updateMultiplier",
      "outputs": [],
      "stateMutability": "nonpayable",
      "type": "function"
    },
    {
      "inputs": [
        {
          "internalType": "uint256",
          "name": "_pid",
          "type": "uint256"
        }
      ],
      "name": "updatePool",
      "outputs": [],
      "stateMutability": "nonpayable",
      "type": "function"
    },
    {
      "inputs": [
        {
          "internalType": "uint256",
          "name": "",
          "type": "uint256"
        },
        {
          "internalType": "address",
          "name": "",
          "type": "address"
        }
      ],
      "name": "userInfo",
      "outputs": [
        {
          "internalType": "uint256",
          "name": "amount",
          "type": "uint256"
        },
        {
          "internalType": "uint256",
          "name": "rewardDebt",
          "type": "uint256"
        }
      ],
      "stateMutability": "view",
      "type": "function"
    },
    {
      "inputs": [
        {
          "internalType": "uint256",
          "name": "_pid",
          "type": "uint256"
        },
        {
          "internalType": "uint256",
          "name": "_amount",
          "type": "uint256"
        }
      ],
      "name": "withdraw",
      "outputs": [],
      "stateMutability": "nonpayable",
      "type": "function"
    }
  ],
  "bytecode": "0x60c0604052600160045560006009553480156200001b57600080fd5b50604051620037db380380620037db833981810160405281019062000041919062000470565b62000061620000556200027560201b60201c565b6200027d60201b60201c565b600180819055508473ffffffffffffffffffffffffffffffffffffffff1660808173ffffffffffffffffffffffffffffffffffffffff16815250508373ffffffffffffffffffffffffffffffffffffffff1660a08173ffffffffffffffffffffffffffffffffffffffff1681525050826003819055508160078190555080600260006101000a81548173ffffffffffffffffffffffffffffffffffffffff021916908373ffffffffffffffffffffffffffffffffffffffff16021790555060056040518060a001604052808773ffffffffffffffffffffffffffffffffffffffff1681526020016103e881526020016007548152602001600081526020016000815250908060018154018082558091505060019003906000526020600020906005020160009091909190915060008201518160000160006101000a81548173ffffffffffffffffffffffffffffffffffffffff021916908373ffffffffffffffffffffffffffffffffffffffff1602179055506020820151816001015560408201518160020155606082015181600301556080820151816004015550506006859080600181540180825580915050600190039060005260206000200160009091909190916101000a81548173ffffffffffffffffffffffffffffffffffffffff021916908373ffffffffffffffffffffffffffffffffffffffff1602179055506103e86009819055505050505050620004f8565b600033905090565b60008060009054906101000a900473ffffffffffffffffffffffffffffffffffffffff169050816000806101000a81548173ffffffffffffffffffffffffffffffffffffffff021916908373ffffffffffffffffffffffffffffffffffffffff1602179055508173ffffffffffffffffffffffffffffffffffffffff168173ffffffffffffffffffffffffffffffffffffffff167f8be0079c531659141344cd1fd0a4f28419497f9722a3daafe3b4186f6b6457e060405160405180910390a35050565b600080fd5b600073ffffffffffffffffffffffffffffffffffffffff82169050919050565b6000620003738262000346565b9050919050565b6000620003878262000366565b9050919050565b62000399816200037a565b8114620003a557600080fd5b50565b600081519050620003b9816200038e565b92915050565b6000620003cc8262000366565b9050919050565b620003de81620003bf565b8114620003ea57600080fd5b50565b600081519050620003fe81620003d3565b92915050565b6000819050919050565b620004198162000404565b81146200042557600080fd5b50565b60008151905062000439816200040e565b92915050565b6200044a8162000366565b81146200045657600080fd5b50565b6000815190506200046a816200043f565b92915050565b600080600080600060a086880312156200048f576200048e62000341565b5b60006200049f88828901620003a8565b9550506020620004b288828901620003ed565b9450506040620004c58882890162000428565b9350506060620004d88882890162000428565b9250506080620004eb8882890162000459565b9150509295509295909350565b60805160a05161329a620005416000396000818161098a01528181610d0d0152818161139001528181611eba0152611f360152600081816107820152611354015261329a6000f3fe608060405234801561001057600080fd5b50600436106101c45760003560e01c8063630b5ba1116100f957806393f1a40b11610097578063e2bbb15811610071578063e2bbb158146104d0578063ef4e18fe146104ec578063f2fde38b1461050a578063f601fd8814610526576101c4565b806393f1a40b14610451578063b03df69d14610482578063d49e77cd146104b2576101c4565b80637abceffd116100d35780637abceffd146103c95780638aa28550146103e55780638da5cb5b146104035780638dbb1e3a14610421576101c4565b8063630b5ba114610385578063715018a61461038f5780637547c7a314610399576101c4565b806341441d3b1161016657806348cd4cb11161014057806348cd4cb11461031357806351eb05a6146103315780635312ea8e1461034d5780635ffe614614610369576101c4565b806341441d3b146102bf578063441a3e70146102db57806346ca6bea146102f7576101c4565b80631058d281116101a25780631058d281146102355780631526fe271461025157806317caf6f1146102855780631a3e8775146102a3576101c4565b8063081e3eda146101c957806308571c90146101e75780630d5998a214610217575b600080fd5b6101d1610544565b6040516101de919061253d565b60405180910390f35b61020160048036038101906101fc91906125e7565b610551565b60405161020e919061253d565b60405180910390f35b61021f610780565b60405161022c9190612686565b60405180910390f35b61024f600480360381019061024a91906126a1565b6107a4565b005b61026b600480360381019061026691906126a1565b610a6b565b60405161027c9594939291906126ef565b60405180910390f35b61028d610ad1565b60405161029a919061253d565b60405180910390f35b6102bd60048036038101906102b891906126a1565b610ad7565b005b6102d960048036038101906102d491906126a1565b610b5d565b005b6102f560048036038101906102f09190612742565b610ded565b005b610311600480360381019061030c91906127ba565b6110be565b005b61031b611205565b604051610328919061253d565b60405180910390f35b61034b600480360381019061034691906126a1565b61120b565b005b610367600480360381019061036291906126a1565b6114a0565b005b610383600480360381019061037e91906126a1565b61162e565b005b61038d6116b4565b005b6103976116e7565b005b6103b360048036038101906103ae91906126a1565b61176f565b6040516103c0919061280d565b60405180910390f35b6103e360048036038101906103de9190612866565b6117ae565b005b6103ed6119b7565b6040516103fa919061253d565b60405180910390f35b61040b6119bd565b60405161041891906128c8565b60405180910390f35b61043b60048036038101906104369190612742565b6119e6565b604051610448919061253d565b60405180910390f35b61046b600480360381019061046691906125e7565b611a17565b6040516104799291906128e3565b60405180910390f35b61049c6004803603810190610497919061290c565b611a48565b6040516104a99190612948565b60405180910390f35b6104ba611afa565b6040516104c791906128c8565b60405180910390f35b6104ea60048036038101906104e59190612742565b611b20565b005b6104f4611dba565b604051610501919061253d565b60405180910390f35b610524600480360381019061051f9190612963565b611dc0565b005b61052e611eb8565b60405161053b91906129b1565b60405180910390f35b6000600580549050905090565b60008060058481548110610568576105676129cc565b5b9060005260206000209060050201905060006008600086815260200190815260200160002060008573ffffffffffffffffffffffffffffffffffffffff1673ffffffffffffffffffffffffffffffffffffffff168152602001908152602001600020905060008260030154905060008360000160009054906101000a900473ffffffffffffffffffffffffffffffffffffffff1673ffffffffffffffffffffffffffffffffffffffff166370a08231306040518263ffffffff1660e01b815260040161063491906128c8565b602060405180830381865afa158015610651573d6000803e3d6000fd5b505050506040513d601f19601f820116820180604052508101906106759190612a10565b905083600201544311801561068b575060008114155b156107295760006106a08560020154436119e6565b905060006106e36009546106d588600101546106c760035487611edc90919063ffffffff16565b611edc90919063ffffffff16565b611ef290919063ffffffff16565b905061072461071584610707670de0b6b3a764000085611edc90919063ffffffff16565b611ef290919063ffffffff16565b85611f0890919063ffffffff16565b935050505b6107748360010154610766670de0b6b3a764000061075888600301548860000154611edc90919063ffffffff16565b611ef290919063ffffffff16565b611f1e90919063ffffffff16565b94505050505092915050565b7f000000000000000000000000000000000000000000000000000000000000000081565b600060056000815481106107bb576107ba6129cc565b5b9060005260206000209060050201905060006008600080815260200190815260200160002060003373ffffffffffffffffffffffffffffffffffffffff1673ffffffffffffffffffffffffffffffffffffffff16815260200190815260200160002090508281600001541015610866576040517f08c379a000000000000000000000000000000000000000000000000000000000815260040161085d90612a9a565b60405180910390fd5b610870600061120b565b60006108bd82600101546108af670de0b6b3a76400006108a187600301548760000154611edc90919063ffffffff16565b611ef290919063ffffffff16565b611f1e90919063ffffffff16565b905060008111156108d3576108d23382611f34565b5b600084111561094b576108f3848360000154611f1e90919063ffffffff16565b826000018190555061094a33858560000160009054906101000a900473ffffffffffffffffffffffffffffffffffffffff1673ffffffffffffffffffffffffffffffffffffffff16611fc59092919063ffffffff16565b5b610980670de0b6b3a764000061097285600301548560000154611edc90919063ffffffff16565b611ef290919063ffffffff16565b82600101819055507f000000000000000000000000000000000000000000000000000000000000000073ffffffffffffffffffffffffffffffffffffffff16639dc29fac33866040518363ffffffff1660e01b81526004016109e3929190612aba565b600060405180830381600087803b1580156109fd57600080fd5b505af1158015610a11573d6000803e3d6000fd5b5050505060003373ffffffffffffffffffffffffffffffffffffffff167ff279e6a1f5e320cca91135676d9cb6e44ca8a08c0b88342bcdb1144f6511b56886604051610a5d919061253d565b60405180910390a350505050565b60058181548110610a7b57600080fd5b90600052602060002090600502016000915090508060000160009054906101000a900473ffffffffffffffffffffffffffffffffffffffff16908060010154908060020154908060030154908060040154905085565b60095481565b610adf61204b565b73ffffffffffffffffffffffffffffffffffffffff16610afd6119bd565b73ffffffffffffffffffffffffffffffffffffffff1614610b53576040517f08c379a0000000000000000000000000000000000000000000000000000000008152600401610b4a90612b2f565b60405180910390fd5b8060038190555050565b60006005600081548110610b7457610b736129cc565b5b9060005260206000209060050201905060006008600080815260200190815260200160002060003373ffffffffffffffffffffffffffffffffffffffff1673ffffffffffffffffffffffffffffffffffffffff1681526020019081526020016000209050610be2600061120b565b600081600001541115610c54576000610c3c8260010154610c2e670de0b6b3a7640000610c2087600301548760000154611edc90919063ffffffff16565b611ef290919063ffffffff16565b611f1e90919063ffffffff16565b90506000811115610c5257610c513382611f34565b5b505b6000831115610cce57610cae3330858560000160009054906101000a900473ffffffffffffffffffffffffffffffffffffffff1673ffffffffffffffffffffffffffffffffffffffff16612053909392919063ffffffff16565b610cc5838260000154611f0890919063ffffffff16565b81600001819055505b610d03670de0b6b3a7640000610cf584600301548460000154611edc90919063ffffffff16565b611ef290919063ffffffff16565b81600101819055507f000000000000000000000000000000000000000000000000000000000000000073ffffffffffffffffffffffffffffffffffffffff166340c10f1933856040518363ffffffff1660e01b8152600401610d66929190612aba565b600060405180830381600087803b158015610d8057600080fd5b505af1158015610d94573d6000803e3d6000fd5b5050505060003373ffffffffffffffffffffffffffffffffffffffff167f90890809c654f11d6e72a28fa60149770a0d11ec6c92319d6ceb2bb0a4ea1a1585604051610de0919061253d565b60405180910390a3505050565b60026001541415610e33576040517f08c379a0000000000000000000000000000000000000000000000000000000008152600401610e2a90612b9b565b60405180910390fd5b60026001819055506000821415610e7f576040517f08c379a0000000000000000000000000000000000000000000000000000000008152600401610e7690612c07565b60405180910390fd5b600060058381548110610e9557610e946129cc565b5b9060005260206000209060050201905060006008600085815260200190815260200160002060003373ffffffffffffffffffffffffffffffffffffffff1673ffffffffffffffffffffffffffffffffffffffff16815260200190815260200160002090508281600001541015610f40576040517f08c379a0000000000000000000000000000000000000000000000000000000008152600401610f3790612a9a565b60405180910390fd5b610f498461120b565b6000610f968260010154610f88670de0b6b3a7640000610f7a87600301548760000154611edc90919063ffffffff16565b611ef290919063ffffffff16565b611f1e90919063ffffffff16565b90506000811115610fac57610fab3382611f34565b5b600084111561102457610fcc848360000154611f1e90919063ffffffff16565b826000018190555061102333858560000160009054906101000a900473ffffffffffffffffffffffffffffffffffffffff1673ffffffffffffffffffffffffffffffffffffffff16611fc59092919063ffffffff16565b5b611059670de0b6b3a764000061104b85600301548560000154611edc90919063ffffffff16565b611ef290919063ffffffff16565b8260010181905550843373ffffffffffffffffffffffffffffffffffffffff167ff279e6a1f5e320cca91135676d9cb6e44ca8a08c0b88342bcdb1144f6511b568866040516110a8919061253d565b60405180910390a3505050600180819055505050565b6110c661204b565b73ffffffffffffffffffffffffffffffffffffffff166110e46119bd565b73ffffffffffffffffffffffffffffffffffffffff161461113a576040517f08c379a000000000000000000000000000000000000000000000000000000000815260040161113190612b2f565b60405180910390fd5b8015611149576111486116b4565b5b6111958261118760058681548110611164576111636129cc565b5b906000526020600020906005020160010154600954611f1e90919063ffffffff16565b611f0890919063ffffffff16565b6009819055506000600584815481106111b1576111b06129cc565b5b906000526020600020906005020160010154905082600585815481106111da576111d96129cc565b5b9060005260206000209060050201600101819055508281146111ff576111fe6120dc565b5b50505050565b60075481565b600060058281548110611221576112206129cc565b5b9060005260206000209060050201905080600201544311611242575061149d565b60008160000160009054906101000a900473ffffffffffffffffffffffffffffffffffffffff1673ffffffffffffffffffffffffffffffffffffffff166370a08231306040518263ffffffff1660e01b81526004016112a191906128c8565b602060405180830381865afa1580156112be573d6000803e3d6000fd5b505050506040513d601f19601f820116820180604052508101906112e29190612a10565b905060008114156112fd57438260020181905550505061149d565b600061130d8360020154436119e6565b90506000611350600954611342866001015461133460035487611edc90919063ffffffff16565b611edc90919063ffffffff16565b611ef290919063ffffffff16565b90507f000000000000000000000000000000000000000000000000000000000000000073ffffffffffffffffffffffffffffffffffffffff166340c10f197f0000000000000000000000000000000000000000000000000000000000000000836040518363ffffffff1660e01b81526004016113cd929190612aba565b600060405180830381600087803b1580156113e757600080fd5b505af11580156113fb573d6000803e3d6000fd5b5050505061144261142f84611421670de0b6b3a764000085611edc90919063ffffffff16565b611ef290919063ffffffff16565b8560030154611f0890919063ffffffff16565b8460030181905550438460020181905550847fcb7325664a4a3b7c7223eefc492a97ca4fdf94d46884621e5a8fae5a04b2b9d285600201546000876003015460405161149093929190612c62565b60405180910390a2505050505b50565b600260015414156114e6576040517f08c379a00000000000000000000000000000000000000000000000000000000081526004016114dd90612b9b565b60405180910390fd5b6002600181905550600060058281548110611504576115036129cc565b5b9060005260206000209060050201905060006008600084815260200190815260200160002060003373ffffffffffffffffffffffffffffffffffffffff1673ffffffffffffffffffffffffffffffffffffffff16815260200190815260200160002090506115bb3382600001548460000160009054906101000a900473ffffffffffffffffffffffffffffffffffffffff1673ffffffffffffffffffffffffffffffffffffffff16611fc59092919063ffffffff16565b6000816000018190555060008160010181905550823373ffffffffffffffffffffffffffffffffffffffff167fbb757047c2b5f3974fe26b7c10f732e7bce710b0952a71082702781e62ae0595836000015460405161161a919061253d565b60405180910390a350506001808190555050565b61163661204b565b73ffffffffffffffffffffffffffffffffffffffff166116546119bd565b73ffffffffffffffffffffffffffffffffffffffff16146116aa576040517f08c379a00000000000000000000000000000000000000000000000000000000081526004016116a190612b2f565b60405180910390fd5b8060048190555050565b6000600580549050905060005b818110156116e3576116d28161120b565b806116dc90612cc8565b90506116c1565b5050565b6116ef61204b565b73ffffffffffffffffffffffffffffffffffffffff1661170d6119bd565b73ffffffffffffffffffffffffffffffffffffffff1614611763576040517f08c379a000000000000000000000000000000000000000000000000000000000815260040161175a90612b2f565b60405180910390fd5b61176d60006121e3565b565b6006818154811061177f57600080fd5b906000526020600020016000915054906101000a900473ffffffffffffffffffffffffffffffffffffffff1681565b6117b661204b565b73ffffffffffffffffffffffffffffffffffffffff166117d46119bd565b73ffffffffffffffffffffffffffffffffffffffff161461182a576040517f08c379a000000000000000000000000000000000000000000000000000000000815260040161182190612b2f565b60405180910390fd5b8015611839576118386116b4565b5b6000600754431161184c5760075461184e565b435b905061186584600954611f0890919063ffffffff16565b60098190555060056040518060a001604052808573ffffffffffffffffffffffffffffffffffffffff168152602001868152602001838152602001600081526020016000815250908060018154018082558091505060019003906000526020600020906005020160009091909190915060008201518160000160006101000a81548173ffffffffffffffffffffffffffffffffffffffff021916908373ffffffffffffffffffffffffffffffffffffffff1602179055506020820151816001015560408201518160020155606082015181600301556080820151816004015550506006839080600181540180825580915050600190039060005260206000200160009091909190916101000a81548173ffffffffffffffffffffffffffffffffffffffff021916908373ffffffffffffffffffffffffffffffffffffffff1602179055506119b16120dc565b50505050565b60045481565b60008060009054906101000a900473ffffffffffffffffffffffffffffffffffffffff16905090565b6000611a0f600454611a018585611f1e90919063ffffffff16565b611edc90919063ffffffff16565b905092915050565b6008602052816000526040600020602052806000526040600020600091509150508060000154908060010154905082565b600080600680549050905060005b81811015611aee578373ffffffffffffffffffffffffffffffffffffffff1660068281548110611a8957611a886129cc565b5b9060005260206000200160009054906101000a900473ffffffffffffffffffffffffffffffffffffffff1673ffffffffffffffffffffffffffffffffffffffff161415611adb57600192505050611af5565b8080611ae690612cc8565b915050611a56565b5060009150505b919050565b600260009054906101000a900473ffffffffffffffffffffffffffffffffffffffff1681565b60026001541415611b66576040517f08c379a0000000000000000000000000000000000000000000000000000000008152600401611b5d90612b9b565b60405180910390fd5b60026001819055506000821415611bb2576040517f08c379a0000000000000000000000000000000000000000000000000000000008152600401611ba990612d5d565b60405180910390fd5b600060058381548110611bc857611bc76129cc565b5b9060005260206000209060050201905060006008600085815260200190815260200160002060003373ffffffffffffffffffffffffffffffffffffffff1673ffffffffffffffffffffffffffffffffffffffff1681526020019081526020016000209050611c358461120b565b600081600001541115611ca7576000611c8f8260010154611c81670de0b6b3a7640000611c7387600301548760000154611edc90919063ffffffff16565b611ef290919063ffffffff16565b611f1e90919063ffffffff16565b90506000811115611ca557611ca43382611f34565b5b505b6000831115611d2157611d013330858560000160009054906101000a900473ffffffffffffffffffffffffffffffffffffffff1673ffffffffffffffffffffffffffffffffffffffff16612053909392919063ffffffff16565b611d18838260000154611f0890919063ffffffff16565b81600001819055505b611d56670de0b6b3a7640000611d4884600301548460000154611edc90919063ffffffff16565b611ef290919063ffffffff16565b8160010181905550833373ffffffffffffffffffffffffffffffffffffffff167f90890809c654f11d6e72a28fa60149770a0d11ec6c92319d6ceb2bb0a4ea1a1585604051611da5919061253d565b60405180910390a35050600180819055505050565b60035481565b611dc861204b565b73ffffffffffffffffffffffffffffffffffffffff16611de66119bd565b73ffffffffffffffffffffffffffffffffffffffff1614611e3c576040517f08c379a0000000000000000000000000000000000000000000000000000000008152600401611e3390612b2f565b60405180910390fd5b600073ffffffffffffffffffffffffffffffffffffffff168173ffffffffffffffffffffffffffffffffffffffff161415611eac576040517f08c379a0000000000000000000000000000000000000000000000000000000008152600401611ea390612def565b60405180910390fd5b611eb5816121e3565b50565b7f000000000000000000000000000000000000000000000000000000000000000081565b60008183611eea9190612e0f565b905092915050565b60008183611f009190612e98565b905092915050565b60008183611f169190612ec9565b905092915050565b60008183611f2c9190612f1f565b905092915050565b7f000000000000000000000000000000000000000000000000000000000000000073ffffffffffffffffffffffffffffffffffffffff1663a6a0e58183836040518363ffffffff1660e01b8152600401611f8f929190612aba565b600060405180830381600087803b158015611fa957600080fd5b505af1158015611fbd573d6000803e3d6000fd5b505050505050565b6120468363a9059cbb60e01b8484604051602401611fe4929190612aba565b604051602081830303815290604052907bffffffffffffffffffffffffffffffffffffffffffffffffffffffff19166020820180517bffffffffffffffffffffffffffffffffffffffffffffffffffffffff83818316178352505050506122a7565b505050565b600033905090565b6120d6846323b872dd60e01b85858560405160240161207493929190612f53565b604051602081830303815290604052907bffffffffffffffffffffffffffffffffffffffffffffffffffffffff19166020820180517bffffffffffffffffffffffffffffffffffffffffffffffffffffffff83818316178352505050506122a7565b50505050565b60006005805490509050600080600190505b828110156121415761212e6005828154811061210d5761210c6129cc565b5b90600052602060002090600502016001015483611f0890919063ffffffff16565b91508061213a90612cc8565b90506120ee565b50600081146121df5761215e600382611ef290919063ffffffff16565b90506121ad8161219f600560008154811061217c5761217b6129cc565b5b906000526020600020906005020160010154600954611f1e90919063ffffffff16565b611f0890919063ffffffff16565b6009819055508060056000815481106121c9576121c86129cc565b5b9060005260206000209060050201600101819055505b5050565b60008060009054906101000a900473ffffffffffffffffffffffffffffffffffffffff169050816000806101000a81548173ffffffffffffffffffffffffffffffffffffffff021916908373ffffffffffffffffffffffffffffffffffffffff1602179055508173ffffffffffffffffffffffffffffffffffffffff168173ffffffffffffffffffffffffffffffffffffffff167f8be0079c531659141344cd1fd0a4f28419497f9722a3daafe3b4186f6b6457e060405160405180910390a35050565b6000612309826040518060400160405280602081526020017f5361666545524332303a206c6f772d6c6576656c2063616c6c206661696c65648152508573ffffffffffffffffffffffffffffffffffffffff1661236e9092919063ffffffff16565b905060008151111561236957808060200190518101906123299190612f9f565b612368576040517f08c379a000000000000000000000000000000000000000000000000000000000815260040161235f9061303e565b60405180910390fd5b5b505050565b606061237d8484600085612386565b90509392505050565b6060824710156123cb576040517f08c379a00000000000000000000000000000000000000000000000000000000081526004016123c2906130d0565b60405180910390fd5b6123d48561249a565b612413576040517f08c379a000000000000000000000000000000000000000000000000000000000815260040161240a9061313c565b60405180910390fd5b6000808673ffffffffffffffffffffffffffffffffffffffff16858760405161243c91906131d6565b60006040518083038185875af1925050503d8060008114612479576040519150601f19603f3d011682016040523d82523d6000602084013e61247e565b606091505b509150915061248e8282866124bd565b92505050949350505050565b6000808273ffffffffffffffffffffffffffffffffffffffff163b119050919050565b606083156124cd5782905061251d565b6000835111156124e05782518084602001fd5b816040517f08c379a00000000000000000000000000000000000000000000000000000000081526004016125149190613242565b60405180910390fd5b9392505050565b6000819050919050565b61253781612524565b82525050565b6000602082019050612552600083018461252e565b92915050565b600080fd5b61256681612524565b811461257157600080fd5b50565b6000813590506125838161255d565b92915050565b600073ffffffffffffffffffffffffffffffffffffffff82169050919050565b60006125b482612589565b9050919050565b6125c4816125a9565b81146125cf57600080fd5b50565b6000813590506125e1816125bb565b92915050565b600080604083850312156125fe576125fd612558565b5b600061260c85828601612574565b925050602061261d858286016125d2565b9150509250929050565b6000819050919050565b600061264c61264761264284612589565b612627565b612589565b9050919050565b600061265e82612631565b9050919050565b600061267082612653565b9050919050565b61268081612665565b82525050565b600060208201905061269b6000830184612677565b92915050565b6000602082840312156126b7576126b6612558565b5b60006126c584828501612574565b91505092915050565b60006126d982612653565b9050919050565b6126e9816126ce565b82525050565b600060a08201905061270460008301886126e0565b612711602083018761252e565b61271e604083018661252e565b61272b606083018561252e565b612738608083018461252e565b9695505050505050565b6000806040838503121561275957612758612558565b5b600061276785828601612574565b925050602061277885828601612574565b9150509250929050565b60008115159050919050565b61279781612782565b81146127a257600080fd5b50565b6000813590506127b48161278e565b92915050565b6000806000606084860312156127d3576127d2612558565b5b60006127e186828701612574565b93505060206127f286828701612574565b9250506040612803868287016127a5565b9150509250925092565b600060208201905061282260008301846126e0565b92915050565b6000612833826125a9565b9050919050565b61284381612828565b811461284e57600080fd5b50565b6000813590506128608161283a565b92915050565b60008060006060848603121561287f5761287e612558565b5b600061288d86828701612574565b935050602061289e86828701612851565b92505060406128af868287016127a5565b9150509250925092565b6128c2816125a9565b82525050565b60006020820190506128dd60008301846128b9565b92915050565b60006040820190506128f8600083018561252e565b612905602083018461252e565b9392505050565b60006020828403121561292257612921612558565b5b600061293084828501612851565b91505092915050565b61294281612782565b82525050565b600060208201905061295d6000830184612939565b92915050565b60006020828403121561297957612978612558565b5b6000612987848285016125d2565b91505092915050565b600061299b82612653565b9050919050565b6129ab81612990565b82525050565b60006020820190506129c660008301846129a2565b92915050565b7f4e487b7100000000000000000000000000000000000000000000000000000000600052603260045260246000fd5b600081519050612a0a8161255d565b92915050565b600060208284031215612a2657612a25612558565b5b6000612a34848285016129fb565b91505092915050565b600082825260208201905092915050565b7f77697468647261773a206e6f7420676f6f640000000000000000000000000000600082015250565b6000612a84601283612a3d565b9150612a8f82612a4e565b602082019050919050565b60006020820190508181036000830152612ab381612a77565b9050919050565b6000604082019050612acf60008301856128b9565b612adc602083018461252e565b9392505050565b7f4f776e61626c653a2063616c6c6572206973206e6f7420746865206f776e6572600082015250565b6000612b19602083612a3d565b9150612b2482612ae3565b602082019050919050565b60006020820190508181036000830152612b4881612b0c565b9050919050565b7f5265656e7472616e637947756172643a207265656e7472616e742063616c6c00600082015250565b6000612b85601f83612a3d565b9150612b9082612b4f565b602082019050919050565b60006020820190508181036000830152612bb481612b78565b9050919050565b7f776974686472617720504c465920627920756e7374616b696e67000000000000600082015250565b6000612bf1601a83612a3d565b9150612bfc82612bbb565b602082019050919050565b60006020820190508181036000830152612c2081612be4565b9050919050565b6000819050919050565b6000612c4c612c47612c4284612c27565b612627565b612524565b9050919050565b612c5c81612c31565b82525050565b6000606082019050612c77600083018661252e565b612c846020830185612c53565b612c91604083018461252e565b949350505050565b7f4e487b7100000000000000000000000000000000000000000000000000000000600052601160045260246000fd5b6000612cd382612524565b91507fffffffffffffffffffffffffffffffffffffffffffffffffffffffffffffffff821415612d0657612d05612c99565b5b600182019050919050565b7f6465706f73697420504c4659206279207374616b696e67000000000000000000600082015250565b6000612d47601783612a3d565b9150612d5282612d11565b602082019050919050565b60006020820190508181036000830152612d7681612d3a565b9050919050565b7f4f776e61626c653a206e6577206f776e657220697320746865207a65726f206160008201527f6464726573730000000000000000000000000000000000000000000000000000602082015250565b6000612dd9602683612a3d565b9150612de482612d7d565b604082019050919050565b60006020820190508181036000830152612e0881612dcc565b9050919050565b6000612e1a82612524565b9150612e2583612524565b9250817fffffffffffffffffffffffffffffffffffffffffffffffffffffffffffffffff0483118215151615612e5e57612e5d612c99565b5b828202905092915050565b7f4e487b7100000000000000000000000000000000000000000000000000000000600052601260045260246000fd5b6000612ea382612524565b9150612eae83612524565b925082612ebe57612ebd612e69565b5b828204905092915050565b6000612ed482612524565b9150612edf83612524565b9250827fffffffffffffffffffffffffffffffffffffffffffffffffffffffffffffffff03821115612f1457612f13612c99565b5b828201905092915050565b6000612f2a82612524565b9150612f3583612524565b925082821015612f4857612f47612c99565b5b828203905092915050565b6000606082019050612f6860008301866128b9565b612f7560208301856128b9565b612f82604083018461252e565b949350505050565b600081519050612f998161278e565b92915050565b600060208284031215612fb557612fb4612558565b5b6000612fc384828501612f8a565b91505092915050565b7f5361666545524332303a204552433230206f7065726174696f6e20646964206e60008201527f6f74207375636365656400000000000000000000000000000000000000000000602082015250565b6000613028602a83612a3d565b915061303382612fcc565b604082019050919050565b600060208201905081810360008301526130578161301b565b9050919050565b7f416464726573733a20696e73756666696369656e742062616c616e636520666f60008201527f722063616c6c0000000000000000000000000000000000000000000000000000602082015250565b60006130ba602683612a3d565b91506130c58261305e565b604082019050919050565b600060208201905081810360008301526130e9816130ad565b9050919050565b7f416464726573733a2063616c6c20746f206e6f6e2d636f6e7472616374000000600082015250565b6000613126601d83612a3d565b9150613131826130f0565b602082019050919050565b6000602082019050818103600083015261315581613119565b9050919050565b600081519050919050565b600081905092915050565b60005b83811015613190578082015181840152602081019050613175565b8381111561319f576000848401525b50505050565b60006131b08261315c565b6131ba8185613167565b93506131ca818560208601613172565b80840191505092915050565b60006131e282846131a5565b915081905092915050565b600081519050919050565b6000601f19601f8301169050919050565b6000613214826131ed565b61321e8185612a3d565b935061322e818560208601613172565b613237816131f8565b840191505092915050565b6000602082019050818103600083015261325c8184613209565b90509291505056fea264697066735822122035f987ff0129e63fb2f913db3b946578c41f393d21f3651e571362f7545a451764736f6c634300080b0033",
  "linkReferences": {},
  "deployedLinkReferences": {}
}