{
  "_format": "hh-sol-artifact-1",
  "contractName": "PoolifyRewardManager",
  "sourceName": "src/contracts/protocol/PoolifyRewardManager.sol",
  "abi": [
    {
      "inputs": [
        {
          "internalType": "contract PLFYToken",
          "name": "_plfy",
          "type": "address"
        },
        {
          "internalType": "uint256",
          "name": "_poolifyPerBlock",
          "type": "uint256"
        },
        {
          "internalType": "uint256",
          "name": "_startBlock",
          "type": "uint256"
        },
        {
          "internalType": "address",
          "name": "_devaddr",
          "type": "address"
        }
      ],
      "stateMutability": "nonpayable",
      "type": "constructor"
    },
    {
      "anonymous": false,
      "inputs": [
        {
          "indexed": true,
          "internalType": "address",
          "name": "user",
          "type": "address"
        },
        {
          "indexed": true,
          "internalType": "uint256",
          "name": "pid",
          "type": "uint256"
        },
        {
          "indexed": false,
          "internalType": "uint256",
          "name": "amount",
          "type": "uint256"
        }
      ],
      "name": "Deposit",
      "type": "event"
    },
    {
      "anonymous": false,
      "inputs": [
        {
          "indexed": true,
          "internalType": "address",
          "name": "user",
          "type": "address"
        },
        {
          "indexed": true,
          "internalType": "uint256",
          "name": "pid",
          "type": "uint256"
        },
        {
          "indexed": false,
          "internalType": "uint256",
          "name": "amount",
          "type": "uint256"
        }
      ],
      "name": "EmergencyWithdraw",
      "type": "event"
    },
    {
      "anonymous": false,
      "inputs": [
        {
          "indexed": true,
          "internalType": "address",
          "name": "user",
          "type": "address"
        },
        {
          "indexed": true,
          "internalType": "uint256",
          "name": "pid",
          "type": "uint256"
        },
        {
          "indexed": false,
          "internalType": "uint256",
          "name": "amount",
          "type": "uint256"
        }
      ],
      "name": "Harvest",
      "type": "event"
    },
    {
      "anonymous": false,
      "inputs": [],
      "name": "LogInit",
      "type": "event"
    },
    {
      "anonymous": false,
      "inputs": [
        {
          "indexed": true,
          "internalType": "uint256",
          "name": "pid",
          "type": "uint256"
        },
        {
          "indexed": false,
          "internalType": "uint256",
          "name": "allocPoint",
          "type": "uint256"
        },
        {
          "indexed": true,
          "internalType": "contract IERC20",
          "name": "lpToken",
          "type": "address"
        }
      ],
      "name": "LogPoolAddition",
      "type": "event"
    },
    {
      "anonymous": false,
      "inputs": [
        {
          "indexed": true,
          "internalType": "uint256",
          "name": "pid",
          "type": "uint256"
        },
        {
          "indexed": false,
          "internalType": "uint256",
          "name": "lastRewardBlock",
          "type": "uint256"
        },
        {
          "indexed": false,
          "internalType": "uint256",
          "name": "lpSupply",
          "type": "uint256"
        },
        {
          "indexed": false,
          "internalType": "uint256",
          "name": "accPoolifyPerShare",
          "type": "uint256"
        }
      ],
      "name": "LogUpdatePool",
      "type": "event"
    },
    {
      "anonymous": false,
      "inputs": [
        {
          "indexed": true,
          "internalType": "address",
          "name": "previousOwner",
          "type": "address"
        },
        {
          "indexed": true,
          "internalType": "address",
          "name": "newOwner",
          "type": "address"
        }
      ],
      "name": "OwnershipTransferred",
      "type": "event"
    },
    {
      "anonymous": false,
      "inputs": [
        {
          "indexed": true,
          "internalType": "address",
          "name": "user",
          "type": "address"
        },
        {
          "indexed": true,
          "internalType": "uint256",
          "name": "pid",
          "type": "uint256"
        },
        {
          "indexed": false,
          "internalType": "uint256",
          "name": "amount",
          "type": "uint256"
        }
      ],
      "name": "Withdraw",
      "type": "event"
    },
    {
      "inputs": [],
      "name": "BONUS_MULTIPLIER",
      "outputs": [
        {
          "internalType": "uint256",
          "name": "",
          "type": "uint256"
        }
      ],
      "stateMutability": "view",
      "type": "function"
    },
    {
      "inputs": [],
      "name": "PLFY",
      "outputs": [
        {
          "internalType": "contract PLFYToken",
          "name": "",
          "type": "address"
        }
      ],
      "stateMutability": "view",
      "type": "function"
    },
    {
      "inputs": [
        {
          "internalType": "uint256",
          "name": "_allocPoint",
          "type": "uint256"
        },
        {
          "internalType": "contract IERC20",
          "name": "_stakeToken",
          "type": "address"
        },
        {
          "internalType": "bool",
          "name": "_withUpdate",
          "type": "bool"
        }
      ],
      "name": "addPool",
      "outputs": [],
      "stateMutability": "nonpayable",
      "type": "function"
    },
    {
      "inputs": [
        {
          "internalType": "uint256",
          "name": "_pid",
          "type": "uint256"
        },
        {
          "internalType": "uint256",
          "name": "_amount",
          "type": "uint256"
        }
      ],
      "name": "deposit",
      "outputs": [],
      "stateMutability": "nonpayable",
      "type": "function"
    },
    {
      "inputs": [],
      "name": "devaddr",
      "outputs": [
        {
          "internalType": "address",
          "name": "",
          "type": "address"
        }
      ],
      "stateMutability": "view",
      "type": "function"
    },
    {
      "inputs": [
        {
          "internalType": "uint256",
          "name": "_pid",
          "type": "uint256"
        }
      ],
      "name": "emergencyWithdraw",
      "outputs": [],
      "stateMutability": "nonpayable",
      "type": "function"
    },
    {
      "inputs": [
        {
          "internalType": "uint256",
          "name": "_amount",
          "type": "uint256"
        }
      ],
      "name": "enterStaking",
      "outputs": [],
      "stateMutability": "nonpayable",
      "type": "function"
    },
    {
      "inputs": [
        {
          "internalType": "uint256",
          "name": "_from",
          "type": "uint256"
        },
        {
          "internalType": "uint256",
          "name": "_to",
          "type": "uint256"
        }
      ],
      "name": "getMultiplier",
      "outputs": [
        {
          "internalType": "uint256",
          "name": "",
          "type": "uint256"
        }
      ],
      "stateMutability": "view",
      "type": "function"
    },
    {
      "inputs": [
        {
          "internalType": "contract IERC20",
          "name": "_stakeToken",
          "type": "address"
        }
      ],
      "name": "isDuplicatedPool",
      "outputs": [
        {
          "internalType": "bool",
          "name": "",
          "type": "bool"
        }
      ],
      "stateMutability": "view",
      "type": "function"
    },
    {
      "inputs": [
        {
          "internalType": "uint256",
          "name": "_amount",
          "type": "uint256"
        }
      ],
      "name": "leaveStaking",
      "outputs": [],
      "stateMutability": "nonpayable",
      "type": "function"
    },
    {
      "inputs": [],
      "name": "massUpdatePools",
      "outputs": [],
      "stateMutability": "nonpayable",
      "type": "function"
    },
    {
      "inputs": [],
      "name": "owner",
      "outputs": [
        {
          "internalType": "address",
          "name": "",
          "type": "address"
        }
      ],
      "stateMutability": "view",
      "type": "function"
    },
    {
      "inputs": [
        {
          "internalType": "uint256",
          "name": "_pid",
          "type": "uint256"
        },
        {
          "internalType": "address",
          "name": "_user",
          "type": "address"
        }
      ],
      "name": "pendingPoolify",
      "outputs": [
        {
          "internalType": "uint256",
          "name": "",
          "type": "uint256"
        }
      ],
      "stateMutability": "view",
      "type": "function"
    },
    {
      "inputs": [
        {
          "internalType": "uint256",
          "name": "",
          "type": "uint256"
        }
      ],
      "name": "poolInfo",
      "outputs": [
        {
          "internalType": "contract IERC20",
          "name": "lpToken",
          "type": "address"
        },
        {
          "internalType": "uint256",
          "name": "allocPoint",
          "type": "uint256"
        },
        {
          "internalType": "uint256",
          "name": "lastRewardBlock",
          "type": "uint256"
        },
        {
          "internalType": "uint256",
          "name": "accPoolifyPerShare",
          "type": "uint256"
        },
        {
          "internalType": "uint256",
          "name": "lpSupply",
          "type": "uint256"
        }
      ],
      "stateMutability": "view",
      "type": "function"
    },
    {
      "inputs": [],
      "name": "poolLength",
      "outputs": [
        {
          "internalType": "uint256",
          "name": "",
          "type": "uint256"
        }
      ],
      "stateMutability": "view",
      "type": "function"
    },
    {
      "inputs": [],
      "name": "poolifyPerBlock",
      "outputs": [
        {
          "internalType": "uint256",
          "name": "",
          "type": "uint256"
        }
      ],
      "stateMutability": "view",
      "type": "function"
    },
    {
      "inputs": [],
      "name": "renounceOwnership",
      "outputs": [],
      "stateMutability": "nonpayable",
      "type": "function"
    },
    {
      "inputs": [
        {
          "internalType": "uint256",
          "name": "_pid",
          "type": "uint256"
        },
        {
          "internalType": "uint256",
          "name": "_allocPoint",
          "type": "uint256"
        },
        {
          "internalType": "bool",
          "name": "_withUpdate",
          "type": "bool"
        }
      ],
      "name": "setPool",
      "outputs": [],
      "stateMutability": "nonpayable",
      "type": "function"
    },
    {
      "inputs": [
        {
          "internalType": "uint256",
          "name": "_poolifyPerBlock",
          "type": "uint256"
        }
      ],
      "name": "setPoolifyPerBlock",
      "outputs": [],
      "stateMutability": "nonpayable",
      "type": "function"
    },
    {
      "inputs": [
        {
          "internalType": "uint256",
          "name": "",
          "type": "uint256"
        }
      ],
      "name": "stakeTokens",
      "outputs": [
        {
          "internalType": "contract IERC20",
          "name": "",
          "type": "address"
        }
      ],
      "stateMutability": "view",
      "type": "function"
    },
    {
      "inputs": [],
      "name": "startBlock",
      "outputs": [
        {
          "internalType": "uint256",
          "name": "",
          "type": "uint256"
        }
      ],
      "stateMutability": "view",
      "type": "function"
    },
    {
      "inputs": [],
      "name": "totalAllocPoint",
      "outputs": [
        {
          "internalType": "uint256",
          "name": "",
          "type": "uint256"
        }
      ],
      "stateMutability": "view",
      "type": "function"
    },
    {
      "inputs": [
        {
          "internalType": "address",
          "name": "newOwner",
          "type": "address"
        }
      ],
      "name": "transferOwnership",
      "outputs": [],
      "stateMutability": "nonpayable",
      "type": "function"
    },
    {
      "inputs": [
        {
          "internalType": "uint256",
          "name": "multiplierNumber",
          "type": "uint256"
        }
      ],
      "name": "updateMultiplier",
      "outputs": [],
      "stateMutability": "nonpayable",
      "type": "function"
    },
    {
      "inputs": [
        {
          "internalType": "uint256",
          "name": "_pid",
          "type": "uint256"
        }
      ],
      "name": "updatePool",
      "outputs": [],
      "stateMutability": "nonpayable",
      "type": "function"
    },
    {
      "inputs": [
        {
          "internalType": "uint256",
          "name": "",
          "type": "uint256"
        },
        {
          "internalType": "address",
          "name": "",
          "type": "address"
        }
      ],
      "name": "userInfo",
      "outputs": [
        {
          "internalType": "uint256",
          "name": "amount",
          "type": "uint256"
        },
        {
          "internalType": "uint256",
          "name": "rewardDebt",
          "type": "uint256"
        }
      ],
      "stateMutability": "view",
      "type": "function"
    },
    {
      "inputs": [
        {
          "internalType": "uint256",
          "name": "_pid",
          "type": "uint256"
        },
        {
          "internalType": "uint256",
          "name": "_amount",
          "type": "uint256"
        }
      ],
      "name": "withdraw",
      "outputs": [],
      "stateMutability": "nonpayable",
      "type": "function"
    }
  ],
  "bytecode": "0x60a0604052600160045560006009553480156200001b57600080fd5b50604051620033c9380380620033c98339818101604052810190620000419190620003f6565b62000061620000556200024060201b60201c565b6200024860201b60201c565b600180819055508373ffffffffffffffffffffffffffffffffffffffff1660808173ffffffffffffffffffffffffffffffffffffffff1681525050826003819055508160078190555080600260006101000a81548173ffffffffffffffffffffffffffffffffffffffff021916908373ffffffffffffffffffffffffffffffffffffffff16021790555060056040518060a001604052808673ffffffffffffffffffffffffffffffffffffffff1681526020016103e881526020016007548152602001600081526020016000815250908060018154018082558091505060019003906000526020600020906005020160009091909190915060008201518160000160006101000a81548173ffffffffffffffffffffffffffffffffffffffff021916908373ffffffffffffffffffffffffffffffffffffffff1602179055506020820151816001015560408201518160020155606082015181600301556080820151816004015550506006849080600181540180825580915050600190039060005260206000200160009091909190916101000a81548173ffffffffffffffffffffffffffffffffffffffff021916908373ffffffffffffffffffffffffffffffffffffffff1602179055506103e86009819055505050505062000468565b600033905090565b60008060009054906101000a900473ffffffffffffffffffffffffffffffffffffffff169050816000806101000a81548173ffffffffffffffffffffffffffffffffffffffff021916908373ffffffffffffffffffffffffffffffffffffffff1602179055508173ffffffffffffffffffffffffffffffffffffffff168173ffffffffffffffffffffffffffffffffffffffff167f8be0079c531659141344cd1fd0a4f28419497f9722a3daafe3b4186f6b6457e060405160405180910390a35050565b600080fd5b600073ffffffffffffffffffffffffffffffffffffffff82169050919050565b60006200033e8262000311565b9050919050565b6000620003528262000331565b9050919050565b620003648162000345565b81146200037057600080fd5b50565b600081519050620003848162000359565b92915050565b6000819050919050565b6200039f816200038a565b8114620003ab57600080fd5b50565b600081519050620003bf8162000394565b92915050565b620003d08162000331565b8114620003dc57600080fd5b50565b600081519050620003f081620003c5565b92915050565b600080600080608085870312156200041357620004126200030c565b5b6000620004238782880162000373565b94505060206200043687828801620003ae565b93505060406200044987828801620003ae565b92505060606200045c87828801620003df565b91505092959194509250565b608051612f3062000499600039600081816106b00152818161111c015281816111de0152611d980152612f306000f3fe608060405234801561001057600080fd5b50600436106101a95760003560e01c80635ffe6146116100f95780638dbb1e3a11610097578063d49e77cd11610071578063d49e77cd14610497578063e2bbb158146104b5578063ef4e18fe146104d1578063f2fde38b146104ef576101a9565b80638dbb1e3a1461040657806393f1a40b14610436578063b03df69d14610467576101a9565b80637547c7a3116100d35780637547c7a31461037e5780637abceffd146103ae5780638aa28550146103ca5780638da5cb5b146103e8576101a9565b80635ffe61461461034e578063630b5ba11461036a578063715018a614610374576101a9565b80631a3e87751161016657806346ca6bea1161014057806346ca6bea146102dc57806348cd4cb1146102f857806351eb05a6146103165780635312ea8e14610332576101a9565b80631a3e87751461028857806341441d3b146102a4578063441a3e70146102c0576101a9565b8063081e3eda146101ae57806308571c90146101cc5780630d5998a2146101fc5780631058d2811461021a5780631526fe271461023657806317caf6f11461026a575b600080fd5b6101b661050b565b6040516101c39190612251565b60405180910390f35b6101e660048036038101906101e191906122fb565b610518565b6040516101f39190612251565b60405180910390f35b6102046106ae565b604051610211919061239a565b60405180910390f35b610234600480360381019061022f91906123b5565b6106d2565b005b610250600480360381019061024b91906123b5565b61092b565b604051610261959493929190612403565b60405180910390f35b610272610991565b60405161027f9190612251565b60405180910390f35b6102a2600480360381019061029d91906123b5565b610997565b005b6102be60048036038101906102b991906123b5565b610a1d565b005b6102da60048036038101906102d59190612456565b610c3f565b005b6102f660048036038101906102f191906124ce565b610f2f565b005b610300611066565b60405161030d9190612251565b60405180910390f35b610330600480360381019061032b91906123b5565b61106c565b005b61034c600480360381019061034791906123b5565b61130a565b005b610368600480360381019061036391906123b5565b611498565b005b61037261151e565b005b61037c611551565b005b610398600480360381019061039391906123b5565b6115d9565b6040516103a59190612521565b60405180910390f35b6103c860048036038101906103c3919061257a565b611618565b005b6103d2611819565b6040516103df9190612251565b60405180910390f35b6103f061181f565b6040516103fd91906125dc565b60405180910390f35b610420600480360381019061041b9190612456565b611848565b60405161042d9190612251565b60405180910390f35b610450600480360381019061044b91906122fb565b611879565b60405161045e9291906125f7565b60405180910390f35b610481600480360381019061047c9190612620565b6118aa565b60405161048e919061265c565b60405180910390f35b61049f61195c565b6040516104ac91906125dc565b60405180910390f35b6104cf60048036038101906104ca9190612456565b611982565b005b6104d9611c3b565b6040516104e69190612251565b60405180910390f35b61050960048036038101906105049190612677565b611c41565b005b6000600580549050905090565b6000806005848154811061052f5761052e6126a4565b5b9060005260206000209060050201905060006008600086815260200190815260200160002060008573ffffffffffffffffffffffffffffffffffffffff1673ffffffffffffffffffffffffffffffffffffffff16815260200190815260200160002090506000826003015490506000836004015490508360020154431180156105b9575060008114155b156106575760006105ce856002015443611848565b9050600061061160095461060388600101546105f560035487611d3990919063ffffffff16565b611d3990919063ffffffff16565b611d4f90919063ffffffff16565b905061065261064384610635670de0b6b3a764000085611d3990919063ffffffff16565b611d4f90919063ffffffff16565b85611d6590919063ffffffff16565b935050505b6106a28360010154610694670de0b6b3a764000061068688600301548860000154611d3990919063ffffffff16565b611d4f90919063ffffffff16565b611d7b90919063ffffffff16565b94505050505092915050565b7f000000000000000000000000000000000000000000000000000000000000000081565b600060056000815481106106e9576106e86126a4565b5b9060005260206000209060050201905060006008600080815260200190815260200160002060003373ffffffffffffffffffffffffffffffffffffffff1673ffffffffffffffffffffffffffffffffffffffff16815260200190815260200160002090508281600001541015610794576040517f08c379a000000000000000000000000000000000000000000000000000000000815260040161078b90612730565b60405180910390fd5b61079e600061106c565b60006107eb82600101546107dd670de0b6b3a76400006107cf87600301548760000154611d3990919063ffffffff16565b611d4f90919063ffffffff16565b611d7b90919063ffffffff16565b90506000811115610801576108003382611d91565b5b600084111561089857610821848360000154611d7b90919063ffffffff16565b8260000181905550610840848460040154611d7b90919063ffffffff16565b836004018190555061089733858560000160009054906101000a900473ffffffffffffffffffffffffffffffffffffffff1673ffffffffffffffffffffffffffffffffffffffff16611de09092919063ffffffff16565b5b6108cd670de0b6b3a76400006108bf85600301548560000154611d3990919063ffffffff16565b611d4f90919063ffffffff16565b826001018190555060003373ffffffffffffffffffffffffffffffffffffffff167ff279e6a1f5e320cca91135676d9cb6e44ca8a08c0b88342bcdb1144f6511b5688660405161091d9190612251565b60405180910390a350505050565b6005818154811061093b57600080fd5b90600052602060002090600502016000915090508060000160009054906101000a900473ffffffffffffffffffffffffffffffffffffffff16908060010154908060020154908060030154908060040154905085565b60095481565b61099f611e66565b73ffffffffffffffffffffffffffffffffffffffff166109bd61181f565b73ffffffffffffffffffffffffffffffffffffffff1614610a13576040517f08c379a0000000000000000000000000000000000000000000000000000000008152600401610a0a9061279c565b60405180910390fd5b8060038190555050565b60006005600081548110610a3457610a336126a4565b5b9060005260206000209060050201905060006008600080815260200190815260200160002060003373ffffffffffffffffffffffffffffffffffffffff1673ffffffffffffffffffffffffffffffffffffffff1681526020019081526020016000209050610aa2600061106c565b600081600001541115610b14576000610afc8260010154610aee670de0b6b3a7640000610ae087600301548760000154611d3990919063ffffffff16565b611d4f90919063ffffffff16565b611d7b90919063ffffffff16565b90506000811115610b1257610b113382611d91565b5b505b6000831115610bad57610b6e3330858560000160009054906101000a900473ffffffffffffffffffffffffffffffffffffffff1673ffffffffffffffffffffffffffffffffffffffff16611e6e909392919063ffffffff16565b610b85838360040154611d6590919063ffffffff16565b8260040181905550610ba4838260000154611d6590919063ffffffff16565b81600001819055505b610be2670de0b6b3a7640000610bd484600301548460000154611d3990919063ffffffff16565b611d4f90919063ffffffff16565b816001018190555060003373ffffffffffffffffffffffffffffffffffffffff167f90890809c654f11d6e72a28fa60149770a0d11ec6c92319d6ceb2bb0a4ea1a1585604051610c329190612251565b60405180910390a3505050565b60026001541415610c85576040517f08c379a0000000000000000000000000000000000000000000000000000000008152600401610c7c90612808565b60405180910390fd5b60026001819055506000821415610cd1576040517f08c379a0000000000000000000000000000000000000000000000000000000008152600401610cc890612874565b60405180910390fd5b600060058381548110610ce757610ce66126a4565b5b9060005260206000209060050201905060006008600085815260200190815260200160002060003373ffffffffffffffffffffffffffffffffffffffff1673ffffffffffffffffffffffffffffffffffffffff16815260200190815260200160002090508281600001541015610d92576040517f08c379a0000000000000000000000000000000000000000000000000000000008152600401610d8990612730565b60405180910390fd5b610d9b8461106c565b6000610de88260010154610dda670de0b6b3a7640000610dcc87600301548760000154611d3990919063ffffffff16565b611d4f90919063ffffffff16565b611d7b90919063ffffffff16565b90506000811115610dfe57610dfd3382611d91565b5b6000841115610e9557610e1e848360000154611d7b90919063ffffffff16565b8260000181905550610e3d848460040154611d7b90919063ffffffff16565b8360040181905550610e9433858560000160009054906101000a900473ffffffffffffffffffffffffffffffffffffffff1673ffffffffffffffffffffffffffffffffffffffff16611de09092919063ffffffff16565b5b610eca670de0b6b3a7640000610ebc85600301548560000154611d3990919063ffffffff16565b611d4f90919063ffffffff16565b8260010181905550843373ffffffffffffffffffffffffffffffffffffffff167ff279e6a1f5e320cca91135676d9cb6e44ca8a08c0b88342bcdb1144f6511b56886604051610f199190612251565b60405180910390a3505050600180819055505050565b610f37611e66565b73ffffffffffffffffffffffffffffffffffffffff16610f5561181f565b73ffffffffffffffffffffffffffffffffffffffff1614610fab576040517f08c379a0000000000000000000000000000000000000000000000000000000008152600401610fa29061279c565b60405180910390fd5b8015610fba57610fb961151e565b5b61100682610ff860058681548110610fd557610fd46126a4565b5b906000526020600020906005020160010154600954611d7b90919063ffffffff16565b611d6590919063ffffffff16565b600981905550600060058481548110611022576110216126a4565b5b9060005260206000209060050201600101549050826005858154811061104b5761104a6126a4565b5b90600052602060002090600502016001018190555050505050565b60075481565b600060058281548110611082576110816126a4565b5b90600052602060002090600502019050806002015443116110a35750611307565b60008160040154905060008114156110c5574382600201819055505050611307565b60006110d5836002015443611848565b9050600061111860095461110a86600101546110fc60035487611d3990919063ffffffff16565b611d3990919063ffffffff16565b611d4f90919063ffffffff16565b90507f000000000000000000000000000000000000000000000000000000000000000073ffffffffffffffffffffffffffffffffffffffff166340c10f19600260009054906101000a900473ffffffffffffffffffffffffffffffffffffffff1661118d600a85611d4f90919063ffffffff16565b6040518363ffffffff1660e01b81526004016111aa929190612894565b600060405180830381600087803b1580156111c457600080fd5b505af11580156111d8573d6000803e3d6000fd5b505050507f000000000000000000000000000000000000000000000000000000000000000073ffffffffffffffffffffffffffffffffffffffff166340c10f1930836040518363ffffffff1660e01b8152600401611237929190612894565b600060405180830381600087803b15801561125157600080fd5b505af1158015611265573d6000803e3d6000fd5b505050506112ac6112998461128b670de0b6b3a764000085611d3990919063ffffffff16565b611d4f90919063ffffffff16565b8560030154611d6590919063ffffffff16565b8460030181905550438460020181905550847fcb7325664a4a3b7c7223eefc492a97ca4fdf94d46884621e5a8fae5a04b2b9d28560020154600087600301546040516112fa939291906128f8565b60405180910390a2505050505b50565b60026001541415611350576040517f08c379a000000000000000000000000000000000000000000000000000000000815260040161134790612808565b60405180910390fd5b600260018190555060006005828154811061136e5761136d6126a4565b5b9060005260206000209060050201905060006008600084815260200190815260200160002060003373ffffffffffffffffffffffffffffffffffffffff1673ffffffffffffffffffffffffffffffffffffffff16815260200190815260200160002090506114253382600001548460000160009054906101000a900473ffffffffffffffffffffffffffffffffffffffff1673ffffffffffffffffffffffffffffffffffffffff16611de09092919063ffffffff16565b6000816000018190555060008160010181905550823373ffffffffffffffffffffffffffffffffffffffff167fbb757047c2b5f3974fe26b7c10f732e7bce710b0952a71082702781e62ae059583600001546040516114849190612251565b60405180910390a350506001808190555050565b6114a0611e66565b73ffffffffffffffffffffffffffffffffffffffff166114be61181f565b73ffffffffffffffffffffffffffffffffffffffff1614611514576040517f08c379a000000000000000000000000000000000000000000000000000000000815260040161150b9061279c565b60405180910390fd5b8060048190555050565b6000600580549050905060005b8181101561154d5761153c8161106c565b806115469061295e565b905061152b565b5050565b611559611e66565b73ffffffffffffffffffffffffffffffffffffffff1661157761181f565b73ffffffffffffffffffffffffffffffffffffffff16146115cd576040517f08c379a00000000000000000000000000000000000000000000000000000000081526004016115c49061279c565b60405180910390fd5b6115d76000611ef7565b565b600681815481106115e957600080fd5b906000526020600020016000915054906101000a900473ffffffffffffffffffffffffffffffffffffffff1681565b611620611e66565b73ffffffffffffffffffffffffffffffffffffffff1661163e61181f565b73ffffffffffffffffffffffffffffffffffffffff1614611694576040517f08c379a000000000000000000000000000000000000000000000000000000000815260040161168b9061279c565b60405180910390fd5b80156116a3576116a261151e565b5b600060075443116116b6576007546116b8565b435b90506116cf84600954611d6590919063ffffffff16565b60098190555060056040518060a001604052808573ffffffffffffffffffffffffffffffffffffffff168152602001868152602001838152602001600081526020016000815250908060018154018082558091505060019003906000526020600020906005020160009091909190915060008201518160000160006101000a81548173ffffffffffffffffffffffffffffffffffffffff021916908373ffffffffffffffffffffffffffffffffffffffff1602179055506020820151816001015560408201518160020155606082015181600301556080820151816004015550506006839080600181540180825580915050600190039060005260206000200160009091909190916101000a81548173ffffffffffffffffffffffffffffffffffffffff021916908373ffffffffffffffffffffffffffffffffffffffff16021790555050505050565b60045481565b60008060009054906101000a900473ffffffffffffffffffffffffffffffffffffffff16905090565b60006118716004546118638585611d7b90919063ffffffff16565b611d3990919063ffffffff16565b905092915050565b6008602052816000526040600020602052806000526040600020600091509150508060000154908060010154905082565b600080600680549050905060005b81811015611950578373ffffffffffffffffffffffffffffffffffffffff16600682815481106118eb576118ea6126a4565b5b9060005260206000200160009054906101000a900473ffffffffffffffffffffffffffffffffffffffff1673ffffffffffffffffffffffffffffffffffffffff16141561193d57600192505050611957565b80806119489061295e565b9150506118b8565b5060009150505b919050565b600260009054906101000a900473ffffffffffffffffffffffffffffffffffffffff1681565b600260015414156119c8576040517f08c379a00000000000000000000000000000000000000000000000000000000081526004016119bf90612808565b60405180910390fd5b60026001819055506000821415611a14576040517f08c379a0000000000000000000000000000000000000000000000000000000008152600401611a0b906129f3565b60405180910390fd5b600060058381548110611a2a57611a296126a4565b5b9060005260206000209060050201905060006008600085815260200190815260200160002060003373ffffffffffffffffffffffffffffffffffffffff1673ffffffffffffffffffffffffffffffffffffffff1681526020019081526020016000209050611a978461106c565b600081600001541115611b09576000611af18260010154611ae3670de0b6b3a7640000611ad587600301548760000154611d3990919063ffffffff16565b611d4f90919063ffffffff16565b611d7b90919063ffffffff16565b90506000811115611b0757611b063382611d91565b5b505b6000831115611ba257611b633330858560000160009054906101000a900473ffffffffffffffffffffffffffffffffffffffff1673ffffffffffffffffffffffffffffffffffffffff16611e6e909392919063ffffffff16565b611b7a838360040154611d6590919063ffffffff16565b8260040181905550611b99838260000154611d6590919063ffffffff16565b81600001819055505b611bd7670de0b6b3a7640000611bc984600301548460000154611d3990919063ffffffff16565b611d4f90919063ffffffff16565b8160010181905550833373ffffffffffffffffffffffffffffffffffffffff167f90890809c654f11d6e72a28fa60149770a0d11ec6c92319d6ceb2bb0a4ea1a1585604051611c269190612251565b60405180910390a35050600180819055505050565b60035481565b611c49611e66565b73ffffffffffffffffffffffffffffffffffffffff16611c6761181f565b73ffffffffffffffffffffffffffffffffffffffff1614611cbd576040517f08c379a0000000000000000000000000000000000000000000000000000000008152600401611cb49061279c565b60405180910390fd5b600073ffffffffffffffffffffffffffffffffffffffff168173ffffffffffffffffffffffffffffffffffffffff161415611d2d576040517f08c379a0000000000000000000000000000000000000000000000000000000008152600401611d2490612a85565b60405180910390fd5b611d3681611ef7565b50565b60008183611d479190612aa5565b905092915050565b60008183611d5d9190612b2e565b905092915050565b60008183611d739190612b5f565b905092915050565b60008183611d899190612bb5565b905092915050565b611ddc82827f000000000000000000000000000000000000000000000000000000000000000073ffffffffffffffffffffffffffffffffffffffff16611de09092919063ffffffff16565b5050565b611e618363a9059cbb60e01b8484604051602401611dff929190612894565b604051602081830303815290604052907bffffffffffffffffffffffffffffffffffffffffffffffffffffffff19166020820180517bffffffffffffffffffffffffffffffffffffffffffffffffffffffff8381831617835250505050611fbb565b505050565b600033905090565b611ef1846323b872dd60e01b858585604051602401611e8f93929190612be9565b604051602081830303815290604052907bffffffffffffffffffffffffffffffffffffffffffffffffffffffff19166020820180517bffffffffffffffffffffffffffffffffffffffffffffffffffffffff8381831617835250505050611fbb565b50505050565b60008060009054906101000a900473ffffffffffffffffffffffffffffffffffffffff169050816000806101000a81548173ffffffffffffffffffffffffffffffffffffffff021916908373ffffffffffffffffffffffffffffffffffffffff1602179055508173ffffffffffffffffffffffffffffffffffffffff168173ffffffffffffffffffffffffffffffffffffffff167f8be0079c531659141344cd1fd0a4f28419497f9722a3daafe3b4186f6b6457e060405160405180910390a35050565b600061201d826040518060400160405280602081526020017f5361666545524332303a206c6f772d6c6576656c2063616c6c206661696c65648152508573ffffffffffffffffffffffffffffffffffffffff166120829092919063ffffffff16565b905060008151111561207d578080602001905181019061203d9190612c35565b61207c576040517f08c379a000000000000000000000000000000000000000000000000000000000815260040161207390612cd4565b60405180910390fd5b5b505050565b6060612091848460008561209a565b90509392505050565b6060824710156120df576040517f08c379a00000000000000000000000000000000000000000000000000000000081526004016120d690612d66565b60405180910390fd5b6120e8856121ae565b612127576040517f08c379a000000000000000000000000000000000000000000000000000000000815260040161211e90612dd2565b60405180910390fd5b6000808673ffffffffffffffffffffffffffffffffffffffff1685876040516121509190612e6c565b60006040518083038185875af1925050503d806000811461218d576040519150601f19603f3d011682016040523d82523d6000602084013e612192565b606091505b50915091506121a28282866121d1565b92505050949350505050565b6000808273ffffffffffffffffffffffffffffffffffffffff163b119050919050565b606083156121e157829050612231565b6000835111156121f45782518084602001fd5b816040517f08c379a00000000000000000000000000000000000000000000000000000000081526004016122289190612ed8565b60405180910390fd5b9392505050565b6000819050919050565b61224b81612238565b82525050565b60006020820190506122666000830184612242565b92915050565b600080fd5b61227a81612238565b811461228557600080fd5b50565b60008135905061229781612271565b92915050565b600073ffffffffffffffffffffffffffffffffffffffff82169050919050565b60006122c88261229d565b9050919050565b6122d8816122bd565b81146122e357600080fd5b50565b6000813590506122f5816122cf565b92915050565b600080604083850312156123125761231161226c565b5b600061232085828601612288565b9250506020612331858286016122e6565b9150509250929050565b6000819050919050565b600061236061235b6123568461229d565b61233b565b61229d565b9050919050565b600061237282612345565b9050919050565b600061238482612367565b9050919050565b61239481612379565b82525050565b60006020820190506123af600083018461238b565b92915050565b6000602082840312156123cb576123ca61226c565b5b60006123d984828501612288565b91505092915050565b60006123ed82612367565b9050919050565b6123fd816123e2565b82525050565b600060a08201905061241860008301886123f4565b6124256020830187612242565b6124326040830186612242565b61243f6060830185612242565b61244c6080830184612242565b9695505050505050565b6000806040838503121561246d5761246c61226c565b5b600061247b85828601612288565b925050602061248c85828601612288565b9150509250929050565b60008115159050919050565b6124ab81612496565b81146124b657600080fd5b50565b6000813590506124c8816124a2565b92915050565b6000806000606084860312156124e7576124e661226c565b5b60006124f586828701612288565b935050602061250686828701612288565b9250506040612517868287016124b9565b9150509250925092565b600060208201905061253660008301846123f4565b92915050565b6000612547826122bd565b9050919050565b6125578161253c565b811461256257600080fd5b50565b6000813590506125748161254e565b92915050565b6000806000606084860312156125935761259261226c565b5b60006125a186828701612288565b93505060206125b286828701612565565b92505060406125c3868287016124b9565b9150509250925092565b6125d6816122bd565b82525050565b60006020820190506125f160008301846125cd565b92915050565b600060408201905061260c6000830185612242565b6126196020830184612242565b9392505050565b6000602082840312156126365761263561226c565b5b600061264484828501612565565b91505092915050565b61265681612496565b82525050565b6000602082019050612671600083018461264d565b92915050565b60006020828403121561268d5761268c61226c565b5b600061269b848285016122e6565b91505092915050565b7f4e487b7100000000000000000000000000000000000000000000000000000000600052603260045260246000fd5b600082825260208201905092915050565b7f77697468647261773a206e6f7420676f6f640000000000000000000000000000600082015250565b600061271a6012836126d3565b9150612725826126e4565b602082019050919050565b600060208201905081810360008301526127498161270d565b9050919050565b7f4f776e61626c653a2063616c6c6572206973206e6f7420746865206f776e6572600082015250565b60006127866020836126d3565b915061279182612750565b602082019050919050565b600060208201905081810360008301526127b581612779565b9050919050565b7f5265656e7472616e637947756172643a207265656e7472616e742063616c6c00600082015250565b60006127f2601f836126d3565b91506127fd826127bc565b602082019050919050565b60006020820190508181036000830152612821816127e5565b9050919050565b7f776974686472617720504c465920627920756e7374616b696e67000000000000600082015250565b600061285e601a836126d3565b915061286982612828565b602082019050919050565b6000602082019050818103600083015261288d81612851565b9050919050565b60006040820190506128a960008301856125cd565b6128b66020830184612242565b9392505050565b6000819050919050565b60006128e26128dd6128d8846128bd565b61233b565b612238565b9050919050565b6128f2816128c7565b82525050565b600060608201905061290d6000830186612242565b61291a60208301856128e9565b6129276040830184612242565b949350505050565b7f4e487b7100000000000000000000000000000000000000000000000000000000600052601160045260246000fd5b600061296982612238565b91507fffffffffffffffffffffffffffffffffffffffffffffffffffffffffffffffff82141561299c5761299b61292f565b5b600182019050919050565b7f6465706f73697420504c4659206279207374616b696e67000000000000000000600082015250565b60006129dd6017836126d3565b91506129e8826129a7565b602082019050919050565b60006020820190508181036000830152612a0c816129d0565b9050919050565b7f4f776e61626c653a206e6577206f776e657220697320746865207a65726f206160008201527f6464726573730000000000000000000000000000000000000000000000000000602082015250565b6000612a6f6026836126d3565b9150612a7a82612a13565b604082019050919050565b60006020820190508181036000830152612a9e81612a62565b9050919050565b6000612ab082612238565b9150612abb83612238565b9250817fffffffffffffffffffffffffffffffffffffffffffffffffffffffffffffffff0483118215151615612af457612af361292f565b5b828202905092915050565b7f4e487b7100000000000000000000000000000000000000000000000000000000600052601260045260246000fd5b6000612b3982612238565b9150612b4483612238565b925082612b5457612b53612aff565b5b828204905092915050565b6000612b6a82612238565b9150612b7583612238565b9250827fffffffffffffffffffffffffffffffffffffffffffffffffffffffffffffffff03821115612baa57612ba961292f565b5b828201905092915050565b6000612bc082612238565b9150612bcb83612238565b925082821015612bde57612bdd61292f565b5b828203905092915050565b6000606082019050612bfe60008301866125cd565b612c0b60208301856125cd565b612c186040830184612242565b949350505050565b600081519050612c2f816124a2565b92915050565b600060208284031215612c4b57612c4a61226c565b5b6000612c5984828501612c20565b91505092915050565b7f5361666545524332303a204552433230206f7065726174696f6e20646964206e60008201527f6f74207375636365656400000000000000000000000000000000000000000000602082015250565b6000612cbe602a836126d3565b9150612cc982612c62565b604082019050919050565b60006020820190508181036000830152612ced81612cb1565b9050919050565b7f416464726573733a20696e73756666696369656e742062616c616e636520666f60008201527f722063616c6c0000000000000000000000000000000000000000000000000000602082015250565b6000612d506026836126d3565b9150612d5b82612cf4565b604082019050919050565b60006020820190508181036000830152612d7f81612d43565b9050919050565b7f416464726573733a2063616c6c20746f206e6f6e2d636f6e7472616374000000600082015250565b6000612dbc601d836126d3565b9150612dc782612d86565b602082019050919050565b60006020820190508181036000830152612deb81612daf565b9050919050565b600081519050919050565b600081905092915050565b60005b83811015612e26578082015181840152602081019050612e0b565b83811115612e35576000848401525b50505050565b6000612e4682612df2565b612e508185612dfd565b9350612e60818560208601612e08565b80840191505092915050565b6000612e788284612e3b565b915081905092915050565b600081519050919050565b6000601f19601f8301169050919050565b6000612eaa82612e83565b612eb481856126d3565b9350612ec4818560208601612e08565b612ecd81612e8e565b840191505092915050565b60006020820190508181036000830152612ef28184612e9f565b90509291505056fea2646970667358221220fbc3333b58b16faf2231d0e0f58de75849774a6ab1dcaea4a2f5870334c7c9ac64736f6c634300080b0033",
  "linkReferences": {},
  "deployedLinkReferences": {}
}