{
  "_format": "hh-sol-artifact-1",
  "contractName": "PoolifyRewardManager",
  "sourceName": "src/contracts/protocol/PoolifyRewardManager.sol",
  "abi": [
    {
      "inputs": [
        {
          "internalType": "contract PLFYToken",
          "name": "_plfy",
          "type": "address"
        },
        {
          "internalType": "contract IcePLFY",
          "name": "_icePLFY",
          "type": "address"
        },
        {
          "internalType": "uint256",
          "name": "_poolifyPerBlock",
          "type": "uint256"
        },
        {
          "internalType": "uint256",
          "name": "_startBlock",
          "type": "uint256"
        },
        {
          "internalType": "address",
          "name": "_devaddr",
          "type": "address"
        }
      ],
      "stateMutability": "nonpayable",
      "type": "constructor"
    },
    {
      "anonymous": false,
      "inputs": [
        {
          "indexed": true,
          "internalType": "address",
          "name": "user",
          "type": "address"
        },
        {
          "indexed": true,
          "internalType": "uint256",
          "name": "pid",
          "type": "uint256"
        },
        {
          "indexed": false,
          "internalType": "uint256",
          "name": "amount",
          "type": "uint256"
        }
      ],
      "name": "Deposit",
      "type": "event"
    },
    {
      "anonymous": false,
      "inputs": [
        {
          "indexed": true,
          "internalType": "address",
          "name": "user",
          "type": "address"
        },
        {
          "indexed": true,
          "internalType": "uint256",
          "name": "pid",
          "type": "uint256"
        },
        {
          "indexed": false,
          "internalType": "uint256",
          "name": "amount",
          "type": "uint256"
        }
      ],
      "name": "EmergencyWithdraw",
      "type": "event"
    },
    {
      "anonymous": false,
      "inputs": [
        {
          "indexed": true,
          "internalType": "address",
          "name": "user",
          "type": "address"
        },
        {
          "indexed": true,
          "internalType": "uint256",
          "name": "pid",
          "type": "uint256"
        },
        {
          "indexed": false,
          "internalType": "uint256",
          "name": "amount",
          "type": "uint256"
        }
      ],
      "name": "Harvest",
      "type": "event"
    },
    {
      "anonymous": false,
      "inputs": [],
      "name": "LogInit",
      "type": "event"
    },
    {
      "anonymous": false,
      "inputs": [
        {
          "indexed": true,
          "internalType": "uint256",
          "name": "pid",
          "type": "uint256"
        },
        {
          "indexed": false,
          "internalType": "uint256",
          "name": "allocPoint",
          "type": "uint256"
        },
        {
          "indexed": true,
          "internalType": "contract IERC20",
          "name": "lpToken",
          "type": "address"
        }
      ],
      "name": "LogPoolAddition",
      "type": "event"
    },
    {
      "anonymous": false,
      "inputs": [
        {
          "indexed": true,
          "internalType": "uint256",
          "name": "pid",
          "type": "uint256"
        },
        {
          "indexed": false,
          "internalType": "uint256",
          "name": "lastRewardBlock",
          "type": "uint256"
        },
        {
          "indexed": false,
          "internalType": "uint256",
          "name": "lpSupply",
          "type": "uint256"
        },
        {
          "indexed": false,
          "internalType": "uint256",
          "name": "accPoolifyPerShare",
          "type": "uint256"
        }
      ],
      "name": "LogUpdatePool",
      "type": "event"
    },
    {
      "anonymous": false,
      "inputs": [
        {
          "indexed": true,
          "internalType": "address",
          "name": "previousOwner",
          "type": "address"
        },
        {
          "indexed": true,
          "internalType": "address",
          "name": "newOwner",
          "type": "address"
        }
      ],
      "name": "OwnershipTransferred",
      "type": "event"
    },
    {
      "anonymous": false,
      "inputs": [
        {
          "indexed": true,
          "internalType": "address",
          "name": "user",
          "type": "address"
        },
        {
          "indexed": true,
          "internalType": "uint256",
          "name": "pid",
          "type": "uint256"
        },
        {
          "indexed": false,
          "internalType": "uint256",
          "name": "amount",
          "type": "uint256"
        }
      ],
      "name": "Withdraw",
      "type": "event"
    },
    {
      "inputs": [],
      "name": "BONUS_MULTIPLIER",
      "outputs": [
        {
          "internalType": "uint256",
          "name": "",
          "type": "uint256"
        }
      ],
      "stateMutability": "view",
      "type": "function"
    },
    {
      "inputs": [],
      "name": "PLFY",
      "outputs": [
        {
          "internalType": "contract PLFYToken",
          "name": "",
          "type": "address"
        }
      ],
      "stateMutability": "view",
      "type": "function"
    },
    {
      "inputs": [
        {
          "internalType": "uint256",
          "name": "_allocPoint",
          "type": "uint256"
        },
        {
          "internalType": "contract IERC20",
          "name": "_stakeToken",
          "type": "address"
        },
        {
          "internalType": "bool",
          "name": "_withUpdate",
          "type": "bool"
        }
      ],
      "name": "addPool",
      "outputs": [],
      "stateMutability": "nonpayable",
      "type": "function"
    },
    {
      "inputs": [
        {
          "internalType": "uint256",
          "name": "_pid",
          "type": "uint256"
        },
        {
          "internalType": "uint256",
          "name": "_amount",
          "type": "uint256"
        }
      ],
      "name": "deposit",
      "outputs": [],
      "stateMutability": "nonpayable",
      "type": "function"
    },
    {
      "inputs": [],
      "name": "devaddr",
      "outputs": [
        {
          "internalType": "address",
          "name": "",
          "type": "address"
        }
      ],
      "stateMutability": "view",
      "type": "function"
    },
    {
      "inputs": [
        {
          "internalType": "uint256",
          "name": "_pid",
          "type": "uint256"
        }
      ],
      "name": "emergencyWithdraw",
      "outputs": [],
      "stateMutability": "nonpayable",
      "type": "function"
    },
    {
      "inputs": [
        {
          "internalType": "uint256",
          "name": "_amount",
          "type": "uint256"
        }
      ],
      "name": "enterStaking",
      "outputs": [],
      "stateMutability": "nonpayable",
      "type": "function"
    },
    {
      "inputs": [
        {
          "internalType": "uint256",
          "name": "_from",
          "type": "uint256"
        },
        {
          "internalType": "uint256",
          "name": "_to",
          "type": "uint256"
        }
      ],
      "name": "getMultiplier",
      "outputs": [
        {
          "internalType": "uint256",
          "name": "",
          "type": "uint256"
        }
      ],
      "stateMutability": "view",
      "type": "function"
    },
    {
      "inputs": [],
      "name": "icePLFY",
      "outputs": [
        {
          "internalType": "contract IcePLFY",
          "name": "",
          "type": "address"
        }
      ],
      "stateMutability": "view",
      "type": "function"
    },
    {
      "inputs": [
        {
          "internalType": "contract IERC20",
          "name": "_stakeToken",
          "type": "address"
        }
      ],
      "name": "isDuplicatedPool",
      "outputs": [
        {
          "internalType": "bool",
          "name": "",
          "type": "bool"
        }
      ],
      "stateMutability": "view",
      "type": "function"
    },
    {
      "inputs": [
        {
          "internalType": "uint256",
          "name": "_amount",
          "type": "uint256"
        }
      ],
      "name": "leaveStaking",
      "outputs": [],
      "stateMutability": "nonpayable",
      "type": "function"
    },
    {
      "inputs": [],
      "name": "massUpdatePools",
      "outputs": [],
      "stateMutability": "nonpayable",
      "type": "function"
    },
    {
      "inputs": [],
      "name": "owner",
      "outputs": [
        {
          "internalType": "address",
          "name": "",
          "type": "address"
        }
      ],
      "stateMutability": "view",
      "type": "function"
    },
    {
      "inputs": [
        {
          "internalType": "uint256",
          "name": "_pid",
          "type": "uint256"
        },
        {
          "internalType": "address",
          "name": "_user",
          "type": "address"
        }
      ],
      "name": "pendingPoolify",
      "outputs": [
        {
          "internalType": "uint256",
          "name": "",
          "type": "uint256"
        }
      ],
      "stateMutability": "view",
      "type": "function"
    },
    {
      "inputs": [
        {
          "internalType": "uint256",
          "name": "",
          "type": "uint256"
        }
      ],
      "name": "poolInfo",
      "outputs": [
        {
          "internalType": "contract IERC20",
          "name": "lpToken",
          "type": "address"
        },
        {
          "internalType": "uint256",
          "name": "allocPoint",
          "type": "uint256"
        },
        {
          "internalType": "uint256",
          "name": "lastRewardBlock",
          "type": "uint256"
        },
        {
          "internalType": "uint256",
          "name": "accPoolifyPerShare",
          "type": "uint256"
        },
        {
          "internalType": "uint256",
          "name": "lpSupply",
          "type": "uint256"
        }
      ],
      "stateMutability": "view",
      "type": "function"
    },
    {
      "inputs": [],
      "name": "poolLength",
      "outputs": [
        {
          "internalType": "uint256",
          "name": "",
          "type": "uint256"
        }
      ],
      "stateMutability": "view",
      "type": "function"
    },
    {
      "inputs": [],
      "name": "poolifyPerBlock",
      "outputs": [
        {
          "internalType": "uint256",
          "name": "",
          "type": "uint256"
        }
      ],
      "stateMutability": "view",
      "type": "function"
    },
    {
      "inputs": [],
      "name": "renounceOwnership",
      "outputs": [],
      "stateMutability": "nonpayable",
      "type": "function"
    },
    {
      "inputs": [
        {
          "internalType": "uint256",
          "name": "_pid",
          "type": "uint256"
        },
        {
          "internalType": "uint256",
          "name": "_allocPoint",
          "type": "uint256"
        },
        {
          "internalType": "bool",
          "name": "_withUpdate",
          "type": "bool"
        }
      ],
      "name": "setPool",
      "outputs": [],
      "stateMutability": "nonpayable",
      "type": "function"
    },
    {
      "inputs": [
        {
          "internalType": "uint256",
          "name": "_poolifyPerBlock",
          "type": "uint256"
        }
      ],
      "name": "setPoolifyPerBlock",
      "outputs": [],
      "stateMutability": "nonpayable",
      "type": "function"
    },
    {
      "inputs": [
        {
          "internalType": "uint256",
          "name": "",
          "type": "uint256"
        }
      ],
      "name": "stakeTokens",
      "outputs": [
        {
          "internalType": "contract IERC20",
          "name": "",
          "type": "address"
        }
      ],
      "stateMutability": "view",
      "type": "function"
    },
    {
      "inputs": [],
      "name": "startBlock",
      "outputs": [
        {
          "internalType": "uint256",
          "name": "",
          "type": "uint256"
        }
      ],
      "stateMutability": "view",
      "type": "function"
    },
    {
      "inputs": [],
      "name": "totalAllocPoint",
      "outputs": [
        {
          "internalType": "uint256",
          "name": "",
          "type": "uint256"
        }
      ],
      "stateMutability": "view",
      "type": "function"
    },
    {
      "inputs": [
        {
          "internalType": "address",
          "name": "newOwner",
          "type": "address"
        }
      ],
      "name": "transferOwnership",
      "outputs": [],
      "stateMutability": "nonpayable",
      "type": "function"
    },
    {
      "inputs": [
        {
          "internalType": "uint256",
          "name": "multiplierNumber",
          "type": "uint256"
        }
      ],
      "name": "updateMultiplier",
      "outputs": [],
      "stateMutability": "nonpayable",
      "type": "function"
    },
    {
      "inputs": [
        {
          "internalType": "uint256",
          "name": "_pid",
          "type": "uint256"
        }
      ],
      "name": "updatePool",
      "outputs": [],
      "stateMutability": "nonpayable",
      "type": "function"
    },
    {
      "inputs": [
        {
          "internalType": "uint256",
          "name": "",
          "type": "uint256"
        },
        {
          "internalType": "address",
          "name": "",
          "type": "address"
        }
      ],
      "name": "userInfo",
      "outputs": [
        {
          "internalType": "uint256",
          "name": "amount",
          "type": "uint256"
        },
        {
          "internalType": "uint256",
          "name": "rewardDebt",
          "type": "uint256"
        }
      ],
      "stateMutability": "view",
      "type": "function"
    },
    {
      "inputs": [
        {
          "internalType": "uint256",
          "name": "_pid",
          "type": "uint256"
        },
        {
          "internalType": "uint256",
          "name": "_amount",
          "type": "uint256"
        }
      ],
      "name": "withdraw",
      "outputs": [],
      "stateMutability": "nonpayable",
      "type": "function"
    }
  ],
  "bytecode": "0x60c0604052600160045560006009553480156200001b57600080fd5b506040516200390f3803806200390f833981810160405281019062000041919062000470565b62000061620000556200027560201b60201c565b6200027d60201b60201c565b600180819055508473ffffffffffffffffffffffffffffffffffffffff1660808173ffffffffffffffffffffffffffffffffffffffff16815250508373ffffffffffffffffffffffffffffffffffffffff1660a08173ffffffffffffffffffffffffffffffffffffffff1681525050826003819055508160078190555080600260006101000a81548173ffffffffffffffffffffffffffffffffffffffff021916908373ffffffffffffffffffffffffffffffffffffffff16021790555060056040518060a001604052808773ffffffffffffffffffffffffffffffffffffffff1681526020016103e881526020016007548152602001600081526020016000815250908060018154018082558091505060019003906000526020600020906005020160009091909190915060008201518160000160006101000a81548173ffffffffffffffffffffffffffffffffffffffff021916908373ffffffffffffffffffffffffffffffffffffffff1602179055506020820151816001015560408201518160020155606082015181600301556080820151816004015550506006859080600181540180825580915050600190039060005260206000200160009091909190916101000a81548173ffffffffffffffffffffffffffffffffffffffff021916908373ffffffffffffffffffffffffffffffffffffffff1602179055506103e86009819055505050505050620004f8565b600033905090565b60008060009054906101000a900473ffffffffffffffffffffffffffffffffffffffff169050816000806101000a81548173ffffffffffffffffffffffffffffffffffffffff021916908373ffffffffffffffffffffffffffffffffffffffff1602179055508173ffffffffffffffffffffffffffffffffffffffff168173ffffffffffffffffffffffffffffffffffffffff167f8be0079c531659141344cd1fd0a4f28419497f9722a3daafe3b4186f6b6457e060405160405180910390a35050565b600080fd5b600073ffffffffffffffffffffffffffffffffffffffff82169050919050565b6000620003738262000346565b9050919050565b6000620003878262000366565b9050919050565b62000399816200037a565b8114620003a557600080fd5b50565b600081519050620003b9816200038e565b92915050565b6000620003cc8262000366565b9050919050565b620003de81620003bf565b8114620003ea57600080fd5b50565b600081519050620003fe81620003d3565b92915050565b6000819050919050565b620004198162000404565b81146200042557600080fd5b50565b60008151905062000439816200040e565b92915050565b6200044a8162000366565b81146200045657600080fd5b50565b6000815190506200046a816200043f565b92915050565b600080600080600060a086880312156200048f576200048e62000341565b5b60006200049f88828901620003a8565b9550506020620004b288828901620003ed565b9450506040620004c58882890162000428565b9350506060620004d88882890162000428565b9250506080620004eb8882890162000459565b9150509295509295909350565b60805160a0516133ce62000541600039600081816109c901528181610d4c015281816113cf01528181611ef90152612011015260008181610782015261139301526133ce6000f3fe608060405234801561001057600080fd5b50600436106101c45760003560e01c8063630b5ba1116100f957806393f1a40b11610097578063e2bbb15811610071578063e2bbb158146104d0578063ef4e18fe146104ec578063f2fde38b1461050a578063f601fd8814610526576101c4565b806393f1a40b14610451578063b03df69d14610482578063d49e77cd146104b2576101c4565b80637abceffd116100d35780637abceffd146103c95780638aa28550146103e55780638da5cb5b146104035780638dbb1e3a14610421576101c4565b8063630b5ba114610385578063715018a61461038f5780637547c7a314610399576101c4565b806341441d3b1161016657806348cd4cb11161014057806348cd4cb11461031357806351eb05a6146103315780635312ea8e1461034d5780635ffe614614610369576101c4565b806341441d3b146102bf578063441a3e70146102db57806346ca6bea146102f7576101c4565b80631058d281116101a25780631058d281146102355780631526fe271461025157806317caf6f1146102855780631a3e8775146102a3576101c4565b8063081e3eda146101c957806308571c90146101e75780630d5998a214610217575b600080fd5b6101d1610544565b6040516101de9190612641565b60405180910390f35b61020160048036038101906101fc91906126eb565b610551565b60405161020e9190612641565b60405180910390f35b61021f610780565b60405161022c919061278a565b60405180910390f35b61024f600480360381019061024a91906127a5565b6107a4565b005b61026b600480360381019061026691906127a5565b610aaa565b60405161027c9594939291906127f3565b60405180910390f35b61028d610b10565b60405161029a9190612641565b60405180910390f35b6102bd60048036038101906102b891906127a5565b610b16565b005b6102d960048036038101906102d491906127a5565b610b9c565b005b6102f560048036038101906102f09190612846565b610e2c565b005b610311600480360381019061030c91906128be565b6110fd565b005b61031b611244565b6040516103289190612641565b60405180910390f35b61034b600480360381019061034691906127a5565b61124a565b005b610367600480360381019061036291906127a5565b6114df565b005b610383600480360381019061037e91906127a5565b61166d565b005b61038d6116f3565b005b610397611726565b005b6103b360048036038101906103ae91906127a5565b6117ae565b6040516103c09190612911565b60405180910390f35b6103e360048036038101906103de919061296a565b6117ed565b005b6103ed6119f6565b6040516103fa9190612641565b60405180910390f35b61040b6119fc565b60405161041891906129cc565b60405180910390f35b61043b60048036038101906104369190612846565b611a25565b6040516104489190612641565b60405180910390f35b61046b600480360381019061046691906126eb565b611a56565b6040516104799291906129e7565b60405180910390f35b61049c60048036038101906104979190612a10565b611a87565b6040516104a99190612a4c565b60405180910390f35b6104ba611b39565b6040516104c791906129cc565b60405180910390f35b6104ea60048036038101906104e59190612846565b611b5f565b005b6104f4611df9565b6040516105019190612641565b60405180910390f35b610524600480360381019061051f9190612a67565b611dff565b005b61052e611ef7565b60405161053b9190612ab5565b60405180910390f35b6000600580549050905090565b6000806005848154811061056857610567612ad0565b5b9060005260206000209060050201905060006008600086815260200190815260200160002060008573ffffffffffffffffffffffffffffffffffffffff1673ffffffffffffffffffffffffffffffffffffffff168152602001908152602001600020905060008260030154905060008360000160009054906101000a900473ffffffffffffffffffffffffffffffffffffffff1673ffffffffffffffffffffffffffffffffffffffff166370a08231306040518263ffffffff1660e01b815260040161063491906129cc565b602060405180830381865afa158015610651573d6000803e3d6000fd5b505050506040513d601f19601f820116820180604052508101906106759190612b14565b905083600201544311801561068b575060008114155b156107295760006106a0856002015443611a25565b905060006106e36009546106d588600101546106c760035487611f1b90919063ffffffff16565b611f1b90919063ffffffff16565b611f3190919063ffffffff16565b905061072461071584610707670de0b6b3a764000085611f1b90919063ffffffff16565b611f3190919063ffffffff16565b85611f4790919063ffffffff16565b935050505b6107748360010154610766670de0b6b3a764000061075888600301548860000154611f1b90919063ffffffff16565b611f3190919063ffffffff16565b611f5d90919063ffffffff16565b94505050505092915050565b7f000000000000000000000000000000000000000000000000000000000000000081565b600060056000815481106107bb576107ba612ad0565b5b9060005260206000209060050201905060006008600080815260200190815260200160002060003373ffffffffffffffffffffffffffffffffffffffff1673ffffffffffffffffffffffffffffffffffffffff16815260200190815260200160002090508281600001541015610866576040517f08c379a000000000000000000000000000000000000000000000000000000000815260040161085d90612b9e565b60405180910390fd5b610870600061124a565b60006108bd82600101546108af670de0b6b3a76400006108a187600301548760000154611f1b90919063ffffffff16565b611f3190919063ffffffff16565b611f5d90919063ffffffff16565b90506000811115610912576109076040518060400160405280600781526020017f70656e64696e670000000000000000000000000000000000000000000000000081525082611f73565b610911338261200f565b5b600084111561098a57610932848360000154611f5d90919063ffffffff16565b826000018190555061098933858560000160009054906101000a900473ffffffffffffffffffffffffffffffffffffffff1673ffffffffffffffffffffffffffffffffffffffff166120a09092919063ffffffff16565b5b6109bf670de0b6b3a76400006109b185600301548560000154611f1b90919063ffffffff16565b611f3190919063ffffffff16565b82600101819055507f000000000000000000000000000000000000000000000000000000000000000073ffffffffffffffffffffffffffffffffffffffff16639dc29fac33866040518363ffffffff1660e01b8152600401610a22929190612bbe565b600060405180830381600087803b158015610a3c57600080fd5b505af1158015610a50573d6000803e3d6000fd5b5050505060003373ffffffffffffffffffffffffffffffffffffffff167ff279e6a1f5e320cca91135676d9cb6e44ca8a08c0b88342bcdb1144f6511b56886604051610a9c9190612641565b60405180910390a350505050565b60058181548110610aba57600080fd5b90600052602060002090600502016000915090508060000160009054906101000a900473ffffffffffffffffffffffffffffffffffffffff16908060010154908060020154908060030154908060040154905085565b60095481565b610b1e612126565b73ffffffffffffffffffffffffffffffffffffffff16610b3c6119fc565b73ffffffffffffffffffffffffffffffffffffffff1614610b92576040517f08c379a0000000000000000000000000000000000000000000000000000000008152600401610b8990612c33565b60405180910390fd5b8060038190555050565b60006005600081548110610bb357610bb2612ad0565b5b9060005260206000209060050201905060006008600080815260200190815260200160002060003373ffffffffffffffffffffffffffffffffffffffff1673ffffffffffffffffffffffffffffffffffffffff1681526020019081526020016000209050610c21600061124a565b600081600001541115610c93576000610c7b8260010154610c6d670de0b6b3a7640000610c5f87600301548760000154611f1b90919063ffffffff16565b611f3190919063ffffffff16565b611f5d90919063ffffffff16565b90506000811115610c9157610c90338261200f565b5b505b6000831115610d0d57610ced3330858560000160009054906101000a900473ffffffffffffffffffffffffffffffffffffffff1673ffffffffffffffffffffffffffffffffffffffff1661212e909392919063ffffffff16565b610d04838260000154611f4790919063ffffffff16565b81600001819055505b610d42670de0b6b3a7640000610d3484600301548460000154611f1b90919063ffffffff16565b611f3190919063ffffffff16565b81600101819055507f000000000000000000000000000000000000000000000000000000000000000073ffffffffffffffffffffffffffffffffffffffff166340c10f1933856040518363ffffffff1660e01b8152600401610da5929190612bbe565b600060405180830381600087803b158015610dbf57600080fd5b505af1158015610dd3573d6000803e3d6000fd5b5050505060003373ffffffffffffffffffffffffffffffffffffffff167f90890809c654f11d6e72a28fa60149770a0d11ec6c92319d6ceb2bb0a4ea1a1585604051610e1f9190612641565b60405180910390a3505050565b60026001541415610e72576040517f08c379a0000000000000000000000000000000000000000000000000000000008152600401610e6990612c9f565b60405180910390fd5b60026001819055506000821415610ebe576040517f08c379a0000000000000000000000000000000000000000000000000000000008152600401610eb590612d0b565b60405180910390fd5b600060058381548110610ed457610ed3612ad0565b5b9060005260206000209060050201905060006008600085815260200190815260200160002060003373ffffffffffffffffffffffffffffffffffffffff1673ffffffffffffffffffffffffffffffffffffffff16815260200190815260200160002090508281600001541015610f7f576040517f08c379a0000000000000000000000000000000000000000000000000000000008152600401610f7690612b9e565b60405180910390fd5b610f888461124a565b6000610fd58260010154610fc7670de0b6b3a7640000610fb987600301548760000154611f1b90919063ffffffff16565b611f3190919063ffffffff16565b611f5d90919063ffffffff16565b90506000811115610feb57610fea338261200f565b5b60008411156110635761100b848360000154611f5d90919063ffffffff16565b826000018190555061106233858560000160009054906101000a900473ffffffffffffffffffffffffffffffffffffffff1673ffffffffffffffffffffffffffffffffffffffff166120a09092919063ffffffff16565b5b611098670de0b6b3a764000061108a85600301548560000154611f1b90919063ffffffff16565b611f3190919063ffffffff16565b8260010181905550843373ffffffffffffffffffffffffffffffffffffffff167ff279e6a1f5e320cca91135676d9cb6e44ca8a08c0b88342bcdb1144f6511b568866040516110e79190612641565b60405180910390a3505050600180819055505050565b611105612126565b73ffffffffffffffffffffffffffffffffffffffff166111236119fc565b73ffffffffffffffffffffffffffffffffffffffff1614611179576040517f08c379a000000000000000000000000000000000000000000000000000000000815260040161117090612c33565b60405180910390fd5b8015611188576111876116f3565b5b6111d4826111c6600586815481106111a3576111a2612ad0565b5b906000526020600020906005020160010154600954611f5d90919063ffffffff16565b611f4790919063ffffffff16565b6009819055506000600584815481106111f0576111ef612ad0565b5b9060005260206000209060050201600101549050826005858154811061121957611218612ad0565b5b90600052602060002090600502016001018190555082811461123e5761123d6121b7565b5b50505050565b60075481565b6000600582815481106112605761125f612ad0565b5b906000526020600020906005020190508060020154431161128157506114dc565b60008160000160009054906101000a900473ffffffffffffffffffffffffffffffffffffffff1673ffffffffffffffffffffffffffffffffffffffff166370a08231306040518263ffffffff1660e01b81526004016112e091906129cc565b602060405180830381865afa1580156112fd573d6000803e3d6000fd5b505050506040513d601f19601f820116820180604052508101906113219190612b14565b9050600081141561133c5743826002018190555050506114dc565b600061134c836002015443611a25565b9050600061138f600954611381866001015461137360035487611f1b90919063ffffffff16565b611f1b90919063ffffffff16565b611f3190919063ffffffff16565b90507f000000000000000000000000000000000000000000000000000000000000000073ffffffffffffffffffffffffffffffffffffffff166340c10f197f0000000000000000000000000000000000000000000000000000000000000000836040518363ffffffff1660e01b815260040161140c929190612bbe565b600060405180830381600087803b15801561142657600080fd5b505af115801561143a573d6000803e3d6000fd5b5050505061148161146e84611460670de0b6b3a764000085611f1b90919063ffffffff16565b611f3190919063ffffffff16565b8560030154611f4790919063ffffffff16565b8460030181905550438460020181905550847fcb7325664a4a3b7c7223eefc492a97ca4fdf94d46884621e5a8fae5a04b2b9d28560020154600087600301546040516114cf93929190612d66565b60405180910390a2505050505b50565b60026001541415611525576040517f08c379a000000000000000000000000000000000000000000000000000000000815260040161151c90612c9f565b60405180910390fd5b600260018190555060006005828154811061154357611542612ad0565b5b9060005260206000209060050201905060006008600084815260200190815260200160002060003373ffffffffffffffffffffffffffffffffffffffff1673ffffffffffffffffffffffffffffffffffffffff16815260200190815260200160002090506115fa3382600001548460000160009054906101000a900473ffffffffffffffffffffffffffffffffffffffff1673ffffffffffffffffffffffffffffffffffffffff166120a09092919063ffffffff16565b6000816000018190555060008160010181905550823373ffffffffffffffffffffffffffffffffffffffff167fbb757047c2b5f3974fe26b7c10f732e7bce710b0952a71082702781e62ae059583600001546040516116599190612641565b60405180910390a350506001808190555050565b611675612126565b73ffffffffffffffffffffffffffffffffffffffff166116936119fc565b73ffffffffffffffffffffffffffffffffffffffff16146116e9576040517f08c379a00000000000000000000000000000000000000000000000000000000081526004016116e090612c33565b60405180910390fd5b8060048190555050565b6000600580549050905060005b81811015611722576117118161124a565b8061171b90612dcc565b9050611700565b5050565b61172e612126565b73ffffffffffffffffffffffffffffffffffffffff1661174c6119fc565b73ffffffffffffffffffffffffffffffffffffffff16146117a2576040517f08c379a000000000000000000000000000000000000000000000000000000000815260040161179990612c33565b60405180910390fd5b6117ac60006122be565b565b600681815481106117be57600080fd5b906000526020600020016000915054906101000a900473ffffffffffffffffffffffffffffffffffffffff1681565b6117f5612126565b73ffffffffffffffffffffffffffffffffffffffff166118136119fc565b73ffffffffffffffffffffffffffffffffffffffff1614611869576040517f08c379a000000000000000000000000000000000000000000000000000000000815260040161186090612c33565b60405180910390fd5b8015611878576118776116f3565b5b6000600754431161188b5760075461188d565b435b90506118a484600954611f4790919063ffffffff16565b60098190555060056040518060a001604052808573ffffffffffffffffffffffffffffffffffffffff168152602001868152602001838152602001600081526020016000815250908060018154018082558091505060019003906000526020600020906005020160009091909190915060008201518160000160006101000a81548173ffffffffffffffffffffffffffffffffffffffff021916908373ffffffffffffffffffffffffffffffffffffffff1602179055506020820151816001015560408201518160020155606082015181600301556080820151816004015550506006839080600181540180825580915050600190039060005260206000200160009091909190916101000a81548173ffffffffffffffffffffffffffffffffffffffff021916908373ffffffffffffffffffffffffffffffffffffffff1602179055506119f06121b7565b50505050565b60045481565b60008060009054906101000a900473ffffffffffffffffffffffffffffffffffffffff16905090565b6000611a4e600454611a408585611f5d90919063ffffffff16565b611f1b90919063ffffffff16565b905092915050565b6008602052816000526040600020602052806000526040600020600091509150508060000154908060010154905082565b600080600680549050905060005b81811015611b2d578373ffffffffffffffffffffffffffffffffffffffff1660068281548110611ac857611ac7612ad0565b5b9060005260206000200160009054906101000a900473ffffffffffffffffffffffffffffffffffffffff1673ffffffffffffffffffffffffffffffffffffffff161415611b1a57600192505050611b34565b8080611b2590612dcc565b915050611a95565b5060009150505b919050565b600260009054906101000a900473ffffffffffffffffffffffffffffffffffffffff1681565b60026001541415611ba5576040517f08c379a0000000000000000000000000000000000000000000000000000000008152600401611b9c90612c9f565b60405180910390fd5b60026001819055506000821415611bf1576040517f08c379a0000000000000000000000000000000000000000000000000000000008152600401611be890612e61565b60405180910390fd5b600060058381548110611c0757611c06612ad0565b5b9060005260206000209060050201905060006008600085815260200190815260200160002060003373ffffffffffffffffffffffffffffffffffffffff1673ffffffffffffffffffffffffffffffffffffffff1681526020019081526020016000209050611c748461124a565b600081600001541115611ce6576000611cce8260010154611cc0670de0b6b3a7640000611cb287600301548760000154611f1b90919063ffffffff16565b611f3190919063ffffffff16565b611f5d90919063ffffffff16565b90506000811115611ce457611ce3338261200f565b5b505b6000831115611d6057611d403330858560000160009054906101000a900473ffffffffffffffffffffffffffffffffffffffff1673ffffffffffffffffffffffffffffffffffffffff1661212e909392919063ffffffff16565b611d57838260000154611f4790919063ffffffff16565b81600001819055505b611d95670de0b6b3a7640000611d8784600301548460000154611f1b90919063ffffffff16565b611f3190919063ffffffff16565b8160010181905550833373ffffffffffffffffffffffffffffffffffffffff167f90890809c654f11d6e72a28fa60149770a0d11ec6c92319d6ceb2bb0a4ea1a1585604051611de49190612641565b60405180910390a35050600180819055505050565b60035481565b611e07612126565b73ffffffffffffffffffffffffffffffffffffffff16611e256119fc565b73ffffffffffffffffffffffffffffffffffffffff1614611e7b576040517f08c379a0000000000000000000000000000000000000000000000000000000008152600401611e7290612c33565b60405180910390fd5b600073ffffffffffffffffffffffffffffffffffffffff168173ffffffffffffffffffffffffffffffffffffffff161415611eeb576040517f08c379a0000000000000000000000000000000000000000000000000000000008152600401611ee290612ef3565b60405180910390fd5b611ef4816122be565b50565b7f000000000000000000000000000000000000000000000000000000000000000081565b60008183611f299190612f13565b905092915050565b60008183611f3f9190612f9c565b905092915050565b60008183611f559190612fcd565b905092915050565b60008183611f6b9190613023565b905092915050565b61200b8282604051602401611f899291906130df565b6040516020818303038152906040527f9710a9d0000000000000000000000000000000000000000000000000000000007bffffffffffffffffffffffffffffffffffffffffffffffffffffffff19166020820180517bffffffffffffffffffffffffffffffffffffffffffffffffffffffff8381831617835250505050612382565b5050565b7f000000000000000000000000000000000000000000000000000000000000000073ffffffffffffffffffffffffffffffffffffffff1663a6a0e58183836040518363ffffffff1660e01b815260040161206a929190612bbe565b600060405180830381600087803b15801561208457600080fd5b505af1158015612098573d6000803e3d6000fd5b505050505050565b6121218363a9059cbb60e01b84846040516024016120bf929190612bbe565b604051602081830303815290604052907bffffffffffffffffffffffffffffffffffffffffffffffffffffffff19166020820180517bffffffffffffffffffffffffffffffffffffffffffffffffffffffff83818316178352505050506123ab565b505050565b600033905090565b6121b1846323b872dd60e01b85858560405160240161214f9392919061310f565b604051602081830303815290604052907bffffffffffffffffffffffffffffffffffffffffffffffffffffffff19166020820180517bffffffffffffffffffffffffffffffffffffffffffffffffffffffff83818316178352505050506123ab565b50505050565b60006005805490509050600080600190505b8281101561221c57612209600582815481106121e8576121e7612ad0565b5b90600052602060002090600502016001015483611f4790919063ffffffff16565b91508061221590612dcc565b90506121c9565b50600081146122ba57612239600382611f3190919063ffffffff16565b90506122888161227a600560008154811061225757612256612ad0565b5b906000526020600020906005020160010154600954611f5d90919063ffffffff16565b611f4790919063ffffffff16565b6009819055508060056000815481106122a4576122a3612ad0565b5b9060005260206000209060050201600101819055505b5050565b60008060009054906101000a900473ffffffffffffffffffffffffffffffffffffffff169050816000806101000a81548173ffffffffffffffffffffffffffffffffffffffff021916908373ffffffffffffffffffffffffffffffffffffffff1602179055508173ffffffffffffffffffffffffffffffffffffffff168173ffffffffffffffffffffffffffffffffffffffff167f8be0079c531659141344cd1fd0a4f28419497f9722a3daafe3b4186f6b6457e060405160405180910390a35050565b60008151905060006a636f6e736f6c652e6c6f679050602083016000808483855afa5050505050565b600061240d826040518060400160405280602081526020017f5361666545524332303a206c6f772d6c6576656c2063616c6c206661696c65648152508573ffffffffffffffffffffffffffffffffffffffff166124729092919063ffffffff16565b905060008151111561246d578080602001905181019061242d919061315b565b61246c576040517f08c379a0000000000000000000000000000000000000000000000000000000008152600401612463906131fa565b60405180910390fd5b5b505050565b6060612481848460008561248a565b90509392505050565b6060824710156124cf576040517f08c379a00000000000000000000000000000000000000000000000000000000081526004016124c69061328c565b60405180910390fd5b6124d88561259e565b612517576040517f08c379a000000000000000000000000000000000000000000000000000000000815260040161250e906132f8565b60405180910390fd5b6000808673ffffffffffffffffffffffffffffffffffffffff168587604051612540919061335f565b60006040518083038185875af1925050503d806000811461257d576040519150601f19603f3d011682016040523d82523d6000602084013e612582565b606091505b50915091506125928282866125c1565b92505050949350505050565b6000808273ffffffffffffffffffffffffffffffffffffffff163b119050919050565b606083156125d157829050612621565b6000835111156125e45782518084602001fd5b816040517f08c379a00000000000000000000000000000000000000000000000000000000081526004016126189190613376565b60405180910390fd5b9392505050565b6000819050919050565b61263b81612628565b82525050565b60006020820190506126566000830184612632565b92915050565b600080fd5b61266a81612628565b811461267557600080fd5b50565b60008135905061268781612661565b92915050565b600073ffffffffffffffffffffffffffffffffffffffff82169050919050565b60006126b88261268d565b9050919050565b6126c8816126ad565b81146126d357600080fd5b50565b6000813590506126e5816126bf565b92915050565b600080604083850312156127025761270161265c565b5b600061271085828601612678565b9250506020612721858286016126d6565b9150509250929050565b6000819050919050565b600061275061274b6127468461268d565b61272b565b61268d565b9050919050565b600061276282612735565b9050919050565b600061277482612757565b9050919050565b61278481612769565b82525050565b600060208201905061279f600083018461277b565b92915050565b6000602082840312156127bb576127ba61265c565b5b60006127c984828501612678565b91505092915050565b60006127dd82612757565b9050919050565b6127ed816127d2565b82525050565b600060a08201905061280860008301886127e4565b6128156020830187612632565b6128226040830186612632565b61282f6060830185612632565b61283c6080830184612632565b9695505050505050565b6000806040838503121561285d5761285c61265c565b5b600061286b85828601612678565b925050602061287c85828601612678565b9150509250929050565b60008115159050919050565b61289b81612886565b81146128a657600080fd5b50565b6000813590506128b881612892565b92915050565b6000806000606084860312156128d7576128d661265c565b5b60006128e586828701612678565b93505060206128f686828701612678565b9250506040612907868287016128a9565b9150509250925092565b600060208201905061292660008301846127e4565b92915050565b6000612937826126ad565b9050919050565b6129478161292c565b811461295257600080fd5b50565b6000813590506129648161293e565b92915050565b6000806000606084860312156129835761298261265c565b5b600061299186828701612678565b93505060206129a286828701612955565b92505060406129b3868287016128a9565b9150509250925092565b6129c6816126ad565b82525050565b60006020820190506129e160008301846129bd565b92915050565b60006040820190506129fc6000830185612632565b612a096020830184612632565b9392505050565b600060208284031215612a2657612a2561265c565b5b6000612a3484828501612955565b91505092915050565b612a4681612886565b82525050565b6000602082019050612a616000830184612a3d565b92915050565b600060208284031215612a7d57612a7c61265c565b5b6000612a8b848285016126d6565b91505092915050565b6000612a9f82612757565b9050919050565b612aaf81612a94565b82525050565b6000602082019050612aca6000830184612aa6565b92915050565b7f4e487b7100000000000000000000000000000000000000000000000000000000600052603260045260246000fd5b600081519050612b0e81612661565b92915050565b600060208284031215612b2a57612b2961265c565b5b6000612b3884828501612aff565b91505092915050565b600082825260208201905092915050565b7f77697468647261773a206e6f7420676f6f640000000000000000000000000000600082015250565b6000612b88601283612b41565b9150612b9382612b52565b602082019050919050565b60006020820190508181036000830152612bb781612b7b565b9050919050565b6000604082019050612bd360008301856129bd565b612be06020830184612632565b9392505050565b7f4f776e61626c653a2063616c6c6572206973206e6f7420746865206f776e6572600082015250565b6000612c1d602083612b41565b9150612c2882612be7565b602082019050919050565b60006020820190508181036000830152612c4c81612c10565b9050919050565b7f5265656e7472616e637947756172643a207265656e7472616e742063616c6c00600082015250565b6000612c89601f83612b41565b9150612c9482612c53565b602082019050919050565b60006020820190508181036000830152612cb881612c7c565b9050919050565b7f776974686472617720504c465920627920756e7374616b696e67000000000000600082015250565b6000612cf5601a83612b41565b9150612d0082612cbf565b602082019050919050565b60006020820190508181036000830152612d2481612ce8565b9050919050565b6000819050919050565b6000612d50612d4b612d4684612d2b565b61272b565b612628565b9050919050565b612d6081612d35565b82525050565b6000606082019050612d7b6000830186612632565b612d886020830185612d57565b612d956040830184612632565b949350505050565b7f4e487b7100000000000000000000000000000000000000000000000000000000600052601160045260246000fd5b6000612dd782612628565b91507fffffffffffffffffffffffffffffffffffffffffffffffffffffffffffffffff821415612e0a57612e09612d9d565b5b600182019050919050565b7f6465706f73697420504c4659206279207374616b696e67000000000000000000600082015250565b6000612e4b601783612b41565b9150612e5682612e15565b602082019050919050565b60006020820190508181036000830152612e7a81612e3e565b9050919050565b7f4f776e61626c653a206e6577206f776e657220697320746865207a65726f206160008201527f6464726573730000000000000000000000000000000000000000000000000000602082015250565b6000612edd602683612b41565b9150612ee882612e81565b604082019050919050565b60006020820190508181036000830152612f0c81612ed0565b9050919050565b6000612f1e82612628565b9150612f2983612628565b9250817fffffffffffffffffffffffffffffffffffffffffffffffffffffffffffffffff0483118215151615612f6257612f61612d9d565b5b828202905092915050565b7f4e487b7100000000000000000000000000000000000000000000000000000000600052601260045260246000fd5b6000612fa782612628565b9150612fb283612628565b925082612fc257612fc1612f6d565b5b828204905092915050565b6000612fd882612628565b9150612fe383612628565b9250827fffffffffffffffffffffffffffffffffffffffffffffffffffffffffffffffff0382111561301857613017612d9d565b5b828201905092915050565b600061302e82612628565b915061303983612628565b92508282101561304c5761304b612d9d565b5b828203905092915050565b600081519050919050565b60005b83811015613080578082015181840152602081019050613065565b8381111561308f576000848401525b50505050565b6000601f19601f8301169050919050565b60006130b182613057565b6130bb8185612b41565b93506130cb818560208601613062565b6130d481613095565b840191505092915050565b600060408201905081810360008301526130f981856130a6565b90506131086020830184612632565b9392505050565b600060608201905061312460008301866129bd565b61313160208301856129bd565b61313e6040830184612632565b949350505050565b60008151905061315581612892565b92915050565b6000602082840312156131715761317061265c565b5b600061317f84828501613146565b91505092915050565b7f5361666545524332303a204552433230206f7065726174696f6e20646964206e60008201527f6f74207375636365656400000000000000000000000000000000000000000000602082015250565b60006131e4602a83612b41565b91506131ef82613188565b604082019050919050565b60006020820190508181036000830152613213816131d7565b9050919050565b7f416464726573733a20696e73756666696369656e742062616c616e636520666f60008201527f722063616c6c0000000000000000000000000000000000000000000000000000602082015250565b6000613276602683612b41565b91506132818261321a565b604082019050919050565b600060208201905081810360008301526132a581613269565b9050919050565b7f416464726573733a2063616c6c20746f206e6f6e2d636f6e7472616374000000600082015250565b60006132e2601d83612b41565b91506132ed826132ac565b602082019050919050565b60006020820190508181036000830152613311816132d5565b9050919050565b600081519050919050565b600081905092915050565b600061333982613318565b6133438185613323565b9350613353818560208601613062565b80840191505092915050565b600061336b828461332e565b915081905092915050565b6000602082019050818103600083015261339081846130a6565b90509291505056fea26469706673582212200e945337df5741e1d6553125f9d4a307f6f9d2406a37e482505396244568514d64736f6c634300080b0033",
  "linkReferences": {},
  "deployedLinkReferences": {}
}