{
  "_format": "hh-sol-artifact-1",
  "contractName": "VestingWallet",
  "sourceName": "src/contracts/vesting/PoolifyLaunchVesting.sol",
  "abi": [
    {
      "inputs": [
        {
          "internalType": "address",
          "name": "beneficiaryAddress",
          "type": "address"
        },
        {
          "internalType": "uint64",
          "name": "startTimestamp",
          "type": "uint64"
        },
        {
          "internalType": "uint64",
          "name": "durationSeconds",
          "type": "uint64"
        }
      ],
      "stateMutability": "nonpayable",
      "type": "constructor"
    },
    {
      "anonymous": false,
      "inputs": [
        {
          "indexed": true,
          "internalType": "address",
          "name": "token",
          "type": "address"
        },
        {
          "indexed": false,
          "internalType": "uint256",
          "name": "amount",
          "type": "uint256"
        }
      ],
      "name": "ERC20Released",
      "type": "event"
    },
    {
      "anonymous": false,
      "inputs": [
        {
          "indexed": false,
          "internalType": "uint256",
          "name": "amount",
          "type": "uint256"
        }
      ],
      "name": "EtherReleased",
      "type": "event"
    },
    {
      "inputs": [],
      "name": "beneficiary",
      "outputs": [
        {
          "internalType": "address",
          "name": "",
          "type": "address"
        }
      ],
      "stateMutability": "view",
      "type": "function"
    },
    {
      "inputs": [],
      "name": "duration",
      "outputs": [
        {
          "internalType": "uint256",
          "name": "",
          "type": "uint256"
        }
      ],
      "stateMutability": "view",
      "type": "function"
    },
    {
      "inputs": [
        {
          "internalType": "address",
          "name": "token",
          "type": "address"
        }
      ],
      "name": "release",
      "outputs": [],
      "stateMutability": "nonpayable",
      "type": "function"
    },
    {
      "inputs": [],
      "name": "release",
      "outputs": [],
      "stateMutability": "nonpayable",
      "type": "function"
    },
    {
      "inputs": [],
      "name": "released",
      "outputs": [
        {
          "internalType": "uint256",
          "name": "",
          "type": "uint256"
        }
      ],
      "stateMutability": "view",
      "type": "function"
    },
    {
      "inputs": [
        {
          "internalType": "address",
          "name": "token",
          "type": "address"
        }
      ],
      "name": "released",
      "outputs": [
        {
          "internalType": "uint256",
          "name": "",
          "type": "uint256"
        }
      ],
      "stateMutability": "view",
      "type": "function"
    },
    {
      "inputs": [],
      "name": "start",
      "outputs": [
        {
          "internalType": "uint256",
          "name": "",
          "type": "uint256"
        }
      ],
      "stateMutability": "view",
      "type": "function"
    },
    {
      "inputs": [
        {
          "internalType": "uint64",
          "name": "timestamp",
          "type": "uint64"
        }
      ],
      "name": "vestedAmount",
      "outputs": [
        {
          "internalType": "uint256",
          "name": "",
          "type": "uint256"
        }
      ],
      "stateMutability": "view",
      "type": "function"
    },
    {
      "inputs": [
        {
          "internalType": "address",
          "name": "token",
          "type": "address"
        },
        {
          "internalType": "uint64",
          "name": "timestamp",
          "type": "uint64"
        }
      ],
      "name": "vestedAmount",
      "outputs": [
        {
          "internalType": "uint256",
          "name": "",
          "type": "uint256"
        }
      ],
      "stateMutability": "view",
      "type": "function"
    },
    {
      "stateMutability": "payable",
      "type": "receive"
    }
  ],
  "bytecode": "0x60e06040523480156200001157600080fd5b50604051620014da380380620014da8339818101604052810190620000379190620001ce565b600073ffffffffffffffffffffffffffffffffffffffff168373ffffffffffffffffffffffffffffffffffffffff161415620000aa576040517f08c379a0000000000000000000000000000000000000000000000000000000008152600401620000a190620002b1565b60405180910390fd5b8273ffffffffffffffffffffffffffffffffffffffff1660808173ffffffffffffffffffffffffffffffffffffffff16815250508167ffffffffffffffff1660a08167ffffffffffffffff16815250508067ffffffffffffffff1660c08167ffffffffffffffff1681525050505050620002d3565b600080fd5b600073ffffffffffffffffffffffffffffffffffffffff82169050919050565b6000620001518262000124565b9050919050565b620001638162000144565b81146200016f57600080fd5b50565b600081519050620001838162000158565b92915050565b600067ffffffffffffffff82169050919050565b620001a88162000189565b8114620001b457600080fd5b50565b600081519050620001c8816200019d565b92915050565b600080600060608486031215620001ea57620001e96200011f565b5b6000620001fa8682870162000172565b93505060206200020d86828701620001b7565b92505060406200022086828701620001b7565b9150509250925092565b600082825260208201905092915050565b7f56657374696e6757616c6c65743a2062656e6566696369617279206973207a6560008201527f726f206164647265737300000000000000000000000000000000000000000000602082015250565b600062000299602a836200022a565b9150620002a6826200023b565b604082019050919050565b60006020820190508181036000830152620002cc816200028a565b9050919050565b60805160a05160c0516111d76200030360003960006102620152600061050b0152600061036f01526111d76000f3fe60806040526004361061008a5760003560e01c8063810ec23b11610059578063810ec23b1461015257806386d1a69f1461018f57806396132521146101a65780639852595c146101d1578063be9a65551461020e57610091565b80630a17b06b146100965780630fb5a6b4146100d357806319165587146100fe57806338af3eed1461012757610091565b3661009157005b600080fd5b3480156100a257600080fd5b506100bd60048036038101906100b89190610a0f565b610239565b6040516100ca9190610a55565b60405180910390f35b3480156100df57600080fd5b506100e861025e565b6040516100f59190610a55565b60405180910390f35b34801561010a57600080fd5b5061012560048036038101906101209190610ace565b610290565b005b34801561013357600080fd5b5061013c61036b565b6040516101499190610b0a565b60405180910390f35b34801561015e57600080fd5b5061017960048036038101906101749190610b25565b610393565b6040516101869190610a55565b60405180910390f35b34801561019b57600080fd5b506101a4610433565b005b3480156101b257600080fd5b506101bb6104b5565b6040516101c89190610a55565b60405180910390f35b3480156101dd57600080fd5b506101f860048036038101906101f39190610ace565b6104be565b6040516102059190610a55565b60405180910390f35b34801561021a57600080fd5b50610223610507565b6040516102309190610a55565b60405180910390f35b60006102576102466104b5565b476102519190610b94565b83610539565b9050919050565b60007f000000000000000000000000000000000000000000000000000000000000000067ffffffffffffffff16905090565b600061029b826104be565b6102a58342610393565b6102af9190610bea565b905080600160008473ffffffffffffffffffffffffffffffffffffffff1673ffffffffffffffffffffffffffffffffffffffff16815260200190815260200160002060008282546103009190610b94565b925050819055508173ffffffffffffffffffffffffffffffffffffffff167fc0e523490dd523c33b1878c9eb14ff46991e3f5b2cd33710918618f2a39cba1b8260405161034d9190610a55565b60405180910390a26103678261036161036b565b836105d3565b5050565b60007f0000000000000000000000000000000000000000000000000000000000000000905090565b600061042b6103a1846104be565b8473ffffffffffffffffffffffffffffffffffffffff166370a08231306040518263ffffffff1660e01b81526004016103da9190610b0a565b602060405180830381865afa1580156103f7573d6000803e3d6000fd5b505050506040513d601f19601f8201168201806040525081019061041b9190610c4a565b6104259190610b94565b83610539565b905092915050565b600061043d6104b5565b61044642610239565b6104509190610bea565b9050806000808282546104639190610b94565b925050819055507fda9d4e5f101b8b9b1c5b76d0c5a9f7923571acfc02376aa076b75a8c080c956b816040516104999190610a55565b60405180910390a16104b26104ac61036b565b82610659565b50565b60008054905090565b6000600160008373ffffffffffffffffffffffffffffffffffffffff1673ffffffffffffffffffffffffffffffffffffffff168152602001908152602001600020549050919050565b60007f000000000000000000000000000000000000000000000000000000000000000067ffffffffffffffff16905090565b6000610543610507565b8267ffffffffffffffff16101561055d57600090506105cd565b61056561025e565b61056d610507565b6105779190610b94565b8267ffffffffffffffff161115610590578290506105cd565b61059861025e565b6105a0610507565b8367ffffffffffffffff166105b59190610bea565b846105c09190610c77565b6105ca9190610d00565b90505b92915050565b6106548363a9059cbb60e01b84846040516024016105f2929190610d31565b604051602081830303815290604052907bffffffffffffffffffffffffffffffffffffffffffffffffffffffff19166020820180517bffffffffffffffffffffffffffffffffffffffffffffffffffffffff838183161783525050505061074d565b505050565b8047101561069c576040517f08c379a000000000000000000000000000000000000000000000000000000000815260040161069390610db7565b60405180910390fd5b60008273ffffffffffffffffffffffffffffffffffffffff16826040516106c290610e08565b60006040518083038185875af1925050503d80600081146106ff576040519150601f19603f3d011682016040523d82523d6000602084013e610704565b606091505b5050905080610748576040517f08c379a000000000000000000000000000000000000000000000000000000000815260040161073f90610e8f565b60405180910390fd5b505050565b60006107af826040518060400160405280602081526020017f5361666545524332303a206c6f772d6c6576656c2063616c6c206661696c65648152508573ffffffffffffffffffffffffffffffffffffffff166108149092919063ffffffff16565b905060008151111561080f57808060200190518101906107cf9190610ee7565b61080e576040517f08c379a000000000000000000000000000000000000000000000000000000000815260040161080590610f86565b60405180910390fd5b5b505050565b6060610823848460008561082c565b90509392505050565b606082471015610871576040517f08c379a000000000000000000000000000000000000000000000000000000000815260040161086890611018565b60405180910390fd5b61087a85610940565b6108b9576040517f08c379a00000000000000000000000000000000000000000000000000000000081526004016108b090611084565b60405180910390fd5b6000808673ffffffffffffffffffffffffffffffffffffffff1685876040516108e29190611113565b60006040518083038185875af1925050503d806000811461091f576040519150601f19603f3d011682016040523d82523d6000602084013e610924565b606091505b5091509150610934828286610963565b92505050949350505050565b6000808273ffffffffffffffffffffffffffffffffffffffff163b119050919050565b60608315610973578290506109c3565b6000835111156109865782518084602001fd5b816040517f08c379a00000000000000000000000000000000000000000000000000000000081526004016109ba919061117f565b60405180910390fd5b9392505050565b600080fd5b600067ffffffffffffffff82169050919050565b6109ec816109cf565b81146109f757600080fd5b50565b600081359050610a09816109e3565b92915050565b600060208284031215610a2557610a246109ca565b5b6000610a33848285016109fa565b91505092915050565b6000819050919050565b610a4f81610a3c565b82525050565b6000602082019050610a6a6000830184610a46565b92915050565b600073ffffffffffffffffffffffffffffffffffffffff82169050919050565b6000610a9b82610a70565b9050919050565b610aab81610a90565b8114610ab657600080fd5b50565b600081359050610ac881610aa2565b92915050565b600060208284031215610ae457610ae36109ca565b5b6000610af284828501610ab9565b91505092915050565b610b0481610a90565b82525050565b6000602082019050610b1f6000830184610afb565b92915050565b60008060408385031215610b3c57610b3b6109ca565b5b6000610b4a85828601610ab9565b9250506020610b5b858286016109fa565b9150509250929050565b7f4e487b7100000000000000000000000000000000000000000000000000000000600052601160045260246000fd5b6000610b9f82610a3c565b9150610baa83610a3c565b9250827fffffffffffffffffffffffffffffffffffffffffffffffffffffffffffffffff03821115610bdf57610bde610b65565b5b828201905092915050565b6000610bf582610a3c565b9150610c0083610a3c565b925082821015610c1357610c12610b65565b5b828203905092915050565b610c2781610a3c565b8114610c3257600080fd5b50565b600081519050610c4481610c1e565b92915050565b600060208284031215610c6057610c5f6109ca565b5b6000610c6e84828501610c35565b91505092915050565b6000610c8282610a3c565b9150610c8d83610a3c565b9250817fffffffffffffffffffffffffffffffffffffffffffffffffffffffffffffffff0483118215151615610cc657610cc5610b65565b5b828202905092915050565b7f4e487b7100000000000000000000000000000000000000000000000000000000600052601260045260246000fd5b6000610d0b82610a3c565b9150610d1683610a3c565b925082610d2657610d25610cd1565b5b828204905092915050565b6000604082019050610d466000830185610afb565b610d536020830184610a46565b9392505050565b600082825260208201905092915050565b7f416464726573733a20696e73756666696369656e742062616c616e6365000000600082015250565b6000610da1601d83610d5a565b9150610dac82610d6b565b602082019050919050565b60006020820190508181036000830152610dd081610d94565b9050919050565b600081905092915050565b50565b6000610df2600083610dd7565b9150610dfd82610de2565b600082019050919050565b6000610e1382610de5565b9150819050919050565b7f416464726573733a20756e61626c6520746f2073656e642076616c75652c207260008201527f6563697069656e74206d61792068617665207265766572746564000000000000602082015250565b6000610e79603a83610d5a565b9150610e8482610e1d565b604082019050919050565b60006020820190508181036000830152610ea881610e6c565b9050919050565b60008115159050919050565b610ec481610eaf565b8114610ecf57600080fd5b50565b600081519050610ee181610ebb565b92915050565b600060208284031215610efd57610efc6109ca565b5b6000610f0b84828501610ed2565b91505092915050565b7f5361666545524332303a204552433230206f7065726174696f6e20646964206e60008201527f6f74207375636365656400000000000000000000000000000000000000000000602082015250565b6000610f70602a83610d5a565b9150610f7b82610f14565b604082019050919050565b60006020820190508181036000830152610f9f81610f63565b9050919050565b7f416464726573733a20696e73756666696369656e742062616c616e636520666f60008201527f722063616c6c0000000000000000000000000000000000000000000000000000602082015250565b6000611002602683610d5a565b915061100d82610fa6565b604082019050919050565b6000602082019050818103600083015261103181610ff5565b9050919050565b7f416464726573733a2063616c6c20746f206e6f6e2d636f6e7472616374000000600082015250565b600061106e601d83610d5a565b915061107982611038565b602082019050919050565b6000602082019050818103600083015261109d81611061565b9050919050565b600081519050919050565b60005b838110156110cd5780820151818401526020810190506110b2565b838111156110dc576000848401525b50505050565b60006110ed826110a4565b6110f78185610dd7565b93506111078185602086016110af565b80840191505092915050565b600061111f82846110e2565b915081905092915050565b600081519050919050565b6000601f19601f8301169050919050565b60006111518261112a565b61115b8185610d5a565b935061116b8185602086016110af565b61117481611135565b840191505092915050565b600060208201905081810360008301526111998184611146565b90509291505056fea26469706673582212205d14af6b1a2d678750f141f98af33e8c131a7d36cace4d875072485f4da53cdd64736f6c634300080b0033",
  "linkReferences": {},
  "deployedLinkReferences": {}
}