{
  "_format": "hh-sol-artifact-1",
  "contractName": "PLFYToken",
  "sourceName": "contracts/tokens/PLFYToken.sol",
  "abi": [
    {
      "inputs": [],
      "stateMutability": "nonpayable",
      "type": "constructor"
    },
    {
      "anonymous": false,
      "inputs": [
        {
          "indexed": true,
          "internalType": "address",
          "name": "owner",
          "type": "address"
        },
        {
          "indexed": true,
          "internalType": "address",
          "name": "spender",
          "type": "address"
        },
        {
          "indexed": false,
          "internalType": "uint256",
          "name": "value",
          "type": "uint256"
        }
      ],
      "name": "Approval",
      "type": "event"
    },
    {
      "anonymous": false,
      "inputs": [
        {
          "indexed": true,
          "internalType": "address",
          "name": "delegator",
          "type": "address"
        },
        {
          "indexed": true,
          "internalType": "address",
          "name": "fromDelegate",
          "type": "address"
        },
        {
          "indexed": true,
          "internalType": "address",
          "name": "toDelegate",
          "type": "address"
        }
      ],
      "name": "DelegateChanged",
      "type": "event"
    },
    {
      "anonymous": false,
      "inputs": [
        {
          "indexed": true,
          "internalType": "address",
          "name": "delegate",
          "type": "address"
        },
        {
          "indexed": false,
          "internalType": "uint256",
          "name": "previousBalance",
          "type": "uint256"
        },
        {
          "indexed": false,
          "internalType": "uint256",
          "name": "newBalance",
          "type": "uint256"
        }
      ],
      "name": "DelegateVotesChanged",
      "type": "event"
    },
    {
      "anonymous": false,
      "inputs": [
        {
          "indexed": false,
          "internalType": "address",
          "name": "account",
          "type": "address"
        }
      ],
      "name": "Paused",
      "type": "event"
    },
    {
      "anonymous": false,
      "inputs": [
        {
          "indexed": true,
          "internalType": "bytes32",
          "name": "role",
          "type": "bytes32"
        },
        {
          "indexed": true,
          "internalType": "bytes32",
          "name": "previousAdminRole",
          "type": "bytes32"
        },
        {
          "indexed": true,
          "internalType": "bytes32",
          "name": "newAdminRole",
          "type": "bytes32"
        }
      ],
      "name": "RoleAdminChanged",
      "type": "event"
    },
    {
      "anonymous": false,
      "inputs": [
        {
          "indexed": true,
          "internalType": "bytes32",
          "name": "role",
          "type": "bytes32"
        },
        {
          "indexed": true,
          "internalType": "address",
          "name": "account",
          "type": "address"
        },
        {
          "indexed": true,
          "internalType": "address",
          "name": "sender",
          "type": "address"
        }
      ],
      "name": "RoleGranted",
      "type": "event"
    },
    {
      "anonymous": false,
      "inputs": [
        {
          "indexed": true,
          "internalType": "bytes32",
          "name": "role",
          "type": "bytes32"
        },
        {
          "indexed": true,
          "internalType": "address",
          "name": "account",
          "type": "address"
        },
        {
          "indexed": true,
          "internalType": "address",
          "name": "sender",
          "type": "address"
        }
      ],
      "name": "RoleRevoked",
      "type": "event"
    },
    {
      "anonymous": false,
      "inputs": [
        {
          "indexed": true,
          "internalType": "address",
          "name": "from",
          "type": "address"
        },
        {
          "indexed": true,
          "internalType": "address",
          "name": "to",
          "type": "address"
        },
        {
          "indexed": false,
          "internalType": "uint256",
          "name": "value",
          "type": "uint256"
        }
      ],
      "name": "Transfer",
      "type": "event"
    },
    {
      "anonymous": false,
      "inputs": [
        {
          "indexed": false,
          "internalType": "address",
          "name": "account",
          "type": "address"
        }
      ],
      "name": "Unpaused",
      "type": "event"
    },
    {
      "inputs": [],
      "name": "DEFAULT_ADMIN_ROLE",
      "outputs": [
        {
          "internalType": "bytes32",
          "name": "",
          "type": "bytes32"
        }
      ],
      "stateMutability": "view",
      "type": "function"
    },
    {
      "inputs": [],
      "name": "DOMAIN_SEPARATOR",
      "outputs": [
        {
          "internalType": "bytes32",
          "name": "",
          "type": "bytes32"
        }
      ],
      "stateMutability": "view",
      "type": "function"
    },
    {
      "inputs": [],
      "name": "MINTER_ROLE",
      "outputs": [
        {
          "internalType": "bytes32",
          "name": "",
          "type": "bytes32"
        }
      ],
      "stateMutability": "view",
      "type": "function"
    },
    {
      "inputs": [],
      "name": "PAUSER_ROLE",
      "outputs": [
        {
          "internalType": "bytes32",
          "name": "",
          "type": "bytes32"
        }
      ],
      "stateMutability": "view",
      "type": "function"
    },
    {
      "inputs": [
        {
          "internalType": "address",
          "name": "owner",
          "type": "address"
        },
        {
          "internalType": "address",
          "name": "spender",
          "type": "address"
        }
      ],
      "name": "allowance",
      "outputs": [
        {
          "internalType": "uint256",
          "name": "",
          "type": "uint256"
        }
      ],
      "stateMutability": "view",
      "type": "function"
    },
    {
      "inputs": [
        {
          "internalType": "address",
          "name": "spender",
          "type": "address"
        },
        {
          "internalType": "uint256",
          "name": "amount",
          "type": "uint256"
        }
      ],
      "name": "approve",
      "outputs": [
        {
          "internalType": "bool",
          "name": "",
          "type": "bool"
        }
      ],
      "stateMutability": "nonpayable",
      "type": "function"
    },
    {
      "inputs": [
        {
          "internalType": "address",
          "name": "account",
          "type": "address"
        }
      ],
      "name": "balanceOf",
      "outputs": [
        {
          "internalType": "uint256",
          "name": "",
          "type": "uint256"
        }
      ],
      "stateMutability": "view",
      "type": "function"
    },
    {
      "inputs": [
        {
          "internalType": "uint256",
          "name": "amount",
          "type": "uint256"
        }
      ],
      "name": "burn",
      "outputs": [],
      "stateMutability": "nonpayable",
      "type": "function"
    },
    {
      "inputs": [
        {
          "internalType": "address",
          "name": "account",
          "type": "address"
        },
        {
          "internalType": "uint256",
          "name": "amount",
          "type": "uint256"
        }
      ],
      "name": "burnFrom",
      "outputs": [],
      "stateMutability": "nonpayable",
      "type": "function"
    },
    {
      "inputs": [],
      "name": "cap",
      "outputs": [
        {
          "internalType": "uint256",
          "name": "",
          "type": "uint256"
        }
      ],
      "stateMutability": "pure",
      "type": "function"
    },
    {
      "inputs": [
        {
          "internalType": "address",
          "name": "account",
          "type": "address"
        },
        {
          "internalType": "uint32",
          "name": "pos",
          "type": "uint32"
        }
      ],
      "name": "checkpoints",
      "outputs": [
        {
          "components": [
            {
              "internalType": "uint32",
              "name": "fromBlock",
              "type": "uint32"
            },
            {
              "internalType": "uint224",
              "name": "votes",
              "type": "uint224"
            }
          ],
          "internalType": "struct ERC20Votes.Checkpoint",
          "name": "",
          "type": "tuple"
        }
      ],
      "stateMutability": "view",
      "type": "function"
    },
    {
      "inputs": [],
      "name": "decimals",
      "outputs": [
        {
          "internalType": "uint8",
          "name": "",
          "type": "uint8"
        }
      ],
      "stateMutability": "view",
      "type": "function"
    },
    {
      "inputs": [
        {
          "internalType": "address",
          "name": "spender",
          "type": "address"
        },
        {
          "internalType": "uint256",
          "name": "subtractedValue",
          "type": "uint256"
        }
      ],
      "name": "decreaseAllowance",
      "outputs": [
        {
          "internalType": "bool",
          "name": "",
          "type": "bool"
        }
      ],
      "stateMutability": "nonpayable",
      "type": "function"
    },
    {
      "inputs": [
        {
          "internalType": "address",
          "name": "delegatee",
          "type": "address"
        }
      ],
      "name": "delegate",
      "outputs": [],
      "stateMutability": "nonpayable",
      "type": "function"
    },
    {
      "inputs": [
        {
          "internalType": "address",
          "name": "delegatee",
          "type": "address"
        },
        {
          "internalType": "uint256",
          "name": "nonce",
          "type": "uint256"
        },
        {
          "internalType": "uint256",
          "name": "expiry",
          "type": "uint256"
        },
        {
          "internalType": "uint8",
          "name": "v",
          "type": "uint8"
        },
        {
          "internalType": "bytes32",
          "name": "r",
          "type": "bytes32"
        },
        {
          "internalType": "bytes32",
          "name": "s",
          "type": "bytes32"
        }
      ],
      "name": "delegateBySig",
      "outputs": [],
      "stateMutability": "nonpayable",
      "type": "function"
    },
    {
      "inputs": [
        {
          "internalType": "address",
          "name": "account",
          "type": "address"
        }
      ],
      "name": "delegates",
      "outputs": [
        {
          "internalType": "address",
          "name": "",
          "type": "address"
        }
      ],
      "stateMutability": "view",
      "type": "function"
    },
    {
      "inputs": [
        {
          "internalType": "uint256",
          "name": "blockNumber",
          "type": "uint256"
        }
      ],
      "name": "getPastTotalSupply",
      "outputs": [
        {
          "internalType": "uint256",
          "name": "",
          "type": "uint256"
        }
      ],
      "stateMutability": "view",
      "type": "function"
    },
    {
      "inputs": [
        {
          "internalType": "address",
          "name": "account",
          "type": "address"
        },
        {
          "internalType": "uint256",
          "name": "blockNumber",
          "type": "uint256"
        }
      ],
      "name": "getPastVotes",
      "outputs": [
        {
          "internalType": "uint256",
          "name": "",
          "type": "uint256"
        }
      ],
      "stateMutability": "view",
      "type": "function"
    },
    {
      "inputs": [
        {
          "internalType": "bytes32",
          "name": "role",
          "type": "bytes32"
        }
      ],
      "name": "getRoleAdmin",
      "outputs": [
        {
          "internalType": "bytes32",
          "name": "",
          "type": "bytes32"
        }
      ],
      "stateMutability": "view",
      "type": "function"
    },
    {
      "inputs": [
        {
          "internalType": "address",
          "name": "account",
          "type": "address"
        }
      ],
      "name": "getVotes",
      "outputs": [
        {
          "internalType": "uint256",
          "name": "",
          "type": "uint256"
        }
      ],
      "stateMutability": "view",
      "type": "function"
    },
    {
      "inputs": [
        {
          "internalType": "bytes32",
          "name": "role",
          "type": "bytes32"
        },
        {
          "internalType": "address",
          "name": "account",
          "type": "address"
        }
      ],
      "name": "grantRole",
      "outputs": [],
      "stateMutability": "nonpayable",
      "type": "function"
    },
    {
      "inputs": [
        {
          "internalType": "bytes32",
          "name": "role",
          "type": "bytes32"
        },
        {
          "internalType": "address",
          "name": "account",
          "type": "address"
        }
      ],
      "name": "hasRole",
      "outputs": [
        {
          "internalType": "bool",
          "name": "",
          "type": "bool"
        }
      ],
      "stateMutability": "view",
      "type": "function"
    },
    {
      "inputs": [
        {
          "internalType": "address",
          "name": "spender",
          "type": "address"
        },
        {
          "internalType": "uint256",
          "name": "addedValue",
          "type": "uint256"
        }
      ],
      "name": "increaseAllowance",
      "outputs": [
        {
          "internalType": "bool",
          "name": "",
          "type": "bool"
        }
      ],
      "stateMutability": "nonpayable",
      "type": "function"
    },
    {
      "inputs": [
        {
          "internalType": "address",
          "name": "to",
          "type": "address"
        },
        {
          "internalType": "uint256",
          "name": "amount",
          "type": "uint256"
        }
      ],
      "name": "manualMint",
      "outputs": [],
      "stateMutability": "nonpayable",
      "type": "function"
    },
    {
      "inputs": [],
      "name": "manualMinted",
      "outputs": [
        {
          "internalType": "uint256",
          "name": "",
          "type": "uint256"
        }
      ],
      "stateMutability": "view",
      "type": "function"
    },
    {
      "inputs": [
        {
          "internalType": "address",
          "name": "to",
          "type": "address"
        },
        {
          "internalType": "uint256",
          "name": "amount",
          "type": "uint256"
        }
      ],
      "name": "mint",
      "outputs": [],
      "stateMutability": "nonpayable",
      "type": "function"
    },
    {
      "inputs": [],
      "name": "name",
      "outputs": [
        {
          "internalType": "string",
          "name": "",
          "type": "string"
        }
      ],
      "stateMutability": "view",
      "type": "function"
    },
    {
      "inputs": [
        {
          "internalType": "address",
          "name": "owner",
          "type": "address"
        }
      ],
      "name": "nonces",
      "outputs": [
        {
          "internalType": "uint256",
          "name": "",
          "type": "uint256"
        }
      ],
      "stateMutability": "view",
      "type": "function"
    },
    {
      "inputs": [
        {
          "internalType": "address",
          "name": "account",
          "type": "address"
        }
      ],
      "name": "numCheckpoints",
      "outputs": [
        {
          "internalType": "uint32",
          "name": "",
          "type": "uint32"
        }
      ],
      "stateMutability": "view",
      "type": "function"
    },
    {
      "inputs": [],
      "name": "pause",
      "outputs": [],
      "stateMutability": "nonpayable",
      "type": "function"
    },
    {
      "inputs": [],
      "name": "paused",
      "outputs": [
        {
          "internalType": "bool",
          "name": "",
          "type": "bool"
        }
      ],
      "stateMutability": "view",
      "type": "function"
    },
    {
      "inputs": [
        {
          "internalType": "address",
          "name": "owner",
          "type": "address"
        },
        {
          "internalType": "address",
          "name": "spender",
          "type": "address"
        },
        {
          "internalType": "uint256",
          "name": "value",
          "type": "uint256"
        },
        {
          "internalType": "uint256",
          "name": "deadline",
          "type": "uint256"
        },
        {
          "internalType": "uint8",
          "name": "v",
          "type": "uint8"
        },
        {
          "internalType": "bytes32",
          "name": "r",
          "type": "bytes32"
        },
        {
          "internalType": "bytes32",
          "name": "s",
          "type": "bytes32"
        }
      ],
      "name": "permit",
      "outputs": [],
      "stateMutability": "nonpayable",
      "type": "function"
    },
    {
      "inputs": [
        {
          "internalType": "bytes32",
          "name": "role",
          "type": "bytes32"
        },
        {
          "internalType": "address",
          "name": "account",
          "type": "address"
        }
      ],
      "name": "renounceRole",
      "outputs": [],
      "stateMutability": "nonpayable",
      "type": "function"
    },
    {
      "inputs": [
        {
          "internalType": "bytes32",
          "name": "role",
          "type": "bytes32"
        },
        {
          "internalType": "address",
          "name": "account",
          "type": "address"
        }
      ],
      "name": "revokeRole",
      "outputs": [],
      "stateMutability": "nonpayable",
      "type": "function"
    },
    {
      "inputs": [
        {
          "internalType": "bytes4",
          "name": "interfaceId",
          "type": "bytes4"
        }
      ],
      "name": "supportsInterface",
      "outputs": [
        {
          "internalType": "bool",
          "name": "",
          "type": "bool"
        }
      ],
      "stateMutability": "view",
      "type": "function"
    },
    {
      "inputs": [],
      "name": "symbol",
      "outputs": [
        {
          "internalType": "string",
          "name": "",
          "type": "string"
        }
      ],
      "stateMutability": "view",
      "type": "function"
    },
    {
      "inputs": [],
      "name": "totalSupply",
      "outputs": [
        {
          "internalType": "uint256",
          "name": "",
          "type": "uint256"
        }
      ],
      "stateMutability": "view",
      "type": "function"
    },
    {
      "inputs": [
        {
          "internalType": "address",
          "name": "to",
          "type": "address"
        },
        {
          "internalType": "uint256",
          "name": "amount",
          "type": "uint256"
        }
      ],
      "name": "transfer",
      "outputs": [
        {
          "internalType": "bool",
          "name": "",
          "type": "bool"
        }
      ],
      "stateMutability": "nonpayable",
      "type": "function"
    },
    {
      "inputs": [
        {
          "internalType": "address",
          "name": "from",
          "type": "address"
        },
        {
          "internalType": "address",
          "name": "to",
          "type": "address"
        },
        {
          "internalType": "uint256",
          "name": "amount",
          "type": "uint256"
        }
      ],
      "name": "transferFrom",
      "outputs": [
        {
          "internalType": "bool",
          "name": "",
          "type": "bool"
        }
      ],
      "stateMutability": "nonpayable",
      "type": "function"
    },
    {
      "inputs": [],
      "name": "unpause",
      "outputs": [],
      "stateMutability": "nonpayable",
      "type": "function"
    }
  ],
  "bytecode": "0x6101606040527f6e71edae12b1b97f4d1f60370fef10105fa2faae0126114a169c64845d6126c9610140908152506000600b553480156200003f57600080fd5b506040518060400160405280600981526020017f504c4659546f6b656e0000000000000000000000000000000000000000000000815250806040518060400160405280600181526020017f31000000000000000000000000000000000000000000000000000000000000008152506040518060400160405280600981526020017f504c4659546f6b656e00000000000000000000000000000000000000000000008152506040518060400160405280600481526020017f504c4659000000000000000000000000000000000000000000000000000000008152508160039080519060200190620001319291906200043b565b5080600490805190602001906200014a9291906200043b565b5050506000600560006101000a81548160ff02191690831515021790555060008280519060200120905060008280519060200120905060007f8b73c3c69bb8fe3d512ecc4cf759cc79239f7b179b0ffacaa9a75d522b39400f90508260e081815250508161010081815250504660a08181525050620001d18184846200029a60201b60201c565b608081815250503073ffffffffffffffffffffffffffffffffffffffff1660c08173ffffffffffffffffffffffffffffffffffffffff1681525050806101208181525050505050505050620002306000801b33620002d660201b60201c565b620002627f65d7a28e3265b37a6474929f336521b332c1681b933f6cb9f3376673440d862a33620002d660201b60201c565b620002947f9f2df0fed2c77648de5860a4cc508cd0818c85b8b8a1ab4ceeef8d981c8956a633620002d660201b60201c565b62000628565b60008383834630604051602001620002b795949392919062000566565b6040516020818303038152906040528051906020012090509392505050565b620002e88282620003c860201b60201c565b620003c45760016006600084815260200190815260200160002060000160008373ffffffffffffffffffffffffffffffffffffffff1673ffffffffffffffffffffffffffffffffffffffff16815260200190815260200160002060006101000a81548160ff021916908315150217905550620003696200043360201b60201c565b73ffffffffffffffffffffffffffffffffffffffff168173ffffffffffffffffffffffffffffffffffffffff16837f2f8788117e7eff1d82e926ec794901d17c78024a50270940304540a733656f0d60405160405180910390a45b5050565b60006006600084815260200190815260200160002060000160008373ffffffffffffffffffffffffffffffffffffffff1673ffffffffffffffffffffffffffffffffffffffff16815260200190815260200160002060009054906101000a900460ff16905092915050565b600033905090565b8280546200044990620005f2565b90600052602060002090601f0160209004810192826200046d5760008555620004b9565b82601f106200048857805160ff1916838001178555620004b9565b82800160010185558215620004b9579182015b82811115620004b85782518255916020019190600101906200049b565b5b509050620004c89190620004cc565b5090565b5b80821115620004e7576000816000905550600101620004cd565b5090565b6000819050919050565b6200050081620004eb565b82525050565b6000819050919050565b6200051b8162000506565b82525050565b600073ffffffffffffffffffffffffffffffffffffffff82169050919050565b60006200054e8262000521565b9050919050565b620005608162000541565b82525050565b600060a0820190506200057d6000830188620004f5565b6200058c6020830187620004f5565b6200059b6040830186620004f5565b620005aa606083018562000510565b620005b9608083018462000555565b9695505050505050565b7f4e487b7100000000000000000000000000000000000000000000000000000000600052602260045260246000fd5b600060028204905060018216806200060b57607f821691505b60208210811415620006225762000621620005c3565b5b50919050565b60805160a05160c05160e051610100516101205161014051614ec562000683600039600061132401526000611e4301526000611e8501526000611e6401526000611d9901526000611def01526000611e180152614ec56000f3fe608060405234801561001057600080fd5b50600436106102485760003560e01c806370a082311161013b578063a9059cbb116100b8578063dd62ed3e1161007c578063dd62ed3e1461073b578063e4c5ff461461076b578063e63ab1e914610787578063e6b2fb4a146107a5578063f1127ed8146107c357610248565b8063a9059cbb14610699578063c3cda520146106c9578063d505accf146106e5578063d539139314610701578063d547741f1461071f57610248565b806391d14854116100ff57806391d14854146105cd57806395d89b41146105fd5780639ab24eb01461061b578063a217fddf1461064b578063a457c2d71461066957610248565b806370a082311461051757806379cc6790146105475780637ecebe00146105635780638456cb59146105935780638e539e8c1461059d57610248565b806336568abe116101c957806342966c681161018d57806342966c6814610461578063587cde1e1461047d5780635c19a95c146104ad5780635c975abb146104c95780636fcfff45146104e757610248565b806336568abe146103bf57806339509351146103db5780633a46b1a81461040b5780633f4ba83a1461043b57806340c10f191461044557610248565b8063248a9ca311610210578063248a9ca3146103195780632f2ff15d14610349578063313ce56714610365578063355274ea146103835780633644e515146103a157610248565b806301ffc9a71461024d57806306fdde031461027d578063095ea7b31461029b57806318160ddd146102cb57806323b872dd146102e9575b600080fd5b6102676004803603810190610262919061343f565b6107f3565b6040516102749190613487565b60405180910390f35b61028561086d565b604051610292919061353b565b60405180910390f35b6102b560048036038101906102b091906135f1565b6108ff565b6040516102c29190613487565b60405180910390f35b6102d3610922565b6040516102e09190613640565b60405180910390f35b61030360048036038101906102fe919061365b565b61092c565b6040516103109190613487565b60405180910390f35b610333600480360381019061032e91906136e4565b61095b565b6040516103409190613720565b60405180910390f35b610363600480360381019061035e919061373b565b61097b565b005b61036d6109a4565b60405161037a9190613797565b60405180910390f35b61038b6109ad565b6040516103989190613640565b60405180910390f35b6103a96109bf565b6040516103b69190613720565b60405180910390f35b6103d960048036038101906103d4919061373b565b6109ce565b005b6103f560048036038101906103f091906135f1565b610a51565b6040516104029190613487565b60405180910390f35b610425600480360381019061042091906135f1565b610afb565b6040516104329190613640565b60405180910390f35b610443610b8f565b005b61045f600480360381019061045a91906135f1565b610bcc565b005b61047b600480360381019061047691906137b2565b610c70565b005b610497600480360381019061049291906137df565b610c84565b6040516104a4919061381b565b60405180910390f35b6104c760048036038101906104c291906137df565b610ced565b005b6104d1610d01565b6040516104de9190613487565b60405180910390f35b61050160048036038101906104fc91906137df565b610d18565b60405161050e9190613855565b60405180910390f35b610531600480360381019061052c91906137df565b610d6c565b60405161053e9190613640565b60405180910390f35b610561600480360381019061055c91906135f1565b610db4565b005b61057d600480360381019061057891906137df565b610dd4565b60405161058a9190613640565b60405180910390f35b61059b610e24565b005b6105b760048036038101906105b291906137b2565b610e61565b6040516105c49190613640565b60405180910390f35b6105e760048036038101906105e2919061373b565b610eb7565b6040516105f49190613487565b60405180910390f35b610605610f22565b604051610612919061353b565b60405180910390f35b610635600480360381019061063091906137df565b610fb4565b6040516106429190613640565b60405180910390f35b6106536110c5565b6040516106609190613720565b60405180910390f35b610683600480360381019061067e91906135f1565b6110cc565b6040516106909190613487565b60405180910390f35b6106b360048036038101906106ae91906135f1565b6111b6565b6040516106c09190613487565b60405180910390f35b6106e360048036038101906106de919061389c565b6111d9565b005b6106ff60048036038101906106fa9190613929565b6112dd565b005b61070961141f565b6040516107169190613720565b60405180910390f35b6107396004803603810190610734919061373b565b611443565b005b610755600480360381019061075091906139cb565b61146c565b6040516107629190613640565b60405180910390f35b610785600480360381019061078091906135f1565b6114f3565b005b61078f611593565b60405161079c9190613720565b60405180910390f35b6107ad6115b7565b6040516107ba9190613640565b60405180910390f35b6107dd60048036038101906107d89190613a37565b6115bd565b6040516107ea9190613aec565b60405180910390f35b60007f7965db0b000000000000000000000000000000000000000000000000000000007bffffffffffffffffffffffffffffffffffffffffffffffffffffffff1916827bffffffffffffffffffffffffffffffffffffffffffffffffffffffff191614806108665750610865826116cd565b5b9050919050565b60606003805461087c90613b36565b80601f01602080910402602001604051908101604052809291908181526020018280546108a890613b36565b80156108f55780601f106108ca576101008083540402835291602001916108f5565b820191906000526020600020905b8154815290600101906020018083116108d857829003601f168201915b5050505050905090565b60008061090a611737565b905061091781858561173f565b600191505092915050565b6000600254905090565b600080610937611737565b905061094485828561190a565b61094f858585611996565b60019150509392505050565b600060066000838152602001908152602001600020600101549050919050565b6109848261095b565b61099581610990611737565b611c17565b61099f8383611cb4565b505050565b60006012905090565b600069d3c21bcecceda1000000905090565b60006109c9611d95565b905090565b6109d6611737565b73ffffffffffffffffffffffffffffffffffffffff168173ffffffffffffffffffffffffffffffffffffffff1614610a43576040517f08c379a0000000000000000000000000000000000000000000000000000000008152600401610a3a90613bda565b60405180910390fd5b610a4d8282611eaf565b5050565b600080610a5c611737565b9050610af0818585600160008673ffffffffffffffffffffffffffffffffffffffff1673ffffffffffffffffffffffffffffffffffffffff16815260200190815260200160002060008973ffffffffffffffffffffffffffffffffffffffff1673ffffffffffffffffffffffffffffffffffffffff16815260200190815260200160002054610aeb9190613c29565b61173f565b600191505092915050565b6000438210610b3f576040517f08c379a0000000000000000000000000000000000000000000000000000000008152600401610b3690613ccb565b60405180910390fd5b610b87600960008573ffffffffffffffffffffffffffffffffffffffff1673ffffffffffffffffffffffffffffffffffffffff16815260200190815260200160002083611f91565b905092915050565b7f65d7a28e3265b37a6474929f336521b332c1681b933f6cb9f3376673440d862a610bc181610bbc611737565b611c17565b610bc961209d565b50565b7f9f2df0fed2c77648de5860a4cc508cd0818c85b8b8a1ab4ceeef8d981c8956a6610bfe81610bf9611737565b611c17565b610c066109ad565b610c2083610c12610922565b61213f90919063ffffffff16565b1115610c61576040517f08c379a0000000000000000000000000000000000000000000000000000000008152600401610c5890613d37565b60405180910390fd5b610c6b8383612155565b505050565b610c81610c7b611737565b82612163565b50565b6000600860008373ffffffffffffffffffffffffffffffffffffffff1673ffffffffffffffffffffffffffffffffffffffff16815260200190815260200160002060009054906101000a900473ffffffffffffffffffffffffffffffffffffffff169050919050565b610cfe610cf8611737565b82612171565b50565b6000600560009054906101000a900460ff16905090565b6000610d65600960008473ffffffffffffffffffffffffffffffffffffffff1673ffffffffffffffffffffffffffffffffffffffff1681526020019081526020016000208054905061228b565b9050919050565b60008060008373ffffffffffffffffffffffffffffffffffffffff1673ffffffffffffffffffffffffffffffffffffffff168152602001908152602001600020549050919050565b610dc682610dc0611737565b8361190a565b610dd08282612163565b5050565b6000610e1d600760008473ffffffffffffffffffffffffffffffffffffffff1673ffffffffffffffffffffffffffffffffffffffff1681526020019081526020016000206122de565b9050919050565b7f65d7a28e3265b37a6474929f336521b332c1681b933f6cb9f3376673440d862a610e5681610e51611737565b611c17565b610e5e6122ec565b50565b6000438210610ea5576040517f08c379a0000000000000000000000000000000000000000000000000000000008152600401610e9c90613ccb565b60405180910390fd5b610eb0600a83611f91565b9050919050565b60006006600084815260200190815260200160002060000160008373ffffffffffffffffffffffffffffffffffffffff1673ffffffffffffffffffffffffffffffffffffffff16815260200190815260200160002060009054906101000a900460ff16905092915050565b606060048054610f3190613b36565b80601f0160208091040260200160405190810160405280929190818152602001828054610f5d90613b36565b8015610faa5780601f10610f7f57610100808354040283529160200191610faa565b820191906000526020600020905b815481529060010190602001808311610f8d57829003601f168201915b5050505050905090565b600080600960008473ffffffffffffffffffffffffffffffffffffffff1673ffffffffffffffffffffffffffffffffffffffff1681526020019081526020016000208054905090506000811461109c57600960008473ffffffffffffffffffffffffffffffffffffffff1673ffffffffffffffffffffffffffffffffffffffff1681526020019081526020016000206001826110509190613d57565b8154811061106157611060613d8b565b5b9060005260206000200160000160049054906101000a90047bffffffffffffffffffffffffffffffffffffffffffffffffffffffff1661109f565b60005b7bffffffffffffffffffffffffffffffffffffffffffffffffffffffff16915050919050565b6000801b81565b6000806110d7611737565b90506000600160008373ffffffffffffffffffffffffffffffffffffffff1673ffffffffffffffffffffffffffffffffffffffff16815260200190815260200160002060008673ffffffffffffffffffffffffffffffffffffffff1673ffffffffffffffffffffffffffffffffffffffff1681526020019081526020016000205490508381101561119d576040517f08c379a000000000000000000000000000000000000000000000000000000000815260040161119490613e2c565b60405180910390fd5b6111aa828686840361173f565b60019250505092915050565b6000806111c1611737565b90506111ce818585611996565b600191505092915050565b8342111561121c576040517f08c379a000000000000000000000000000000000000000000000000000000000815260040161121390613e98565b60405180910390fd5b600061127e6112767fe48329057bfd03d55e49b547132e39cffd9c1820ad7b9d4c5307691425d15adf89898960405160200161125b9493929190613eb8565b6040516020818303038152906040528051906020012061238f565b8585856123a9565b9050611289816123d4565b86146112ca576040517f08c379a00000000000000000000000000000000000000000000000000000000081526004016112c190613f49565b60405180910390fd5b6112d48188612171565b50505050505050565b83421115611320576040517f08c379a000000000000000000000000000000000000000000000000000000000815260040161131790613fb5565b60405180910390fd5b60007f000000000000000000000000000000000000000000000000000000000000000088888861134f8c6123d4565b8960405160200161136596959493929190613fd5565b60405160208183030381529060405280519060200120905060006113888261238f565b90506000611398828787876123a9565b90508973ffffffffffffffffffffffffffffffffffffffff168173ffffffffffffffffffffffffffffffffffffffff1614611408576040517f08c379a00000000000000000000000000000000000000000000000000000000081526004016113ff90614082565b60405180910390fd5b6114138a8a8a61173f565b50505050505050505050565b7f9f2df0fed2c77648de5860a4cc508cd0818c85b8b8a1ab4ceeef8d981c8956a681565b61144c8261095b565b61145d81611458611737565b611c17565b6114678383611eaf565b505050565b6000600160008473ffffffffffffffffffffffffffffffffffffffff1673ffffffffffffffffffffffffffffffffffffffff16815260200190815260200160002060008373ffffffffffffffffffffffffffffffffffffffff1673ffffffffffffffffffffffffffffffffffffffff16815260200190815260200160002054905092915050565b6000801b61150881611503611737565b611c17565b692a5a058fc295ed00000061152883600b5461213f90919063ffffffff16565b1115611569576040517f08c379a0000000000000000000000000000000000000000000000000000000008152600401611560906140ee565b60405180910390fd5b61157e82600b5461213f90919063ffffffff16565b600b8190555061158e8383610bcc565b505050565b7f65d7a28e3265b37a6474929f336521b332c1681b933f6cb9f3376673440d862a81565b600b5481565b6115c56133a4565b600960008473ffffffffffffffffffffffffffffffffffffffff1673ffffffffffffffffffffffffffffffffffffffff1681526020019081526020016000208263ffffffff168154811061161c5761161b613d8b565b5b906000526020600020016040518060400160405290816000820160009054906101000a900463ffffffff1663ffffffff1663ffffffff1681526020016000820160049054906101000a90047bffffffffffffffffffffffffffffffffffffffffffffffffffffffff167bffffffffffffffffffffffffffffffffffffffffffffffffffffffff167bffffffffffffffffffffffffffffffffffffffffffffffffffffffff1681525050905092915050565b60007f01ffc9a7000000000000000000000000000000000000000000000000000000007bffffffffffffffffffffffffffffffffffffffffffffffffffffffff1916827bffffffffffffffffffffffffffffffffffffffffffffffffffffffff1916149050919050565b600033905090565b600073ffffffffffffffffffffffffffffffffffffffff168373ffffffffffffffffffffffffffffffffffffffff1614156117af576040517f08c379a00000000000000000000000000000000000000000000000000000000081526004016117a690614180565b60405180910390fd5b600073ffffffffffffffffffffffffffffffffffffffff168273ffffffffffffffffffffffffffffffffffffffff16141561181f576040517f08c379a000000000000000000000000000000000000000000000000000000000815260040161181690614212565b60405180910390fd5b80600160008573ffffffffffffffffffffffffffffffffffffffff1673ffffffffffffffffffffffffffffffffffffffff16815260200190815260200160002060008473ffffffffffffffffffffffffffffffffffffffff1673ffffffffffffffffffffffffffffffffffffffff168152602001908152602001600020819055508173ffffffffffffffffffffffffffffffffffffffff168373ffffffffffffffffffffffffffffffffffffffff167f8c5be1e5ebec7d5bd14f71427d1e84f3dd0314c0f7b2291e5b200ac8c7c3b925836040516118fd9190613640565b60405180910390a3505050565b6000611916848461146c565b90507fffffffffffffffffffffffffffffffffffffffffffffffffffffffffffffffff81146119905781811015611982576040517f08c379a00000000000000000000000000000000000000000000000000000000081526004016119799061427e565b60405180910390fd5b61198f848484840361173f565b5b50505050565b600073ffffffffffffffffffffffffffffffffffffffff168373ffffffffffffffffffffffffffffffffffffffff161415611a06576040517f08c379a00000000000000000000000000000000000000000000000000000000081526004016119fd90614310565b60405180910390fd5b600073ffffffffffffffffffffffffffffffffffffffff168273ffffffffffffffffffffffffffffffffffffffff161415611a76576040517f08c379a0000000000000000000000000000000000000000000000000000000008152600401611a6d906143a2565b60405180910390fd5b611a81838383612432565b60008060008573ffffffffffffffffffffffffffffffffffffffff1673ffffffffffffffffffffffffffffffffffffffff16815260200190815260200160002054905081811015611b07576040517f08c379a0000000000000000000000000000000000000000000000000000000008152600401611afe90614434565b60405180910390fd5b8181036000808673ffffffffffffffffffffffffffffffffffffffff1673ffffffffffffffffffffffffffffffffffffffff16815260200190815260200160002081905550816000808573ffffffffffffffffffffffffffffffffffffffff1673ffffffffffffffffffffffffffffffffffffffff1681526020019081526020016000206000828254611b9a9190613c29565b925050819055508273ffffffffffffffffffffffffffffffffffffffff168473ffffffffffffffffffffffffffffffffffffffff167fddf252ad1be2c89b69c2b068fc378daa952ba7f163c4a11628f55a4df523b3ef84604051611bfe9190613640565b60405180910390a3611c1184848461248a565b50505050565b611c218282610eb7565b611cb057611c468173ffffffffffffffffffffffffffffffffffffffff16601461249a565b611c548360001c602061249a565b604051602001611c65929190614528565b6040516020818303038152906040526040517f08c379a0000000000000000000000000000000000000000000000000000000008152600401611ca7919061353b565b60405180910390fd5b5050565b611cbe8282610eb7565b611d915760016006600084815260200190815260200160002060000160008373ffffffffffffffffffffffffffffffffffffffff1673ffffffffffffffffffffffffffffffffffffffff16815260200190815260200160002060006101000a81548160ff021916908315150217905550611d36611737565b73ffffffffffffffffffffffffffffffffffffffff168173ffffffffffffffffffffffffffffffffffffffff16837f2f8788117e7eff1d82e926ec794901d17c78024a50270940304540a733656f0d60405160405180910390a45b5050565b60007f000000000000000000000000000000000000000000000000000000000000000073ffffffffffffffffffffffffffffffffffffffff163073ffffffffffffffffffffffffffffffffffffffff16148015611e1157507f000000000000000000000000000000000000000000000000000000000000000046145b15611e3e577f00000000000000000000000000000000000000000000000000000000000000009050611eac565b611ea97f00000000000000000000000000000000000000000000000000000000000000007f00000000000000000000000000000000000000000000000000000000000000007f00000000000000000000000000000000000000000000000000000000000000006126d6565b90505b90565b611eb98282610eb7565b15611f8d5760006006600084815260200190815260200160002060000160008373ffffffffffffffffffffffffffffffffffffffff1673ffffffffffffffffffffffffffffffffffffffff16815260200190815260200160002060006101000a81548160ff021916908315150217905550611f32611737565b73ffffffffffffffffffffffffffffffffffffffff168173ffffffffffffffffffffffffffffffffffffffff16837ff6391f5c32d9c69d2a47ea670b442974b53935d1edc7fd64eb21e047a839171b60405160405180910390a45b5050565b6000808380549050905060005b81811015612010576000611fb28284612710565b905084868281548110611fc857611fc7613d8b565b5b9060005260206000200160000160009054906101000a900463ffffffff1663ffffffff161115611ffa5780925061200a565b6001816120079190613c29565b91505b50611f9e565b6000821461207257846001836120269190613d57565b8154811061203757612036613d8b565b5b9060005260206000200160000160049054906101000a90047bffffffffffffffffffffffffffffffffffffffffffffffffffffffff16612075565b60005b7bffffffffffffffffffffffffffffffffffffffffffffffffffffffff169250505092915050565b6120a5610d01565b6120e4576040517f08c379a00000000000000000000000000000000000000000000000000000000081526004016120db906145ae565b60405180910390fd5b6000600560006101000a81548160ff0219169083151502179055507f5db9ee0a495bf2e6ff9c91a7834c1ba4fdd244a5e8aa4e537bd38aeae4b073aa612128611737565b604051612135919061381b565b60405180910390a1565b6000818361214d9190613c29565b905092915050565b61215f8282612736565b5050565b61216d82826127c3565b5050565b600061217c83610c84565b9050600061218984610d6c565b905082600860008673ffffffffffffffffffffffffffffffffffffffff1673ffffffffffffffffffffffffffffffffffffffff16815260200190815260200160002060006101000a81548173ffffffffffffffffffffffffffffffffffffffff021916908373ffffffffffffffffffffffffffffffffffffffff1602179055508273ffffffffffffffffffffffffffffffffffffffff168273ffffffffffffffffffffffffffffffffffffffff168573ffffffffffffffffffffffffffffffffffffffff167f3134e8a2e6d97e929a7e54011ea5485d7d196dd5f0ba4d4ef95803e8e3fc257f60405160405180910390a46122858284836127e1565b50505050565b600063ffffffff80168211156122d6576040517f08c379a00000000000000000000000000000000000000000000000000000000081526004016122cd90614640565b60405180910390fd5b819050919050565b600081600001549050919050565b6122f4610d01565b15612334576040517f08c379a000000000000000000000000000000000000000000000000000000000815260040161232b906146ac565b60405180910390fd5b6001600560006101000a81548160ff0219169083151502179055507f62e78cea01bee320cd4e420270b5ea74000d11b0c9f74754ebdbfc544b05a258612378611737565b604051612385919061381b565b60405180910390a1565b60006123a261239c611d95565b836129da565b9050919050565b60008060006123ba87878787612a0d565b915091506123c781612b1a565b8192505050949350505050565b600080600760008473ffffffffffffffffffffffffffffffffffffffff1673ffffffffffffffffffffffffffffffffffffffff1681526020019081526020016000209050612421816122de565b915061242c81612cef565b50919050565b61243a610d01565b1561247a576040517f08c379a0000000000000000000000000000000000000000000000000000000008152600401612471906146ac565b60405180910390fd5b612485838383612d05565b505050565b612495838383612d0a565b505050565b6060600060028360026124ad91906146cc565b6124b79190613c29565b67ffffffffffffffff8111156124d0576124cf614726565b5b6040519080825280601f01601f1916602001820160405280156125025781602001600182028036833780820191505090505b5090507f30000000000000000000000000000000000000000000000000000000000000008160008151811061253a57612539613d8b565b5b60200101907effffffffffffffffffffffffffffffffffffffffffffffffffffffffffffff1916908160001a9053507f78000000000000000000000000000000000000000000000000000000000000008160018151811061259e5761259d613d8b565b5b60200101907effffffffffffffffffffffffffffffffffffffffffffffffffffffffffffff1916908160001a905350600060018460026125de91906146cc565b6125e89190613c29565b90505b6001811115612688577f3031323334353637383961626364656600000000000000000000000000000000600f86166010811061262a57612629613d8b565b5b1a60f81b82828151811061264157612640613d8b565b5b60200101907effffffffffffffffffffffffffffffffffffffffffffffffffffffffffffff1916908160001a905350600485901c94508061268190614755565b90506125eb565b50600084146126cc576040517f08c379a00000000000000000000000000000000000000000000000000000000081526004016126c3906147cb565b60405180910390fd5b8091505092915050565b600083838346306040516020016126f19594939291906147eb565b6040516020818303038152906040528051906020012090509392505050565b60006002828418612721919061486d565b82841661272e9190613c29565b905092915050565b6127408282612d35565b612748612e95565b7bffffffffffffffffffffffffffffffffffffffffffffffffffffffff1661276e610922565b11156127af576040517f08c379a00000000000000000000000000000000000000000000000000000000081526004016127a690614910565b60405180910390fd5b6127bd600a612eb983612ecf565b50505050565b6127cd8282613147565b6127db600a61331e83612ecf565b50505050565b8173ffffffffffffffffffffffffffffffffffffffff168373ffffffffffffffffffffffffffffffffffffffff161415801561281d5750600081115b156129d557600073ffffffffffffffffffffffffffffffffffffffff168373ffffffffffffffffffffffffffffffffffffffff16146128fb576000806128a4600960008773ffffffffffffffffffffffffffffffffffffffff1673ffffffffffffffffffffffffffffffffffffffff16815260200190815260200160002061331e85612ecf565b915091508473ffffffffffffffffffffffffffffffffffffffff167fdec2bacdd2f05b59de34da9b523dff8be42e5e38e818c82fdb0bae774387a72483836040516128f0929190614930565b60405180910390a250505b600073ffffffffffffffffffffffffffffffffffffffff168273ffffffffffffffffffffffffffffffffffffffff16146129d45760008061297d600960008673ffffffffffffffffffffffffffffffffffffffff1673ffffffffffffffffffffffffffffffffffffffff168152602001908152602001600020612eb985612ecf565b915091508373ffffffffffffffffffffffffffffffffffffffff167fdec2bacdd2f05b59de34da9b523dff8be42e5e38e818c82fdb0bae774387a72483836040516129c9929190614930565b60405180910390a250505b5b505050565b600082826040516020016129ef9291906149c6565b60405160208183030381529060405280519060200120905092915050565b6000807f7fffffffffffffffffffffffffffffff5d576e7357a4501ddfe92f46681b20a08360001c1115612a48576000600391509150612b11565b601b8560ff1614158015612a605750601c8560ff1614155b15612a72576000600491509150612b11565b600060018787878760405160008152602001604052604051612a9794939291906149fd565b6020604051602081039080840390855afa158015612ab9573d6000803e3d6000fd5b505050602060405103519050600073ffffffffffffffffffffffffffffffffffffffff168173ffffffffffffffffffffffffffffffffffffffff161415612b0857600060019250925050612b11565b80600092509250505b94509492505050565b60006004811115612b2e57612b2d614a42565b5b816004811115612b4157612b40614a42565b5b1415612b4c57612cec565b60016004811115612b6057612b5f614a42565b5b816004811115612b7357612b72614a42565b5b1415612bb4576040517f08c379a0000000000000000000000000000000000000000000000000000000008152600401612bab90614abd565b60405180910390fd5b60026004811115612bc857612bc7614a42565b5b816004811115612bdb57612bda614a42565b5b1415612c1c576040517f08c379a0000000000000000000000000000000000000000000000000000000008152600401612c1390614b29565b60405180910390fd5b60036004811115612c3057612c2f614a42565b5b816004811115612c4357612c42614a42565b5b1415612c84576040517f08c379a0000000000000000000000000000000000000000000000000000000008152600401612c7b90614bbb565b60405180910390fd5b600480811115612c9757612c96614a42565b5b816004811115612caa57612ca9614a42565b5b1415612ceb576040517f08c379a0000000000000000000000000000000000000000000000000000000008152600401612ce290614c4d565b60405180910390fd5b5b50565b6001816000016000828254019250508190555050565b505050565b612d15838383613334565b612d30612d2184610c84565b612d2a84610c84565b836127e1565b505050565b600073ffffffffffffffffffffffffffffffffffffffff168273ffffffffffffffffffffffffffffffffffffffff161415612da5576040517f08c379a0000000000000000000000000000000000000000000000000000000008152600401612d9c90614cb9565b60405180910390fd5b612db160008383612432565b8060026000828254612dc39190613c29565b92505081905550806000808473ffffffffffffffffffffffffffffffffffffffff1673ffffffffffffffffffffffffffffffffffffffff1681526020019081526020016000206000828254612e189190613c29565b925050819055508173ffffffffffffffffffffffffffffffffffffffff16600073ffffffffffffffffffffffffffffffffffffffff167fddf252ad1be2c89b69c2b068fc378daa952ba7f163c4a11628f55a4df523b3ef83604051612e7d9190613640565b60405180910390a3612e916000838361248a565b5050565b60007bffffffffffffffffffffffffffffffffffffffffffffffffffffffff905090565b60008183612ec79190613c29565b905092915050565b60008060008580549050905060008114612f3d5785600182612ef19190613d57565b81548110612f0257612f01613d8b565b5b9060005260206000200160000160049054906101000a90047bffffffffffffffffffffffffffffffffffffffffffffffffffffffff16612f40565b60005b7bffffffffffffffffffffffffffffffffffffffffffffffffffffffff169250612f6e83858763ffffffff16565b9150600081118015612fc157504386600183612f8a9190613d57565b81548110612f9b57612f9a613d8b565b5b9060005260206000200160000160009054906101000a900463ffffffff1663ffffffff16145b1561304e57612fcf82613339565b86600183612fdd9190613d57565b81548110612fee57612fed613d8b565b5b9060005260206000200160000160046101000a8154817bffffffffffffffffffffffffffffffffffffffffffffffffffffffff02191690837bffffffffffffffffffffffffffffffffffffffffffffffffffffffff16021790555061313e565b8560405180604001604052806130634361228b565b63ffffffff16815260200161307785613339565b7bffffffffffffffffffffffffffffffffffffffffffffffffffffffff168152509080600181540180825580915050600190039060005260206000200160009091909190915060008201518160000160006101000a81548163ffffffff021916908363ffffffff16021790555060208201518160000160046101000a8154817bffffffffffffffffffffffffffffffffffffffffffffffffffffffff02191690837bffffffffffffffffffffffffffffffffffffffffffffffffffffffff16021790555050505b50935093915050565b600073ffffffffffffffffffffffffffffffffffffffff168273ffffffffffffffffffffffffffffffffffffffff1614156131b7576040517f08c379a00000000000000000000000000000000000000000000000000000000081526004016131ae90614d4b565b60405180910390fd5b6131c382600083612432565b60008060008473ffffffffffffffffffffffffffffffffffffffff1673ffffffffffffffffffffffffffffffffffffffff16815260200190815260200160002054905081811015613249576040517f08c379a000000000000000000000000000000000000000000000000000000000815260040161324090614ddd565b60405180910390fd5b8181036000808573ffffffffffffffffffffffffffffffffffffffff1673ffffffffffffffffffffffffffffffffffffffff1681526020019081526020016000208190555081600260008282546132a09190613d57565b92505081905550600073ffffffffffffffffffffffffffffffffffffffff168373ffffffffffffffffffffffffffffffffffffffff167fddf252ad1be2c89b69c2b068fc378daa952ba7f163c4a11628f55a4df523b3ef846040516133059190613640565b60405180910390a36133198360008461248a565b505050565b6000818361332c9190613d57565b905092915050565b505050565b60007bffffffffffffffffffffffffffffffffffffffffffffffffffffffff801682111561339c576040517f08c379a000000000000000000000000000000000000000000000000000000000815260040161339390614e6f565b60405180910390fd5b819050919050565b6040518060400160405280600063ffffffff16815260200160007bffffffffffffffffffffffffffffffffffffffffffffffffffffffff1681525090565b600080fd5b60007fffffffff0000000000000000000000000000000000000000000000000000000082169050919050565b61341c816133e7565b811461342757600080fd5b50565b60008135905061343981613413565b92915050565b600060208284031215613455576134546133e2565b5b60006134638482850161342a565b91505092915050565b60008115159050919050565b6134818161346c565b82525050565b600060208201905061349c6000830184613478565b92915050565b600081519050919050565b600082825260208201905092915050565b60005b838110156134dc5780820151818401526020810190506134c1565b838111156134eb576000848401525b50505050565b6000601f19601f8301169050919050565b600061350d826134a2565b61351781856134ad565b93506135278185602086016134be565b613530816134f1565b840191505092915050565b600060208201905081810360008301526135558184613502565b905092915050565b600073ffffffffffffffffffffffffffffffffffffffff82169050919050565b60006135888261355d565b9050919050565b6135988161357d565b81146135a357600080fd5b50565b6000813590506135b58161358f565b92915050565b6000819050919050565b6135ce816135bb565b81146135d957600080fd5b50565b6000813590506135eb816135c5565b92915050565b60008060408385031215613608576136076133e2565b5b6000613616858286016135a6565b9250506020613627858286016135dc565b9150509250929050565b61363a816135bb565b82525050565b60006020820190506136556000830184613631565b92915050565b600080600060608486031215613674576136736133e2565b5b6000613682868287016135a6565b9350506020613693868287016135a6565b92505060406136a4868287016135dc565b9150509250925092565b6000819050919050565b6136c1816136ae565b81146136cc57600080fd5b50565b6000813590506136de816136b8565b92915050565b6000602082840312156136fa576136f96133e2565b5b6000613708848285016136cf565b91505092915050565b61371a816136ae565b82525050565b60006020820190506137356000830184613711565b92915050565b60008060408385031215613752576137516133e2565b5b6000613760858286016136cf565b9250506020613771858286016135a6565b9150509250929050565b600060ff82169050919050565b6137918161377b565b82525050565b60006020820190506137ac6000830184613788565b92915050565b6000602082840312156137c8576137c76133e2565b5b60006137d6848285016135dc565b91505092915050565b6000602082840312156137f5576137f46133e2565b5b6000613803848285016135a6565b91505092915050565b6138158161357d565b82525050565b6000602082019050613830600083018461380c565b92915050565b600063ffffffff82169050919050565b61384f81613836565b82525050565b600060208201905061386a6000830184613846565b92915050565b6138798161377b565b811461388457600080fd5b50565b60008135905061389681613870565b92915050565b60008060008060008060c087890312156138b9576138b86133e2565b5b60006138c789828a016135a6565b96505060206138d889828a016135dc565b95505060406138e989828a016135dc565b94505060606138fa89828a01613887565b935050608061390b89828a016136cf565b92505060a061391c89828a016136cf565b9150509295509295509295565b600080600080600080600060e0888a031215613948576139476133e2565b5b60006139568a828b016135a6565b97505060206139678a828b016135a6565b96505060406139788a828b016135dc565b95505060606139898a828b016135dc565b945050608061399a8a828b01613887565b93505060a06139ab8a828b016136cf565b92505060c06139bc8a828b016136cf565b91505092959891949750929550565b600080604083850312156139e2576139e16133e2565b5b60006139f0858286016135a6565b9250506020613a01858286016135a6565b9150509250929050565b613a1481613836565b8114613a1f57600080fd5b50565b600081359050613a3181613a0b565b92915050565b60008060408385031215613a4e57613a4d6133e2565b5b6000613a5c858286016135a6565b9250506020613a6d85828601613a22565b9150509250929050565b613a8081613836565b82525050565b60007bffffffffffffffffffffffffffffffffffffffffffffffffffffffff82169050919050565b613ab781613a86565b82525050565b604082016000820151613ad36000850182613a77565b506020820151613ae66020850182613aae565b50505050565b6000604082019050613b016000830184613abd565b92915050565b7f4e487b7100000000000000000000000000000000000000000000000000000000600052602260045260246000fd5b60006002820490506001821680613b4e57607f821691505b60208210811415613b6257613b61613b07565b5b50919050565b7f416363657373436f6e74726f6c3a2063616e206f6e6c792072656e6f756e636560008201527f20726f6c657320666f722073656c660000000000000000000000000000000000602082015250565b6000613bc4602f836134ad565b9150613bcf82613b68565b604082019050919050565b60006020820190508181036000830152613bf381613bb7565b9050919050565b7f4e487b7100000000000000000000000000000000000000000000000000000000600052601160045260246000fd5b6000613c34826135bb565b9150613c3f836135bb565b9250827fffffffffffffffffffffffffffffffffffffffffffffffffffffffffffffffff03821115613c7457613c73613bfa565b5b828201905092915050565b7f4552433230566f7465733a20626c6f636b206e6f7420796574206d696e656400600082015250565b6000613cb5601f836134ad565b9150613cc082613c7f565b602082019050919050565b60006020820190508181036000830152613ce481613ca8565b9050919050565b7f6361702065786365656465640000000000000000000000000000000000000000600082015250565b6000613d21600c836134ad565b9150613d2c82613ceb565b602082019050919050565b60006020820190508181036000830152613d5081613d14565b9050919050565b6000613d62826135bb565b9150613d6d836135bb565b925082821015613d8057613d7f613bfa565b5b828203905092915050565b7f4e487b7100000000000000000000000000000000000000000000000000000000600052603260045260246000fd5b7f45524332303a2064656372656173656420616c6c6f77616e63652062656c6f7760008201527f207a65726f000000000000000000000000000000000000000000000000000000602082015250565b6000613e166025836134ad565b9150613e2182613dba565b604082019050919050565b60006020820190508181036000830152613e4581613e09565b9050919050565b7f4552433230566f7465733a207369676e61747572652065787069726564000000600082015250565b6000613e82601d836134ad565b9150613e8d82613e4c565b602082019050919050565b60006020820190508181036000830152613eb181613e75565b9050919050565b6000608082019050613ecd6000830187613711565b613eda602083018661380c565b613ee76040830185613631565b613ef46060830184613631565b95945050505050565b7f4552433230566f7465733a20696e76616c6964206e6f6e636500000000000000600082015250565b6000613f336019836134ad565b9150613f3e82613efd565b602082019050919050565b60006020820190508181036000830152613f6281613f26565b9050919050565b7f45524332305065726d69743a206578706972656420646561646c696e65000000600082015250565b6000613f9f601d836134ad565b9150613faa82613f69565b602082019050919050565b60006020820190508181036000830152613fce81613f92565b9050919050565b600060c082019050613fea6000830189613711565b613ff7602083018861380c565b614004604083018761380c565b6140116060830186613631565b61401e6080830185613631565b61402b60a0830184613631565b979650505050505050565b7f45524332305065726d69743a20696e76616c6964207369676e61747572650000600082015250565b600061406c601e836134ad565b915061407782614036565b602082019050919050565b6000602082019050818103600083015261409b8161405f565b9050919050565b7f6d696e74206c696d697420657863656564656400000000000000000000000000600082015250565b60006140d86013836134ad565b91506140e3826140a2565b602082019050919050565b60006020820190508181036000830152614107816140cb565b9050919050565b7f45524332303a20617070726f76652066726f6d20746865207a65726f2061646460008201527f7265737300000000000000000000000000000000000000000000000000000000602082015250565b600061416a6024836134ad565b91506141758261410e565b604082019050919050565b600060208201905081810360008301526141998161415d565b9050919050565b7f45524332303a20617070726f766520746f20746865207a65726f20616464726560008201527f7373000000000000000000000000000000000000000000000000000000000000602082015250565b60006141fc6022836134ad565b9150614207826141a0565b604082019050919050565b6000602082019050818103600083015261422b816141ef565b9050919050565b7f45524332303a20696e73756666696369656e7420616c6c6f77616e6365000000600082015250565b6000614268601d836134ad565b915061427382614232565b602082019050919050565b600060208201905081810360008301526142978161425b565b9050919050565b7f45524332303a207472616e736665722066726f6d20746865207a65726f20616460008201527f6472657373000000000000000000000000000000000000000000000000000000602082015250565b60006142fa6025836134ad565b91506143058261429e565b604082019050919050565b60006020820190508181036000830152614329816142ed565b9050919050565b7f45524332303a207472616e7366657220746f20746865207a65726f206164647260008201527f6573730000000000000000000000000000000000000000000000000000000000602082015250565b600061438c6023836134ad565b915061439782614330565b604082019050919050565b600060208201905081810360008301526143bb8161437f565b9050919050565b7f45524332303a207472616e7366657220616d6f756e742065786365656473206260008201527f616c616e63650000000000000000000000000000000000000000000000000000602082015250565b600061441e6026836134ad565b9150614429826143c2565b604082019050919050565b6000602082019050818103600083015261444d81614411565b9050919050565b600081905092915050565b7f416363657373436f6e74726f6c3a206163636f756e7420000000000000000000600082015250565b6000614495601783614454565b91506144a08261445f565b601782019050919050565b60006144b6826134a2565b6144c08185614454565b93506144d08185602086016134be565b80840191505092915050565b7f206973206d697373696e6720726f6c6520000000000000000000000000000000600082015250565b6000614512601183614454565b915061451d826144dc565b601182019050919050565b600061453382614488565b915061453f82856144ab565b915061454a82614505565b915061455682846144ab565b91508190509392505050565b7f5061757361626c653a206e6f7420706175736564000000000000000000000000600082015250565b60006145986014836134ad565b91506145a382614562565b602082019050919050565b600060208201905081810360008301526145c78161458b565b9050919050565b7f53616665436173743a2076616c756520646f65736e27742066697420696e203360008201527f3220626974730000000000000000000000000000000000000000000000000000602082015250565b600061462a6026836134ad565b9150614635826145ce565b604082019050919050565b600060208201905081810360008301526146598161461d565b9050919050565b7f5061757361626c653a2070617573656400000000000000000000000000000000600082015250565b60006146966010836134ad565b91506146a182614660565b602082019050919050565b600060208201905081810360008301526146c581614689565b9050919050565b60006146d7826135bb565b91506146e2836135bb565b9250817fffffffffffffffffffffffffffffffffffffffffffffffffffffffffffffffff048311821515161561471b5761471a613bfa565b5b828202905092915050565b7f4e487b7100000000000000000000000000000000000000000000000000000000600052604160045260246000fd5b6000614760826135bb565b9150600082141561477457614773613bfa565b5b600182039050919050565b7f537472696e67733a20686578206c656e67746820696e73756666696369656e74600082015250565b60006147b56020836134ad565b91506147c08261477f565b602082019050919050565b600060208201905081810360008301526147e4816147a8565b9050919050565b600060a0820190506148006000830188613711565b61480d6020830187613711565b61481a6040830186613711565b6148276060830185613631565b614834608083018461380c565b9695505050505050565b7f4e487b7100000000000000000000000000000000000000000000000000000000600052601260045260246000fd5b6000614878826135bb565b9150614883836135bb565b9250826148935761489261483e565b5b828204905092915050565b7f4552433230566f7465733a20746f74616c20737570706c79207269736b73206f60008201527f766572666c6f77696e6720766f74657300000000000000000000000000000000602082015250565b60006148fa6030836134ad565b91506149058261489e565b604082019050919050565b60006020820190508181036000830152614929816148ed565b9050919050565b60006040820190506149456000830185613631565b6149526020830184613631565b9392505050565b7f1901000000000000000000000000000000000000000000000000000000000000600082015250565b600061498f600283614454565b915061499a82614959565b600282019050919050565b6000819050919050565b6149c06149bb826136ae565b6149a5565b82525050565b60006149d182614982565b91506149dd82856149af565b6020820191506149ed82846149af565b6020820191508190509392505050565b6000608082019050614a126000830187613711565b614a1f6020830186613788565b614a2c6040830185613711565b614a396060830184613711565b95945050505050565b7f4e487b7100000000000000000000000000000000000000000000000000000000600052602160045260246000fd5b7f45434453413a20696e76616c6964207369676e61747572650000000000000000600082015250565b6000614aa76018836134ad565b9150614ab282614a71565b602082019050919050565b60006020820190508181036000830152614ad681614a9a565b9050919050565b7f45434453413a20696e76616c6964207369676e6174757265206c656e67746800600082015250565b6000614b13601f836134ad565b9150614b1e82614add565b602082019050919050565b60006020820190508181036000830152614b4281614b06565b9050919050565b7f45434453413a20696e76616c6964207369676e6174757265202773272076616c60008201527f7565000000000000000000000000000000000000000000000000000000000000602082015250565b6000614ba56022836134ad565b9150614bb082614b49565b604082019050919050565b60006020820190508181036000830152614bd481614b98565b9050919050565b7f45434453413a20696e76616c6964207369676e6174757265202776272076616c60008201527f7565000000000000000000000000000000000000000000000000000000000000602082015250565b6000614c376022836134ad565b9150614c4282614bdb565b604082019050919050565b60006020820190508181036000830152614c6681614c2a565b9050919050565b7f45524332303a206d696e7420746f20746865207a65726f206164647265737300600082015250565b6000614ca3601f836134ad565b9150614cae82614c6d565b602082019050919050565b60006020820190508181036000830152614cd281614c96565b9050919050565b7f45524332303a206275726e2066726f6d20746865207a65726f2061646472657360008201527f7300000000000000000000000000000000000000000000000000000000000000602082015250565b6000614d356021836134ad565b9150614d4082614cd9565b604082019050919050565b60006020820190508181036000830152614d6481614d28565b9050919050565b7f45524332303a206275726e20616d6f756e7420657863656564732062616c616e60008201527f6365000000000000000000000000000000000000000000000000000000000000602082015250565b6000614dc76022836134ad565b9150614dd282614d6b565b604082019050919050565b60006020820190508181036000830152614df681614dba565b9050919050565b7f53616665436173743a2076616c756520646f65736e27742066697420696e203260008201527f3234206269747300000000000000000000000000000000000000000000000000602082015250565b6000614e596027836134ad565b9150614e6482614dfd565b604082019050919050565b60006020820190508181036000830152614e8881614e4c565b905091905056fea2646970667358221220aa91ddb6fc58585fbce20b3729bba4be7286466eebd6e34bd82799a145a3b1d764736f6c634300080b0033",
  "linkReferences": {},
  "deployedLinkReferences": {}
}