{
  "_format": "hh-sol-artifact-1",
  "contractName": "IcePLFY",
  "sourceName": "src/contracts/tokens/IcePLFY.sol",
  "abi": [
    {
      "inputs": [
        {
          "internalType": "contract PLFYToken",
          "name": "_plfy",
          "type": "address"
        }
      ],
      "stateMutability": "nonpayable",
      "type": "constructor"
    },
    {
      "anonymous": false,
      "inputs": [
        {
          "indexed": true,
          "internalType": "address",
          "name": "owner",
          "type": "address"
        },
        {
          "indexed": true,
          "internalType": "address",
          "name": "spender",
          "type": "address"
        },
        {
          "indexed": false,
          "internalType": "uint256",
          "name": "value",
          "type": "uint256"
        }
      ],
      "name": "Approval",
      "type": "event"
    },
    {
      "anonymous": false,
      "inputs": [
        {
          "indexed": true,
          "internalType": "address",
          "name": "delegator",
          "type": "address"
        },
        {
          "indexed": true,
          "internalType": "address",
          "name": "fromDelegate",
          "type": "address"
        },
        {
          "indexed": true,
          "internalType": "address",
          "name": "toDelegate",
          "type": "address"
        }
      ],
      "name": "DelegateChanged",
      "type": "event"
    },
    {
      "anonymous": false,
      "inputs": [
        {
          "indexed": true,
          "internalType": "address",
          "name": "delegate",
          "type": "address"
        },
        {
          "indexed": false,
          "internalType": "uint256",
          "name": "previousBalance",
          "type": "uint256"
        },
        {
          "indexed": false,
          "internalType": "uint256",
          "name": "newBalance",
          "type": "uint256"
        }
      ],
      "name": "DelegateVotesChanged",
      "type": "event"
    },
    {
      "anonymous": false,
      "inputs": [
        {
          "indexed": true,
          "internalType": "address",
          "name": "previousOwner",
          "type": "address"
        },
        {
          "indexed": true,
          "internalType": "address",
          "name": "newOwner",
          "type": "address"
        }
      ],
      "name": "OwnershipTransferred",
      "type": "event"
    },
    {
      "anonymous": false,
      "inputs": [
        {
          "indexed": false,
          "internalType": "address",
          "name": "account",
          "type": "address"
        }
      ],
      "name": "Paused",
      "type": "event"
    },
    {
      "anonymous": false,
      "inputs": [
        {
          "indexed": true,
          "internalType": "bytes32",
          "name": "role",
          "type": "bytes32"
        },
        {
          "indexed": true,
          "internalType": "bytes32",
          "name": "previousAdminRole",
          "type": "bytes32"
        },
        {
          "indexed": true,
          "internalType": "bytes32",
          "name": "newAdminRole",
          "type": "bytes32"
        }
      ],
      "name": "RoleAdminChanged",
      "type": "event"
    },
    {
      "anonymous": false,
      "inputs": [
        {
          "indexed": true,
          "internalType": "bytes32",
          "name": "role",
          "type": "bytes32"
        },
        {
          "indexed": true,
          "internalType": "address",
          "name": "account",
          "type": "address"
        },
        {
          "indexed": true,
          "internalType": "address",
          "name": "sender",
          "type": "address"
        }
      ],
      "name": "RoleGranted",
      "type": "event"
    },
    {
      "anonymous": false,
      "inputs": [
        {
          "indexed": true,
          "internalType": "bytes32",
          "name": "role",
          "type": "bytes32"
        },
        {
          "indexed": true,
          "internalType": "address",
          "name": "account",
          "type": "address"
        },
        {
          "indexed": true,
          "internalType": "address",
          "name": "sender",
          "type": "address"
        }
      ],
      "name": "RoleRevoked",
      "type": "event"
    },
    {
      "anonymous": false,
      "inputs": [
        {
          "indexed": false,
          "internalType": "uint256",
          "name": "id",
          "type": "uint256"
        }
      ],
      "name": "Snapshot",
      "type": "event"
    },
    {
      "anonymous": false,
      "inputs": [
        {
          "indexed": true,
          "internalType": "address",
          "name": "from",
          "type": "address"
        },
        {
          "indexed": true,
          "internalType": "address",
          "name": "to",
          "type": "address"
        },
        {
          "indexed": false,
          "internalType": "uint256",
          "name": "value",
          "type": "uint256"
        }
      ],
      "name": "Transfer",
      "type": "event"
    },
    {
      "anonymous": false,
      "inputs": [
        {
          "indexed": false,
          "internalType": "address",
          "name": "account",
          "type": "address"
        }
      ],
      "name": "Unpaused",
      "type": "event"
    },
    {
      "inputs": [],
      "name": "DEFAULT_ADMIN_ROLE",
      "outputs": [
        {
          "internalType": "bytes32",
          "name": "",
          "type": "bytes32"
        }
      ],
      "stateMutability": "view",
      "type": "function"
    },
    {
      "inputs": [],
      "name": "DOMAIN_SEPARATOR",
      "outputs": [
        {
          "internalType": "bytes32",
          "name": "",
          "type": "bytes32"
        }
      ],
      "stateMutability": "view",
      "type": "function"
    },
    {
      "inputs": [],
      "name": "MINTER_ROLE",
      "outputs": [
        {
          "internalType": "bytes32",
          "name": "",
          "type": "bytes32"
        }
      ],
      "stateMutability": "view",
      "type": "function"
    },
    {
      "inputs": [],
      "name": "PAUSER_ROLE",
      "outputs": [
        {
          "internalType": "bytes32",
          "name": "",
          "type": "bytes32"
        }
      ],
      "stateMutability": "view",
      "type": "function"
    },
    {
      "inputs": [],
      "name": "PLFY",
      "outputs": [
        {
          "internalType": "contract PLFYToken",
          "name": "",
          "type": "address"
        }
      ],
      "stateMutability": "view",
      "type": "function"
    },
    {
      "inputs": [
        {
          "internalType": "address",
          "name": "owner",
          "type": "address"
        },
        {
          "internalType": "address",
          "name": "spender",
          "type": "address"
        }
      ],
      "name": "allowance",
      "outputs": [
        {
          "internalType": "uint256",
          "name": "",
          "type": "uint256"
        }
      ],
      "stateMutability": "view",
      "type": "function"
    },
    {
      "inputs": [
        {
          "internalType": "address",
          "name": "spender",
          "type": "address"
        },
        {
          "internalType": "uint256",
          "name": "amount",
          "type": "uint256"
        }
      ],
      "name": "approve",
      "outputs": [
        {
          "internalType": "bool",
          "name": "",
          "type": "bool"
        }
      ],
      "stateMutability": "nonpayable",
      "type": "function"
    },
    {
      "inputs": [
        {
          "internalType": "address",
          "name": "account",
          "type": "address"
        }
      ],
      "name": "balanceOf",
      "outputs": [
        {
          "internalType": "uint256",
          "name": "",
          "type": "uint256"
        }
      ],
      "stateMutability": "view",
      "type": "function"
    },
    {
      "inputs": [
        {
          "internalType": "address",
          "name": "account",
          "type": "address"
        },
        {
          "internalType": "uint256",
          "name": "snapshotId",
          "type": "uint256"
        }
      ],
      "name": "balanceOfAt",
      "outputs": [
        {
          "internalType": "uint256",
          "name": "",
          "type": "uint256"
        }
      ],
      "stateMutability": "view",
      "type": "function"
    },
    {
      "inputs": [
        {
          "internalType": "address",
          "name": "to",
          "type": "address"
        },
        {
          "internalType": "uint256",
          "name": "amount",
          "type": "uint256"
        }
      ],
      "name": "burn",
      "outputs": [],
      "stateMutability": "nonpayable",
      "type": "function"
    },
    {
      "inputs": [
        {
          "internalType": "address",
          "name": "account",
          "type": "address"
        },
        {
          "internalType": "uint32",
          "name": "pos",
          "type": "uint32"
        }
      ],
      "name": "checkpoints",
      "outputs": [
        {
          "components": [
            {
              "internalType": "uint32",
              "name": "fromBlock",
              "type": "uint32"
            },
            {
              "internalType": "uint224",
              "name": "votes",
              "type": "uint224"
            }
          ],
          "internalType": "struct ERC20Votes.Checkpoint",
          "name": "",
          "type": "tuple"
        }
      ],
      "stateMutability": "view",
      "type": "function"
    },
    {
      "inputs": [],
      "name": "decimals",
      "outputs": [
        {
          "internalType": "uint8",
          "name": "",
          "type": "uint8"
        }
      ],
      "stateMutability": "view",
      "type": "function"
    },
    {
      "inputs": [
        {
          "internalType": "address",
          "name": "spender",
          "type": "address"
        },
        {
          "internalType": "uint256",
          "name": "subtractedValue",
          "type": "uint256"
        }
      ],
      "name": "decreaseAllowance",
      "outputs": [
        {
          "internalType": "bool",
          "name": "",
          "type": "bool"
        }
      ],
      "stateMutability": "nonpayable",
      "type": "function"
    },
    {
      "inputs": [
        {
          "internalType": "address",
          "name": "delegatee",
          "type": "address"
        }
      ],
      "name": "delegate",
      "outputs": [],
      "stateMutability": "nonpayable",
      "type": "function"
    },
    {
      "inputs": [
        {
          "internalType": "address",
          "name": "delegatee",
          "type": "address"
        },
        {
          "internalType": "uint256",
          "name": "nonce",
          "type": "uint256"
        },
        {
          "internalType": "uint256",
          "name": "expiry",
          "type": "uint256"
        },
        {
          "internalType": "uint8",
          "name": "v",
          "type": "uint8"
        },
        {
          "internalType": "bytes32",
          "name": "r",
          "type": "bytes32"
        },
        {
          "internalType": "bytes32",
          "name": "s",
          "type": "bytes32"
        }
      ],
      "name": "delegateBySig",
      "outputs": [],
      "stateMutability": "nonpayable",
      "type": "function"
    },
    {
      "inputs": [
        {
          "internalType": "address",
          "name": "account",
          "type": "address"
        }
      ],
      "name": "delegates",
      "outputs": [
        {
          "internalType": "address",
          "name": "",
          "type": "address"
        }
      ],
      "stateMutability": "view",
      "type": "function"
    },
    {
      "inputs": [
        {
          "internalType": "uint256",
          "name": "blockNumber",
          "type": "uint256"
        }
      ],
      "name": "getPastTotalSupply",
      "outputs": [
        {
          "internalType": "uint256",
          "name": "",
          "type": "uint256"
        }
      ],
      "stateMutability": "view",
      "type": "function"
    },
    {
      "inputs": [
        {
          "internalType": "address",
          "name": "account",
          "type": "address"
        },
        {
          "internalType": "uint256",
          "name": "blockNumber",
          "type": "uint256"
        }
      ],
      "name": "getPastVotes",
      "outputs": [
        {
          "internalType": "uint256",
          "name": "",
          "type": "uint256"
        }
      ],
      "stateMutability": "view",
      "type": "function"
    },
    {
      "inputs": [
        {
          "internalType": "bytes32",
          "name": "role",
          "type": "bytes32"
        }
      ],
      "name": "getRoleAdmin",
      "outputs": [
        {
          "internalType": "bytes32",
          "name": "",
          "type": "bytes32"
        }
      ],
      "stateMutability": "view",
      "type": "function"
    },
    {
      "inputs": [
        {
          "internalType": "address",
          "name": "account",
          "type": "address"
        }
      ],
      "name": "getVotes",
      "outputs": [
        {
          "internalType": "uint256",
          "name": "",
          "type": "uint256"
        }
      ],
      "stateMutability": "view",
      "type": "function"
    },
    {
      "inputs": [
        {
          "internalType": "bytes32",
          "name": "role",
          "type": "bytes32"
        },
        {
          "internalType": "address",
          "name": "account",
          "type": "address"
        }
      ],
      "name": "grantRole",
      "outputs": [],
      "stateMutability": "nonpayable",
      "type": "function"
    },
    {
      "inputs": [
        {
          "internalType": "bytes32",
          "name": "role",
          "type": "bytes32"
        },
        {
          "internalType": "address",
          "name": "account",
          "type": "address"
        }
      ],
      "name": "hasRole",
      "outputs": [
        {
          "internalType": "bool",
          "name": "",
          "type": "bool"
        }
      ],
      "stateMutability": "view",
      "type": "function"
    },
    {
      "inputs": [
        {
          "internalType": "address",
          "name": "spender",
          "type": "address"
        },
        {
          "internalType": "uint256",
          "name": "addedValue",
          "type": "uint256"
        }
      ],
      "name": "increaseAllowance",
      "outputs": [
        {
          "internalType": "bool",
          "name": "",
          "type": "bool"
        }
      ],
      "stateMutability": "nonpayable",
      "type": "function"
    },
    {
      "inputs": [
        {
          "internalType": "address",
          "name": "to",
          "type": "address"
        },
        {
          "internalType": "uint256",
          "name": "amount",
          "type": "uint256"
        }
      ],
      "name": "mint",
      "outputs": [],
      "stateMutability": "nonpayable",
      "type": "function"
    },
    {
      "inputs": [],
      "name": "name",
      "outputs": [
        {
          "internalType": "string",
          "name": "",
          "type": "string"
        }
      ],
      "stateMutability": "view",
      "type": "function"
    },
    {
      "inputs": [
        {
          "internalType": "address",
          "name": "owner",
          "type": "address"
        }
      ],
      "name": "nonces",
      "outputs": [
        {
          "internalType": "uint256",
          "name": "",
          "type": "uint256"
        }
      ],
      "stateMutability": "view",
      "type": "function"
    },
    {
      "inputs": [
        {
          "internalType": "address",
          "name": "account",
          "type": "address"
        }
      ],
      "name": "numCheckpoints",
      "outputs": [
        {
          "internalType": "uint32",
          "name": "",
          "type": "uint32"
        }
      ],
      "stateMutability": "view",
      "type": "function"
    },
    {
      "inputs": [],
      "name": "owner",
      "outputs": [
        {
          "internalType": "address",
          "name": "",
          "type": "address"
        }
      ],
      "stateMutability": "view",
      "type": "function"
    },
    {
      "inputs": [],
      "name": "pause",
      "outputs": [],
      "stateMutability": "nonpayable",
      "type": "function"
    },
    {
      "inputs": [],
      "name": "paused",
      "outputs": [
        {
          "internalType": "bool",
          "name": "",
          "type": "bool"
        }
      ],
      "stateMutability": "view",
      "type": "function"
    },
    {
      "inputs": [
        {
          "internalType": "address",
          "name": "owner",
          "type": "address"
        },
        {
          "internalType": "address",
          "name": "spender",
          "type": "address"
        },
        {
          "internalType": "uint256",
          "name": "value",
          "type": "uint256"
        },
        {
          "internalType": "uint256",
          "name": "deadline",
          "type": "uint256"
        },
        {
          "internalType": "uint8",
          "name": "v",
          "type": "uint8"
        },
        {
          "internalType": "bytes32",
          "name": "r",
          "type": "bytes32"
        },
        {
          "internalType": "bytes32",
          "name": "s",
          "type": "bytes32"
        }
      ],
      "name": "permit",
      "outputs": [],
      "stateMutability": "nonpayable",
      "type": "function"
    },
    {
      "inputs": [],
      "name": "renounceOwnership",
      "outputs": [],
      "stateMutability": "nonpayable",
      "type": "function"
    },
    {
      "inputs": [
        {
          "internalType": "bytes32",
          "name": "role",
          "type": "bytes32"
        },
        {
          "internalType": "address",
          "name": "account",
          "type": "address"
        }
      ],
      "name": "renounceRole",
      "outputs": [],
      "stateMutability": "nonpayable",
      "type": "function"
    },
    {
      "inputs": [
        {
          "internalType": "bytes32",
          "name": "role",
          "type": "bytes32"
        },
        {
          "internalType": "address",
          "name": "account",
          "type": "address"
        }
      ],
      "name": "revokeRole",
      "outputs": [],
      "stateMutability": "nonpayable",
      "type": "function"
    },
    {
      "inputs": [
        {
          "internalType": "address",
          "name": "_to",
          "type": "address"
        },
        {
          "internalType": "uint256",
          "name": "_amount",
          "type": "uint256"
        }
      ],
      "name": "safePLFYTransfer",
      "outputs": [],
      "stateMutability": "nonpayable",
      "type": "function"
    },
    {
      "inputs": [],
      "name": "snapshot",
      "outputs": [],
      "stateMutability": "nonpayable",
      "type": "function"
    },
    {
      "inputs": [
        {
          "internalType": "bytes4",
          "name": "interfaceId",
          "type": "bytes4"
        }
      ],
      "name": "supportsInterface",
      "outputs": [
        {
          "internalType": "bool",
          "name": "",
          "type": "bool"
        }
      ],
      "stateMutability": "view",
      "type": "function"
    },
    {
      "inputs": [],
      "name": "symbol",
      "outputs": [
        {
          "internalType": "string",
          "name": "",
          "type": "string"
        }
      ],
      "stateMutability": "view",
      "type": "function"
    },
    {
      "inputs": [],
      "name": "totalSupply",
      "outputs": [
        {
          "internalType": "uint256",
          "name": "",
          "type": "uint256"
        }
      ],
      "stateMutability": "view",
      "type": "function"
    },
    {
      "inputs": [
        {
          "internalType": "uint256",
          "name": "snapshotId",
          "type": "uint256"
        }
      ],
      "name": "totalSupplyAt",
      "outputs": [
        {
          "internalType": "uint256",
          "name": "",
          "type": "uint256"
        }
      ],
      "stateMutability": "view",
      "type": "function"
    },
    {
      "inputs": [
        {
          "internalType": "address",
          "name": "to",
          "type": "address"
        },
        {
          "internalType": "uint256",
          "name": "amount",
          "type": "uint256"
        }
      ],
      "name": "transfer",
      "outputs": [
        {
          "internalType": "bool",
          "name": "",
          "type": "bool"
        }
      ],
      "stateMutability": "nonpayable",
      "type": "function"
    },
    {
      "inputs": [
        {
          "internalType": "address",
          "name": "from",
          "type": "address"
        },
        {
          "internalType": "address",
          "name": "to",
          "type": "address"
        },
        {
          "internalType": "uint256",
          "name": "amount",
          "type": "uint256"
        }
      ],
      "name": "transferFrom",
      "outputs": [
        {
          "internalType": "bool",
          "name": "",
          "type": "bool"
        }
      ],
      "stateMutability": "nonpayable",
      "type": "function"
    },
    {
      "inputs": [
        {
          "internalType": "address",
          "name": "newOwner",
          "type": "address"
        }
      ],
      "name": "transferOwnership",
      "outputs": [],
      "stateMutability": "nonpayable",
      "type": "function"
    },
    {
      "inputs": [],
      "name": "unpause",
      "outputs": [],
      "stateMutability": "nonpayable",
      "type": "function"
    }
  ],
  "bytecode": "0x6101806040527f6e71edae12b1b97f4d1f60370fef10105fa2faae0126114a169c64845d6126c9610140908152503480156200003a57600080fd5b506040516200628e3803806200628e8339818101604052810190620000609190620006a5565b6040518060400160405280600781526020017f496365504c465900000000000000000000000000000000000000000000000000815250806040518060400160405280600181526020017f31000000000000000000000000000000000000000000000000000000000000008152506040518060400160405280600781526020017f496365504c4659000000000000000000000000000000000000000000000000008152506040518060400160405280600781526020017f496365504c46590000000000000000000000000000000000000000000000000081525081600390805190602001906200015192919062000577565b5080600490805190602001906200016a92919062000577565b5050506200018d620001816200031060201b60201c565b6200031860201b60201c565b6000600960146101000a81548160ff02191690831515021790555060008280519060200120905060008280519060200120905060007f8b73c3c69bb8fe3d512ecc4cf759cc79239f7b179b0ffacaa9a75d522b39400f90508260e081815250508161010081815250504660a0818152505062000211818484620003de60201b60201c565b608081815250503073ffffffffffffffffffffffffffffffffffffffff1660c08173ffffffffffffffffffffffffffffffffffffffff16815250508061012081815250505050505050508073ffffffffffffffffffffffffffffffffffffffff166101608173ffffffffffffffffffffffffffffffffffffffff1681525050620002a56000801b336200041a60201b60201c565b620002d77f65d7a28e3265b37a6474929f336521b332c1681b933f6cb9f3376673440d862a336200041a60201b60201c565b620003097f9f2df0fed2c77648de5860a4cc508cd0818c85b8b8a1ab4ceeef8d981c8956a6336200041a60201b60201c565b50620007e0565b600033905090565b6000600960009054906101000a900473ffffffffffffffffffffffffffffffffffffffff16905081600960006101000a81548173ffffffffffffffffffffffffffffffffffffffff021916908373ffffffffffffffffffffffffffffffffffffffff1602179055508173ffffffffffffffffffffffffffffffffffffffff168173ffffffffffffffffffffffffffffffffffffffff167f8be0079c531659141344cd1fd0a4f28419497f9722a3daafe3b4186f6b6457e060405160405180910390a35050565b60008383834630604051602001620003fb9594939291906200071e565b6040516020818303038152906040528051906020012090509392505050565b6200042c82826200050c60201b60201c565b62000508576001600e600084815260200190815260200160002060000160008373ffffffffffffffffffffffffffffffffffffffff1673ffffffffffffffffffffffffffffffffffffffff16815260200190815260200160002060006101000a81548160ff021916908315150217905550620004ad6200031060201b60201c565b73ffffffffffffffffffffffffffffffffffffffff168173ffffffffffffffffffffffffffffffffffffffff16837f2f8788117e7eff1d82e926ec794901d17c78024a50270940304540a733656f0d60405160405180910390a45b5050565b6000600e600084815260200190815260200160002060000160008373ffffffffffffffffffffffffffffffffffffffff1673ffffffffffffffffffffffffffffffffffffffff16815260200190815260200160002060009054906101000a900460ff16905092915050565b8280546200058590620007aa565b90600052602060002090601f016020900481019282620005a95760008555620005f5565b82601f10620005c457805160ff1916838001178555620005f5565b82800160010185558215620005f5579182015b82811115620005f4578251825591602001919060010190620005d7565b5b50905062000604919062000608565b5090565b5b808211156200062357600081600090555060010162000609565b5090565b600080fd5b600073ffffffffffffffffffffffffffffffffffffffff82169050919050565b600062000659826200062c565b9050919050565b60006200066d826200064c565b9050919050565b6200067f8162000660565b81146200068b57600080fd5b50565b6000815190506200069f8162000674565b92915050565b600060208284031215620006be57620006bd62000627565b5b6000620006ce848285016200068e565b91505092915050565b6000819050919050565b620006ec81620006d7565b82525050565b6000819050919050565b6200070781620006f2565b82525050565b62000718816200064c565b82525050565b600060a082019050620007356000830188620006e1565b620007446020830187620006e1565b620007536040830186620006e1565b620007626060830185620006fc565b6200077160808301846200070d565b9695505050505050565b7f4e487b7100000000000000000000000000000000000000000000000000000000600052602260045260246000fd5b60006002820490506001821680620007c357607f821691505b60208210811415620007da57620007d96200077b565b5b50919050565b60805160a05160c05160e05161010051610120516101405161016051615a336200085b600039600081816109c401528181611422015281816114c6015261156a0152600061177c015260006122ed0152600061232f0152600061230e0152600061224301526000612299015260006122c20152615a336000f3fe608060405234801561001057600080fd5b50600436106102745760003560e01c80637ecebe0011610151578063a457c2d7116100c3578063d539139311610087578063d5391393146107bf578063d547741f146107dd578063dd62ed3e146107f9578063e63ab1e914610829578063f1127ed814610847578063f2fde38b1461087757610274565b8063a457c2d71461070b578063a6a0e5811461073b578063a9059cbb14610757578063c3cda52014610787578063d505accf146107a357610274565b806395d89b411161011557806395d89b41146106495780639711715a14610667578063981b24d0146106715780639ab24eb0146106a15780639dc29fac146106d1578063a217fddf146106ed57610274565b80637ecebe00146105915780638456cb59146105c15780638da5cb5b146105cb5780638e539e8c146105e957806391d148541461061957610274565b806339509351116101ea578063587cde1e116101ae578063587cde1e146104bd5780635c19a95c146104ed5780635c975abb146105095780636fcfff451461052757806370a0823114610557578063715018a61461058757610274565b806339509351146104075780633a46b1a8146104375780633f4ba83a1461046757806340c10f19146104715780634ee2cd7e1461048d57610274565b806323b872dd1161023c57806323b872dd14610333578063248a9ca3146103635780632f2ff15d14610393578063313ce567146103af5780633644e515146103cd57806336568abe146103eb57610274565b806301ffc9a71461027957806306fdde03146102a9578063095ea7b3146102c75780630d5998a2146102f757806318160ddd14610315575b600080fd5b610293600480360381019061028e9190613d71565b610893565b6040516102a09190613db9565b60405180910390f35b6102b161090d565b6040516102be9190613e6d565b60405180910390f35b6102e160048036038101906102dc9190613f23565b61099f565b6040516102ee9190613db9565b60405180910390f35b6102ff6109c2565b60405161030c9190613fc2565b60405180910390f35b61031d6109e6565b60405161032a9190613fec565b60405180910390f35b61034d60048036038101906103489190614007565b6109f0565b60405161035a9190613db9565b60405180910390f35b61037d60048036038101906103789190614090565b610a1f565b60405161038a91906140cc565b60405180910390f35b6103ad60048036038101906103a891906140e7565b610a3f565b005b6103b7610a68565b6040516103c49190614143565b60405180910390f35b6103d5610a71565b6040516103e291906140cc565b60405180910390f35b610405600480360381019061040091906140e7565b610a80565b005b610421600480360381019061041c9190613f23565b610b03565b60405161042e9190613db9565b60405180910390f35b610451600480360381019061044c9190613f23565b610bad565b60405161045e9190613fec565b60405180910390f35b61046f610c41565b005b61048b60048036038101906104869190613f23565b610c7e565b005b6104a760048036038101906104a29190613f23565b610cbf565b6040516104b49190613fec565b60405180910390f35b6104d760048036038101906104d2919061415e565b610d2f565b6040516104e4919061419a565b60405180910390f35b6105076004803603810190610502919061415e565b610d98565b005b610511610dac565b60405161051e9190613db9565b60405180910390f35b610541600480360381019061053c919061415e565b610dc3565b60405161054e91906141d4565b60405180910390f35b610571600480360381019061056c919061415e565b610e17565b60405161057e9190613fec565b60405180910390f35b61058f610e5f565b005b6105ab60048036038101906105a6919061415e565b610ee7565b6040516105b89190613fec565b60405180910390f35b6105c9610f37565b005b6105d3610f74565b6040516105e0919061419a565b60405180910390f35b61060360048036038101906105fe91906141ef565b610f9e565b6040516106109190613fec565b60405180910390f35b610633600480360381019061062e91906140e7565b610ff4565b6040516106409190613db9565b60405180910390f35b61065161105f565b60405161065e9190613e6d565b60405180910390f35b61066f6110f1565b005b61068b600480360381019061068691906141ef565b611178565b6040516106989190613fec565b60405180910390f35b6106bb60048036038101906106b6919061415e565b6111a9565b6040516106c89190613fec565b60405180910390f35b6106eb60048036038101906106e69190613f23565b6112ba565b005b6106f56112fb565b60405161070291906140cc565b60405180910390f35b61072560048036038101906107209190613f23565b611302565b6040516107329190613db9565b60405180910390f35b61075560048036038101906107509190613f23565b6113ec565b005b610771600480360381019061076c9190613f23565b61160e565b60405161077e9190613db9565b60405180910390f35b6107a1600480360381019061079c9190614248565b611631565b005b6107bd60048036038101906107b891906142d5565b611735565b005b6107c7611877565b6040516107d491906140cc565b60405180910390f35b6107f760048036038101906107f291906140e7565b61189b565b005b610813600480360381019061080e9190614377565b6118c4565b6040516108209190613fec565b60405180910390f35b61083161194b565b60405161083e91906140cc565b60405180910390f35b610861600480360381019061085c91906143e3565b61196f565b60405161086e9190614498565b60405180910390f35b610891600480360381019061088c919061415e565b611a7f565b005b60007f7965db0b000000000000000000000000000000000000000000000000000000007bffffffffffffffffffffffffffffffffffffffffffffffffffffffff1916827bffffffffffffffffffffffffffffffffffffffffffffffffffffffff19161480610906575061090582611b77565b5b9050919050565b60606003805461091c906144e2565b80601f0160208091040260200160405190810160405280929190818152602001828054610948906144e2565b80156109955780601f1061096a57610100808354040283529160200191610995565b820191906000526020600020905b81548152906001019060200180831161097857829003601f168201915b5050505050905090565b6000806109aa611be1565b90506109b7818585611be9565b600191505092915050565b7f000000000000000000000000000000000000000000000000000000000000000081565b6000600254905090565b6000806109fb611be1565b9050610a08858285611db4565b610a13858585611e40565b60019150509392505050565b6000600e6000838152602001908152602001600020600101549050919050565b610a4882610a1f565b610a5981610a54611be1565b6120c1565b610a63838361215e565b505050565b60006012905090565b6000610a7b61223f565b905090565b610a88611be1565b73ffffffffffffffffffffffffffffffffffffffff168173ffffffffffffffffffffffffffffffffffffffff1614610af5576040517f08c379a0000000000000000000000000000000000000000000000000000000008152600401610aec90614586565b60405180910390fd5b610aff8282612359565b5050565b600080610b0e611be1565b9050610ba2818585600160008673ffffffffffffffffffffffffffffffffffffffff1673ffffffffffffffffffffffffffffffffffffffff16815260200190815260200160002060008973ffffffffffffffffffffffffffffffffffffffff1673ffffffffffffffffffffffffffffffffffffffff16815260200190815260200160002054610b9d91906145d5565b611be9565b600191505092915050565b6000438210610bf1576040517f08c379a0000000000000000000000000000000000000000000000000000000008152600401610be890614677565b60405180910390fd5b610c39600c60008573ffffffffffffffffffffffffffffffffffffffff1673ffffffffffffffffffffffffffffffffffffffff1681526020019081526020016000208361243b565b905092915050565b7f65d7a28e3265b37a6474929f336521b332c1681b933f6cb9f3376673440d862a610c7381610c6e611be1565b6120c1565b610c7b612547565b50565b7f9f2df0fed2c77648de5860a4cc508cd0818c85b8b8a1ab4ceeef8d981c8956a6610cb081610cab611be1565b6120c1565b610cba83836125e9565b505050565b6000806000610d0c84600560008873ffffffffffffffffffffffffffffffffffffffff1673ffffffffffffffffffffffffffffffffffffffff1681526020019081526020016000206125f7565b9150915081610d2357610d1e85610e17565b610d25565b805b9250505092915050565b6000600b60008373ffffffffffffffffffffffffffffffffffffffff1673ffffffffffffffffffffffffffffffffffffffff16815260200190815260200160002060009054906101000a900473ffffffffffffffffffffffffffffffffffffffff169050919050565b610da9610da3611be1565b826126ed565b50565b6000600960149054906101000a900460ff16905090565b6000610e10600c60008473ffffffffffffffffffffffffffffffffffffffff1673ffffffffffffffffffffffffffffffffffffffff16815260200190815260200160002080549050612807565b9050919050565b60008060008373ffffffffffffffffffffffffffffffffffffffff1673ffffffffffffffffffffffffffffffffffffffff168152602001908152602001600020549050919050565b610e67611be1565b73ffffffffffffffffffffffffffffffffffffffff16610e85610f74565b73ffffffffffffffffffffffffffffffffffffffff1614610edb576040517f08c379a0000000000000000000000000000000000000000000000000000000008152600401610ed2906146e3565b60405180910390fd5b610ee5600061285a565b565b6000610f30600a60008473ffffffffffffffffffffffffffffffffffffffff1673ffffffffffffffffffffffffffffffffffffffff168152602001908152602001600020612920565b9050919050565b7f65d7a28e3265b37a6474929f336521b332c1681b933f6cb9f3376673440d862a610f6981610f64611be1565b6120c1565b610f7161292e565b50565b6000600960009054906101000a900473ffffffffffffffffffffffffffffffffffffffff16905090565b6000438210610fe2576040517f08c379a0000000000000000000000000000000000000000000000000000000008152600401610fd990614677565b60405180910390fd5b610fed600d8361243b565b9050919050565b6000600e600084815260200190815260200160002060000160008373ffffffffffffffffffffffffffffffffffffffff1673ffffffffffffffffffffffffffffffffffffffff16815260200190815260200160002060009054906101000a900460ff16905092915050565b60606004805461106e906144e2565b80601f016020809104026020016040519081016040528092919081815260200182805461109a906144e2565b80156110e75780601f106110bc576101008083540402835291602001916110e7565b820191906000526020600020905b8154815290600101906020018083116110ca57829003601f168201915b5050505050905090565b6110f9611be1565b73ffffffffffffffffffffffffffffffffffffffff16611117610f74565b73ffffffffffffffffffffffffffffffffffffffff161461116d576040517f08c379a0000000000000000000000000000000000000000000000000000000008152600401611164906146e3565b60405180910390fd5b6111756129d1565b50565b60008060006111888460066125f7565b915091508161119e576111996109e6565b6111a0565b805b92505050919050565b600080600c60008473ffffffffffffffffffffffffffffffffffffffff1673ffffffffffffffffffffffffffffffffffffffff1681526020019081526020016000208054905090506000811461129157600c60008473ffffffffffffffffffffffffffffffffffffffff1673ffffffffffffffffffffffffffffffffffffffff1681526020019081526020016000206001826112459190614703565b8154811061125657611255614737565b5b9060005260206000200160000160049054906101000a90047bffffffffffffffffffffffffffffffffffffffffffffffffffffffff16611294565b60005b7bffffffffffffffffffffffffffffffffffffffffffffffffffffffff16915050919050565b7f9f2df0fed2c77648de5860a4cc508cd0818c85b8b8a1ab4ceeef8d981c8956a66112ec816112e7611be1565b6120c1565b6112f68383612a27565b505050565b6000801b81565b60008061130d611be1565b90506000600160008373ffffffffffffffffffffffffffffffffffffffff1673ffffffffffffffffffffffffffffffffffffffff16815260200190815260200160002060008673ffffffffffffffffffffffffffffffffffffffff1673ffffffffffffffffffffffffffffffffffffffff168152602001908152602001600020549050838110156113d3576040517f08c379a00000000000000000000000000000000000000000000000000000000081526004016113ca906147d8565b60405180910390fd5b6113e08286868403611be9565b60019250505092915050565b7f9f2df0fed2c77648de5860a4cc508cd0818c85b8b8a1ab4ceeef8d981c8956a661141e81611419611be1565b6120c1565b60007f000000000000000000000000000000000000000000000000000000000000000073ffffffffffffffffffffffffffffffffffffffff166370a08231306040518263ffffffff1660e01b8152600401611479919061419a565b602060405180830381865afa158015611496573d6000803e3d6000fd5b505050506040513d601f19601f820116820180604052508101906114ba919061480d565b905080831115611568577f000000000000000000000000000000000000000000000000000000000000000073ffffffffffffffffffffffffffffffffffffffff1663a9059cbb85836040518363ffffffff1660e01b815260040161151f92919061483a565b6020604051808303816000875af115801561153e573d6000803e3d6000fd5b505050506040513d601f19601f82011682018060405250810190611562919061488f565b50611608565b7f000000000000000000000000000000000000000000000000000000000000000073ffffffffffffffffffffffffffffffffffffffff1663a9059cbb85856040518363ffffffff1660e01b81526004016115c392919061483a565b6020604051808303816000875af11580156115e2573d6000803e3d6000fd5b505050506040513d601f19601f82011682018060405250810190611606919061488f565b505b50505050565b600080611619611be1565b9050611626818585611e40565b600191505092915050565b83421115611674576040517f08c379a000000000000000000000000000000000000000000000000000000000815260040161166b90614908565b60405180910390fd5b60006116d66116ce7fe48329057bfd03d55e49b547132e39cffd9c1820ad7b9d4c5307691425d15adf8989896040516020016116b39493929190614928565b60405160208183030381529060405280519060200120612a35565b858585612a4f565b90506116e181612a7a565b8614611722576040517f08c379a0000000000000000000000000000000000000000000000000000000008152600401611719906149b9565b60405180910390fd5b61172c81886126ed565b50505050505050565b83421115611778576040517f08c379a000000000000000000000000000000000000000000000000000000000815260040161176f90614a25565b60405180910390fd5b60007f00000000000000000000000000000000000000000000000000000000000000008888886117a78c612a7a565b896040516020016117bd96959493929190614a45565b60405160208183030381529060405280519060200120905060006117e082612a35565b905060006117f082878787612a4f565b90508973ffffffffffffffffffffffffffffffffffffffff168173ffffffffffffffffffffffffffffffffffffffff1614611860576040517f08c379a000000000000000000000000000000000000000000000000000000000815260040161185790614af2565b60405180910390fd5b61186b8a8a8a611be9565b50505050505050505050565b7f9f2df0fed2c77648de5860a4cc508cd0818c85b8b8a1ab4ceeef8d981c8956a681565b6118a482610a1f565b6118b5816118b0611be1565b6120c1565b6118bf8383612359565b505050565b6000600160008473ffffffffffffffffffffffffffffffffffffffff1673ffffffffffffffffffffffffffffffffffffffff16815260200190815260200160002060008373ffffffffffffffffffffffffffffffffffffffff1673ffffffffffffffffffffffffffffffffffffffff16815260200190815260200160002054905092915050565b7f65d7a28e3265b37a6474929f336521b332c1681b933f6cb9f3376673440d862a81565b611977613cd6565b600c60008473ffffffffffffffffffffffffffffffffffffffff1673ffffffffffffffffffffffffffffffffffffffff1681526020019081526020016000208263ffffffff16815481106119ce576119cd614737565b5b906000526020600020016040518060400160405290816000820160009054906101000a900463ffffffff1663ffffffff1663ffffffff1681526020016000820160049054906101000a90047bffffffffffffffffffffffffffffffffffffffffffffffffffffffff167bffffffffffffffffffffffffffffffffffffffffffffffffffffffff167bffffffffffffffffffffffffffffffffffffffffffffffffffffffff1681525050905092915050565b611a87611be1565b73ffffffffffffffffffffffffffffffffffffffff16611aa5610f74565b73ffffffffffffffffffffffffffffffffffffffff1614611afb576040517f08c379a0000000000000000000000000000000000000000000000000000000008152600401611af2906146e3565b60405180910390fd5b600073ffffffffffffffffffffffffffffffffffffffff168173ffffffffffffffffffffffffffffffffffffffff161415611b6b576040517f08c379a0000000000000000000000000000000000000000000000000000000008152600401611b6290614b84565b60405180910390fd5b611b748161285a565b50565b60007f01ffc9a7000000000000000000000000000000000000000000000000000000007bffffffffffffffffffffffffffffffffffffffffffffffffffffffff1916827bffffffffffffffffffffffffffffffffffffffffffffffffffffffff1916149050919050565b600033905090565b600073ffffffffffffffffffffffffffffffffffffffff168373ffffffffffffffffffffffffffffffffffffffff161415611c59576040517f08c379a0000000000000000000000000000000000000000000000000000000008152600401611c5090614c16565b60405180910390fd5b600073ffffffffffffffffffffffffffffffffffffffff168273ffffffffffffffffffffffffffffffffffffffff161415611cc9576040517f08c379a0000000000000000000000000000000000000000000000000000000008152600401611cc090614ca8565b60405180910390fd5b80600160008573ffffffffffffffffffffffffffffffffffffffff1673ffffffffffffffffffffffffffffffffffffffff16815260200190815260200160002060008473ffffffffffffffffffffffffffffffffffffffff1673ffffffffffffffffffffffffffffffffffffffff168152602001908152602001600020819055508173ffffffffffffffffffffffffffffffffffffffff168373ffffffffffffffffffffffffffffffffffffffff167f8c5be1e5ebec7d5bd14f71427d1e84f3dd0314c0f7b2291e5b200ac8c7c3b92583604051611da79190613fec565b60405180910390a3505050565b6000611dc084846118c4565b90507fffffffffffffffffffffffffffffffffffffffffffffffffffffffffffffffff8114611e3a5781811015611e2c576040517f08c379a0000000000000000000000000000000000000000000000000000000008152600401611e2390614d14565b60405180910390fd5b611e398484848403611be9565b5b50505050565b600073ffffffffffffffffffffffffffffffffffffffff168373ffffffffffffffffffffffffffffffffffffffff161415611eb0576040517f08c379a0000000000000000000000000000000000000000000000000000000008152600401611ea790614da6565b60405180910390fd5b600073ffffffffffffffffffffffffffffffffffffffff168273ffffffffffffffffffffffffffffffffffffffff161415611f20576040517f08c379a0000000000000000000000000000000000000000000000000000000008152600401611f1790614e38565b60405180910390fd5b611f2b838383612ad8565b60008060008573ffffffffffffffffffffffffffffffffffffffff1673ffffffffffffffffffffffffffffffffffffffff16815260200190815260200160002054905081811015611fb1576040517f08c379a0000000000000000000000000000000000000000000000000000000008152600401611fa890614eca565b60405180910390fd5b8181036000808673ffffffffffffffffffffffffffffffffffffffff1673ffffffffffffffffffffffffffffffffffffffff16815260200190815260200160002081905550816000808573ffffffffffffffffffffffffffffffffffffffff1673ffffffffffffffffffffffffffffffffffffffff168152602001908152602001600020600082825461204491906145d5565b925050819055508273ffffffffffffffffffffffffffffffffffffffff168473ffffffffffffffffffffffffffffffffffffffff167fddf252ad1be2c89b69c2b068fc378daa952ba7f163c4a11628f55a4df523b3ef846040516120a89190613fec565b60405180910390a36120bb848484612ae8565b50505050565b6120cb8282610ff4565b61215a576120f08173ffffffffffffffffffffffffffffffffffffffff166014612af8565b6120fe8360001c6020612af8565b60405160200161210f929190614fbe565b6040516020818303038152906040526040517f08c379a00000000000000000000000000000000000000000000000000000000081526004016121519190613e6d565b60405180910390fd5b5050565b6121688282610ff4565b61223b576001600e600084815260200190815260200160002060000160008373ffffffffffffffffffffffffffffffffffffffff1673ffffffffffffffffffffffffffffffffffffffff16815260200190815260200160002060006101000a81548160ff0219169083151502179055506121e0611be1565b73ffffffffffffffffffffffffffffffffffffffff168173ffffffffffffffffffffffffffffffffffffffff16837f2f8788117e7eff1d82e926ec794901d17c78024a50270940304540a733656f0d60405160405180910390a45b5050565b60007f000000000000000000000000000000000000000000000000000000000000000073ffffffffffffffffffffffffffffffffffffffff163073ffffffffffffffffffffffffffffffffffffffff161480156122bb57507f000000000000000000000000000000000000000000000000000000000000000046145b156122e8577f00000000000000000000000000000000000000000000000000000000000000009050612356565b6123537f00000000000000000000000000000000000000000000000000000000000000007f00000000000000000000000000000000000000000000000000000000000000007f0000000000000000000000000000000000000000000000000000000000000000612d34565b90505b90565b6123638282610ff4565b15612437576000600e600084815260200190815260200160002060000160008373ffffffffffffffffffffffffffffffffffffffff1673ffffffffffffffffffffffffffffffffffffffff16815260200190815260200160002060006101000a81548160ff0219169083151502179055506123dc611be1565b73ffffffffffffffffffffffffffffffffffffffff168173ffffffffffffffffffffffffffffffffffffffff16837ff6391f5c32d9c69d2a47ea670b442974b53935d1edc7fd64eb21e047a839171b60405160405180910390a45b5050565b6000808380549050905060005b818110156124ba57600061245c8284612d6e565b90508486828154811061247257612471614737565b5b9060005260206000200160000160009054906101000a900463ffffffff1663ffffffff1611156124a4578092506124b4565b6001816124b191906145d5565b91505b50612448565b6000821461251c57846001836124d09190614703565b815481106124e1576124e0614737565b5b9060005260206000200160000160049054906101000a90047bffffffffffffffffffffffffffffffffffffffffffffffffffffffff1661251f565b60005b7bffffffffffffffffffffffffffffffffffffffffffffffffffffffff169250505092915050565b61254f610dac565b61258e576040517f08c379a000000000000000000000000000000000000000000000000000000000815260040161258590615044565b60405180910390fd5b6000600960146101000a81548160ff0219169083151502179055507f5db9ee0a495bf2e6ff9c91a7834c1ba4fdd244a5e8aa4e537bd38aeae4b073aa6125d2611be1565b6040516125df919061419a565b60405180910390a1565b6125f38282612d94565b5050565b6000806000841161263d576040517f08c379a0000000000000000000000000000000000000000000000000000000008152600401612634906150b0565b60405180910390fd5b612645612e21565b841115612687576040517f08c379a000000000000000000000000000000000000000000000000000000000815260040161267e9061511c565b60405180910390fd5b600061269f8585600001612e3290919063ffffffff16565b905083600001805490508114156126bd5760008092509250506126e6565b60018460010182815481106126d5576126d4614737565b5b906000526020600020015492509250505b9250929050565b60006126f883610d2f565b9050600061270584610e17565b905082600b60008673ffffffffffffffffffffffffffffffffffffffff1673ffffffffffffffffffffffffffffffffffffffff16815260200190815260200160002060006101000a81548173ffffffffffffffffffffffffffffffffffffffff021916908373ffffffffffffffffffffffffffffffffffffffff1602179055508273ffffffffffffffffffffffffffffffffffffffff168273ffffffffffffffffffffffffffffffffffffffff168573ffffffffffffffffffffffffffffffffffffffff167f3134e8a2e6d97e929a7e54011ea5485d7d196dd5f0ba4d4ef95803e8e3fc257f60405160405180910390a4612801828483612f0c565b50505050565b600063ffffffff8016821115612852576040517f08c379a0000000000000000000000000000000000000000000000000000000008152600401612849906151ae565b60405180910390fd5b819050919050565b6000600960009054906101000a900473ffffffffffffffffffffffffffffffffffffffff16905081600960006101000a81548173ffffffffffffffffffffffffffffffffffffffff021916908373ffffffffffffffffffffffffffffffffffffffff1602179055508173ffffffffffffffffffffffffffffffffffffffff168173ffffffffffffffffffffffffffffffffffffffff167f8be0079c531659141344cd1fd0a4f28419497f9722a3daafe3b4186f6b6457e060405160405180910390a35050565b600081600001549050919050565b612936610dac565b15612976576040517f08c379a000000000000000000000000000000000000000000000000000000000815260040161296d9061521a565b60405180910390fd5b6001600960146101000a81548160ff0219169083151502179055507f62e78cea01bee320cd4e420270b5ea74000d11b0c9f74754ebdbfc544b05a2586129ba611be1565b6040516129c7919061419a565b60405180910390a1565b60006129dd6008613105565b60006129e7612e21565b90507f8030e83b04d87bef53480e26263266d6ca66863aa8506aca6f2559d18aa1cb6781604051612a189190613fec565b60405180910390a18091505090565b612a31828261311b565b5050565b6000612a48612a4261223f565b83613139565b9050919050565b6000806000612a608787878761316c565b91509150612a6d81613279565b8192505050949350505050565b600080600a60008473ffffffffffffffffffffffffffffffffffffffff1673ffffffffffffffffffffffffffffffffffffffff1681526020019081526020016000209050612ac781612920565b9150612ad281613105565b50919050565b612ae383838361344e565b505050565b612af3838383613508565b505050565b606060006002836002612b0b919061523a565b612b1591906145d5565b67ffffffffffffffff811115612b2e57612b2d615294565b5b6040519080825280601f01601f191660200182016040528015612b605781602001600182028036833780820191505090505b5090507f300000000000000000000000000000000000000000000000000000000000000081600081518110612b9857612b97614737565b5b60200101907effffffffffffffffffffffffffffffffffffffffffffffffffffffffffffff1916908160001a9053507f780000000000000000000000000000000000000000000000000000000000000081600181518110612bfc57612bfb614737565b5b60200101907effffffffffffffffffffffffffffffffffffffffffffffffffffffffffffff1916908160001a90535060006001846002612c3c919061523a565b612c4691906145d5565b90505b6001811115612ce6577f3031323334353637383961626364656600000000000000000000000000000000600f861660108110612c8857612c87614737565b5b1a60f81b828281518110612c9f57612c9e614737565b5b60200101907effffffffffffffffffffffffffffffffffffffffffffffffffffffffffffff1916908160001a905350600485901c945080612cdf906152c3565b9050612c49565b5060008414612d2a576040517f08c379a0000000000000000000000000000000000000000000000000000000008152600401612d2190615339565b60405180910390fd5b8091505092915050565b60008383834630604051602001612d4f959493929190615359565b6040516020818303038152906040528051906020012090509392505050565b60006002828418612d7f91906153db565b828416612d8c91906145d5565b905092915050565b612d9e8282613533565b612da6613693565b7bffffffffffffffffffffffffffffffffffffffffffffffffffffffff16612dcc6109e6565b1115612e0d576040517f08c379a0000000000000000000000000000000000000000000000000000000008152600401612e049061547e565b60405180910390fd5b612e1b600d6136b7836136cd565b50505050565b6000612e2d6008612920565b905090565b60008083805490501415612e495760009050612f06565b600080848054905090505b80821015612ead576000612e688383612d6e565b905084868281548110612e7e57612e7d614737565b5b90600052602060002001541115612e9757809150612ea7565b600181612ea491906145d5565b92505b50612e54565b600082118015612ee557508385600184612ec79190614703565b81548110612ed857612ed7614737565b5b9060005260206000200154145b15612f0057600182612ef79190614703565b92505050612f06565b81925050505b92915050565b8173ffffffffffffffffffffffffffffffffffffffff168373ffffffffffffffffffffffffffffffffffffffff1614158015612f485750600081115b1561310057600073ffffffffffffffffffffffffffffffffffffffff168373ffffffffffffffffffffffffffffffffffffffff161461302657600080612fcf600c60008773ffffffffffffffffffffffffffffffffffffffff1673ffffffffffffffffffffffffffffffffffffffff168152602001908152602001600020613945856136cd565b915091508473ffffffffffffffffffffffffffffffffffffffff167fdec2bacdd2f05b59de34da9b523dff8be42e5e38e818c82fdb0bae774387a724838360405161301b92919061549e565b60405180910390a250505b600073ffffffffffffffffffffffffffffffffffffffff168273ffffffffffffffffffffffffffffffffffffffff16146130ff576000806130a8600c60008673ffffffffffffffffffffffffffffffffffffffff1673ffffffffffffffffffffffffffffffffffffffff1681526020019081526020016000206136b7856136cd565b915091508373ffffffffffffffffffffffffffffffffffffffff167fdec2bacdd2f05b59de34da9b523dff8be42e5e38e818c82fdb0bae774387a72483836040516130f492919061549e565b60405180910390a250505b5b505050565b6001816000016000828254019250508190555050565b613125828261395b565b613133600d613945836136cd565b50505050565b6000828260405160200161314e929190615534565b60405160208183030381529060405280519060200120905092915050565b6000807f7fffffffffffffffffffffffffffffff5d576e7357a4501ddfe92f46681b20a08360001c11156131a7576000600391509150613270565b601b8560ff16141580156131bf5750601c8560ff1614155b156131d1576000600491509150613270565b6000600187878787604051600081526020016040526040516131f6949392919061556b565b6020604051602081039080840390855afa158015613218573d6000803e3d6000fd5b505050602060405103519050600073ffffffffffffffffffffffffffffffffffffffff168173ffffffffffffffffffffffffffffffffffffffff16141561326757600060019250925050613270565b80600092509250505b94509492505050565b6000600481111561328d5761328c6155b0565b5b8160048111156132a05761329f6155b0565b5b14156132ab5761344b565b600160048111156132bf576132be6155b0565b5b8160048111156132d2576132d16155b0565b5b1415613313576040517f08c379a000000000000000000000000000000000000000000000000000000000815260040161330a9061562b565b60405180910390fd5b60026004811115613327576133266155b0565b5b81600481111561333a576133396155b0565b5b141561337b576040517f08c379a000000000000000000000000000000000000000000000000000000000815260040161337290615697565b60405180910390fd5b6003600481111561338f5761338e6155b0565b5b8160048111156133a2576133a16155b0565b5b14156133e3576040517f08c379a00000000000000000000000000000000000000000000000000000000081526004016133da90615729565b60405180910390fd5b6004808111156133f6576133f56155b0565b5b816004811115613409576134086155b0565b5b141561344a576040517f08c379a0000000000000000000000000000000000000000000000000000000008152600401613441906157bb565b60405180910390fd5b5b50565b613459838383613b32565b600073ffffffffffffffffffffffffffffffffffffffff168373ffffffffffffffffffffffffffffffffffffffff1614156134a45761349782613b37565b61349f613b8a565b613503565b600073ffffffffffffffffffffffffffffffffffffffff168273ffffffffffffffffffffffffffffffffffffffff1614156134ef576134e283613b37565b6134ea613b8a565b613502565b6134f883613b37565b61350182613b37565b5b5b505050565b613513838383613b9e565b61352e61351f84610d2f565b61352884610d2f565b83612f0c565b505050565b600073ffffffffffffffffffffffffffffffffffffffff168273ffffffffffffffffffffffffffffffffffffffff1614156135a3576040517f08c379a000000000000000000000000000000000000000000000000000000000815260040161359a90615827565b60405180910390fd5b6135af60008383612ad8565b80600260008282546135c191906145d5565b92505081905550806000808473ffffffffffffffffffffffffffffffffffffffff1673ffffffffffffffffffffffffffffffffffffffff168152602001908152602001600020600082825461361691906145d5565b925050819055508173ffffffffffffffffffffffffffffffffffffffff16600073ffffffffffffffffffffffffffffffffffffffff167fddf252ad1be2c89b69c2b068fc378daa952ba7f163c4a11628f55a4df523b3ef8360405161367b9190613fec565b60405180910390a361368f60008383612ae8565b5050565b60007bffffffffffffffffffffffffffffffffffffffffffffffffffffffff905090565b600081836136c591906145d5565b905092915050565b6000806000858054905090506000811461373b57856001826136ef9190614703565b81548110613700576136ff614737565b5b9060005260206000200160000160049054906101000a90047bffffffffffffffffffffffffffffffffffffffffffffffffffffffff1661373e565b60005b7bffffffffffffffffffffffffffffffffffffffffffffffffffffffff16925061376c83858763ffffffff16565b91506000811180156137bf575043866001836137889190614703565b8154811061379957613798614737565b5b9060005260206000200160000160009054906101000a900463ffffffff1663ffffffff16145b1561384c576137cd82613ba3565b866001836137db9190614703565b815481106137ec576137eb614737565b5b9060005260206000200160000160046101000a8154817bffffffffffffffffffffffffffffffffffffffffffffffffffffffff02191690837bffffffffffffffffffffffffffffffffffffffffffffffffffffffff16021790555061393c565b85604051806040016040528061386143612807565b63ffffffff16815260200161387585613ba3565b7bffffffffffffffffffffffffffffffffffffffffffffffffffffffff168152509080600181540180825580915050600190039060005260206000200160009091909190915060008201518160000160006101000a81548163ffffffff021916908363ffffffff16021790555060208201518160000160046101000a8154817bffffffffffffffffffffffffffffffffffffffffffffffffffffffff02191690837bffffffffffffffffffffffffffffffffffffffffffffffffffffffff16021790555050505b50935093915050565b600081836139539190614703565b905092915050565b600073ffffffffffffffffffffffffffffffffffffffff168273ffffffffffffffffffffffffffffffffffffffff1614156139cb576040517f08c379a00000000000000000000000000000000000000000000000000000000081526004016139c2906158b9565b60405180910390fd5b6139d782600083612ad8565b60008060008473ffffffffffffffffffffffffffffffffffffffff1673ffffffffffffffffffffffffffffffffffffffff16815260200190815260200160002054905081811015613a5d576040517f08c379a0000000000000000000000000000000000000000000000000000000008152600401613a549061594b565b60405180910390fd5b8181036000808573ffffffffffffffffffffffffffffffffffffffff1673ffffffffffffffffffffffffffffffffffffffff168152602001908152602001600020819055508160026000828254613ab49190614703565b92505081905550600073ffffffffffffffffffffffffffffffffffffffff168373ffffffffffffffffffffffffffffffffffffffff167fddf252ad1be2c89b69c2b068fc378daa952ba7f163c4a11628f55a4df523b3ef84604051613b199190613fec565b60405180910390a3613b2d83600084612ae8565b505050565b505050565b613b87600560008373ffffffffffffffffffffffffffffffffffffffff1673ffffffffffffffffffffffffffffffffffffffff168152602001908152602001600020613b8283610e17565b613c0e565b50565b613b9c6006613b976109e6565b613c0e565b565b505050565b60007bffffffffffffffffffffffffffffffffffffffffffffffffffffffff8016821115613c06576040517f08c379a0000000000000000000000000000000000000000000000000000000008152600401613bfd906159dd565b60405180910390fd5b819050919050565b6000613c18612e21565b905080613c2784600001613c89565b1015613c845782600001819080600181540180825580915050600190039060005260206000200160009091909190915055826001018290806001815401808255809150506001900390600052602060002001600090919091909150555b505050565b60008082805490501415613ca05760009050613cd1565b8160018380549050613cb29190614703565b81548110613cc357613cc2614737565b5b906000526020600020015490505b919050565b6040518060400160405280600063ffffffff16815260200160007bffffffffffffffffffffffffffffffffffffffffffffffffffffffff1681525090565b600080fd5b60007fffffffff0000000000000000000000000000000000000000000000000000000082169050919050565b613d4e81613d19565b8114613d5957600080fd5b50565b600081359050613d6b81613d45565b92915050565b600060208284031215613d8757613d86613d14565b5b6000613d9584828501613d5c565b91505092915050565b60008115159050919050565b613db381613d9e565b82525050565b6000602082019050613dce6000830184613daa565b92915050565b600081519050919050565b600082825260208201905092915050565b60005b83811015613e0e578082015181840152602081019050613df3565b83811115613e1d576000848401525b50505050565b6000601f19601f8301169050919050565b6000613e3f82613dd4565b613e498185613ddf565b9350613e59818560208601613df0565b613e6281613e23565b840191505092915050565b60006020820190508181036000830152613e878184613e34565b905092915050565b600073ffffffffffffffffffffffffffffffffffffffff82169050919050565b6000613eba82613e8f565b9050919050565b613eca81613eaf565b8114613ed557600080fd5b50565b600081359050613ee781613ec1565b92915050565b6000819050919050565b613f0081613eed565b8114613f0b57600080fd5b50565b600081359050613f1d81613ef7565b92915050565b60008060408385031215613f3a57613f39613d14565b5b6000613f4885828601613ed8565b9250506020613f5985828601613f0e565b9150509250929050565b6000819050919050565b6000613f88613f83613f7e84613e8f565b613f63565b613e8f565b9050919050565b6000613f9a82613f6d565b9050919050565b6000613fac82613f8f565b9050919050565b613fbc81613fa1565b82525050565b6000602082019050613fd76000830184613fb3565b92915050565b613fe681613eed565b82525050565b60006020820190506140016000830184613fdd565b92915050565b6000806000606084860312156140205761401f613d14565b5b600061402e86828701613ed8565b935050602061403f86828701613ed8565b925050604061405086828701613f0e565b9150509250925092565b6000819050919050565b61406d8161405a565b811461407857600080fd5b50565b60008135905061408a81614064565b92915050565b6000602082840312156140a6576140a5613d14565b5b60006140b48482850161407b565b91505092915050565b6140c68161405a565b82525050565b60006020820190506140e160008301846140bd565b92915050565b600080604083850312156140fe576140fd613d14565b5b600061410c8582860161407b565b925050602061411d85828601613ed8565b9150509250929050565b600060ff82169050919050565b61413d81614127565b82525050565b60006020820190506141586000830184614134565b92915050565b60006020828403121561417457614173613d14565b5b600061418284828501613ed8565b91505092915050565b61419481613eaf565b82525050565b60006020820190506141af600083018461418b565b92915050565b600063ffffffff82169050919050565b6141ce816141b5565b82525050565b60006020820190506141e960008301846141c5565b92915050565b60006020828403121561420557614204613d14565b5b600061421384828501613f0e565b91505092915050565b61422581614127565b811461423057600080fd5b50565b6000813590506142428161421c565b92915050565b60008060008060008060c0878903121561426557614264613d14565b5b600061427389828a01613ed8565b965050602061428489828a01613f0e565b955050604061429589828a01613f0e565b94505060606142a689828a01614233565b93505060806142b789828a0161407b565b92505060a06142c889828a0161407b565b9150509295509295509295565b600080600080600080600060e0888a0312156142f4576142f3613d14565b5b60006143028a828b01613ed8565b97505060206143138a828b01613ed8565b96505060406143248a828b01613f0e565b95505060606143358a828b01613f0e565b94505060806143468a828b01614233565b93505060a06143578a828b0161407b565b92505060c06143688a828b0161407b565b91505092959891949750929550565b6000806040838503121561438e5761438d613d14565b5b600061439c85828601613ed8565b92505060206143ad85828601613ed8565b9150509250929050565b6143c0816141b5565b81146143cb57600080fd5b50565b6000813590506143dd816143b7565b92915050565b600080604083850312156143fa576143f9613d14565b5b600061440885828601613ed8565b9250506020614419858286016143ce565b9150509250929050565b61442c816141b5565b82525050565b60007bffffffffffffffffffffffffffffffffffffffffffffffffffffffff82169050919050565b61446381614432565b82525050565b60408201600082015161447f6000850182614423565b506020820151614492602085018261445a565b50505050565b60006040820190506144ad6000830184614469565b92915050565b7f4e487b7100000000000000000000000000000000000000000000000000000000600052602260045260246000fd5b600060028204905060018216806144fa57607f821691505b6020821081141561450e5761450d6144b3565b5b50919050565b7f416363657373436f6e74726f6c3a2063616e206f6e6c792072656e6f756e636560008201527f20726f6c657320666f722073656c660000000000000000000000000000000000602082015250565b6000614570602f83613ddf565b915061457b82614514565b604082019050919050565b6000602082019050818103600083015261459f81614563565b9050919050565b7f4e487b7100000000000000000000000000000000000000000000000000000000600052601160045260246000fd5b60006145e082613eed565b91506145eb83613eed565b9250827fffffffffffffffffffffffffffffffffffffffffffffffffffffffffffffffff038211156146205761461f6145a6565b5b828201905092915050565b7f4552433230566f7465733a20626c6f636b206e6f7420796574206d696e656400600082015250565b6000614661601f83613ddf565b915061466c8261462b565b602082019050919050565b6000602082019050818103600083015261469081614654565b9050919050565b7f4f776e61626c653a2063616c6c6572206973206e6f7420746865206f776e6572600082015250565b60006146cd602083613ddf565b91506146d882614697565b602082019050919050565b600060208201905081810360008301526146fc816146c0565b9050919050565b600061470e82613eed565b915061471983613eed565b92508282101561472c5761472b6145a6565b5b828203905092915050565b7f4e487b7100000000000000000000000000000000000000000000000000000000600052603260045260246000fd5b7f45524332303a2064656372656173656420616c6c6f77616e63652062656c6f7760008201527f207a65726f000000000000000000000000000000000000000000000000000000602082015250565b60006147c2602583613ddf565b91506147cd82614766565b604082019050919050565b600060208201905081810360008301526147f1816147b5565b9050919050565b60008151905061480781613ef7565b92915050565b60006020828403121561482357614822613d14565b5b6000614831848285016147f8565b91505092915050565b600060408201905061484f600083018561418b565b61485c6020830184613fdd565b9392505050565b61486c81613d9e565b811461487757600080fd5b50565b60008151905061488981614863565b92915050565b6000602082840312156148a5576148a4613d14565b5b60006148b38482850161487a565b91505092915050565b7f4552433230566f7465733a207369676e61747572652065787069726564000000600082015250565b60006148f2601d83613ddf565b91506148fd826148bc565b602082019050919050565b60006020820190508181036000830152614921816148e5565b9050919050565b600060808201905061493d60008301876140bd565b61494a602083018661418b565b6149576040830185613fdd565b6149646060830184613fdd565b95945050505050565b7f4552433230566f7465733a20696e76616c6964206e6f6e636500000000000000600082015250565b60006149a3601983613ddf565b91506149ae8261496d565b602082019050919050565b600060208201905081810360008301526149d281614996565b9050919050565b7f45524332305065726d69743a206578706972656420646561646c696e65000000600082015250565b6000614a0f601d83613ddf565b9150614a1a826149d9565b602082019050919050565b60006020820190508181036000830152614a3e81614a02565b9050919050565b600060c082019050614a5a60008301896140bd565b614a67602083018861418b565b614a74604083018761418b565b614a816060830186613fdd565b614a8e6080830185613fdd565b614a9b60a0830184613fdd565b979650505050505050565b7f45524332305065726d69743a20696e76616c6964207369676e61747572650000600082015250565b6000614adc601e83613ddf565b9150614ae782614aa6565b602082019050919050565b60006020820190508181036000830152614b0b81614acf565b9050919050565b7f4f776e61626c653a206e6577206f776e657220697320746865207a65726f206160008201527f6464726573730000000000000000000000000000000000000000000000000000602082015250565b6000614b6e602683613ddf565b9150614b7982614b12565b604082019050919050565b60006020820190508181036000830152614b9d81614b61565b9050919050565b7f45524332303a20617070726f76652066726f6d20746865207a65726f2061646460008201527f7265737300000000000000000000000000000000000000000000000000000000602082015250565b6000614c00602483613ddf565b9150614c0b82614ba4565b604082019050919050565b60006020820190508181036000830152614c2f81614bf3565b9050919050565b7f45524332303a20617070726f766520746f20746865207a65726f20616464726560008201527f7373000000000000000000000000000000000000000000000000000000000000602082015250565b6000614c92602283613ddf565b9150614c9d82614c36565b604082019050919050565b60006020820190508181036000830152614cc181614c85565b9050919050565b7f45524332303a20696e73756666696369656e7420616c6c6f77616e6365000000600082015250565b6000614cfe601d83613ddf565b9150614d0982614cc8565b602082019050919050565b60006020820190508181036000830152614d2d81614cf1565b9050919050565b7f45524332303a207472616e736665722066726f6d20746865207a65726f20616460008201527f6472657373000000000000000000000000000000000000000000000000000000602082015250565b6000614d90602583613ddf565b9150614d9b82614d34565b604082019050919050565b60006020820190508181036000830152614dbf81614d83565b9050919050565b7f45524332303a207472616e7366657220746f20746865207a65726f206164647260008201527f6573730000000000000000000000000000000000000000000000000000000000602082015250565b6000614e22602383613ddf565b9150614e2d82614dc6565b604082019050919050565b60006020820190508181036000830152614e5181614e15565b9050919050565b7f45524332303a207472616e7366657220616d6f756e742065786365656473206260008201527f616c616e63650000000000000000000000000000000000000000000000000000602082015250565b6000614eb4602683613ddf565b9150614ebf82614e58565b604082019050919050565b60006020820190508181036000830152614ee381614ea7565b9050919050565b600081905092915050565b7f416363657373436f6e74726f6c3a206163636f756e7420000000000000000000600082015250565b6000614f2b601783614eea565b9150614f3682614ef5565b601782019050919050565b6000614f4c82613dd4565b614f568185614eea565b9350614f66818560208601613df0565b80840191505092915050565b7f206973206d697373696e6720726f6c6520000000000000000000000000000000600082015250565b6000614fa8601183614eea565b9150614fb382614f72565b601182019050919050565b6000614fc982614f1e565b9150614fd58285614f41565b9150614fe082614f9b565b9150614fec8284614f41565b91508190509392505050565b7f5061757361626c653a206e6f7420706175736564000000000000000000000000600082015250565b600061502e601483613ddf565b915061503982614ff8565b602082019050919050565b6000602082019050818103600083015261505d81615021565b9050919050565b7f4552433230536e617073686f743a206964206973203000000000000000000000600082015250565b600061509a601683613ddf565b91506150a582615064565b602082019050919050565b600060208201905081810360008301526150c98161508d565b9050919050565b7f4552433230536e617073686f743a206e6f6e6578697374656e74206964000000600082015250565b6000615106601d83613ddf565b9150615111826150d0565b602082019050919050565b60006020820190508181036000830152615135816150f9565b9050919050565b7f53616665436173743a2076616c756520646f65736e27742066697420696e203360008201527f3220626974730000000000000000000000000000000000000000000000000000602082015250565b6000615198602683613ddf565b91506151a38261513c565b604082019050919050565b600060208201905081810360008301526151c78161518b565b9050919050565b7f5061757361626c653a2070617573656400000000000000000000000000000000600082015250565b6000615204601083613ddf565b915061520f826151ce565b602082019050919050565b60006020820190508181036000830152615233816151f7565b9050919050565b600061524582613eed565b915061525083613eed565b9250817fffffffffffffffffffffffffffffffffffffffffffffffffffffffffffffffff0483118215151615615289576152886145a6565b5b828202905092915050565b7f4e487b7100000000000000000000000000000000000000000000000000000000600052604160045260246000fd5b60006152ce82613eed565b915060008214156152e2576152e16145a6565b5b600182039050919050565b7f537472696e67733a20686578206c656e67746820696e73756666696369656e74600082015250565b6000615323602083613ddf565b915061532e826152ed565b602082019050919050565b6000602082019050818103600083015261535281615316565b9050919050565b600060a08201905061536e60008301886140bd565b61537b60208301876140bd565b61538860408301866140bd565b6153956060830185613fdd565b6153a2608083018461418b565b9695505050505050565b7f4e487b7100000000000000000000000000000000000000000000000000000000600052601260045260246000fd5b60006153e682613eed565b91506153f183613eed565b925082615401576154006153ac565b5b828204905092915050565b7f4552433230566f7465733a20746f74616c20737570706c79207269736b73206f60008201527f766572666c6f77696e6720766f74657300000000000000000000000000000000602082015250565b6000615468603083613ddf565b91506154738261540c565b604082019050919050565b600060208201905081810360008301526154978161545b565b9050919050565b60006040820190506154b36000830185613fdd565b6154c06020830184613fdd565b9392505050565b7f1901000000000000000000000000000000000000000000000000000000000000600082015250565b60006154fd600283614eea565b9150615508826154c7565b600282019050919050565b6000819050919050565b61552e6155298261405a565b615513565b82525050565b600061553f826154f0565b915061554b828561551d565b60208201915061555b828461551d565b6020820191508190509392505050565b600060808201905061558060008301876140bd565b61558d6020830186614134565b61559a60408301856140bd565b6155a760608301846140bd565b95945050505050565b7f4e487b7100000000000000000000000000000000000000000000000000000000600052602160045260246000fd5b7f45434453413a20696e76616c6964207369676e61747572650000000000000000600082015250565b6000615615601883613ddf565b9150615620826155df565b602082019050919050565b6000602082019050818103600083015261564481615608565b9050919050565b7f45434453413a20696e76616c6964207369676e6174757265206c656e67746800600082015250565b6000615681601f83613ddf565b915061568c8261564b565b602082019050919050565b600060208201905081810360008301526156b081615674565b9050919050565b7f45434453413a20696e76616c6964207369676e6174757265202773272076616c60008201527f7565000000000000000000000000000000000000000000000000000000000000602082015250565b6000615713602283613ddf565b915061571e826156b7565b604082019050919050565b6000602082019050818103600083015261574281615706565b9050919050565b7f45434453413a20696e76616c6964207369676e6174757265202776272076616c60008201527f7565000000000000000000000000000000000000000000000000000000000000602082015250565b60006157a5602283613ddf565b91506157b082615749565b604082019050919050565b600060208201905081810360008301526157d481615798565b9050919050565b7f45524332303a206d696e7420746f20746865207a65726f206164647265737300600082015250565b6000615811601f83613ddf565b915061581c826157db565b602082019050919050565b6000602082019050818103600083015261584081615804565b9050919050565b7f45524332303a206275726e2066726f6d20746865207a65726f2061646472657360008201527f7300000000000000000000000000000000000000000000000000000000000000602082015250565b60006158a3602183613ddf565b91506158ae82615847565b604082019050919050565b600060208201905081810360008301526158d281615896565b9050919050565b7f45524332303a206275726e20616d6f756e7420657863656564732062616c616e60008201527f6365000000000000000000000000000000000000000000000000000000000000602082015250565b6000615935602283613ddf565b9150615940826158d9565b604082019050919050565b6000602082019050818103600083015261596481615928565b9050919050565b7f53616665436173743a2076616c756520646f65736e27742066697420696e203260008201527f3234206269747300000000000000000000000000000000000000000000000000602082015250565b60006159c7602783613ddf565b91506159d28261596b565b604082019050919050565b600060208201905081810360008301526159f6816159ba565b905091905056fea2646970667358221220a88d8d84475b463e81d4ad0fd24c739d3efcfcebd51a29ed72ff49de6f28294564736f6c634300080b0033",
  "linkReferences": {},
  "deployedLinkReferences": {}
}