{
  "_format": "hh-sol-artifact-1",
  "contractName": "PoolifyVault",
  "sourceName": "src/contracts/vaults/PoolifyVault.sol",
  "abi": [
    {
      "inputs": [
        {
          "internalType": "string",
          "name": "_name",
          "type": "string"
        },
        {
          "internalType": "string",
          "name": "_symbol",
          "type": "string"
        },
        {
          "internalType": "uint256",
          "name": "_approvalDelay",
          "type": "uint256"
        }
      ],
      "stateMutability": "nonpayable",
      "type": "constructor"
    },
    {
      "anonymous": false,
      "inputs": [
        {
          "indexed": true,
          "internalType": "address",
          "name": "owner",
          "type": "address"
        },
        {
          "indexed": true,
          "internalType": "address",
          "name": "spender",
          "type": "address"
        },
        {
          "indexed": false,
          "internalType": "uint256",
          "name": "value",
          "type": "uint256"
        }
      ],
      "name": "Approval",
      "type": "event"
    },
    {
      "anonymous": false,
      "inputs": [
        {
          "indexed": false,
          "internalType": "address",
          "name": "implementation",
          "type": "address"
        }
      ],
      "name": "NewStratCandidate",
      "type": "event"
    },
    {
      "anonymous": false,
      "inputs": [
        {
          "indexed": true,
          "internalType": "address",
          "name": "previousOwner",
          "type": "address"
        },
        {
          "indexed": true,
          "internalType": "address",
          "name": "newOwner",
          "type": "address"
        }
      ],
      "name": "OwnershipTransferred",
      "type": "event"
    },
    {
      "anonymous": false,
      "inputs": [
        {
          "indexed": true,
          "internalType": "address",
          "name": "from",
          "type": "address"
        },
        {
          "indexed": true,
          "internalType": "address",
          "name": "to",
          "type": "address"
        },
        {
          "indexed": false,
          "internalType": "uint256",
          "name": "value",
          "type": "uint256"
        }
      ],
      "name": "Transfer",
      "type": "event"
    },
    {
      "anonymous": false,
      "inputs": [
        {
          "indexed": false,
          "internalType": "address",
          "name": "implementation",
          "type": "address"
        }
      ],
      "name": "UpgradeStrat",
      "type": "event"
    },
    {
      "inputs": [
        {
          "internalType": "address",
          "name": "owner",
          "type": "address"
        },
        {
          "internalType": "address",
          "name": "spender",
          "type": "address"
        }
      ],
      "name": "allowance",
      "outputs": [
        {
          "internalType": "uint256",
          "name": "",
          "type": "uint256"
        }
      ],
      "stateMutability": "view",
      "type": "function"
    },
    {
      "inputs": [],
      "name": "approvalDelay",
      "outputs": [
        {
          "internalType": "uint256",
          "name": "",
          "type": "uint256"
        }
      ],
      "stateMutability": "view",
      "type": "function"
    },
    {
      "inputs": [
        {
          "internalType": "address",
          "name": "spender",
          "type": "address"
        },
        {
          "internalType": "uint256",
          "name": "amount",
          "type": "uint256"
        }
      ],
      "name": "approve",
      "outputs": [
        {
          "internalType": "bool",
          "name": "",
          "type": "bool"
        }
      ],
      "stateMutability": "nonpayable",
      "type": "function"
    },
    {
      "inputs": [],
      "name": "available",
      "outputs": [
        {
          "internalType": "uint256",
          "name": "",
          "type": "uint256"
        }
      ],
      "stateMutability": "view",
      "type": "function"
    },
    {
      "inputs": [],
      "name": "balance",
      "outputs": [
        {
          "internalType": "uint256",
          "name": "",
          "type": "uint256"
        }
      ],
      "stateMutability": "view",
      "type": "function"
    },
    {
      "inputs": [
        {
          "internalType": "address",
          "name": "account",
          "type": "address"
        }
      ],
      "name": "balanceOf",
      "outputs": [
        {
          "internalType": "uint256",
          "name": "",
          "type": "uint256"
        }
      ],
      "stateMutability": "view",
      "type": "function"
    },
    {
      "inputs": [],
      "name": "decimals",
      "outputs": [
        {
          "internalType": "uint8",
          "name": "",
          "type": "uint8"
        }
      ],
      "stateMutability": "view",
      "type": "function"
    },
    {
      "inputs": [
        {
          "internalType": "address",
          "name": "spender",
          "type": "address"
        },
        {
          "internalType": "uint256",
          "name": "subtractedValue",
          "type": "uint256"
        }
      ],
      "name": "decreaseAllowance",
      "outputs": [
        {
          "internalType": "bool",
          "name": "",
          "type": "bool"
        }
      ],
      "stateMutability": "nonpayable",
      "type": "function"
    },
    {
      "inputs": [
        {
          "internalType": "uint256",
          "name": "_amount",
          "type": "uint256"
        }
      ],
      "name": "deposit",
      "outputs": [],
      "stateMutability": "nonpayable",
      "type": "function"
    },
    {
      "inputs": [],
      "name": "depositAll",
      "outputs": [],
      "stateMutability": "nonpayable",
      "type": "function"
    },
    {
      "inputs": [],
      "name": "earn",
      "outputs": [],
      "stateMutability": "nonpayable",
      "type": "function"
    },
    {
      "inputs": [],
      "name": "getPricePerFullShare",
      "outputs": [
        {
          "internalType": "uint256",
          "name": "",
          "type": "uint256"
        }
      ],
      "stateMutability": "view",
      "type": "function"
    },
    {
      "inputs": [
        {
          "internalType": "address",
          "name": "_token",
          "type": "address"
        }
      ],
      "name": "inCaseTokensGetStuck",
      "outputs": [],
      "stateMutability": "nonpayable",
      "type": "function"
    },
    {
      "inputs": [
        {
          "internalType": "address",
          "name": "spender",
          "type": "address"
        },
        {
          "internalType": "uint256",
          "name": "addedValue",
          "type": "uint256"
        }
      ],
      "name": "increaseAllowance",
      "outputs": [
        {
          "internalType": "bool",
          "name": "",
          "type": "bool"
        }
      ],
      "stateMutability": "nonpayable",
      "type": "function"
    },
    {
      "inputs": [],
      "name": "name",
      "outputs": [
        {
          "internalType": "string",
          "name": "",
          "type": "string"
        }
      ],
      "stateMutability": "view",
      "type": "function"
    },
    {
      "inputs": [],
      "name": "owner",
      "outputs": [
        {
          "internalType": "address",
          "name": "",
          "type": "address"
        }
      ],
      "stateMutability": "view",
      "type": "function"
    },
    {
      "inputs": [
        {
          "internalType": "address",
          "name": "_implementation",
          "type": "address"
        }
      ],
      "name": "proposeStrat",
      "outputs": [],
      "stateMutability": "nonpayable",
      "type": "function"
    },
    {
      "inputs": [],
      "name": "renounceOwnership",
      "outputs": [],
      "stateMutability": "nonpayable",
      "type": "function"
    },
    {
      "inputs": [
        {
          "internalType": "address",
          "name": "_strategy",
          "type": "address"
        }
      ],
      "name": "setDefaultStrategy",
      "outputs": [],
      "stateMutability": "nonpayable",
      "type": "function"
    },
    {
      "inputs": [],
      "name": "stratCandidate",
      "outputs": [
        {
          "internalType": "address",
          "name": "implementation",
          "type": "address"
        },
        {
          "internalType": "uint256",
          "name": "proposedTime",
          "type": "uint256"
        }
      ],
      "stateMutability": "view",
      "type": "function"
    },
    {
      "inputs": [],
      "name": "strategy",
      "outputs": [
        {
          "internalType": "contract IStrategy",
          "name": "",
          "type": "address"
        }
      ],
      "stateMutability": "view",
      "type": "function"
    },
    {
      "inputs": [],
      "name": "symbol",
      "outputs": [
        {
          "internalType": "string",
          "name": "",
          "type": "string"
        }
      ],
      "stateMutability": "view",
      "type": "function"
    },
    {
      "inputs": [],
      "name": "totalSupply",
      "outputs": [
        {
          "internalType": "uint256",
          "name": "",
          "type": "uint256"
        }
      ],
      "stateMutability": "view",
      "type": "function"
    },
    {
      "inputs": [
        {
          "internalType": "address",
          "name": "to",
          "type": "address"
        },
        {
          "internalType": "uint256",
          "name": "amount",
          "type": "uint256"
        }
      ],
      "name": "transfer",
      "outputs": [
        {
          "internalType": "bool",
          "name": "",
          "type": "bool"
        }
      ],
      "stateMutability": "nonpayable",
      "type": "function"
    },
    {
      "inputs": [
        {
          "internalType": "address",
          "name": "from",
          "type": "address"
        },
        {
          "internalType": "address",
          "name": "to",
          "type": "address"
        },
        {
          "internalType": "uint256",
          "name": "amount",
          "type": "uint256"
        }
      ],
      "name": "transferFrom",
      "outputs": [
        {
          "internalType": "bool",
          "name": "",
          "type": "bool"
        }
      ],
      "stateMutability": "nonpayable",
      "type": "function"
    },
    {
      "inputs": [
        {
          "internalType": "address",
          "name": "newOwner",
          "type": "address"
        }
      ],
      "name": "transferOwnership",
      "outputs": [],
      "stateMutability": "nonpayable",
      "type": "function"
    },
    {
      "inputs": [],
      "name": "upgradeStrat",
      "outputs": [],
      "stateMutability": "nonpayable",
      "type": "function"
    },
    {
      "inputs": [],
      "name": "want",
      "outputs": [
        {
          "internalType": "contract IERC20",
          "name": "",
          "type": "address"
        }
      ],
      "stateMutability": "view",
      "type": "function"
    },
    {
      "inputs": [
        {
          "internalType": "uint256",
          "name": "_shares",
          "type": "uint256"
        }
      ],
      "name": "withdraw",
      "outputs": [],
      "stateMutability": "nonpayable",
      "type": "function"
    },
    {
      "inputs": [],
      "name": "withdrawAll",
      "outputs": [],
      "stateMutability": "nonpayable",
      "type": "function"
    }
  ],
  "bytecode": "0x60a06040526000600760006101000a81548160ff0219169083151502179055503480156200002c57600080fd5b506040516200416e3803806200416e833981810160405281019062000052919062000417565b828281600390805190602001906200006c9291906200018f565b508060049080519060200190620000859291906200018f565b505050620000a86200009c620000c160201b60201c565b620000c960201b60201c565b6001600681905550806080818152505050505062000516565b600033905090565b6000600560009054906101000a900473ffffffffffffffffffffffffffffffffffffffff16905081600560006101000a81548173ffffffffffffffffffffffffffffffffffffffff021916908373ffffffffffffffffffffffffffffffffffffffff1602179055508173ffffffffffffffffffffffffffffffffffffffff168173ffffffffffffffffffffffffffffffffffffffff167f8be0079c531659141344cd1fd0a4f28419497f9722a3daafe3b4186f6b6457e060405160405180910390a35050565b8280546200019d90620004e0565b90600052602060002090601f016020900481019282620001c157600085556200020d565b82601f10620001dc57805160ff19168380011785556200020d565b828001600101855582156200020d579182015b828111156200020c578251825591602001919060010190620001ef565b5b5090506200021c919062000220565b5090565b5b808211156200023b57600081600090555060010162000221565b5090565b6000604051905090565b600080fd5b600080fd5b600080fd5b600080fd5b6000601f19601f8301169050919050565b7f4e487b7100000000000000000000000000000000000000000000000000000000600052604160045260246000fd5b620002a8826200025d565b810181811067ffffffffffffffff82111715620002ca57620002c96200026e565b5b80604052505050565b6000620002df6200023f565b9050620002ed82826200029d565b919050565b600067ffffffffffffffff82111562000310576200030f6200026e565b5b6200031b826200025d565b9050602081019050919050565b60005b83811015620003485780820151818401526020810190506200032b565b8381111562000358576000848401525b50505050565b6000620003756200036f84620002f2565b620002d3565b90508281526020810184848401111562000394576200039362000258565b5b620003a184828562000328565b509392505050565b600082601f830112620003c157620003c062000253565b5b8151620003d38482602086016200035e565b91505092915050565b6000819050919050565b620003f181620003dc565b8114620003fd57600080fd5b50565b6000815190506200041181620003e6565b92915050565b60008060006060848603121562000433576200043262000249565b5b600084015167ffffffffffffffff8111156200045457620004536200024e565b5b6200046286828701620003a9565b935050602084015167ffffffffffffffff8111156200048657620004856200024e565b5b6200049486828701620003a9565b9250506040620004a78682870162000400565b9150509250925092565b7f4e487b7100000000000000000000000000000000000000000000000000000000600052602260045260246000fd5b60006002820490506001821680620004f957607f821691505b6020821081141562000510576200050f620004b1565b5b50919050565b608051613c35620005396000396000818161187801526119b10152613c356000f3fe608060405234801561001057600080fd5b50600436106101da5760003560e01c8063853828b611610104578063b6b55f25116100a2578063def68a9c11610071578063def68a9c14610512578063e2d1e75c1461052e578063e66852441461054c578063f2fde38b14610556576101da565b8063b6b55f25146104b2578063d389800f146104ce578063dd62ed3e146104d8578063de5f626814610508576101da565b8063a457c2d7116100de578063a457c2d714610416578063a8c62e7614610446578063a9059cbb14610464578063b69ef8a814610494576101da565b8063853828b6146103d05780638da5cb5b146103da57806395d89b41146103f8576101da565b8063395093511161017c57806370a082311161014b57806370a0823114610359578063715018a61461038957806376dfabb81461039357806377c7b8fc146103b2576101da565b806339509351146102d357806348a0d7541461030357806357bee944146103215780635b12ff9b1461033d576101da565b80631f1fcd51116101b85780631f1fcd511461024b57806323b872dd146102695780632e1a7d4d14610299578063313ce567146102b5576101da565b806306fdde03146101df578063095ea7b3146101fd57806318160ddd1461022d575b600080fd5b6101e7610572565b6040516101f49190612a22565b60405180910390f35b61021760048036038101906102129190612add565b610604565b6040516102249190612b38565b60405180910390f35b610235610627565b6040516102429190612b62565b60405180910390f35b610253610631565b6040516102609190612bdc565b60405180910390f35b610283600480360381019061027e9190612bf7565b6106c9565b6040516102909190612b38565b60405180910390f35b6102b360048036038101906102ae9190612c4a565b6106f8565b005b6102bd61095f565b6040516102ca9190612c93565b60405180910390f35b6102ed60048036038101906102e89190612add565b610968565b6040516102fa9190612b38565b60405180910390f35b61030b610a12565b6040516103189190612b62565b60405180910390f35b61033b60048036038101906103369190612cae565b610a9a565b005b61035760048036038101906103529190612cae565b610ca7565b005b610373600480360381019061036e9190612cae565b610eba565b6040516103809190612b62565b60405180910390f35b610391610f02565b005b61039b610f8a565b6040516103a9929190612cea565b60405180910390f35b6103ba610fbc565b6040516103c79190612b62565b60405180910390f35b6103d861101b565b005b6103e261102e565b6040516103ef9190612d13565b60405180910390f35b610400611058565b60405161040d9190612a22565b60405180910390f35b610430600480360381019061042b9190612add565b6110ea565b60405161043d9190612b38565b60405180910390f35b61044e6111d4565b60405161045b9190612d4f565b60405180910390f35b61047e60048036038101906104799190612add565b6111fa565b60405161048b9190612b38565b60405180910390f35b61049c61121d565b6040516104a99190612b62565b60405180910390f35b6104cc60048036038101906104c79190612c4a565b611347565b005b6104d66114e0565b005b6104f260048036038101906104ed9190612d6a565b6115c5565b6040516104ff9190612b62565b60405180910390f35b61051061164c565b005b61052c60048036038101906105279190612cae565b6116d7565b005b610536611876565b6040516105439190612b62565b60405180910390f35b61055461189a565b005b610570600480360381019061056b9190612cae565b611bc6565b005b60606003805461058190612dd9565b80601f01602080910402602001604051908101604052809291908181526020018280546105ad90612dd9565b80156105fa5780601f106105cf576101008083540402835291602001916105fa565b820191906000526020600020905b8154815290600101906020018083116105dd57829003601f168201915b5050505050905090565b60008061060f611cbe565b905061061c818585611cc6565b600191505092915050565b6000600254905090565b6000600a60009054906101000a900473ffffffffffffffffffffffffffffffffffffffff1673ffffffffffffffffffffffffffffffffffffffff16631f1fcd516040518163ffffffff1660e01b8152600401602060405180830381865afa1580156106a0573d6000803e3d6000fd5b505050506040513d601f19601f820116820180604052508101906106c49190612e49565b905090565b6000806106d4611cbe565b90506106e1858285611e91565b6106ec858585611f1d565b60019150509392505050565b600061072d610705610627565b61071f8461071161121d565b61219e90919063ffffffff16565b6121b490919063ffffffff16565b905061073933836121ca565b6000610743610631565b73ffffffffffffffffffffffffffffffffffffffff166370a08231306040518263ffffffff1660e01b815260040161077b9190612d13565b602060405180830381865afa158015610798573d6000803e3d6000fd5b505050506040513d601f19601f820116820180604052508101906107bc9190612e8b565b9050818110156109285760006107db82846123a190919063ffffffff16565b9050600a60009054906101000a900473ffffffffffffffffffffffffffffffffffffffff1673ffffffffffffffffffffffffffffffffffffffff16632e1a7d4d826040518263ffffffff1660e01b81526004016108389190612b62565b600060405180830381600087803b15801561085257600080fd5b505af1158015610866573d6000803e3d6000fd5b505050506000610874610631565b73ffffffffffffffffffffffffffffffffffffffff166370a08231306040518263ffffffff1660e01b81526004016108ac9190612d13565b602060405180830381865afa1580156108c9573d6000803e3d6000fd5b505050506040513d601f19601f820116820180604052508101906108ed9190612e8b565b9050600061090484836123a190919063ffffffff16565b9050828110156109245761092181856123b790919063ffffffff16565b94505b5050505b61095a3383610935610631565b73ffffffffffffffffffffffffffffffffffffffff166123cd9092919063ffffffff16565b505050565b60006012905090565b600080610973611cbe565b9050610a07818585600160008673ffffffffffffffffffffffffffffffffffffffff1673ffffffffffffffffffffffffffffffffffffffff16815260200190815260200160002060008973ffffffffffffffffffffffffffffffffffffffff1673ffffffffffffffffffffffffffffffffffffffff16815260200190815260200160002054610a029190612ee7565b611cc6565b600191505092915050565b6000610a1c610631565b73ffffffffffffffffffffffffffffffffffffffff166370a08231306040518263ffffffff1660e01b8152600401610a549190612d13565b602060405180830381865afa158015610a71573d6000803e3d6000fd5b505050506040513d601f19601f82011682018060405250810190610a959190612e8b565b905090565b610aa2611cbe565b73ffffffffffffffffffffffffffffffffffffffff16610ac061102e565b73ffffffffffffffffffffffffffffffffffffffff1614610b16576040517f08c379a0000000000000000000000000000000000000000000000000000000008152600401610b0d90612f89565b60405180910390fd5b8073ffffffffffffffffffffffffffffffffffffffff1663fbfa77cf6040518163ffffffff1660e01b8152600401602060405180830381865afa158015610b61573d6000803e3d6000fd5b505050506040513d601f19601f82011682018060405250810190610b859190612fbe565b73ffffffffffffffffffffffffffffffffffffffff163073ffffffffffffffffffffffffffffffffffffffff1614610bf2576040517f08c379a0000000000000000000000000000000000000000000000000000000008152600401610be99061305d565b60405180910390fd5b60001515600760009054906101000a900460ff16151514610c48576040517f08c379a0000000000000000000000000000000000000000000000000000000008152600401610c3f906130c9565b60405180910390fd5b80600a60006101000a81548173ffffffffffffffffffffffffffffffffffffffff021916908373ffffffffffffffffffffffffffffffffffffffff1602179055506001600760006101000a81548160ff02191690831515021790555050565b610caf611cbe565b73ffffffffffffffffffffffffffffffffffffffff16610ccd61102e565b73ffffffffffffffffffffffffffffffffffffffff1614610d23576040517f08c379a0000000000000000000000000000000000000000000000000000000008152600401610d1a90612f89565b60405180910390fd5b8073ffffffffffffffffffffffffffffffffffffffff1663fbfa77cf6040518163ffffffff1660e01b8152600401602060405180830381865afa158015610d6e573d6000803e3d6000fd5b505050506040513d601f19601f82011682018060405250810190610d929190612fbe565b73ffffffffffffffffffffffffffffffffffffffff163073ffffffffffffffffffffffffffffffffffffffff1614610dff576040517f08c379a0000000000000000000000000000000000000000000000000000000008152600401610df69061305d565b60405180910390fd5b60405180604001604052808273ffffffffffffffffffffffffffffffffffffffff16815260200142815250600860008201518160000160006101000a81548173ffffffffffffffffffffffffffffffffffffffff021916908373ffffffffffffffffffffffffffffffffffffffff160217905550602082015181600101559050507f1aae2ec5647db56da2d513de40528ba3565c6057525637050660c4323bbac7df81604051610eaf9190612d13565b60405180910390a150565b60008060008373ffffffffffffffffffffffffffffffffffffffff1673ffffffffffffffffffffffffffffffffffffffff168152602001908152602001600020549050919050565b610f0a611cbe565b73ffffffffffffffffffffffffffffffffffffffff16610f2861102e565b73ffffffffffffffffffffffffffffffffffffffff1614610f7e576040517f08c379a0000000000000000000000000000000000000000000000000000000008152600401610f7590612f89565b60405180910390fd5b610f886000612453565b565b60088060000160009054906101000a900473ffffffffffffffffffffffffffffffffffffffff16908060010154905082565b600080610fc7610627565b1461100c57611007610fd7610627565b610ff9670de0b6b3a7640000610feb61121d565b61219e90919063ffffffff16565b6121b490919063ffffffff16565b611016565b670de0b6b3a76400005b905090565b61102c61102733610eba565b6106f8565b565b6000600560009054906101000a900473ffffffffffffffffffffffffffffffffffffffff16905090565b60606004805461106790612dd9565b80601f016020809104026020016040519081016040528092919081815260200182805461109390612dd9565b80156110e05780601f106110b5576101008083540402835291602001916110e0565b820191906000526020600020905b8154815290600101906020018083116110c357829003601f168201915b5050505050905090565b6000806110f5611cbe565b90506000600160008373ffffffffffffffffffffffffffffffffffffffff1673ffffffffffffffffffffffffffffffffffffffff16815260200190815260200160002060008673ffffffffffffffffffffffffffffffffffffffff1673ffffffffffffffffffffffffffffffffffffffff168152602001908152602001600020549050838110156111bb576040517f08c379a00000000000000000000000000000000000000000000000000000000081526004016111b29061315b565b60405180910390fd5b6111c88286868403611cc6565b60019250505092915050565b600a60009054906101000a900473ffffffffffffffffffffffffffffffffffffffff1681565b600080611205611cbe565b9050611212818585611f1d565b600191505092915050565b6000611342600a60009054906101000a900473ffffffffffffffffffffffffffffffffffffffff1673ffffffffffffffffffffffffffffffffffffffff1663722713f76040518163ffffffff1660e01b8152600401602060405180830381865afa15801561128f573d6000803e3d6000fd5b505050506040513d601f19601f820116820180604052508101906112b39190612e8b565b6112bb610631565b73ffffffffffffffffffffffffffffffffffffffff166370a08231306040518263ffffffff1660e01b81526004016112f39190612d13565b602060405180830381865afa158015611310573d6000803e3d6000fd5b505050506040513d601f19601f820116820180604052508101906113349190612e8b565b6123b790919063ffffffff16565b905090565b6002600654141561138d576040517f08c379a0000000000000000000000000000000000000000000000000000000008152600401611384906131c7565b60405180910390fd5b6002600681905550600a60009054906101000a900473ffffffffffffffffffffffffffffffffffffffff1673ffffffffffffffffffffffffffffffffffffffff1663573fef0a6040518163ffffffff1660e01b8152600401600060405180830381600087803b1580156113ff57600080fd5b505af1158015611413573d6000803e3d6000fd5b50505050600061142161121d565b9050611457333084611431610631565b73ffffffffffffffffffffffffffffffffffffffff16612519909392919063ffffffff16565b61145f6114e0565b600061146961121d565b905061147e82826123a190919063ffffffff16565b925060008061148b610627565b1415611499578390506114c8565b6114c5836114b76114a8610627565b8761219e90919063ffffffff16565b6121b490919063ffffffff16565b90505b6114d233826125a2565b505050600160068190555050565b60006114ea610a12565b9050611540600a60009054906101000a900473ffffffffffffffffffffffffffffffffffffffff168261151b610631565b73ffffffffffffffffffffffffffffffffffffffff166123cd9092919063ffffffff16565b600a60009054906101000a900473ffffffffffffffffffffffffffffffffffffffff1673ffffffffffffffffffffffffffffffffffffffff1663d0e30db06040518163ffffffff1660e01b8152600401600060405180830381600087803b1580156115aa57600080fd5b505af11580156115be573d6000803e3d6000fd5b5050505050565b6000600160008473ffffffffffffffffffffffffffffffffffffffff1673ffffffffffffffffffffffffffffffffffffffff16815260200190815260200160002060008373ffffffffffffffffffffffffffffffffffffffff1673ffffffffffffffffffffffffffffffffffffffff16815260200190815260200160002054905092915050565b6116d5611657610631565b73ffffffffffffffffffffffffffffffffffffffff166370a08231336040518263ffffffff1660e01b815260040161168f9190612d13565b602060405180830381865afa1580156116ac573d6000803e3d6000fd5b505050506040513d601f19601f820116820180604052508101906116d09190612e8b565b611347565b565b6116df611cbe565b73ffffffffffffffffffffffffffffffffffffffff166116fd61102e565b73ffffffffffffffffffffffffffffffffffffffff1614611753576040517f08c379a000000000000000000000000000000000000000000000000000000000815260040161174a90612f89565b60405180910390fd5b61175b610631565b73ffffffffffffffffffffffffffffffffffffffff168173ffffffffffffffffffffffffffffffffffffffff1614156117c9576040517f08c379a00000000000000000000000000000000000000000000000000000000081526004016117c090613233565b60405180910390fd5b60008173ffffffffffffffffffffffffffffffffffffffff166370a08231306040518263ffffffff1660e01b81526004016118049190612d13565b602060405180830381865afa158015611821573d6000803e3d6000fd5b505050506040513d601f19601f820116820180604052508101906118459190612e8b565b905061187233828473ffffffffffffffffffffffffffffffffffffffff166123cd9092919063ffffffff16565b5050565b7f000000000000000000000000000000000000000000000000000000000000000081565b6118a2611cbe565b73ffffffffffffffffffffffffffffffffffffffff166118c061102e565b73ffffffffffffffffffffffffffffffffffffffff1614611916576040517f08c379a000000000000000000000000000000000000000000000000000000000815260040161190d90612f89565b60405180910390fd5b600073ffffffffffffffffffffffffffffffffffffffff16600860000160009054906101000a900473ffffffffffffffffffffffffffffffffffffffff1673ffffffffffffffffffffffffffffffffffffffff1614156119ab576040517f08c379a00000000000000000000000000000000000000000000000000000000081526004016119a29061329f565b60405180910390fd5b426119e47f00000000000000000000000000000000000000000000000000000000000000006008600101546123b790919063ffffffff16565b10611a24576040517f08c379a0000000000000000000000000000000000000000000000000000000008152600401611a1b9061330b565b60405180910390fd5b7f7f37d440e85aba7fbf641c4bda5ca4ef669a80bffaacde2aa8d9feb1b048c82c600860000160009054906101000a900473ffffffffffffffffffffffffffffffffffffffff16604051611a789190612d13565b60405180910390a1600a60009054906101000a900473ffffffffffffffffffffffffffffffffffffffff1673ffffffffffffffffffffffffffffffffffffffff1663fb6177876040518163ffffffff1660e01b8152600401600060405180830381600087803b158015611aea57600080fd5b505af1158015611afe573d6000803e3d6000fd5b50505050600860000160009054906101000a900473ffffffffffffffffffffffffffffffffffffffff16600a60006101000a81548173ffffffffffffffffffffffffffffffffffffffff021916908373ffffffffffffffffffffffffffffffffffffffff1602179055506000600860000160006101000a81548173ffffffffffffffffffffffffffffffffffffffff021916908373ffffffffffffffffffffffffffffffffffffffff16021790555064012a05f200600860010181905550611bc46114e0565b565b611bce611cbe565b73ffffffffffffffffffffffffffffffffffffffff16611bec61102e565b73ffffffffffffffffffffffffffffffffffffffff1614611c42576040517f08c379a0000000000000000000000000000000000000000000000000000000008152600401611c3990612f89565b60405180910390fd5b600073ffffffffffffffffffffffffffffffffffffffff168173ffffffffffffffffffffffffffffffffffffffff161415611cb2576040517f08c379a0000000000000000000000000000000000000000000000000000000008152600401611ca99061339d565b60405180910390fd5b611cbb81612453565b50565b600033905090565b600073ffffffffffffffffffffffffffffffffffffffff168373ffffffffffffffffffffffffffffffffffffffff161415611d36576040517f08c379a0000000000000000000000000000000000000000000000000000000008152600401611d2d9061342f565b60405180910390fd5b600073ffffffffffffffffffffffffffffffffffffffff168273ffffffffffffffffffffffffffffffffffffffff161415611da6576040517f08c379a0000000000000000000000000000000000000000000000000000000008152600401611d9d906134c1565b60405180910390fd5b80600160008573ffffffffffffffffffffffffffffffffffffffff1673ffffffffffffffffffffffffffffffffffffffff16815260200190815260200160002060008473ffffffffffffffffffffffffffffffffffffffff1673ffffffffffffffffffffffffffffffffffffffff168152602001908152602001600020819055508173ffffffffffffffffffffffffffffffffffffffff168373ffffffffffffffffffffffffffffffffffffffff167f8c5be1e5ebec7d5bd14f71427d1e84f3dd0314c0f7b2291e5b200ac8c7c3b92583604051611e849190612b62565b60405180910390a3505050565b6000611e9d84846115c5565b90507fffffffffffffffffffffffffffffffffffffffffffffffffffffffffffffffff8114611f175781811015611f09576040517f08c379a0000000000000000000000000000000000000000000000000000000008152600401611f009061352d565b60405180910390fd5b611f168484848403611cc6565b5b50505050565b600073ffffffffffffffffffffffffffffffffffffffff168373ffffffffffffffffffffffffffffffffffffffff161415611f8d576040517f08c379a0000000000000000000000000000000000000000000000000000000008152600401611f84906135bf565b60405180910390fd5b600073ffffffffffffffffffffffffffffffffffffffff168273ffffffffffffffffffffffffffffffffffffffff161415611ffd576040517f08c379a0000000000000000000000000000000000000000000000000000000008152600401611ff490613651565b60405180910390fd5b612008838383612702565b60008060008573ffffffffffffffffffffffffffffffffffffffff1673ffffffffffffffffffffffffffffffffffffffff1681526020019081526020016000205490508181101561208e576040517f08c379a0000000000000000000000000000000000000000000000000000000008152600401612085906136e3565b60405180910390fd5b8181036000808673ffffffffffffffffffffffffffffffffffffffff1673ffffffffffffffffffffffffffffffffffffffff16815260200190815260200160002081905550816000808573ffffffffffffffffffffffffffffffffffffffff1673ffffffffffffffffffffffffffffffffffffffff16815260200190815260200160002060008282546121219190612ee7565b925050819055508273ffffffffffffffffffffffffffffffffffffffff168473ffffffffffffffffffffffffffffffffffffffff167fddf252ad1be2c89b69c2b068fc378daa952ba7f163c4a11628f55a4df523b3ef846040516121859190612b62565b60405180910390a3612198848484612707565b50505050565b600081836121ac9190613703565b905092915050565b600081836121c2919061378c565b905092915050565b600073ffffffffffffffffffffffffffffffffffffffff168273ffffffffffffffffffffffffffffffffffffffff16141561223a576040517f08c379a00000000000000000000000000000000000000000000000000000000081526004016122319061382f565b60405180910390fd5b61224682600083612702565b60008060008473ffffffffffffffffffffffffffffffffffffffff1673ffffffffffffffffffffffffffffffffffffffff168152602001908152602001600020549050818110156122cc576040517f08c379a00000000000000000000000000000000000000000000000000000000081526004016122c3906138c1565b60405180910390fd5b8181036000808573ffffffffffffffffffffffffffffffffffffffff1673ffffffffffffffffffffffffffffffffffffffff16815260200190815260200160002081905550816002600082825461232391906138e1565b92505081905550600073ffffffffffffffffffffffffffffffffffffffff168373ffffffffffffffffffffffffffffffffffffffff167fddf252ad1be2c89b69c2b068fc378daa952ba7f163c4a11628f55a4df523b3ef846040516123889190612b62565b60405180910390a361239c83600084612707565b505050565b600081836123af91906138e1565b905092915050565b600081836123c59190612ee7565b905092915050565b61244e8363a9059cbb60e01b84846040516024016123ec929190612cea565b604051602081830303815290604052907bffffffffffffffffffffffffffffffffffffffffffffffffffffffff19166020820180517bffffffffffffffffffffffffffffffffffffffffffffffffffffffff838183161783525050505061270c565b505050565b6000600560009054906101000a900473ffffffffffffffffffffffffffffffffffffffff16905081600560006101000a81548173ffffffffffffffffffffffffffffffffffffffff021916908373ffffffffffffffffffffffffffffffffffffffff1602179055508173ffffffffffffffffffffffffffffffffffffffff168173ffffffffffffffffffffffffffffffffffffffff167f8be0079c531659141344cd1fd0a4f28419497f9722a3daafe3b4186f6b6457e060405160405180910390a35050565b61259c846323b872dd60e01b85858560405160240161253a93929190613915565b604051602081830303815290604052907bffffffffffffffffffffffffffffffffffffffffffffffffffffffff19166020820180517bffffffffffffffffffffffffffffffffffffffffffffffffffffffff838183161783525050505061270c565b50505050565b600073ffffffffffffffffffffffffffffffffffffffff168273ffffffffffffffffffffffffffffffffffffffff161415612612576040517f08c379a000000000000000000000000000000000000000000000000000000000815260040161260990613998565b60405180910390fd5b61261e60008383612702565b80600260008282546126309190612ee7565b92505081905550806000808473ffffffffffffffffffffffffffffffffffffffff1673ffffffffffffffffffffffffffffffffffffffff16815260200190815260200160002060008282546126859190612ee7565b925050819055508173ffffffffffffffffffffffffffffffffffffffff16600073ffffffffffffffffffffffffffffffffffffffff167fddf252ad1be2c89b69c2b068fc378daa952ba7f163c4a11628f55a4df523b3ef836040516126ea9190612b62565b60405180910390a36126fe60008383612707565b5050565b505050565b505050565b600061276e826040518060400160405280602081526020017f5361666545524332303a206c6f772d6c6576656c2063616c6c206661696c65648152508573ffffffffffffffffffffffffffffffffffffffff166127d39092919063ffffffff16565b90506000815111156127ce578080602001905181019061278e91906139e4565b6127cd576040517f08c379a00000000000000000000000000000000000000000000000000000000081526004016127c490613a83565b60405180910390fd5b5b505050565b60606127e284846000856127eb565b90509392505050565b606082471015612830576040517f08c379a000000000000000000000000000000000000000000000000000000000815260040161282790613b15565b60405180910390fd5b612839856128ff565b612878576040517f08c379a000000000000000000000000000000000000000000000000000000000815260040161286f90613b81565b60405180910390fd5b6000808673ffffffffffffffffffffffffffffffffffffffff1685876040516128a19190613be8565b60006040518083038185875af1925050503d80600081146128de576040519150601f19603f3d011682016040523d82523d6000602084013e6128e3565b606091505b50915091506128f3828286612922565b92505050949350505050565b6000808273ffffffffffffffffffffffffffffffffffffffff163b119050919050565b6060831561293257829050612982565b6000835111156129455782518084602001fd5b816040517f08c379a00000000000000000000000000000000000000000000000000000000081526004016129799190612a22565b60405180910390fd5b9392505050565b600081519050919050565b600082825260208201905092915050565b60005b838110156129c35780820151818401526020810190506129a8565b838111156129d2576000848401525b50505050565b6000601f19601f8301169050919050565b60006129f482612989565b6129fe8185612994565b9350612a0e8185602086016129a5565b612a17816129d8565b840191505092915050565b60006020820190508181036000830152612a3c81846129e9565b905092915050565b600080fd5b600073ffffffffffffffffffffffffffffffffffffffff82169050919050565b6000612a7482612a49565b9050919050565b612a8481612a69565b8114612a8f57600080fd5b50565b600081359050612aa181612a7b565b92915050565b6000819050919050565b612aba81612aa7565b8114612ac557600080fd5b50565b600081359050612ad781612ab1565b92915050565b60008060408385031215612af457612af3612a44565b5b6000612b0285828601612a92565b9250506020612b1385828601612ac8565b9150509250929050565b60008115159050919050565b612b3281612b1d565b82525050565b6000602082019050612b4d6000830184612b29565b92915050565b612b5c81612aa7565b82525050565b6000602082019050612b776000830184612b53565b92915050565b6000819050919050565b6000612ba2612b9d612b9884612a49565b612b7d565b612a49565b9050919050565b6000612bb482612b87565b9050919050565b6000612bc682612ba9565b9050919050565b612bd681612bbb565b82525050565b6000602082019050612bf16000830184612bcd565b92915050565b600080600060608486031215612c1057612c0f612a44565b5b6000612c1e86828701612a92565b9350506020612c2f86828701612a92565b9250506040612c4086828701612ac8565b9150509250925092565b600060208284031215612c6057612c5f612a44565b5b6000612c6e84828501612ac8565b91505092915050565b600060ff82169050919050565b612c8d81612c77565b82525050565b6000602082019050612ca86000830184612c84565b92915050565b600060208284031215612cc457612cc3612a44565b5b6000612cd284828501612a92565b91505092915050565b612ce481612a69565b82525050565b6000604082019050612cff6000830185612cdb565b612d0c6020830184612b53565b9392505050565b6000602082019050612d286000830184612cdb565b92915050565b6000612d3982612ba9565b9050919050565b612d4981612d2e565b82525050565b6000602082019050612d646000830184612d40565b92915050565b60008060408385031215612d8157612d80612a44565b5b6000612d8f85828601612a92565b9250506020612da085828601612a92565b9150509250929050565b7f4e487b7100000000000000000000000000000000000000000000000000000000600052602260045260246000fd5b60006002820490506001821680612df157607f821691505b60208210811415612e0557612e04612daa565b5b50919050565b6000612e1682612a69565b9050919050565b612e2681612e0b565b8114612e3157600080fd5b50565b600081519050612e4381612e1d565b92915050565b600060208284031215612e5f57612e5e612a44565b5b6000612e6d84828501612e34565b91505092915050565b600081519050612e8581612ab1565b92915050565b600060208284031215612ea157612ea0612a44565b5b6000612eaf84828501612e76565b91505092915050565b7f4e487b7100000000000000000000000000000000000000000000000000000000600052601160045260246000fd5b6000612ef282612aa7565b9150612efd83612aa7565b9250827fffffffffffffffffffffffffffffffffffffffffffffffffffffffffffffffff03821115612f3257612f31612eb8565b5b828201905092915050565b7f4f776e61626c653a2063616c6c6572206973206e6f7420746865206f776e6572600082015250565b6000612f73602083612994565b9150612f7e82612f3d565b602082019050919050565b60006020820190508181036000830152612fa281612f66565b9050919050565b600081519050612fb881612a7b565b92915050565b600060208284031215612fd457612fd3612a44565b5b6000612fe284828501612fa9565b91505092915050565b7f50726f706f73616c206e6f742076616c696420666f722074686973205661756c60008201527f7400000000000000000000000000000000000000000000000000000000000000602082015250565b6000613047602183612994565b915061305282612feb565b604082019050919050565b600060208201905081810360008301526130768161303a565b9050919050565b7f4f6e6c7920312074696d65000000000000000000000000000000000000000000600082015250565b60006130b3600b83612994565b91506130be8261307d565b602082019050919050565b600060208201905081810360008301526130e2816130a6565b9050919050565b7f45524332303a2064656372656173656420616c6c6f77616e63652062656c6f7760008201527f207a65726f000000000000000000000000000000000000000000000000000000602082015250565b6000613145602583612994565b9150613150826130e9565b604082019050919050565b6000602082019050818103600083015261317481613138565b9050919050565b7f5265656e7472616e637947756172643a207265656e7472616e742063616c6c00600082015250565b60006131b1601f83612994565b91506131bc8261317b565b602082019050919050565b600060208201905081810360008301526131e0816131a4565b9050919050565b7f21746f6b656e0000000000000000000000000000000000000000000000000000600082015250565b600061321d600683612994565b9150613228826131e7565b602082019050919050565b6000602082019050818103600083015261324c81613210565b9050919050565b7f5468657265206973206e6f2063616e6469646174650000000000000000000000600082015250565b6000613289601583612994565b915061329482613253565b602082019050919050565b600060208201905081810360008301526132b88161327c565b9050919050565b7f44656c617920686173206e6f7420706173736564000000000000000000000000600082015250565b60006132f5601483612994565b9150613300826132bf565b602082019050919050565b60006020820190508181036000830152613324816132e8565b9050919050565b7f4f776e61626c653a206e6577206f776e657220697320746865207a65726f206160008201527f6464726573730000000000000000000000000000000000000000000000000000602082015250565b6000613387602683612994565b91506133928261332b565b604082019050919050565b600060208201905081810360008301526133b68161337a565b9050919050565b7f45524332303a20617070726f76652066726f6d20746865207a65726f2061646460008201527f7265737300000000000000000000000000000000000000000000000000000000602082015250565b6000613419602483612994565b9150613424826133bd565b604082019050919050565b600060208201905081810360008301526134488161340c565b9050919050565b7f45524332303a20617070726f766520746f20746865207a65726f20616464726560008201527f7373000000000000000000000000000000000000000000000000000000000000602082015250565b60006134ab602283612994565b91506134b68261344f565b604082019050919050565b600060208201905081810360008301526134da8161349e565b9050919050565b7f45524332303a20696e73756666696369656e7420616c6c6f77616e6365000000600082015250565b6000613517601d83612994565b9150613522826134e1565b602082019050919050565b600060208201905081810360008301526135468161350a565b9050919050565b7f45524332303a207472616e736665722066726f6d20746865207a65726f20616460008201527f6472657373000000000000000000000000000000000000000000000000000000602082015250565b60006135a9602583612994565b91506135b48261354d565b604082019050919050565b600060208201905081810360008301526135d88161359c565b9050919050565b7f45524332303a207472616e7366657220746f20746865207a65726f206164647260008201527f6573730000000000000000000000000000000000000000000000000000000000602082015250565b600061363b602383612994565b9150613646826135df565b604082019050919050565b6000602082019050818103600083015261366a8161362e565b9050919050565b7f45524332303a207472616e7366657220616d6f756e742065786365656473206260008201527f616c616e63650000000000000000000000000000000000000000000000000000602082015250565b60006136cd602683612994565b91506136d882613671565b604082019050919050565b600060208201905081810360008301526136fc816136c0565b9050919050565b600061370e82612aa7565b915061371983612aa7565b9250817fffffffffffffffffffffffffffffffffffffffffffffffffffffffffffffffff048311821515161561375257613751612eb8565b5b828202905092915050565b7f4e487b7100000000000000000000000000000000000000000000000000000000600052601260045260246000fd5b600061379782612aa7565b91506137a283612aa7565b9250826137b2576137b161375d565b5b828204905092915050565b7f45524332303a206275726e2066726f6d20746865207a65726f2061646472657360008201527f7300000000000000000000000000000000000000000000000000000000000000602082015250565b6000613819602183612994565b9150613824826137bd565b604082019050919050565b600060208201905081810360008301526138488161380c565b9050919050565b7f45524332303a206275726e20616d6f756e7420657863656564732062616c616e60008201527f6365000000000000000000000000000000000000000000000000000000000000602082015250565b60006138ab602283612994565b91506138b68261384f565b604082019050919050565b600060208201905081810360008301526138da8161389e565b9050919050565b60006138ec82612aa7565b91506138f783612aa7565b92508282101561390a57613909612eb8565b5b828203905092915050565b600060608201905061392a6000830186612cdb565b6139376020830185612cdb565b6139446040830184612b53565b949350505050565b7f45524332303a206d696e7420746f20746865207a65726f206164647265737300600082015250565b6000613982601f83612994565b915061398d8261394c565b602082019050919050565b600060208201905081810360008301526139b181613975565b9050919050565b6139c181612b1d565b81146139cc57600080fd5b50565b6000815190506139de816139b8565b92915050565b6000602082840312156139fa576139f9612a44565b5b6000613a08848285016139cf565b91505092915050565b7f5361666545524332303a204552433230206f7065726174696f6e20646964206e60008201527f6f74207375636365656400000000000000000000000000000000000000000000602082015250565b6000613a6d602a83612994565b9150613a7882613a11565b604082019050919050565b60006020820190508181036000830152613a9c81613a60565b9050919050565b7f416464726573733a20696e73756666696369656e742062616c616e636520666f60008201527f722063616c6c0000000000000000000000000000000000000000000000000000602082015250565b6000613aff602683612994565b9150613b0a82613aa3565b604082019050919050565b60006020820190508181036000830152613b2e81613af2565b9050919050565b7f416464726573733a2063616c6c20746f206e6f6e2d636f6e7472616374000000600082015250565b6000613b6b601d83612994565b9150613b7682613b35565b602082019050919050565b60006020820190508181036000830152613b9a81613b5e565b9050919050565b600081519050919050565b600081905092915050565b6000613bc282613ba1565b613bcc8185613bac565b9350613bdc8185602086016129a5565b80840191505092915050565b6000613bf48284613bb7565b91508190509291505056fea2646970667358221220216a83b12ca496ae89a1693d22479f9ee7d64663c744cc0d8d6f94c1b74e184164736f6c634300080b0033",
  "linkReferences": {},
  "deployedLinkReferences": {}
}