{
  "_format": "hh-sol-artifact-1",
  "contractName": "TestRequestPoolify",
  "sourceName": "src/contracts/protocol/TestRequestPoolify.sol",
  "abi": [
    {
      "inputs": [
        {
          "internalType": "address",
          "name": "_PLFYToken",
          "type": "address"
        }
      ],
      "stateMutability": "nonpayable",
      "type": "constructor"
    },
    {
      "anonymous": false,
      "inputs": [
        {
          "indexed": true,
          "internalType": "address",
          "name": "previousOwner",
          "type": "address"
        },
        {
          "indexed": true,
          "internalType": "address",
          "name": "newOwner",
          "type": "address"
        }
      ],
      "name": "OwnershipTransferred",
      "type": "event"
    },
    {
      "inputs": [],
      "name": "ACC_PLFY_PRECISION",
      "outputs": [
        {
          "internalType": "uint256",
          "name": "",
          "type": "uint256"
        }
      ],
      "stateMutability": "view",
      "type": "function"
    },
    {
      "inputs": [],
      "name": "balance",
      "outputs": [
        {
          "internalType": "uint256",
          "name": "",
          "type": "uint256"
        }
      ],
      "stateMutability": "view",
      "type": "function"
    },
    {
      "inputs": [],
      "name": "isRequestAvailable",
      "outputs": [
        {
          "internalType": "bool",
          "name": "",
          "type": "bool"
        }
      ],
      "stateMutability": "view",
      "type": "function"
    },
    {
      "inputs": [],
      "name": "owner",
      "outputs": [
        {
          "internalType": "address",
          "name": "",
          "type": "address"
        }
      ],
      "stateMutability": "view",
      "type": "function"
    },
    {
      "inputs": [],
      "name": "renounceOwnership",
      "outputs": [],
      "stateMutability": "nonpayable",
      "type": "function"
    },
    {
      "inputs": [],
      "name": "request",
      "outputs": [],
      "stateMutability": "nonpayable",
      "type": "function"
    },
    {
      "inputs": [],
      "name": "requestDelay",
      "outputs": [
        {
          "internalType": "uint256",
          "name": "",
          "type": "uint256"
        }
      ],
      "stateMutability": "view",
      "type": "function"
    },
    {
      "inputs": [],
      "name": "tokenSizeRequest",
      "outputs": [
        {
          "internalType": "uint256",
          "name": "",
          "type": "uint256"
        }
      ],
      "stateMutability": "view",
      "type": "function"
    },
    {
      "inputs": [
        {
          "internalType": "address",
          "name": "newOwner",
          "type": "address"
        }
      ],
      "name": "transferOwnership",
      "outputs": [],
      "stateMutability": "nonpayable",
      "type": "function"
    },
    {
      "inputs": [
        {
          "internalType": "address",
          "name": "",
          "type": "address"
        }
      ],
      "name": "userInfo",
      "outputs": [
        {
          "internalType": "uint256",
          "name": "amount",
          "type": "uint256"
        },
        {
          "internalType": "uint256",
          "name": "lastRequest",
          "type": "uint256"
        }
      ],
      "stateMutability": "view",
      "type": "function"
    }
  ],
  "bytecode": "0x60e0604052670de0b6b3a764000060809081525061546060a09081525061271060c0908152503480156200003257600080fd5b50604051620013cc380380620013cc8339818101604052810190620000589190620001fd565b620000786200006c620000c760201b60201c565b620000cf60201b60201c565b6001808190555080600260006101000a81548173ffffffffffffffffffffffffffffffffffffffff021916908373ffffffffffffffffffffffffffffffffffffffff160217905550506200022f565b600033905090565b60008060009054906101000a900473ffffffffffffffffffffffffffffffffffffffff169050816000806101000a81548173ffffffffffffffffffffffffffffffffffffffff021916908373ffffffffffffffffffffffffffffffffffffffff1602179055508173ffffffffffffffffffffffffffffffffffffffff168173ffffffffffffffffffffffffffffffffffffffff167f8be0079c531659141344cd1fd0a4f28419497f9722a3daafe3b4186f6b6457e060405160405180910390a35050565b600080fd5b600073ffffffffffffffffffffffffffffffffffffffff82169050919050565b6000620001c58262000198565b9050919050565b620001d781620001b8565b8114620001e357600080fd5b50565b600081519050620001f781620001cc565b92915050565b60006020828403121562000216576200021562000193565b5b60006200022684828501620001e6565b91505092915050565b60805160a05160c0516111516200027b600039600081816102a2015261034601526000818161024a0152818161036a015261052b0152600081816101ba015261028101526111516000f3fe608060405234801561001057600080fd5b506004361061009e5760003560e01c8063715018a611610066578063715018a6146101385780638da5cb5b14610142578063b69ef8a814610160578063da19208b1461017e578063f2fde38b1461019c5761009e565b8063064b83fa146100a35780631959a002146100c1578063338cdca1146100f25780635e97aede146100fc57806368378f861461011a575b600080fd5b6100ab6101b8565b6040516100b89190610a52565b60405180910390f35b6100db60048036038101906100d69190610ad0565b6101dc565b6040516100e9929190610afd565b60405180910390f35b6100fa610200565b005b610104610344565b6040516101119190610a52565b60405180910390f35b610122610368565b60405161012f9190610a52565b60405180910390f35b61014061038c565b005b61014a610414565b6040516101579190610b35565b60405180910390f35b61016861043d565b6040516101759190610a52565b60405180910390f35b6101866104e0565b6040516101939190610b6b565b60405180910390f35b6101b660048036038101906101b19190610ad0565b61055c565b005b7f000000000000000000000000000000000000000000000000000000000000000081565b60036020528060005260406000206000915090508060000154908060010154905082565b6000600360003373ffffffffffffffffffffffffffffffffffffffff1673ffffffffffffffffffffffffffffffffffffffff168152602001908152602001600020905080600101547f0000000000000000000000000000000000000000000000000000000000000000426102749190610bb5565b11156103415760006102cf7f00000000000000000000000000000000000000000000000000000000000000007f000000000000000000000000000000000000000000000000000000000000000061065490919063ffffffff16565b905061031e3382600260009054906101000a900473ffffffffffffffffffffffffffffffffffffffff1673ffffffffffffffffffffffffffffffffffffffff1661066a9092919063ffffffff16565b80826000015461032e9190610be9565b8260000181905550428260010181905550505b50565b7f000000000000000000000000000000000000000000000000000000000000000081565b7f000000000000000000000000000000000000000000000000000000000000000081565b6103946106f0565b73ffffffffffffffffffffffffffffffffffffffff166103b2610414565b73ffffffffffffffffffffffffffffffffffffffff1614610408576040517f08c379a00000000000000000000000000000000000000000000000000000000081526004016103ff90610c9c565b60405180910390fd5b61041260006106f8565b565b60008060009054906101000a900473ffffffffffffffffffffffffffffffffffffffff16905090565b6000600260009054906101000a900473ffffffffffffffffffffffffffffffffffffffff1673ffffffffffffffffffffffffffffffffffffffff166370a08231306040518263ffffffff1660e01b815260040161049a9190610b35565b602060405180830381865afa1580156104b7573d6000803e3d6000fd5b505050506040513d601f19601f820116820180604052508101906104db9190610ce8565b905090565b600080600360003373ffffffffffffffffffffffffffffffffffffffff1673ffffffffffffffffffffffffffffffffffffffff168152602001908152602001600020905080600101547f0000000000000000000000000000000000000000000000000000000000000000426105559190610bb5565b1191505090565b6105646106f0565b73ffffffffffffffffffffffffffffffffffffffff16610582610414565b73ffffffffffffffffffffffffffffffffffffffff16146105d8576040517f08c379a00000000000000000000000000000000000000000000000000000000081526004016105cf90610c9c565b60405180910390fd5b600073ffffffffffffffffffffffffffffffffffffffff168173ffffffffffffffffffffffffffffffffffffffff161415610648576040517f08c379a000000000000000000000000000000000000000000000000000000000815260040161063f90610d87565b60405180910390fd5b610651816106f8565b50565b600081836106629190610da7565b905092915050565b6106eb8363a9059cbb60e01b8484604051602401610689929190610e01565b604051602081830303815290604052907bffffffffffffffffffffffffffffffffffffffffffffffffffffffff19166020820180517bffffffffffffffffffffffffffffffffffffffffffffffffffffffff83818316178352505050506107bc565b505050565b600033905090565b60008060009054906101000a900473ffffffffffffffffffffffffffffffffffffffff169050816000806101000a81548173ffffffffffffffffffffffffffffffffffffffff021916908373ffffffffffffffffffffffffffffffffffffffff1602179055508173ffffffffffffffffffffffffffffffffffffffff168173ffffffffffffffffffffffffffffffffffffffff167f8be0079c531659141344cd1fd0a4f28419497f9722a3daafe3b4186f6b6457e060405160405180910390a35050565b600061081e826040518060400160405280602081526020017f5361666545524332303a206c6f772d6c6576656c2063616c6c206661696c65648152508573ffffffffffffffffffffffffffffffffffffffff166108839092919063ffffffff16565b905060008151111561087e578080602001905181019061083e9190610e56565b61087d576040517f08c379a000000000000000000000000000000000000000000000000000000000815260040161087490610ef5565b60405180910390fd5b5b505050565b6060610892848460008561089b565b90509392505050565b6060824710156108e0576040517f08c379a00000000000000000000000000000000000000000000000000000000081526004016108d790610f87565b60405180910390fd5b6108e9856109af565b610928576040517f08c379a000000000000000000000000000000000000000000000000000000000815260040161091f90610ff3565b60405180910390fd5b6000808673ffffffffffffffffffffffffffffffffffffffff168587604051610951919061108d565b60006040518083038185875af1925050503d806000811461098e576040519150601f19603f3d011682016040523d82523d6000602084013e610993565b606091505b50915091506109a38282866109d2565b92505050949350505050565b6000808273ffffffffffffffffffffffffffffffffffffffff163b119050919050565b606083156109e257829050610a32565b6000835111156109f55782518084602001fd5b816040517f08c379a0000000000000000000000000000000000000000000000000000000008152600401610a2991906110f9565b60405180910390fd5b9392505050565b6000819050919050565b610a4c81610a39565b82525050565b6000602082019050610a676000830184610a43565b92915050565b600080fd5b600073ffffffffffffffffffffffffffffffffffffffff82169050919050565b6000610a9d82610a72565b9050919050565b610aad81610a92565b8114610ab857600080fd5b50565b600081359050610aca81610aa4565b92915050565b600060208284031215610ae657610ae5610a6d565b5b6000610af484828501610abb565b91505092915050565b6000604082019050610b126000830185610a43565b610b1f6020830184610a43565b9392505050565b610b2f81610a92565b82525050565b6000602082019050610b4a6000830184610b26565b92915050565b60008115159050919050565b610b6581610b50565b82525050565b6000602082019050610b806000830184610b5c565b92915050565b7f4e487b7100000000000000000000000000000000000000000000000000000000600052601160045260246000fd5b6000610bc082610a39565b9150610bcb83610a39565b925082821015610bde57610bdd610b86565b5b828203905092915050565b6000610bf482610a39565b9150610bff83610a39565b9250827fffffffffffffffffffffffffffffffffffffffffffffffffffffffffffffffff03821115610c3457610c33610b86565b5b828201905092915050565b600082825260208201905092915050565b7f4f776e61626c653a2063616c6c6572206973206e6f7420746865206f776e6572600082015250565b6000610c86602083610c3f565b9150610c9182610c50565b602082019050919050565b60006020820190508181036000830152610cb581610c79565b9050919050565b610cc581610a39565b8114610cd057600080fd5b50565b600081519050610ce281610cbc565b92915050565b600060208284031215610cfe57610cfd610a6d565b5b6000610d0c84828501610cd3565b91505092915050565b7f4f776e61626c653a206e6577206f776e657220697320746865207a65726f206160008201527f6464726573730000000000000000000000000000000000000000000000000000602082015250565b6000610d71602683610c3f565b9150610d7c82610d15565b604082019050919050565b60006020820190508181036000830152610da081610d64565b9050919050565b6000610db282610a39565b9150610dbd83610a39565b9250817fffffffffffffffffffffffffffffffffffffffffffffffffffffffffffffffff0483118215151615610df657610df5610b86565b5b828202905092915050565b6000604082019050610e166000830185610b26565b610e236020830184610a43565b9392505050565b610e3381610b50565b8114610e3e57600080fd5b50565b600081519050610e5081610e2a565b92915050565b600060208284031215610e6c57610e6b610a6d565b5b6000610e7a84828501610e41565b91505092915050565b7f5361666545524332303a204552433230206f7065726174696f6e20646964206e60008201527f6f74207375636365656400000000000000000000000000000000000000000000602082015250565b6000610edf602a83610c3f565b9150610eea82610e83565b604082019050919050565b60006020820190508181036000830152610f0e81610ed2565b9050919050565b7f416464726573733a20696e73756666696369656e742062616c616e636520666f60008201527f722063616c6c0000000000000000000000000000000000000000000000000000602082015250565b6000610f71602683610c3f565b9150610f7c82610f15565b604082019050919050565b60006020820190508181036000830152610fa081610f64565b9050919050565b7f416464726573733a2063616c6c20746f206e6f6e2d636f6e7472616374000000600082015250565b6000610fdd601d83610c3f565b9150610fe882610fa7565b602082019050919050565b6000602082019050818103600083015261100c81610fd0565b9050919050565b600081519050919050565b600081905092915050565b60005b8381101561104757808201518184015260208101905061102c565b83811115611056576000848401525b50505050565b600061106782611013565b611071818561101e565b9350611081818560208601611029565b80840191505092915050565b6000611099828461105c565b915081905092915050565b600081519050919050565b6000601f19601f8301169050919050565b60006110cb826110a4565b6110d58185610c3f565b93506110e5818560208601611029565b6110ee816110af565b840191505092915050565b6000602082019050818103600083015261111381846110c0565b90509291505056fea2646970667358221220c56912e985661720f55eb7528ab2e9e57a5971d18d761645bb52a0ae0dc24de764736f6c634300080b0033",
  "linkReferences": {},
  "deployedLinkReferences": {}
}