{
  "_format": "hh-sol-artifact-1",
  "contractName": "MAXI_Vault",
  "sourceName": "src/contracts/vaults/MAXI_Vault.sol",
  "abi": [
    {
      "inputs": [
        {
          "internalType": "string",
          "name": "_name",
          "type": "string"
        },
        {
          "internalType": "string",
          "name": "_symbol",
          "type": "string"
        },
        {
          "internalType": "uint256",
          "name": "_approvalDelay",
          "type": "uint256"
        }
      ],
      "stateMutability": "nonpayable",
      "type": "constructor"
    },
    {
      "anonymous": false,
      "inputs": [
        {
          "indexed": true,
          "internalType": "address",
          "name": "owner",
          "type": "address"
        },
        {
          "indexed": true,
          "internalType": "address",
          "name": "spender",
          "type": "address"
        },
        {
          "indexed": false,
          "internalType": "uint256",
          "name": "value",
          "type": "uint256"
        }
      ],
      "name": "Approval",
      "type": "event"
    },
    {
      "anonymous": false,
      "inputs": [
        {
          "indexed": false,
          "internalType": "address",
          "name": "implementation",
          "type": "address"
        }
      ],
      "name": "NewStratCandidate",
      "type": "event"
    },
    {
      "anonymous": false,
      "inputs": [
        {
          "indexed": true,
          "internalType": "address",
          "name": "previousOwner",
          "type": "address"
        },
        {
          "indexed": true,
          "internalType": "address",
          "name": "newOwner",
          "type": "address"
        }
      ],
      "name": "OwnershipTransferred",
      "type": "event"
    },
    {
      "anonymous": false,
      "inputs": [
        {
          "indexed": true,
          "internalType": "address",
          "name": "from",
          "type": "address"
        },
        {
          "indexed": true,
          "internalType": "address",
          "name": "to",
          "type": "address"
        },
        {
          "indexed": false,
          "internalType": "uint256",
          "name": "value",
          "type": "uint256"
        }
      ],
      "name": "Transfer",
      "type": "event"
    },
    {
      "anonymous": false,
      "inputs": [
        {
          "indexed": false,
          "internalType": "address",
          "name": "implementation",
          "type": "address"
        }
      ],
      "name": "UpgradeStrat",
      "type": "event"
    },
    {
      "inputs": [
        {
          "internalType": "address",
          "name": "owner",
          "type": "address"
        },
        {
          "internalType": "address",
          "name": "spender",
          "type": "address"
        }
      ],
      "name": "allowance",
      "outputs": [
        {
          "internalType": "uint256",
          "name": "",
          "type": "uint256"
        }
      ],
      "stateMutability": "view",
      "type": "function"
    },
    {
      "inputs": [],
      "name": "approvalDelay",
      "outputs": [
        {
          "internalType": "uint256",
          "name": "",
          "type": "uint256"
        }
      ],
      "stateMutability": "view",
      "type": "function"
    },
    {
      "inputs": [
        {
          "internalType": "address",
          "name": "spender",
          "type": "address"
        },
        {
          "internalType": "uint256",
          "name": "amount",
          "type": "uint256"
        }
      ],
      "name": "approve",
      "outputs": [
        {
          "internalType": "bool",
          "name": "",
          "type": "bool"
        }
      ],
      "stateMutability": "nonpayable",
      "type": "function"
    },
    {
      "inputs": [],
      "name": "available",
      "outputs": [
        {
          "internalType": "uint256",
          "name": "",
          "type": "uint256"
        }
      ],
      "stateMutability": "view",
      "type": "function"
    },
    {
      "inputs": [],
      "name": "balance",
      "outputs": [
        {
          "internalType": "uint256",
          "name": "",
          "type": "uint256"
        }
      ],
      "stateMutability": "view",
      "type": "function"
    },
    {
      "inputs": [
        {
          "internalType": "address",
          "name": "account",
          "type": "address"
        }
      ],
      "name": "balanceOf",
      "outputs": [
        {
          "internalType": "uint256",
          "name": "",
          "type": "uint256"
        }
      ],
      "stateMutability": "view",
      "type": "function"
    },
    {
      "inputs": [],
      "name": "decimals",
      "outputs": [
        {
          "internalType": "uint8",
          "name": "",
          "type": "uint8"
        }
      ],
      "stateMutability": "view",
      "type": "function"
    },
    {
      "inputs": [
        {
          "internalType": "address",
          "name": "spender",
          "type": "address"
        },
        {
          "internalType": "uint256",
          "name": "subtractedValue",
          "type": "uint256"
        }
      ],
      "name": "decreaseAllowance",
      "outputs": [
        {
          "internalType": "bool",
          "name": "",
          "type": "bool"
        }
      ],
      "stateMutability": "nonpayable",
      "type": "function"
    },
    {
      "inputs": [
        {
          "internalType": "uint256",
          "name": "_amount",
          "type": "uint256"
        }
      ],
      "name": "deposit",
      "outputs": [],
      "stateMutability": "nonpayable",
      "type": "function"
    },
    {
      "inputs": [],
      "name": "depositAll",
      "outputs": [],
      "stateMutability": "nonpayable",
      "type": "function"
    },
    {
      "inputs": [],
      "name": "earn",
      "outputs": [],
      "stateMutability": "nonpayable",
      "type": "function"
    },
    {
      "inputs": [],
      "name": "getPricePerFullShare",
      "outputs": [
        {
          "internalType": "uint256",
          "name": "",
          "type": "uint256"
        }
      ],
      "stateMutability": "view",
      "type": "function"
    },
    {
      "inputs": [
        {
          "internalType": "address",
          "name": "_token",
          "type": "address"
        }
      ],
      "name": "inCaseTokensGetStuck",
      "outputs": [],
      "stateMutability": "nonpayable",
      "type": "function"
    },
    {
      "inputs": [
        {
          "internalType": "address",
          "name": "spender",
          "type": "address"
        },
        {
          "internalType": "uint256",
          "name": "addedValue",
          "type": "uint256"
        }
      ],
      "name": "increaseAllowance",
      "outputs": [
        {
          "internalType": "bool",
          "name": "",
          "type": "bool"
        }
      ],
      "stateMutability": "nonpayable",
      "type": "function"
    },
    {
      "inputs": [],
      "name": "name",
      "outputs": [
        {
          "internalType": "string",
          "name": "",
          "type": "string"
        }
      ],
      "stateMutability": "view",
      "type": "function"
    },
    {
      "inputs": [],
      "name": "owner",
      "outputs": [
        {
          "internalType": "address",
          "name": "",
          "type": "address"
        }
      ],
      "stateMutability": "view",
      "type": "function"
    },
    {
      "inputs": [
        {
          "internalType": "address",
          "name": "_implementation",
          "type": "address"
        }
      ],
      "name": "proposeStrat",
      "outputs": [],
      "stateMutability": "nonpayable",
      "type": "function"
    },
    {
      "inputs": [],
      "name": "renounceOwnership",
      "outputs": [],
      "stateMutability": "nonpayable",
      "type": "function"
    },
    {
      "inputs": [],
      "name": "reward",
      "outputs": [
        {
          "internalType": "contract IERC20",
          "name": "",
          "type": "address"
        }
      ],
      "stateMutability": "view",
      "type": "function"
    },
    {
      "inputs": [
        {
          "internalType": "address",
          "name": "_strategy",
          "type": "address"
        }
      ],
      "name": "setDefaultStrategy",
      "outputs": [],
      "stateMutability": "nonpayable",
      "type": "function"
    },
    {
      "inputs": [],
      "name": "stratCandidate",
      "outputs": [
        {
          "internalType": "address",
          "name": "implementation",
          "type": "address"
        },
        {
          "internalType": "uint256",
          "name": "proposedTime",
          "type": "uint256"
        }
      ],
      "stateMutability": "view",
      "type": "function"
    },
    {
      "inputs": [],
      "name": "strategy",
      "outputs": [
        {
          "internalType": "contract IStrategy",
          "name": "",
          "type": "address"
        }
      ],
      "stateMutability": "view",
      "type": "function"
    },
    {
      "inputs": [],
      "name": "symbol",
      "outputs": [
        {
          "internalType": "string",
          "name": "",
          "type": "string"
        }
      ],
      "stateMutability": "view",
      "type": "function"
    },
    {
      "inputs": [],
      "name": "totalSupply",
      "outputs": [
        {
          "internalType": "uint256",
          "name": "",
          "type": "uint256"
        }
      ],
      "stateMutability": "view",
      "type": "function"
    },
    {
      "inputs": [
        {
          "internalType": "address",
          "name": "to",
          "type": "address"
        },
        {
          "internalType": "uint256",
          "name": "amount",
          "type": "uint256"
        }
      ],
      "name": "transfer",
      "outputs": [
        {
          "internalType": "bool",
          "name": "",
          "type": "bool"
        }
      ],
      "stateMutability": "nonpayable",
      "type": "function"
    },
    {
      "inputs": [
        {
          "internalType": "address",
          "name": "from",
          "type": "address"
        },
        {
          "internalType": "address",
          "name": "to",
          "type": "address"
        },
        {
          "internalType": "uint256",
          "name": "amount",
          "type": "uint256"
        }
      ],
      "name": "transferFrom",
      "outputs": [
        {
          "internalType": "bool",
          "name": "",
          "type": "bool"
        }
      ],
      "stateMutability": "nonpayable",
      "type": "function"
    },
    {
      "inputs": [
        {
          "internalType": "address",
          "name": "newOwner",
          "type": "address"
        }
      ],
      "name": "transferOwnership",
      "outputs": [],
      "stateMutability": "nonpayable",
      "type": "function"
    },
    {
      "inputs": [],
      "name": "upgradeStrat",
      "outputs": [],
      "stateMutability": "nonpayable",
      "type": "function"
    },
    {
      "inputs": [],
      "name": "want",
      "outputs": [
        {
          "internalType": "contract IERC20",
          "name": "",
          "type": "address"
        }
      ],
      "stateMutability": "view",
      "type": "function"
    },
    {
      "inputs": [
        {
          "internalType": "uint256",
          "name": "_shares",
          "type": "uint256"
        }
      ],
      "name": "withdraw",
      "outputs": [],
      "stateMutability": "nonpayable",
      "type": "function"
    },
    {
      "inputs": [],
      "name": "withdrawAll",
      "outputs": [],
      "stateMutability": "nonpayable",
      "type": "function"
    }
  ],
  "bytecode": "0x60a06040526000600760006101000a81548160ff0219169083151502179055503480156200002c57600080fd5b50604051620043f1380380620043f1833981810160405281019062000052919062000417565b828281600390805190602001906200006c9291906200018f565b508060049080519060200190620000859291906200018f565b505050620000a86200009c620000c160201b60201c565b620000c960201b60201c565b6001600681905550806080818152505050505062000516565b600033905090565b6000600560009054906101000a900473ffffffffffffffffffffffffffffffffffffffff16905081600560006101000a81548173ffffffffffffffffffffffffffffffffffffffff021916908373ffffffffffffffffffffffffffffffffffffffff1602179055508173ffffffffffffffffffffffffffffffffffffffff168173ffffffffffffffffffffffffffffffffffffffff167f8be0079c531659141344cd1fd0a4f28419497f9722a3daafe3b4186f6b6457e060405160405180910390a35050565b8280546200019d90620004e0565b90600052602060002090601f016020900481019282620001c157600085556200020d565b82601f10620001dc57805160ff19168380011785556200020d565b828001600101855582156200020d579182015b828111156200020c578251825591602001919060010190620001ef565b5b5090506200021c919062000220565b5090565b5b808211156200023b57600081600090555060010162000221565b5090565b6000604051905090565b600080fd5b600080fd5b600080fd5b600080fd5b6000601f19601f8301169050919050565b7f4e487b7100000000000000000000000000000000000000000000000000000000600052604160045260246000fd5b620002a8826200025d565b810181811067ffffffffffffffff82111715620002ca57620002c96200026e565b5b80604052505050565b6000620002df6200023f565b9050620002ed82826200029d565b919050565b600067ffffffffffffffff82111562000310576200030f6200026e565b5b6200031b826200025d565b9050602081019050919050565b60005b83811015620003485780820151818401526020810190506200032b565b8381111562000358576000848401525b50505050565b6000620003756200036f84620002f2565b620002d3565b90508281526020810184848401111562000394576200039362000258565b5b620003a184828562000328565b509392505050565b600082601f830112620003c157620003c062000253565b5b8151620003d38482602086016200035e565b91505092915050565b6000819050919050565b620003f181620003dc565b8114620003fd57600080fd5b50565b6000815190506200041181620003e6565b92915050565b60008060006060848603121562000433576200043262000249565b5b600084015167ffffffffffffffff8111156200045457620004536200024e565b5b6200046286828701620003a9565b935050602084015167ffffffffffffffff8111156200048657620004856200024e565b5b6200049486828701620003a9565b9250506040620004a78682870162000400565b9150509250925092565b7f4e487b7100000000000000000000000000000000000000000000000000000000600052602260045260246000fd5b60006002820490506001821680620004f957607f821691505b6020821081141562000510576200050f620004b1565b5b50919050565b608051613eb16200054060003960008181611939015281816119f80152611b0a0152613eb16000f3fe608060405234801561001057600080fd5b50600436106101e55760003560e01c806377c7b8fc1161010f578063b6b55f25116100a2578063def68a9c11610071578063def68a9c1461053b578063e2d1e75c14610557578063e668524414610575578063f2fde38b1461057f576101e5565b8063b6b55f25146104db578063d389800f146104f7578063dd62ed3e14610501578063de5f626814610531576101e5565b8063a457c2d7116100de578063a457c2d71461043f578063a8c62e761461046f578063a9059cbb1461048d578063b69ef8a8146104bd576101e5565b806377c7b8fc146103db578063853828b6146103f95780638da5cb5b1461040357806395d89b4114610421576101e5565b8063313ce567116101875780635b12ff9b116101565780635b12ff9b1461036657806370a0823114610382578063715018a6146103b257806376dfabb8146103bc576101e5565b8063313ce567146102de57806339509351146102fc57806348a0d7541461032c57806357bee9441461034a576101e5565b80631f1fcd51116101c35780631f1fcd5114610256578063228cb7331461027457806323b872dd146102925780632e1a7d4d146102c2576101e5565b806306fdde03146101ea578063095ea7b31461020857806318160ddd14610238575b600080fd5b6101f261059b565b6040516101ff9190612c40565b60405180910390f35b610222600480360381019061021d9190612cfb565b61062d565b60405161022f9190612d56565b60405180910390f35b610240610650565b60405161024d9190612d80565b60405180910390f35b61025e61065a565b60405161026b9190612dfa565b60405180910390f35b61027c6106f2565b6040516102899190612dfa565b60405180910390f35b6102ac60048036038101906102a79190612e15565b61078a565b6040516102b99190612d56565b60405180910390f35b6102dc60048036038101906102d79190612e68565b6107b9565b005b6102e6610a20565b6040516102f39190612eb1565b60405180910390f35b61031660048036038101906103119190612cfb565b610a29565b6040516103239190612d56565b60405180910390f35b610334610ad3565b6040516103419190612d80565b60405180910390f35b610364600480360381019061035f9190612ecc565b610b5b565b005b610380600480360381019061037b9190612ecc565b610d68565b005b61039c60048036038101906103979190612ecc565b610f7b565b6040516103a99190612d80565b60405180910390f35b6103ba610fc3565b005b6103c461104b565b6040516103d2929190612f08565b60405180910390f35b6103e361107d565b6040516103f09190612d80565b60405180910390f35b6104016110dc565b005b61040b6110ef565b6040516104189190612f31565b60405180910390f35b610429611119565b6040516104369190612c40565b60405180910390f35b61045960048036038101906104549190612cfb565b6111ab565b6040516104669190612d56565b60405180910390f35b610477611295565b6040516104849190612f6d565b60405180910390f35b6104a760048036038101906104a29190612cfb565b6112bb565b6040516104b49190612d56565b60405180910390f35b6104c56112de565b6040516104d29190612d80565b60405180910390f35b6104f560048036038101906104f09190612e68565b611408565b005b6104ff6115a1565b005b61051b60048036038101906105169190612f88565b611686565b6040516105289190612d80565b60405180910390f35b61053961170d565b005b61055560048036038101906105509190612ecc565b611798565b005b61055f611937565b60405161056c9190612d80565b60405180910390f35b61057d61195b565b005b61059960048036038101906105949190612ecc565b611d1f565b005b6060600380546105aa90612ff7565b80601f01602080910402602001604051908101604052809291908181526020018280546105d690612ff7565b80156106235780601f106105f857610100808354040283529160200191610623565b820191906000526020600020905b81548152906001019060200180831161060657829003601f168201915b5050505050905090565b600080610638611e17565b9050610645818585611e1f565b600191505092915050565b6000600254905090565b6000600a60009054906101000a900473ffffffffffffffffffffffffffffffffffffffff1673ffffffffffffffffffffffffffffffffffffffff16631f1fcd516040518163ffffffff1660e01b8152600401602060405180830381865afa1580156106c9573d6000803e3d6000fd5b505050506040513d601f19601f820116820180604052508101906106ed9190613067565b905090565b6000600a60009054906101000a900473ffffffffffffffffffffffffffffffffffffffff1673ffffffffffffffffffffffffffffffffffffffff1663228cb7336040518163ffffffff1660e01b8152600401602060405180830381865afa158015610761573d6000803e3d6000fd5b505050506040513d601f19601f820116820180604052508101906107859190613067565b905090565b600080610795611e17565b90506107a2858285611fea565b6107ad858585612076565b60019150509392505050565b60006107ee6107c6610650565b6107e0846107d26112de565b6122f790919063ffffffff16565b61230d90919063ffffffff16565b90506107fa3383612323565b600061080461065a565b73ffffffffffffffffffffffffffffffffffffffff166370a08231306040518263ffffffff1660e01b815260040161083c9190612f31565b602060405180830381865afa158015610859573d6000803e3d6000fd5b505050506040513d601f19601f8201168201806040525081019061087d91906130a9565b9050818110156109e957600061089c82846124fa90919063ffffffff16565b9050600a60009054906101000a900473ffffffffffffffffffffffffffffffffffffffff1673ffffffffffffffffffffffffffffffffffffffff16632e1a7d4d826040518263ffffffff1660e01b81526004016108f99190612d80565b600060405180830381600087803b15801561091357600080fd5b505af1158015610927573d6000803e3d6000fd5b50505050600061093561065a565b73ffffffffffffffffffffffffffffffffffffffff166370a08231306040518263ffffffff1660e01b815260040161096d9190612f31565b602060405180830381865afa15801561098a573d6000803e3d6000fd5b505050506040513d601f19601f820116820180604052508101906109ae91906130a9565b905060006109c584836124fa90919063ffffffff16565b9050828110156109e5576109e2818561251090919063ffffffff16565b94505b5050505b610a1b33836109f661065a565b73ffffffffffffffffffffffffffffffffffffffff166125269092919063ffffffff16565b505050565b60006012905090565b600080610a34611e17565b9050610ac8818585600160008673ffffffffffffffffffffffffffffffffffffffff1673ffffffffffffffffffffffffffffffffffffffff16815260200190815260200160002060008973ffffffffffffffffffffffffffffffffffffffff1673ffffffffffffffffffffffffffffffffffffffff16815260200190815260200160002054610ac39190613105565b611e1f565b600191505092915050565b6000610add61065a565b73ffffffffffffffffffffffffffffffffffffffff166370a08231306040518263ffffffff1660e01b8152600401610b159190612f31565b602060405180830381865afa158015610b32573d6000803e3d6000fd5b505050506040513d601f19601f82011682018060405250810190610b5691906130a9565b905090565b610b63611e17565b73ffffffffffffffffffffffffffffffffffffffff16610b816110ef565b73ffffffffffffffffffffffffffffffffffffffff1614610bd7576040517f08c379a0000000000000000000000000000000000000000000000000000000008152600401610bce906131a7565b60405180910390fd5b8073ffffffffffffffffffffffffffffffffffffffff1663fbfa77cf6040518163ffffffff1660e01b8152600401602060405180830381865afa158015610c22573d6000803e3d6000fd5b505050506040513d601f19601f82011682018060405250810190610c4691906131dc565b73ffffffffffffffffffffffffffffffffffffffff163073ffffffffffffffffffffffffffffffffffffffff1614610cb3576040517f08c379a0000000000000000000000000000000000000000000000000000000008152600401610caa9061327b565b60405180910390fd5b60001515600760009054906101000a900460ff16151514610d09576040517f08c379a0000000000000000000000000000000000000000000000000000000008152600401610d00906132e7565b60405180910390fd5b80600a60006101000a81548173ffffffffffffffffffffffffffffffffffffffff021916908373ffffffffffffffffffffffffffffffffffffffff1602179055506001600760006101000a81548160ff02191690831515021790555050565b610d70611e17565b73ffffffffffffffffffffffffffffffffffffffff16610d8e6110ef565b73ffffffffffffffffffffffffffffffffffffffff1614610de4576040517f08c379a0000000000000000000000000000000000000000000000000000000008152600401610ddb906131a7565b60405180910390fd5b8073ffffffffffffffffffffffffffffffffffffffff1663fbfa77cf6040518163ffffffff1660e01b8152600401602060405180830381865afa158015610e2f573d6000803e3d6000fd5b505050506040513d601f19601f82011682018060405250810190610e5391906131dc565b73ffffffffffffffffffffffffffffffffffffffff163073ffffffffffffffffffffffffffffffffffffffff1614610ec0576040517f08c379a0000000000000000000000000000000000000000000000000000000008152600401610eb79061327b565b60405180910390fd5b60405180604001604052808273ffffffffffffffffffffffffffffffffffffffff16815260200142815250600860008201518160000160006101000a81548173ffffffffffffffffffffffffffffffffffffffff021916908373ffffffffffffffffffffffffffffffffffffffff160217905550602082015181600101559050507f1aae2ec5647db56da2d513de40528ba3565c6057525637050660c4323bbac7df81604051610f709190612f31565b60405180910390a150565b60008060008373ffffffffffffffffffffffffffffffffffffffff1673ffffffffffffffffffffffffffffffffffffffff168152602001908152602001600020549050919050565b610fcb611e17565b73ffffffffffffffffffffffffffffffffffffffff16610fe96110ef565b73ffffffffffffffffffffffffffffffffffffffff161461103f576040517f08c379a0000000000000000000000000000000000000000000000000000000008152600401611036906131a7565b60405180910390fd5b61104960006125ac565b565b60088060000160009054906101000a900473ffffffffffffffffffffffffffffffffffffffff16908060010154905082565b600080611088610650565b146110cd576110c8611098610650565b6110ba670de0b6b3a76400006110ac6112de565b6122f790919063ffffffff16565b61230d90919063ffffffff16565b6110d7565b670de0b6b3a76400005b905090565b6110ed6110e833610f7b565b6107b9565b565b6000600560009054906101000a900473ffffffffffffffffffffffffffffffffffffffff16905090565b60606004805461112890612ff7565b80601f016020809104026020016040519081016040528092919081815260200182805461115490612ff7565b80156111a15780601f10611176576101008083540402835291602001916111a1565b820191906000526020600020905b81548152906001019060200180831161118457829003601f168201915b5050505050905090565b6000806111b6611e17565b90506000600160008373ffffffffffffffffffffffffffffffffffffffff1673ffffffffffffffffffffffffffffffffffffffff16815260200190815260200160002060008673ffffffffffffffffffffffffffffffffffffffff1673ffffffffffffffffffffffffffffffffffffffff1681526020019081526020016000205490508381101561127c576040517f08c379a000000000000000000000000000000000000000000000000000000000815260040161127390613379565b60405180910390fd5b6112898286868403611e1f565b60019250505092915050565b600a60009054906101000a900473ffffffffffffffffffffffffffffffffffffffff1681565b6000806112c6611e17565b90506112d3818585612076565b600191505092915050565b6000611403600a60009054906101000a900473ffffffffffffffffffffffffffffffffffffffff1673ffffffffffffffffffffffffffffffffffffffff1663722713f76040518163ffffffff1660e01b8152600401602060405180830381865afa158015611350573d6000803e3d6000fd5b505050506040513d601f19601f8201168201806040525081019061137491906130a9565b61137c61065a565b73ffffffffffffffffffffffffffffffffffffffff166370a08231306040518263ffffffff1660e01b81526004016113b49190612f31565b602060405180830381865afa1580156113d1573d6000803e3d6000fd5b505050506040513d601f19601f820116820180604052508101906113f591906130a9565b61251090919063ffffffff16565b905090565b6002600654141561144e576040517f08c379a0000000000000000000000000000000000000000000000000000000008152600401611445906133e5565b60405180910390fd5b6002600681905550600a60009054906101000a900473ffffffffffffffffffffffffffffffffffffffff1673ffffffffffffffffffffffffffffffffffffffff1663573fef0a6040518163ffffffff1660e01b8152600401600060405180830381600087803b1580156114c057600080fd5b505af11580156114d4573d6000803e3d6000fd5b5050505060006114e26112de565b90506115183330846114f261065a565b73ffffffffffffffffffffffffffffffffffffffff16612672909392919063ffffffff16565b6115206115a1565b600061152a6112de565b905061153f82826124fa90919063ffffffff16565b925060008061154c610650565b141561155a57839050611589565b61158683611578611569610650565b876122f790919063ffffffff16565b61230d90919063ffffffff16565b90505b61159333826126fb565b505050600160068190555050565b60006115ab610ad3565b9050611601600a60009054906101000a900473ffffffffffffffffffffffffffffffffffffffff16826115dc61065a565b73ffffffffffffffffffffffffffffffffffffffff166125269092919063ffffffff16565b600a60009054906101000a900473ffffffffffffffffffffffffffffffffffffffff1673ffffffffffffffffffffffffffffffffffffffff1663d0e30db06040518163ffffffff1660e01b8152600401600060405180830381600087803b15801561166b57600080fd5b505af115801561167f573d6000803e3d6000fd5b5050505050565b6000600160008473ffffffffffffffffffffffffffffffffffffffff1673ffffffffffffffffffffffffffffffffffffffff16815260200190815260200160002060008373ffffffffffffffffffffffffffffffffffffffff1673ffffffffffffffffffffffffffffffffffffffff16815260200190815260200160002054905092915050565b61179661171861065a565b73ffffffffffffffffffffffffffffffffffffffff166370a08231336040518263ffffffff1660e01b81526004016117509190612f31565b602060405180830381865afa15801561176d573d6000803e3d6000fd5b505050506040513d601f19601f8201168201806040525081019061179191906130a9565b611408565b565b6117a0611e17565b73ffffffffffffffffffffffffffffffffffffffff166117be6110ef565b73ffffffffffffffffffffffffffffffffffffffff1614611814576040517f08c379a000000000000000000000000000000000000000000000000000000000815260040161180b906131a7565b60405180910390fd5b61181c61065a565b73ffffffffffffffffffffffffffffffffffffffff168173ffffffffffffffffffffffffffffffffffffffff16141561188a576040517f08c379a000000000000000000000000000000000000000000000000000000000815260040161188190613451565b60405180910390fd5b60008173ffffffffffffffffffffffffffffffffffffffff166370a08231306040518263ffffffff1660e01b81526004016118c59190612f31565b602060405180830381865afa1580156118e2573d6000803e3d6000fd5b505050506040513d601f19601f8201168201806040525081019061190691906130a9565b905061193333828473ffffffffffffffffffffffffffffffffffffffff166125269092919063ffffffff16565b5050565b7f000000000000000000000000000000000000000000000000000000000000000081565b611963611e17565b73ffffffffffffffffffffffffffffffffffffffff166119816110ef565b73ffffffffffffffffffffffffffffffffffffffff16146119d7576040517f08c379a00000000000000000000000000000000000000000000000000000000081526004016119ce906131a7565b60405180910390fd5b611a306040518060600160405280602e8152602001613e4e602e9139611a2b7f000000000000000000000000000000000000000000000000000000000000000060086001015461251090919063ffffffff16565b61285b565b611a6f6040518060400160405280600f81526020017f626c6f636b2e74696d657374616d7000000000000000000000000000000000008152504261285b565b600073ffffffffffffffffffffffffffffffffffffffff16600860000160009054906101000a900473ffffffffffffffffffffffffffffffffffffffff1673ffffffffffffffffffffffffffffffffffffffff161415611b04576040517f08c379a0000000000000000000000000000000000000000000000000000000008152600401611afb906134bd565b60405180910390fd5b42611b3d7f000000000000000000000000000000000000000000000000000000000000000060086001015461251090919063ffffffff16565b10611b7d576040517f08c379a0000000000000000000000000000000000000000000000000000000008152600401611b7490613529565b60405180910390fd5b7f7f37d440e85aba7fbf641c4bda5ca4ef669a80bffaacde2aa8d9feb1b048c82c600860000160009054906101000a900473ffffffffffffffffffffffffffffffffffffffff16604051611bd19190612f31565b60405180910390a1600a60009054906101000a900473ffffffffffffffffffffffffffffffffffffffff1673ffffffffffffffffffffffffffffffffffffffff1663fb6177876040518163ffffffff1660e01b8152600401600060405180830381600087803b158015611c4357600080fd5b505af1158015611c57573d6000803e3d6000fd5b50505050600860000160009054906101000a900473ffffffffffffffffffffffffffffffffffffffff16600a60006101000a81548173ffffffffffffffffffffffffffffffffffffffff021916908373ffffffffffffffffffffffffffffffffffffffff1602179055506000600860000160006101000a81548173ffffffffffffffffffffffffffffffffffffffff021916908373ffffffffffffffffffffffffffffffffffffffff16021790555064012a05f200600860010181905550611d1d6115a1565b565b611d27611e17565b73ffffffffffffffffffffffffffffffffffffffff16611d456110ef565b73ffffffffffffffffffffffffffffffffffffffff1614611d9b576040517f08c379a0000000000000000000000000000000000000000000000000000000008152600401611d92906131a7565b60405180910390fd5b600073ffffffffffffffffffffffffffffffffffffffff168173ffffffffffffffffffffffffffffffffffffffff161415611e0b576040517f08c379a0000000000000000000000000000000000000000000000000000000008152600401611e02906135bb565b60405180910390fd5b611e14816125ac565b50565b600033905090565b600073ffffffffffffffffffffffffffffffffffffffff168373ffffffffffffffffffffffffffffffffffffffff161415611e8f576040517f08c379a0000000000000000000000000000000000000000000000000000000008152600401611e869061364d565b60405180910390fd5b600073ffffffffffffffffffffffffffffffffffffffff168273ffffffffffffffffffffffffffffffffffffffff161415611eff576040517f08c379a0000000000000000000000000000000000000000000000000000000008152600401611ef6906136df565b60405180910390fd5b80600160008573ffffffffffffffffffffffffffffffffffffffff1673ffffffffffffffffffffffffffffffffffffffff16815260200190815260200160002060008473ffffffffffffffffffffffffffffffffffffffff1673ffffffffffffffffffffffffffffffffffffffff168152602001908152602001600020819055508173ffffffffffffffffffffffffffffffffffffffff168373ffffffffffffffffffffffffffffffffffffffff167f8c5be1e5ebec7d5bd14f71427d1e84f3dd0314c0f7b2291e5b200ac8c7c3b92583604051611fdd9190612d80565b60405180910390a3505050565b6000611ff68484611686565b90507fffffffffffffffffffffffffffffffffffffffffffffffffffffffffffffffff81146120705781811015612062576040517f08c379a00000000000000000000000000000000000000000000000000000000081526004016120599061374b565b60405180910390fd5b61206f8484848403611e1f565b5b50505050565b600073ffffffffffffffffffffffffffffffffffffffff168373ffffffffffffffffffffffffffffffffffffffff1614156120e6576040517f08c379a00000000000000000000000000000000000000000000000000000000081526004016120dd906137dd565b60405180910390fd5b600073ffffffffffffffffffffffffffffffffffffffff168273ffffffffffffffffffffffffffffffffffffffff161415612156576040517f08c379a000000000000000000000000000000000000000000000000000000000815260040161214d9061386f565b60405180910390fd5b6121618383836128f7565b60008060008573ffffffffffffffffffffffffffffffffffffffff1673ffffffffffffffffffffffffffffffffffffffff168152602001908152602001600020549050818110156121e7576040517f08c379a00000000000000000000000000000000000000000000000000000000081526004016121de90613901565b60405180910390fd5b8181036000808673ffffffffffffffffffffffffffffffffffffffff1673ffffffffffffffffffffffffffffffffffffffff16815260200190815260200160002081905550816000808573ffffffffffffffffffffffffffffffffffffffff1673ffffffffffffffffffffffffffffffffffffffff168152602001908152602001600020600082825461227a9190613105565b925050819055508273ffffffffffffffffffffffffffffffffffffffff168473ffffffffffffffffffffffffffffffffffffffff167fddf252ad1be2c89b69c2b068fc378daa952ba7f163c4a11628f55a4df523b3ef846040516122de9190612d80565b60405180910390a36122f18484846128fc565b50505050565b600081836123059190613921565b905092915050565b6000818361231b91906139aa565b905092915050565b600073ffffffffffffffffffffffffffffffffffffffff168273ffffffffffffffffffffffffffffffffffffffff161415612393576040517f08c379a000000000000000000000000000000000000000000000000000000000815260040161238a90613a4d565b60405180910390fd5b61239f826000836128f7565b60008060008473ffffffffffffffffffffffffffffffffffffffff1673ffffffffffffffffffffffffffffffffffffffff16815260200190815260200160002054905081811015612425576040517f08c379a000000000000000000000000000000000000000000000000000000000815260040161241c90613adf565b60405180910390fd5b8181036000808573ffffffffffffffffffffffffffffffffffffffff1673ffffffffffffffffffffffffffffffffffffffff16815260200190815260200160002081905550816002600082825461247c9190613aff565b92505081905550600073ffffffffffffffffffffffffffffffffffffffff168373ffffffffffffffffffffffffffffffffffffffff167fddf252ad1be2c89b69c2b068fc378daa952ba7f163c4a11628f55a4df523b3ef846040516124e19190612d80565b60405180910390a36124f5836000846128fc565b505050565b600081836125089190613aff565b905092915050565b6000818361251e9190613105565b905092915050565b6125a78363a9059cbb60e01b8484604051602401612545929190612f08565b604051602081830303815290604052907bffffffffffffffffffffffffffffffffffffffffffffffffffffffff19166020820180517bffffffffffffffffffffffffffffffffffffffffffffffffffffffff8381831617835250505050612901565b505050565b6000600560009054906101000a900473ffffffffffffffffffffffffffffffffffffffff16905081600560006101000a81548173ffffffffffffffffffffffffffffffffffffffff021916908373ffffffffffffffffffffffffffffffffffffffff1602179055508173ffffffffffffffffffffffffffffffffffffffff168173ffffffffffffffffffffffffffffffffffffffff167f8be0079c531659141344cd1fd0a4f28419497f9722a3daafe3b4186f6b6457e060405160405180910390a35050565b6126f5846323b872dd60e01b85858560405160240161269393929190613b33565b604051602081830303815290604052907bffffffffffffffffffffffffffffffffffffffffffffffffffffffff19166020820180517bffffffffffffffffffffffffffffffffffffffffffffffffffffffff8381831617835250505050612901565b50505050565b600073ffffffffffffffffffffffffffffffffffffffff168273ffffffffffffffffffffffffffffffffffffffff16141561276b576040517f08c379a000000000000000000000000000000000000000000000000000000000815260040161276290613bb6565b60405180910390fd5b612777600083836128f7565b80600260008282546127899190613105565b92505081905550806000808473ffffffffffffffffffffffffffffffffffffffff1673ffffffffffffffffffffffffffffffffffffffff16815260200190815260200160002060008282546127de9190613105565b925050819055508173ffffffffffffffffffffffffffffffffffffffff16600073ffffffffffffffffffffffffffffffffffffffff167fddf252ad1be2c89b69c2b068fc378daa952ba7f163c4a11628f55a4df523b3ef836040516128439190612d80565b60405180910390a3612857600083836128fc565b5050565b6128f38282604051602401612871929190613bd6565b6040516020818303038152906040527f9710a9d0000000000000000000000000000000000000000000000000000000007bffffffffffffffffffffffffffffffffffffffffffffffffffffffff19166020820180517bffffffffffffffffffffffffffffffffffffffffffffffffffffffff83818316178352505050506129c8565b5050565b505050565b505050565b6000612963826040518060400160405280602081526020017f5361666545524332303a206c6f772d6c6576656c2063616c6c206661696c65648152508573ffffffffffffffffffffffffffffffffffffffff166129f19092919063ffffffff16565b90506000815111156129c357808060200190518101906129839190613c32565b6129c2576040517f08c379a00000000000000000000000000000000000000000000000000000000081526004016129b990613cd1565b60405180910390fd5b5b505050565b60008151905060006a636f6e736f6c652e6c6f679050602083016000808483855afa5050505050565b6060612a008484600085612a09565b90509392505050565b606082471015612a4e576040517f08c379a0000000000000000000000000000000000000000000000000000000008152600401612a4590613d63565b60405180910390fd5b612a5785612b1d565b612a96576040517f08c379a0000000000000000000000000000000000000000000000000000000008152600401612a8d90613dcf565b60405180910390fd5b6000808673ffffffffffffffffffffffffffffffffffffffff168587604051612abf9190613e36565b60006040518083038185875af1925050503d8060008114612afc576040519150601f19603f3d011682016040523d82523d6000602084013e612b01565b606091505b5091509150612b11828286612b40565b92505050949350505050565b6000808273ffffffffffffffffffffffffffffffffffffffff163b119050919050565b60608315612b5057829050612ba0565b600083511115612b635782518084602001fd5b816040517f08c379a0000000000000000000000000000000000000000000000000000000008152600401612b979190612c40565b60405180910390fd5b9392505050565b600081519050919050565b600082825260208201905092915050565b60005b83811015612be1578082015181840152602081019050612bc6565b83811115612bf0576000848401525b50505050565b6000601f19601f8301169050919050565b6000612c1282612ba7565b612c1c8185612bb2565b9350612c2c818560208601612bc3565b612c3581612bf6565b840191505092915050565b60006020820190508181036000830152612c5a8184612c07565b905092915050565b600080fd5b600073ffffffffffffffffffffffffffffffffffffffff82169050919050565b6000612c9282612c67565b9050919050565b612ca281612c87565b8114612cad57600080fd5b50565b600081359050612cbf81612c99565b92915050565b6000819050919050565b612cd881612cc5565b8114612ce357600080fd5b50565b600081359050612cf581612ccf565b92915050565b60008060408385031215612d1257612d11612c62565b5b6000612d2085828601612cb0565b9250506020612d3185828601612ce6565b9150509250929050565b60008115159050919050565b612d5081612d3b565b82525050565b6000602082019050612d6b6000830184612d47565b92915050565b612d7a81612cc5565b82525050565b6000602082019050612d956000830184612d71565b92915050565b6000819050919050565b6000612dc0612dbb612db684612c67565b612d9b565b612c67565b9050919050565b6000612dd282612da5565b9050919050565b6000612de482612dc7565b9050919050565b612df481612dd9565b82525050565b6000602082019050612e0f6000830184612deb565b92915050565b600080600060608486031215612e2e57612e2d612c62565b5b6000612e3c86828701612cb0565b9350506020612e4d86828701612cb0565b9250506040612e5e86828701612ce6565b9150509250925092565b600060208284031215612e7e57612e7d612c62565b5b6000612e8c84828501612ce6565b91505092915050565b600060ff82169050919050565b612eab81612e95565b82525050565b6000602082019050612ec66000830184612ea2565b92915050565b600060208284031215612ee257612ee1612c62565b5b6000612ef084828501612cb0565b91505092915050565b612f0281612c87565b82525050565b6000604082019050612f1d6000830185612ef9565b612f2a6020830184612d71565b9392505050565b6000602082019050612f466000830184612ef9565b92915050565b6000612f5782612dc7565b9050919050565b612f6781612f4c565b82525050565b6000602082019050612f826000830184612f5e565b92915050565b60008060408385031215612f9f57612f9e612c62565b5b6000612fad85828601612cb0565b9250506020612fbe85828601612cb0565b9150509250929050565b7f4e487b7100000000000000000000000000000000000000000000000000000000600052602260045260246000fd5b6000600282049050600182168061300f57607f821691505b6020821081141561302357613022612fc8565b5b50919050565b600061303482612c87565b9050919050565b61304481613029565b811461304f57600080fd5b50565b6000815190506130618161303b565b92915050565b60006020828403121561307d5761307c612c62565b5b600061308b84828501613052565b91505092915050565b6000815190506130a381612ccf565b92915050565b6000602082840312156130bf576130be612c62565b5b60006130cd84828501613094565b91505092915050565b7f4e487b7100000000000000000000000000000000000000000000000000000000600052601160045260246000fd5b600061311082612cc5565b915061311b83612cc5565b9250827fffffffffffffffffffffffffffffffffffffffffffffffffffffffffffffffff038211156131505761314f6130d6565b5b828201905092915050565b7f4f776e61626c653a2063616c6c6572206973206e6f7420746865206f776e6572600082015250565b6000613191602083612bb2565b915061319c8261315b565b602082019050919050565b600060208201905081810360008301526131c081613184565b9050919050565b6000815190506131d681612c99565b92915050565b6000602082840312156131f2576131f1612c62565b5b6000613200848285016131c7565b91505092915050565b7f50726f706f73616c206e6f742076616c696420666f722074686973205661756c60008201527f7400000000000000000000000000000000000000000000000000000000000000602082015250565b6000613265602183612bb2565b915061327082613209565b604082019050919050565b6000602082019050818103600083015261329481613258565b9050919050565b7f4f6e6c7920312074696d65000000000000000000000000000000000000000000600082015250565b60006132d1600b83612bb2565b91506132dc8261329b565b602082019050919050565b60006020820190508181036000830152613300816132c4565b9050919050565b7f45524332303a2064656372656173656420616c6c6f77616e63652062656c6f7760008201527f207a65726f000000000000000000000000000000000000000000000000000000602082015250565b6000613363602583612bb2565b915061336e82613307565b604082019050919050565b6000602082019050818103600083015261339281613356565b9050919050565b7f5265656e7472616e637947756172643a207265656e7472616e742063616c6c00600082015250565b60006133cf601f83612bb2565b91506133da82613399565b602082019050919050565b600060208201905081810360008301526133fe816133c2565b9050919050565b7f21746f6b656e0000000000000000000000000000000000000000000000000000600082015250565b600061343b600683612bb2565b915061344682613405565b602082019050919050565b6000602082019050818103600083015261346a8161342e565b9050919050565b7f5468657265206973206e6f2063616e6469646174650000000000000000000000600082015250565b60006134a7601583612bb2565b91506134b282613471565b602082019050919050565b600060208201905081810360008301526134d68161349a565b9050919050565b7f44656c617920686173206e6f7420706173736564000000000000000000000000600082015250565b6000613513601483612bb2565b915061351e826134dd565b602082019050919050565b6000602082019050818103600083015261354281613506565b9050919050565b7f4f776e61626c653a206e6577206f776e657220697320746865207a65726f206160008201527f6464726573730000000000000000000000000000000000000000000000000000602082015250565b60006135a5602683612bb2565b91506135b082613549565b604082019050919050565b600060208201905081810360008301526135d481613598565b9050919050565b7f45524332303a20617070726f76652066726f6d20746865207a65726f2061646460008201527f7265737300000000000000000000000000000000000000000000000000000000602082015250565b6000613637602483612bb2565b9150613642826135db565b604082019050919050565b600060208201905081810360008301526136668161362a565b9050919050565b7f45524332303a20617070726f766520746f20746865207a65726f20616464726560008201527f7373000000000000000000000000000000000000000000000000000000000000602082015250565b60006136c9602283612bb2565b91506136d48261366d565b604082019050919050565b600060208201905081810360008301526136f8816136bc565b9050919050565b7f45524332303a20696e73756666696369656e7420616c6c6f77616e6365000000600082015250565b6000613735601d83612bb2565b9150613740826136ff565b602082019050919050565b6000602082019050818103600083015261376481613728565b9050919050565b7f45524332303a207472616e736665722066726f6d20746865207a65726f20616460008201527f6472657373000000000000000000000000000000000000000000000000000000602082015250565b60006137c7602583612bb2565b91506137d28261376b565b604082019050919050565b600060208201905081810360008301526137f6816137ba565b9050919050565b7f45524332303a207472616e7366657220746f20746865207a65726f206164647260008201527f6573730000000000000000000000000000000000000000000000000000000000602082015250565b6000613859602383612bb2565b9150613864826137fd565b604082019050919050565b600060208201905081810360008301526138888161384c565b9050919050565b7f45524332303a207472616e7366657220616d6f756e742065786365656473206260008201527f616c616e63650000000000000000000000000000000000000000000000000000602082015250565b60006138eb602683612bb2565b91506138f68261388f565b604082019050919050565b6000602082019050818103600083015261391a816138de565b9050919050565b600061392c82612cc5565b915061393783612cc5565b9250817fffffffffffffffffffffffffffffffffffffffffffffffffffffffffffffffff04831182151516156139705761396f6130d6565b5b828202905092915050565b7f4e487b7100000000000000000000000000000000000000000000000000000000600052601260045260246000fd5b60006139b582612cc5565b91506139c083612cc5565b9250826139d0576139cf61397b565b5b828204905092915050565b7f45524332303a206275726e2066726f6d20746865207a65726f2061646472657360008201527f7300000000000000000000000000000000000000000000000000000000000000602082015250565b6000613a37602183612bb2565b9150613a42826139db565b604082019050919050565b60006020820190508181036000830152613a6681613a2a565b9050919050565b7f45524332303a206275726e20616d6f756e7420657863656564732062616c616e60008201527f6365000000000000000000000000000000000000000000000000000000000000602082015250565b6000613ac9602283612bb2565b9150613ad482613a6d565b604082019050919050565b60006020820190508181036000830152613af881613abc565b9050919050565b6000613b0a82612cc5565b9150613b1583612cc5565b925082821015613b2857613b276130d6565b5b828203905092915050565b6000606082019050613b486000830186612ef9565b613b556020830185612ef9565b613b626040830184612d71565b949350505050565b7f45524332303a206d696e7420746f20746865207a65726f206164647265737300600082015250565b6000613ba0601f83612bb2565b9150613bab82613b6a565b602082019050919050565b60006020820190508181036000830152613bcf81613b93565b9050919050565b60006040820190508181036000830152613bf08185612c07565b9050613bff6020830184612d71565b9392505050565b613c0f81612d3b565b8114613c1a57600080fd5b50565b600081519050613c2c81613c06565b92915050565b600060208284031215613c4857613c47612c62565b5b6000613c5684828501613c1d565b91505092915050565b7f5361666545524332303a204552433230206f7065726174696f6e20646964206e60008201527f6f74207375636365656400000000000000000000000000000000000000000000602082015250565b6000613cbb602a83612bb2565b9150613cc682613c5f565b604082019050919050565b60006020820190508181036000830152613cea81613cae565b9050919050565b7f416464726573733a20696e73756666696369656e742062616c616e636520666f60008201527f722063616c6c0000000000000000000000000000000000000000000000000000602082015250565b6000613d4d602683612bb2565b9150613d5882613cf1565b604082019050919050565b60006020820190508181036000830152613d7c81613d40565b9050919050565b7f416464726573733a2063616c6c20746f206e6f6e2d636f6e7472616374000000600082015250565b6000613db9601d83612bb2565b9150613dc482613d83565b602082019050919050565b60006020820190508181036000830152613de881613dac565b9050919050565b600081519050919050565b600081905092915050565b6000613e1082613def565b613e1a8185613dfa565b9350613e2a818560208601612bc3565b80840191505092915050565b6000613e428284613e05565b91508190509291505056fe737472617443616e6469646174652e70726f706f73656454696d652e61646428617070726f76616c44656c617929a26469706673582212203adb85627e5eb22127862b89d3aedb593506d599ccd9b30b9967386ece3b130564736f6c634300080b0033",
  "linkReferences": {},
  "deployedLinkReferences": {}
}