{
  "_format": "hh-sol-artifact-1",
  "contractName": "MAXI_Vault",
  "sourceName": "src/contracts/vaults/MAXI_Vault.sol",
  "abi": [
    {
      "inputs": [
        {
          "internalType": "string",
          "name": "_name",
          "type": "string"
        },
        {
          "internalType": "string",
          "name": "_symbol",
          "type": "string"
        },
        {
          "internalType": "uint256",
          "name": "_approvalDelay",
          "type": "uint256"
        }
      ],
      "stateMutability": "nonpayable",
      "type": "constructor"
    },
    {
      "anonymous": false,
      "inputs": [
        {
          "indexed": true,
          "internalType": "address",
          "name": "owner",
          "type": "address"
        },
        {
          "indexed": true,
          "internalType": "address",
          "name": "spender",
          "type": "address"
        },
        {
          "indexed": false,
          "internalType": "uint256",
          "name": "value",
          "type": "uint256"
        }
      ],
      "name": "Approval",
      "type": "event"
    },
    {
      "anonymous": false,
      "inputs": [
        {
          "indexed": false,
          "internalType": "address",
          "name": "implementation",
          "type": "address"
        }
      ],
      "name": "NewStratCandidate",
      "type": "event"
    },
    {
      "anonymous": false,
      "inputs": [
        {
          "indexed": true,
          "internalType": "address",
          "name": "previousOwner",
          "type": "address"
        },
        {
          "indexed": true,
          "internalType": "address",
          "name": "newOwner",
          "type": "address"
        }
      ],
      "name": "OwnershipTransferred",
      "type": "event"
    },
    {
      "anonymous": false,
      "inputs": [
        {
          "indexed": true,
          "internalType": "address",
          "name": "from",
          "type": "address"
        },
        {
          "indexed": true,
          "internalType": "address",
          "name": "to",
          "type": "address"
        },
        {
          "indexed": false,
          "internalType": "uint256",
          "name": "value",
          "type": "uint256"
        }
      ],
      "name": "Transfer",
      "type": "event"
    },
    {
      "anonymous": false,
      "inputs": [
        {
          "indexed": false,
          "internalType": "address",
          "name": "implementation",
          "type": "address"
        }
      ],
      "name": "UpgradeStrat",
      "type": "event"
    },
    {
      "inputs": [
        {
          "internalType": "address",
          "name": "owner",
          "type": "address"
        },
        {
          "internalType": "address",
          "name": "spender",
          "type": "address"
        }
      ],
      "name": "allowance",
      "outputs": [
        {
          "internalType": "uint256",
          "name": "",
          "type": "uint256"
        }
      ],
      "stateMutability": "view",
      "type": "function"
    },
    {
      "inputs": [],
      "name": "approvalDelay",
      "outputs": [
        {
          "internalType": "uint256",
          "name": "",
          "type": "uint256"
        }
      ],
      "stateMutability": "view",
      "type": "function"
    },
    {
      "inputs": [
        {
          "internalType": "address",
          "name": "spender",
          "type": "address"
        },
        {
          "internalType": "uint256",
          "name": "amount",
          "type": "uint256"
        }
      ],
      "name": "approve",
      "outputs": [
        {
          "internalType": "bool",
          "name": "",
          "type": "bool"
        }
      ],
      "stateMutability": "nonpayable",
      "type": "function"
    },
    {
      "inputs": [],
      "name": "available",
      "outputs": [
        {
          "internalType": "uint256",
          "name": "",
          "type": "uint256"
        }
      ],
      "stateMutability": "view",
      "type": "function"
    },
    {
      "inputs": [],
      "name": "balance",
      "outputs": [
        {
          "internalType": "uint256",
          "name": "",
          "type": "uint256"
        }
      ],
      "stateMutability": "view",
      "type": "function"
    },
    {
      "inputs": [
        {
          "internalType": "address",
          "name": "account",
          "type": "address"
        }
      ],
      "name": "balanceOf",
      "outputs": [
        {
          "internalType": "uint256",
          "name": "",
          "type": "uint256"
        }
      ],
      "stateMutability": "view",
      "type": "function"
    },
    {
      "inputs": [],
      "name": "decimals",
      "outputs": [
        {
          "internalType": "uint8",
          "name": "",
          "type": "uint8"
        }
      ],
      "stateMutability": "view",
      "type": "function"
    },
    {
      "inputs": [
        {
          "internalType": "address",
          "name": "spender",
          "type": "address"
        },
        {
          "internalType": "uint256",
          "name": "subtractedValue",
          "type": "uint256"
        }
      ],
      "name": "decreaseAllowance",
      "outputs": [
        {
          "internalType": "bool",
          "name": "",
          "type": "bool"
        }
      ],
      "stateMutability": "nonpayable",
      "type": "function"
    },
    {
      "inputs": [
        {
          "internalType": "uint256",
          "name": "_amount",
          "type": "uint256"
        }
      ],
      "name": "deposit",
      "outputs": [],
      "stateMutability": "nonpayable",
      "type": "function"
    },
    {
      "inputs": [],
      "name": "depositAll",
      "outputs": [],
      "stateMutability": "nonpayable",
      "type": "function"
    },
    {
      "inputs": [],
      "name": "earn",
      "outputs": [],
      "stateMutability": "nonpayable",
      "type": "function"
    },
    {
      "inputs": [],
      "name": "getPricePerFullShare",
      "outputs": [
        {
          "internalType": "uint256",
          "name": "",
          "type": "uint256"
        }
      ],
      "stateMutability": "view",
      "type": "function"
    },
    {
      "inputs": [
        {
          "internalType": "address",
          "name": "_token",
          "type": "address"
        }
      ],
      "name": "inCaseTokensGetStuck",
      "outputs": [],
      "stateMutability": "nonpayable",
      "type": "function"
    },
    {
      "inputs": [
        {
          "internalType": "address",
          "name": "spender",
          "type": "address"
        },
        {
          "internalType": "uint256",
          "name": "addedValue",
          "type": "uint256"
        }
      ],
      "name": "increaseAllowance",
      "outputs": [
        {
          "internalType": "bool",
          "name": "",
          "type": "bool"
        }
      ],
      "stateMutability": "nonpayable",
      "type": "function"
    },
    {
      "inputs": [],
      "name": "name",
      "outputs": [
        {
          "internalType": "string",
          "name": "",
          "type": "string"
        }
      ],
      "stateMutability": "view",
      "type": "function"
    },
    {
      "inputs": [],
      "name": "owner",
      "outputs": [
        {
          "internalType": "address",
          "name": "",
          "type": "address"
        }
      ],
      "stateMutability": "view",
      "type": "function"
    },
    {
      "inputs": [
        {
          "internalType": "address",
          "name": "_implementation",
          "type": "address"
        }
      ],
      "name": "proposeStrat",
      "outputs": [],
      "stateMutability": "nonpayable",
      "type": "function"
    },
    {
      "inputs": [],
      "name": "renounceOwnership",
      "outputs": [],
      "stateMutability": "nonpayable",
      "type": "function"
    },
    {
      "inputs": [],
      "name": "reward",
      "outputs": [
        {
          "internalType": "contract IERC20",
          "name": "",
          "type": "address"
        }
      ],
      "stateMutability": "view",
      "type": "function"
    },
    {
      "inputs": [
        {
          "internalType": "address",
          "name": "_strategy",
          "type": "address"
        }
      ],
      "name": "setDefaultStrategy",
      "outputs": [],
      "stateMutability": "nonpayable",
      "type": "function"
    },
    {
      "inputs": [],
      "name": "stratCandidate",
      "outputs": [
        {
          "internalType": "address",
          "name": "implementation",
          "type": "address"
        },
        {
          "internalType": "uint256",
          "name": "proposedTime",
          "type": "uint256"
        }
      ],
      "stateMutability": "view",
      "type": "function"
    },
    {
      "inputs": [],
      "name": "strategy",
      "outputs": [
        {
          "internalType": "contract IStrategy",
          "name": "",
          "type": "address"
        }
      ],
      "stateMutability": "view",
      "type": "function"
    },
    {
      "inputs": [],
      "name": "symbol",
      "outputs": [
        {
          "internalType": "string",
          "name": "",
          "type": "string"
        }
      ],
      "stateMutability": "view",
      "type": "function"
    },
    {
      "inputs": [],
      "name": "totalSupply",
      "outputs": [
        {
          "internalType": "uint256",
          "name": "",
          "type": "uint256"
        }
      ],
      "stateMutability": "view",
      "type": "function"
    },
    {
      "inputs": [
        {
          "internalType": "address",
          "name": "to",
          "type": "address"
        },
        {
          "internalType": "uint256",
          "name": "amount",
          "type": "uint256"
        }
      ],
      "name": "transfer",
      "outputs": [
        {
          "internalType": "bool",
          "name": "",
          "type": "bool"
        }
      ],
      "stateMutability": "nonpayable",
      "type": "function"
    },
    {
      "inputs": [
        {
          "internalType": "address",
          "name": "from",
          "type": "address"
        },
        {
          "internalType": "address",
          "name": "to",
          "type": "address"
        },
        {
          "internalType": "uint256",
          "name": "amount",
          "type": "uint256"
        }
      ],
      "name": "transferFrom",
      "outputs": [
        {
          "internalType": "bool",
          "name": "",
          "type": "bool"
        }
      ],
      "stateMutability": "nonpayable",
      "type": "function"
    },
    {
      "inputs": [
        {
          "internalType": "address",
          "name": "newOwner",
          "type": "address"
        }
      ],
      "name": "transferOwnership",
      "outputs": [],
      "stateMutability": "nonpayable",
      "type": "function"
    },
    {
      "inputs": [],
      "name": "upgradeStrat",
      "outputs": [],
      "stateMutability": "nonpayable",
      "type": "function"
    },
    {
      "inputs": [],
      "name": "want",
      "outputs": [
        {
          "internalType": "contract IERC20",
          "name": "",
          "type": "address"
        }
      ],
      "stateMutability": "view",
      "type": "function"
    },
    {
      "inputs": [
        {
          "internalType": "uint256",
          "name": "_shares",
          "type": "uint256"
        }
      ],
      "name": "withdraw",
      "outputs": [],
      "stateMutability": "nonpayable",
      "type": "function"
    },
    {
      "inputs": [],
      "name": "withdrawAll",
      "outputs": [],
      "stateMutability": "nonpayable",
      "type": "function"
    }
  ],
  "bytecode": "0x60a06040526000600760006101000a81548160ff0219169083151502179055503480156200002c57600080fd5b506040516200422f3803806200422f833981810160405281019062000052919062000417565b828281600390805190602001906200006c9291906200018f565b508060049080519060200190620000859291906200018f565b505050620000a86200009c620000c160201b60201c565b620000c960201b60201c565b6001600681905550806080818152505050505062000516565b600033905090565b6000600560009054906101000a900473ffffffffffffffffffffffffffffffffffffffff16905081600560006101000a81548173ffffffffffffffffffffffffffffffffffffffff021916908373ffffffffffffffffffffffffffffffffffffffff1602179055508173ffffffffffffffffffffffffffffffffffffffff168173ffffffffffffffffffffffffffffffffffffffff167f8be0079c531659141344cd1fd0a4f28419497f9722a3daafe3b4186f6b6457e060405160405180910390a35050565b8280546200019d90620004e0565b90600052602060002090601f016020900481019282620001c157600085556200020d565b82601f10620001dc57805160ff19168380011785556200020d565b828001600101855582156200020d579182015b828111156200020c578251825591602001919060010190620001ef565b5b5090506200021c919062000220565b5090565b5b808211156200023b57600081600090555060010162000221565b5090565b6000604051905090565b600080fd5b600080fd5b600080fd5b600080fd5b6000601f19601f8301169050919050565b7f4e487b7100000000000000000000000000000000000000000000000000000000600052604160045260246000fd5b620002a8826200025d565b810181811067ffffffffffffffff82111715620002ca57620002c96200026e565b5b80604052505050565b6000620002df6200023f565b9050620002ed82826200029d565b919050565b600067ffffffffffffffff82111562000310576200030f6200026e565b5b6200031b826200025d565b9050602081019050919050565b60005b83811015620003485780820151818401526020810190506200032b565b8381111562000358576000848401525b50505050565b6000620003756200036f84620002f2565b620002d3565b90508281526020810184848401111562000394576200039362000258565b5b620003a184828562000328565b509392505050565b600082601f830112620003c157620003c062000253565b5b8151620003d38482602086016200035e565b91505092915050565b6000819050919050565b620003f181620003dc565b8114620003fd57600080fd5b50565b6000815190506200041181620003e6565b92915050565b60008060006060848603121562000433576200043262000249565b5b600084015167ffffffffffffffff8111156200045457620004536200024e565b5b6200046286828701620003a9565b935050602084015167ffffffffffffffff8111156200048657620004856200024e565b5b6200049486828701620003a9565b9250506040620004a78682870162000400565b9150509250925092565b7f4e487b7100000000000000000000000000000000000000000000000000000000600052602260045260246000fd5b60006002820490506001821680620004f957607f821691505b6020821081141562000510576200050f620004b1565b5b50919050565b608051613cf662000539600039600081816119390152611a720152613cf66000f3fe608060405234801561001057600080fd5b50600436106101e55760003560e01c806377c7b8fc1161010f578063b6b55f25116100a2578063def68a9c11610071578063def68a9c1461053b578063e2d1e75c14610557578063e668524414610575578063f2fde38b1461057f576101e5565b8063b6b55f25146104db578063d389800f146104f7578063dd62ed3e14610501578063de5f626814610531576101e5565b8063a457c2d7116100de578063a457c2d71461043f578063a8c62e761461046f578063a9059cbb1461048d578063b69ef8a8146104bd576101e5565b806377c7b8fc146103db578063853828b6146103f95780638da5cb5b1461040357806395d89b4114610421576101e5565b8063313ce567116101875780635b12ff9b116101565780635b12ff9b1461036657806370a0823114610382578063715018a6146103b257806376dfabb8146103bc576101e5565b8063313ce567146102de57806339509351146102fc57806348a0d7541461032c57806357bee9441461034a576101e5565b80631f1fcd51116101c35780631f1fcd5114610256578063228cb7331461027457806323b872dd146102925780632e1a7d4d146102c2576101e5565b806306fdde03146101ea578063095ea7b31461020857806318160ddd14610238575b600080fd5b6101f261059b565b6040516101ff9190612ae3565b60405180910390f35b610222600480360381019061021d9190612b9e565b61062d565b60405161022f9190612bf9565b60405180910390f35b610240610650565b60405161024d9190612c23565b60405180910390f35b61025e61065a565b60405161026b9190612c9d565b60405180910390f35b61027c6106f2565b6040516102899190612c9d565b60405180910390f35b6102ac60048036038101906102a79190612cb8565b61078a565b6040516102b99190612bf9565b60405180910390f35b6102dc60048036038101906102d79190612d0b565b6107b9565b005b6102e6610a20565b6040516102f39190612d54565b60405180910390f35b61031660048036038101906103119190612b9e565b610a29565b6040516103239190612bf9565b60405180910390f35b610334610ad3565b6040516103419190612c23565b60405180910390f35b610364600480360381019061035f9190612d6f565b610b5b565b005b610380600480360381019061037b9190612d6f565b610d68565b005b61039c60048036038101906103979190612d6f565b610f7b565b6040516103a99190612c23565b60405180910390f35b6103ba610fc3565b005b6103c461104b565b6040516103d2929190612dab565b60405180910390f35b6103e361107d565b6040516103f09190612c23565b60405180910390f35b6104016110dc565b005b61040b6110ef565b6040516104189190612dd4565b60405180910390f35b610429611119565b6040516104369190612ae3565b60405180910390f35b61045960048036038101906104549190612b9e565b6111ab565b6040516104669190612bf9565b60405180910390f35b610477611295565b6040516104849190612e10565b60405180910390f35b6104a760048036038101906104a29190612b9e565b6112bb565b6040516104b49190612bf9565b60405180910390f35b6104c56112de565b6040516104d29190612c23565b60405180910390f35b6104f560048036038101906104f09190612d0b565b611408565b005b6104ff6115a1565b005b61051b60048036038101906105169190612e2b565b611686565b6040516105289190612c23565b60405180910390f35b61053961170d565b005b61055560048036038101906105509190612d6f565b611798565b005b61055f611937565b60405161056c9190612c23565b60405180910390f35b61057d61195b565b005b61059960048036038101906105949190612d6f565b611c87565b005b6060600380546105aa90612e9a565b80601f01602080910402602001604051908101604052809291908181526020018280546105d690612e9a565b80156106235780601f106105f857610100808354040283529160200191610623565b820191906000526020600020905b81548152906001019060200180831161060657829003601f168201915b5050505050905090565b600080610638611d7f565b9050610645818585611d87565b600191505092915050565b6000600254905090565b6000600a60009054906101000a900473ffffffffffffffffffffffffffffffffffffffff1673ffffffffffffffffffffffffffffffffffffffff16631f1fcd516040518163ffffffff1660e01b8152600401602060405180830381865afa1580156106c9573d6000803e3d6000fd5b505050506040513d601f19601f820116820180604052508101906106ed9190612f0a565b905090565b6000600a60009054906101000a900473ffffffffffffffffffffffffffffffffffffffff1673ffffffffffffffffffffffffffffffffffffffff1663228cb7336040518163ffffffff1660e01b8152600401602060405180830381865afa158015610761573d6000803e3d6000fd5b505050506040513d601f19601f820116820180604052508101906107859190612f0a565b905090565b600080610795611d7f565b90506107a2858285611f52565b6107ad858585611fde565b60019150509392505050565b60006107ee6107c6610650565b6107e0846107d26112de565b61225f90919063ffffffff16565b61227590919063ffffffff16565b90506107fa338361228b565b600061080461065a565b73ffffffffffffffffffffffffffffffffffffffff166370a08231306040518263ffffffff1660e01b815260040161083c9190612dd4565b602060405180830381865afa158015610859573d6000803e3d6000fd5b505050506040513d601f19601f8201168201806040525081019061087d9190612f4c565b9050818110156109e957600061089c828461246290919063ffffffff16565b9050600a60009054906101000a900473ffffffffffffffffffffffffffffffffffffffff1673ffffffffffffffffffffffffffffffffffffffff16632e1a7d4d826040518263ffffffff1660e01b81526004016108f99190612c23565b600060405180830381600087803b15801561091357600080fd5b505af1158015610927573d6000803e3d6000fd5b50505050600061093561065a565b73ffffffffffffffffffffffffffffffffffffffff166370a08231306040518263ffffffff1660e01b815260040161096d9190612dd4565b602060405180830381865afa15801561098a573d6000803e3d6000fd5b505050506040513d601f19601f820116820180604052508101906109ae9190612f4c565b905060006109c5848361246290919063ffffffff16565b9050828110156109e5576109e2818561247890919063ffffffff16565b94505b5050505b610a1b33836109f661065a565b73ffffffffffffffffffffffffffffffffffffffff1661248e9092919063ffffffff16565b505050565b60006012905090565b600080610a34611d7f565b9050610ac8818585600160008673ffffffffffffffffffffffffffffffffffffffff1673ffffffffffffffffffffffffffffffffffffffff16815260200190815260200160002060008973ffffffffffffffffffffffffffffffffffffffff1673ffffffffffffffffffffffffffffffffffffffff16815260200190815260200160002054610ac39190612fa8565b611d87565b600191505092915050565b6000610add61065a565b73ffffffffffffffffffffffffffffffffffffffff166370a08231306040518263ffffffff1660e01b8152600401610b159190612dd4565b602060405180830381865afa158015610b32573d6000803e3d6000fd5b505050506040513d601f19601f82011682018060405250810190610b569190612f4c565b905090565b610b63611d7f565b73ffffffffffffffffffffffffffffffffffffffff16610b816110ef565b73ffffffffffffffffffffffffffffffffffffffff1614610bd7576040517f08c379a0000000000000000000000000000000000000000000000000000000008152600401610bce9061304a565b60405180910390fd5b8073ffffffffffffffffffffffffffffffffffffffff1663fbfa77cf6040518163ffffffff1660e01b8152600401602060405180830381865afa158015610c22573d6000803e3d6000fd5b505050506040513d601f19601f82011682018060405250810190610c46919061307f565b73ffffffffffffffffffffffffffffffffffffffff163073ffffffffffffffffffffffffffffffffffffffff1614610cb3576040517f08c379a0000000000000000000000000000000000000000000000000000000008152600401610caa9061311e565b60405180910390fd5b60001515600760009054906101000a900460ff16151514610d09576040517f08c379a0000000000000000000000000000000000000000000000000000000008152600401610d009061318a565b60405180910390fd5b80600a60006101000a81548173ffffffffffffffffffffffffffffffffffffffff021916908373ffffffffffffffffffffffffffffffffffffffff1602179055506001600760006101000a81548160ff02191690831515021790555050565b610d70611d7f565b73ffffffffffffffffffffffffffffffffffffffff16610d8e6110ef565b73ffffffffffffffffffffffffffffffffffffffff1614610de4576040517f08c379a0000000000000000000000000000000000000000000000000000000008152600401610ddb9061304a565b60405180910390fd5b8073ffffffffffffffffffffffffffffffffffffffff1663fbfa77cf6040518163ffffffff1660e01b8152600401602060405180830381865afa158015610e2f573d6000803e3d6000fd5b505050506040513d601f19601f82011682018060405250810190610e53919061307f565b73ffffffffffffffffffffffffffffffffffffffff163073ffffffffffffffffffffffffffffffffffffffff1614610ec0576040517f08c379a0000000000000000000000000000000000000000000000000000000008152600401610eb79061311e565b60405180910390fd5b60405180604001604052808273ffffffffffffffffffffffffffffffffffffffff16815260200142815250600860008201518160000160006101000a81548173ffffffffffffffffffffffffffffffffffffffff021916908373ffffffffffffffffffffffffffffffffffffffff160217905550602082015181600101559050507f1aae2ec5647db56da2d513de40528ba3565c6057525637050660c4323bbac7df81604051610f709190612dd4565b60405180910390a150565b60008060008373ffffffffffffffffffffffffffffffffffffffff1673ffffffffffffffffffffffffffffffffffffffff168152602001908152602001600020549050919050565b610fcb611d7f565b73ffffffffffffffffffffffffffffffffffffffff16610fe96110ef565b73ffffffffffffffffffffffffffffffffffffffff161461103f576040517f08c379a00000000000000000000000000000000000000000000000000000000081526004016110369061304a565b60405180910390fd5b6110496000612514565b565b60088060000160009054906101000a900473ffffffffffffffffffffffffffffffffffffffff16908060010154905082565b600080611088610650565b146110cd576110c8611098610650565b6110ba670de0b6b3a76400006110ac6112de565b61225f90919063ffffffff16565b61227590919063ffffffff16565b6110d7565b670de0b6b3a76400005b905090565b6110ed6110e833610f7b565b6107b9565b565b6000600560009054906101000a900473ffffffffffffffffffffffffffffffffffffffff16905090565b60606004805461112890612e9a565b80601f016020809104026020016040519081016040528092919081815260200182805461115490612e9a565b80156111a15780601f10611176576101008083540402835291602001916111a1565b820191906000526020600020905b81548152906001019060200180831161118457829003601f168201915b5050505050905090565b6000806111b6611d7f565b90506000600160008373ffffffffffffffffffffffffffffffffffffffff1673ffffffffffffffffffffffffffffffffffffffff16815260200190815260200160002060008673ffffffffffffffffffffffffffffffffffffffff1673ffffffffffffffffffffffffffffffffffffffff1681526020019081526020016000205490508381101561127c576040517f08c379a00000000000000000000000000000000000000000000000000000000081526004016112739061321c565b60405180910390fd5b6112898286868403611d87565b60019250505092915050565b600a60009054906101000a900473ffffffffffffffffffffffffffffffffffffffff1681565b6000806112c6611d7f565b90506112d3818585611fde565b600191505092915050565b6000611403600a60009054906101000a900473ffffffffffffffffffffffffffffffffffffffff1673ffffffffffffffffffffffffffffffffffffffff1663722713f76040518163ffffffff1660e01b8152600401602060405180830381865afa158015611350573d6000803e3d6000fd5b505050506040513d601f19601f820116820180604052508101906113749190612f4c565b61137c61065a565b73ffffffffffffffffffffffffffffffffffffffff166370a08231306040518263ffffffff1660e01b81526004016113b49190612dd4565b602060405180830381865afa1580156113d1573d6000803e3d6000fd5b505050506040513d601f19601f820116820180604052508101906113f59190612f4c565b61247890919063ffffffff16565b905090565b6002600654141561144e576040517f08c379a000000000000000000000000000000000000000000000000000000000815260040161144590613288565b60405180910390fd5b6002600681905550600a60009054906101000a900473ffffffffffffffffffffffffffffffffffffffff1673ffffffffffffffffffffffffffffffffffffffff1663573fef0a6040518163ffffffff1660e01b8152600401600060405180830381600087803b1580156114c057600080fd5b505af11580156114d4573d6000803e3d6000fd5b5050505060006114e26112de565b90506115183330846114f261065a565b73ffffffffffffffffffffffffffffffffffffffff166125da909392919063ffffffff16565b6115206115a1565b600061152a6112de565b905061153f828261246290919063ffffffff16565b925060008061154c610650565b141561155a57839050611589565b61158683611578611569610650565b8761225f90919063ffffffff16565b61227590919063ffffffff16565b90505b6115933382612663565b505050600160068190555050565b60006115ab610ad3565b9050611601600a60009054906101000a900473ffffffffffffffffffffffffffffffffffffffff16826115dc61065a565b73ffffffffffffffffffffffffffffffffffffffff1661248e9092919063ffffffff16565b600a60009054906101000a900473ffffffffffffffffffffffffffffffffffffffff1673ffffffffffffffffffffffffffffffffffffffff1663d0e30db06040518163ffffffff1660e01b8152600401600060405180830381600087803b15801561166b57600080fd5b505af115801561167f573d6000803e3d6000fd5b5050505050565b6000600160008473ffffffffffffffffffffffffffffffffffffffff1673ffffffffffffffffffffffffffffffffffffffff16815260200190815260200160002060008373ffffffffffffffffffffffffffffffffffffffff1673ffffffffffffffffffffffffffffffffffffffff16815260200190815260200160002054905092915050565b61179661171861065a565b73ffffffffffffffffffffffffffffffffffffffff166370a08231336040518263ffffffff1660e01b81526004016117509190612dd4565b602060405180830381865afa15801561176d573d6000803e3d6000fd5b505050506040513d601f19601f820116820180604052508101906117919190612f4c565b611408565b565b6117a0611d7f565b73ffffffffffffffffffffffffffffffffffffffff166117be6110ef565b73ffffffffffffffffffffffffffffffffffffffff1614611814576040517f08c379a000000000000000000000000000000000000000000000000000000000815260040161180b9061304a565b60405180910390fd5b61181c61065a565b73ffffffffffffffffffffffffffffffffffffffff168173ffffffffffffffffffffffffffffffffffffffff16141561188a576040517f08c379a0000000000000000000000000000000000000000000000000000000008152600401611881906132f4565b60405180910390fd5b60008173ffffffffffffffffffffffffffffffffffffffff166370a08231306040518263ffffffff1660e01b81526004016118c59190612dd4565b602060405180830381865afa1580156118e2573d6000803e3d6000fd5b505050506040513d601f19601f820116820180604052508101906119069190612f4c565b905061193333828473ffffffffffffffffffffffffffffffffffffffff1661248e9092919063ffffffff16565b5050565b7f000000000000000000000000000000000000000000000000000000000000000081565b611963611d7f565b73ffffffffffffffffffffffffffffffffffffffff166119816110ef565b73ffffffffffffffffffffffffffffffffffffffff16146119d7576040517f08c379a00000000000000000000000000000000000000000000000000000000081526004016119ce9061304a565b60405180910390fd5b600073ffffffffffffffffffffffffffffffffffffffff16600860000160009054906101000a900473ffffffffffffffffffffffffffffffffffffffff1673ffffffffffffffffffffffffffffffffffffffff161415611a6c576040517f08c379a0000000000000000000000000000000000000000000000000000000008152600401611a6390613360565b60405180910390fd5b42611aa57f000000000000000000000000000000000000000000000000000000000000000060086001015461247890919063ffffffff16565b10611ae5576040517f08c379a0000000000000000000000000000000000000000000000000000000008152600401611adc906133cc565b60405180910390fd5b7f7f37d440e85aba7fbf641c4bda5ca4ef669a80bffaacde2aa8d9feb1b048c82c600860000160009054906101000a900473ffffffffffffffffffffffffffffffffffffffff16604051611b399190612dd4565b60405180910390a1600a60009054906101000a900473ffffffffffffffffffffffffffffffffffffffff1673ffffffffffffffffffffffffffffffffffffffff1663fb6177876040518163ffffffff1660e01b8152600401600060405180830381600087803b158015611bab57600080fd5b505af1158015611bbf573d6000803e3d6000fd5b50505050600860000160009054906101000a900473ffffffffffffffffffffffffffffffffffffffff16600a60006101000a81548173ffffffffffffffffffffffffffffffffffffffff021916908373ffffffffffffffffffffffffffffffffffffffff1602179055506000600860000160006101000a81548173ffffffffffffffffffffffffffffffffffffffff021916908373ffffffffffffffffffffffffffffffffffffffff16021790555064012a05f200600860010181905550611c856115a1565b565b611c8f611d7f565b73ffffffffffffffffffffffffffffffffffffffff16611cad6110ef565b73ffffffffffffffffffffffffffffffffffffffff1614611d03576040517f08c379a0000000000000000000000000000000000000000000000000000000008152600401611cfa9061304a565b60405180910390fd5b600073ffffffffffffffffffffffffffffffffffffffff168173ffffffffffffffffffffffffffffffffffffffff161415611d73576040517f08c379a0000000000000000000000000000000000000000000000000000000008152600401611d6a9061345e565b60405180910390fd5b611d7c81612514565b50565b600033905090565b600073ffffffffffffffffffffffffffffffffffffffff168373ffffffffffffffffffffffffffffffffffffffff161415611df7576040517f08c379a0000000000000000000000000000000000000000000000000000000008152600401611dee906134f0565b60405180910390fd5b600073ffffffffffffffffffffffffffffffffffffffff168273ffffffffffffffffffffffffffffffffffffffff161415611e67576040517f08c379a0000000000000000000000000000000000000000000000000000000008152600401611e5e90613582565b60405180910390fd5b80600160008573ffffffffffffffffffffffffffffffffffffffff1673ffffffffffffffffffffffffffffffffffffffff16815260200190815260200160002060008473ffffffffffffffffffffffffffffffffffffffff1673ffffffffffffffffffffffffffffffffffffffff168152602001908152602001600020819055508173ffffffffffffffffffffffffffffffffffffffff168373ffffffffffffffffffffffffffffffffffffffff167f8c5be1e5ebec7d5bd14f71427d1e84f3dd0314c0f7b2291e5b200ac8c7c3b92583604051611f459190612c23565b60405180910390a3505050565b6000611f5e8484611686565b90507fffffffffffffffffffffffffffffffffffffffffffffffffffffffffffffffff8114611fd85781811015611fca576040517f08c379a0000000000000000000000000000000000000000000000000000000008152600401611fc1906135ee565b60405180910390fd5b611fd78484848403611d87565b5b50505050565b600073ffffffffffffffffffffffffffffffffffffffff168373ffffffffffffffffffffffffffffffffffffffff16141561204e576040517f08c379a000000000000000000000000000000000000000000000000000000000815260040161204590613680565b60405180910390fd5b600073ffffffffffffffffffffffffffffffffffffffff168273ffffffffffffffffffffffffffffffffffffffff1614156120be576040517f08c379a00000000000000000000000000000000000000000000000000000000081526004016120b590613712565b60405180910390fd5b6120c98383836127c3565b60008060008573ffffffffffffffffffffffffffffffffffffffff1673ffffffffffffffffffffffffffffffffffffffff1681526020019081526020016000205490508181101561214f576040517f08c379a0000000000000000000000000000000000000000000000000000000008152600401612146906137a4565b60405180910390fd5b8181036000808673ffffffffffffffffffffffffffffffffffffffff1673ffffffffffffffffffffffffffffffffffffffff16815260200190815260200160002081905550816000808573ffffffffffffffffffffffffffffffffffffffff1673ffffffffffffffffffffffffffffffffffffffff16815260200190815260200160002060008282546121e29190612fa8565b925050819055508273ffffffffffffffffffffffffffffffffffffffff168473ffffffffffffffffffffffffffffffffffffffff167fddf252ad1be2c89b69c2b068fc378daa952ba7f163c4a11628f55a4df523b3ef846040516122469190612c23565b60405180910390a36122598484846127c8565b50505050565b6000818361226d91906137c4565b905092915050565b60008183612283919061384d565b905092915050565b600073ffffffffffffffffffffffffffffffffffffffff168273ffffffffffffffffffffffffffffffffffffffff1614156122fb576040517f08c379a00000000000000000000000000000000000000000000000000000000081526004016122f2906138f0565b60405180910390fd5b612307826000836127c3565b60008060008473ffffffffffffffffffffffffffffffffffffffff1673ffffffffffffffffffffffffffffffffffffffff1681526020019081526020016000205490508181101561238d576040517f08c379a000000000000000000000000000000000000000000000000000000000815260040161238490613982565b60405180910390fd5b8181036000808573ffffffffffffffffffffffffffffffffffffffff1673ffffffffffffffffffffffffffffffffffffffff1681526020019081526020016000208190555081600260008282546123e491906139a2565b92505081905550600073ffffffffffffffffffffffffffffffffffffffff168373ffffffffffffffffffffffffffffffffffffffff167fddf252ad1be2c89b69c2b068fc378daa952ba7f163c4a11628f55a4df523b3ef846040516124499190612c23565b60405180910390a361245d836000846127c8565b505050565b6000818361247091906139a2565b905092915050565b600081836124869190612fa8565b905092915050565b61250f8363a9059cbb60e01b84846040516024016124ad929190612dab565b604051602081830303815290604052907bffffffffffffffffffffffffffffffffffffffffffffffffffffffff19166020820180517bffffffffffffffffffffffffffffffffffffffffffffffffffffffff83818316178352505050506127cd565b505050565b6000600560009054906101000a900473ffffffffffffffffffffffffffffffffffffffff16905081600560006101000a81548173ffffffffffffffffffffffffffffffffffffffff021916908373ffffffffffffffffffffffffffffffffffffffff1602179055508173ffffffffffffffffffffffffffffffffffffffff168173ffffffffffffffffffffffffffffffffffffffff167f8be0079c531659141344cd1fd0a4f28419497f9722a3daafe3b4186f6b6457e060405160405180910390a35050565b61265d846323b872dd60e01b8585856040516024016125fb939291906139d6565b604051602081830303815290604052907bffffffffffffffffffffffffffffffffffffffffffffffffffffffff19166020820180517bffffffffffffffffffffffffffffffffffffffffffffffffffffffff83818316178352505050506127cd565b50505050565b600073ffffffffffffffffffffffffffffffffffffffff168273ffffffffffffffffffffffffffffffffffffffff1614156126d3576040517f08c379a00000000000000000000000000000000000000000000000000000000081526004016126ca90613a59565b60405180910390fd5b6126df600083836127c3565b80600260008282546126f19190612fa8565b92505081905550806000808473ffffffffffffffffffffffffffffffffffffffff1673ffffffffffffffffffffffffffffffffffffffff16815260200190815260200160002060008282546127469190612fa8565b925050819055508173ffffffffffffffffffffffffffffffffffffffff16600073ffffffffffffffffffffffffffffffffffffffff167fddf252ad1be2c89b69c2b068fc378daa952ba7f163c4a11628f55a4df523b3ef836040516127ab9190612c23565b60405180910390a36127bf600083836127c8565b5050565b505050565b505050565b600061282f826040518060400160405280602081526020017f5361666545524332303a206c6f772d6c6576656c2063616c6c206661696c65648152508573ffffffffffffffffffffffffffffffffffffffff166128949092919063ffffffff16565b905060008151111561288f578080602001905181019061284f9190613aa5565b61288e576040517f08c379a000000000000000000000000000000000000000000000000000000000815260040161288590613b44565b60405180910390fd5b5b505050565b60606128a384846000856128ac565b90509392505050565b6060824710156128f1576040517f08c379a00000000000000000000000000000000000000000000000000000000081526004016128e890613bd6565b60405180910390fd5b6128fa856129c0565b612939576040517f08c379a000000000000000000000000000000000000000000000000000000000815260040161293090613c42565b60405180910390fd5b6000808673ffffffffffffffffffffffffffffffffffffffff1685876040516129629190613ca9565b60006040518083038185875af1925050503d806000811461299f576040519150601f19603f3d011682016040523d82523d6000602084013e6129a4565b606091505b50915091506129b48282866129e3565b92505050949350505050565b6000808273ffffffffffffffffffffffffffffffffffffffff163b119050919050565b606083156129f357829050612a43565b600083511115612a065782518084602001fd5b816040517f08c379a0000000000000000000000000000000000000000000000000000000008152600401612a3a9190612ae3565b60405180910390fd5b9392505050565b600081519050919050565b600082825260208201905092915050565b60005b83811015612a84578082015181840152602081019050612a69565b83811115612a93576000848401525b50505050565b6000601f19601f8301169050919050565b6000612ab582612a4a565b612abf8185612a55565b9350612acf818560208601612a66565b612ad881612a99565b840191505092915050565b60006020820190508181036000830152612afd8184612aaa565b905092915050565b600080fd5b600073ffffffffffffffffffffffffffffffffffffffff82169050919050565b6000612b3582612b0a565b9050919050565b612b4581612b2a565b8114612b5057600080fd5b50565b600081359050612b6281612b3c565b92915050565b6000819050919050565b612b7b81612b68565b8114612b8657600080fd5b50565b600081359050612b9881612b72565b92915050565b60008060408385031215612bb557612bb4612b05565b5b6000612bc385828601612b53565b9250506020612bd485828601612b89565b9150509250929050565b60008115159050919050565b612bf381612bde565b82525050565b6000602082019050612c0e6000830184612bea565b92915050565b612c1d81612b68565b82525050565b6000602082019050612c386000830184612c14565b92915050565b6000819050919050565b6000612c63612c5e612c5984612b0a565b612c3e565b612b0a565b9050919050565b6000612c7582612c48565b9050919050565b6000612c8782612c6a565b9050919050565b612c9781612c7c565b82525050565b6000602082019050612cb26000830184612c8e565b92915050565b600080600060608486031215612cd157612cd0612b05565b5b6000612cdf86828701612b53565b9350506020612cf086828701612b53565b9250506040612d0186828701612b89565b9150509250925092565b600060208284031215612d2157612d20612b05565b5b6000612d2f84828501612b89565b91505092915050565b600060ff82169050919050565b612d4e81612d38565b82525050565b6000602082019050612d696000830184612d45565b92915050565b600060208284031215612d8557612d84612b05565b5b6000612d9384828501612b53565b91505092915050565b612da581612b2a565b82525050565b6000604082019050612dc06000830185612d9c565b612dcd6020830184612c14565b9392505050565b6000602082019050612de96000830184612d9c565b92915050565b6000612dfa82612c6a565b9050919050565b612e0a81612def565b82525050565b6000602082019050612e256000830184612e01565b92915050565b60008060408385031215612e4257612e41612b05565b5b6000612e5085828601612b53565b9250506020612e6185828601612b53565b9150509250929050565b7f4e487b7100000000000000000000000000000000000000000000000000000000600052602260045260246000fd5b60006002820490506001821680612eb257607f821691505b60208210811415612ec657612ec5612e6b565b5b50919050565b6000612ed782612b2a565b9050919050565b612ee781612ecc565b8114612ef257600080fd5b50565b600081519050612f0481612ede565b92915050565b600060208284031215612f2057612f1f612b05565b5b6000612f2e84828501612ef5565b91505092915050565b600081519050612f4681612b72565b92915050565b600060208284031215612f6257612f61612b05565b5b6000612f7084828501612f37565b91505092915050565b7f4e487b7100000000000000000000000000000000000000000000000000000000600052601160045260246000fd5b6000612fb382612b68565b9150612fbe83612b68565b9250827fffffffffffffffffffffffffffffffffffffffffffffffffffffffffffffffff03821115612ff357612ff2612f79565b5b828201905092915050565b7f4f776e61626c653a2063616c6c6572206973206e6f7420746865206f776e6572600082015250565b6000613034602083612a55565b915061303f82612ffe565b602082019050919050565b6000602082019050818103600083015261306381613027565b9050919050565b60008151905061307981612b3c565b92915050565b60006020828403121561309557613094612b05565b5b60006130a38482850161306a565b91505092915050565b7f50726f706f73616c206e6f742076616c696420666f722074686973205661756c60008201527f7400000000000000000000000000000000000000000000000000000000000000602082015250565b6000613108602183612a55565b9150613113826130ac565b604082019050919050565b60006020820190508181036000830152613137816130fb565b9050919050565b7f4f6e6c7920312074696d65000000000000000000000000000000000000000000600082015250565b6000613174600b83612a55565b915061317f8261313e565b602082019050919050565b600060208201905081810360008301526131a381613167565b9050919050565b7f45524332303a2064656372656173656420616c6c6f77616e63652062656c6f7760008201527f207a65726f000000000000000000000000000000000000000000000000000000602082015250565b6000613206602583612a55565b9150613211826131aa565b604082019050919050565b60006020820190508181036000830152613235816131f9565b9050919050565b7f5265656e7472616e637947756172643a207265656e7472616e742063616c6c00600082015250565b6000613272601f83612a55565b915061327d8261323c565b602082019050919050565b600060208201905081810360008301526132a181613265565b9050919050565b7f21746f6b656e0000000000000000000000000000000000000000000000000000600082015250565b60006132de600683612a55565b91506132e9826132a8565b602082019050919050565b6000602082019050818103600083015261330d816132d1565b9050919050565b7f5468657265206973206e6f2063616e6469646174650000000000000000000000600082015250565b600061334a601583612a55565b915061335582613314565b602082019050919050565b600060208201905081810360008301526133798161333d565b9050919050565b7f44656c617920686173206e6f7420706173736564000000000000000000000000600082015250565b60006133b6601483612a55565b91506133c182613380565b602082019050919050565b600060208201905081810360008301526133e5816133a9565b9050919050565b7f4f776e61626c653a206e6577206f776e657220697320746865207a65726f206160008201527f6464726573730000000000000000000000000000000000000000000000000000602082015250565b6000613448602683612a55565b9150613453826133ec565b604082019050919050565b600060208201905081810360008301526134778161343b565b9050919050565b7f45524332303a20617070726f76652066726f6d20746865207a65726f2061646460008201527f7265737300000000000000000000000000000000000000000000000000000000602082015250565b60006134da602483612a55565b91506134e58261347e565b604082019050919050565b60006020820190508181036000830152613509816134cd565b9050919050565b7f45524332303a20617070726f766520746f20746865207a65726f20616464726560008201527f7373000000000000000000000000000000000000000000000000000000000000602082015250565b600061356c602283612a55565b915061357782613510565b604082019050919050565b6000602082019050818103600083015261359b8161355f565b9050919050565b7f45524332303a20696e73756666696369656e7420616c6c6f77616e6365000000600082015250565b60006135d8601d83612a55565b91506135e3826135a2565b602082019050919050565b60006020820190508181036000830152613607816135cb565b9050919050565b7f45524332303a207472616e736665722066726f6d20746865207a65726f20616460008201527f6472657373000000000000000000000000000000000000000000000000000000602082015250565b600061366a602583612a55565b91506136758261360e565b604082019050919050565b600060208201905081810360008301526136998161365d565b9050919050565b7f45524332303a207472616e7366657220746f20746865207a65726f206164647260008201527f6573730000000000000000000000000000000000000000000000000000000000602082015250565b60006136fc602383612a55565b9150613707826136a0565b604082019050919050565b6000602082019050818103600083015261372b816136ef565b9050919050565b7f45524332303a207472616e7366657220616d6f756e742065786365656473206260008201527f616c616e63650000000000000000000000000000000000000000000000000000602082015250565b600061378e602683612a55565b915061379982613732565b604082019050919050565b600060208201905081810360008301526137bd81613781565b9050919050565b60006137cf82612b68565b91506137da83612b68565b9250817fffffffffffffffffffffffffffffffffffffffffffffffffffffffffffffffff048311821515161561381357613812612f79565b5b828202905092915050565b7f4e487b7100000000000000000000000000000000000000000000000000000000600052601260045260246000fd5b600061385882612b68565b915061386383612b68565b9250826138735761387261381e565b5b828204905092915050565b7f45524332303a206275726e2066726f6d20746865207a65726f2061646472657360008201527f7300000000000000000000000000000000000000000000000000000000000000602082015250565b60006138da602183612a55565b91506138e58261387e565b604082019050919050565b60006020820190508181036000830152613909816138cd565b9050919050565b7f45524332303a206275726e20616d6f756e7420657863656564732062616c616e60008201527f6365000000000000000000000000000000000000000000000000000000000000602082015250565b600061396c602283612a55565b915061397782613910565b604082019050919050565b6000602082019050818103600083015261399b8161395f565b9050919050565b60006139ad82612b68565b91506139b883612b68565b9250828210156139cb576139ca612f79565b5b828203905092915050565b60006060820190506139eb6000830186612d9c565b6139f86020830185612d9c565b613a056040830184612c14565b949350505050565b7f45524332303a206d696e7420746f20746865207a65726f206164647265737300600082015250565b6000613a43601f83612a55565b9150613a4e82613a0d565b602082019050919050565b60006020820190508181036000830152613a7281613a36565b9050919050565b613a8281612bde565b8114613a8d57600080fd5b50565b600081519050613a9f81613a79565b92915050565b600060208284031215613abb57613aba612b05565b5b6000613ac984828501613a90565b91505092915050565b7f5361666545524332303a204552433230206f7065726174696f6e20646964206e60008201527f6f74207375636365656400000000000000000000000000000000000000000000602082015250565b6000613b2e602a83612a55565b9150613b3982613ad2565b604082019050919050565b60006020820190508181036000830152613b5d81613b21565b9050919050565b7f416464726573733a20696e73756666696369656e742062616c616e636520666f60008201527f722063616c6c0000000000000000000000000000000000000000000000000000602082015250565b6000613bc0602683612a55565b9150613bcb82613b64565b604082019050919050565b60006020820190508181036000830152613bef81613bb3565b9050919050565b7f416464726573733a2063616c6c20746f206e6f6e2d636f6e7472616374000000600082015250565b6000613c2c601d83612a55565b9150613c3782613bf6565b602082019050919050565b60006020820190508181036000830152613c5b81613c1f565b9050919050565b600081519050919050565b600081905092915050565b6000613c8382613c62565b613c8d8185613c6d565b9350613c9d818560208601612a66565b80840191505092915050565b6000613cb58284613c78565b91508190509291505056fea2646970667358221220fe20690bd1f67fba97a280e8c3f64ca37064fbb3bfa89c6b5dc9f9c9c600dce564736f6c634300080b0033",
  "linkReferences": {},
  "deployedLinkReferences": {}
}