{
  "contractName": "Multicall",
  "abi": [
    {
      "inputs": [
        {
          "components": [
            {
              "internalType": "address",
              "name": "target",
              "type": "address"
            },
            {
              "internalType": "bytes",
              "name": "callData",
              "type": "bytes"
            }
          ],
          "internalType": "struct Multicall.Call[]",
          "name": "calls",
          "type": "tuple[]"
        },
        {
          "internalType": "bool",
          "name": "strict",
          "type": "bool"
        }
      ],
      "name": "aggregate",
      "outputs": [
        {
          "internalType": "uint256",
          "name": "blockNumber",
          "type": "uint256"
        },
        {
          "components": [
            {
              "internalType": "bool",
              "name": "success",
              "type": "bool"
            },
            {
              "internalType": "bytes",
              "name": "data",
              "type": "bytes"
            }
          ],
          "internalType": "struct Multicall.Return[]",
          "name": "returnData",
          "type": "tuple[]"
        }
      ],
      "stateMutability": "nonpayable",
      "type": "function"
    },
    {
      "inputs": [
        {
          "internalType": "address",
          "name": "addr",
          "type": "address"
        }
      ],
      "name": "getEthBalance",
      "outputs": [
        {
          "internalType": "uint256",
          "name": "balance",
          "type": "uint256"
        }
      ],
      "stateMutability": "view",
      "type": "function",
      "constant": true
    },
    {
      "inputs": [
        {
          "internalType": "uint256",
          "name": "blockNumber",
          "type": "uint256"
        }
      ],
      "name": "getBlockHash",
      "outputs": [
        {
          "internalType": "bytes32",
          "name": "blockHash",
          "type": "bytes32"
        }
      ],
      "stateMutability": "view",
      "type": "function",
      "constant": true
    },
    {
      "inputs": [],
      "name": "getLastBlockHash",
      "outputs": [
        {
          "internalType": "bytes32",
          "name": "blockHash",
          "type": "bytes32"
        }
      ],
      "stateMutability": "view",
      "type": "function",
      "constant": true
    },
    {
      "inputs": [],
      "name": "getCurrentBlockTimestamp",
      "outputs": [
        {
          "internalType": "uint256",
          "name": "timestamp",
          "type": "uint256"
        }
      ],
      "stateMutability": "view",
      "type": "function",
      "constant": true
    },
    {
      "inputs": [],
      "name": "getCurrentBlockDifficulty",
      "outputs": [
        {
          "internalType": "uint256",
          "name": "difficulty",
          "type": "uint256"
        }
      ],
      "stateMutability": "view",
      "type": "function",
      "constant": true
    },
    {
      "inputs": [],
      "name": "getCurrentBlockGasLimit",
      "outputs": [
        {
          "internalType": "uint256",
          "name": "gaslimit",
          "type": "uint256"
        }
      ],
      "stateMutability": "view",
      "type": "function",
      "constant": true
    },
    {
      "inputs": [],
      "name": "getCurrentBlockCoinbase",
      "outputs": [
        {
          "internalType": "address",
          "name": "coinbase",
          "type": "address"
        }
      ],
      "stateMutability": "view",
      "type": "function",
      "constant": true
    }
  ],
  "bytecode": "0x608060405234801561001057600080fd5b50610b93806100206000396000f3fe608060405234801561001057600080fd5b50600436106100885760003560e01c806372425d9d1161005b57806372425d9d1461012a57806386d516e814610148578063a8b0574e14610166578063ee82ac5e1461018457610088565b80630f28c97d1461008d57806317352e13146100ab57806327e86d6e146100dc5780634d2301cc146100fa575b600080fd5b6100956101b4565b6040516100a291906103c2565b60405180910390f35b6100c560048036038101906100c09190610729565b6101bc565b6040516100d392919061091b565b60405180910390f35b6100e4610334565b6040516100f19190610964565b60405180910390f35b610114600480360381019061010f919061097f565b610349565b60405161012191906103c2565b60405180910390f35b61013261036a565b60405161013f91906103c2565b60405180910390f35b610150610372565b60405161015d91906103c2565b60405180910390f35b61016e61037a565b60405161017b91906109bb565b60405180910390f35b61019e60048036038101906101999190610a02565b610382565b6040516101ab9190610964565b60405180910390f35b600042905090565b60006060439150835167ffffffffffffffff8111156101de576101dd610407565b5b60405190808252806020026020018201604052801561021757816020015b61020461038d565b8152602001906001900390816101fc5790505b50905060005b845181101561032c5760008086838151811061023c5761023b610a2f565b5b60200260200101516000015173ffffffffffffffffffffffffffffffffffffffff1687848151811061027157610270610a2f565b5b60200260200101516020015160405161028a9190610a9a565b6000604051808303816000865af19150503d80600081146102c7576040519150601f19603f3d011682016040523d82523d6000602084013e6102cc565b606091505b509150915085156102e257816102e157600080fd5b5b604051806040016040528083151581526020018281525084848151811061030c5761030b610a2f565b5b60200260200101819052505050808061032490610ae0565b91505061021d565b509250929050565b60006001436103439190610b29565b40905090565b60008173ffffffffffffffffffffffffffffffffffffffff16319050919050565b600044905090565b600045905090565b600041905090565b600081409050919050565b6040518060400160405280600015158152602001606081525090565b6000819050919050565b6103bc816103a9565b82525050565b60006020820190506103d760008301846103b3565b92915050565b6000604051905090565b600080fd5b600080fd5b600080fd5b6000601f19601f8301169050919050565b7f4e487b7100000000000000000000000000000000000000000000000000000000600052604160045260246000fd5b61043f826103f6565b810181811067ffffffffffffffff8211171561045e5761045d610407565b5b80604052505050565b60006104716103dd565b905061047d8282610436565b919050565b600067ffffffffffffffff82111561049d5761049c610407565b5b602082029050602081019050919050565b600080fd5b600080fd5b600080fd5b600073ffffffffffffffffffffffffffffffffffffffff82169050919050565b60006104e8826104bd565b9050919050565b6104f8816104dd565b811461050357600080fd5b50565b600081359050610515816104ef565b92915050565b600080fd5b600067ffffffffffffffff82111561053b5761053a610407565b5b610544826103f6565b9050602081019050919050565b82818337600083830152505050565b600061057361056e84610520565b610467565b90508281526020810184848401111561058f5761058e61051b565b5b61059a848285610551565b509392505050565b600082601f8301126105b7576105b66103f1565b5b81356105c7848260208601610560565b91505092915050565b6000604082840312156105e6576105e56104b3565b5b6105f06040610467565b9050600061060084828501610506565b600083015250602082013567ffffffffffffffff811115610624576106236104b8565b5b610630848285016105a2565b60208301525092915050565b600061064f61064a84610482565b610467565b90508083825260208201905060208402830185811115610672576106716104ae565b5b835b818110156106b957803567ffffffffffffffff811115610697576106966103f1565b5b8086016106a489826105d0565b85526020850194505050602081019050610674565b5050509392505050565b600082601f8301126106d8576106d76103f1565b5b81356106e884826020860161063c565b91505092915050565b60008115159050919050565b610706816106f1565b811461071157600080fd5b50565b600081359050610723816106fd565b92915050565b600080604083850312156107405761073f6103e7565b5b600083013567ffffffffffffffff81111561075e5761075d6103ec565b5b61076a858286016106c3565b925050602061077b85828601610714565b9150509250929050565b600081519050919050565b600082825260208201905092915050565b6000819050602082019050919050565b6107ba816106f1565b82525050565b600081519050919050565b600082825260208201905092915050565b60005b838110156107fa5780820151818401526020810190506107df565b83811115610809576000848401525b50505050565b600061081a826107c0565b61082481856107cb565b93506108348185602086016107dc565b61083d816103f6565b840191505092915050565b600060408301600083015161086060008601826107b1565b5060208301518482036020860152610878828261080f565b9150508091505092915050565b60006108918383610848565b905092915050565b6000602082019050919050565b60006108b182610785565b6108bb8185610790565b9350836020820285016108cd856107a1565b8060005b8581101561090957848403895281516108ea8582610885565b94506108f583610899565b925060208a019950506001810190506108d1565b50829750879550505050505092915050565b600060408201905061093060008301856103b3565b818103602083015261094281846108a6565b90509392505050565b6000819050919050565b61095e8161094b565b82525050565b60006020820190506109796000830184610955565b92915050565b600060208284031215610995576109946103e7565b5b60006109a384828501610506565b91505092915050565b6109b5816104dd565b82525050565b60006020820190506109d060008301846109ac565b92915050565b6109df816103a9565b81146109ea57600080fd5b50565b6000813590506109fc816109d6565b92915050565b600060208284031215610a1857610a176103e7565b5b6000610a26848285016109ed565b91505092915050565b7f4e487b7100000000000000000000000000000000000000000000000000000000600052603260045260246000fd5b600081905092915050565b6000610a74826107c0565b610a7e8185610a5e565b9350610a8e8185602086016107dc565b80840191505092915050565b6000610aa68284610a69565b915081905092915050565b7f4e487b7100000000000000000000000000000000000000000000000000000000600052601160045260246000fd5b6000610aeb826103a9565b91507fffffffffffffffffffffffffffffffffffffffffffffffffffffffffffffffff821415610b1e57610b1d610ab1565b5b600182019050919050565b6000610b34826103a9565b9150610b3f836103a9565b925082821015610b5257610b51610ab1565b5b82820390509291505056fea2646970667358221220cedeec9aa93d775958e7e0ea459042159a2b3b1f238c58692162414cd54ef84764736f6c634300080b0033",
  "immutableReferences": {},
  "source": "// SPDX-License-Identifier: MIT\n\npragma solidity >=0.7.0;\npragma experimental ABIEncoderV2;\n\ncontract Multicall {\n    struct Call {\n        address target;\n        bytes callData;\n    }\n    struct Return {\n      bool success;\n      bytes data;\n\n    }\n    function aggregate(Call[] memory calls, bool strict) public returns (uint256 blockNumber, Return[] memory returnData) {\n        blockNumber = block.number;\n        returnData = new Return[](calls.length);\n        for(uint256 i = 0; i < calls.length; i++) {\n            (bool success, bytes memory ret) = calls[i].target.call(calls[i].callData);\n            if (strict) {\n              require(success);\n            }\n            returnData[i] = Return(success, ret);\n        }\n    }\n    // Helper functions\n    function getEthBalance(address addr) public view returns (uint256 balance) {\n        balance = addr.balance;\n    }\n    function getBlockHash(uint256 blockNumber) public view returns (bytes32 blockHash) {\n        blockHash = blockhash(blockNumber);\n    }\n    function getLastBlockHash() public view returns (bytes32 blockHash) {\n        blockHash = blockhash(block.number - 1);\n    }\n    function getCurrentBlockTimestamp() public view returns (uint256 timestamp) {\n        timestamp = block.timestamp;\n    }\n    function getCurrentBlockDifficulty() public view returns (uint256 difficulty) {\n        difficulty = block.difficulty;\n    }\n    function getCurrentBlockGasLimit() public view returns (uint256 gaslimit) {\n        gaslimit = block.gaslimit;\n    }\n    function getCurrentBlockCoinbase() public view returns (address coinbase) {\n        coinbase = block.coinbase;\n    }\n}",
  "sourcePath": "/home/trakers/Documents/crypto/poolify-official/contracts/src/contracts/protocol/Multicall.sol",
  "compiler": {
    "name": "solc",
    "version": "0.8.11+commit.d7f03943.Emscripten.clang"
  },
  "schemaVersion": "3.4.4",
  "updatedAt": "2022-03-09T22:47:05.023Z",
  "networkType": "ethereum",
  "devdoc": {
    "kind": "dev",
    "methods": {},
    "version": 1
  },
  "userdoc": {
    "kind": "user",
    "methods": {},
    "version": 1
  }
}