{
  "contractName": "PLFYToken",
  "abi": [
    {
      "inputs": [],
      "stateMutability": "nonpayable",
      "type": "constructor"
    },
    {
      "anonymous": false,
      "inputs": [
        {
          "indexed": true,
          "internalType": "address",
          "name": "owner",
          "type": "address"
        },
        {
          "indexed": true,
          "internalType": "address",
          "name": "spender",
          "type": "address"
        },
        {
          "indexed": false,
          "internalType": "uint256",
          "name": "value",
          "type": "uint256"
        }
      ],
      "name": "Approval",
      "type": "event"
    },
    {
      "anonymous": false,
      "inputs": [
        {
          "indexed": true,
          "internalType": "address",
          "name": "delegator",
          "type": "address"
        },
        {
          "indexed": true,
          "internalType": "address",
          "name": "fromDelegate",
          "type": "address"
        },
        {
          "indexed": true,
          "internalType": "address",
          "name": "toDelegate",
          "type": "address"
        }
      ],
      "name": "DelegateChanged",
      "type": "event"
    },
    {
      "anonymous": false,
      "inputs": [
        {
          "indexed": true,
          "internalType": "address",
          "name": "delegate",
          "type": "address"
        },
        {
          "indexed": false,
          "internalType": "uint256",
          "name": "previousBalance",
          "type": "uint256"
        },
        {
          "indexed": false,
          "internalType": "uint256",
          "name": "newBalance",
          "type": "uint256"
        }
      ],
      "name": "DelegateVotesChanged",
      "type": "event"
    },
    {
      "anonymous": false,
      "inputs": [
        {
          "indexed": false,
          "internalType": "address",
          "name": "account",
          "type": "address"
        }
      ],
      "name": "Paused",
      "type": "event"
    },
    {
      "anonymous": false,
      "inputs": [
        {
          "indexed": true,
          "internalType": "bytes32",
          "name": "role",
          "type": "bytes32"
        },
        {
          "indexed": true,
          "internalType": "bytes32",
          "name": "previousAdminRole",
          "type": "bytes32"
        },
        {
          "indexed": true,
          "internalType": "bytes32",
          "name": "newAdminRole",
          "type": "bytes32"
        }
      ],
      "name": "RoleAdminChanged",
      "type": "event"
    },
    {
      "anonymous": false,
      "inputs": [
        {
          "indexed": true,
          "internalType": "bytes32",
          "name": "role",
          "type": "bytes32"
        },
        {
          "indexed": true,
          "internalType": "address",
          "name": "account",
          "type": "address"
        },
        {
          "indexed": true,
          "internalType": "address",
          "name": "sender",
          "type": "address"
        }
      ],
      "name": "RoleGranted",
      "type": "event"
    },
    {
      "anonymous": false,
      "inputs": [
        {
          "indexed": true,
          "internalType": "bytes32",
          "name": "role",
          "type": "bytes32"
        },
        {
          "indexed": true,
          "internalType": "address",
          "name": "account",
          "type": "address"
        },
        {
          "indexed": true,
          "internalType": "address",
          "name": "sender",
          "type": "address"
        }
      ],
      "name": "RoleRevoked",
      "type": "event"
    },
    {
      "anonymous": false,
      "inputs": [
        {
          "indexed": true,
          "internalType": "address",
          "name": "from",
          "type": "address"
        },
        {
          "indexed": true,
          "internalType": "address",
          "name": "to",
          "type": "address"
        },
        {
          "indexed": false,
          "internalType": "uint256",
          "name": "value",
          "type": "uint256"
        }
      ],
      "name": "Transfer",
      "type": "event"
    },
    {
      "anonymous": false,
      "inputs": [
        {
          "indexed": false,
          "internalType": "address",
          "name": "account",
          "type": "address"
        }
      ],
      "name": "Unpaused",
      "type": "event"
    },
    {
      "inputs": [],
      "name": "DEFAULT_ADMIN_ROLE",
      "outputs": [
        {
          "internalType": "bytes32",
          "name": "",
          "type": "bytes32"
        }
      ],
      "stateMutability": "view",
      "type": "function",
      "constant": true
    },
    {
      "inputs": [],
      "name": "DOMAIN_SEPARATOR",
      "outputs": [
        {
          "internalType": "bytes32",
          "name": "",
          "type": "bytes32"
        }
      ],
      "stateMutability": "view",
      "type": "function",
      "constant": true
    },
    {
      "inputs": [],
      "name": "MINTER_ROLE",
      "outputs": [
        {
          "internalType": "bytes32",
          "name": "",
          "type": "bytes32"
        }
      ],
      "stateMutability": "view",
      "type": "function",
      "constant": true
    },
    {
      "inputs": [],
      "name": "PAUSER_ROLE",
      "outputs": [
        {
          "internalType": "bytes32",
          "name": "",
          "type": "bytes32"
        }
      ],
      "stateMutability": "view",
      "type": "function",
      "constant": true
    },
    {
      "inputs": [
        {
          "internalType": "address",
          "name": "owner",
          "type": "address"
        },
        {
          "internalType": "address",
          "name": "spender",
          "type": "address"
        }
      ],
      "name": "allowance",
      "outputs": [
        {
          "internalType": "uint256",
          "name": "",
          "type": "uint256"
        }
      ],
      "stateMutability": "view",
      "type": "function",
      "constant": true
    },
    {
      "inputs": [
        {
          "internalType": "address",
          "name": "spender",
          "type": "address"
        },
        {
          "internalType": "uint256",
          "name": "amount",
          "type": "uint256"
        }
      ],
      "name": "approve",
      "outputs": [
        {
          "internalType": "bool",
          "name": "",
          "type": "bool"
        }
      ],
      "stateMutability": "nonpayable",
      "type": "function"
    },
    {
      "inputs": [
        {
          "internalType": "address",
          "name": "account",
          "type": "address"
        }
      ],
      "name": "balanceOf",
      "outputs": [
        {
          "internalType": "uint256",
          "name": "",
          "type": "uint256"
        }
      ],
      "stateMutability": "view",
      "type": "function",
      "constant": true
    },
    {
      "inputs": [
        {
          "internalType": "uint256",
          "name": "amount",
          "type": "uint256"
        }
      ],
      "name": "burn",
      "outputs": [],
      "stateMutability": "nonpayable",
      "type": "function"
    },
    {
      "inputs": [
        {
          "internalType": "address",
          "name": "account",
          "type": "address"
        },
        {
          "internalType": "uint256",
          "name": "amount",
          "type": "uint256"
        }
      ],
      "name": "burnFrom",
      "outputs": [],
      "stateMutability": "nonpayable",
      "type": "function"
    },
    {
      "inputs": [
        {
          "internalType": "address",
          "name": "account",
          "type": "address"
        },
        {
          "internalType": "uint32",
          "name": "pos",
          "type": "uint32"
        }
      ],
      "name": "checkpoints",
      "outputs": [
        {
          "components": [
            {
              "internalType": "uint32",
              "name": "fromBlock",
              "type": "uint32"
            },
            {
              "internalType": "uint224",
              "name": "votes",
              "type": "uint224"
            }
          ],
          "internalType": "struct ERC20Votes.Checkpoint",
          "name": "",
          "type": "tuple"
        }
      ],
      "stateMutability": "view",
      "type": "function",
      "constant": true
    },
    {
      "inputs": [],
      "name": "decimals",
      "outputs": [
        {
          "internalType": "uint8",
          "name": "",
          "type": "uint8"
        }
      ],
      "stateMutability": "view",
      "type": "function",
      "constant": true
    },
    {
      "inputs": [
        {
          "internalType": "address",
          "name": "spender",
          "type": "address"
        },
        {
          "internalType": "uint256",
          "name": "subtractedValue",
          "type": "uint256"
        }
      ],
      "name": "decreaseAllowance",
      "outputs": [
        {
          "internalType": "bool",
          "name": "",
          "type": "bool"
        }
      ],
      "stateMutability": "nonpayable",
      "type": "function"
    },
    {
      "inputs": [
        {
          "internalType": "address",
          "name": "delegatee",
          "type": "address"
        }
      ],
      "name": "delegate",
      "outputs": [],
      "stateMutability": "nonpayable",
      "type": "function"
    },
    {
      "inputs": [
        {
          "internalType": "address",
          "name": "delegatee",
          "type": "address"
        },
        {
          "internalType": "uint256",
          "name": "nonce",
          "type": "uint256"
        },
        {
          "internalType": "uint256",
          "name": "expiry",
          "type": "uint256"
        },
        {
          "internalType": "uint8",
          "name": "v",
          "type": "uint8"
        },
        {
          "internalType": "bytes32",
          "name": "r",
          "type": "bytes32"
        },
        {
          "internalType": "bytes32",
          "name": "s",
          "type": "bytes32"
        }
      ],
      "name": "delegateBySig",
      "outputs": [],
      "stateMutability": "nonpayable",
      "type": "function"
    },
    {
      "inputs": [
        {
          "internalType": "address",
          "name": "account",
          "type": "address"
        }
      ],
      "name": "delegates",
      "outputs": [
        {
          "internalType": "address",
          "name": "",
          "type": "address"
        }
      ],
      "stateMutability": "view",
      "type": "function",
      "constant": true
    },
    {
      "inputs": [
        {
          "internalType": "uint256",
          "name": "blockNumber",
          "type": "uint256"
        }
      ],
      "name": "getPastTotalSupply",
      "outputs": [
        {
          "internalType": "uint256",
          "name": "",
          "type": "uint256"
        }
      ],
      "stateMutability": "view",
      "type": "function",
      "constant": true
    },
    {
      "inputs": [
        {
          "internalType": "address",
          "name": "account",
          "type": "address"
        },
        {
          "internalType": "uint256",
          "name": "blockNumber",
          "type": "uint256"
        }
      ],
      "name": "getPastVotes",
      "outputs": [
        {
          "internalType": "uint256",
          "name": "",
          "type": "uint256"
        }
      ],
      "stateMutability": "view",
      "type": "function",
      "constant": true
    },
    {
      "inputs": [
        {
          "internalType": "bytes32",
          "name": "role",
          "type": "bytes32"
        }
      ],
      "name": "getRoleAdmin",
      "outputs": [
        {
          "internalType": "bytes32",
          "name": "",
          "type": "bytes32"
        }
      ],
      "stateMutability": "view",
      "type": "function",
      "constant": true
    },
    {
      "inputs": [
        {
          "internalType": "address",
          "name": "account",
          "type": "address"
        }
      ],
      "name": "getVotes",
      "outputs": [
        {
          "internalType": "uint256",
          "name": "",
          "type": "uint256"
        }
      ],
      "stateMutability": "view",
      "type": "function",
      "constant": true
    },
    {
      "inputs": [
        {
          "internalType": "bytes32",
          "name": "role",
          "type": "bytes32"
        },
        {
          "internalType": "address",
          "name": "account",
          "type": "address"
        }
      ],
      "name": "grantRole",
      "outputs": [],
      "stateMutability": "nonpayable",
      "type": "function"
    },
    {
      "inputs": [
        {
          "internalType": "bytes32",
          "name": "role",
          "type": "bytes32"
        },
        {
          "internalType": "address",
          "name": "account",
          "type": "address"
        }
      ],
      "name": "hasRole",
      "outputs": [
        {
          "internalType": "bool",
          "name": "",
          "type": "bool"
        }
      ],
      "stateMutability": "view",
      "type": "function",
      "constant": true
    },
    {
      "inputs": [
        {
          "internalType": "address",
          "name": "spender",
          "type": "address"
        },
        {
          "internalType": "uint256",
          "name": "addedValue",
          "type": "uint256"
        }
      ],
      "name": "increaseAllowance",
      "outputs": [
        {
          "internalType": "bool",
          "name": "",
          "type": "bool"
        }
      ],
      "stateMutability": "nonpayable",
      "type": "function"
    },
    {
      "inputs": [],
      "name": "manualMinted",
      "outputs": [
        {
          "internalType": "uint256",
          "name": "",
          "type": "uint256"
        }
      ],
      "stateMutability": "view",
      "type": "function",
      "constant": true
    },
    {
      "inputs": [],
      "name": "name",
      "outputs": [
        {
          "internalType": "string",
          "name": "",
          "type": "string"
        }
      ],
      "stateMutability": "view",
      "type": "function",
      "constant": true
    },
    {
      "inputs": [
        {
          "internalType": "address",
          "name": "owner",
          "type": "address"
        }
      ],
      "name": "nonces",
      "outputs": [
        {
          "internalType": "uint256",
          "name": "",
          "type": "uint256"
        }
      ],
      "stateMutability": "view",
      "type": "function",
      "constant": true
    },
    {
      "inputs": [
        {
          "internalType": "address",
          "name": "account",
          "type": "address"
        }
      ],
      "name": "numCheckpoints",
      "outputs": [
        {
          "internalType": "uint32",
          "name": "",
          "type": "uint32"
        }
      ],
      "stateMutability": "view",
      "type": "function",
      "constant": true
    },
    {
      "inputs": [],
      "name": "paused",
      "outputs": [
        {
          "internalType": "bool",
          "name": "",
          "type": "bool"
        }
      ],
      "stateMutability": "view",
      "type": "function",
      "constant": true
    },
    {
      "inputs": [
        {
          "internalType": "address",
          "name": "owner",
          "type": "address"
        },
        {
          "internalType": "address",
          "name": "spender",
          "type": "address"
        },
        {
          "internalType": "uint256",
          "name": "value",
          "type": "uint256"
        },
        {
          "internalType": "uint256",
          "name": "deadline",
          "type": "uint256"
        },
        {
          "internalType": "uint8",
          "name": "v",
          "type": "uint8"
        },
        {
          "internalType": "bytes32",
          "name": "r",
          "type": "bytes32"
        },
        {
          "internalType": "bytes32",
          "name": "s",
          "type": "bytes32"
        }
      ],
      "name": "permit",
      "outputs": [],
      "stateMutability": "nonpayable",
      "type": "function"
    },
    {
      "inputs": [
        {
          "internalType": "bytes32",
          "name": "role",
          "type": "bytes32"
        },
        {
          "internalType": "address",
          "name": "account",
          "type": "address"
        }
      ],
      "name": "renounceRole",
      "outputs": [],
      "stateMutability": "nonpayable",
      "type": "function"
    },
    {
      "inputs": [
        {
          "internalType": "bytes32",
          "name": "role",
          "type": "bytes32"
        },
        {
          "internalType": "address",
          "name": "account",
          "type": "address"
        }
      ],
      "name": "revokeRole",
      "outputs": [],
      "stateMutability": "nonpayable",
      "type": "function"
    },
    {
      "inputs": [
        {
          "internalType": "bytes4",
          "name": "interfaceId",
          "type": "bytes4"
        }
      ],
      "name": "supportsInterface",
      "outputs": [
        {
          "internalType": "bool",
          "name": "",
          "type": "bool"
        }
      ],
      "stateMutability": "view",
      "type": "function",
      "constant": true
    },
    {
      "inputs": [],
      "name": "symbol",
      "outputs": [
        {
          "internalType": "string",
          "name": "",
          "type": "string"
        }
      ],
      "stateMutability": "view",
      "type": "function",
      "constant": true
    },
    {
      "inputs": [],
      "name": "totalSupply",
      "outputs": [
        {
          "internalType": "uint256",
          "name": "",
          "type": "uint256"
        }
      ],
      "stateMutability": "view",
      "type": "function",
      "constant": true
    },
    {
      "inputs": [
        {
          "internalType": "address",
          "name": "to",
          "type": "address"
        },
        {
          "internalType": "uint256",
          "name": "amount",
          "type": "uint256"
        }
      ],
      "name": "transfer",
      "outputs": [
        {
          "internalType": "bool",
          "name": "",
          "type": "bool"
        }
      ],
      "stateMutability": "nonpayable",
      "type": "function"
    },
    {
      "inputs": [
        {
          "internalType": "address",
          "name": "from",
          "type": "address"
        },
        {
          "internalType": "address",
          "name": "to",
          "type": "address"
        },
        {
          "internalType": "uint256",
          "name": "amount",
          "type": "uint256"
        }
      ],
      "name": "transferFrom",
      "outputs": [
        {
          "internalType": "bool",
          "name": "",
          "type": "bool"
        }
      ],
      "stateMutability": "nonpayable",
      "type": "function"
    },
    {
      "inputs": [],
      "name": "cap",
      "outputs": [
        {
          "internalType": "uint256",
          "name": "",
          "type": "uint256"
        }
      ],
      "stateMutability": "pure",
      "type": "function",
      "constant": true
    },
    {
      "inputs": [],
      "name": "pause",
      "outputs": [],
      "stateMutability": "nonpayable",
      "type": "function"
    },
    {
      "inputs": [],
      "name": "unpause",
      "outputs": [],
      "stateMutability": "nonpayable",
      "type": "function"
    },
    {
      "inputs": [
        {
          "internalType": "address",
          "name": "to",
          "type": "address"
        },
        {
          "internalType": "uint256",
          "name": "amount",
          "type": "uint256"
        }
      ],
      "name": "mint",
      "outputs": [],
      "stateMutability": "nonpayable",
      "type": "function"
    },
    {
      "inputs": [
        {
          "internalType": "address",
          "name": "to",
          "type": "address"
        },
        {
          "internalType": "uint256",
          "name": "amount",
          "type": "uint256"
        }
      ],
      "name": "manualMint",
      "outputs": [],
      "stateMutability": "nonpayable",
      "type": "function"
    }
  ],
  "bytecode": "0x6101606040527f6e71edae12b1b97f4d1f60370fef10105fa2faae0126114a169c64845d6126c9610140908152506000600b553480156200003f57600080fd5b506040518060400160405280600981526020017f504c4659546f6b656e0000000000000000000000000000000000000000000000815250806040518060400160405280600181526020017f31000000000000000000000000000000000000000000000000000000000000008152506040518060400160405280600981526020017f504c4659546f6b656e00000000000000000000000000000000000000000000008152506040518060400160405280600481526020017f504c4659000000000000000000000000000000000000000000000000000000008152508160039080519060200190620001319291906200043b565b5080600490805190602001906200014a9291906200043b565b5050506000600560006101000a81548160ff02191690831515021790555060008280519060200120905060008280519060200120905060007f8b73c3c69bb8fe3d512ecc4cf759cc79239f7b179b0ffacaa9a75d522b39400f90508260e081815250508161010081815250504660a08181525050620001d18184846200029a60201b60201c565b608081815250503073ffffffffffffffffffffffffffffffffffffffff1660c08173ffffffffffffffffffffffffffffffffffffffff1681525050806101208181525050505050505050620002306000801b33620002d660201b60201c565b620002627f65d7a28e3265b37a6474929f336521b332c1681b933f6cb9f3376673440d862a33620002d660201b60201c565b620002947f9f2df0fed2c77648de5860a4cc508cd0818c85b8b8a1ab4ceeef8d981c8956a633620002d660201b60201c565b62000628565b60008383834630604051602001620002b795949392919062000566565b6040516020818303038152906040528051906020012090509392505050565b620002e88282620003c860201b60201c565b620003c45760016006600084815260200190815260200160002060000160008373ffffffffffffffffffffffffffffffffffffffff1673ffffffffffffffffffffffffffffffffffffffff16815260200190815260200160002060006101000a81548160ff021916908315150217905550620003696200043360201b60201c565b73ffffffffffffffffffffffffffffffffffffffff168173ffffffffffffffffffffffffffffffffffffffff16837f2f8788117e7eff1d82e926ec794901d17c78024a50270940304540a733656f0d60405160405180910390a45b5050565b60006006600084815260200190815260200160002060000160008373ffffffffffffffffffffffffffffffffffffffff1673ffffffffffffffffffffffffffffffffffffffff16815260200190815260200160002060009054906101000a900460ff16905092915050565b600033905090565b8280546200044990620005f2565b90600052602060002090601f0160209004810192826200046d5760008555620004b9565b82601f106200048857805160ff1916838001178555620004b9565b82800160010185558215620004b9579182015b82811115620004b85782518255916020019190600101906200049b565b5b509050620004c89190620004cc565b5090565b5b80821115620004e7576000816000905550600101620004cd565b5090565b6000819050919050565b6200050081620004eb565b82525050565b6000819050919050565b6200051b8162000506565b82525050565b600073ffffffffffffffffffffffffffffffffffffffff82169050919050565b60006200054e8262000521565b9050919050565b620005608162000541565b82525050565b600060a0820190506200057d6000830188620004f5565b6200058c6020830187620004f5565b6200059b6040830186620004f5565b620005aa606083018562000510565b620005b9608083018462000555565b9695505050505050565b7f4e487b7100000000000000000000000000000000000000000000000000000000600052602260045260246000fd5b600060028204905060018216806200060b57607f821691505b60208210811415620006225762000621620005c3565b5b50919050565b60805160a05160c05160e051610100516101205161014051614ec762000683600039600061132501526000611e4501526000611e8701526000611e6601526000611d9b01526000611df101526000611e1a0152614ec76000f3fe608060405234801561001057600080fd5b50600436106102485760003560e01c806370a082311161013b578063a9059cbb116100b8578063dd62ed3e1161007c578063dd62ed3e1461073b578063e4c5ff461461076b578063e63ab1e914610787578063e6b2fb4a146107a5578063f1127ed8146107c357610248565b8063a9059cbb14610699578063c3cda520146106c9578063d505accf146106e5578063d539139314610701578063d547741f1461071f57610248565b806391d14854116100ff57806391d14854146105cd57806395d89b41146105fd5780639ab24eb01461061b578063a217fddf1461064b578063a457c2d71461066957610248565b806370a082311461051757806379cc6790146105475780637ecebe00146105635780638456cb59146105935780638e539e8c1461059d57610248565b806336568abe116101c957806342966c681161018d57806342966c6814610461578063587cde1e1461047d5780635c19a95c146104ad5780635c975abb146104c95780636fcfff45146104e757610248565b806336568abe146103bf57806339509351146103db5780633a46b1a81461040b5780633f4ba83a1461043b57806340c10f191461044557610248565b8063248a9ca311610210578063248a9ca3146103195780632f2ff15d14610349578063313ce56714610365578063355274ea146103835780633644e515146103a157610248565b806301ffc9a71461024d57806306fdde031461027d578063095ea7b31461029b57806318160ddd146102cb57806323b872dd146102e9575b600080fd5b61026760048036038101906102629190613441565b6107f3565b6040516102749190613489565b60405180910390f35b61028561086d565b604051610292919061353d565b60405180910390f35b6102b560048036038101906102b091906135f3565b6108ff565b6040516102c29190613489565b60405180910390f35b6102d3610922565b6040516102e09190613642565b60405180910390f35b61030360048036038101906102fe919061365d565b61092c565b6040516103109190613489565b60405180910390f35b610333600480360381019061032e91906136e6565b61095b565b6040516103409190613722565b60405180910390f35b610363600480360381019061035e919061373d565b61097b565b005b61036d6109a4565b60405161037a9190613799565b60405180910390f35b61038b6109ad565b6040516103989190613642565b60405180910390f35b6103a96109c0565b6040516103b69190613722565b60405180910390f35b6103d960048036038101906103d4919061373d565b6109cf565b005b6103f560048036038101906103f091906135f3565b610a52565b6040516104029190613489565b60405180910390f35b610425600480360381019061042091906135f3565b610afc565b6040516104329190613642565b60405180910390f35b610443610b90565b005b61045f600480360381019061045a91906135f3565b610bcd565b005b61047b600480360381019061047691906137b4565b610c71565b005b610497600480360381019061049291906137e1565b610c85565b6040516104a4919061381d565b60405180910390f35b6104c760048036038101906104c291906137e1565b610cee565b005b6104d1610d02565b6040516104de9190613489565b60405180910390f35b61050160048036038101906104fc91906137e1565b610d19565b60405161050e9190613857565b60405180910390f35b610531600480360381019061052c91906137e1565b610d6d565b60405161053e9190613642565b60405180910390f35b610561600480360381019061055c91906135f3565b610db5565b005b61057d600480360381019061057891906137e1565b610dd5565b60405161058a9190613642565b60405180910390f35b61059b610e25565b005b6105b760048036038101906105b291906137b4565b610e62565b6040516105c49190613642565b60405180910390f35b6105e760048036038101906105e2919061373d565b610eb8565b6040516105f49190613489565b60405180910390f35b610605610f23565b604051610612919061353d565b60405180910390f35b610635600480360381019061063091906137e1565b610fb5565b6040516106429190613642565b60405180910390f35b6106536110c6565b6040516106609190613722565b60405180910390f35b610683600480360381019061067e91906135f3565b6110cd565b6040516106909190613489565b60405180910390f35b6106b360048036038101906106ae91906135f3565b6111b7565b6040516106c09190613489565b60405180910390f35b6106e360048036038101906106de919061389e565b6111da565b005b6106ff60048036038101906106fa919061392b565b6112de565b005b610709611420565b6040516107169190613722565b60405180910390f35b6107396004803603810190610734919061373d565b611444565b005b610755600480360381019061075091906139cd565b61146d565b6040516107629190613642565b60405180910390f35b610785600480360381019061078091906135f3565b6114f4565b005b61078f611595565b60405161079c9190613722565b60405180910390f35b6107ad6115b9565b6040516107ba9190613642565b60405180910390f35b6107dd60048036038101906107d89190613a39565b6115bf565b6040516107ea9190613aee565b60405180910390f35b60007f7965db0b000000000000000000000000000000000000000000000000000000007bffffffffffffffffffffffffffffffffffffffffffffffffffffffff1916827bffffffffffffffffffffffffffffffffffffffffffffffffffffffff191614806108665750610865826116cf565b5b9050919050565b60606003805461087c90613b38565b80601f01602080910402602001604051908101604052809291908181526020018280546108a890613b38565b80156108f55780601f106108ca576101008083540402835291602001916108f5565b820191906000526020600020905b8154815290600101906020018083116108d857829003601f168201915b5050505050905090565b60008061090a611739565b9050610917818585611741565b600191505092915050565b6000600254905090565b600080610937611739565b905061094485828561190c565b61094f858585611998565b60019150509392505050565b600060066000838152602001908152602001600020600101549050919050565b6109848261095b565b61099581610990611739565b611c19565b61099f8383611cb6565b505050565b60006012905090565b60006a52b7d2dcc80cd2e4000000905090565b60006109ca611d97565b905090565b6109d7611739565b73ffffffffffffffffffffffffffffffffffffffff168173ffffffffffffffffffffffffffffffffffffffff1614610a44576040517f08c379a0000000000000000000000000000000000000000000000000000000008152600401610a3b90613bdc565b60405180910390fd5b610a4e8282611eb1565b5050565b600080610a5d611739565b9050610af1818585600160008673ffffffffffffffffffffffffffffffffffffffff1673ffffffffffffffffffffffffffffffffffffffff16815260200190815260200160002060008973ffffffffffffffffffffffffffffffffffffffff1673ffffffffffffffffffffffffffffffffffffffff16815260200190815260200160002054610aec9190613c2b565b611741565b600191505092915050565b6000438210610b40576040517f08c379a0000000000000000000000000000000000000000000000000000000008152600401610b3790613ccd565b60405180910390fd5b610b88600960008573ffffffffffffffffffffffffffffffffffffffff1673ffffffffffffffffffffffffffffffffffffffff16815260200190815260200160002083611f93565b905092915050565b7f65d7a28e3265b37a6474929f336521b332c1681b933f6cb9f3376673440d862a610bc281610bbd611739565b611c19565b610bca61209f565b50565b7f9f2df0fed2c77648de5860a4cc508cd0818c85b8b8a1ab4ceeef8d981c8956a6610bff81610bfa611739565b611c19565b610c076109ad565b610c2183610c13610922565b61214190919063ffffffff16565b1115610c62576040517f08c379a0000000000000000000000000000000000000000000000000000000008152600401610c5990613d39565b60405180910390fd5b610c6c8383612157565b505050565b610c82610c7c611739565b82612165565b50565b6000600860008373ffffffffffffffffffffffffffffffffffffffff1673ffffffffffffffffffffffffffffffffffffffff16815260200190815260200160002060009054906101000a900473ffffffffffffffffffffffffffffffffffffffff169050919050565b610cff610cf9611739565b82612173565b50565b6000600560009054906101000a900460ff16905090565b6000610d66600960008473ffffffffffffffffffffffffffffffffffffffff1673ffffffffffffffffffffffffffffffffffffffff1681526020019081526020016000208054905061228d565b9050919050565b60008060008373ffffffffffffffffffffffffffffffffffffffff1673ffffffffffffffffffffffffffffffffffffffff168152602001908152602001600020549050919050565b610dc782610dc1611739565b8361190c565b610dd18282612165565b5050565b6000610e1e600760008473ffffffffffffffffffffffffffffffffffffffff1673ffffffffffffffffffffffffffffffffffffffff1681526020019081526020016000206122e0565b9050919050565b7f65d7a28e3265b37a6474929f336521b332c1681b933f6cb9f3376673440d862a610e5781610e52611739565b611c19565b610e5f6122ee565b50565b6000438210610ea6576040517f08c379a0000000000000000000000000000000000000000000000000000000008152600401610e9d90613ccd565b60405180910390fd5b610eb1600a83611f93565b9050919050565b60006006600084815260200190815260200160002060000160008373ffffffffffffffffffffffffffffffffffffffff1673ffffffffffffffffffffffffffffffffffffffff16815260200190815260200160002060009054906101000a900460ff16905092915050565b606060048054610f3290613b38565b80601f0160208091040260200160405190810160405280929190818152602001828054610f5e90613b38565b8015610fab5780601f10610f8057610100808354040283529160200191610fab565b820191906000526020600020905b815481529060010190602001808311610f8e57829003601f168201915b5050505050905090565b600080600960008473ffffffffffffffffffffffffffffffffffffffff1673ffffffffffffffffffffffffffffffffffffffff1681526020019081526020016000208054905090506000811461109d57600960008473ffffffffffffffffffffffffffffffffffffffff1673ffffffffffffffffffffffffffffffffffffffff1681526020019081526020016000206001826110519190613d59565b8154811061106257611061613d8d565b5b9060005260206000200160000160049054906101000a90047bffffffffffffffffffffffffffffffffffffffffffffffffffffffff166110a0565b60005b7bffffffffffffffffffffffffffffffffffffffffffffffffffffffff16915050919050565b6000801b81565b6000806110d8611739565b90506000600160008373ffffffffffffffffffffffffffffffffffffffff1673ffffffffffffffffffffffffffffffffffffffff16815260200190815260200160002060008673ffffffffffffffffffffffffffffffffffffffff1673ffffffffffffffffffffffffffffffffffffffff1681526020019081526020016000205490508381101561119e576040517f08c379a000000000000000000000000000000000000000000000000000000000815260040161119590613e2e565b60405180910390fd5b6111ab8286868403611741565b60019250505092915050565b6000806111c2611739565b90506111cf818585611998565b600191505092915050565b8342111561121d576040517f08c379a000000000000000000000000000000000000000000000000000000000815260040161121490613e9a565b60405180910390fd5b600061127f6112777fe48329057bfd03d55e49b547132e39cffd9c1820ad7b9d4c5307691425d15adf89898960405160200161125c9493929190613eba565b60405160208183030381529060405280519060200120612391565b8585856123ab565b905061128a816123d6565b86146112cb576040517f08c379a00000000000000000000000000000000000000000000000000000000081526004016112c290613f4b565b60405180910390fd5b6112d58188612173565b50505050505050565b83421115611321576040517f08c379a000000000000000000000000000000000000000000000000000000000815260040161131890613fb7565b60405180910390fd5b60007f00000000000000000000000000000000000000000000000000000000000000008888886113508c6123d6565b8960405160200161136696959493929190613fd7565b604051602081830303815290604052805190602001209050600061138982612391565b90506000611399828787876123ab565b90508973ffffffffffffffffffffffffffffffffffffffff168173ffffffffffffffffffffffffffffffffffffffff1614611409576040517f08c379a000000000000000000000000000000000000000000000000000000000815260040161140090614084565b60405180910390fd5b6114148a8a8a611741565b50505050505050505050565b7f9f2df0fed2c77648de5860a4cc508cd0818c85b8b8a1ab4ceeef8d981c8956a681565b61144d8261095b565b61145e81611459611739565b611c19565b6114688383611eb1565b505050565b6000600160008473ffffffffffffffffffffffffffffffffffffffff1673ffffffffffffffffffffffffffffffffffffffff16815260200190815260200160002060008373ffffffffffffffffffffffffffffffffffffffff1673ffffffffffffffffffffffffffffffffffffffff16815260200190815260200160002054905092915050565b6000801b61150981611504611739565b611c19565b6a31a17e847807b1bc00000061152a83600b5461214190919063ffffffff16565b111561156b576040517f08c379a0000000000000000000000000000000000000000000000000000000008152600401611562906140f0565b60405180910390fd5b61158082600b5461214190919063ffffffff16565b600b819055506115908383610bcd565b505050565b7f65d7a28e3265b37a6474929f336521b332c1681b933f6cb9f3376673440d862a81565b600b5481565b6115c76133a6565b600960008473ffffffffffffffffffffffffffffffffffffffff1673ffffffffffffffffffffffffffffffffffffffff1681526020019081526020016000208263ffffffff168154811061161e5761161d613d8d565b5b906000526020600020016040518060400160405290816000820160009054906101000a900463ffffffff1663ffffffff1663ffffffff1681526020016000820160049054906101000a90047bffffffffffffffffffffffffffffffffffffffffffffffffffffffff167bffffffffffffffffffffffffffffffffffffffffffffffffffffffff167bffffffffffffffffffffffffffffffffffffffffffffffffffffffff1681525050905092915050565b60007f01ffc9a7000000000000000000000000000000000000000000000000000000007bffffffffffffffffffffffffffffffffffffffffffffffffffffffff1916827bffffffffffffffffffffffffffffffffffffffffffffffffffffffff1916149050919050565b600033905090565b600073ffffffffffffffffffffffffffffffffffffffff168373ffffffffffffffffffffffffffffffffffffffff1614156117b1576040517f08c379a00000000000000000000000000000000000000000000000000000000081526004016117a890614182565b60405180910390fd5b600073ffffffffffffffffffffffffffffffffffffffff168273ffffffffffffffffffffffffffffffffffffffff161415611821576040517f08c379a000000000000000000000000000000000000000000000000000000000815260040161181890614214565b60405180910390fd5b80600160008573ffffffffffffffffffffffffffffffffffffffff1673ffffffffffffffffffffffffffffffffffffffff16815260200190815260200160002060008473ffffffffffffffffffffffffffffffffffffffff1673ffffffffffffffffffffffffffffffffffffffff168152602001908152602001600020819055508173ffffffffffffffffffffffffffffffffffffffff168373ffffffffffffffffffffffffffffffffffffffff167f8c5be1e5ebec7d5bd14f71427d1e84f3dd0314c0f7b2291e5b200ac8c7c3b925836040516118ff9190613642565b60405180910390a3505050565b6000611918848461146d565b90507fffffffffffffffffffffffffffffffffffffffffffffffffffffffffffffffff81146119925781811015611984576040517f08c379a000000000000000000000000000000000000000000000000000000000815260040161197b90614280565b60405180910390fd5b6119918484848403611741565b5b50505050565b600073ffffffffffffffffffffffffffffffffffffffff168373ffffffffffffffffffffffffffffffffffffffff161415611a08576040517f08c379a00000000000000000000000000000000000000000000000000000000081526004016119ff90614312565b60405180910390fd5b600073ffffffffffffffffffffffffffffffffffffffff168273ffffffffffffffffffffffffffffffffffffffff161415611a78576040517f08c379a0000000000000000000000000000000000000000000000000000000008152600401611a6f906143a4565b60405180910390fd5b611a83838383612434565b60008060008573ffffffffffffffffffffffffffffffffffffffff1673ffffffffffffffffffffffffffffffffffffffff16815260200190815260200160002054905081811015611b09576040517f08c379a0000000000000000000000000000000000000000000000000000000008152600401611b0090614436565b60405180910390fd5b8181036000808673ffffffffffffffffffffffffffffffffffffffff1673ffffffffffffffffffffffffffffffffffffffff16815260200190815260200160002081905550816000808573ffffffffffffffffffffffffffffffffffffffff1673ffffffffffffffffffffffffffffffffffffffff1681526020019081526020016000206000828254611b9c9190613c2b565b925050819055508273ffffffffffffffffffffffffffffffffffffffff168473ffffffffffffffffffffffffffffffffffffffff167fddf252ad1be2c89b69c2b068fc378daa952ba7f163c4a11628f55a4df523b3ef84604051611c009190613642565b60405180910390a3611c1384848461248c565b50505050565b611c238282610eb8565b611cb257611c488173ffffffffffffffffffffffffffffffffffffffff16601461249c565b611c568360001c602061249c565b604051602001611c6792919061452a565b6040516020818303038152906040526040517f08c379a0000000000000000000000000000000000000000000000000000000008152600401611ca9919061353d565b60405180910390fd5b5050565b611cc08282610eb8565b611d935760016006600084815260200190815260200160002060000160008373ffffffffffffffffffffffffffffffffffffffff1673ffffffffffffffffffffffffffffffffffffffff16815260200190815260200160002060006101000a81548160ff021916908315150217905550611d38611739565b73ffffffffffffffffffffffffffffffffffffffff168173ffffffffffffffffffffffffffffffffffffffff16837f2f8788117e7eff1d82e926ec794901d17c78024a50270940304540a733656f0d60405160405180910390a45b5050565b60007f000000000000000000000000000000000000000000000000000000000000000073ffffffffffffffffffffffffffffffffffffffff163073ffffffffffffffffffffffffffffffffffffffff16148015611e1357507f000000000000000000000000000000000000000000000000000000000000000046145b15611e40577f00000000000000000000000000000000000000000000000000000000000000009050611eae565b611eab7f00000000000000000000000000000000000000000000000000000000000000007f00000000000000000000000000000000000000000000000000000000000000007f00000000000000000000000000000000000000000000000000000000000000006126d8565b90505b90565b611ebb8282610eb8565b15611f8f5760006006600084815260200190815260200160002060000160008373ffffffffffffffffffffffffffffffffffffffff1673ffffffffffffffffffffffffffffffffffffffff16815260200190815260200160002060006101000a81548160ff021916908315150217905550611f34611739565b73ffffffffffffffffffffffffffffffffffffffff168173ffffffffffffffffffffffffffffffffffffffff16837ff6391f5c32d9c69d2a47ea670b442974b53935d1edc7fd64eb21e047a839171b60405160405180910390a45b5050565b6000808380549050905060005b81811015612012576000611fb48284612712565b905084868281548110611fca57611fc9613d8d565b5b9060005260206000200160000160009054906101000a900463ffffffff1663ffffffff161115611ffc5780925061200c565b6001816120099190613c2b565b91505b50611fa0565b6000821461207457846001836120289190613d59565b8154811061203957612038613d8d565b5b9060005260206000200160000160049054906101000a90047bffffffffffffffffffffffffffffffffffffffffffffffffffffffff16612077565b60005b7bffffffffffffffffffffffffffffffffffffffffffffffffffffffff169250505092915050565b6120a7610d02565b6120e6576040517f08c379a00000000000000000000000000000000000000000000000000000000081526004016120dd906145b0565b60405180910390fd5b6000600560006101000a81548160ff0219169083151502179055507f5db9ee0a495bf2e6ff9c91a7834c1ba4fdd244a5e8aa4e537bd38aeae4b073aa61212a611739565b604051612137919061381d565b60405180910390a1565b6000818361214f9190613c2b565b905092915050565b6121618282612738565b5050565b61216f82826127c5565b5050565b600061217e83610c85565b9050600061218b84610d6d565b905082600860008673ffffffffffffffffffffffffffffffffffffffff1673ffffffffffffffffffffffffffffffffffffffff16815260200190815260200160002060006101000a81548173ffffffffffffffffffffffffffffffffffffffff021916908373ffffffffffffffffffffffffffffffffffffffff1602179055508273ffffffffffffffffffffffffffffffffffffffff168273ffffffffffffffffffffffffffffffffffffffff168573ffffffffffffffffffffffffffffffffffffffff167f3134e8a2e6d97e929a7e54011ea5485d7d196dd5f0ba4d4ef95803e8e3fc257f60405160405180910390a46122878284836127e3565b50505050565b600063ffffffff80168211156122d8576040517f08c379a00000000000000000000000000000000000000000000000000000000081526004016122cf90614642565b60405180910390fd5b819050919050565b600081600001549050919050565b6122f6610d02565b15612336576040517f08c379a000000000000000000000000000000000000000000000000000000000815260040161232d906146ae565b60405180910390fd5b6001600560006101000a81548160ff0219169083151502179055507f62e78cea01bee320cd4e420270b5ea74000d11b0c9f74754ebdbfc544b05a25861237a611739565b604051612387919061381d565b60405180910390a1565b60006123a461239e611d97565b836129dc565b9050919050565b60008060006123bc87878787612a0f565b915091506123c981612b1c565b8192505050949350505050565b600080600760008473ffffffffffffffffffffffffffffffffffffffff1673ffffffffffffffffffffffffffffffffffffffff1681526020019081526020016000209050612423816122e0565b915061242e81612cf1565b50919050565b61243c610d02565b1561247c576040517f08c379a0000000000000000000000000000000000000000000000000000000008152600401612473906146ae565b60405180910390fd5b612487838383612d07565b505050565b612497838383612d0c565b505050565b6060600060028360026124af91906146ce565b6124b99190613c2b565b67ffffffffffffffff8111156124d2576124d1614728565b5b6040519080825280601f01601f1916602001820160405280156125045781602001600182028036833780820191505090505b5090507f30000000000000000000000000000000000000000000000000000000000000008160008151811061253c5761253b613d8d565b5b60200101907effffffffffffffffffffffffffffffffffffffffffffffffffffffffffffff1916908160001a9053507f7800000000000000000000000000000000000000000000000000000000000000816001815181106125a05761259f613d8d565b5b60200101907effffffffffffffffffffffffffffffffffffffffffffffffffffffffffffff1916908160001a905350600060018460026125e091906146ce565b6125ea9190613c2b565b90505b600181111561268a577f3031323334353637383961626364656600000000000000000000000000000000600f86166010811061262c5761262b613d8d565b5b1a60f81b82828151811061264357612642613d8d565b5b60200101907effffffffffffffffffffffffffffffffffffffffffffffffffffffffffffff1916908160001a905350600485901c94508061268390614757565b90506125ed565b50600084146126ce576040517f08c379a00000000000000000000000000000000000000000000000000000000081526004016126c5906147cd565b60405180910390fd5b8091505092915050565b600083838346306040516020016126f39594939291906147ed565b6040516020818303038152906040528051906020012090509392505050565b60006002828418612723919061486f565b8284166127309190613c2b565b905092915050565b6127428282612d37565b61274a612e97565b7bffffffffffffffffffffffffffffffffffffffffffffffffffffffff16612770610922565b11156127b1576040517f08c379a00000000000000000000000000000000000000000000000000000000081526004016127a890614912565b60405180910390fd5b6127bf600a612ebb83612ed1565b50505050565b6127cf8282613149565b6127dd600a61332083612ed1565b50505050565b8173ffffffffffffffffffffffffffffffffffffffff168373ffffffffffffffffffffffffffffffffffffffff161415801561281f5750600081115b156129d757600073ffffffffffffffffffffffffffffffffffffffff168373ffffffffffffffffffffffffffffffffffffffff16146128fd576000806128a6600960008773ffffffffffffffffffffffffffffffffffffffff1673ffffffffffffffffffffffffffffffffffffffff16815260200190815260200160002061332085612ed1565b915091508473ffffffffffffffffffffffffffffffffffffffff167fdec2bacdd2f05b59de34da9b523dff8be42e5e38e818c82fdb0bae774387a72483836040516128f2929190614932565b60405180910390a250505b600073ffffffffffffffffffffffffffffffffffffffff168273ffffffffffffffffffffffffffffffffffffffff16146129d65760008061297f600960008673ffffffffffffffffffffffffffffffffffffffff1673ffffffffffffffffffffffffffffffffffffffff168152602001908152602001600020612ebb85612ed1565b915091508373ffffffffffffffffffffffffffffffffffffffff167fdec2bacdd2f05b59de34da9b523dff8be42e5e38e818c82fdb0bae774387a72483836040516129cb929190614932565b60405180910390a250505b5b505050565b600082826040516020016129f19291906149c8565b60405160208183030381529060405280519060200120905092915050565b6000807f7fffffffffffffffffffffffffffffff5d576e7357a4501ddfe92f46681b20a08360001c1115612a4a576000600391509150612b13565b601b8560ff1614158015612a625750601c8560ff1614155b15612a74576000600491509150612b13565b600060018787878760405160008152602001604052604051612a9994939291906149ff565b6020604051602081039080840390855afa158015612abb573d6000803e3d6000fd5b505050602060405103519050600073ffffffffffffffffffffffffffffffffffffffff168173ffffffffffffffffffffffffffffffffffffffff161415612b0a57600060019250925050612b13565b80600092509250505b94509492505050565b60006004811115612b3057612b2f614a44565b5b816004811115612b4357612b42614a44565b5b1415612b4e57612cee565b60016004811115612b6257612b61614a44565b5b816004811115612b7557612b74614a44565b5b1415612bb6576040517f08c379a0000000000000000000000000000000000000000000000000000000008152600401612bad90614abf565b60405180910390fd5b60026004811115612bca57612bc9614a44565b5b816004811115612bdd57612bdc614a44565b5b1415612c1e576040517f08c379a0000000000000000000000000000000000000000000000000000000008152600401612c1590614b2b565b60405180910390fd5b60036004811115612c3257612c31614a44565b5b816004811115612c4557612c44614a44565b5b1415612c86576040517f08c379a0000000000000000000000000000000000000000000000000000000008152600401612c7d90614bbd565b60405180910390fd5b600480811115612c9957612c98614a44565b5b816004811115612cac57612cab614a44565b5b1415612ced576040517f08c379a0000000000000000000000000000000000000000000000000000000008152600401612ce490614c4f565b60405180910390fd5b5b50565b6001816000016000828254019250508190555050565b505050565b612d17838383613336565b612d32612d2384610c85565b612d2c84610c85565b836127e3565b505050565b600073ffffffffffffffffffffffffffffffffffffffff168273ffffffffffffffffffffffffffffffffffffffff161415612da7576040517f08c379a0000000000000000000000000000000000000000000000000000000008152600401612d9e90614cbb565b60405180910390fd5b612db360008383612434565b8060026000828254612dc59190613c2b565b92505081905550806000808473ffffffffffffffffffffffffffffffffffffffff1673ffffffffffffffffffffffffffffffffffffffff1681526020019081526020016000206000828254612e1a9190613c2b565b925050819055508173ffffffffffffffffffffffffffffffffffffffff16600073ffffffffffffffffffffffffffffffffffffffff167fddf252ad1be2c89b69c2b068fc378daa952ba7f163c4a11628f55a4df523b3ef83604051612e7f9190613642565b60405180910390a3612e936000838361248c565b5050565b60007bffffffffffffffffffffffffffffffffffffffffffffffffffffffff905090565b60008183612ec99190613c2b565b905092915050565b60008060008580549050905060008114612f3f5785600182612ef39190613d59565b81548110612f0457612f03613d8d565b5b9060005260206000200160000160049054906101000a90047bffffffffffffffffffffffffffffffffffffffffffffffffffffffff16612f42565b60005b7bffffffffffffffffffffffffffffffffffffffffffffffffffffffff169250612f7083858763ffffffff16565b9150600081118015612fc357504386600183612f8c9190613d59565b81548110612f9d57612f9c613d8d565b5b9060005260206000200160000160009054906101000a900463ffffffff1663ffffffff16145b1561305057612fd18261333b565b86600183612fdf9190613d59565b81548110612ff057612fef613d8d565b5b9060005260206000200160000160046101000a8154817bffffffffffffffffffffffffffffffffffffffffffffffffffffffff02191690837bffffffffffffffffffffffffffffffffffffffffffffffffffffffff160217905550613140565b8560405180604001604052806130654361228d565b63ffffffff1681526020016130798561333b565b7bffffffffffffffffffffffffffffffffffffffffffffffffffffffff168152509080600181540180825580915050600190039060005260206000200160009091909190915060008201518160000160006101000a81548163ffffffff021916908363ffffffff16021790555060208201518160000160046101000a8154817bffffffffffffffffffffffffffffffffffffffffffffffffffffffff02191690837bffffffffffffffffffffffffffffffffffffffffffffffffffffffff16021790555050505b50935093915050565b600073ffffffffffffffffffffffffffffffffffffffff168273ffffffffffffffffffffffffffffffffffffffff1614156131b9576040517f08c379a00000000000000000000000000000000000000000000000000000000081526004016131b090614d4d565b60405180910390fd5b6131c582600083612434565b60008060008473ffffffffffffffffffffffffffffffffffffffff1673ffffffffffffffffffffffffffffffffffffffff1681526020019081526020016000205490508181101561324b576040517f08c379a000000000000000000000000000000000000000000000000000000000815260040161324290614ddf565b60405180910390fd5b8181036000808573ffffffffffffffffffffffffffffffffffffffff1673ffffffffffffffffffffffffffffffffffffffff1681526020019081526020016000208190555081600260008282546132a29190613d59565b92505081905550600073ffffffffffffffffffffffffffffffffffffffff168373ffffffffffffffffffffffffffffffffffffffff167fddf252ad1be2c89b69c2b068fc378daa952ba7f163c4a11628f55a4df523b3ef846040516133079190613642565b60405180910390a361331b8360008461248c565b505050565b6000818361332e9190613d59565b905092915050565b505050565b60007bffffffffffffffffffffffffffffffffffffffffffffffffffffffff801682111561339e576040517f08c379a000000000000000000000000000000000000000000000000000000000815260040161339590614e71565b60405180910390fd5b819050919050565b6040518060400160405280600063ffffffff16815260200160007bffffffffffffffffffffffffffffffffffffffffffffffffffffffff1681525090565b600080fd5b60007fffffffff0000000000000000000000000000000000000000000000000000000082169050919050565b61341e816133e9565b811461342957600080fd5b50565b60008135905061343b81613415565b92915050565b600060208284031215613457576134566133e4565b5b60006134658482850161342c565b91505092915050565b60008115159050919050565b6134838161346e565b82525050565b600060208201905061349e600083018461347a565b92915050565b600081519050919050565b600082825260208201905092915050565b60005b838110156134de5780820151818401526020810190506134c3565b838111156134ed576000848401525b50505050565b6000601f19601f8301169050919050565b600061350f826134a4565b61351981856134af565b93506135298185602086016134c0565b613532816134f3565b840191505092915050565b600060208201905081810360008301526135578184613504565b905092915050565b600073ffffffffffffffffffffffffffffffffffffffff82169050919050565b600061358a8261355f565b9050919050565b61359a8161357f565b81146135a557600080fd5b50565b6000813590506135b781613591565b92915050565b6000819050919050565b6135d0816135bd565b81146135db57600080fd5b50565b6000813590506135ed816135c7565b92915050565b6000806040838503121561360a576136096133e4565b5b6000613618858286016135a8565b9250506020613629858286016135de565b9150509250929050565b61363c816135bd565b82525050565b60006020820190506136576000830184613633565b92915050565b600080600060608486031215613676576136756133e4565b5b6000613684868287016135a8565b9350506020613695868287016135a8565b92505060406136a6868287016135de565b9150509250925092565b6000819050919050565b6136c3816136b0565b81146136ce57600080fd5b50565b6000813590506136e0816136ba565b92915050565b6000602082840312156136fc576136fb6133e4565b5b600061370a848285016136d1565b91505092915050565b61371c816136b0565b82525050565b60006020820190506137376000830184613713565b92915050565b60008060408385031215613754576137536133e4565b5b6000613762858286016136d1565b9250506020613773858286016135a8565b9150509250929050565b600060ff82169050919050565b6137938161377d565b82525050565b60006020820190506137ae600083018461378a565b92915050565b6000602082840312156137ca576137c96133e4565b5b60006137d8848285016135de565b91505092915050565b6000602082840312156137f7576137f66133e4565b5b6000613805848285016135a8565b91505092915050565b6138178161357f565b82525050565b6000602082019050613832600083018461380e565b92915050565b600063ffffffff82169050919050565b61385181613838565b82525050565b600060208201905061386c6000830184613848565b92915050565b61387b8161377d565b811461388657600080fd5b50565b60008135905061389881613872565b92915050565b60008060008060008060c087890312156138bb576138ba6133e4565b5b60006138c989828a016135a8565b96505060206138da89828a016135de565b95505060406138eb89828a016135de565b94505060606138fc89828a01613889565b935050608061390d89828a016136d1565b92505060a061391e89828a016136d1565b9150509295509295509295565b600080600080600080600060e0888a03121561394a576139496133e4565b5b60006139588a828b016135a8565b97505060206139698a828b016135a8565b965050604061397a8a828b016135de565b955050606061398b8a828b016135de565b945050608061399c8a828b01613889565b93505060a06139ad8a828b016136d1565b92505060c06139be8a828b016136d1565b91505092959891949750929550565b600080604083850312156139e4576139e36133e4565b5b60006139f2858286016135a8565b9250506020613a03858286016135a8565b9150509250929050565b613a1681613838565b8114613a2157600080fd5b50565b600081359050613a3381613a0d565b92915050565b60008060408385031215613a5057613a4f6133e4565b5b6000613a5e858286016135a8565b9250506020613a6f85828601613a24565b9150509250929050565b613a8281613838565b82525050565b60007bffffffffffffffffffffffffffffffffffffffffffffffffffffffff82169050919050565b613ab981613a88565b82525050565b604082016000820151613ad56000850182613a79565b506020820151613ae86020850182613ab0565b50505050565b6000604082019050613b036000830184613abf565b92915050565b7f4e487b7100000000000000000000000000000000000000000000000000000000600052602260045260246000fd5b60006002820490506001821680613b5057607f821691505b60208210811415613b6457613b63613b09565b5b50919050565b7f416363657373436f6e74726f6c3a2063616e206f6e6c792072656e6f756e636560008201527f20726f6c657320666f722073656c660000000000000000000000000000000000602082015250565b6000613bc6602f836134af565b9150613bd182613b6a565b604082019050919050565b60006020820190508181036000830152613bf581613bb9565b9050919050565b7f4e487b7100000000000000000000000000000000000000000000000000000000600052601160045260246000fd5b6000613c36826135bd565b9150613c41836135bd565b9250827fffffffffffffffffffffffffffffffffffffffffffffffffffffffffffffffff03821115613c7657613c75613bfc565b5b828201905092915050565b7f4552433230566f7465733a20626c6f636b206e6f7420796574206d696e656400600082015250565b6000613cb7601f836134af565b9150613cc282613c81565b602082019050919050565b60006020820190508181036000830152613ce681613caa565b9050919050565b7f6361702065786365656465640000000000000000000000000000000000000000600082015250565b6000613d23600c836134af565b9150613d2e82613ced565b602082019050919050565b60006020820190508181036000830152613d5281613d16565b9050919050565b6000613d64826135bd565b9150613d6f836135bd565b925082821015613d8257613d81613bfc565b5b828203905092915050565b7f4e487b7100000000000000000000000000000000000000000000000000000000600052603260045260246000fd5b7f45524332303a2064656372656173656420616c6c6f77616e63652062656c6f7760008201527f207a65726f000000000000000000000000000000000000000000000000000000602082015250565b6000613e186025836134af565b9150613e2382613dbc565b604082019050919050565b60006020820190508181036000830152613e4781613e0b565b9050919050565b7f4552433230566f7465733a207369676e61747572652065787069726564000000600082015250565b6000613e84601d836134af565b9150613e8f82613e4e565b602082019050919050565b60006020820190508181036000830152613eb381613e77565b9050919050565b6000608082019050613ecf6000830187613713565b613edc602083018661380e565b613ee96040830185613633565b613ef66060830184613633565b95945050505050565b7f4552433230566f7465733a20696e76616c6964206e6f6e636500000000000000600082015250565b6000613f356019836134af565b9150613f4082613eff565b602082019050919050565b60006020820190508181036000830152613f6481613f28565b9050919050565b7f45524332305065726d69743a206578706972656420646561646c696e65000000600082015250565b6000613fa1601d836134af565b9150613fac82613f6b565b602082019050919050565b60006020820190508181036000830152613fd081613f94565b9050919050565b600060c082019050613fec6000830189613713565b613ff9602083018861380e565b614006604083018761380e565b6140136060830186613633565b6140206080830185613633565b61402d60a0830184613633565b979650505050505050565b7f45524332305065726d69743a20696e76616c6964207369676e61747572650000600082015250565b600061406e601e836134af565b915061407982614038565b602082019050919050565b6000602082019050818103600083015261409d81614061565b9050919050565b7f6d696e74206c696d697420657863656564656400000000000000000000000000600082015250565b60006140da6013836134af565b91506140e5826140a4565b602082019050919050565b60006020820190508181036000830152614109816140cd565b9050919050565b7f45524332303a20617070726f76652066726f6d20746865207a65726f2061646460008201527f7265737300000000000000000000000000000000000000000000000000000000602082015250565b600061416c6024836134af565b915061417782614110565b604082019050919050565b6000602082019050818103600083015261419b8161415f565b9050919050565b7f45524332303a20617070726f766520746f20746865207a65726f20616464726560008201527f7373000000000000000000000000000000000000000000000000000000000000602082015250565b60006141fe6022836134af565b9150614209826141a2565b604082019050919050565b6000602082019050818103600083015261422d816141f1565b9050919050565b7f45524332303a20696e73756666696369656e7420616c6c6f77616e6365000000600082015250565b600061426a601d836134af565b915061427582614234565b602082019050919050565b600060208201905081810360008301526142998161425d565b9050919050565b7f45524332303a207472616e736665722066726f6d20746865207a65726f20616460008201527f6472657373000000000000000000000000000000000000000000000000000000602082015250565b60006142fc6025836134af565b9150614307826142a0565b604082019050919050565b6000602082019050818103600083015261432b816142ef565b9050919050565b7f45524332303a207472616e7366657220746f20746865207a65726f206164647260008201527f6573730000000000000000000000000000000000000000000000000000000000602082015250565b600061438e6023836134af565b915061439982614332565b604082019050919050565b600060208201905081810360008301526143bd81614381565b9050919050565b7f45524332303a207472616e7366657220616d6f756e742065786365656473206260008201527f616c616e63650000000000000000000000000000000000000000000000000000602082015250565b60006144206026836134af565b915061442b826143c4565b604082019050919050565b6000602082019050818103600083015261444f81614413565b9050919050565b600081905092915050565b7f416363657373436f6e74726f6c3a206163636f756e7420000000000000000000600082015250565b6000614497601783614456565b91506144a282614461565b601782019050919050565b60006144b8826134a4565b6144c28185614456565b93506144d28185602086016134c0565b80840191505092915050565b7f206973206d697373696e6720726f6c6520000000000000000000000000000000600082015250565b6000614514601183614456565b915061451f826144de565b601182019050919050565b60006145358261448a565b915061454182856144ad565b915061454c82614507565b915061455882846144ad565b91508190509392505050565b7f5061757361626c653a206e6f7420706175736564000000000000000000000000600082015250565b600061459a6014836134af565b91506145a582614564565b602082019050919050565b600060208201905081810360008301526145c98161458d565b9050919050565b7f53616665436173743a2076616c756520646f65736e27742066697420696e203360008201527f3220626974730000000000000000000000000000000000000000000000000000602082015250565b600061462c6026836134af565b9150614637826145d0565b604082019050919050565b6000602082019050818103600083015261465b8161461f565b9050919050565b7f5061757361626c653a2070617573656400000000000000000000000000000000600082015250565b60006146986010836134af565b91506146a382614662565b602082019050919050565b600060208201905081810360008301526146c78161468b565b9050919050565b60006146d9826135bd565b91506146e4836135bd565b9250817fffffffffffffffffffffffffffffffffffffffffffffffffffffffffffffffff048311821515161561471d5761471c613bfc565b5b828202905092915050565b7f4e487b7100000000000000000000000000000000000000000000000000000000600052604160045260246000fd5b6000614762826135bd565b9150600082141561477657614775613bfc565b5b600182039050919050565b7f537472696e67733a20686578206c656e67746820696e73756666696369656e74600082015250565b60006147b76020836134af565b91506147c282614781565b602082019050919050565b600060208201905081810360008301526147e6816147aa565b9050919050565b600060a0820190506148026000830188613713565b61480f6020830187613713565b61481c6040830186613713565b6148296060830185613633565b614836608083018461380e565b9695505050505050565b7f4e487b7100000000000000000000000000000000000000000000000000000000600052601260045260246000fd5b600061487a826135bd565b9150614885836135bd565b92508261489557614894614840565b5b828204905092915050565b7f4552433230566f7465733a20746f74616c20737570706c79207269736b73206f60008201527f766572666c6f77696e6720766f74657300000000000000000000000000000000602082015250565b60006148fc6030836134af565b9150614907826148a0565b604082019050919050565b6000602082019050818103600083015261492b816148ef565b9050919050565b60006040820190506149476000830185613633565b6149546020830184613633565b9392505050565b7f1901000000000000000000000000000000000000000000000000000000000000600082015250565b6000614991600283614456565b915061499c8261495b565b600282019050919050565b6000819050919050565b6149c26149bd826136b0565b6149a7565b82525050565b60006149d382614984565b91506149df82856149b1565b6020820191506149ef82846149b1565b6020820191508190509392505050565b6000608082019050614a146000830187613713565b614a21602083018661378a565b614a2e6040830185613713565b614a3b6060830184613713565b95945050505050565b7f4e487b7100000000000000000000000000000000000000000000000000000000600052602160045260246000fd5b7f45434453413a20696e76616c6964207369676e61747572650000000000000000600082015250565b6000614aa96018836134af565b9150614ab482614a73565b602082019050919050565b60006020820190508181036000830152614ad881614a9c565b9050919050565b7f45434453413a20696e76616c6964207369676e6174757265206c656e67746800600082015250565b6000614b15601f836134af565b9150614b2082614adf565b602082019050919050565b60006020820190508181036000830152614b4481614b08565b9050919050565b7f45434453413a20696e76616c6964207369676e6174757265202773272076616c60008201527f7565000000000000000000000000000000000000000000000000000000000000602082015250565b6000614ba76022836134af565b9150614bb282614b4b565b604082019050919050565b60006020820190508181036000830152614bd681614b9a565b9050919050565b7f45434453413a20696e76616c6964207369676e6174757265202776272076616c60008201527f7565000000000000000000000000000000000000000000000000000000000000602082015250565b6000614c396022836134af565b9150614c4482614bdd565b604082019050919050565b60006020820190508181036000830152614c6881614c2c565b9050919050565b7f45524332303a206d696e7420746f20746865207a65726f206164647265737300600082015250565b6000614ca5601f836134af565b9150614cb082614c6f565b602082019050919050565b60006020820190508181036000830152614cd481614c98565b9050919050565b7f45524332303a206275726e2066726f6d20746865207a65726f2061646472657360008201527f7300000000000000000000000000000000000000000000000000000000000000602082015250565b6000614d376021836134af565b9150614d4282614cdb565b604082019050919050565b60006020820190508181036000830152614d6681614d2a565b9050919050565b7f45524332303a206275726e20616d6f756e7420657863656564732062616c616e60008201527f6365000000000000000000000000000000000000000000000000000000000000602082015250565b6000614dc96022836134af565b9150614dd482614d6d565b604082019050919050565b60006020820190508181036000830152614df881614dbc565b9050919050565b7f53616665436173743a2076616c756520646f65736e27742066697420696e203260008201527f3234206269747300000000000000000000000000000000000000000000000000602082015250565b6000614e5b6027836134af565b9150614e6682614dff565b604082019050919050565b60006020820190508181036000830152614e8a81614e4e565b905091905056fea264697066735822122041ff23ddbd29e49b8d47a906659fa6d65cdad68f4dafe468f27cbf7b964695a364736f6c634300080b0033",
  "immutableReferences": {
    "2096": [
      {
        "length": 32,
        "start": 4901
      }
    ],
    "3504": [
      {
        "length": 32,
        "start": 7706
      }
    ],
    "3506": [
      {
        "length": 32,
        "start": 7665
      }
    ],
    "3508": [
      {
        "length": 32,
        "start": 7579
      }
    ],
    "3510": [
      {
        "length": 32,
        "start": 7782
      }
    ],
    "3512": [
      {
        "length": 32,
        "start": 7815
      }
    ],
    "3514": [
      {
        "length": 32,
        "start": 7749
      }
    ]
  },
  "source": "// SPDX-License-Identifier: MIT\npragma solidity ^0.8.2;\nimport \"hardhat/console.sol\";\n\nimport \"@openzeppelin/contracts/token/ERC20/ERC20.sol\";\nimport \"@openzeppelin/contracts/token/ERC20/extensions/ERC20Burnable.sol\";\nimport \"@openzeppelin/contracts/token/ERC20/extensions/draft-ERC20Permit.sol\";\nimport \"@openzeppelin/contracts/token/ERC20/extensions/ERC20Votes.sol\";\nimport \"@openzeppelin/contracts/security/Pausable.sol\";\nimport \"@openzeppelin/contracts/access/AccessControl.sol\";\nimport \"@openzeppelin/contracts/utils/math/SafeMath.sol\";\n\ncontract PLFYToken is ERC20, ERC20Burnable, Pausable, AccessControl, ERC20Permit, ERC20Votes {\n    using SafeMath for uint256;\n\n    bytes32 public constant PAUSER_ROLE = keccak256(\"PAUSER_ROLE\");\n    bytes32 public constant MINTER_ROLE = keccak256(\"MINTER_ROLE\");\n\n    uint256 private constant CAP                = 100000000e18; //  100 000 000 tokens\n    uint256 private constant MANUAL_MINT_LIMIT  =  60000000e18; //   60 000 000 tokens\n    uint256 public manualMinted = 0;\n\n    constructor() ERC20(\"PLFYToken\", \"PLFY\") ERC20Permit(\"PLFYToken\") {\n        _grantRole(DEFAULT_ADMIN_ROLE, msg.sender);\n        _grantRole(PAUSER_ROLE, msg.sender);\n        _grantRole(MINTER_ROLE, msg.sender);\n    }\n\n    function cap() public pure returns (uint256) {\n        return CAP;\n    }\n\n    function pause() public onlyRole(PAUSER_ROLE) {\n        _pause();\n    }\n\n    function unpause() public onlyRole(PAUSER_ROLE) {\n        _unpause();\n    }\n\n    function mint(address to, uint256 amount) public onlyRole(MINTER_ROLE) {\n        require(totalSupply().add(amount) <= cap(), \"cap exceeded\");\n        _mint(to, amount);\n    }\n\n    function manualMint(address to, uint256 amount) public onlyRole(DEFAULT_ADMIN_ROLE) {\n        require(manualMinted.add(amount) <= MANUAL_MINT_LIMIT, \"mint limit exceeded\");\n        manualMinted = manualMinted.add(amount);\n        mint(to, amount);\n    }\n\n\n    // The following functions are overrides required by Solidity.\n\n    function _beforeTokenTransfer(address from, address to, uint256 amount)\n        internal\n        whenNotPaused\n        override\n    {\n        super._beforeTokenTransfer(from, to, amount);\n    }\n\n    function _afterTokenTransfer(address from, address to, uint256 amount)\n        internal\n        override(ERC20, ERC20Votes)\n    {\n        super._afterTokenTransfer(from, to, amount);\n    }\n\n    function _mint(address to, uint256 amount)\n        internal\n        override(ERC20, ERC20Votes)\n    {\n        super._mint(to, amount);\n    }\n\n    function _burn(address account, uint256 amount)\n        internal\n        override(ERC20, ERC20Votes)\n    {\n        super._burn(account, amount);\n    }\n}",
  "sourcePath": "/home/trakers/Documents/crypto/poolify-official/contracts/src/contracts/tokens/PLFYToken.sol",
  "compiler": {
    "name": "solc",
    "version": "0.8.11+commit.d7f03943.Emscripten.clang"
  },
  "schemaVersion": "3.4.4",
  "updatedAt": "2022-03-29T20:16:32.410Z",
  "networkType": "ethereum",
  "devdoc": {
    "kind": "dev",
    "methods": {
      "DOMAIN_SEPARATOR()": {
        "details": "See {IERC20Permit-DOMAIN_SEPARATOR}."
      },
      "allowance(address,address)": {
        "details": "See {IERC20-allowance}."
      },
      "approve(address,uint256)": {
        "details": "See {IERC20-approve}. NOTE: If `amount` is the maximum `uint256`, the allowance is not updated on `transferFrom`. This is semantically equivalent to an infinite approval. Requirements: - `spender` cannot be the zero address."
      },
      "balanceOf(address)": {
        "details": "See {IERC20-balanceOf}."
      },
      "burn(uint256)": {
        "details": "Destroys `amount` tokens from the caller. See {ERC20-_burn}."
      },
      "burnFrom(address,uint256)": {
        "details": "Destroys `amount` tokens from `account`, deducting from the caller's allowance. See {ERC20-_burn} and {ERC20-allowance}. Requirements: - the caller must have allowance for ``accounts``'s tokens of at least `amount`."
      },
      "checkpoints(address,uint32)": {
        "details": "Get the `pos`-th checkpoint for `account`."
      },
      "decimals()": {
        "details": "Returns the number of decimals used to get its user representation. For example, if `decimals` equals `2`, a balance of `505` tokens should be displayed to a user as `5.05` (`505 / 10 ** 2`). Tokens usually opt for a value of 18, imitating the relationship between Ether and Wei. This is the value {ERC20} uses, unless this function is overridden; NOTE: This information is only used for _display_ purposes: it in no way affects any of the arithmetic of the contract, including {IERC20-balanceOf} and {IERC20-transfer}."
      },
      "decreaseAllowance(address,uint256)": {
        "details": "Atomically decreases the allowance granted to `spender` by the caller. This is an alternative to {approve} that can be used as a mitigation for problems described in {IERC20-approve}. Emits an {Approval} event indicating the updated allowance. Requirements: - `spender` cannot be the zero address. - `spender` must have allowance for the caller of at least `subtractedValue`."
      },
      "delegate(address)": {
        "details": "Delegate votes from the sender to `delegatee`."
      },
      "delegateBySig(address,uint256,uint256,uint8,bytes32,bytes32)": {
        "details": "Delegates votes from signer to `delegatee`"
      },
      "delegates(address)": {
        "details": "Get the address `account` is currently delegating to."
      },
      "getPastTotalSupply(uint256)": {
        "details": "Retrieve the `totalSupply` at the end of `blockNumber`. Note, this value is the sum of all balances. It is but NOT the sum of all the delegated votes! Requirements: - `blockNumber` must have been already mined"
      },
      "getPastVotes(address,uint256)": {
        "details": "Retrieve the number of votes for `account` at the end of `blockNumber`. Requirements: - `blockNumber` must have been already mined"
      },
      "getRoleAdmin(bytes32)": {
        "details": "Returns the admin role that controls `role`. See {grantRole} and {revokeRole}. To change a role's admin, use {_setRoleAdmin}."
      },
      "getVotes(address)": {
        "details": "Gets the current votes balance for `account`"
      },
      "grantRole(bytes32,address)": {
        "details": "Grants `role` to `account`. If `account` had not been already granted `role`, emits a {RoleGranted} event. Requirements: - the caller must have ``role``'s admin role."
      },
      "hasRole(bytes32,address)": {
        "details": "Returns `true` if `account` has been granted `role`."
      },
      "increaseAllowance(address,uint256)": {
        "details": "Atomically increases the allowance granted to `spender` by the caller. This is an alternative to {approve} that can be used as a mitigation for problems described in {IERC20-approve}. Emits an {Approval} event indicating the updated allowance. Requirements: - `spender` cannot be the zero address."
      },
      "name()": {
        "details": "Returns the name of the token."
      },
      "nonces(address)": {
        "details": "See {IERC20Permit-nonces}."
      },
      "numCheckpoints(address)": {
        "details": "Get number of checkpoints for `account`."
      },
      "paused()": {
        "details": "Returns true if the contract is paused, and false otherwise."
      },
      "permit(address,address,uint256,uint256,uint8,bytes32,bytes32)": {
        "details": "See {IERC20Permit-permit}."
      },
      "renounceRole(bytes32,address)": {
        "details": "Revokes `role` from the calling account. Roles are often managed via {grantRole} and {revokeRole}: this function's purpose is to provide a mechanism for accounts to lose their privileges if they are compromised (such as when a trusted device is misplaced). If the calling account had been revoked `role`, emits a {RoleRevoked} event. Requirements: - the caller must be `account`."
      },
      "revokeRole(bytes32,address)": {
        "details": "Revokes `role` from `account`. If `account` had been granted `role`, emits a {RoleRevoked} event. Requirements: - the caller must have ``role``'s admin role."
      },
      "supportsInterface(bytes4)": {
        "details": "See {IERC165-supportsInterface}."
      },
      "symbol()": {
        "details": "Returns the symbol of the token, usually a shorter version of the name."
      },
      "totalSupply()": {
        "details": "See {IERC20-totalSupply}."
      },
      "transfer(address,uint256)": {
        "details": "See {IERC20-transfer}. Requirements: - `to` cannot be the zero address. - the caller must have a balance of at least `amount`."
      },
      "transferFrom(address,address,uint256)": {
        "details": "See {IERC20-transferFrom}. Emits an {Approval} event indicating the updated allowance. This is not required by the EIP. See the note at the beginning of {ERC20}. NOTE: Does not update the allowance if the current allowance is the maximum `uint256`. Requirements: - `from` and `to` cannot be the zero address. - `from` must have a balance of at least `amount`. - the caller must have allowance for ``from``'s tokens of at least `amount`."
      }
    },
    "version": 1
  },
  "userdoc": {
    "kind": "user",
    "methods": {},
    "version": 1
  }
}