{
  "contractName": "PLFY_Vault",
  "abi": [
    {
      "inputs": [
        {
          "internalType": "string",
          "name": "_name",
          "type": "string"
        },
        {
          "internalType": "string",
          "name": "_symbol",
          "type": "string"
        },
        {
          "internalType": "uint256",
          "name": "_approvalDelay",
          "type": "uint256"
        }
      ],
      "stateMutability": "nonpayable",
      "type": "constructor"
    },
    {
      "anonymous": false,
      "inputs": [
        {
          "indexed": true,
          "internalType": "address",
          "name": "owner",
          "type": "address"
        },
        {
          "indexed": true,
          "internalType": "address",
          "name": "spender",
          "type": "address"
        },
        {
          "indexed": false,
          "internalType": "uint256",
          "name": "value",
          "type": "uint256"
        }
      ],
      "name": "Approval",
      "type": "event"
    },
    {
      "anonymous": false,
      "inputs": [
        {
          "indexed": false,
          "internalType": "address",
          "name": "implementation",
          "type": "address"
        }
      ],
      "name": "NewStratCandidate",
      "type": "event"
    },
    {
      "anonymous": false,
      "inputs": [
        {
          "indexed": true,
          "internalType": "address",
          "name": "previousOwner",
          "type": "address"
        },
        {
          "indexed": true,
          "internalType": "address",
          "name": "newOwner",
          "type": "address"
        }
      ],
      "name": "OwnershipTransferred",
      "type": "event"
    },
    {
      "anonymous": false,
      "inputs": [
        {
          "indexed": true,
          "internalType": "address",
          "name": "from",
          "type": "address"
        },
        {
          "indexed": true,
          "internalType": "address",
          "name": "to",
          "type": "address"
        },
        {
          "indexed": false,
          "internalType": "uint256",
          "name": "value",
          "type": "uint256"
        }
      ],
      "name": "Transfer",
      "type": "event"
    },
    {
      "anonymous": false,
      "inputs": [
        {
          "indexed": false,
          "internalType": "address",
          "name": "implementation",
          "type": "address"
        }
      ],
      "name": "UpgradeStrat",
      "type": "event"
    },
    {
      "inputs": [
        {
          "internalType": "address",
          "name": "owner",
          "type": "address"
        },
        {
          "internalType": "address",
          "name": "spender",
          "type": "address"
        }
      ],
      "name": "allowance",
      "outputs": [
        {
          "internalType": "uint256",
          "name": "",
          "type": "uint256"
        }
      ],
      "stateMutability": "view",
      "type": "function",
      "constant": true
    },
    {
      "inputs": [],
      "name": "approvalDelay",
      "outputs": [
        {
          "internalType": "uint256",
          "name": "",
          "type": "uint256"
        }
      ],
      "stateMutability": "view",
      "type": "function",
      "constant": true
    },
    {
      "inputs": [
        {
          "internalType": "address",
          "name": "spender",
          "type": "address"
        },
        {
          "internalType": "uint256",
          "name": "amount",
          "type": "uint256"
        }
      ],
      "name": "approve",
      "outputs": [
        {
          "internalType": "bool",
          "name": "",
          "type": "bool"
        }
      ],
      "stateMutability": "nonpayable",
      "type": "function"
    },
    {
      "inputs": [
        {
          "internalType": "address",
          "name": "account",
          "type": "address"
        }
      ],
      "name": "balanceOf",
      "outputs": [
        {
          "internalType": "uint256",
          "name": "",
          "type": "uint256"
        }
      ],
      "stateMutability": "view",
      "type": "function",
      "constant": true
    },
    {
      "inputs": [],
      "name": "decimals",
      "outputs": [
        {
          "internalType": "uint8",
          "name": "",
          "type": "uint8"
        }
      ],
      "stateMutability": "view",
      "type": "function",
      "constant": true
    },
    {
      "inputs": [
        {
          "internalType": "address",
          "name": "spender",
          "type": "address"
        },
        {
          "internalType": "uint256",
          "name": "subtractedValue",
          "type": "uint256"
        }
      ],
      "name": "decreaseAllowance",
      "outputs": [
        {
          "internalType": "bool",
          "name": "",
          "type": "bool"
        }
      ],
      "stateMutability": "nonpayable",
      "type": "function"
    },
    {
      "inputs": [
        {
          "internalType": "address",
          "name": "spender",
          "type": "address"
        },
        {
          "internalType": "uint256",
          "name": "addedValue",
          "type": "uint256"
        }
      ],
      "name": "increaseAllowance",
      "outputs": [
        {
          "internalType": "bool",
          "name": "",
          "type": "bool"
        }
      ],
      "stateMutability": "nonpayable",
      "type": "function"
    },
    {
      "inputs": [],
      "name": "name",
      "outputs": [
        {
          "internalType": "string",
          "name": "",
          "type": "string"
        }
      ],
      "stateMutability": "view",
      "type": "function",
      "constant": true
    },
    {
      "inputs": [],
      "name": "owner",
      "outputs": [
        {
          "internalType": "address",
          "name": "",
          "type": "address"
        }
      ],
      "stateMutability": "view",
      "type": "function",
      "constant": true
    },
    {
      "inputs": [],
      "name": "renounceOwnership",
      "outputs": [],
      "stateMutability": "nonpayable",
      "type": "function"
    },
    {
      "inputs": [],
      "name": "stratCandidate",
      "outputs": [
        {
          "internalType": "address",
          "name": "implementation",
          "type": "address"
        },
        {
          "internalType": "uint256",
          "name": "proposedTime",
          "type": "uint256"
        }
      ],
      "stateMutability": "view",
      "type": "function",
      "constant": true
    },
    {
      "inputs": [],
      "name": "strategy",
      "outputs": [
        {
          "internalType": "contract IStrategy",
          "name": "",
          "type": "address"
        }
      ],
      "stateMutability": "view",
      "type": "function",
      "constant": true
    },
    {
      "inputs": [],
      "name": "symbol",
      "outputs": [
        {
          "internalType": "string",
          "name": "",
          "type": "string"
        }
      ],
      "stateMutability": "view",
      "type": "function",
      "constant": true
    },
    {
      "inputs": [],
      "name": "totalSupply",
      "outputs": [
        {
          "internalType": "uint256",
          "name": "",
          "type": "uint256"
        }
      ],
      "stateMutability": "view",
      "type": "function",
      "constant": true
    },
    {
      "inputs": [
        {
          "internalType": "address",
          "name": "to",
          "type": "address"
        },
        {
          "internalType": "uint256",
          "name": "amount",
          "type": "uint256"
        }
      ],
      "name": "transfer",
      "outputs": [
        {
          "internalType": "bool",
          "name": "",
          "type": "bool"
        }
      ],
      "stateMutability": "nonpayable",
      "type": "function"
    },
    {
      "inputs": [
        {
          "internalType": "address",
          "name": "from",
          "type": "address"
        },
        {
          "internalType": "address",
          "name": "to",
          "type": "address"
        },
        {
          "internalType": "uint256",
          "name": "amount",
          "type": "uint256"
        }
      ],
      "name": "transferFrom",
      "outputs": [
        {
          "internalType": "bool",
          "name": "",
          "type": "bool"
        }
      ],
      "stateMutability": "nonpayable",
      "type": "function"
    },
    {
      "inputs": [
        {
          "internalType": "address",
          "name": "newOwner",
          "type": "address"
        }
      ],
      "name": "transferOwnership",
      "outputs": [],
      "stateMutability": "nonpayable",
      "type": "function"
    },
    {
      "inputs": [
        {
          "internalType": "address",
          "name": "_strategy",
          "type": "address"
        }
      ],
      "name": "setDefaultStrategy",
      "outputs": [],
      "stateMutability": "nonpayable",
      "type": "function"
    },
    {
      "inputs": [],
      "name": "want",
      "outputs": [
        {
          "internalType": "contract IERC20",
          "name": "",
          "type": "address"
        }
      ],
      "stateMutability": "view",
      "type": "function",
      "constant": true
    },
    {
      "inputs": [],
      "name": "reward",
      "outputs": [
        {
          "internalType": "contract IERC20",
          "name": "",
          "type": "address"
        }
      ],
      "stateMutability": "view",
      "type": "function",
      "constant": true
    },
    {
      "inputs": [],
      "name": "balance_reward",
      "outputs": [
        {
          "internalType": "uint256",
          "name": "",
          "type": "uint256"
        }
      ],
      "stateMutability": "view",
      "type": "function",
      "constant": true
    },
    {
      "inputs": [],
      "name": "getPricePerFullShare_reward",
      "outputs": [
        {
          "internalType": "uint256",
          "name": "",
          "type": "uint256"
        }
      ],
      "stateMutability": "view",
      "type": "function",
      "constant": true
    },
    {
      "inputs": [],
      "name": "balance_want",
      "outputs": [
        {
          "internalType": "uint256",
          "name": "",
          "type": "uint256"
        }
      ],
      "stateMutability": "view",
      "type": "function",
      "constant": true
    },
    {
      "inputs": [],
      "name": "balance",
      "outputs": [
        {
          "internalType": "uint256",
          "name": "",
          "type": "uint256"
        }
      ],
      "stateMutability": "view",
      "type": "function",
      "constant": true
    },
    {
      "inputs": [],
      "name": "available_want",
      "outputs": [
        {
          "internalType": "uint256",
          "name": "",
          "type": "uint256"
        }
      ],
      "stateMutability": "view",
      "type": "function",
      "constant": true
    },
    {
      "inputs": [],
      "name": "available",
      "outputs": [
        {
          "internalType": "uint256",
          "name": "",
          "type": "uint256"
        }
      ],
      "stateMutability": "view",
      "type": "function",
      "constant": true
    },
    {
      "inputs": [],
      "name": "getPricePerFullShare_want",
      "outputs": [
        {
          "internalType": "uint256",
          "name": "",
          "type": "uint256"
        }
      ],
      "stateMutability": "view",
      "type": "function",
      "constant": true
    },
    {
      "inputs": [],
      "name": "depositAll",
      "outputs": [],
      "stateMutability": "nonpayable",
      "type": "function"
    },
    {
      "inputs": [
        {
          "internalType": "uint256",
          "name": "_amount",
          "type": "uint256"
        }
      ],
      "name": "deposit",
      "outputs": [],
      "stateMutability": "nonpayable",
      "type": "function"
    },
    {
      "inputs": [],
      "name": "earn",
      "outputs": [],
      "stateMutability": "nonpayable",
      "type": "function"
    },
    {
      "inputs": [],
      "name": "withdrawAll",
      "outputs": [],
      "stateMutability": "nonpayable",
      "type": "function"
    },
    {
      "inputs": [
        {
          "internalType": "uint256",
          "name": "_shares",
          "type": "uint256"
        }
      ],
      "name": "withdraw",
      "outputs": [],
      "stateMutability": "nonpayable",
      "type": "function"
    },
    {
      "inputs": [
        {
          "internalType": "address",
          "name": "_implementation",
          "type": "address"
        }
      ],
      "name": "proposeStrat",
      "outputs": [],
      "stateMutability": "nonpayable",
      "type": "function"
    },
    {
      "inputs": [],
      "name": "upgradeStrat",
      "outputs": [],
      "stateMutability": "nonpayable",
      "type": "function"
    },
    {
      "inputs": [
        {
          "internalType": "address",
          "name": "_token",
          "type": "address"
        }
      ],
      "name": "inCaseTokensGetStuck",
      "outputs": [],
      "stateMutability": "nonpayable",
      "type": "function"
    }
  ],
  "bytecode": "0x60a06040526000600760006101000a81548160ff0219169083151502179055503480156200002c57600080fd5b50604051620044f6380380620044f6833981810160405281019062000052919062000417565b828281600390805190602001906200006c9291906200018f565b508060049080519060200190620000859291906200018f565b505050620000a86200009c620000c160201b60201c565b620000c960201b60201c565b6001600681905550806080818152505050505062000516565b600033905090565b6000600560009054906101000a900473ffffffffffffffffffffffffffffffffffffffff16905081600560006101000a81548173ffffffffffffffffffffffffffffffffffffffff021916908373ffffffffffffffffffffffffffffffffffffffff1602179055508173ffffffffffffffffffffffffffffffffffffffff168173ffffffffffffffffffffffffffffffffffffffff167f8be0079c531659141344cd1fd0a4f28419497f9722a3daafe3b4186f6b6457e060405160405180910390a35050565b8280546200019d90620004e0565b90600052602060002090601f016020900481019282620001c157600085556200020d565b82601f10620001dc57805160ff19168380011785556200020d565b828001600101855582156200020d579182015b828111156200020c578251825591602001919060010190620001ef565b5b5090506200021c919062000220565b5090565b5b808211156200023b57600081600090555060010162000221565b5090565b6000604051905090565b600080fd5b600080fd5b600080fd5b600080fd5b6000601f19601f8301169050919050565b7f4e487b7100000000000000000000000000000000000000000000000000000000600052604160045260246000fd5b620002a8826200025d565b810181811067ffffffffffffffff82111715620002ca57620002c96200026e565b5b80604052505050565b6000620002df6200023f565b9050620002ed82826200029d565b919050565b600067ffffffffffffffff82111562000310576200030f6200026e565b5b6200031b826200025d565b9050602081019050919050565b60005b83811015620003485780820151818401526020810190506200032b565b8381111562000358576000848401525b50505050565b6000620003756200036f84620002f2565b620002d3565b90508281526020810184848401111562000394576200039362000258565b5b620003a184828562000328565b509392505050565b600082601f830112620003c157620003c062000253565b5b8151620003d38482602086016200035e565b91505092915050565b6000819050919050565b620003f181620003dc565b8114620003fd57600080fd5b50565b6000815190506200041181620003e6565b92915050565b60008060006060848603121562000433576200043262000249565b5b600084015167ffffffffffffffff8111156200045457620004536200024e565b5b6200046286828701620003a9565b935050602084015167ffffffffffffffff8111156200048657620004856200024e565b5b6200049486828701620003a9565b9250506040620004a78682870162000400565b9150509250925092565b7f4e487b7100000000000000000000000000000000000000000000000000000000600052602260045260246000fd5b60006002820490506001821680620004f957607f821691505b6020821081141562000510576200050f620004b1565b5b50919050565b608051613fbd6200053960003960008181611c000152611d390152613fbd6000f3fe608060405234801561001057600080fd5b50600436106102115760003560e01c806376dfabb811610125578063b6b55f25116100ad578063de5f62681161007c578063de5f6268146105d5578063def68a9c146105df578063e2d1e75c146105fb578063e668524414610619578063f2fde38b1461062357610211565b8063b6b55f2514610561578063d389800f1461057d578063d892a2fc14610587578063dd62ed3e146105a557610211565b80639fa4e8e9116100f45780639fa4e8e9146104a7578063a457c2d7146104c5578063a8c62e76146104f5578063a9059cbb14610513578063b69ef8a81461054357610211565b806376dfabb814610442578063853828b6146104615780638da5cb5b1461046b57806395d89b411461048957610211565b8063313ce567116101a857806357bee9441161017757806357bee944146103b25780635b12ff9b146103ce5780636d4e7045146103ea57806370a0823114610408578063715018a61461043857610211565b8063313ce56714610328578063395093511461034657806348a0d7541461037657806355c3c1cc1461039457610211565b80631f1fcd51116101e45780631f1fcd51146102a0578063228cb733146102be57806323b872dd146102dc5780632e1a7d4d1461030c57610211565b806306fdde0314610216578063095ea7b31461023457806309a3fe591461026457806318160ddd14610282575b600080fd5b61021e61063f565b60405161022b9190612daa565b60405180910390f35b61024e60048036038101906102499190612e65565b6106d1565b60405161025b9190612ec0565b60405180910390f35b61026c6106f4565b6040516102799190612eea565b60405180910390f35b61028a61081e565b6040516102979190612eea565b60405180910390f35b6102a8610828565b6040516102b59190612f64565b60405180910390f35b6102c66108c0565b6040516102d39190612f64565b60405180910390f35b6102f660048036038101906102f19190612f7f565b610958565b6040516103039190612ec0565b60405180910390f35b61032660048036038101906103219190612fd2565b610987565b005b610330610c58565b60405161033d919061301b565b60405180910390f35b610360600480360381019061035b9190612e65565b610c61565b60405161036d9190612ec0565b60405180910390f35b61037e610d0b565b60405161038b9190612eea565b60405180910390f35b61039c610d1a565b6040516103a99190612eea565b60405180910390f35b6103cc60048036038101906103c79190613036565b610d79565b005b6103e860048036038101906103e39190613036565b610f86565b005b6103f2611199565b6040516103ff9190612eea565b60405180910390f35b610422600480360381019061041d9190613036565b6111f8565b60405161042f9190612eea565b60405180910390f35b610440611240565b005b61044a6112c8565b604051610458929190613072565b60405180910390f35b6104696112fa565b005b61047361130d565b604051610480919061309b565b60405180910390f35b610491611337565b60405161049e9190612daa565b60405180910390f35b6104af6113c9565b6040516104bc9190612eea565b60405180910390f35b6104df60048036038101906104da9190612e65565b611451565b6040516104ec9190612ec0565b60405180910390f35b6104fd61153b565b60405161050a91906130d7565b60405180910390f35b61052d60048036038101906105289190612e65565b611561565b60405161053a9190612ec0565b60405180910390f35b61054b611584565b6040516105589190612eea565b60405180910390f35b61057b60048036038101906105769190612fd2565b611593565b005b61058561172c565b005b61058f611811565b60405161059c9190612eea565b60405180910390f35b6105bf60048036038101906105ba91906130f2565b61194d565b6040516105cc9190612eea565b60405180910390f35b6105dd6119d4565b005b6105f960048036038101906105f49190613036565b611a5f565b005b610603611bfe565b6040516106109190612eea565b60405180910390f35b610621611c22565b005b61063d60048036038101906106389190613036565b611f4e565b005b60606003805461064e90613161565b80601f016020809104026020016040519081016040528092919081815260200182805461067a90613161565b80156106c75780601f1061069c576101008083540402835291602001916106c7565b820191906000526020600020905b8154815290600101906020018083116106aa57829003601f168201915b5050505050905090565b6000806106dc612046565b90506106e981858561204e565b600191505092915050565b6000610819600a60009054906101000a900473ffffffffffffffffffffffffffffffffffffffff1673ffffffffffffffffffffffffffffffffffffffff1663722713f76040518163ffffffff1660e01b8152600401602060405180830381865afa158015610766573d6000803e3d6000fd5b505050506040513d601f19601f8201168201806040525081019061078a91906131a8565b610792610828565b73ffffffffffffffffffffffffffffffffffffffff166370a08231306040518263ffffffff1660e01b81526004016107ca919061309b565b602060405180830381865afa1580156107e7573d6000803e3d6000fd5b505050506040513d601f19601f8201168201806040525081019061080b91906131a8565b61221990919063ffffffff16565b905090565b6000600254905090565b6000600a60009054906101000a900473ffffffffffffffffffffffffffffffffffffffff1673ffffffffffffffffffffffffffffffffffffffff16631f1fcd516040518163ffffffff1660e01b8152600401602060405180830381865afa158015610897573d6000803e3d6000fd5b505050506040513d601f19601f820116820180604052508101906108bb9190613213565b905090565b6000600a60009054906101000a900473ffffffffffffffffffffffffffffffffffffffff1673ffffffffffffffffffffffffffffffffffffffff1663228cb7336040518163ffffffff1660e01b8152600401602060405180830381865afa15801561092f573d6000803e3d6000fd5b505050506040513d601f19601f820116820180604052508101906109539190613213565b905090565b600080610963612046565b905061097085828561222f565b61097b8585856122bb565b60019150509392505050565b60006109bc61099461081e565b6109ae846109a06106f4565b61253c90919063ffffffff16565b61255290919063ffffffff16565b905060006109f36109cb61081e565b6109e5856109d7611811565b61253c90919063ffffffff16565b61255290919063ffffffff16565b90506109ff3384612568565b6000610a09610828565b73ffffffffffffffffffffffffffffffffffffffff166370a08231306040518263ffffffff1660e01b8152600401610a41919061309b565b602060405180830381865afa158015610a5e573d6000803e3d6000fd5b505050506040513d601f19601f82011682018060405250810190610a8291906131a8565b905082811015610bee576000610aa1828561273f90919063ffffffff16565b9050600a60009054906101000a900473ffffffffffffffffffffffffffffffffffffffff1673ffffffffffffffffffffffffffffffffffffffff16632e1a7d4d826040518263ffffffff1660e01b8152600401610afe9190612eea565b600060405180830381600087803b158015610b1857600080fd5b505af1158015610b2c573d6000803e3d6000fd5b505050506000610b3a610828565b73ffffffffffffffffffffffffffffffffffffffff166370a08231306040518263ffffffff1660e01b8152600401610b72919061309b565b602060405180830381865afa158015610b8f573d6000803e3d6000fd5b505050506040513d601f19601f82011682018060405250810190610bb391906131a8565b90506000610bca848361273f90919063ffffffff16565b905082811015610bea57610be7818561221990919063ffffffff16565b95505b5050505b610c203383610bfb6108c0565b73ffffffffffffffffffffffffffffffffffffffff166127559092919063ffffffff16565b610c523384610c2d610828565b73ffffffffffffffffffffffffffffffffffffffff166127559092919063ffffffff16565b50505050565b60006012905090565b600080610c6c612046565b9050610d00818585600160008673ffffffffffffffffffffffffffffffffffffffff1673ffffffffffffffffffffffffffffffffffffffff16815260200190815260200160002060008973ffffffffffffffffffffffffffffffffffffffff1673ffffffffffffffffffffffffffffffffffffffff16815260200190815260200160002054610cfb919061326f565b61204e565b600191505092915050565b6000610d156113c9565b905090565b600080610d2561081e565b14610d6a57610d65610d3561081e565b610d57670de0b6b3a7640000610d496106f4565b61253c90919063ffffffff16565b61255290919063ffffffff16565b610d74565b670de0b6b3a76400005b905090565b610d81612046565b73ffffffffffffffffffffffffffffffffffffffff16610d9f61130d565b73ffffffffffffffffffffffffffffffffffffffff1614610df5576040517f08c379a0000000000000000000000000000000000000000000000000000000008152600401610dec90613311565b60405180910390fd5b8073ffffffffffffffffffffffffffffffffffffffff1663fbfa77cf6040518163ffffffff1660e01b8152600401602060405180830381865afa158015610e40573d6000803e3d6000fd5b505050506040513d601f19601f82011682018060405250810190610e649190613346565b73ffffffffffffffffffffffffffffffffffffffff163073ffffffffffffffffffffffffffffffffffffffff1614610ed1576040517f08c379a0000000000000000000000000000000000000000000000000000000008152600401610ec8906133e5565b60405180910390fd5b60001515600760009054906101000a900460ff16151514610f27576040517f08c379a0000000000000000000000000000000000000000000000000000000008152600401610f1e90613451565b60405180910390fd5b80600a60006101000a81548173ffffffffffffffffffffffffffffffffffffffff021916908373ffffffffffffffffffffffffffffffffffffffff1602179055506001600760006101000a81548160ff02191690831515021790555050565b610f8e612046565b73ffffffffffffffffffffffffffffffffffffffff16610fac61130d565b73ffffffffffffffffffffffffffffffffffffffff1614611002576040517f08c379a0000000000000000000000000000000000000000000000000000000008152600401610ff990613311565b60405180910390fd5b8073ffffffffffffffffffffffffffffffffffffffff1663fbfa77cf6040518163ffffffff1660e01b8152600401602060405180830381865afa15801561104d573d6000803e3d6000fd5b505050506040513d601f19601f820116820180604052508101906110719190613346565b73ffffffffffffffffffffffffffffffffffffffff163073ffffffffffffffffffffffffffffffffffffffff16146110de576040517f08c379a00000000000000000000000000000000000000000000000000000000081526004016110d5906133e5565b60405180910390fd5b60405180604001604052808273ffffffffffffffffffffffffffffffffffffffff16815260200142815250600860008201518160000160006101000a81548173ffffffffffffffffffffffffffffffffffffffff021916908373ffffffffffffffffffffffffffffffffffffffff160217905550602082015181600101559050507f1aae2ec5647db56da2d513de40528ba3565c6057525637050660c4323bbac7df8160405161118e919061309b565b60405180910390a150565b6000806111a461081e565b146111e9576111e46111b461081e565b6111d6670de0b6b3a76400006111c8611811565b61253c90919063ffffffff16565b61255290919063ffffffff16565b6111f3565b670de0b6b3a76400005b905090565b60008060008373ffffffffffffffffffffffffffffffffffffffff1673ffffffffffffffffffffffffffffffffffffffff168152602001908152602001600020549050919050565b611248612046565b73ffffffffffffffffffffffffffffffffffffffff1661126661130d565b73ffffffffffffffffffffffffffffffffffffffff16146112bc576040517f08c379a00000000000000000000000000000000000000000000000000000000081526004016112b390613311565b60405180910390fd5b6112c660006127db565b565b60088060000160009054906101000a900473ffffffffffffffffffffffffffffffffffffffff16908060010154905082565b61130b611306336111f8565b610987565b565b6000600560009054906101000a900473ffffffffffffffffffffffffffffffffffffffff16905090565b60606004805461134690613161565b80601f016020809104026020016040519081016040528092919081815260200182805461137290613161565b80156113bf5780601f10611394576101008083540402835291602001916113bf565b820191906000526020600020905b8154815290600101906020018083116113a257829003601f168201915b5050505050905090565b60006113d3610828565b73ffffffffffffffffffffffffffffffffffffffff166370a08231306040518263ffffffff1660e01b815260040161140b919061309b565b602060405180830381865afa158015611428573d6000803e3d6000fd5b505050506040513d601f19601f8201168201806040525081019061144c91906131a8565b905090565b60008061145c612046565b90506000600160008373ffffffffffffffffffffffffffffffffffffffff1673ffffffffffffffffffffffffffffffffffffffff16815260200190815260200160002060008673ffffffffffffffffffffffffffffffffffffffff1673ffffffffffffffffffffffffffffffffffffffff16815260200190815260200160002054905083811015611522576040517f08c379a0000000000000000000000000000000000000000000000000000000008152600401611519906134e3565b60405180910390fd5b61152f828686840361204e565b60019250505092915050565b600a60009054906101000a900473ffffffffffffffffffffffffffffffffffffffff1681565b60008061156c612046565b90506115798185856122bb565b600191505092915050565b600061158e6106f4565b905090565b600260065414156115d9576040517f08c379a00000000000000000000000000000000000000000000000000000000081526004016115d09061354f565b60405180910390fd5b6002600681905550600a60009054906101000a900473ffffffffffffffffffffffffffffffffffffffff1673ffffffffffffffffffffffffffffffffffffffff1663573fef0a6040518163ffffffff1660e01b8152600401600060405180830381600087803b15801561164b57600080fd5b505af115801561165f573d6000803e3d6000fd5b50505050600061166d6106f4565b90506116a333308461167d610828565b73ffffffffffffffffffffffffffffffffffffffff166128a1909392919063ffffffff16565b6116ab61172c565b60006116b56106f4565b90506116ca828261273f90919063ffffffff16565b92506000806116d761081e565b14156116e557839050611714565b611711836117036116f461081e565b8761253c90919063ffffffff16565b61255290919063ffffffff16565b90505b61171e338261292a565b505050600160068190555050565b60006117366113c9565b905061178c600a60009054906101000a900473ffffffffffffffffffffffffffffffffffffffff1682611767610828565b73ffffffffffffffffffffffffffffffffffffffff166127559092919063ffffffff16565b600a60009054906101000a900473ffffffffffffffffffffffffffffffffffffffff1673ffffffffffffffffffffffffffffffffffffffff1663d0e30db06040518163ffffffff1660e01b8152600401600060405180830381600087803b1580156117f657600080fd5b505af115801561180a573d6000803e3d6000fd5b5050505050565b600061194861181e6108c0565b73ffffffffffffffffffffffffffffffffffffffff166370a08231600a60009054906101000a900473ffffffffffffffffffffffffffffffffffffffff166040518263ffffffff1660e01b8152600401611878919061309b565b602060405180830381865afa158015611895573d6000803e3d6000fd5b505050506040513d601f19601f820116820180604052508101906118b991906131a8565b6118c16108c0565b73ffffffffffffffffffffffffffffffffffffffff166370a08231306040518263ffffffff1660e01b81526004016118f9919061309b565b602060405180830381865afa158015611916573d6000803e3d6000fd5b505050506040513d601f19601f8201168201806040525081019061193a91906131a8565b61221990919063ffffffff16565b905090565b6000600160008473ffffffffffffffffffffffffffffffffffffffff1673ffffffffffffffffffffffffffffffffffffffff16815260200190815260200160002060008373ffffffffffffffffffffffffffffffffffffffff1673ffffffffffffffffffffffffffffffffffffffff16815260200190815260200160002054905092915050565b611a5d6119df610828565b73ffffffffffffffffffffffffffffffffffffffff166370a08231336040518263ffffffff1660e01b8152600401611a17919061309b565b602060405180830381865afa158015611a34573d6000803e3d6000fd5b505050506040513d601f19601f82011682018060405250810190611a5891906131a8565b611593565b565b611a67612046565b73ffffffffffffffffffffffffffffffffffffffff16611a8561130d565b73ffffffffffffffffffffffffffffffffffffffff1614611adb576040517f08c379a0000000000000000000000000000000000000000000000000000000008152600401611ad290613311565b60405180910390fd5b611ae3610828565b73ffffffffffffffffffffffffffffffffffffffff168173ffffffffffffffffffffffffffffffffffffffff161415611b51576040517f08c379a0000000000000000000000000000000000000000000000000000000008152600401611b48906135bb565b60405180910390fd5b60008173ffffffffffffffffffffffffffffffffffffffff166370a08231306040518263ffffffff1660e01b8152600401611b8c919061309b565b602060405180830381865afa158015611ba9573d6000803e3d6000fd5b505050506040513d601f19601f82011682018060405250810190611bcd91906131a8565b9050611bfa33828473ffffffffffffffffffffffffffffffffffffffff166127559092919063ffffffff16565b5050565b7f000000000000000000000000000000000000000000000000000000000000000081565b611c2a612046565b73ffffffffffffffffffffffffffffffffffffffff16611c4861130d565b73ffffffffffffffffffffffffffffffffffffffff1614611c9e576040517f08c379a0000000000000000000000000000000000000000000000000000000008152600401611c9590613311565b60405180910390fd5b600073ffffffffffffffffffffffffffffffffffffffff16600860000160009054906101000a900473ffffffffffffffffffffffffffffffffffffffff1673ffffffffffffffffffffffffffffffffffffffff161415611d33576040517f08c379a0000000000000000000000000000000000000000000000000000000008152600401611d2a90613627565b60405180910390fd5b42611d6c7f000000000000000000000000000000000000000000000000000000000000000060086001015461221990919063ffffffff16565b10611dac576040517f08c379a0000000000000000000000000000000000000000000000000000000008152600401611da390613693565b60405180910390fd5b7f7f37d440e85aba7fbf641c4bda5ca4ef669a80bffaacde2aa8d9feb1b048c82c600860000160009054906101000a900473ffffffffffffffffffffffffffffffffffffffff16604051611e00919061309b565b60405180910390a1600a60009054906101000a900473ffffffffffffffffffffffffffffffffffffffff1673ffffffffffffffffffffffffffffffffffffffff1663fb6177876040518163ffffffff1660e01b8152600401600060405180830381600087803b158015611e7257600080fd5b505af1158015611e86573d6000803e3d6000fd5b50505050600860000160009054906101000a900473ffffffffffffffffffffffffffffffffffffffff16600a60006101000a81548173ffffffffffffffffffffffffffffffffffffffff021916908373ffffffffffffffffffffffffffffffffffffffff1602179055506000600860000160006101000a81548173ffffffffffffffffffffffffffffffffffffffff021916908373ffffffffffffffffffffffffffffffffffffffff16021790555064012a05f200600860010181905550611f4c61172c565b565b611f56612046565b73ffffffffffffffffffffffffffffffffffffffff16611f7461130d565b73ffffffffffffffffffffffffffffffffffffffff1614611fca576040517f08c379a0000000000000000000000000000000000000000000000000000000008152600401611fc190613311565b60405180910390fd5b600073ffffffffffffffffffffffffffffffffffffffff168173ffffffffffffffffffffffffffffffffffffffff16141561203a576040517f08c379a000000000000000000000000000000000000000000000000000000000815260040161203190613725565b60405180910390fd5b612043816127db565b50565b600033905090565b600073ffffffffffffffffffffffffffffffffffffffff168373ffffffffffffffffffffffffffffffffffffffff1614156120be576040517f08c379a00000000000000000000000000000000000000000000000000000000081526004016120b5906137b7565b60405180910390fd5b600073ffffffffffffffffffffffffffffffffffffffff168273ffffffffffffffffffffffffffffffffffffffff16141561212e576040517f08c379a000000000000000000000000000000000000000000000000000000000815260040161212590613849565b60405180910390fd5b80600160008573ffffffffffffffffffffffffffffffffffffffff1673ffffffffffffffffffffffffffffffffffffffff16815260200190815260200160002060008473ffffffffffffffffffffffffffffffffffffffff1673ffffffffffffffffffffffffffffffffffffffff168152602001908152602001600020819055508173ffffffffffffffffffffffffffffffffffffffff168373ffffffffffffffffffffffffffffffffffffffff167f8c5be1e5ebec7d5bd14f71427d1e84f3dd0314c0f7b2291e5b200ac8c7c3b9258360405161220c9190612eea565b60405180910390a3505050565b60008183612227919061326f565b905092915050565b600061223b848461194d565b90507fffffffffffffffffffffffffffffffffffffffffffffffffffffffffffffffff81146122b557818110156122a7576040517f08c379a000000000000000000000000000000000000000000000000000000000815260040161229e906138b5565b60405180910390fd5b6122b4848484840361204e565b5b50505050565b600073ffffffffffffffffffffffffffffffffffffffff168373ffffffffffffffffffffffffffffffffffffffff16141561232b576040517f08c379a000000000000000000000000000000000000000000000000000000000815260040161232290613947565b60405180910390fd5b600073ffffffffffffffffffffffffffffffffffffffff168273ffffffffffffffffffffffffffffffffffffffff16141561239b576040517f08c379a0000000000000000000000000000000000000000000000000000000008152600401612392906139d9565b60405180910390fd5b6123a6838383612a8a565b60008060008573ffffffffffffffffffffffffffffffffffffffff1673ffffffffffffffffffffffffffffffffffffffff1681526020019081526020016000205490508181101561242c576040517f08c379a000000000000000000000000000000000000000000000000000000000815260040161242390613a6b565b60405180910390fd5b8181036000808673ffffffffffffffffffffffffffffffffffffffff1673ffffffffffffffffffffffffffffffffffffffff16815260200190815260200160002081905550816000808573ffffffffffffffffffffffffffffffffffffffff1673ffffffffffffffffffffffffffffffffffffffff16815260200190815260200160002060008282546124bf919061326f565b925050819055508273ffffffffffffffffffffffffffffffffffffffff168473ffffffffffffffffffffffffffffffffffffffff167fddf252ad1be2c89b69c2b068fc378daa952ba7f163c4a11628f55a4df523b3ef846040516125239190612eea565b60405180910390a3612536848484612a8f565b50505050565b6000818361254a9190613a8b565b905092915050565b600081836125609190613b14565b905092915050565b600073ffffffffffffffffffffffffffffffffffffffff168273ffffffffffffffffffffffffffffffffffffffff1614156125d8576040517f08c379a00000000000000000000000000000000000000000000000000000000081526004016125cf90613bb7565b60405180910390fd5b6125e482600083612a8a565b60008060008473ffffffffffffffffffffffffffffffffffffffff1673ffffffffffffffffffffffffffffffffffffffff1681526020019081526020016000205490508181101561266a576040517f08c379a000000000000000000000000000000000000000000000000000000000815260040161266190613c49565b60405180910390fd5b8181036000808573ffffffffffffffffffffffffffffffffffffffff1673ffffffffffffffffffffffffffffffffffffffff1681526020019081526020016000208190555081600260008282546126c19190613c69565b92505081905550600073ffffffffffffffffffffffffffffffffffffffff168373ffffffffffffffffffffffffffffffffffffffff167fddf252ad1be2c89b69c2b068fc378daa952ba7f163c4a11628f55a4df523b3ef846040516127269190612eea565b60405180910390a361273a83600084612a8f565b505050565b6000818361274d9190613c69565b905092915050565b6127d68363a9059cbb60e01b8484604051602401612774929190613072565b604051602081830303815290604052907bffffffffffffffffffffffffffffffffffffffffffffffffffffffff19166020820180517bffffffffffffffffffffffffffffffffffffffffffffffffffffffff8381831617835250505050612a94565b505050565b6000600560009054906101000a900473ffffffffffffffffffffffffffffffffffffffff16905081600560006101000a81548173ffffffffffffffffffffffffffffffffffffffff021916908373ffffffffffffffffffffffffffffffffffffffff1602179055508173ffffffffffffffffffffffffffffffffffffffff168173ffffffffffffffffffffffffffffffffffffffff167f8be0079c531659141344cd1fd0a4f28419497f9722a3daafe3b4186f6b6457e060405160405180910390a35050565b612924846323b872dd60e01b8585856040516024016128c293929190613c9d565b604051602081830303815290604052907bffffffffffffffffffffffffffffffffffffffffffffffffffffffff19166020820180517bffffffffffffffffffffffffffffffffffffffffffffffffffffffff8381831617835250505050612a94565b50505050565b600073ffffffffffffffffffffffffffffffffffffffff168273ffffffffffffffffffffffffffffffffffffffff16141561299a576040517f08c379a000000000000000000000000000000000000000000000000000000000815260040161299190613d20565b60405180910390fd5b6129a660008383612a8a565b80600260008282546129b8919061326f565b92505081905550806000808473ffffffffffffffffffffffffffffffffffffffff1673ffffffffffffffffffffffffffffffffffffffff1681526020019081526020016000206000828254612a0d919061326f565b925050819055508173ffffffffffffffffffffffffffffffffffffffff16600073ffffffffffffffffffffffffffffffffffffffff167fddf252ad1be2c89b69c2b068fc378daa952ba7f163c4a11628f55a4df523b3ef83604051612a729190612eea565b60405180910390a3612a8660008383612a8f565b5050565b505050565b505050565b6000612af6826040518060400160405280602081526020017f5361666545524332303a206c6f772d6c6576656c2063616c6c206661696c65648152508573ffffffffffffffffffffffffffffffffffffffff16612b5b9092919063ffffffff16565b9050600081511115612b565780806020019051810190612b169190613d6c565b612b55576040517f08c379a0000000000000000000000000000000000000000000000000000000008152600401612b4c90613e0b565b60405180910390fd5b5b505050565b6060612b6a8484600085612b73565b90509392505050565b606082471015612bb8576040517f08c379a0000000000000000000000000000000000000000000000000000000008152600401612baf90613e9d565b60405180910390fd5b612bc185612c87565b612c00576040517f08c379a0000000000000000000000000000000000000000000000000000000008152600401612bf790613f09565b60405180910390fd5b6000808673ffffffffffffffffffffffffffffffffffffffff168587604051612c299190613f70565b60006040518083038185875af1925050503d8060008114612c66576040519150601f19603f3d011682016040523d82523d6000602084013e612c6b565b606091505b5091509150612c7b828286612caa565b92505050949350505050565b6000808273ffffffffffffffffffffffffffffffffffffffff163b119050919050565b60608315612cba57829050612d0a565b600083511115612ccd5782518084602001fd5b816040517f08c379a0000000000000000000000000000000000000000000000000000000008152600401612d019190612daa565b60405180910390fd5b9392505050565b600081519050919050565b600082825260208201905092915050565b60005b83811015612d4b578082015181840152602081019050612d30565b83811115612d5a576000848401525b50505050565b6000601f19601f8301169050919050565b6000612d7c82612d11565b612d868185612d1c565b9350612d96818560208601612d2d565b612d9f81612d60565b840191505092915050565b60006020820190508181036000830152612dc48184612d71565b905092915050565b600080fd5b600073ffffffffffffffffffffffffffffffffffffffff82169050919050565b6000612dfc82612dd1565b9050919050565b612e0c81612df1565b8114612e1757600080fd5b50565b600081359050612e2981612e03565b92915050565b6000819050919050565b612e4281612e2f565b8114612e4d57600080fd5b50565b600081359050612e5f81612e39565b92915050565b60008060408385031215612e7c57612e7b612dcc565b5b6000612e8a85828601612e1a565b9250506020612e9b85828601612e50565b9150509250929050565b60008115159050919050565b612eba81612ea5565b82525050565b6000602082019050612ed56000830184612eb1565b92915050565b612ee481612e2f565b82525050565b6000602082019050612eff6000830184612edb565b92915050565b6000819050919050565b6000612f2a612f25612f2084612dd1565b612f05565b612dd1565b9050919050565b6000612f3c82612f0f565b9050919050565b6000612f4e82612f31565b9050919050565b612f5e81612f43565b82525050565b6000602082019050612f796000830184612f55565b92915050565b600080600060608486031215612f9857612f97612dcc565b5b6000612fa686828701612e1a565b9350506020612fb786828701612e1a565b9250506040612fc886828701612e50565b9150509250925092565b600060208284031215612fe857612fe7612dcc565b5b6000612ff684828501612e50565b91505092915050565b600060ff82169050919050565b61301581612fff565b82525050565b6000602082019050613030600083018461300c565b92915050565b60006020828403121561304c5761304b612dcc565b5b600061305a84828501612e1a565b91505092915050565b61306c81612df1565b82525050565b60006040820190506130876000830185613063565b6130946020830184612edb565b9392505050565b60006020820190506130b06000830184613063565b92915050565b60006130c182612f31565b9050919050565b6130d1816130b6565b82525050565b60006020820190506130ec60008301846130c8565b92915050565b6000806040838503121561310957613108612dcc565b5b600061311785828601612e1a565b925050602061312885828601612e1a565b9150509250929050565b7f4e487b7100000000000000000000000000000000000000000000000000000000600052602260045260246000fd5b6000600282049050600182168061317957607f821691505b6020821081141561318d5761318c613132565b5b50919050565b6000815190506131a281612e39565b92915050565b6000602082840312156131be576131bd612dcc565b5b60006131cc84828501613193565b91505092915050565b60006131e082612df1565b9050919050565b6131f0816131d5565b81146131fb57600080fd5b50565b60008151905061320d816131e7565b92915050565b60006020828403121561322957613228612dcc565b5b6000613237848285016131fe565b91505092915050565b7f4e487b7100000000000000000000000000000000000000000000000000000000600052601160045260246000fd5b600061327a82612e2f565b915061328583612e2f565b9250827fffffffffffffffffffffffffffffffffffffffffffffffffffffffffffffffff038211156132ba576132b9613240565b5b828201905092915050565b7f4f776e61626c653a2063616c6c6572206973206e6f7420746865206f776e6572600082015250565b60006132fb602083612d1c565b9150613306826132c5565b602082019050919050565b6000602082019050818103600083015261332a816132ee565b9050919050565b60008151905061334081612e03565b92915050565b60006020828403121561335c5761335b612dcc565b5b600061336a84828501613331565b91505092915050565b7f50726f706f73616c206e6f742076616c696420666f722074686973205661756c60008201527f7400000000000000000000000000000000000000000000000000000000000000602082015250565b60006133cf602183612d1c565b91506133da82613373565b604082019050919050565b600060208201905081810360008301526133fe816133c2565b9050919050565b7f4f6e6c7920312074696d65000000000000000000000000000000000000000000600082015250565b600061343b600b83612d1c565b915061344682613405565b602082019050919050565b6000602082019050818103600083015261346a8161342e565b9050919050565b7f45524332303a2064656372656173656420616c6c6f77616e63652062656c6f7760008201527f207a65726f000000000000000000000000000000000000000000000000000000602082015250565b60006134cd602583612d1c565b91506134d882613471565b604082019050919050565b600060208201905081810360008301526134fc816134c0565b9050919050565b7f5265656e7472616e637947756172643a207265656e7472616e742063616c6c00600082015250565b6000613539601f83612d1c565b915061354482613503565b602082019050919050565b600060208201905081810360008301526135688161352c565b9050919050565b7f21746f6b656e0000000000000000000000000000000000000000000000000000600082015250565b60006135a5600683612d1c565b91506135b08261356f565b602082019050919050565b600060208201905081810360008301526135d481613598565b9050919050565b7f5468657265206973206e6f2063616e6469646174650000000000000000000000600082015250565b6000613611601583612d1c565b915061361c826135db565b602082019050919050565b6000602082019050818103600083015261364081613604565b9050919050565b7f44656c617920686173206e6f7420706173736564000000000000000000000000600082015250565b600061367d601483612d1c565b915061368882613647565b602082019050919050565b600060208201905081810360008301526136ac81613670565b9050919050565b7f4f776e61626c653a206e6577206f776e657220697320746865207a65726f206160008201527f6464726573730000000000000000000000000000000000000000000000000000602082015250565b600061370f602683612d1c565b915061371a826136b3565b604082019050919050565b6000602082019050818103600083015261373e81613702565b9050919050565b7f45524332303a20617070726f76652066726f6d20746865207a65726f2061646460008201527f7265737300000000000000000000000000000000000000000000000000000000602082015250565b60006137a1602483612d1c565b91506137ac82613745565b604082019050919050565b600060208201905081810360008301526137d081613794565b9050919050565b7f45524332303a20617070726f766520746f20746865207a65726f20616464726560008201527f7373000000000000000000000000000000000000000000000000000000000000602082015250565b6000613833602283612d1c565b915061383e826137d7565b604082019050919050565b6000602082019050818103600083015261386281613826565b9050919050565b7f45524332303a20696e73756666696369656e7420616c6c6f77616e6365000000600082015250565b600061389f601d83612d1c565b91506138aa82613869565b602082019050919050565b600060208201905081810360008301526138ce81613892565b9050919050565b7f45524332303a207472616e736665722066726f6d20746865207a65726f20616460008201527f6472657373000000000000000000000000000000000000000000000000000000602082015250565b6000613931602583612d1c565b915061393c826138d5565b604082019050919050565b6000602082019050818103600083015261396081613924565b9050919050565b7f45524332303a207472616e7366657220746f20746865207a65726f206164647260008201527f6573730000000000000000000000000000000000000000000000000000000000602082015250565b60006139c3602383612d1c565b91506139ce82613967565b604082019050919050565b600060208201905081810360008301526139f2816139b6565b9050919050565b7f45524332303a207472616e7366657220616d6f756e742065786365656473206260008201527f616c616e63650000000000000000000000000000000000000000000000000000602082015250565b6000613a55602683612d1c565b9150613a60826139f9565b604082019050919050565b60006020820190508181036000830152613a8481613a48565b9050919050565b6000613a9682612e2f565b9150613aa183612e2f565b9250817fffffffffffffffffffffffffffffffffffffffffffffffffffffffffffffffff0483118215151615613ada57613ad9613240565b5b828202905092915050565b7f4e487b7100000000000000000000000000000000000000000000000000000000600052601260045260246000fd5b6000613b1f82612e2f565b9150613b2a83612e2f565b925082613b3a57613b39613ae5565b5b828204905092915050565b7f45524332303a206275726e2066726f6d20746865207a65726f2061646472657360008201527f7300000000000000000000000000000000000000000000000000000000000000602082015250565b6000613ba1602183612d1c565b9150613bac82613b45565b604082019050919050565b60006020820190508181036000830152613bd081613b94565b9050919050565b7f45524332303a206275726e20616d6f756e7420657863656564732062616c616e60008201527f6365000000000000000000000000000000000000000000000000000000000000602082015250565b6000613c33602283612d1c565b9150613c3e82613bd7565b604082019050919050565b60006020820190508181036000830152613c6281613c26565b9050919050565b6000613c7482612e2f565b9150613c7f83612e2f565b925082821015613c9257613c91613240565b5b828203905092915050565b6000606082019050613cb26000830186613063565b613cbf6020830185613063565b613ccc6040830184612edb565b949350505050565b7f45524332303a206d696e7420746f20746865207a65726f206164647265737300600082015250565b6000613d0a601f83612d1c565b9150613d1582613cd4565b602082019050919050565b60006020820190508181036000830152613d3981613cfd565b9050919050565b613d4981612ea5565b8114613d5457600080fd5b50565b600081519050613d6681613d40565b92915050565b600060208284031215613d8257613d81612dcc565b5b6000613d9084828501613d57565b91505092915050565b7f5361666545524332303a204552433230206f7065726174696f6e20646964206e60008201527f6f74207375636365656400000000000000000000000000000000000000000000602082015250565b6000613df5602a83612d1c565b9150613e0082613d99565b604082019050919050565b60006020820190508181036000830152613e2481613de8565b9050919050565b7f416464726573733a20696e73756666696369656e742062616c616e636520666f60008201527f722063616c6c0000000000000000000000000000000000000000000000000000602082015250565b6000613e87602683612d1c565b9150613e9282613e2b565b604082019050919050565b60006020820190508181036000830152613eb681613e7a565b9050919050565b7f416464726573733a2063616c6c20746f206e6f6e2d636f6e7472616374000000600082015250565b6000613ef3601d83612d1c565b9150613efe82613ebd565b602082019050919050565b60006020820190508181036000830152613f2281613ee6565b9050919050565b600081519050919050565b600081905092915050565b6000613f4a82613f29565b613f548185613f34565b9350613f64818560208601612d2d565b80840191505092915050565b6000613f7c8284613f3f565b91508190509291505056fea26469706673582212205fa059ea332536dd226afa599d96f02d245d74e299a41780c5815dd68f1393e064736f6c634300080b0033",
  "immutableReferences": {
    "15362": [
      {
        "length": 32,
        "start": 7168
      },
      {
        "length": 32,
        "start": 7481
      }
    ]
  },
  "source": "// SPDX-License-Identifier: MIT\npragma solidity 0.8.11;\nimport \"hardhat/console.sol\";\n\nimport \"@openzeppelin/contracts/token/ERC20/ERC20.sol\";\nimport \"@openzeppelin/contracts/access/Ownable.sol\";\nimport \"@openzeppelin/contracts/token/ERC20/utils/SafeERC20.sol\";\nimport \"@openzeppelin/contracts/security/ReentrancyGuard.sol\";\nimport \"@openzeppelin/contracts/utils/math/SafeMath.sol\";\n\nimport \"../interfaces/poolify/IStrategy.sol\";\n\n/**\n * @dev Implementation of a vault to deposit funds for yield optimizing.\n * This is the contract that receives funds and that users interface with.\n * The yield optimizing strategy itself is implemented in a separate 'Strategy.sol' contract.\n */\ncontract PLFY_Vault is ERC20, Ownable, ReentrancyGuard {\n    using SafeERC20 for IERC20;\n    using SafeMath for uint256;\n\n    struct StratCandidate {\n        address implementation;\n        uint proposedTime;\n    }\n    // To initialize with 1 strategy\n    bool isStrategyInitialized = false;\n    // The last proposed strategy to switch to.\n    StratCandidate public stratCandidate;\n    // The strategy currently in use by the vault.\n    IStrategy public strategy;\n    // The minimum time it has to pass before a strat candidate can be approved.\n    uint256 public immutable approvalDelay;\n\n    event NewStratCandidate(address implementation);\n    event UpgradeStrat(address implementation);\n\n    /**\n     * @dev Sets the value of {token} to the token that the vault will\n     * hold as underlying value. It initializes the vault's own 'moo' token.\n     * This token is minted when someone does a deposit. It is burned in order\n     * to withdraw the corresponding portion of the underlying assets.\n     * @param _name the name of the vault token.\n     * @param _symbol the symbol of the vault token.\n     * @param _approvalDelay the delay before a new strat can be approved.\n     */\n    constructor (\n        //IStrategy _strategy,\n        string memory _name,\n        string memory _symbol,\n        uint256 _approvalDelay\n    ) ERC20(\n        _name,\n        _symbol\n    ) {\n        //strategy = _strategy;\n        approvalDelay = _approvalDelay;\n    }\n\n    function setDefaultStrategy(address _strategy) public onlyOwner{\n        require(address(this) == IStrategy(_strategy).vault(), \"Proposal not valid for this Vault\");\n        require(isStrategyInitialized == false,\"Only 1 time\");\n        strategy = IStrategy(_strategy);\n        isStrategyInitialized = true;\n    }\n\n    function want() public view returns (IERC20) {\n        return IERC20(strategy.want());\n    }\n\n    function reward() public view returns (IERC20) {\n        return IERC20(strategy.reward());\n    }\n\n    /** \n     * @dev Balance of Rewards\n     */\n    function balance_reward() public view returns (uint) {\n        return reward().balanceOf(address(this)).add(reward().balanceOf(address(strategy)));\n    }\n\n\n    /**\n     * @dev Function to return the amount of Rewards based on the share\n     */\n    function getPricePerFullShare_reward() public view returns (uint256) {\n        return totalSupply() == 0 ? 1e18 : balance_reward().mul(1e18).div(totalSupply());\n    }\n\n     /** \n     * @dev It calculates the total underlying value of {token} held by the system.\n     * It takes into account the vault contract balance, the strategy contract balance\n     *  and the balance deployed in other contracts as part of the strategy.\n     */\n    function balance_want() public view returns (uint) {\n        return want().balanceOf(address(this)).add(IStrategy(strategy).balanceOf());\n    }\n\n    // For Front End\n    function balance() public view returns (uint) {\n        return balance_want();\n    }\n\n    /**\n     * @dev Custom logic in here for how much the vault allows to be borrowed.\n     * We return 100% of tokens for now. Under certain conditions we might\n     * want to keep some of the system funds at hand in the vault, instead\n     * of putting them to work.\n     */\n    function available_want() public view returns (uint256) {\n        return want().balanceOf(address(this));\n    }\n\n    // For Front End\n    function available() public view returns (uint256) {\n        return available_want();\n    }\n\n    /**\n     * @dev Function for various UIs to display the current value of one of our yield tokens.\n     * Returns an uint256 with 18 decimals of how much underlying asset one vault share represents.\n     */\n    function getPricePerFullShare_want() public view returns (uint256) {\n        return totalSupply() == 0 ? 1e18 : balance_want().mul(1e18).div(totalSupply());\n    }\n\n    /**\n     * @dev A helper function to call deposit() with all the sender's funds.\n     */\n    function depositAll() external {\n        deposit(want().balanceOf(msg.sender));\n    }\n\n    /**\n     * @dev The entrypoint of funds into the system. People deposit with this function\n     * into the vault. The vault is then in charge of sending funds into the strategy.\n     */\n    function deposit(uint _amount) public nonReentrant {\n        strategy.beforeDeposit();\n\n        uint256 _pool = balance_want();\n        want().safeTransferFrom(msg.sender, address(this), _amount);\n        earn();\n        uint256 _after = balance_want();\n        _amount = _after.sub(_pool); // Additional check for deflationary tokens\n        uint256 shares = 0;\n        if (totalSupply() == 0) {\n            shares = _amount;\n        } else {\n            shares = (_amount.mul(totalSupply())).div(_pool);\n        }\n        _mint(msg.sender, shares);\n    }\n\n    /**\n     * @dev Function to send funds into the strategy and put them to work. It's primarily called\n     * by the vault's deposit() function.\n     */\n    function earn() public {\n        uint _bal = available_want();\n        want().safeTransfer(address(strategy), _bal);\n        strategy.deposit();\n    }\n\n    /**\n     * @dev A helper function to call withdraw() with all the sender's funds.\n     */\n    function withdrawAll() external {\n        withdraw(balanceOf(msg.sender));\n    }\n\n    /**\n     * @dev Function to exit the system. The vault will withdraw the required tokens\n     * from the strategy and pay up the token holder. A proportional number of ICE\n     * tokens are burned in the process.\n     */\n    function withdraw(uint256 _shares) public {\n        uint256 _want = (balance_want().mul(_shares)).div(totalSupply());\n        uint256 _rewards = (balance_reward().mul(_shares)).div(totalSupply());\n        _burn(msg.sender, _shares);\n\n        uint bal = want().balanceOf(address(this));\n        // To optimize the calls we only withdraw if there is not enough in the vault\n        if (bal < _want) {\n            uint _withdraw = _want.sub(bal);\n            strategy.withdraw(_withdraw);\n            uint _after = want().balanceOf(address(this));\n            uint _diff = _after.sub(bal);\n            if (_diff < _withdraw) {\n                _want = bal.add(_diff);\n            }\n        }\n        reward().safeTransfer(msg.sender, _rewards);\n        want().safeTransfer(msg.sender, _want);\n    }\n\n    /** \n     * @dev Sets the candidate for the new strat to use with this vault.\n     * @param _implementation The address of the candidate strategy.  \n     */\n    function proposeStrat(address _implementation) public onlyOwner {\n        require(address(this) == IStrategy(_implementation).vault(), \"Proposal not valid for this Vault\");\n        stratCandidate = StratCandidate({\n            implementation: _implementation,\n            proposedTime: block.timestamp\n         });\n\n        emit NewStratCandidate(_implementation);\n    }\n\n    /** \n     * @dev It switches the active strat for the strat candidate. After upgrading, the \n     * candidate implementation is set to the 0x00 address, and proposedTime to a time \n     * happening in +100 years for safety. \n     */\n\n    function upgradeStrat() public onlyOwner {\n        require(stratCandidate.implementation != address(0), \"There is no candidate\");\n        require(stratCandidate.proposedTime.add(approvalDelay) < block.timestamp, \"Delay has not passed\");\n\n        emit UpgradeStrat(stratCandidate.implementation);\n\n        strategy.retireStrat();\n        strategy = IStrategy(stratCandidate.implementation);\n        stratCandidate.implementation = address(0);\n        stratCandidate.proposedTime = 5000000000;\n\n        earn();\n    }\n\n    /**\n     * @dev Rescues random funds stuck that the strat can't handle.\n     * @param _token address of the token to rescue.\n     */\n    function inCaseTokensGetStuck(address _token) external onlyOwner {\n        require(_token != address(want()), \"!token\");\n\n        uint256 amount = IERC20(_token).balanceOf(address(this));\n        IERC20(_token).safeTransfer(msg.sender, amount);\n    }\n}\n",
  "sourcePath": "/home/trakers/Documents/crypto/poolify-official/contracts/src/contracts/vaults/PLFY_Vault.sol",
  "compiler": {
    "name": "solc",
    "version": "0.8.11+commit.d7f03943.Emscripten.clang"
  },
  "schemaVersion": "3.4.4",
  "updatedAt": "2022-03-23T17:54:08.050Z",
  "networkType": "ethereum",
  "devdoc": {
    "details": "Implementation of a vault to deposit funds for yield optimizing. This is the contract that receives funds and that users interface with. The yield optimizing strategy itself is implemented in a separate 'Strategy.sol' contract.",
    "kind": "dev",
    "methods": {
      "allowance(address,address)": {
        "details": "See {IERC20-allowance}."
      },
      "approve(address,uint256)": {
        "details": "See {IERC20-approve}. NOTE: If `amount` is the maximum `uint256`, the allowance is not updated on `transferFrom`. This is semantically equivalent to an infinite approval. Requirements: - `spender` cannot be the zero address."
      },
      "available_want()": {
        "details": "Custom logic in here for how much the vault allows to be borrowed. We return 100% of tokens for now. Under certain conditions we might want to keep some of the system funds at hand in the vault, instead of putting them to work."
      },
      "balanceOf(address)": {
        "details": "See {IERC20-balanceOf}."
      },
      "balance_reward()": {
        "details": "Balance of Rewards"
      },
      "balance_want()": {
        "details": "It calculates the total underlying value of {token} held by the system. It takes into account the vault contract balance, the strategy contract balance  and the balance deployed in other contracts as part of the strategy."
      },
      "constructor": {
        "details": "Sets the value of {token} to the token that the vault will hold as underlying value. It initializes the vault's own 'moo' token. This token is minted when someone does a deposit. It is burned in order to withdraw the corresponding portion of the underlying assets.",
        "params": {
          "_approvalDelay": "the delay before a new strat can be approved.",
          "_name": "the name of the vault token.",
          "_symbol": "the symbol of the vault token."
        }
      },
      "decimals()": {
        "details": "Returns the number of decimals used to get its user representation. For example, if `decimals` equals `2`, a balance of `505` tokens should be displayed to a user as `5.05` (`505 / 10 ** 2`). Tokens usually opt for a value of 18, imitating the relationship between Ether and Wei. This is the value {ERC20} uses, unless this function is overridden; NOTE: This information is only used for _display_ purposes: it in no way affects any of the arithmetic of the contract, including {IERC20-balanceOf} and {IERC20-transfer}."
      },
      "decreaseAllowance(address,uint256)": {
        "details": "Atomically decreases the allowance granted to `spender` by the caller. This is an alternative to {approve} that can be used as a mitigation for problems described in {IERC20-approve}. Emits an {Approval} event indicating the updated allowance. Requirements: - `spender` cannot be the zero address. - `spender` must have allowance for the caller of at least `subtractedValue`."
      },
      "deposit(uint256)": {
        "details": "The entrypoint of funds into the system. People deposit with this function into the vault. The vault is then in charge of sending funds into the strategy."
      },
      "depositAll()": {
        "details": "A helper function to call deposit() with all the sender's funds."
      },
      "earn()": {
        "details": "Function to send funds into the strategy and put them to work. It's primarily called by the vault's deposit() function."
      },
      "getPricePerFullShare_reward()": {
        "details": "Function to return the amount of Rewards based on the share"
      },
      "getPricePerFullShare_want()": {
        "details": "Function for various UIs to display the current value of one of our yield tokens. Returns an uint256 with 18 decimals of how much underlying asset one vault share represents."
      },
      "inCaseTokensGetStuck(address)": {
        "details": "Rescues random funds stuck that the strat can't handle.",
        "params": {
          "_token": "address of the token to rescue."
        }
      },
      "increaseAllowance(address,uint256)": {
        "details": "Atomically increases the allowance granted to `spender` by the caller. This is an alternative to {approve} that can be used as a mitigation for problems described in {IERC20-approve}. Emits an {Approval} event indicating the updated allowance. Requirements: - `spender` cannot be the zero address."
      },
      "name()": {
        "details": "Returns the name of the token."
      },
      "owner()": {
        "details": "Returns the address of the current owner."
      },
      "proposeStrat(address)": {
        "details": "Sets the candidate for the new strat to use with this vault.",
        "params": {
          "_implementation": "The address of the candidate strategy.  "
        }
      },
      "renounceOwnership()": {
        "details": "Leaves the contract without owner. It will not be possible to call `onlyOwner` functions anymore. Can only be called by the current owner. NOTE: Renouncing ownership will leave the contract without an owner, thereby removing any functionality that is only available to the owner."
      },
      "symbol()": {
        "details": "Returns the symbol of the token, usually a shorter version of the name."
      },
      "totalSupply()": {
        "details": "See {IERC20-totalSupply}."
      },
      "transfer(address,uint256)": {
        "details": "See {IERC20-transfer}. Requirements: - `to` cannot be the zero address. - the caller must have a balance of at least `amount`."
      },
      "transferFrom(address,address,uint256)": {
        "details": "See {IERC20-transferFrom}. Emits an {Approval} event indicating the updated allowance. This is not required by the EIP. See the note at the beginning of {ERC20}. NOTE: Does not update the allowance if the current allowance is the maximum `uint256`. Requirements: - `from` and `to` cannot be the zero address. - `from` must have a balance of at least `amount`. - the caller must have allowance for ``from``'s tokens of at least `amount`."
      },
      "transferOwnership(address)": {
        "details": "Transfers ownership of the contract to a new account (`newOwner`). Can only be called by the current owner."
      },
      "upgradeStrat()": {
        "details": "It switches the active strat for the strat candidate. After upgrading, the  candidate implementation is set to the 0x00 address, and proposedTime to a time  happening in +100 years for safety. "
      },
      "withdraw(uint256)": {
        "details": "Function to exit the system. The vault will withdraw the required tokens from the strategy and pay up the token holder. A proportional number of ICE tokens are burned in the process."
      },
      "withdrawAll()": {
        "details": "A helper function to call withdraw() with all the sender's funds."
      }
    },
    "version": 1
  },
  "userdoc": {
    "kind": "user",
    "methods": {},
    "version": 1
  }
}