{
  "contractName": "PoolifyHarvestAll",
  "abi": [
    {
      "inputs": [
        {
          "internalType": "address[]",
          "name": "vaults",
          "type": "address[]"
        }
      ],
      "name": "harvestAll",
      "outputs": [],
      "stateMutability": "nonpayable",
      "type": "function"
    }
  ],
  "bytecode": "0x608060405234801561001057600080fd5b506001600081905550610472806100286000396000f3fe608060405234801561001057600080fd5b506004361061002b5760003560e01c8063ca4f64c214610030575b600080fd5b61004a600480360381019061004591906101d6565b61004c565b005b60026000541415610092576040517f08c379a000000000000000000000000000000000000000000000000000000000815260040161008990610280565b60405180910390fd5b600260008190555060005b828290508110156100eb576100d88383838181106100be576100bd6102a0565b5b90506020020160208101906100d3919061032d565b6100f8565b80806100e390610393565b91505061009d565b5060016000819055505050565b8073ffffffffffffffffffffffffffffffffffffffff1663b6b55f2560006040518263ffffffff1660e01b81526004016101329190610421565b600060405180830381600087803b15801561014c57600080fd5b505af1158015610160573d6000803e3d6000fd5b5050505050565b600080fd5b600080fd5b600080fd5b600080fd5b600080fd5b60008083601f84011261019657610195610171565b5b8235905067ffffffffffffffff8111156101b3576101b2610176565b5b6020830191508360208202830111156101cf576101ce61017b565b5b9250929050565b600080602083850312156101ed576101ec610167565b5b600083013567ffffffffffffffff81111561020b5761020a61016c565b5b61021785828601610180565b92509250509250929050565b600082825260208201905092915050565b7f5265656e7472616e637947756172643a207265656e7472616e742063616c6c00600082015250565b600061026a601f83610223565b915061027582610234565b602082019050919050565b600060208201905081810360008301526102998161025d565b9050919050565b7f4e487b7100000000000000000000000000000000000000000000000000000000600052603260045260246000fd5b600073ffffffffffffffffffffffffffffffffffffffff82169050919050565b60006102fa826102cf565b9050919050565b61030a816102ef565b811461031557600080fd5b50565b60008135905061032781610301565b92915050565b60006020828403121561034357610342610167565b5b600061035184828501610318565b91505092915050565b7f4e487b7100000000000000000000000000000000000000000000000000000000600052601160045260246000fd5b6000819050919050565b600061039e82610389565b91507fffffffffffffffffffffffffffffffffffffffffffffffffffffffffffffffff8214156103d1576103d061035a565b5b600182019050919050565b6000819050919050565b6000819050919050565b600061040b610406610401846103dc565b6103e6565b610389565b9050919050565b61041b816103f0565b82525050565b60006020820190506104366000830184610412565b9291505056fea26469706673582212204e61311250f9981b4aa7e9d11a667b094d06c5ebd6e2e30c382522342440845964736f6c634300080b0033",
  "immutableReferences": {},
  "source": "// SPDX-License-Identifier: MIT\n\npragma solidity ^0.8.4;\nimport \"@openzeppelin/contracts/security/ReentrancyGuard.sol\";\n//import \"../interfaces/poolify/IStrategy.sol\";\nimport \"../interfaces/poolify/IVault.sol\";\n\ncontract PoolifyHarvestAll is ReentrancyGuard {\n\n    function _harvest(address addr) internal{\n        //IStrategy(addr).harvest();\n        IVault(addr).deposit(0);\n    }\n\n    function harvestAll(address[] calldata vaults) public nonReentrant{\n        for (uint i = 0; i < vaults.length; i++) {\n            _harvest(vaults[i]);\n        }\n    }\n}",
  "sourcePath": "/home/trakers/Documents/crypto/poolify-official/contracts/src/contracts/protocol/PoolifyHarvestAll.sol",
  "compiler": {
    "name": "solc",
    "version": "0.8.11+commit.d7f03943.Emscripten.clang"
  },
  "schemaVersion": "3.4.4",
  "updatedAt": "2022-03-23T01:02:10.514Z",
  "networkType": "ethereum",
  "devdoc": {
    "kind": "dev",
    "methods": {},
    "version": 1
  },
  "userdoc": {
    "kind": "user",
    "methods": {},
    "version": 1
  }
}