{
  "contractName": "PoolifyLastHarvestMulticall",
  "abi": [
    {
      "inputs": [
        {
          "internalType": "address[]",
          "name": "strategies",
          "type": "address[]"
        }
      ],
      "name": "getLastHarvests",
      "outputs": [
        {
          "internalType": "uint256[]",
          "name": "",
          "type": "uint256[]"
        }
      ],
      "stateMutability": "view",
      "type": "function",
      "constant": true
    }
  ],
  "bytecode": "0x608060405234801561001057600080fd5b50610613806100206000396000f3fe608060405234801561001057600080fd5b506004361061002b5760003560e01c8063927421d714610030575b600080fd5b61004a600480360381019061004591906102b4565b610060565b60405161005791906103c9565b60405180910390f35b606060008383905067ffffffffffffffff811115610081576100806103eb565b5b6040519080825280602002602001820160405280156100af5781602001602082028036833780820191505090505b50905060005b848490508110156101a5576101738585838181106100d6576100d561041a565b5b90506020020160208101906100eb91906104a7565b6040516024016040516020818303038152906040527ff1a392da000000000000000000000000000000000000000000000000000000007bffffffffffffffffffffffffffffffffffffffffffffffffffffffff19166020820180517bffffffffffffffffffffffffffffffffffffffffffffffffffffffff83818316178352505050506101b0565b8282815181106101865761018561041a565b5b602002602001018181525050808061019d90610503565b9150506100b5565b508091505092915050565b600080808473ffffffffffffffffffffffffffffffffffffffff16846040516101d991906105c6565b600060405180830381855afa9150503d8060008114610214576040519150601f19603f3d011682016040523d82523d6000602084013e610219565b606091505b509150915081801561022d57506020815110155b1561023d57600060208201015192505b505092915050565b600080fd5b600080fd5b600080fd5b600080fd5b600080fd5b60008083601f8401126102745761027361024f565b5b8235905067ffffffffffffffff81111561029157610290610254565b5b6020830191508360208202830111156102ad576102ac610259565b5b9250929050565b600080602083850312156102cb576102ca610245565b5b600083013567ffffffffffffffff8111156102e9576102e861024a565b5b6102f58582860161025e565b92509250509250929050565b600081519050919050565b600082825260208201905092915050565b6000819050602082019050919050565b6000819050919050565b6103408161032d565b82525050565b60006103528383610337565b60208301905092915050565b6000602082019050919050565b600061037682610301565b610380818561030c565b935061038b8361031d565b8060005b838110156103bc5781516103a38882610346565b97506103ae8361035e565b92505060018101905061038f565b5085935050505092915050565b600060208201905081810360008301526103e3818461036b565b905092915050565b7f4e487b7100000000000000000000000000000000000000000000000000000000600052604160045260246000fd5b7f4e487b7100000000000000000000000000000000000000000000000000000000600052603260045260246000fd5b600073ffffffffffffffffffffffffffffffffffffffff82169050919050565b600061047482610449565b9050919050565b61048481610469565b811461048f57600080fd5b50565b6000813590506104a18161047b565b92915050565b6000602082840312156104bd576104bc610245565b5b60006104cb84828501610492565b91505092915050565b7f4e487b7100000000000000000000000000000000000000000000000000000000600052601160045260246000fd5b600061050e8261032d565b91507fffffffffffffffffffffffffffffffffffffffffffffffffffffffffffffffff821415610541576105406104d4565b5b600182019050919050565b600081519050919050565b600081905092915050565b60005b83811015610580578082015181840152602081019050610565565b8381111561058f576000848401525b50505050565b60006105a08261054c565b6105aa8185610557565b93506105ba818560208601610562565b80840191505092915050565b60006105d28284610595565b91508190509291505056fea264697066735822122023f7a651d99c2f4233eb4fdc2840e5a34968d7619776b0fa342bc9a403133e1564736f6c634300080b0033",
  "immutableReferences": {},
  "source": "// SPDX-License-Identifier: MIT\n\npragma solidity ^0.8.4;\n\ncontract PoolifyLastHarvestMulticall {\n\n    function getUint(address addr, bytes memory data) internal view returns (uint result) {\n        result = 0;\n\n        (bool status, bytes memory res) = addr.staticcall(data);\n\n        if (status && res.length >= 32) {\n            assembly {\n                result := mload(add(add(res, 0x20), 0))\n            }\n        }\n    }\n\n    function getLastHarvests(address[] calldata strategies) external view returns (uint[] memory) {\n        uint[] memory results = new uint[](strategies.length);\n\n        for (uint i = 0; i < strategies.length; i++) {\n            results[i] = getUint(strategies[i], abi.encodeWithSignature(\"lastHarvest()\"));\n        }\n\n        return results;\n    }\n}",
  "sourcePath": "/home/trakers/Documents/crypto/poolify-official/contracts/src/contracts/protocol/PoolifyLastHarvestMulticall.sol",
  "compiler": {
    "name": "solc",
    "version": "0.8.11+commit.d7f03943.Emscripten.clang"
  },
  "schemaVersion": "3.4.4",
  "updatedAt": "2022-03-08T21:40:19.870Z",
  "networkType": "ethereum",
  "devdoc": {
    "kind": "dev",
    "methods": {},
    "version": 1
  },
  "userdoc": {
    "kind": "user",
    "methods": {},
    "version": 1
  }
}