{
  "contractName": "StrategyPLFYLiquidity",
  "abi": [
    {
      "inputs": [
        {
          "internalType": "address",
          "name": "_want",
          "type": "address"
        },
        {
          "internalType": "address",
          "name": "_reward",
          "type": "address"
        },
        {
          "internalType": "address",
          "name": "_rewardManager",
          "type": "address"
        },
        {
          "internalType": "uint256",
          "name": "_poolRewardId",
          "type": "uint256"
        },
        {
          "internalType": "address",
          "name": "_vault",
          "type": "address"
        },
        {
          "internalType": "address",
          "name": "_keeper",
          "type": "address"
        },
        {
          "internalType": "address",
          "name": "_strategistRecipient",
          "type": "address"
        }
      ],
      "stateMutability": "nonpayable",
      "type": "constructor"
    },
    {
      "anonymous": false,
      "inputs": [
        {
          "indexed": true,
          "internalType": "address",
          "name": "previousOwner",
          "type": "address"
        },
        {
          "indexed": true,
          "internalType": "address",
          "name": "newOwner",
          "type": "address"
        }
      ],
      "name": "OwnershipTransferred",
      "type": "event"
    },
    {
      "anonymous": false,
      "inputs": [
        {
          "indexed": false,
          "internalType": "address",
          "name": "account",
          "type": "address"
        }
      ],
      "name": "Paused",
      "type": "event"
    },
    {
      "anonymous": false,
      "inputs": [
        {
          "indexed": true,
          "internalType": "address",
          "name": "harvester",
          "type": "address"
        },
        {
          "indexed": true,
          "internalType": "uint256",
          "name": "timestamp",
          "type": "uint256"
        }
      ],
      "name": "StratHarvest",
      "type": "event"
    },
    {
      "anonymous": false,
      "inputs": [
        {
          "indexed": false,
          "internalType": "address",
          "name": "account",
          "type": "address"
        }
      ],
      "name": "Unpaused",
      "type": "event"
    },
    {
      "inputs": [],
      "name": "CALL_FEE",
      "outputs": [
        {
          "internalType": "uint256",
          "name": "",
          "type": "uint256"
        }
      ],
      "stateMutability": "view",
      "type": "function",
      "constant": true
    },
    {
      "inputs": [],
      "name": "CALL_FEE_MAX",
      "outputs": [
        {
          "internalType": "uint256",
          "name": "",
          "type": "uint256"
        }
      ],
      "stateMutability": "view",
      "type": "function",
      "constant": true
    },
    {
      "inputs": [],
      "name": "CALL_PRECISION",
      "outputs": [
        {
          "internalType": "uint256",
          "name": "",
          "type": "uint256"
        }
      ],
      "stateMutability": "view",
      "type": "function",
      "constant": true
    },
    {
      "inputs": [],
      "name": "STRATEGIST_FEE",
      "outputs": [
        {
          "internalType": "uint256",
          "name": "",
          "type": "uint256"
        }
      ],
      "stateMutability": "view",
      "type": "function",
      "constant": true
    },
    {
      "inputs": [],
      "name": "STRATEGIST_FEE_MAX",
      "outputs": [
        {
          "internalType": "uint256",
          "name": "",
          "type": "uint256"
        }
      ],
      "stateMutability": "view",
      "type": "function",
      "constant": true
    },
    {
      "inputs": [],
      "name": "STRATEGIST_PRECISION",
      "outputs": [
        {
          "internalType": "uint256",
          "name": "",
          "type": "uint256"
        }
      ],
      "stateMutability": "view",
      "type": "function",
      "constant": true
    },
    {
      "inputs": [],
      "name": "WITHDRAWAL_FEE",
      "outputs": [
        {
          "internalType": "uint256",
          "name": "",
          "type": "uint256"
        }
      ],
      "stateMutability": "view",
      "type": "function",
      "constant": true
    },
    {
      "inputs": [],
      "name": "WITHDRAWAL_FEE_MAX",
      "outputs": [
        {
          "internalType": "uint256",
          "name": "",
          "type": "uint256"
        }
      ],
      "stateMutability": "view",
      "type": "function",
      "constant": true
    },
    {
      "inputs": [],
      "name": "WITHDRAWAL_PRECISION",
      "outputs": [
        {
          "internalType": "uint256",
          "name": "",
          "type": "uint256"
        }
      ],
      "stateMutability": "view",
      "type": "function",
      "constant": true
    },
    {
      "inputs": [],
      "name": "harvestOnDeposit",
      "outputs": [
        {
          "internalType": "bool",
          "name": "",
          "type": "bool"
        }
      ],
      "stateMutability": "view",
      "type": "function",
      "constant": true
    },
    {
      "inputs": [],
      "name": "keeper",
      "outputs": [
        {
          "internalType": "address",
          "name": "",
          "type": "address"
        }
      ],
      "stateMutability": "view",
      "type": "function",
      "constant": true
    },
    {
      "inputs": [],
      "name": "lastHarvest",
      "outputs": [
        {
          "internalType": "uint256",
          "name": "",
          "type": "uint256"
        }
      ],
      "stateMutability": "view",
      "type": "function",
      "constant": true
    },
    {
      "inputs": [],
      "name": "owner",
      "outputs": [
        {
          "internalType": "address",
          "name": "",
          "type": "address"
        }
      ],
      "stateMutability": "view",
      "type": "function",
      "constant": true
    },
    {
      "inputs": [],
      "name": "paused",
      "outputs": [
        {
          "internalType": "bool",
          "name": "",
          "type": "bool"
        }
      ],
      "stateMutability": "view",
      "type": "function",
      "constant": true
    },
    {
      "inputs": [],
      "name": "poolRewardId",
      "outputs": [
        {
          "internalType": "uint256",
          "name": "",
          "type": "uint256"
        }
      ],
      "stateMutability": "view",
      "type": "function",
      "constant": true
    },
    {
      "inputs": [],
      "name": "renounceOwnership",
      "outputs": [],
      "stateMutability": "nonpayable",
      "type": "function"
    },
    {
      "inputs": [],
      "name": "reward",
      "outputs": [
        {
          "internalType": "address",
          "name": "",
          "type": "address"
        }
      ],
      "stateMutability": "view",
      "type": "function",
      "constant": true
    },
    {
      "inputs": [],
      "name": "rewardManager",
      "outputs": [
        {
          "internalType": "address",
          "name": "",
          "type": "address"
        }
      ],
      "stateMutability": "view",
      "type": "function",
      "constant": true
    },
    {
      "inputs": [
        {
          "internalType": "uint256",
          "name": "_fee",
          "type": "uint256"
        }
      ],
      "name": "setCallFee",
      "outputs": [],
      "stateMutability": "nonpayable",
      "type": "function"
    },
    {
      "inputs": [
        {
          "internalType": "address",
          "name": "_keeper",
          "type": "address"
        }
      ],
      "name": "setKeeper",
      "outputs": [],
      "stateMutability": "nonpayable",
      "type": "function"
    },
    {
      "inputs": [
        {
          "internalType": "uint256",
          "name": "_fee",
          "type": "uint256"
        }
      ],
      "name": "setStrategistFee",
      "outputs": [],
      "stateMutability": "nonpayable",
      "type": "function"
    },
    {
      "inputs": [
        {
          "internalType": "address",
          "name": "_strategistRecipient",
          "type": "address"
        }
      ],
      "name": "setStrategistRecipient",
      "outputs": [],
      "stateMutability": "nonpayable",
      "type": "function"
    },
    {
      "inputs": [
        {
          "internalType": "address",
          "name": "_vault",
          "type": "address"
        }
      ],
      "name": "setVault",
      "outputs": [],
      "stateMutability": "nonpayable",
      "type": "function"
    },
    {
      "inputs": [
        {
          "internalType": "uint256",
          "name": "_fee",
          "type": "uint256"
        }
      ],
      "name": "setWithdrawalFee",
      "outputs": [],
      "stateMutability": "nonpayable",
      "type": "function"
    },
    {
      "inputs": [],
      "name": "strategistRecipient",
      "outputs": [
        {
          "internalType": "address",
          "name": "",
          "type": "address"
        }
      ],
      "stateMutability": "view",
      "type": "function",
      "constant": true
    },
    {
      "inputs": [
        {
          "internalType": "address",
          "name": "newOwner",
          "type": "address"
        }
      ],
      "name": "transferOwnership",
      "outputs": [],
      "stateMutability": "nonpayable",
      "type": "function"
    },
    {
      "inputs": [],
      "name": "vault",
      "outputs": [
        {
          "internalType": "address",
          "name": "",
          "type": "address"
        }
      ],
      "stateMutability": "view",
      "type": "function",
      "constant": true
    },
    {
      "inputs": [],
      "name": "want",
      "outputs": [
        {
          "internalType": "address",
          "name": "",
          "type": "address"
        }
      ],
      "stateMutability": "view",
      "type": "function",
      "constant": true
    },
    {
      "inputs": [],
      "name": "deposit",
      "outputs": [],
      "stateMutability": "nonpayable",
      "type": "function"
    },
    {
      "inputs": [
        {
          "internalType": "uint256",
          "name": "_amount",
          "type": "uint256"
        }
      ],
      "name": "withdraw",
      "outputs": [],
      "stateMutability": "nonpayable",
      "type": "function"
    },
    {
      "inputs": [],
      "name": "beforeDeposit",
      "outputs": [],
      "stateMutability": "nonpayable",
      "type": "function"
    },
    {
      "inputs": [
        {
          "internalType": "address",
          "name": "callFeeRecipient",
          "type": "address"
        }
      ],
      "name": "harvest",
      "outputs": [],
      "stateMutability": "nonpayable",
      "type": "function"
    },
    {
      "inputs": [],
      "name": "harvest",
      "outputs": [],
      "stateMutability": "nonpayable",
      "type": "function"
    },
    {
      "inputs": [],
      "name": "managerHarvest",
      "outputs": [],
      "stateMutability": "nonpayable",
      "type": "function"
    },
    {
      "inputs": [],
      "name": "balanceOfPendingRewards",
      "outputs": [
        {
          "internalType": "uint256",
          "name": "",
          "type": "uint256"
        }
      ],
      "stateMutability": "view",
      "type": "function",
      "constant": true
    },
    {
      "inputs": [],
      "name": "balanceOf",
      "outputs": [
        {
          "internalType": "uint256",
          "name": "",
          "type": "uint256"
        }
      ],
      "stateMutability": "view",
      "type": "function",
      "constant": true
    },
    {
      "inputs": [],
      "name": "balanceOfWant",
      "outputs": [
        {
          "internalType": "uint256",
          "name": "",
          "type": "uint256"
        }
      ],
      "stateMutability": "view",
      "type": "function",
      "constant": true
    },
    {
      "inputs": [],
      "name": "balanceOfReward",
      "outputs": [
        {
          "internalType": "uint256",
          "name": "",
          "type": "uint256"
        }
      ],
      "stateMutability": "view",
      "type": "function",
      "constant": true
    },
    {
      "inputs": [],
      "name": "balanceOfPool",
      "outputs": [
        {
          "internalType": "uint256",
          "name": "",
          "type": "uint256"
        }
      ],
      "stateMutability": "view",
      "type": "function",
      "constant": true
    },
    {
      "inputs": [],
      "name": "retireStrat",
      "outputs": [],
      "stateMutability": "nonpayable",
      "type": "function"
    },
    {
      "inputs": [],
      "name": "panic",
      "outputs": [],
      "stateMutability": "nonpayable",
      "type": "function"
    },
    {
      "inputs": [],
      "name": "pause",
      "outputs": [],
      "stateMutability": "nonpayable",
      "type": "function"
    },
    {
      "inputs": [],
      "name": "unpause",
      "outputs": [],
      "stateMutability": "nonpayable",
      "type": "function"
    }
  ],
  "bytecode": "0x60806040526064600455606460055560006006553480156200002057600080fd5b50604051620040c9380380620040c983398181016040528101906200004691906200084c565b818382620000696200005d6200023060201b60201c565b6200023860201b60201c565b60008060146101000a81548160ff02191690831515021790555082600160006101000a81548173ffffffffffffffffffffffffffffffffffffffff021916908373ffffffffffffffffffffffffffffffffffffffff16021790555081600260006101000a81548173ffffffffffffffffffffffffffffffffffffffff021916908373ffffffffffffffffffffffffffffffffffffffff16021790555080600360006101000a81548173ffffffffffffffffffffffffffffffffffffffff021916908373ffffffffffffffffffffffffffffffffffffffff16021790555050505084600960006101000a81548173ffffffffffffffffffffffffffffffffffffffff021916908373ffffffffffffffffffffffffffffffffffffffff16021790555085600860006101000a81548173ffffffffffffffffffffffffffffffffffffffff021916908373ffffffffffffffffffffffffffffffffffffffff16021790555083600b8190555086600760006101000a81548173ffffffffffffffffffffffffffffffffffffffff021916908373ffffffffffffffffffffffffffffffffffffffff16021790555062000223620002fc60201b60201c565b5050505050505062000d84565b600033905090565b60008060009054906101000a900473ffffffffffffffffffffffffffffffffffffffff169050816000806101000a81548173ffffffffffffffffffffffffffffffffffffffff021916908373ffffffffffffffffffffffffffffffffffffffff1602179055508173ffffffffffffffffffffffffffffffffffffffff168173ffffffffffffffffffffffffffffffffffffffff167f8be0079c531659141344cd1fd0a4f28419497f9722a3daafe3b4186f6b6457e060405160405180910390a35050565b62000392600960009054906101000a900473ffffffffffffffffffffffffffffffffffffffff167fffffffffffffffffffffffffffffffffffffffffffffffffffffffffffffffff600760009054906101000a900473ffffffffffffffffffffffffffffffffffffffff1673ffffffffffffffffffffffffffffffffffffffff166200039460201b62001cc4179092919060201c565b565b600081148062000424575060008373ffffffffffffffffffffffffffffffffffffffff1663dd62ed3e30856040518363ffffffff1660e01b8152600401620003de92919062000910565b602060405180830381865afa158015620003fc573d6000803e3d6000fd5b505050506040513d601f19601f820116820180604052508101906200042291906200093d565b145b62000466576040517f08c379a00000000000000000000000000000000000000000000000000000000081526004016200045d90620009f6565b60405180910390fd5b620004f18363095ea7b360e01b84846040516024016200048892919062000a29565b604051602081830303815290604052907bffffffffffffffffffffffffffffffffffffffffffffffffffffffff19166020820180517bffffffffffffffffffffffffffffffffffffffffffffffffffffffff8381831617835250505050620004f660201b60201c565b505050565b60006200055f826040518060400160405280602081526020017f5361666545524332303a206c6f772d6c6576656c2063616c6c206661696c65648152508573ffffffffffffffffffffffffffffffffffffffff16620005ca60201b62001e13179092919060201c565b9050600081511115620005c5578080602001905181019062000582919062000a93565b620005c4576040517f08c379a0000000000000000000000000000000000000000000000000000000008152600401620005bb9062000b3b565b60405180910390fd5b5b505050565b6060620005e18484600085620005ea60201b60201c565b90509392505050565b60608247101562000632576040517f08c379a0000000000000000000000000000000000000000000000000000000008152600401620006299062000bd3565b60405180910390fd5b62000643856200071860201b60201c565b62000685576040517f08c379a00000000000000000000000000000000000000000000000000000000081526004016200067c9062000c45565b60405180910390fd5b6000808673ffffffffffffffffffffffffffffffffffffffff168587604051620006b0919062000cea565b60006040518083038185875af1925050503d8060008114620006ef576040519150601f19603f3d011682016040523d82523d6000602084013e620006f4565b606091505b50915091506200070c8282866200073b60201b60201c565b92505050949350505050565b6000808273ffffffffffffffffffffffffffffffffffffffff163b119050919050565b606083156200074d57829050620007a0565b600083511115620007615782518084602001fd5b816040517f08c379a000000000000000000000000000000000000000000000000000000000815260040162000797919062000d60565b60405180910390fd5b9392505050565b600080fd5b600073ffffffffffffffffffffffffffffffffffffffff82169050919050565b6000620007d982620007ac565b9050919050565b620007eb81620007cc565b8114620007f757600080fd5b50565b6000815190506200080b81620007e0565b92915050565b6000819050919050565b620008268162000811565b81146200083257600080fd5b50565b60008151905062000846816200081b565b92915050565b600080600080600080600060e0888a0312156200086e576200086d620007a7565b5b60006200087e8a828b01620007fa565b9750506020620008918a828b01620007fa565b9650506040620008a48a828b01620007fa565b9550506060620008b78a828b0162000835565b9450506080620008ca8a828b01620007fa565b93505060a0620008dd8a828b01620007fa565b92505060c0620008f08a828b01620007fa565b91505092959891949750929550565b6200090a81620007cc565b82525050565b6000604082019050620009276000830185620008ff565b620009366020830184620008ff565b9392505050565b600060208284031215620009565762000955620007a7565b5b6000620009668482850162000835565b91505092915050565b600082825260208201905092915050565b7f5361666545524332303a20617070726f76652066726f6d206e6f6e2d7a65726f60008201527f20746f206e6f6e2d7a65726f20616c6c6f77616e636500000000000000000000602082015250565b6000620009de6036836200096f565b9150620009eb8262000980565b604082019050919050565b6000602082019050818103600083015262000a1181620009cf565b9050919050565b62000a238162000811565b82525050565b600060408201905062000a406000830185620008ff565b62000a4f602083018462000a18565b9392505050565b60008115159050919050565b62000a6d8162000a56565b811462000a7957600080fd5b50565b60008151905062000a8d8162000a62565b92915050565b60006020828403121562000aac5762000aab620007a7565b5b600062000abc8482850162000a7c565b91505092915050565b7f5361666545524332303a204552433230206f7065726174696f6e20646964206e60008201527f6f74207375636365656400000000000000000000000000000000000000000000602082015250565b600062000b23602a836200096f565b915062000b308262000ac5565b604082019050919050565b6000602082019050818103600083015262000b568162000b14565b9050919050565b7f416464726573733a20696e73756666696369656e742062616c616e636520666f60008201527f722063616c6c0000000000000000000000000000000000000000000000000000602082015250565b600062000bbb6026836200096f565b915062000bc88262000b5d565b604082019050919050565b6000602082019050818103600083015262000bee8162000bac565b9050919050565b7f416464726573733a2063616c6c20746f206e6f6e2d636f6e7472616374000000600082015250565b600062000c2d601d836200096f565b915062000c3a8262000bf5565b602082019050919050565b6000602082019050818103600083015262000c608162000c1e565b9050919050565b600081519050919050565b600081905092915050565b60005b8381101562000c9d57808201518184015260208101905062000c80565b8381111562000cad576000848401525b50505050565b600062000cc08262000c67565b62000ccc818562000c72565b935062000cde81856020860162000c7d565b80840191505092915050565b600062000cf8828462000cb3565b915081905092915050565b600081519050919050565b6000601f19601f8301169050919050565b600062000d2c8262000d03565b62000d3881856200096f565b935062000d4a81856020860162000c7d565b62000d558162000d0e565b840191505092915050565b6000602082019050818103600083015262000d7c818462000d1f565b905092915050565b6133358062000d946000396000f3fe608060405234801561001057600080fd5b50600436106102695760003560e01c80638912cb8b11610151578063c1a3d44c116100c3578063e4c22eb111610087578063e4c22eb114610616578063ee5cab5914610634578063f1a392da14610650578063f2fde38b1461066e578063fb6177871461068a578063fbfa77cf1461069457610269565b8063c1a3d44c146105a8578063d0e30db0146105c6578063d6b15597146105d0578063d801d946146105ee578063d879f3f0146105f857610269565b8063951d6d2011610115578063951d6d20146104f657806395dc0e9f14610514578063a5d33ed514610532578063ac1e502514610550578063aced16611461056c578063c0ace0751461058a57610269565b80638912cb8b14610462578063897c9004146104805780638a2d64a61461049e5780638ba2f0ba146104bc5780638da5cb5b146104d857610269565b80634700d305116101ea5780637156fa88116101ae5780637156fa88146103c4578063722713f7146103e2578063748747e6146104005780637d38ca651461041c5780637f4882551461043a5780638456cb591461045857610269565b80634700d3051461036c578063573fef0a146103765780635c975abb146103805780636817031b1461039e578063715018a6146103ba57610269565b8063228cb73311610231578063228cb7331461030257806326465826146103205780632e1a7d4d1461033c5780633f4ba83a146103585780634641257d1461036257610269565b806306d8d18f1461026e5780630e5c011e1461028c5780630f4ef8a6146102a857806311588086146102c65780631f1fcd51146102e4575b600080fd5b6102766106b2565b60405161028391906127a2565b60405180910390f35b6102a660048036038101906102a191906127ee565b6106d8565b005b6102b06106e4565b6040516102bd91906127a2565b60405180910390f35b6102ce61070a565b6040516102db9190612834565b60405180910390f35b6102ec6107b6565b6040516102f991906127a2565b60405180910390f35b61030a6107dc565b60405161031791906127a2565b60405180910390f35b61033a6004803603810190610335919061287b565b610802565b005b6103566004803603810190610351919061287b565b61091e565b005b610360610b65565b005b61036a610c4c565b005b610374610c57565b005b61037e610dbd565b005b610388610e58565b60405161039591906128c3565b60405180910390f35b6103b860048036038101906103b391906127ee565b610e6e565b005b6103c2610f2e565b005b6103cc610fb6565b6040516103d99190612834565b60405180910390f35b6103ea610fbc565b6040516103f79190612834565b60405180910390f35b61041a600480360381019061041591906127ee565b610fe4565b005b6104246110f5565b6040516104319190612834565b60405180910390f35b6104426110fb565b60405161044f9190612834565b60405180910390f35b610460611101565b005b61046a6111e0565b60405161047791906128c3565b60405180910390f35b6104886111f3565b6040516104959190612834565b60405180910390f35b6104a66111f9565b6040516104b39190612834565b60405180910390f35b6104d660048036038101906104d1919061287b565b6111ff565b005b6104e061131b565b6040516104ed91906127a2565b60405180910390f35b6104fe611344565b60405161050b9190612834565b60405180910390f35b61051c61134a565b6040516105299190612834565b60405180910390f35b61053a611350565b6040516105479190612834565b60405180910390f35b61056a6004803603810190610565919061287b565b611356565b005b610574611472565b60405161058191906127a2565b60405180910390f35b610592611498565b60405161059f9190612834565b60405180910390f35b6105b061149e565b6040516105bd9190612834565b60405180910390f35b6105ce611541565b005b6105d8611633565b6040516105e59190612834565b60405180910390f35b6105f66116da565b005b6106006117b2565b60405161060d9190612834565b60405180910390f35b61061e6117b8565b60405161062b9190612834565b60405180910390f35b61064e600480360381019061064991906127ee565b61185b565b005b61065861191b565b6040516106659190612834565b60405180910390f35b610688600480360381019061068391906127ee565b611921565b005b610692611a19565b005b61069c611c9e565b6040516106a991906127a2565b60405180910390f35b600360009054906101000a900473ffffffffffffffffffffffffffffffffffffffff1681565b6106e181611e2b565b50565b600960009054906101000a900473ffffffffffffffffffffffffffffffffffffffff1681565b600080600960009054906101000a900473ffffffffffffffffffffffffffffffffffffffff1673ffffffffffffffffffffffffffffffffffffffff166393f1a40b600b54306040518363ffffffff1660e01b815260040161076c9291906128de565b6040805180830381865afa158015610788573d6000803e3d6000fd5b505050506040513d601f19601f820116820180604052508101906107ac919061291c565b5090508091505090565b600760009054906101000a900473ffffffffffffffffffffffffffffffffffffffff1681565b600860009054906101000a900473ffffffffffffffffffffffffffffffffffffffff1681565b61080a61131b565b73ffffffffffffffffffffffffffffffffffffffff163373ffffffffffffffffffffffffffffffffffffffff1614806108905750600160009054906101000a900473ffffffffffffffffffffffffffffffffffffffff1673ffffffffffffffffffffffffffffffffffffffff163373ffffffffffffffffffffffffffffffffffffffff16145b6108cf576040517f08c379a00000000000000000000000000000000000000000000000000000000081526004016108c6906129b9565b60405180910390fd5b6103e8811115610914576040517f08c379a000000000000000000000000000000000000000000000000000000000815260040161090b90612a25565b60405180910390fd5b8060048190555050565b600260009054906101000a900473ffffffffffffffffffffffffffffffffffffffff1673ffffffffffffffffffffffffffffffffffffffff163373ffffffffffffffffffffffffffffffffffffffff16146109ae576040517f08c379a00000000000000000000000000000000000000000000000000000000081526004016109a590612a91565b60405180910390fd5b60006109b861149e565b905081811015610a7057600960009054906101000a900473ffffffffffffffffffffffffffffffffffffffff1673ffffffffffffffffffffffffffffffffffffffff1663441a3e70600b54610a16848661206b90919063ffffffff16565b6040518363ffffffff1660e01b8152600401610a33929190612ab1565b600060405180830381600087803b158015610a4d57600080fd5b505af1158015610a61573d6000803e3d6000fd5b50505050610a6d61149e565b90505b81811115610a7c578190505b610af2600260009054906101000a900473ffffffffffffffffffffffffffffffffffffffff16610aaa6117b8565b600860009054906101000a900473ffffffffffffffffffffffffffffffffffffffff1673ffffffffffffffffffffffffffffffffffffffff166120819092919063ffffffff16565b610b61600260009054906101000a900473ffffffffffffffffffffffffffffffffffffffff1682600760009054906101000a900473ffffffffffffffffffffffffffffffffffffffff1673ffffffffffffffffffffffffffffffffffffffff166120819092919063ffffffff16565b5050565b610b6d61131b565b73ffffffffffffffffffffffffffffffffffffffff163373ffffffffffffffffffffffffffffffffffffffff161480610bf35750600160009054906101000a900473ffffffffffffffffffffffffffffffffffffffff1673ffffffffffffffffffffffffffffffffffffffff163373ffffffffffffffffffffffffffffffffffffffff16145b610c32576040517f08c379a0000000000000000000000000000000000000000000000000000000008152600401610c29906129b9565b60405180910390fd5b610c3a612107565b610c426121a8565b610c4a611541565b565b610c5532611e2b565b565b610c5f61131b565b73ffffffffffffffffffffffffffffffffffffffff163373ffffffffffffffffffffffffffffffffffffffff161480610ce55750600160009054906101000a900473ffffffffffffffffffffffffffffffffffffffff1673ffffffffffffffffffffffffffffffffffffffff163373ffffffffffffffffffffffffffffffffffffffff16145b610d24576040517f08c379a0000000000000000000000000000000000000000000000000000000008152600401610d1b906129b9565b60405180910390fd5b610d2c611101565b600960009054906101000a900473ffffffffffffffffffffffffffffffffffffffff1673ffffffffffffffffffffffffffffffffffffffff16635312ea8e600b546040518263ffffffff1660e01b8152600401610d899190612834565b600060405180830381600087803b158015610da357600080fd5b505af1158015610db7573d6000803e3d6000fd5b50505050565b600260009054906101000a900473ffffffffffffffffffffffffffffffffffffffff1673ffffffffffffffffffffffffffffffffffffffff163373ffffffffffffffffffffffffffffffffffffffff1614610e4d576040517f08c379a0000000000000000000000000000000000000000000000000000000008152600401610e4490612a91565b60405180910390fd5b610e5632611e2b565b565b60008060149054906101000a900460ff16905090565b610e76612239565b73ffffffffffffffffffffffffffffffffffffffff16610e9461131b565b73ffffffffffffffffffffffffffffffffffffffff1614610eea576040517f08c379a0000000000000000000000000000000000000000000000000000000008152600401610ee190612b26565b60405180910390fd5b80600260006101000a81548173ffffffffffffffffffffffffffffffffffffffff021916908373ffffffffffffffffffffffffffffffffffffffff16021790555050565b610f36612239565b73ffffffffffffffffffffffffffffffffffffffff16610f5461131b565b73ffffffffffffffffffffffffffffffffffffffff1614610faa576040517f08c379a0000000000000000000000000000000000000000000000000000000008152600401610fa190612b26565b60405180910390fd5b610fb46000612241565b565b61271081565b6000610fdf610fc961070a565b610fd161149e565b61230590919063ffffffff16565b905090565b610fec61131b565b73ffffffffffffffffffffffffffffffffffffffff163373ffffffffffffffffffffffffffffffffffffffff1614806110725750600160009054906101000a900473ffffffffffffffffffffffffffffffffffffffff1673ffffffffffffffffffffffffffffffffffffffff163373ffffffffffffffffffffffffffffffffffffffff16145b6110b1576040517f08c379a00000000000000000000000000000000000000000000000000000000081526004016110a8906129b9565b60405180910390fd5b80600160006101000a81548173ffffffffffffffffffffffffffffffffffffffff021916908373ffffffffffffffffffffffffffffffffffffffff16021790555050565b60055481565b6103e881565b61110961131b565b73ffffffffffffffffffffffffffffffffffffffff163373ffffffffffffffffffffffffffffffffffffffff16148061118f5750600160009054906101000a900473ffffffffffffffffffffffffffffffffffffffff1673ffffffffffffffffffffffffffffffffffffffff163373ffffffffffffffffffffffffffffffffffffffff16145b6111ce576040517f08c379a00000000000000000000000000000000000000000000000000000000081526004016111c5906129b9565b60405180910390fd5b6111d661231b565b6111de6123be565b565b600960149054906101000a900460ff1681565b600b5481565b6103e881565b61120761131b565b73ffffffffffffffffffffffffffffffffffffffff163373ffffffffffffffffffffffffffffffffffffffff16148061128d5750600160009054906101000a900473ffffffffffffffffffffffffffffffffffffffff1673ffffffffffffffffffffffffffffffffffffffff163373ffffffffffffffffffffffffffffffffffffffff16145b6112cc576040517f08c379a00000000000000000000000000000000000000000000000000000000081526004016112c3906129b9565b60405180910390fd5b6103e8811115611311576040517f08c379a000000000000000000000000000000000000000000000000000000000815260040161130890612a25565b60405180910390fd5b8060058190555050565b60008060009054906101000a900473ffffffffffffffffffffffffffffffffffffffff16905090565b60045481565b61271081565b60065481565b61135e61131b565b73ffffffffffffffffffffffffffffffffffffffff163373ffffffffffffffffffffffffffffffffffffffff1614806113e45750600160009054906101000a900473ffffffffffffffffffffffffffffffffffffffff1673ffffffffffffffffffffffffffffffffffffffff163373ffffffffffffffffffffffffffffffffffffffff16145b611423576040517f08c379a000000000000000000000000000000000000000000000000000000000815260040161141a906129b9565b60405180910390fd5b6103e8811115611468576040517f08c379a000000000000000000000000000000000000000000000000000000000815260040161145f90612a25565b60405180910390fd5b8060068190555050565b600160009054906101000a900473ffffffffffffffffffffffffffffffffffffffff1681565b61271081565b6000600760009054906101000a900473ffffffffffffffffffffffffffffffffffffffff1673ffffffffffffffffffffffffffffffffffffffff166370a08231306040518263ffffffff1660e01b81526004016114fb91906127a2565b602060405180830381865afa158015611518573d6000803e3d6000fd5b505050506040513d601f19601f8201168201806040525081019061153c9190612b46565b905090565b611549610e58565b15611589576040517f08c379a000000000000000000000000000000000000000000000000000000000815260040161158090612bbf565b60405180910390fd5b600061159361149e565b9050600081111561163057600960009054906101000a900473ffffffffffffffffffffffffffffffffffffffff1673ffffffffffffffffffffffffffffffffffffffff1663e2bbb158600b54836040518363ffffffff1660e01b81526004016115fd929190612ab1565b600060405180830381600087803b15801561161757600080fd5b505af115801561162b573d6000803e3d6000fd5b505050505b50565b6000600960009054906101000a900473ffffffffffffffffffffffffffffffffffffffff1673ffffffffffffffffffffffffffffffffffffffff166308571c90600b54306040518363ffffffff1660e01b81526004016116949291906128de565b602060405180830381865afa1580156116b1573d6000803e3d6000fd5b505050506040513d601f19601f820116820180604052508101906116d59190612b46565b905090565b6116e261131b565b73ffffffffffffffffffffffffffffffffffffffff163373ffffffffffffffffffffffffffffffffffffffff1614806117685750600160009054906101000a900473ffffffffffffffffffffffffffffffffffffffff1673ffffffffffffffffffffffffffffffffffffffff163373ffffffffffffffffffffffffffffffffffffffff16145b6117a7576040517f08c379a000000000000000000000000000000000000000000000000000000000815260040161179e906129b9565b60405180910390fd5b6117b032611e2b565b565b6103e881565b6000600860009054906101000a900473ffffffffffffffffffffffffffffffffffffffff1673ffffffffffffffffffffffffffffffffffffffff166370a08231306040518263ffffffff1660e01b815260040161181591906127a2565b602060405180830381865afa158015611832573d6000803e3d6000fd5b505050506040513d601f19601f820116820180604052508101906118569190612b46565b905090565b611863612239565b73ffffffffffffffffffffffffffffffffffffffff1661188161131b565b73ffffffffffffffffffffffffffffffffffffffff16146118d7576040517f08c379a00000000000000000000000000000000000000000000000000000000081526004016118ce90612b26565b60405180910390fd5b80600360006101000a81548173ffffffffffffffffffffffffffffffffffffffff021916908373ffffffffffffffffffffffffffffffffffffffff16021790555050565b600a5481565b611929612239565b73ffffffffffffffffffffffffffffffffffffffff1661194761131b565b73ffffffffffffffffffffffffffffffffffffffff161461199d576040517f08c379a000000000000000000000000000000000000000000000000000000000815260040161199490612b26565b60405180910390fd5b600073ffffffffffffffffffffffffffffffffffffffff168173ffffffffffffffffffffffffffffffffffffffff161415611a0d576040517f08c379a0000000000000000000000000000000000000000000000000000000008152600401611a0490612c51565b60405180910390fd5b611a1681612241565b50565b600260009054906101000a900473ffffffffffffffffffffffffffffffffffffffff1673ffffffffffffffffffffffffffffffffffffffff163373ffffffffffffffffffffffffffffffffffffffff1614611aa9576040517f08c379a0000000000000000000000000000000000000000000000000000000008152600401611aa090612a91565b60405180910390fd5b600960009054906101000a900473ffffffffffffffffffffffffffffffffffffffff1673ffffffffffffffffffffffffffffffffffffffff16635312ea8e600b546040518263ffffffff1660e01b8152600401611b069190612834565b600060405180830381600087803b158015611b2057600080fd5b505af1158015611b34573d6000803e3d6000fd5b505050506000600760009054906101000a900473ffffffffffffffffffffffffffffffffffffffff1673ffffffffffffffffffffffffffffffffffffffff166370a08231306040518263ffffffff1660e01b8152600401611b9591906127a2565b602060405180830381865afa158015611bb2573d6000803e3d6000fd5b505050506040513d601f19601f82011682018060405250810190611bd69190612b46565b9050600760009054906101000a900473ffffffffffffffffffffffffffffffffffffffff1673ffffffffffffffffffffffffffffffffffffffff1663a9059cbb600260009054906101000a900473ffffffffffffffffffffffffffffffffffffffff16836040518363ffffffff1660e01b8152600401611c57929190612c71565b6020604051808303816000875af1158015611c76573d6000803e3d6000fd5b505050506040513d601f19601f82011682018060405250810190611c9a9190612cc6565b5050565b600260009054906101000a900473ffffffffffffffffffffffffffffffffffffffff1681565b6000811480611d4e575060008373ffffffffffffffffffffffffffffffffffffffff1663dd62ed3e30856040518363ffffffff1660e01b8152600401611d0b929190612cf3565b602060405180830381865afa158015611d28573d6000803e3d6000fd5b505050506040513d601f19601f82011682018060405250810190611d4c9190612b46565b145b611d8d576040517f08c379a0000000000000000000000000000000000000000000000000000000008152600401611d8490612d8e565b60405180910390fd5b611e0e8363095ea7b360e01b8484604051602401611dac929190612c71565b604051602081830303815290604052907bffffffffffffffffffffffffffffffffffffffffffffffffffffffff19166020820180517bffffffffffffffffffffffffffffffffffffffffffffffffffffffff8381831617835250505050612430565b505050565b6060611e2284846000856124f7565b90509392505050565b611e33610e58565b15611e73576040517f08c379a0000000000000000000000000000000000000000000000000000000008152600401611e6a90612bbf565b60405180910390fd5b3373ffffffffffffffffffffffffffffffffffffffff163273ffffffffffffffffffffffffffffffffffffffff161480611efa5750600260009054906101000a900473ffffffffffffffffffffffffffffffffffffffff1673ffffffffffffffffffffffffffffffffffffffff163373ffffffffffffffffffffffffffffffffffffffff16145b611f39576040517f08c379a0000000000000000000000000000000000000000000000000000000008152600401611f3090612dfa565b60405180910390fd5b6000611f43611633565b9050600960009054906101000a900473ffffffffffffffffffffffffffffffffffffffff1673ffffffffffffffffffffffffffffffffffffffff1663441a3e70600b5460006040518363ffffffff1660e01b8152600401611fa5929190612e5f565b600060405180830381600087803b158015611fbf57600080fd5b505af1158015611fd3573d6000803e3d6000fd5b50505050600081111561206757611fe98161260b565b42600a81905550612066600260009054906101000a900473ffffffffffffffffffffffffffffffffffffffff1661201e6117b8565b600860009054906101000a900473ffffffffffffffffffffffffffffffffffffffff1673ffffffffffffffffffffffffffffffffffffffff166120819092919063ffffffff16565b5b5050565b600081836120799190612eb7565b905092915050565b6121028363a9059cbb60e01b84846040516024016120a0929190612c71565b604051602081830303815290604052907bffffffffffffffffffffffffffffffffffffffffffffffffffffffff19166020820180517bffffffffffffffffffffffffffffffffffffffffffffffffffffffff8381831617835250505050612430565b505050565b61210f610e58565b61214e576040517f08c379a000000000000000000000000000000000000000000000000000000000815260040161214590612f37565b60405180910390fd5b60008060146101000a81548160ff0219169083151502179055507f5db9ee0a495bf2e6ff9c91a7834c1ba4fdd244a5e8aa4e537bd38aeae4b073aa612191612239565b60405161219e91906127a2565b60405180910390a1565b612237600960009054906101000a900473ffffffffffffffffffffffffffffffffffffffff167fffffffffffffffffffffffffffffffffffffffffffffffffffffffffffffffff600760009054906101000a900473ffffffffffffffffffffffffffffffffffffffff1673ffffffffffffffffffffffffffffffffffffffff16611cc49092919063ffffffff16565b565b600033905090565b60008060009054906101000a900473ffffffffffffffffffffffffffffffffffffffff169050816000806101000a81548173ffffffffffffffffffffffffffffffffffffffff021916908373ffffffffffffffffffffffffffffffffffffffff1602179055508173ffffffffffffffffffffffffffffffffffffffff168173ffffffffffffffffffffffffffffffffffffffff167f8be0079c531659141344cd1fd0a4f28419497f9722a3daafe3b4186f6b6457e060405160405180910390a35050565b600081836123139190612f57565b905092915050565b612323610e58565b15612363576040517f08c379a000000000000000000000000000000000000000000000000000000000815260040161235a90612bbf565b60405180910390fd5b6001600060146101000a81548160ff0219169083151502179055507f62e78cea01bee320cd4e420270b5ea74000d11b0c9f74754ebdbfc544b05a2586123a7612239565b6040516123b491906127a2565b60405180910390a1565b61242e600960009054906101000a900473ffffffffffffffffffffffffffffffffffffffff166000600760009054906101000a900473ffffffffffffffffffffffffffffffffffffffff1673ffffffffffffffffffffffffffffffffffffffff16611cc49092919063ffffffff16565b565b6000612492826040518060400160405280602081526020017f5361666545524332303a206c6f772d6c6576656c2063616c6c206661696c65648152508573ffffffffffffffffffffffffffffffffffffffff16611e139092919063ffffffff16565b90506000815111156124f257808060200190518101906124b29190612cc6565b6124f1576040517f08c379a00000000000000000000000000000000000000000000000000000000081526004016124e89061301f565b60405180910390fd5b5b505050565b60608247101561253c576040517f08c379a0000000000000000000000000000000000000000000000000000000008152600401612533906130b1565b60405180910390fd5b612545856126ab565b612584576040517f08c379a000000000000000000000000000000000000000000000000000000000815260040161257b9061311d565b60405180910390fd5b6000808673ffffffffffffffffffffffffffffffffffffffff1685876040516125ad91906131b7565b60006040518083038185875af1925050503d80600081146125ea576040519150601f19603f3d011682016040523d82523d6000602084013e6125ef565b606091505b50915091506125ff8282866126ce565b92505050949350505050565b60006126366127106126286005548561273590919063ffffffff16565b61274b90919063ffffffff16565b90506126a7600360009054906101000a900473ffffffffffffffffffffffffffffffffffffffff1682600860009054906101000a900473ffffffffffffffffffffffffffffffffffffffff1673ffffffffffffffffffffffffffffffffffffffff166120819092919063ffffffff16565b5050565b6000808273ffffffffffffffffffffffffffffffffffffffff163b119050919050565b606083156126de5782905061272e565b6000835111156126f15782518084602001fd5b816040517f08c379a00000000000000000000000000000000000000000000000000000000081526004016127259190613223565b60405180910390fd5b9392505050565b600081836127439190613245565b905092915050565b6000818361275991906132ce565b905092915050565b600073ffffffffffffffffffffffffffffffffffffffff82169050919050565b600061278c82612761565b9050919050565b61279c81612781565b82525050565b60006020820190506127b76000830184612793565b92915050565b600080fd5b6127cb81612781565b81146127d657600080fd5b50565b6000813590506127e8816127c2565b92915050565b600060208284031215612804576128036127bd565b5b6000612812848285016127d9565b91505092915050565b6000819050919050565b61282e8161281b565b82525050565b60006020820190506128496000830184612825565b92915050565b6128588161281b565b811461286357600080fd5b50565b6000813590506128758161284f565b92915050565b600060208284031215612891576128906127bd565b5b600061289f84828501612866565b91505092915050565b60008115159050919050565b6128bd816128a8565b82525050565b60006020820190506128d860008301846128b4565b92915050565b60006040820190506128f36000830185612825565b6129006020830184612793565b9392505050565b6000815190506129168161284f565b92915050565b60008060408385031215612933576129326127bd565b5b600061294185828601612907565b925050602061295285828601612907565b9150509250929050565b600082825260208201905092915050565b7f216d616e61676572000000000000000000000000000000000000000000000000600082015250565b60006129a360088361295c565b91506129ae8261296d565b602082019050919050565b600060208201905081810360008301526129d281612996565b9050919050565b7f2163617000000000000000000000000000000000000000000000000000000000600082015250565b6000612a0f60048361295c565b9150612a1a826129d9565b602082019050919050565b60006020820190508181036000830152612a3e81612a02565b9050919050565b7f217661756c740000000000000000000000000000000000000000000000000000600082015250565b6000612a7b60068361295c565b9150612a8682612a45565b602082019050919050565b60006020820190508181036000830152612aaa81612a6e565b9050919050565b6000604082019050612ac66000830185612825565b612ad36020830184612825565b9392505050565b7f4f776e61626c653a2063616c6c6572206973206e6f7420746865206f776e6572600082015250565b6000612b1060208361295c565b9150612b1b82612ada565b602082019050919050565b60006020820190508181036000830152612b3f81612b03565b9050919050565b600060208284031215612b5c57612b5b6127bd565b5b6000612b6a84828501612907565b91505092915050565b7f5061757361626c653a2070617573656400000000000000000000000000000000600082015250565b6000612ba960108361295c565b9150612bb482612b73565b602082019050919050565b60006020820190508181036000830152612bd881612b9c565b9050919050565b7f4f776e61626c653a206e6577206f776e657220697320746865207a65726f206160008201527f6464726573730000000000000000000000000000000000000000000000000000602082015250565b6000612c3b60268361295c565b9150612c4682612bdf565b604082019050919050565b60006020820190508181036000830152612c6a81612c2e565b9050919050565b6000604082019050612c866000830185612793565b612c936020830184612825565b9392505050565b612ca3816128a8565b8114612cae57600080fd5b50565b600081519050612cc081612c9a565b92915050565b600060208284031215612cdc57612cdb6127bd565b5b6000612cea84828501612cb1565b91505092915050565b6000604082019050612d086000830185612793565b612d156020830184612793565b9392505050565b7f5361666545524332303a20617070726f76652066726f6d206e6f6e2d7a65726f60008201527f20746f206e6f6e2d7a65726f20616c6c6f77616e636500000000000000000000602082015250565b6000612d7860368361295c565b9150612d8382612d1c565b604082019050919050565b60006020820190508181036000830152612da781612d6b565b9050919050565b7f21636f6e74726163740000000000000000000000000000000000000000000000600082015250565b6000612de460098361295c565b9150612def82612dae565b602082019050919050565b60006020820190508181036000830152612e1381612dd7565b9050919050565b6000819050919050565b6000819050919050565b6000612e49612e44612e3f84612e1a565b612e24565b61281b565b9050919050565b612e5981612e2e565b82525050565b6000604082019050612e746000830185612825565b612e816020830184612e50565b9392505050565b7f4e487b7100000000000000000000000000000000000000000000000000000000600052601160045260246000fd5b6000612ec28261281b565b9150612ecd8361281b565b925082821015612ee057612edf612e88565b5b828203905092915050565b7f5061757361626c653a206e6f7420706175736564000000000000000000000000600082015250565b6000612f2160148361295c565b9150612f2c82612eeb565b602082019050919050565b60006020820190508181036000830152612f5081612f14565b9050919050565b6000612f628261281b565b9150612f6d8361281b565b9250827fffffffffffffffffffffffffffffffffffffffffffffffffffffffffffffffff03821115612fa257612fa1612e88565b5b828201905092915050565b7f5361666545524332303a204552433230206f7065726174696f6e20646964206e60008201527f6f74207375636365656400000000000000000000000000000000000000000000602082015250565b6000613009602a8361295c565b915061301482612fad565b604082019050919050565b6000602082019050818103600083015261303881612ffc565b9050919050565b7f416464726573733a20696e73756666696369656e742062616c616e636520666f60008201527f722063616c6c0000000000000000000000000000000000000000000000000000602082015250565b600061309b60268361295c565b91506130a68261303f565b604082019050919050565b600060208201905081810360008301526130ca8161308e565b9050919050565b7f416464726573733a2063616c6c20746f206e6f6e2d636f6e7472616374000000600082015250565b6000613107601d8361295c565b9150613112826130d1565b602082019050919050565b60006020820190508181036000830152613136816130fa565b9050919050565b600081519050919050565b600081905092915050565b60005b83811015613171578082015181840152602081019050613156565b83811115613180576000848401525b50505050565b60006131918261313d565b61319b8185613148565b93506131ab818560208601613153565b80840191505092915050565b60006131c38284613186565b915081905092915050565b600081519050919050565b6000601f19601f8301169050919050565b60006131f5826131ce565b6131ff818561295c565b935061320f818560208601613153565b613218816131d9565b840191505092915050565b6000602082019050818103600083015261323d81846131ea565b905092915050565b60006132508261281b565b915061325b8361281b565b9250817fffffffffffffffffffffffffffffffffffffffffffffffffffffffffffffffff048311821515161561329457613293612e88565b5b828202905092915050565b7f4e487b7100000000000000000000000000000000000000000000000000000000600052601260045260246000fd5b60006132d98261281b565b91506132e48361281b565b9250826132f4576132f361329f565b5b82820490509291505056fea2646970667358221220c804af18c655ff923525918a99442f6583b5ccbe035a13cf3a98e907ff688e8964736f6c634300080b0033",
  "immutableReferences": {},
  "source": "// SPDX-License-Identifier: MIT\n\npragma solidity 0.8.11;\npragma experimental ABIEncoderV2;\nimport \"hardhat/console.sol\";\nimport \"@openzeppelin/contracts/token/ERC20/ERC20.sol\";\nimport \"@openzeppelin/contracts/token/ERC20/utils/SafeERC20.sol\";\nimport \"@openzeppelin/contracts/utils/math/SafeMath.sol\";\n\nimport \"./StratManagerPLFY.sol\";\nimport \"./FeeManagerPLFY.sol\";\nimport \"../../protocol/PoolifyRewardManager.sol\";\n\ncontract StrategyPLFYLiquidity is StratManagerPLFY, FeeManagerPLFY {\n    using SafeERC20 for IERC20;\n    using SafeMath for uint256;\n\n    address constant nullAddress = address(0);\n\n    // Tokens used\n    address public want;\n    address public reward;\n\n    // Third party contracts\n    address public rewardManager;\n\n\n    bool public harvestOnDeposit;\n    uint256 public lastHarvest;\n\n    uint256 public poolRewardId;\n\n\n    /**\n     * @dev Event that is fired each time someone harvests the strat.\n     */\n    event StratHarvest(address indexed harvester, uint256 indexed timestamp);\n\n    constructor(\n        address _want,\n        address _reward,\n        address _rewardManager,\n        uint256 _poolRewardId,\n        address _vault,\n        address _keeper,\n        address _strategistRecipient\n    ) StratManagerPLFY(_keeper, _vault, _strategistRecipient) {\n        rewardManager = _rewardManager;\n        reward = _reward;\n        poolRewardId  = _poolRewardId;\n        want = _want;\n        _giveAllowances();\n    }\n\n    function deposit() public whenNotPaused {\n        uint256 wantBal = balanceOfWant();\n        if(wantBal > 0){\n            PoolifyRewardManager(rewardManager).deposit(poolRewardId,wantBal);\n        }\n    }\n\n    function withdraw(uint256 _amount) external {\n        require(msg.sender == vault, \"!vault\");\n        uint256 wantBal = balanceOfWant();\n\n        if (wantBal < _amount) {\n            PoolifyRewardManager(rewardManager).withdraw(poolRewardId,_amount.sub(wantBal));\n            wantBal = balanceOfWant();\n        }\n\n        if (wantBal > _amount) {\n            wantBal = _amount;\n        }\n        \n        IERC20(reward).safeTransfer(vault,balanceOfReward());\n        IERC20(want).safeTransfer(vault, wantBal);\n    }\n\n    // We harvest every time we do a deposit\n    function beforeDeposit() external override {\n        require(msg.sender == vault, \"!vault\");\n        _harvest(tx.origin);\n    }\n\n    function harvest() external {\n        _harvest(tx.origin);\n    }\n\n    function harvest(address callFeeRecipient) external {\n        _harvest(callFeeRecipient);\n    }\n\n\n    function managerHarvest() external onlyManager {\n        _harvest(tx.origin);\n    }\n\n    // compounds earnings and charges performance fee\n    function _harvest(address callFeeRecipient) internal whenNotPaused {\n        require(tx.origin == msg.sender || msg.sender == vault, \"!contract\");\n        \n        uint256 pendingBal = balanceOfPendingRewards();\n        // Withdraw pendingRewardBal\n        PoolifyRewardManager(rewardManager).withdraw(poolRewardId,0);\n        if (pendingBal > 0) {\n            chargeStrategistFees(pendingBal);\n            lastHarvest = block.timestamp;\n            IERC20(reward).safeTransfer(vault,balanceOfReward());\n        }\n    }\n\n\n    // Charge Strategist fees\n    function chargeStrategistFees(uint256 pendingBal) internal {\n        uint256 _strategistFeeAmount = pendingBal.mul(STRATEGIST_FEE).div(CALL_PRECISION);\n        IERC20(reward).safeTransfer(strategistRecipient, _strategistFeeAmount);\n    }\n\n    // calculate the total 'pending rewards'.\n    function balanceOfPendingRewards() public view returns (uint256){\n        return PoolifyRewardManager(rewardManager).pendingPoolify(poolRewardId,address(this));\n    }\n\n    // calculate the total underlaying 'want' held by the strat.\n    function balanceOf() public view returns (uint256) {\n        return balanceOfWant().add(balanceOfPool());\n    }\n\n    // it calculates how much 'want' this contract holds.\n    function balanceOfWant() public view returns (uint256) {\n        return IERC20(want).balanceOf(address(this));\n    }\n\n    // it calculates how much 'reward' this contract holds.\n    function balanceOfReward() public view returns (uint256) {\n        return IERC20(reward).balanceOf(address(this));\n    }\n\n    // it calculates how much 'want' the strategy has working in the farm.\n    function balanceOfPool() public view returns (uint256) {\n        (uint256 _amount,) = PoolifyRewardManager(rewardManager).userInfo(poolRewardId, address(this));\n        return _amount;\n    }\n\n\n    // called as part of strat migration. Sends all the available funds back to the vault.\n    function retireStrat() external {\n        require(msg.sender == vault, \"!vault\");\n\n        PoolifyRewardManager(rewardManager).emergencyWithdraw(poolRewardId);\n\n        uint256 wantBal = IERC20(want).balanceOf(address(this));\n        IERC20(want).transfer(vault, wantBal);\n    }\n\n    // pauses deposits and withdraws all funds from third party systems.\n    function panic() public onlyManager {\n        pause();\n        PoolifyRewardManager(rewardManager).emergencyWithdraw(poolRewardId);\n    }\n\n    function pause() public onlyManager {\n        _pause();\n\n        _removeAllowances();\n    }\n\n    function unpause() external onlyManager {\n        _unpause();\n\n        _giveAllowances();\n\n        deposit();\n    }\n\n    function _giveAllowances() internal {\n        IERC20(want).safeApprove(address(rewardManager), type(uint256).max);\n    }\n\n    function _removeAllowances() internal {\n        IERC20(want).safeApprove(address(rewardManager), 0);\n    }\n}\n",
  "sourcePath": "/home/trakers/Documents/crypto/poolify-official/contracts/src/contracts/strategies/Poolify/StrategyPLFYLiquidity.sol",
  "compiler": {
    "name": "solc",
    "version": "0.8.11+commit.d7f03943.Emscripten.clang"
  },
  "schemaVersion": "3.4.4",
  "updatedAt": "2022-03-23T17:54:08.064Z",
  "networkType": "ethereum",
  "devdoc": {
    "events": {
      "StratHarvest(address,uint256)": {
        "details": "Event that is fired each time someone harvests the strat."
      }
    },
    "kind": "dev",
    "methods": {
      "beforeDeposit()": {
        "details": "Function to synchronize balances before new user deposit. Can be overridden in the strategy."
      },
      "owner()": {
        "details": "Returns the address of the current owner."
      },
      "paused()": {
        "details": "Returns true if the contract is paused, and false otherwise."
      },
      "renounceOwnership()": {
        "details": "Leaves the contract without owner. It will not be possible to call `onlyOwner` functions anymore. Can only be called by the current owner. NOTE: Renouncing ownership will leave the contract without an owner, thereby removing any functionality that is only available to the owner."
      },
      "setKeeper(address)": {
        "details": "Updates address of the strat keeper.",
        "params": {
          "_keeper": "new keeper address."
        }
      },
      "setStrategistRecipient(address)": {
        "details": "Updates strategist recipient.",
        "params": {
          "_strategistRecipient": "new strategist recipient address."
        }
      },
      "setVault(address)": {
        "details": "Updates parent vault.",
        "params": {
          "_vault": "new vault address."
        }
      },
      "transferOwnership(address)": {
        "details": "Transfers ownership of the contract to a new account (`newOwner`). Can only be called by the current owner."
      }
    },
    "version": 1
  },
  "userdoc": {
    "kind": "user",
    "methods": {},
    "version": 1
  }
}