{
  "_format": "hh-sol-artifact-1",
  "contractName": "StrategyPLFY",
  "sourceName": "src/contracts/strategies/Poolify/StrategyPLFY.sol",
  "abi": [
    {
      "inputs": [
        {
          "internalType": "address",
          "name": "_want",
          "type": "address"
        },
        {
          "internalType": "address",
          "name": "_rewardManager",
          "type": "address"
        },
        {
          "internalType": "address",
          "name": "_vault",
          "type": "address"
        },
        {
          "internalType": "address",
          "name": "_keeper",
          "type": "address"
        },
        {
          "internalType": "address",
          "name": "_strategistRecipient",
          "type": "address"
        }
      ],
      "stateMutability": "nonpayable",
      "type": "constructor"
    },
    {
      "anonymous": false,
      "inputs": [
        {
          "indexed": true,
          "internalType": "address",
          "name": "previousOwner",
          "type": "address"
        },
        {
          "indexed": true,
          "internalType": "address",
          "name": "newOwner",
          "type": "address"
        }
      ],
      "name": "OwnershipTransferred",
      "type": "event"
    },
    {
      "anonymous": false,
      "inputs": [
        {
          "indexed": false,
          "internalType": "address",
          "name": "account",
          "type": "address"
        }
      ],
      "name": "Paused",
      "type": "event"
    },
    {
      "anonymous": false,
      "inputs": [
        {
          "indexed": true,
          "internalType": "address",
          "name": "harvester",
          "type": "address"
        },
        {
          "indexed": true,
          "internalType": "uint256",
          "name": "timestamp",
          "type": "uint256"
        }
      ],
      "name": "StratHarvest",
      "type": "event"
    },
    {
      "anonymous": false,
      "inputs": [
        {
          "indexed": false,
          "internalType": "address",
          "name": "account",
          "type": "address"
        }
      ],
      "name": "Unpaused",
      "type": "event"
    },
    {
      "inputs": [],
      "name": "CALL_FEE",
      "outputs": [
        {
          "internalType": "uint256",
          "name": "",
          "type": "uint256"
        }
      ],
      "stateMutability": "view",
      "type": "function"
    },
    {
      "inputs": [],
      "name": "CALL_FEE_MAX",
      "outputs": [
        {
          "internalType": "uint256",
          "name": "",
          "type": "uint256"
        }
      ],
      "stateMutability": "view",
      "type": "function"
    },
    {
      "inputs": [],
      "name": "CALL_PRECISION",
      "outputs": [
        {
          "internalType": "uint256",
          "name": "",
          "type": "uint256"
        }
      ],
      "stateMutability": "view",
      "type": "function"
    },
    {
      "inputs": [],
      "name": "STRATEGIST_FEE",
      "outputs": [
        {
          "internalType": "uint256",
          "name": "",
          "type": "uint256"
        }
      ],
      "stateMutability": "view",
      "type": "function"
    },
    {
      "inputs": [],
      "name": "STRATEGIST_FEE_MAX",
      "outputs": [
        {
          "internalType": "uint256",
          "name": "",
          "type": "uint256"
        }
      ],
      "stateMutability": "view",
      "type": "function"
    },
    {
      "inputs": [],
      "name": "STRATEGIST_PRECISION",
      "outputs": [
        {
          "internalType": "uint256",
          "name": "",
          "type": "uint256"
        }
      ],
      "stateMutability": "view",
      "type": "function"
    },
    {
      "inputs": [],
      "name": "WITHDRAWAL_FEE",
      "outputs": [
        {
          "internalType": "uint256",
          "name": "",
          "type": "uint256"
        }
      ],
      "stateMutability": "view",
      "type": "function"
    },
    {
      "inputs": [],
      "name": "WITHDRAWAL_FEE_MAX",
      "outputs": [
        {
          "internalType": "uint256",
          "name": "",
          "type": "uint256"
        }
      ],
      "stateMutability": "view",
      "type": "function"
    },
    {
      "inputs": [],
      "name": "WITHDRAWAL_PRECISION",
      "outputs": [
        {
          "internalType": "uint256",
          "name": "",
          "type": "uint256"
        }
      ],
      "stateMutability": "view",
      "type": "function"
    },
    {
      "inputs": [],
      "name": "balanceOf",
      "outputs": [
        {
          "internalType": "uint256",
          "name": "",
          "type": "uint256"
        }
      ],
      "stateMutability": "view",
      "type": "function"
    },
    {
      "inputs": [],
      "name": "balanceOfBounty",
      "outputs": [
        {
          "internalType": "uint256",
          "name": "",
          "type": "uint256"
        }
      ],
      "stateMutability": "view",
      "type": "function"
    },
    {
      "inputs": [],
      "name": "balanceOfPendingRewards",
      "outputs": [
        {
          "internalType": "uint256",
          "name": "",
          "type": "uint256"
        }
      ],
      "stateMutability": "view",
      "type": "function"
    },
    {
      "inputs": [],
      "name": "balanceOfPool",
      "outputs": [
        {
          "internalType": "uint256",
          "name": "",
          "type": "uint256"
        }
      ],
      "stateMutability": "view",
      "type": "function"
    },
    {
      "inputs": [],
      "name": "balanceOfWant",
      "outputs": [
        {
          "internalType": "uint256",
          "name": "",
          "type": "uint256"
        }
      ],
      "stateMutability": "view",
      "type": "function"
    },
    {
      "inputs": [],
      "name": "beforeDeposit",
      "outputs": [],
      "stateMutability": "nonpayable",
      "type": "function"
    },
    {
      "inputs": [],
      "name": "deposit",
      "outputs": [],
      "stateMutability": "nonpayable",
      "type": "function"
    },
    {
      "inputs": [
        {
          "internalType": "address",
          "name": "callFeeRecipient",
          "type": "address"
        }
      ],
      "name": "harvest",
      "outputs": [],
      "stateMutability": "nonpayable",
      "type": "function"
    },
    {
      "inputs": [],
      "name": "harvest",
      "outputs": [],
      "stateMutability": "nonpayable",
      "type": "function"
    },
    {
      "inputs": [],
      "name": "harvestOnDeposit",
      "outputs": [
        {
          "internalType": "bool",
          "name": "",
          "type": "bool"
        }
      ],
      "stateMutability": "view",
      "type": "function"
    },
    {
      "inputs": [],
      "name": "keeper",
      "outputs": [
        {
          "internalType": "address",
          "name": "",
          "type": "address"
        }
      ],
      "stateMutability": "view",
      "type": "function"
    },
    {
      "inputs": [],
      "name": "lastHarvest",
      "outputs": [
        {
          "internalType": "uint256",
          "name": "",
          "type": "uint256"
        }
      ],
      "stateMutability": "view",
      "type": "function"
    },
    {
      "inputs": [],
      "name": "managerHarvest",
      "outputs": [],
      "stateMutability": "nonpayable",
      "type": "function"
    },
    {
      "inputs": [],
      "name": "owner",
      "outputs": [
        {
          "internalType": "address",
          "name": "",
          "type": "address"
        }
      ],
      "stateMutability": "view",
      "type": "function"
    },
    {
      "inputs": [],
      "name": "panic",
      "outputs": [],
      "stateMutability": "nonpayable",
      "type": "function"
    },
    {
      "inputs": [],
      "name": "pause",
      "outputs": [],
      "stateMutability": "nonpayable",
      "type": "function"
    },
    {
      "inputs": [],
      "name": "paused",
      "outputs": [
        {
          "internalType": "bool",
          "name": "",
          "type": "bool"
        }
      ],
      "stateMutability": "view",
      "type": "function"
    },
    {
      "inputs": [],
      "name": "renounceOwnership",
      "outputs": [],
      "stateMutability": "nonpayable",
      "type": "function"
    },
    {
      "inputs": [],
      "name": "retireStrat",
      "outputs": [],
      "stateMutability": "nonpayable",
      "type": "function"
    },
    {
      "inputs": [],
      "name": "rewardManager",
      "outputs": [
        {
          "internalType": "address",
          "name": "",
          "type": "address"
        }
      ],
      "stateMutability": "view",
      "type": "function"
    },
    {
      "inputs": [
        {
          "internalType": "uint256",
          "name": "_fee",
          "type": "uint256"
        }
      ],
      "name": "setCallFee",
      "outputs": [],
      "stateMutability": "nonpayable",
      "type": "function"
    },
    {
      "inputs": [
        {
          "internalType": "address",
          "name": "_keeper",
          "type": "address"
        }
      ],
      "name": "setKeeper",
      "outputs": [],
      "stateMutability": "nonpayable",
      "type": "function"
    },
    {
      "inputs": [
        {
          "internalType": "uint256",
          "name": "_fee",
          "type": "uint256"
        }
      ],
      "name": "setStrategistFee",
      "outputs": [],
      "stateMutability": "nonpayable",
      "type": "function"
    },
    {
      "inputs": [
        {
          "internalType": "address",
          "name": "_strategistRecipient",
          "type": "address"
        }
      ],
      "name": "setStrategistRecipient",
      "outputs": [],
      "stateMutability": "nonpayable",
      "type": "function"
    },
    {
      "inputs": [
        {
          "internalType": "address",
          "name": "_vault",
          "type": "address"
        }
      ],
      "name": "setVault",
      "outputs": [],
      "stateMutability": "nonpayable",
      "type": "function"
    },
    {
      "inputs": [
        {
          "internalType": "uint256",
          "name": "_fee",
          "type": "uint256"
        }
      ],
      "name": "setWithdrawalFee",
      "outputs": [],
      "stateMutability": "nonpayable",
      "type": "function"
    },
    {
      "inputs": [],
      "name": "strategistRecipient",
      "outputs": [
        {
          "internalType": "address",
          "name": "",
          "type": "address"
        }
      ],
      "stateMutability": "view",
      "type": "function"
    },
    {
      "inputs": [
        {
          "internalType": "address",
          "name": "newOwner",
          "type": "address"
        }
      ],
      "name": "transferOwnership",
      "outputs": [],
      "stateMutability": "nonpayable",
      "type": "function"
    },
    {
      "inputs": [],
      "name": "unpause",
      "outputs": [],
      "stateMutability": "nonpayable",
      "type": "function"
    },
    {
      "inputs": [],
      "name": "vault",
      "outputs": [
        {
          "internalType": "address",
          "name": "",
          "type": "address"
        }
      ],
      "stateMutability": "view",
      "type": "function"
    },
    {
      "inputs": [],
      "name": "want",
      "outputs": [
        {
          "internalType": "address",
          "name": "",
          "type": "address"
        }
      ],
      "stateMutability": "view",
      "type": "function"
    },
    {
      "inputs": [
        {
          "internalType": "uint256",
          "name": "_amount",
          "type": "uint256"
        }
      ],
      "name": "withdraw",
      "outputs": [],
      "stateMutability": "nonpayable",
      "type": "function"
    }
  ],
  "bytecode": "0x60806040526064600455606460055560006006553480156200002057600080fd5b5060405162003f1738038062003f178339818101604052810190620000469190620007c7565b818382620000696200005d620001e660201b60201c565b620001ee60201b60201c565b60008060146101000a81548160ff02191690831515021790555082600160006101000a81548173ffffffffffffffffffffffffffffffffffffffff021916908373ffffffffffffffffffffffffffffffffffffffff16021790555081600260006101000a81548173ffffffffffffffffffffffffffffffffffffffff021916908373ffffffffffffffffffffffffffffffffffffffff16021790555080600360006101000a81548173ffffffffffffffffffffffffffffffffffffffff021916908373ffffffffffffffffffffffffffffffffffffffff16021790555050505083600860006101000a81548173ffffffffffffffffffffffffffffffffffffffff021916908373ffffffffffffffffffffffffffffffffffffffff16021790555084600760006101000a81548173ffffffffffffffffffffffffffffffffffffffff021916908373ffffffffffffffffffffffffffffffffffffffff160217905550620001db620002b260201b60201c565b505050505062000d0f565b600033905090565b60008060009054906101000a900473ffffffffffffffffffffffffffffffffffffffff169050816000806101000a81548173ffffffffffffffffffffffffffffffffffffffff021916908373ffffffffffffffffffffffffffffffffffffffff1602179055508173ffffffffffffffffffffffffffffffffffffffff168173ffffffffffffffffffffffffffffffffffffffff167f8be0079c531659141344cd1fd0a4f28419497f9722a3daafe3b4186f6b6457e060405160405180910390a35050565b62000348600860009054906101000a900473ffffffffffffffffffffffffffffffffffffffff167fffffffffffffffffffffffffffffffffffffffffffffffffffffffffffffffff600760009054906101000a900473ffffffffffffffffffffffffffffffffffffffff1673ffffffffffffffffffffffffffffffffffffffff166200034a60201b62001b63179092919060201c565b565b6000811480620003da575060008373ffffffffffffffffffffffffffffffffffffffff1663dd62ed3e30856040518363ffffffff1660e01b81526004016200039492919062000860565b602060405180830381865afa158015620003b2573d6000803e3d6000fd5b505050506040513d601f19601f82011682018060405250810190620003d89190620008c8565b145b6200041c576040517f08c379a0000000000000000000000000000000000000000000000000000000008152600401620004139062000981565b60405180910390fd5b620004a78363095ea7b360e01b84846040516024016200043e929190620009b4565b604051602081830303815290604052907bffffffffffffffffffffffffffffffffffffffffffffffffffffffff19166020820180517bffffffffffffffffffffffffffffffffffffffffffffffffffffffff8381831617835250505050620004ac60201b60201c565b505050565b600062000515826040518060400160405280602081526020017f5361666545524332303a206c6f772d6c6576656c2063616c6c206661696c65648152508573ffffffffffffffffffffffffffffffffffffffff166200058060201b62001cb2179092919060201c565b90506000815111156200057b578080602001905181019062000538919062000a1e565b6200057a576040517f08c379a0000000000000000000000000000000000000000000000000000000008152600401620005719062000ac6565b60405180910390fd5b5b505050565b6060620005978484600085620005a060201b60201c565b90509392505050565b606082471015620005e8576040517f08c379a0000000000000000000000000000000000000000000000000000000008152600401620005df9062000b5e565b60405180910390fd5b620005f985620006ce60201b60201c565b6200063b576040517f08c379a0000000000000000000000000000000000000000000000000000000008152600401620006329062000bd0565b60405180910390fd5b6000808673ffffffffffffffffffffffffffffffffffffffff16858760405162000666919062000c75565b60006040518083038185875af1925050503d8060008114620006a5576040519150601f19603f3d011682016040523d82523d6000602084013e620006aa565b606091505b5091509150620006c2828286620006f160201b60201c565b92505050949350505050565b6000808273ffffffffffffffffffffffffffffffffffffffff163b119050919050565b60608315620007035782905062000756565b600083511115620007175782518084602001fd5b816040517f08c379a00000000000000000000000000000000000000000000000000000000081526004016200074d919062000ceb565b60405180910390fd5b9392505050565b600080fd5b600073ffffffffffffffffffffffffffffffffffffffff82169050919050565b60006200078f8262000762565b9050919050565b620007a18162000782565b8114620007ad57600080fd5b50565b600081519050620007c18162000796565b92915050565b600080600080600060a08688031215620007e657620007e56200075d565b5b6000620007f688828901620007b0565b95505060206200080988828901620007b0565b94505060406200081c88828901620007b0565b93505060606200082f88828901620007b0565b92505060806200084288828901620007b0565b9150509295509295909350565b6200085a8162000782565b82525050565b60006040820190506200087760008301856200084f565b6200088660208301846200084f565b9392505050565b6000819050919050565b620008a2816200088d565b8114620008ae57600080fd5b50565b600081519050620008c28162000897565b92915050565b600060208284031215620008e157620008e06200075d565b5b6000620008f184828501620008b1565b91505092915050565b600082825260208201905092915050565b7f5361666545524332303a20617070726f76652066726f6d206e6f6e2d7a65726f60008201527f20746f206e6f6e2d7a65726f20616c6c6f77616e636500000000000000000000602082015250565b600062000969603683620008fa565b915062000976826200090b565b604082019050919050565b600060208201905081810360008301526200099c816200095a565b9050919050565b620009ae816200088d565b82525050565b6000604082019050620009cb60008301856200084f565b620009da6020830184620009a3565b9392505050565b60008115159050919050565b620009f881620009e1565b811462000a0457600080fd5b50565b60008151905062000a1881620009ed565b92915050565b60006020828403121562000a375762000a366200075d565b5b600062000a478482850162000a07565b91505092915050565b7f5361666545524332303a204552433230206f7065726174696f6e20646964206e60008201527f6f74207375636365656400000000000000000000000000000000000000000000602082015250565b600062000aae602a83620008fa565b915062000abb8262000a50565b604082019050919050565b6000602082019050818103600083015262000ae18162000a9f565b9050919050565b7f416464726573733a20696e73756666696369656e742062616c616e636520666f60008201527f722063616c6c0000000000000000000000000000000000000000000000000000602082015250565b600062000b46602683620008fa565b915062000b538262000ae8565b604082019050919050565b6000602082019050818103600083015262000b798162000b37565b9050919050565b7f416464726573733a2063616c6c20746f206e6f6e2d636f6e7472616374000000600082015250565b600062000bb8601d83620008fa565b915062000bc58262000b80565b602082019050919050565b6000602082019050818103600083015262000beb8162000ba9565b9050919050565b600081519050919050565b600081905092915050565b60005b8381101562000c2857808201518184015260208101905062000c0b565b8381111562000c38576000848401525b50505050565b600062000c4b8262000bf2565b62000c57818562000bfd565b935062000c6981856020860162000c08565b80840191505092915050565b600062000c83828462000c3e565b915081905092915050565b600081519050919050565b6000601f19601f8301169050919050565b600062000cb78262000c8e565b62000cc38185620008fa565b935062000cd581856020860162000c08565b62000ce08162000c99565b840191505092915050565b6000602082019050818103600083015262000d07818462000caa565b905092915050565b6131f88062000d1f6000396000f3fe608060405234801561001057600080fd5b50600436106102535760003560e01c80638456cb5911610146578063c0ace075116100c3578063d879f3f011610087578063d879f3f0146105c4578063ee5cab59146105e2578063f1a392da146105fe578063f2fde38b1461061c578063fb61778714610638578063fbfa77cf1461064257610253565b8063c0ace07514610556578063c1a3d44c14610574578063d0e30db014610592578063d6b155971461059c578063d801d946146105ba57610253565b8063951d6d201161010a578063951d6d20146104c257806395dc0e9f146104e0578063a5d33ed5146104fe578063ac1e50251461051c578063aced16611461053857610253565b80638456cb59146104425780638912cb8b1461044c5780638a2d64a61461046a5780638ba2f0ba146104885780638da5cb5b146104a457610253565b8063573fef0a116101d4578063722713f711610198578063722713f7146103ae5780637485e5bd146103cc578063748747e6146103ea5780637d38ca65146104065780637f4882551461042457610253565b8063573fef0a146103425780635c975abb1461034c5780636817031b1461036a578063715018a6146103865780637156fa881461039057610253565b8063264658261161021b57806326465826146102ec5780632e1a7d4d146103085780633f4ba83a146103245780634641257d1461032e5780634700d3051461033857610253565b806306d8d18f146102585780630e5c011e146102765780630f4ef8a61461029257806311588086146102b05780631f1fcd51146102ce575b600080fd5b610260610660565b60405161026d919061269c565b60405180910390f35b610290600480360381019061028b91906126e8565b610686565b005b61029a610692565b6040516102a7919061269c565b60405180910390f35b6102b86106b8565b6040516102c5919061272e565b60405180910390f35b6102d6610763565b6040516102e3919061269c565b60405180910390f35b61030660048036038101906103019190612775565b610789565b005b610322600480360381019061031d9190612775565b6108a5565b005b61032c610a72565b005b610336610b59565b005b610340610b64565b005b61034a610cc9565b005b610354610d64565b60405161036191906127bd565b60405180910390f35b610384600480360381019061037f91906126e8565b610d7a565b005b61038e610e3a565b005b610398610ec2565b6040516103a5919061272e565b60405180910390f35b6103b6610ec8565b6040516103c3919061272e565b60405180910390f35b6103d4610ef0565b6040516103e1919061272e565b60405180910390f35b61040460048036038101906103ff91906126e8565b610f32565b005b61040e611043565b60405161041b919061272e565b60405180910390f35b61042c611049565b604051610439919061272e565b60405180910390f35b61044a61104f565b005b61045461112e565b60405161046191906127bd565b60405180910390f35b610472611141565b60405161047f919061272e565b60405180910390f35b6104a2600480360381019061049d9190612775565b611147565b005b6104ac611263565b6040516104b9919061269c565b60405180910390f35b6104ca61128c565b6040516104d7919061272e565b60405180910390f35b6104e8611292565b6040516104f5919061272e565b60405180910390f35b610506611298565b604051610513919061272e565b60405180910390f35b61053660048036038101906105319190612775565b61129e565b005b6105406113ba565b60405161054d919061269c565b60405180910390f35b61055e6113e0565b60405161056b919061272e565b60405180910390f35b61057c6113e6565b604051610589919061272e565b60405180910390f35b61059a611489565b005b6105a4611577565b6040516105b1919061272e565b60405180910390f35b6105c261161d565b005b6105cc6116f5565b6040516105d9919061272e565b60405180910390f35b6105fc60048036038101906105f791906126e8565b6116fb565b005b6106066117bb565b604051610613919061272e565b60405180910390f35b610636600480360381019061063191906126e8565b6117c1565b005b6106406118b9565b005b61064a611b3d565b604051610657919061269c565b60405180910390f35b600360009054906101000a900473ffffffffffffffffffffffffffffffffffffffff1681565b61068f81611cca565b50565b600860009054906101000a900473ffffffffffffffffffffffffffffffffffffffff1681565b600080600860009054906101000a900473ffffffffffffffffffffffffffffffffffffffff1673ffffffffffffffffffffffffffffffffffffffff166393f1a40b6000306040518363ffffffff1660e01b815260040161071992919061281d565b6040805180830381865afa158015610735573d6000803e3d6000fd5b505050506040513d601f19601f82011682018060405250810190610759919061285b565b5090508091505090565b600760009054906101000a900473ffffffffffffffffffffffffffffffffffffffff1681565b610791611263565b73ffffffffffffffffffffffffffffffffffffffff163373ffffffffffffffffffffffffffffffffffffffff1614806108175750600160009054906101000a900473ffffffffffffffffffffffffffffffffffffffff1673ffffffffffffffffffffffffffffffffffffffff163373ffffffffffffffffffffffffffffffffffffffff16145b610856576040517f08c379a000000000000000000000000000000000000000000000000000000000815260040161084d906128f8565b60405180910390fd5b6103e881111561089b576040517f08c379a000000000000000000000000000000000000000000000000000000000815260040161089290612964565b60405180910390fd5b8060048190555050565b600260009054906101000a900473ffffffffffffffffffffffffffffffffffffffff1673ffffffffffffffffffffffffffffffffffffffff163373ffffffffffffffffffffffffffffffffffffffff1614610935576040517f08c379a000000000000000000000000000000000000000000000000000000000815260040161092c906129d0565b60405180910390fd5b600061093f6113e6565b9050818110156109f357600860009054906101000a900473ffffffffffffffffffffffffffffffffffffffff1673ffffffffffffffffffffffffffffffffffffffff16631058d28161099a8385611ee690919063ffffffff16565b6040518263ffffffff1660e01b81526004016109b6919061272e565b600060405180830381600087803b1580156109d057600080fd5b505af11580156109e4573d6000803e3d6000fd5b505050506109f06113e6565b90505b818111156109ff578190505b610a6e600260009054906101000a900473ffffffffffffffffffffffffffffffffffffffff1682600760009054906101000a900473ffffffffffffffffffffffffffffffffffffffff1673ffffffffffffffffffffffffffffffffffffffff16611efc9092919063ffffffff16565b5050565b610a7a611263565b73ffffffffffffffffffffffffffffffffffffffff163373ffffffffffffffffffffffffffffffffffffffff161480610b005750600160009054906101000a900473ffffffffffffffffffffffffffffffffffffffff1673ffffffffffffffffffffffffffffffffffffffff163373ffffffffffffffffffffffffffffffffffffffff16145b610b3f576040517f08c379a0000000000000000000000000000000000000000000000000000000008152600401610b36906128f8565b60405180910390fd5b610b47611f82565b610b4f612023565b610b57611489565b565b610b6232611cca565b565b610b6c611263565b73ffffffffffffffffffffffffffffffffffffffff163373ffffffffffffffffffffffffffffffffffffffff161480610bf25750600160009054906101000a900473ffffffffffffffffffffffffffffffffffffffff1673ffffffffffffffffffffffffffffffffffffffff163373ffffffffffffffffffffffffffffffffffffffff16145b610c31576040517f08c379a0000000000000000000000000000000000000000000000000000000008152600401610c28906128f8565b60405180910390fd5b610c3961104f565b600860009054906101000a900473ffffffffffffffffffffffffffffffffffffffff1673ffffffffffffffffffffffffffffffffffffffff16635312ea8e60006040518263ffffffff1660e01b8152600401610c9591906129f0565b600060405180830381600087803b158015610caf57600080fd5b505af1158015610cc3573d6000803e3d6000fd5b50505050565b600260009054906101000a900473ffffffffffffffffffffffffffffffffffffffff1673ffffffffffffffffffffffffffffffffffffffff163373ffffffffffffffffffffffffffffffffffffffff1614610d59576040517f08c379a0000000000000000000000000000000000000000000000000000000008152600401610d50906129d0565b60405180910390fd5b610d6232611cca565b565b60008060149054906101000a900460ff16905090565b610d826120b4565b73ffffffffffffffffffffffffffffffffffffffff16610da0611263565b73ffffffffffffffffffffffffffffffffffffffff1614610df6576040517f08c379a0000000000000000000000000000000000000000000000000000000008152600401610ded90612a57565b60405180910390fd5b80600260006101000a81548173ffffffffffffffffffffffffffffffffffffffff021916908373ffffffffffffffffffffffffffffffffffffffff16021790555050565b610e426120b4565b73ffffffffffffffffffffffffffffffffffffffff16610e60611263565b73ffffffffffffffffffffffffffffffffffffffff1614610eb6576040517f08c379a0000000000000000000000000000000000000000000000000000000008152600401610ead90612a57565b60405180910390fd5b610ec060006120bc565b565b61271081565b6000610eeb610ed56106b8565b610edd6113e6565b61218090919063ffffffff16565b905090565b600080610efb611577565b90506000610f28612710610f1a6004548561219690919063ffffffff16565b6121ac90919063ffffffff16565b9050809250505090565b610f3a611263565b73ffffffffffffffffffffffffffffffffffffffff163373ffffffffffffffffffffffffffffffffffffffff161480610fc05750600160009054906101000a900473ffffffffffffffffffffffffffffffffffffffff1673ffffffffffffffffffffffffffffffffffffffff163373ffffffffffffffffffffffffffffffffffffffff16145b610fff576040517f08c379a0000000000000000000000000000000000000000000000000000000008152600401610ff6906128f8565b60405180910390fd5b80600160006101000a81548173ffffffffffffffffffffffffffffffffffffffff021916908373ffffffffffffffffffffffffffffffffffffffff16021790555050565b60055481565b6103e881565b611057611263565b73ffffffffffffffffffffffffffffffffffffffff163373ffffffffffffffffffffffffffffffffffffffff1614806110dd5750600160009054906101000a900473ffffffffffffffffffffffffffffffffffffffff1673ffffffffffffffffffffffffffffffffffffffff163373ffffffffffffffffffffffffffffffffffffffff16145b61111c576040517f08c379a0000000000000000000000000000000000000000000000000000000008152600401611113906128f8565b60405180910390fd5b6111246121c2565b61112c612265565b565b600860149054906101000a900460ff1681565b6103e881565b61114f611263565b73ffffffffffffffffffffffffffffffffffffffff163373ffffffffffffffffffffffffffffffffffffffff1614806111d55750600160009054906101000a900473ffffffffffffffffffffffffffffffffffffffff1673ffffffffffffffffffffffffffffffffffffffff163373ffffffffffffffffffffffffffffffffffffffff16145b611214576040517f08c379a000000000000000000000000000000000000000000000000000000000815260040161120b906128f8565b60405180910390fd5b6103e8811115611259576040517f08c379a000000000000000000000000000000000000000000000000000000000815260040161125090612964565b60405180910390fd5b8060058190555050565b60008060009054906101000a900473ffffffffffffffffffffffffffffffffffffffff16905090565b60045481565b61271081565b60065481565b6112a6611263565b73ffffffffffffffffffffffffffffffffffffffff163373ffffffffffffffffffffffffffffffffffffffff16148061132c5750600160009054906101000a900473ffffffffffffffffffffffffffffffffffffffff1673ffffffffffffffffffffffffffffffffffffffff163373ffffffffffffffffffffffffffffffffffffffff16145b61136b576040517f08c379a0000000000000000000000000000000000000000000000000000000008152600401611362906128f8565b60405180910390fd5b6103e88111156113b0576040517f08c379a00000000000000000000000000000000000000000000000000000000081526004016113a790612964565b60405180910390fd5b8060068190555050565b600160009054906101000a900473ffffffffffffffffffffffffffffffffffffffff1681565b61271081565b6000600760009054906101000a900473ffffffffffffffffffffffffffffffffffffffff1673ffffffffffffffffffffffffffffffffffffffff166370a08231306040518263ffffffff1660e01b8152600401611443919061269c565b602060405180830381865afa158015611460573d6000803e3d6000fd5b505050506040513d601f19601f820116820180604052508101906114849190612a77565b905090565b611491610d64565b156114d1576040517f08c379a00000000000000000000000000000000000000000000000000000000081526004016114c890612af0565b60405180910390fd5b60006114db6113e6565b9050600081111561157457600860009054906101000a900473ffffffffffffffffffffffffffffffffffffffff1673ffffffffffffffffffffffffffffffffffffffff166341441d3b826040518263ffffffff1660e01b8152600401611541919061272e565b600060405180830381600087803b15801561155b57600080fd5b505af115801561156f573d6000803e3d6000fd5b505050505b50565b6000600860009054906101000a900473ffffffffffffffffffffffffffffffffffffffff1673ffffffffffffffffffffffffffffffffffffffff166308571c906000306040518363ffffffff1660e01b81526004016115d792919061281d565b602060405180830381865afa1580156115f4573d6000803e3d6000fd5b505050506040513d601f19601f820116820180604052508101906116189190612a77565b905090565b611625611263565b73ffffffffffffffffffffffffffffffffffffffff163373ffffffffffffffffffffffffffffffffffffffff1614806116ab5750600160009054906101000a900473ffffffffffffffffffffffffffffffffffffffff1673ffffffffffffffffffffffffffffffffffffffff163373ffffffffffffffffffffffffffffffffffffffff16145b6116ea576040517f08c379a00000000000000000000000000000000000000000000000000000000081526004016116e1906128f8565b60405180910390fd5b6116f332611cca565b565b6103e881565b6117036120b4565b73ffffffffffffffffffffffffffffffffffffffff16611721611263565b73ffffffffffffffffffffffffffffffffffffffff1614611777576040517f08c379a000000000000000000000000000000000000000000000000000000000815260040161176e90612a57565b60405180910390fd5b80600360006101000a81548173ffffffffffffffffffffffffffffffffffffffff021916908373ffffffffffffffffffffffffffffffffffffffff16021790555050565b60095481565b6117c96120b4565b73ffffffffffffffffffffffffffffffffffffffff166117e7611263565b73ffffffffffffffffffffffffffffffffffffffff161461183d576040517f08c379a000000000000000000000000000000000000000000000000000000000815260040161183490612a57565b60405180910390fd5b600073ffffffffffffffffffffffffffffffffffffffff168173ffffffffffffffffffffffffffffffffffffffff1614156118ad576040517f08c379a00000000000000000000000000000000000000000000000000000000081526004016118a490612b82565b60405180910390fd5b6118b6816120bc565b50565b600260009054906101000a900473ffffffffffffffffffffffffffffffffffffffff1673ffffffffffffffffffffffffffffffffffffffff163373ffffffffffffffffffffffffffffffffffffffff1614611949576040517f08c379a0000000000000000000000000000000000000000000000000000000008152600401611940906129d0565b60405180910390fd5b600860009054906101000a900473ffffffffffffffffffffffffffffffffffffffff1673ffffffffffffffffffffffffffffffffffffffff16635312ea8e60006040518263ffffffff1660e01b81526004016119a591906129f0565b600060405180830381600087803b1580156119bf57600080fd5b505af11580156119d3573d6000803e3d6000fd5b505050506000600760009054906101000a900473ffffffffffffffffffffffffffffffffffffffff1673ffffffffffffffffffffffffffffffffffffffff166370a08231306040518263ffffffff1660e01b8152600401611a34919061269c565b602060405180830381865afa158015611a51573d6000803e3d6000fd5b505050506040513d601f19601f82011682018060405250810190611a759190612a77565b9050600760009054906101000a900473ffffffffffffffffffffffffffffffffffffffff1673ffffffffffffffffffffffffffffffffffffffff1663a9059cbb600260009054906101000a900473ffffffffffffffffffffffffffffffffffffffff16836040518363ffffffff1660e01b8152600401611af6929190612ba2565b6020604051808303816000875af1158015611b15573d6000803e3d6000fd5b505050506040513d601f19601f82011682018060405250810190611b399190612bf7565b5050565b600260009054906101000a900473ffffffffffffffffffffffffffffffffffffffff1681565b6000811480611bed575060008373ffffffffffffffffffffffffffffffffffffffff1663dd62ed3e30856040518363ffffffff1660e01b8152600401611baa929190612c24565b602060405180830381865afa158015611bc7573d6000803e3d6000fd5b505050506040513d601f19601f82011682018060405250810190611beb9190612a77565b145b611c2c576040517f08c379a0000000000000000000000000000000000000000000000000000000008152600401611c2390612cbf565b60405180910390fd5b611cad8363095ea7b360e01b8484604051602401611c4b929190612ba2565b604051602081830303815290604052907bffffffffffffffffffffffffffffffffffffffffffffffffffffffff19166020820180517bffffffffffffffffffffffffffffffffffffffffffffffffffffffff83818316178352505050506122d7565b505050565b6060611cc1848460008561239e565b90509392505050565b611cd2610d64565b15611d12576040517f08c379a0000000000000000000000000000000000000000000000000000000008152600401611d0990612af0565b60405180910390fd5b3373ffffffffffffffffffffffffffffffffffffffff163273ffffffffffffffffffffffffffffffffffffffff161480611d995750600260009054906101000a900473ffffffffffffffffffffffffffffffffffffffff1673ffffffffffffffffffffffffffffffffffffffff163373ffffffffffffffffffffffffffffffffffffffff16145b611dd8576040517f08c379a0000000000000000000000000000000000000000000000000000000008152600401611dcf90612d2b565b60405180910390fd5b6000611de2611577565b9050600860009054906101000a900473ffffffffffffffffffffffffffffffffffffffff1673ffffffffffffffffffffffffffffffffffffffff16631058d28160006040518263ffffffff1660e01b8152600401611e4091906129f0565b600060405180830381600087803b158015611e5a57600080fd5b505af1158015611e6e573d6000803e3d6000fd5b505050506000811115611ee257611e8582826124b2565b611e8e81612531565b611e96611489565b42600981905550423373ffffffffffffffffffffffffffffffffffffffff167f865390bb5d5b45fc22d8882e7465202e4ddb75def64919391d59bde6faaffadf60405160405180910390a35b5050565b60008183611ef49190612d7a565b905092915050565b611f7d8363a9059cbb60e01b8484604051602401611f1b929190612ba2565b604051602081830303815290604052907bffffffffffffffffffffffffffffffffffffffffffffffffffffffff19166020820180517bffffffffffffffffffffffffffffffffffffffffffffffffffffffff83818316178352505050506122d7565b505050565b611f8a610d64565b611fc9576040517f08c379a0000000000000000000000000000000000000000000000000000000008152600401611fc090612dfa565b60405180910390fd5b60008060146101000a81548160ff0219169083151502179055507f5db9ee0a495bf2e6ff9c91a7834c1ba4fdd244a5e8aa4e537bd38aeae4b073aa61200c6120b4565b604051612019919061269c565b60405180910390a1565b6120b2600860009054906101000a900473ffffffffffffffffffffffffffffffffffffffff167fffffffffffffffffffffffffffffffffffffffffffffffffffffffffffffffff600760009054906101000a900473ffffffffffffffffffffffffffffffffffffffff1673ffffffffffffffffffffffffffffffffffffffff16611b639092919063ffffffff16565b565b600033905090565b60008060009054906101000a900473ffffffffffffffffffffffffffffffffffffffff169050816000806101000a81548173ffffffffffffffffffffffffffffffffffffffff021916908373ffffffffffffffffffffffffffffffffffffffff1602179055508173ffffffffffffffffffffffffffffffffffffffff168173ffffffffffffffffffffffffffffffffffffffff167f8be0079c531659141344cd1fd0a4f28419497f9722a3daafe3b4186f6b6457e060405160405180910390a35050565b6000818361218e9190612e1a565b905092915050565b600081836121a49190612e70565b905092915050565b600081836121ba9190612ef9565b905092915050565b6121ca610d64565b1561220a576040517f08c379a000000000000000000000000000000000000000000000000000000000815260040161220190612af0565b60405180910390fd5b6001600060146101000a81548160ff0219169083151502179055507f62e78cea01bee320cd4e420270b5ea74000d11b0c9f74754ebdbfc544b05a25861224e6120b4565b60405161225b919061269c565b60405180910390a1565b6122d5600860009054906101000a900473ffffffffffffffffffffffffffffffffffffffff166000600760009054906101000a900473ffffffffffffffffffffffffffffffffffffffff1673ffffffffffffffffffffffffffffffffffffffff16611b639092919063ffffffff16565b565b6000612339826040518060400160405280602081526020017f5361666545524332303a206c6f772d6c6576656c2063616c6c206661696c65648152508573ffffffffffffffffffffffffffffffffffffffff16611cb29092919063ffffffff16565b905060008151111561239957808060200190518101906123599190612bf7565b612398576040517f08c379a000000000000000000000000000000000000000000000000000000000815260040161238f90612f9c565b60405180910390fd5b5b505050565b6060824710156123e3576040517f08c379a00000000000000000000000000000000000000000000000000000000081526004016123da9061302e565b60405180910390fd5b6123ec856125d1565b61242b576040517f08c379a00000000000000000000000000000000000000000000000000000000081526004016124229061309a565b60405180910390fd5b6000808673ffffffffffffffffffffffffffffffffffffffff1685876040516124549190613134565b60006040518083038185875af1925050503d8060008114612491576040519150601f19603f3d011682016040523d82523d6000602084013e612496565b606091505b50915091506124a68282866125f4565b92505050949350505050565b60006124dd6127106124cf6004548561219690919063ffffffff16565b6121ac90919063ffffffff16565b905061252c8382600760009054906101000a900473ffffffffffffffffffffffffffffffffffffffff1673ffffffffffffffffffffffffffffffffffffffff16611efc9092919063ffffffff16565b505050565b600061255c61271061254e6005548561219690919063ffffffff16565b6121ac90919063ffffffff16565b90506125cd600360009054906101000a900473ffffffffffffffffffffffffffffffffffffffff1682600760009054906101000a900473ffffffffffffffffffffffffffffffffffffffff1673ffffffffffffffffffffffffffffffffffffffff16611efc9092919063ffffffff16565b5050565b6000808273ffffffffffffffffffffffffffffffffffffffff163b119050919050565b6060831561260457829050612654565b6000835111156126175782518084602001fd5b816040517f08c379a000000000000000000000000000000000000000000000000000000000815260040161264b91906131a0565b60405180910390fd5b9392505050565b600073ffffffffffffffffffffffffffffffffffffffff82169050919050565b60006126868261265b565b9050919050565b6126968161267b565b82525050565b60006020820190506126b1600083018461268d565b92915050565b600080fd5b6126c58161267b565b81146126d057600080fd5b50565b6000813590506126e2816126bc565b92915050565b6000602082840312156126fe576126fd6126b7565b5b600061270c848285016126d3565b91505092915050565b6000819050919050565b61272881612715565b82525050565b6000602082019050612743600083018461271f565b92915050565b61275281612715565b811461275d57600080fd5b50565b60008135905061276f81612749565b92915050565b60006020828403121561278b5761278a6126b7565b5b600061279984828501612760565b91505092915050565b60008115159050919050565b6127b7816127a2565b82525050565b60006020820190506127d260008301846127ae565b92915050565b6000819050919050565b6000819050919050565b60006128076128026127fd846127d8565b6127e2565b612715565b9050919050565b612817816127ec565b82525050565b6000604082019050612832600083018561280e565b61283f602083018461268d565b9392505050565b60008151905061285581612749565b92915050565b60008060408385031215612872576128716126b7565b5b600061288085828601612846565b925050602061289185828601612846565b9150509250929050565b600082825260208201905092915050565b7f216d616e61676572000000000000000000000000000000000000000000000000600082015250565b60006128e260088361289b565b91506128ed826128ac565b602082019050919050565b60006020820190508181036000830152612911816128d5565b9050919050565b7f2163617000000000000000000000000000000000000000000000000000000000600082015250565b600061294e60048361289b565b915061295982612918565b602082019050919050565b6000602082019050818103600083015261297d81612941565b9050919050565b7f217661756c740000000000000000000000000000000000000000000000000000600082015250565b60006129ba60068361289b565b91506129c582612984565b602082019050919050565b600060208201905081810360008301526129e9816129ad565b9050919050565b6000602082019050612a05600083018461280e565b92915050565b7f4f776e61626c653a2063616c6c6572206973206e6f7420746865206f776e6572600082015250565b6000612a4160208361289b565b9150612a4c82612a0b565b602082019050919050565b60006020820190508181036000830152612a7081612a34565b9050919050565b600060208284031215612a8d57612a8c6126b7565b5b6000612a9b84828501612846565b91505092915050565b7f5061757361626c653a2070617573656400000000000000000000000000000000600082015250565b6000612ada60108361289b565b9150612ae582612aa4565b602082019050919050565b60006020820190508181036000830152612b0981612acd565b9050919050565b7f4f776e61626c653a206e6577206f776e657220697320746865207a65726f206160008201527f6464726573730000000000000000000000000000000000000000000000000000602082015250565b6000612b6c60268361289b565b9150612b7782612b10565b604082019050919050565b60006020820190508181036000830152612b9b81612b5f565b9050919050565b6000604082019050612bb7600083018561268d565b612bc4602083018461271f565b9392505050565b612bd4816127a2565b8114612bdf57600080fd5b50565b600081519050612bf181612bcb565b92915050565b600060208284031215612c0d57612c0c6126b7565b5b6000612c1b84828501612be2565b91505092915050565b6000604082019050612c39600083018561268d565b612c46602083018461268d565b9392505050565b7f5361666545524332303a20617070726f76652066726f6d206e6f6e2d7a65726f60008201527f20746f206e6f6e2d7a65726f20616c6c6f77616e636500000000000000000000602082015250565b6000612ca960368361289b565b9150612cb482612c4d565b604082019050919050565b60006020820190508181036000830152612cd881612c9c565b9050919050565b7f21636f6e74726163740000000000000000000000000000000000000000000000600082015250565b6000612d1560098361289b565b9150612d2082612cdf565b602082019050919050565b60006020820190508181036000830152612d4481612d08565b9050919050565b7f4e487b7100000000000000000000000000000000000000000000000000000000600052601160045260246000fd5b6000612d8582612715565b9150612d9083612715565b925082821015612da357612da2612d4b565b5b828203905092915050565b7f5061757361626c653a206e6f7420706175736564000000000000000000000000600082015250565b6000612de460148361289b565b9150612def82612dae565b602082019050919050565b60006020820190508181036000830152612e1381612dd7565b9050919050565b6000612e2582612715565b9150612e3083612715565b9250827fffffffffffffffffffffffffffffffffffffffffffffffffffffffffffffffff03821115612e6557612e64612d4b565b5b828201905092915050565b6000612e7b82612715565b9150612e8683612715565b9250817fffffffffffffffffffffffffffffffffffffffffffffffffffffffffffffffff0483118215151615612ebf57612ebe612d4b565b5b828202905092915050565b7f4e487b7100000000000000000000000000000000000000000000000000000000600052601260045260246000fd5b6000612f0482612715565b9150612f0f83612715565b925082612f1f57612f1e612eca565b5b828204905092915050565b7f5361666545524332303a204552433230206f7065726174696f6e20646964206e60008201527f6f74207375636365656400000000000000000000000000000000000000000000602082015250565b6000612f86602a8361289b565b9150612f9182612f2a565b604082019050919050565b60006020820190508181036000830152612fb581612f79565b9050919050565b7f416464726573733a20696e73756666696369656e742062616c616e636520666f60008201527f722063616c6c0000000000000000000000000000000000000000000000000000602082015250565b600061301860268361289b565b915061302382612fbc565b604082019050919050565b600060208201905081810360008301526130478161300b565b9050919050565b7f416464726573733a2063616c6c20746f206e6f6e2d636f6e7472616374000000600082015250565b6000613084601d8361289b565b915061308f8261304e565b602082019050919050565b600060208201905081810360008301526130b381613077565b9050919050565b600081519050919050565b600081905092915050565b60005b838110156130ee5780820151818401526020810190506130d3565b838111156130fd576000848401525b50505050565b600061310e826130ba565b61311881856130c5565b93506131288185602086016130d0565b80840191505092915050565b60006131408284613103565b915081905092915050565b600081519050919050565b6000601f19601f8301169050919050565b60006131728261314b565b61317c818561289b565b935061318c8185602086016130d0565b61319581613156565b840191505092915050565b600060208201905081810360008301526131ba8184613167565b90509291505056fea2646970667358221220fe52b1f5873a856464d2702263307cfe13f84c940ef1881c0c60ddf88bcfd80864736f6c634300080b0033",
  "linkReferences": {},
  "deployedLinkReferences": {}
}