{
  "_format": "hh-sol-artifact-1",
  "contractName": "StrategyPLFY",
  "sourceName": "src/contracts/strategies/Poolify/StrategyPLFY.sol",
  "abi": [
    {
      "inputs": [
        {
          "internalType": "address",
          "name": "_want",
          "type": "address"
        },
        {
          "internalType": "address",
          "name": "_rewardManager",
          "type": "address"
        },
        {
          "internalType": "address",
          "name": "_vault",
          "type": "address"
        },
        {
          "internalType": "address",
          "name": "_keeper",
          "type": "address"
        },
        {
          "internalType": "address",
          "name": "_poolifyFeeRecipient",
          "type": "address"
        }
      ],
      "stateMutability": "nonpayable",
      "type": "constructor"
    },
    {
      "anonymous": false,
      "inputs": [
        {
          "indexed": true,
          "internalType": "address",
          "name": "previousOwner",
          "type": "address"
        },
        {
          "indexed": true,
          "internalType": "address",
          "name": "newOwner",
          "type": "address"
        }
      ],
      "name": "OwnershipTransferred",
      "type": "event"
    },
    {
      "anonymous": false,
      "inputs": [
        {
          "indexed": false,
          "internalType": "address",
          "name": "account",
          "type": "address"
        }
      ],
      "name": "Paused",
      "type": "event"
    },
    {
      "anonymous": false,
      "inputs": [
        {
          "indexed": true,
          "internalType": "address",
          "name": "harvester",
          "type": "address"
        },
        {
          "indexed": true,
          "internalType": "uint256",
          "name": "timestamp",
          "type": "uint256"
        }
      ],
      "name": "StratHarvest",
      "type": "event"
    },
    {
      "anonymous": false,
      "inputs": [
        {
          "indexed": false,
          "internalType": "address",
          "name": "account",
          "type": "address"
        }
      ],
      "name": "Unpaused",
      "type": "event"
    },
    {
      "inputs": [],
      "name": "CALL_FEE",
      "outputs": [
        {
          "internalType": "uint256",
          "name": "",
          "type": "uint256"
        }
      ],
      "stateMutability": "view",
      "type": "function"
    },
    {
      "inputs": [],
      "name": "CALL_FEE_MAX",
      "outputs": [
        {
          "internalType": "uint256",
          "name": "",
          "type": "uint256"
        }
      ],
      "stateMutability": "view",
      "type": "function"
    },
    {
      "inputs": [],
      "name": "CALL_PRECISION",
      "outputs": [
        {
          "internalType": "uint256",
          "name": "",
          "type": "uint256"
        }
      ],
      "stateMutability": "view",
      "type": "function"
    },
    {
      "inputs": [],
      "name": "WITHDRAWAL_FEE",
      "outputs": [
        {
          "internalType": "uint256",
          "name": "",
          "type": "uint256"
        }
      ],
      "stateMutability": "view",
      "type": "function"
    },
    {
      "inputs": [],
      "name": "WITHDRAWAL_FEE_MAX",
      "outputs": [
        {
          "internalType": "uint256",
          "name": "",
          "type": "uint256"
        }
      ],
      "stateMutability": "view",
      "type": "function"
    },
    {
      "inputs": [],
      "name": "WITHDRAWAL_PRECISION",
      "outputs": [
        {
          "internalType": "uint256",
          "name": "",
          "type": "uint256"
        }
      ],
      "stateMutability": "view",
      "type": "function"
    },
    {
      "inputs": [],
      "name": "balanceOf",
      "outputs": [
        {
          "internalType": "uint256",
          "name": "",
          "type": "uint256"
        }
      ],
      "stateMutability": "view",
      "type": "function"
    },
    {
      "inputs": [],
      "name": "balanceOfBounty",
      "outputs": [
        {
          "internalType": "uint256",
          "name": "",
          "type": "uint256"
        }
      ],
      "stateMutability": "view",
      "type": "function"
    },
    {
      "inputs": [],
      "name": "balanceOfPendingRewards",
      "outputs": [
        {
          "internalType": "uint256",
          "name": "",
          "type": "uint256"
        }
      ],
      "stateMutability": "view",
      "type": "function"
    },
    {
      "inputs": [],
      "name": "balanceOfPool",
      "outputs": [
        {
          "internalType": "uint256",
          "name": "",
          "type": "uint256"
        }
      ],
      "stateMutability": "view",
      "type": "function"
    },
    {
      "inputs": [],
      "name": "balanceOfWant",
      "outputs": [
        {
          "internalType": "uint256",
          "name": "",
          "type": "uint256"
        }
      ],
      "stateMutability": "view",
      "type": "function"
    },
    {
      "inputs": [],
      "name": "beforeDeposit",
      "outputs": [],
      "stateMutability": "nonpayable",
      "type": "function"
    },
    {
      "inputs": [],
      "name": "deposit",
      "outputs": [],
      "stateMutability": "nonpayable",
      "type": "function"
    },
    {
      "inputs": [
        {
          "internalType": "address",
          "name": "callFeeRecipient",
          "type": "address"
        }
      ],
      "name": "harvest",
      "outputs": [],
      "stateMutability": "nonpayable",
      "type": "function"
    },
    {
      "inputs": [],
      "name": "harvest",
      "outputs": [],
      "stateMutability": "nonpayable",
      "type": "function"
    },
    {
      "inputs": [],
      "name": "harvestOnDeposit",
      "outputs": [
        {
          "internalType": "bool",
          "name": "",
          "type": "bool"
        }
      ],
      "stateMutability": "view",
      "type": "function"
    },
    {
      "inputs": [],
      "name": "keeper",
      "outputs": [
        {
          "internalType": "address",
          "name": "",
          "type": "address"
        }
      ],
      "stateMutability": "view",
      "type": "function"
    },
    {
      "inputs": [],
      "name": "lastHarvest",
      "outputs": [
        {
          "internalType": "uint256",
          "name": "",
          "type": "uint256"
        }
      ],
      "stateMutability": "view",
      "type": "function"
    },
    {
      "inputs": [],
      "name": "managerHarvest",
      "outputs": [],
      "stateMutability": "nonpayable",
      "type": "function"
    },
    {
      "inputs": [],
      "name": "owner",
      "outputs": [
        {
          "internalType": "address",
          "name": "",
          "type": "address"
        }
      ],
      "stateMutability": "view",
      "type": "function"
    },
    {
      "inputs": [],
      "name": "panic",
      "outputs": [],
      "stateMutability": "nonpayable",
      "type": "function"
    },
    {
      "inputs": [],
      "name": "pause",
      "outputs": [],
      "stateMutability": "nonpayable",
      "type": "function"
    },
    {
      "inputs": [],
      "name": "paused",
      "outputs": [
        {
          "internalType": "bool",
          "name": "",
          "type": "bool"
        }
      ],
      "stateMutability": "view",
      "type": "function"
    },
    {
      "inputs": [],
      "name": "poolifyFeeRecipient",
      "outputs": [
        {
          "internalType": "address",
          "name": "",
          "type": "address"
        }
      ],
      "stateMutability": "view",
      "type": "function"
    },
    {
      "inputs": [],
      "name": "renounceOwnership",
      "outputs": [],
      "stateMutability": "nonpayable",
      "type": "function"
    },
    {
      "inputs": [],
      "name": "retireStrat",
      "outputs": [],
      "stateMutability": "nonpayable",
      "type": "function"
    },
    {
      "inputs": [],
      "name": "rewardManager",
      "outputs": [
        {
          "internalType": "address",
          "name": "",
          "type": "address"
        }
      ],
      "stateMutability": "view",
      "type": "function"
    },
    {
      "inputs": [
        {
          "internalType": "uint256",
          "name": "_fee",
          "type": "uint256"
        }
      ],
      "name": "setCallFee",
      "outputs": [],
      "stateMutability": "nonpayable",
      "type": "function"
    },
    {
      "inputs": [
        {
          "internalType": "address",
          "name": "_keeper",
          "type": "address"
        }
      ],
      "name": "setKeeper",
      "outputs": [],
      "stateMutability": "nonpayable",
      "type": "function"
    },
    {
      "inputs": [
        {
          "internalType": "address",
          "name": "_vault",
          "type": "address"
        }
      ],
      "name": "setVault",
      "outputs": [],
      "stateMutability": "nonpayable",
      "type": "function"
    },
    {
      "inputs": [
        {
          "internalType": "uint256",
          "name": "_fee",
          "type": "uint256"
        }
      ],
      "name": "setWithdrawalFee",
      "outputs": [],
      "stateMutability": "nonpayable",
      "type": "function"
    },
    {
      "inputs": [
        {
          "internalType": "address",
          "name": "_poolifyFeeRecipient",
          "type": "address"
        }
      ],
      "name": "setpoolifyFeeRecipient",
      "outputs": [],
      "stateMutability": "nonpayable",
      "type": "function"
    },
    {
      "inputs": [
        {
          "internalType": "address",
          "name": "newOwner",
          "type": "address"
        }
      ],
      "name": "transferOwnership",
      "outputs": [],
      "stateMutability": "nonpayable",
      "type": "function"
    },
    {
      "inputs": [],
      "name": "unpause",
      "outputs": [],
      "stateMutability": "nonpayable",
      "type": "function"
    },
    {
      "inputs": [],
      "name": "vault",
      "outputs": [
        {
          "internalType": "address",
          "name": "",
          "type": "address"
        }
      ],
      "stateMutability": "view",
      "type": "function"
    },
    {
      "inputs": [],
      "name": "want",
      "outputs": [
        {
          "internalType": "address",
          "name": "",
          "type": "address"
        }
      ],
      "stateMutability": "view",
      "type": "function"
    },
    {
      "inputs": [
        {
          "internalType": "uint256",
          "name": "_amount",
          "type": "uint256"
        }
      ],
      "name": "withdraw",
      "outputs": [],
      "stateMutability": "nonpayable",
      "type": "function"
    }
  ],
  "bytecode": "0x6080604052600560045560006005553480156200001b57600080fd5b5060405162003c9938038062003c998339818101604052810190620000419190620007c2565b8183826200006462000058620001e160201b60201c565b620001e960201b60201c565b60008060146101000a81548160ff02191690831515021790555082600160006101000a81548173ffffffffffffffffffffffffffffffffffffffff021916908373ffffffffffffffffffffffffffffffffffffffff16021790555081600260006101000a81548173ffffffffffffffffffffffffffffffffffffffff021916908373ffffffffffffffffffffffffffffffffffffffff16021790555080600360006101000a81548173ffffffffffffffffffffffffffffffffffffffff021916908373ffffffffffffffffffffffffffffffffffffffff16021790555050505083600760006101000a81548173ffffffffffffffffffffffffffffffffffffffff021916908373ffffffffffffffffffffffffffffffffffffffff16021790555084600660006101000a81548173ffffffffffffffffffffffffffffffffffffffff021916908373ffffffffffffffffffffffffffffffffffffffff160217905550620001d6620002ad60201b60201c565b505050505062000d0a565b600033905090565b60008060009054906101000a900473ffffffffffffffffffffffffffffffffffffffff169050816000806101000a81548173ffffffffffffffffffffffffffffffffffffffff021916908373ffffffffffffffffffffffffffffffffffffffff1602179055508173ffffffffffffffffffffffffffffffffffffffff168173ffffffffffffffffffffffffffffffffffffffff167f8be0079c531659141344cd1fd0a4f28419497f9722a3daafe3b4186f6b6457e060405160405180910390a35050565b62000343600760009054906101000a900473ffffffffffffffffffffffffffffffffffffffff167fffffffffffffffffffffffffffffffffffffffffffffffffffffffffffffffff600660009054906101000a900473ffffffffffffffffffffffffffffffffffffffff1673ffffffffffffffffffffffffffffffffffffffff166200034560201b62001993179092919060201c565b565b6000811480620003d5575060008373ffffffffffffffffffffffffffffffffffffffff1663dd62ed3e30856040518363ffffffff1660e01b81526004016200038f9291906200085b565b602060405180830381865afa158015620003ad573d6000803e3d6000fd5b505050506040513d601f19601f82011682018060405250810190620003d39190620008c3565b145b62000417576040517f08c379a00000000000000000000000000000000000000000000000000000000081526004016200040e906200097c565b60405180910390fd5b620004a28363095ea7b360e01b848460405160240162000439929190620009af565b604051602081830303815290604052907bffffffffffffffffffffffffffffffffffffffffffffffffffffffff19166020820180517bffffffffffffffffffffffffffffffffffffffffffffffffffffffff8381831617835250505050620004a760201b60201c565b505050565b600062000510826040518060400160405280602081526020017f5361666545524332303a206c6f772d6c6576656c2063616c6c206661696c65648152508573ffffffffffffffffffffffffffffffffffffffff166200057b60201b62001ae2179092919060201c565b905060008151111562000576578080602001905181019062000533919062000a19565b62000575576040517f08c379a00000000000000000000000000000000000000000000000000000000081526004016200056c9062000ac1565b60405180910390fd5b5b505050565b60606200059284846000856200059b60201b60201c565b90509392505050565b606082471015620005e3576040517f08c379a0000000000000000000000000000000000000000000000000000000008152600401620005da9062000b59565b60405180910390fd5b620005f485620006c960201b60201c565b62000636576040517f08c379a00000000000000000000000000000000000000000000000000000000081526004016200062d9062000bcb565b60405180910390fd5b6000808673ffffffffffffffffffffffffffffffffffffffff16858760405162000661919062000c70565b60006040518083038185875af1925050503d8060008114620006a0576040519150601f19603f3d011682016040523d82523d6000602084013e620006a5565b606091505b5091509150620006bd828286620006ec60201b60201c565b92505050949350505050565b6000808273ffffffffffffffffffffffffffffffffffffffff163b119050919050565b60608315620006fe5782905062000751565b600083511115620007125782518084602001fd5b816040517f08c379a000000000000000000000000000000000000000000000000000000000815260040162000748919062000ce6565b60405180910390fd5b9392505050565b600080fd5b600073ffffffffffffffffffffffffffffffffffffffff82169050919050565b60006200078a826200075d565b9050919050565b6200079c816200077d565b8114620007a857600080fd5b50565b600081519050620007bc8162000791565b92915050565b600080600080600060a08688031215620007e157620007e062000758565b5b6000620007f188828901620007ab565b95505060206200080488828901620007ab565b94505060406200081788828901620007ab565b93505060606200082a88828901620007ab565b92505060806200083d88828901620007ab565b9150509295509295909350565b62000855816200077d565b82525050565b60006040820190506200087260008301856200084a565b6200088160208301846200084a565b9392505050565b6000819050919050565b6200089d8162000888565b8114620008a957600080fd5b50565b600081519050620008bd8162000892565b92915050565b600060208284031215620008dc57620008db62000758565b5b6000620008ec84828501620008ac565b91505092915050565b600082825260208201905092915050565b7f5361666545524332303a20617070726f76652066726f6d206e6f6e2d7a65726f60008201527f20746f206e6f6e2d7a65726f20616c6c6f77616e636500000000000000000000602082015250565b600062000964603683620008f5565b9150620009718262000906565b604082019050919050565b60006020820190508181036000830152620009978162000955565b9050919050565b620009a98162000888565b82525050565b6000604082019050620009c660008301856200084a565b620009d560208301846200099e565b9392505050565b60008115159050919050565b620009f381620009dc565b8114620009ff57600080fd5b50565b60008151905062000a1381620009e8565b92915050565b60006020828403121562000a325762000a3162000758565b5b600062000a428482850162000a02565b91505092915050565b7f5361666545524332303a204552433230206f7065726174696f6e20646964206e60008201527f6f74207375636365656400000000000000000000000000000000000000000000602082015250565b600062000aa9602a83620008f5565b915062000ab68262000a4b565b604082019050919050565b6000602082019050818103600083015262000adc8162000a9a565b9050919050565b7f416464726573733a20696e73756666696369656e742062616c616e636520666f60008201527f722063616c6c0000000000000000000000000000000000000000000000000000602082015250565b600062000b41602683620008f5565b915062000b4e8262000ae3565b604082019050919050565b6000602082019050818103600083015262000b748162000b32565b9050919050565b7f416464726573733a2063616c6c20746f206e6f6e2d636f6e7472616374000000600082015250565b600062000bb3601d83620008f5565b915062000bc08262000b7b565b602082019050919050565b6000602082019050818103600083015262000be68162000ba4565b9050919050565b600081519050919050565b600081905092915050565b60005b8381101562000c2357808201518184015260208101905062000c06565b8381111562000c33576000848401525b50505050565b600062000c468262000bed565b62000c52818562000bf8565b935062000c6481856020860162000c03565b80840191505092915050565b600062000c7e828462000c39565b915081905092915050565b600081519050919050565b6000601f19601f8301169050919050565b600062000cb28262000c89565b62000cbe8185620008f5565b935062000cd081856020860162000c03565b62000cdb8162000c94565b840191505092915050565b6000602082019050818103600083015262000d02818462000ca5565b905092915050565b612f7f8062000d1a6000396000f3fe608060405234801561001057600080fd5b50600436106102275760003560e01c80638456cb5911610130578063aced1661116100b8578063d801d9461161007c578063d801d94614610552578063f1a392da1461055c578063f2fde38b1461057a578063fb61778714610596578063fbfa77cf146105a057610227565b8063aced1661146104d0578063c1a3d44c146104ee578063c4dc6ffa1461050c578063d0e30db01461052a578063d6b155971461053457610227565b80638da5cb5b116100ff5780638da5cb5b1461043c578063951d6d201461045a57806395dc0e9f14610478578063a5d33ed514610496578063ac1e5025146104b457610227565b80638456cb59146103da57806386726a64146103e45780638912cb8b146104005780638a2d64a61461041e57610227565b8063573fef0a116101b35780637156fa88116101825780637156fa8814610346578063722713f7146103645780637485e5bd14610382578063748747e6146103a05780637f488255146103bc57610227565b8063573fef0a146102f85780635c975abb146103025780636817031b14610320578063715018a61461033c57610227565b806326465826116101fa57806326465826146102a25780632e1a7d4d146102be5780633f4ba83a146102da5780634641257d146102e45780634700d305146102ee57610227565b80630e5c011e1461022c5780630f4ef8a61461024857806311588086146102665780631f1fcd5114610284575b600080fd5b61024660048036038101906102419190612445565b6105be565b005b6102506105ca565b60405161025d9190612481565b60405180910390f35b61026e6105f0565b60405161027b91906124b5565b60405180910390f35b61028c61069b565b6040516102999190612481565b60405180910390f35b6102bc60048036038101906102b791906124fc565b6106c1565b005b6102d860048036038101906102d391906124fc565b6107dd565b005b6102e26109aa565b005b6102ec610a91565b005b6102f6610a9c565b005b610300610c01565b005b61030a610c9c565b6040516103179190612544565b60405180910390f35b61033a60048036038101906103359190612445565b610cb2565b005b610344610d72565b005b61034e610dfa565b60405161035b91906124b5565b60405180910390f35b61036c610e00565b60405161037991906124b5565b60405180910390f35b61038a610e28565b60405161039791906124b5565b60405180910390f35b6103ba60048036038101906103b59190612445565b610e6a565b005b6103c4610f7b565b6040516103d191906124b5565b60405180910390f35b6103e2610f81565b005b6103fe60048036038101906103f99190612445565b611060565b005b610408611120565b6040516104159190612544565b60405180910390f35b610426611133565b60405161043391906124b5565b60405180910390f35b610444611139565b6040516104519190612481565b60405180910390f35b610462611162565b60405161046f91906124b5565b60405180910390f35b610480611168565b60405161048d91906124b5565b60405180910390f35b61049e61116e565b6040516104ab91906124b5565b60405180910390f35b6104ce60048036038101906104c991906124fc565b611174565b005b6104d8611290565b6040516104e59190612481565b60405180910390f35b6104f66112b6565b60405161050391906124b5565b60405180910390f35b610514611359565b6040516105219190612481565b60405180910390f35b61053261137f565b005b61053c61146d565b60405161054991906124b5565b60405180910390f35b61055a611513565b005b6105646115eb565b60405161057191906124b5565b60405180910390f35b610594600480360381019061058f9190612445565b6115f1565b005b61059e6116e9565b005b6105a861196d565b6040516105b59190612481565b60405180910390f35b6105c781611afa565b50565b600760009054906101000a900473ffffffffffffffffffffffffffffffffffffffff1681565b600080600760009054906101000a900473ffffffffffffffffffffffffffffffffffffffff1673ffffffffffffffffffffffffffffffffffffffff166393f1a40b6000306040518363ffffffff1660e01b81526004016106519291906125a4565b6040805180830381865afa15801561066d573d6000803e3d6000fd5b505050506040513d601f19601f8201168201806040525081019061069191906125e2565b5090508091505090565b600660009054906101000a900473ffffffffffffffffffffffffffffffffffffffff1681565b6106c9611139565b73ffffffffffffffffffffffffffffffffffffffff163373ffffffffffffffffffffffffffffffffffffffff16148061074f5750600160009054906101000a900473ffffffffffffffffffffffffffffffffffffffff1673ffffffffffffffffffffffffffffffffffffffff163373ffffffffffffffffffffffffffffffffffffffff16145b61078e576040517f08c379a00000000000000000000000000000000000000000000000000000000081526004016107859061267f565b60405180910390fd5b6103e88111156107d3576040517f08c379a00000000000000000000000000000000000000000000000000000000081526004016107ca906126eb565b60405180910390fd5b8060048190555050565b600260009054906101000a900473ffffffffffffffffffffffffffffffffffffffff1673ffffffffffffffffffffffffffffffffffffffff163373ffffffffffffffffffffffffffffffffffffffff161461086d576040517f08c379a000000000000000000000000000000000000000000000000000000000815260040161086490612757565b60405180910390fd5b60006108776112b6565b90508181101561092b57600760009054906101000a900473ffffffffffffffffffffffffffffffffffffffff1673ffffffffffffffffffffffffffffffffffffffff16631058d2816108d28385611d0d90919063ffffffff16565b6040518263ffffffff1660e01b81526004016108ee91906124b5565b600060405180830381600087803b15801561090857600080fd5b505af115801561091c573d6000803e3d6000fd5b505050506109286112b6565b90505b81811115610937578190505b6109a6600260009054906101000a900473ffffffffffffffffffffffffffffffffffffffff1682600660009054906101000a900473ffffffffffffffffffffffffffffffffffffffff1673ffffffffffffffffffffffffffffffffffffffff16611d239092919063ffffffff16565b5050565b6109b2611139565b73ffffffffffffffffffffffffffffffffffffffff163373ffffffffffffffffffffffffffffffffffffffff161480610a385750600160009054906101000a900473ffffffffffffffffffffffffffffffffffffffff1673ffffffffffffffffffffffffffffffffffffffff163373ffffffffffffffffffffffffffffffffffffffff16145b610a77576040517f08c379a0000000000000000000000000000000000000000000000000000000008152600401610a6e9061267f565b60405180910390fd5b610a7f611da9565b610a87611e4a565b610a8f61137f565b565b610a9a32611afa565b565b610aa4611139565b73ffffffffffffffffffffffffffffffffffffffff163373ffffffffffffffffffffffffffffffffffffffff161480610b2a5750600160009054906101000a900473ffffffffffffffffffffffffffffffffffffffff1673ffffffffffffffffffffffffffffffffffffffff163373ffffffffffffffffffffffffffffffffffffffff16145b610b69576040517f08c379a0000000000000000000000000000000000000000000000000000000008152600401610b609061267f565b60405180910390fd5b610b71610f81565b600760009054906101000a900473ffffffffffffffffffffffffffffffffffffffff1673ffffffffffffffffffffffffffffffffffffffff16635312ea8e60006040518263ffffffff1660e01b8152600401610bcd9190612777565b600060405180830381600087803b158015610be757600080fd5b505af1158015610bfb573d6000803e3d6000fd5b50505050565b600260009054906101000a900473ffffffffffffffffffffffffffffffffffffffff1673ffffffffffffffffffffffffffffffffffffffff163373ffffffffffffffffffffffffffffffffffffffff1614610c91576040517f08c379a0000000000000000000000000000000000000000000000000000000008152600401610c8890612757565b60405180910390fd5b610c9a32611afa565b565b60008060149054906101000a900460ff16905090565b610cba611edb565b73ffffffffffffffffffffffffffffffffffffffff16610cd8611139565b73ffffffffffffffffffffffffffffffffffffffff1614610d2e576040517f08c379a0000000000000000000000000000000000000000000000000000000008152600401610d25906127de565b60405180910390fd5b80600260006101000a81548173ffffffffffffffffffffffffffffffffffffffff021916908373ffffffffffffffffffffffffffffffffffffffff16021790555050565b610d7a611edb565b73ffffffffffffffffffffffffffffffffffffffff16610d98611139565b73ffffffffffffffffffffffffffffffffffffffff1614610dee576040517f08c379a0000000000000000000000000000000000000000000000000000000008152600401610de5906127de565b60405180910390fd5b610df86000611ee3565b565b61271081565b6000610e23610e0d6105f0565b610e156112b6565b611fa790919063ffffffff16565b905090565b600080610e3361146d565b90506000610e60612710610e5260045485611fbd90919063ffffffff16565b611fd390919063ffffffff16565b9050809250505090565b610e72611139565b73ffffffffffffffffffffffffffffffffffffffff163373ffffffffffffffffffffffffffffffffffffffff161480610ef85750600160009054906101000a900473ffffffffffffffffffffffffffffffffffffffff1673ffffffffffffffffffffffffffffffffffffffff163373ffffffffffffffffffffffffffffffffffffffff16145b610f37576040517f08c379a0000000000000000000000000000000000000000000000000000000008152600401610f2e9061267f565b60405180910390fd5b80600160006101000a81548173ffffffffffffffffffffffffffffffffffffffff021916908373ffffffffffffffffffffffffffffffffffffffff16021790555050565b6103e881565b610f89611139565b73ffffffffffffffffffffffffffffffffffffffff163373ffffffffffffffffffffffffffffffffffffffff16148061100f5750600160009054906101000a900473ffffffffffffffffffffffffffffffffffffffff1673ffffffffffffffffffffffffffffffffffffffff163373ffffffffffffffffffffffffffffffffffffffff16145b61104e576040517f08c379a00000000000000000000000000000000000000000000000000000000081526004016110459061267f565b60405180910390fd5b611056611fe9565b61105e61208c565b565b611068611edb565b73ffffffffffffffffffffffffffffffffffffffff16611086611139565b73ffffffffffffffffffffffffffffffffffffffff16146110dc576040517f08c379a00000000000000000000000000000000000000000000000000000000081526004016110d3906127de565b60405180910390fd5b80600360006101000a81548173ffffffffffffffffffffffffffffffffffffffff021916908373ffffffffffffffffffffffffffffffffffffffff16021790555050565b600760149054906101000a900460ff1681565b6103e881565b60008060009054906101000a900473ffffffffffffffffffffffffffffffffffffffff16905090565b60045481565b61271081565b60055481565b61117c611139565b73ffffffffffffffffffffffffffffffffffffffff163373ffffffffffffffffffffffffffffffffffffffff1614806112025750600160009054906101000a900473ffffffffffffffffffffffffffffffffffffffff1673ffffffffffffffffffffffffffffffffffffffff163373ffffffffffffffffffffffffffffffffffffffff16145b611241576040517f08c379a00000000000000000000000000000000000000000000000000000000081526004016112389061267f565b60405180910390fd5b6103e8811115611286576040517f08c379a000000000000000000000000000000000000000000000000000000000815260040161127d906126eb565b60405180910390fd5b8060058190555050565b600160009054906101000a900473ffffffffffffffffffffffffffffffffffffffff1681565b6000600660009054906101000a900473ffffffffffffffffffffffffffffffffffffffff1673ffffffffffffffffffffffffffffffffffffffff166370a08231306040518263ffffffff1660e01b81526004016113139190612481565b602060405180830381865afa158015611330573d6000803e3d6000fd5b505050506040513d601f19601f8201168201806040525081019061135491906127fe565b905090565b600360009054906101000a900473ffffffffffffffffffffffffffffffffffffffff1681565b611387610c9c565b156113c7576040517f08c379a00000000000000000000000000000000000000000000000000000000081526004016113be90612877565b60405180910390fd5b60006113d16112b6565b9050600081111561146a57600760009054906101000a900473ffffffffffffffffffffffffffffffffffffffff1673ffffffffffffffffffffffffffffffffffffffff166341441d3b826040518263ffffffff1660e01b815260040161143791906124b5565b600060405180830381600087803b15801561145157600080fd5b505af1158015611465573d6000803e3d6000fd5b505050505b50565b6000600760009054906101000a900473ffffffffffffffffffffffffffffffffffffffff1673ffffffffffffffffffffffffffffffffffffffff166308571c906000306040518363ffffffff1660e01b81526004016114cd9291906125a4565b602060405180830381865afa1580156114ea573d6000803e3d6000fd5b505050506040513d601f19601f8201168201806040525081019061150e91906127fe565b905090565b61151b611139565b73ffffffffffffffffffffffffffffffffffffffff163373ffffffffffffffffffffffffffffffffffffffff1614806115a15750600160009054906101000a900473ffffffffffffffffffffffffffffffffffffffff1673ffffffffffffffffffffffffffffffffffffffff163373ffffffffffffffffffffffffffffffffffffffff16145b6115e0576040517f08c379a00000000000000000000000000000000000000000000000000000000081526004016115d79061267f565b60405180910390fd5b6115e932611afa565b565b60085481565b6115f9611edb565b73ffffffffffffffffffffffffffffffffffffffff16611617611139565b73ffffffffffffffffffffffffffffffffffffffff161461166d576040517f08c379a0000000000000000000000000000000000000000000000000000000008152600401611664906127de565b60405180910390fd5b600073ffffffffffffffffffffffffffffffffffffffff168173ffffffffffffffffffffffffffffffffffffffff1614156116dd576040517f08c379a00000000000000000000000000000000000000000000000000000000081526004016116d490612909565b60405180910390fd5b6116e681611ee3565b50565b600260009054906101000a900473ffffffffffffffffffffffffffffffffffffffff1673ffffffffffffffffffffffffffffffffffffffff163373ffffffffffffffffffffffffffffffffffffffff1614611779576040517f08c379a000000000000000000000000000000000000000000000000000000000815260040161177090612757565b60405180910390fd5b600760009054906101000a900473ffffffffffffffffffffffffffffffffffffffff1673ffffffffffffffffffffffffffffffffffffffff16635312ea8e60006040518263ffffffff1660e01b81526004016117d59190612777565b600060405180830381600087803b1580156117ef57600080fd5b505af1158015611803573d6000803e3d6000fd5b505050506000600660009054906101000a900473ffffffffffffffffffffffffffffffffffffffff1673ffffffffffffffffffffffffffffffffffffffff166370a08231306040518263ffffffff1660e01b81526004016118649190612481565b602060405180830381865afa158015611881573d6000803e3d6000fd5b505050506040513d601f19601f820116820180604052508101906118a591906127fe565b9050600660009054906101000a900473ffffffffffffffffffffffffffffffffffffffff1673ffffffffffffffffffffffffffffffffffffffff1663a9059cbb600260009054906101000a900473ffffffffffffffffffffffffffffffffffffffff16836040518363ffffffff1660e01b8152600401611926929190612929565b6020604051808303816000875af1158015611945573d6000803e3d6000fd5b505050506040513d601f19601f82011682018060405250810190611969919061297e565b5050565b600260009054906101000a900473ffffffffffffffffffffffffffffffffffffffff1681565b6000811480611a1d575060008373ffffffffffffffffffffffffffffffffffffffff1663dd62ed3e30856040518363ffffffff1660e01b81526004016119da9291906129ab565b602060405180830381865afa1580156119f7573d6000803e3d6000fd5b505050506040513d601f19601f82011682018060405250810190611a1b91906127fe565b145b611a5c576040517f08c379a0000000000000000000000000000000000000000000000000000000008152600401611a5390612a46565b60405180910390fd5b611add8363095ea7b360e01b8484604051602401611a7b929190612929565b604051602081830303815290604052907bffffffffffffffffffffffffffffffffffffffffffffffffffffffff19166020820180517bffffffffffffffffffffffffffffffffffffffffffffffffffffffff83818316178352505050506120fe565b505050565b6060611af184846000856121c5565b90509392505050565b611b02610c9c565b15611b42576040517f08c379a0000000000000000000000000000000000000000000000000000000008152600401611b3990612877565b60405180910390fd5b3373ffffffffffffffffffffffffffffffffffffffff163273ffffffffffffffffffffffffffffffffffffffff161480611bc95750600260009054906101000a900473ffffffffffffffffffffffffffffffffffffffff1673ffffffffffffffffffffffffffffffffffffffff163373ffffffffffffffffffffffffffffffffffffffff16145b611c08576040517f08c379a0000000000000000000000000000000000000000000000000000000008152600401611bff90612ab2565b60405180910390fd5b6000611c1261146d565b9050600760009054906101000a900473ffffffffffffffffffffffffffffffffffffffff1673ffffffffffffffffffffffffffffffffffffffff16631058d28160006040518263ffffffff1660e01b8152600401611c709190612777565b600060405180830381600087803b158015611c8a57600080fd5b505af1158015611c9e573d6000803e3d6000fd5b505050506000811115611d0957611cb582826122d9565b611cbd61137f565b42600881905550423373ffffffffffffffffffffffffffffffffffffffff167f865390bb5d5b45fc22d8882e7465202e4ddb75def64919391d59bde6faaffadf60405160405180910390a35b5050565b60008183611d1b9190612b01565b905092915050565b611da48363a9059cbb60e01b8484604051602401611d42929190612929565b604051602081830303815290604052907bffffffffffffffffffffffffffffffffffffffffffffffffffffffff19166020820180517bffffffffffffffffffffffffffffffffffffffffffffffffffffffff83818316178352505050506120fe565b505050565b611db1610c9c565b611df0576040517f08c379a0000000000000000000000000000000000000000000000000000000008152600401611de790612b81565b60405180910390fd5b60008060146101000a81548160ff0219169083151502179055507f5db9ee0a495bf2e6ff9c91a7834c1ba4fdd244a5e8aa4e537bd38aeae4b073aa611e33611edb565b604051611e409190612481565b60405180910390a1565b611ed9600760009054906101000a900473ffffffffffffffffffffffffffffffffffffffff167fffffffffffffffffffffffffffffffffffffffffffffffffffffffffffffffff600660009054906101000a900473ffffffffffffffffffffffffffffffffffffffff1673ffffffffffffffffffffffffffffffffffffffff166119939092919063ffffffff16565b565b600033905090565b60008060009054906101000a900473ffffffffffffffffffffffffffffffffffffffff169050816000806101000a81548173ffffffffffffffffffffffffffffffffffffffff021916908373ffffffffffffffffffffffffffffffffffffffff1602179055508173ffffffffffffffffffffffffffffffffffffffff168173ffffffffffffffffffffffffffffffffffffffff167f8be0079c531659141344cd1fd0a4f28419497f9722a3daafe3b4186f6b6457e060405160405180910390a35050565b60008183611fb59190612ba1565b905092915050565b60008183611fcb9190612bf7565b905092915050565b60008183611fe19190612c80565b905092915050565b611ff1610c9c565b15612031576040517f08c379a000000000000000000000000000000000000000000000000000000000815260040161202890612877565b60405180910390fd5b6001600060146101000a81548160ff0219169083151502179055507f62e78cea01bee320cd4e420270b5ea74000d11b0c9f74754ebdbfc544b05a258612075611edb565b6040516120829190612481565b60405180910390a1565b6120fc600760009054906101000a900473ffffffffffffffffffffffffffffffffffffffff166000600660009054906101000a900473ffffffffffffffffffffffffffffffffffffffff1673ffffffffffffffffffffffffffffffffffffffff166119939092919063ffffffff16565b565b6000612160826040518060400160405280602081526020017f5361666545524332303a206c6f772d6c6576656c2063616c6c206661696c65648152508573ffffffffffffffffffffffffffffffffffffffff16611ae29092919063ffffffff16565b90506000815111156121c05780806020019051810190612180919061297e565b6121bf576040517f08c379a00000000000000000000000000000000000000000000000000000000081526004016121b690612d23565b60405180910390fd5b5b505050565b60608247101561220a576040517f08c379a000000000000000000000000000000000000000000000000000000000815260040161220190612db5565b60405180910390fd5b61221385612358565b612252576040517f08c379a000000000000000000000000000000000000000000000000000000000815260040161224990612e21565b60405180910390fd5b6000808673ffffffffffffffffffffffffffffffffffffffff16858760405161227b9190612ebb565b60006040518083038185875af1925050503d80600081146122b8576040519150601f19603f3d011682016040523d82523d6000602084013e6122bd565b606091505b50915091506122cd82828661237b565b92505050949350505050565b60006123046127106122f660045485611fbd90919063ffffffff16565b611fd390919063ffffffff16565b90506123538382600660009054906101000a900473ffffffffffffffffffffffffffffffffffffffff1673ffffffffffffffffffffffffffffffffffffffff16611d239092919063ffffffff16565b505050565b6000808273ffffffffffffffffffffffffffffffffffffffff163b119050919050565b6060831561238b578290506123db565b60008351111561239e5782518084602001fd5b816040517f08c379a00000000000000000000000000000000000000000000000000000000081526004016123d29190612f27565b60405180910390fd5b9392505050565b600080fd5b600073ffffffffffffffffffffffffffffffffffffffff82169050919050565b6000612412826123e7565b9050919050565b61242281612407565b811461242d57600080fd5b50565b60008135905061243f81612419565b92915050565b60006020828403121561245b5761245a6123e2565b5b600061246984828501612430565b91505092915050565b61247b81612407565b82525050565b60006020820190506124966000830184612472565b92915050565b6000819050919050565b6124af8161249c565b82525050565b60006020820190506124ca60008301846124a6565b92915050565b6124d98161249c565b81146124e457600080fd5b50565b6000813590506124f6816124d0565b92915050565b600060208284031215612512576125116123e2565b5b6000612520848285016124e7565b91505092915050565b60008115159050919050565b61253e81612529565b82525050565b60006020820190506125596000830184612535565b92915050565b6000819050919050565b6000819050919050565b600061258e6125896125848461255f565b612569565b61249c565b9050919050565b61259e81612573565b82525050565b60006040820190506125b96000830185612595565b6125c66020830184612472565b9392505050565b6000815190506125dc816124d0565b92915050565b600080604083850312156125f9576125f86123e2565b5b6000612607858286016125cd565b9250506020612618858286016125cd565b9150509250929050565b600082825260208201905092915050565b7f216d616e61676572000000000000000000000000000000000000000000000000600082015250565b6000612669600883612622565b915061267482612633565b602082019050919050565b600060208201905081810360008301526126988161265c565b9050919050565b7f2163617000000000000000000000000000000000000000000000000000000000600082015250565b60006126d5600483612622565b91506126e08261269f565b602082019050919050565b60006020820190508181036000830152612704816126c8565b9050919050565b7f217661756c740000000000000000000000000000000000000000000000000000600082015250565b6000612741600683612622565b915061274c8261270b565b602082019050919050565b6000602082019050818103600083015261277081612734565b9050919050565b600060208201905061278c6000830184612595565b92915050565b7f4f776e61626c653a2063616c6c6572206973206e6f7420746865206f776e6572600082015250565b60006127c8602083612622565b91506127d382612792565b602082019050919050565b600060208201905081810360008301526127f7816127bb565b9050919050565b600060208284031215612814576128136123e2565b5b6000612822848285016125cd565b91505092915050565b7f5061757361626c653a2070617573656400000000000000000000000000000000600082015250565b6000612861601083612622565b915061286c8261282b565b602082019050919050565b6000602082019050818103600083015261289081612854565b9050919050565b7f4f776e61626c653a206e6577206f776e657220697320746865207a65726f206160008201527f6464726573730000000000000000000000000000000000000000000000000000602082015250565b60006128f3602683612622565b91506128fe82612897565b604082019050919050565b60006020820190508181036000830152612922816128e6565b9050919050565b600060408201905061293e6000830185612472565b61294b60208301846124a6565b9392505050565b61295b81612529565b811461296657600080fd5b50565b60008151905061297881612952565b92915050565b600060208284031215612994576129936123e2565b5b60006129a284828501612969565b91505092915050565b60006040820190506129c06000830185612472565b6129cd6020830184612472565b9392505050565b7f5361666545524332303a20617070726f76652066726f6d206e6f6e2d7a65726f60008201527f20746f206e6f6e2d7a65726f20616c6c6f77616e636500000000000000000000602082015250565b6000612a30603683612622565b9150612a3b826129d4565b604082019050919050565b60006020820190508181036000830152612a5f81612a23565b9050919050565b7f21636f6e74726163740000000000000000000000000000000000000000000000600082015250565b6000612a9c600983612622565b9150612aa782612a66565b602082019050919050565b60006020820190508181036000830152612acb81612a8f565b9050919050565b7f4e487b7100000000000000000000000000000000000000000000000000000000600052601160045260246000fd5b6000612b0c8261249c565b9150612b178361249c565b925082821015612b2a57612b29612ad2565b5b828203905092915050565b7f5061757361626c653a206e6f7420706175736564000000000000000000000000600082015250565b6000612b6b601483612622565b9150612b7682612b35565b602082019050919050565b60006020820190508181036000830152612b9a81612b5e565b9050919050565b6000612bac8261249c565b9150612bb78361249c565b9250827fffffffffffffffffffffffffffffffffffffffffffffffffffffffffffffffff03821115612bec57612beb612ad2565b5b828201905092915050565b6000612c028261249c565b9150612c0d8361249c565b9250817fffffffffffffffffffffffffffffffffffffffffffffffffffffffffffffffff0483118215151615612c4657612c45612ad2565b5b828202905092915050565b7f4e487b7100000000000000000000000000000000000000000000000000000000600052601260045260246000fd5b6000612c8b8261249c565b9150612c968361249c565b925082612ca657612ca5612c51565b5b828204905092915050565b7f5361666545524332303a204552433230206f7065726174696f6e20646964206e60008201527f6f74207375636365656400000000000000000000000000000000000000000000602082015250565b6000612d0d602a83612622565b9150612d1882612cb1565b604082019050919050565b60006020820190508181036000830152612d3c81612d00565b9050919050565b7f416464726573733a20696e73756666696369656e742062616c616e636520666f60008201527f722063616c6c0000000000000000000000000000000000000000000000000000602082015250565b6000612d9f602683612622565b9150612daa82612d43565b604082019050919050565b60006020820190508181036000830152612dce81612d92565b9050919050565b7f416464726573733a2063616c6c20746f206e6f6e2d636f6e7472616374000000600082015250565b6000612e0b601d83612622565b9150612e1682612dd5565b602082019050919050565b60006020820190508181036000830152612e3a81612dfe565b9050919050565b600081519050919050565b600081905092915050565b60005b83811015612e75578082015181840152602081019050612e5a565b83811115612e84576000848401525b50505050565b6000612e9582612e41565b612e9f8185612e4c565b9350612eaf818560208601612e57565b80840191505092915050565b6000612ec78284612e8a565b915081905092915050565b600081519050919050565b6000601f19601f8301169050919050565b6000612ef982612ed2565b612f038185612622565b9350612f13818560208601612e57565b612f1c81612edd565b840191505092915050565b60006020820190508181036000830152612f418184612eee565b90509291505056fea2646970667358221220bd78beefa7190e7bebdb1d34f0d34b8bca2dd4b3640284b3706ac7c79e276fa664736f6c634300080b0033",
  "linkReferences": {},
  "deployedLinkReferences": {}
}