{
  "_format": "hh-sol-artifact-1",
  "contractName": "StratManagerPLFY",
  "sourceName": "src/contracts/strategies/Poolify/StratManagerPLFY.sol",
  "abi": [
    {
      "inputs": [
        {
          "internalType": "address",
          "name": "_keeper",
          "type": "address"
        },
        {
          "internalType": "address",
          "name": "_vault",
          "type": "address"
        },
        {
          "internalType": "address",
          "name": "_strategistRecipient",
          "type": "address"
        }
      ],
      "stateMutability": "nonpayable",
      "type": "constructor"
    },
    {
      "anonymous": false,
      "inputs": [
        {
          "indexed": true,
          "internalType": "address",
          "name": "previousOwner",
          "type": "address"
        },
        {
          "indexed": true,
          "internalType": "address",
          "name": "newOwner",
          "type": "address"
        }
      ],
      "name": "OwnershipTransferred",
      "type": "event"
    },
    {
      "anonymous": false,
      "inputs": [
        {
          "indexed": false,
          "internalType": "address",
          "name": "account",
          "type": "address"
        }
      ],
      "name": "Paused",
      "type": "event"
    },
    {
      "anonymous": false,
      "inputs": [
        {
          "indexed": false,
          "internalType": "address",
          "name": "account",
          "type": "address"
        }
      ],
      "name": "Unpaused",
      "type": "event"
    },
    {
      "inputs": [],
      "name": "beforeDeposit",
      "outputs": [],
      "stateMutability": "nonpayable",
      "type": "function"
    },
    {
      "inputs": [],
      "name": "keeper",
      "outputs": [
        {
          "internalType": "address",
          "name": "",
          "type": "address"
        }
      ],
      "stateMutability": "view",
      "type": "function"
    },
    {
      "inputs": [],
      "name": "owner",
      "outputs": [
        {
          "internalType": "address",
          "name": "",
          "type": "address"
        }
      ],
      "stateMutability": "view",
      "type": "function"
    },
    {
      "inputs": [],
      "name": "paused",
      "outputs": [
        {
          "internalType": "bool",
          "name": "",
          "type": "bool"
        }
      ],
      "stateMutability": "view",
      "type": "function"
    },
    {
      "inputs": [],
      "name": "renounceOwnership",
      "outputs": [],
      "stateMutability": "nonpayable",
      "type": "function"
    },
    {
      "inputs": [
        {
          "internalType": "address",
          "name": "_keeper",
          "type": "address"
        }
      ],
      "name": "setKeeper",
      "outputs": [],
      "stateMutability": "nonpayable",
      "type": "function"
    },
    {
      "inputs": [
        {
          "internalType": "address",
          "name": "_strategistRecipient",
          "type": "address"
        }
      ],
      "name": "setStrategistRecipient",
      "outputs": [],
      "stateMutability": "nonpayable",
      "type": "function"
    },
    {
      "inputs": [
        {
          "internalType": "address",
          "name": "_vault",
          "type": "address"
        }
      ],
      "name": "setVault",
      "outputs": [],
      "stateMutability": "nonpayable",
      "type": "function"
    },
    {
      "inputs": [],
      "name": "strategistRecipient",
      "outputs": [
        {
          "internalType": "address",
          "name": "",
          "type": "address"
        }
      ],
      "stateMutability": "view",
      "type": "function"
    },
    {
      "inputs": [
        {
          "internalType": "address",
          "name": "newOwner",
          "type": "address"
        }
      ],
      "name": "transferOwnership",
      "outputs": [],
      "stateMutability": "nonpayable",
      "type": "function"
    },
    {
      "inputs": [],
      "name": "vault",
      "outputs": [
        {
          "internalType": "address",
          "name": "",
          "type": "address"
        }
      ],
      "stateMutability": "view",
      "type": "function"
    }
  ],
  "bytecode": "0x608060405234801561001057600080fd5b50604051610cbd380380610cbd83398181016040528101906100329190610262565b61004e61004361013360201b60201c565b61013b60201b60201c565b60008060146101000a81548160ff02191690831515021790555082600160006101000a81548173ffffffffffffffffffffffffffffffffffffffff021916908373ffffffffffffffffffffffffffffffffffffffff16021790555081600260006101000a81548173ffffffffffffffffffffffffffffffffffffffff021916908373ffffffffffffffffffffffffffffffffffffffff16021790555080600360006101000a81548173ffffffffffffffffffffffffffffffffffffffff021916908373ffffffffffffffffffffffffffffffffffffffff1602179055505050506102b5565b600033905090565b60008060009054906101000a900473ffffffffffffffffffffffffffffffffffffffff169050816000806101000a81548173ffffffffffffffffffffffffffffffffffffffff021916908373ffffffffffffffffffffffffffffffffffffffff1602179055508173ffffffffffffffffffffffffffffffffffffffff168173ffffffffffffffffffffffffffffffffffffffff167f8be0079c531659141344cd1fd0a4f28419497f9722a3daafe3b4186f6b6457e060405160405180910390a35050565b600080fd5b600073ffffffffffffffffffffffffffffffffffffffff82169050919050565b600061022f82610204565b9050919050565b61023f81610224565b811461024a57600080fd5b50565b60008151905061025c81610236565b92915050565b60008060006060848603121561027b5761027a6101ff565b5b60006102898682870161024d565b935050602061029a8682870161024d565b92505060406102ab8682870161024d565b9150509250925092565b6109f9806102c46000396000f3fe608060405234801561001057600080fd5b50600436106100a95760003560e01c8063748747e611610071578063748747e61461011a5780638da5cb5b14610136578063aced166114610154578063ee5cab5914610172578063f2fde38b1461018e578063fbfa77cf146101aa576100a9565b806306d8d18f146100ae578063573fef0a146100cc5780635c975abb146100d65780636817031b146100f4578063715018a614610110575b600080fd5b6100b66101c8565b6040516100c39190610799565b60405180910390f35b6100d46101ee565b005b6100de6101f0565b6040516100eb91906107cf565b60405180910390f35b61010e6004803603810190610109919061081b565b610206565b005b6101186102c6565b005b610134600480360381019061012f919061081b565b61034e565b005b61013e61045f565b60405161014b9190610799565b60405180910390f35b61015c610488565b6040516101699190610799565b60405180910390f35b61018c6004803603810190610187919061081b565b6104ae565b005b6101a860048036038101906101a3919061081b565b61056e565b005b6101b2610666565b6040516101bf9190610799565b60405180910390f35b600360009054906101000a900473ffffffffffffffffffffffffffffffffffffffff1681565b565b60008060149054906101000a900460ff16905090565b61020e61068c565b73ffffffffffffffffffffffffffffffffffffffff1661022c61045f565b73ffffffffffffffffffffffffffffffffffffffff1614610282576040517f08c379a0000000000000000000000000000000000000000000000000000000008152600401610279906108a5565b60405180910390fd5b80600260006101000a81548173ffffffffffffffffffffffffffffffffffffffff021916908373ffffffffffffffffffffffffffffffffffffffff16021790555050565b6102ce61068c565b73ffffffffffffffffffffffffffffffffffffffff166102ec61045f565b73ffffffffffffffffffffffffffffffffffffffff1614610342576040517f08c379a0000000000000000000000000000000000000000000000000000000008152600401610339906108a5565b60405180910390fd5b61034c6000610694565b565b61035661045f565b73ffffffffffffffffffffffffffffffffffffffff163373ffffffffffffffffffffffffffffffffffffffff1614806103dc5750600160009054906101000a900473ffffffffffffffffffffffffffffffffffffffff1673ffffffffffffffffffffffffffffffffffffffff163373ffffffffffffffffffffffffffffffffffffffff16145b61041b576040517f08c379a000000000000000000000000000000000000000000000000000000000815260040161041290610911565b60405180910390fd5b80600160006101000a81548173ffffffffffffffffffffffffffffffffffffffff021916908373ffffffffffffffffffffffffffffffffffffffff16021790555050565b60008060009054906101000a900473ffffffffffffffffffffffffffffffffffffffff16905090565b600160009054906101000a900473ffffffffffffffffffffffffffffffffffffffff1681565b6104b661068c565b73ffffffffffffffffffffffffffffffffffffffff166104d461045f565b73ffffffffffffffffffffffffffffffffffffffff161461052a576040517f08c379a0000000000000000000000000000000000000000000000000000000008152600401610521906108a5565b60405180910390fd5b80600360006101000a81548173ffffffffffffffffffffffffffffffffffffffff021916908373ffffffffffffffffffffffffffffffffffffffff16021790555050565b61057661068c565b73ffffffffffffffffffffffffffffffffffffffff1661059461045f565b73ffffffffffffffffffffffffffffffffffffffff16146105ea576040517f08c379a00000000000000000000000000000000000000000000000000000000081526004016105e1906108a5565b60405180910390fd5b600073ffffffffffffffffffffffffffffffffffffffff168173ffffffffffffffffffffffffffffffffffffffff16141561065a576040517f08c379a0000000000000000000000000000000000000000000000000000000008152600401610651906109a3565b60405180910390fd5b61066381610694565b50565b600260009054906101000a900473ffffffffffffffffffffffffffffffffffffffff1681565b600033905090565b60008060009054906101000a900473ffffffffffffffffffffffffffffffffffffffff169050816000806101000a81548173ffffffffffffffffffffffffffffffffffffffff021916908373ffffffffffffffffffffffffffffffffffffffff1602179055508173ffffffffffffffffffffffffffffffffffffffff168173ffffffffffffffffffffffffffffffffffffffff167f8be0079c531659141344cd1fd0a4f28419497f9722a3daafe3b4186f6b6457e060405160405180910390a35050565b600073ffffffffffffffffffffffffffffffffffffffff82169050919050565b600061078382610758565b9050919050565b61079381610778565b82525050565b60006020820190506107ae600083018461078a565b92915050565b60008115159050919050565b6107c9816107b4565b82525050565b60006020820190506107e460008301846107c0565b92915050565b600080fd5b6107f881610778565b811461080357600080fd5b50565b600081359050610815816107ef565b92915050565b600060208284031215610831576108306107ea565b5b600061083f84828501610806565b91505092915050565b600082825260208201905092915050565b7f4f776e61626c653a2063616c6c6572206973206e6f7420746865206f776e6572600082015250565b600061088f602083610848565b915061089a82610859565b602082019050919050565b600060208201905081810360008301526108be81610882565b9050919050565b7f216d616e61676572000000000000000000000000000000000000000000000000600082015250565b60006108fb600883610848565b9150610906826108c5565b602082019050919050565b6000602082019050818103600083015261092a816108ee565b9050919050565b7f4f776e61626c653a206e6577206f776e657220697320746865207a65726f206160008201527f6464726573730000000000000000000000000000000000000000000000000000602082015250565b600061098d602683610848565b915061099882610931565b604082019050919050565b600060208201905081810360008301526109bc81610980565b905091905056fea2646970667358221220ce23bb7c99da630c79c52bbc31a6f1de8a7a0e9b7415a518691c2bd8bc67d26e64736f6c634300080b0033",
  "linkReferences": {},
  "deployedLinkReferences": {}
}