{
  "_format": "hh-sol-artifact-1",
  "contractName": "PoolifyStrategyMulticall",
  "sourceName": "src/contracts/protocol/PoolifyStrategyMulticall.sol",
  "abi": [
    {
      "inputs": [
        {
          "internalType": "address[]",
          "name": "vaults",
          "type": "address[]"
        }
      ],
      "name": "getStrategy",
      "outputs": [
        {
          "internalType": "address[]",
          "name": "",
          "type": "address[]"
        }
      ],
      "stateMutability": "view",
      "type": "function"
    }
  ],
  "bytecode": "0x608060405234801561001057600080fd5b50610569806100206000396000f3fe608060405234801561001057600080fd5b506004361061002b5760003560e01c806391ab4fd114610030575b600080fd5b61004a60048036038101906100459190610230565b610060565b604051610057919061036d565b60405180910390f35b606060008383905067ffffffffffffffff8111156100815761008061038f565b5b6040519080825280602002602001820160405280156100af5781602001602082028036833780820191505090505b50905060005b848490508110156101b6578484828181106100d3576100d26103be565b5b90506020020160208101906100e89190610419565b73ffffffffffffffffffffffffffffffffffffffff1663a8c62e766040518163ffffffff1660e01b8152600401602060405180830381865afa158015610132573d6000803e3d6000fd5b505050506040513d601f19601f820116820180604052508101906101569190610484565b828281518110610169576101686103be565b5b602002602001019073ffffffffffffffffffffffffffffffffffffffff16908173ffffffffffffffffffffffffffffffffffffffff168152505080806101ae906104ea565b9150506100b5565b508091505092915050565b600080fd5b600080fd5b600080fd5b600080fd5b600080fd5b60008083601f8401126101f0576101ef6101cb565b5b8235905067ffffffffffffffff81111561020d5761020c6101d0565b5b602083019150836020820283011115610229576102286101d5565b5b9250929050565b60008060208385031215610247576102466101c1565b5b600083013567ffffffffffffffff811115610265576102646101c6565b5b610271858286016101da565b92509250509250929050565b600081519050919050565b600082825260208201905092915050565b6000819050602082019050919050565b600073ffffffffffffffffffffffffffffffffffffffff82169050919050565b60006102d4826102a9565b9050919050565b6102e4816102c9565b82525050565b60006102f683836102db565b60208301905092915050565b6000602082019050919050565b600061031a8261027d565b6103248185610288565b935061032f83610299565b8060005b8381101561036057815161034788826102ea565b975061035283610302565b925050600181019050610333565b5085935050505092915050565b60006020820190508181036000830152610387818461030f565b905092915050565b7f4e487b7100000000000000000000000000000000000000000000000000000000600052604160045260246000fd5b7f4e487b7100000000000000000000000000000000000000000000000000000000600052603260045260246000fd5b6103f6816102c9565b811461040157600080fd5b50565b600081359050610413816103ed565b92915050565b60006020828403121561042f5761042e6101c1565b5b600061043d84828501610404565b91505092915050565b6000610451826102c9565b9050919050565b61046181610446565b811461046c57600080fd5b50565b60008151905061047e81610458565b92915050565b60006020828403121561049a576104996101c1565b5b60006104a88482850161046f565b91505092915050565b7f4e487b7100000000000000000000000000000000000000000000000000000000600052601160045260246000fd5b6000819050919050565b60006104f5826104e0565b91507fffffffffffffffffffffffffffffffffffffffffffffffffffffffffffffffff821415610528576105276104b1565b5b60018201905091905056fea2646970667358221220f42069894b811b40db7d0f2781d698b36fd3d6a865666b7ba089deb944093bc864736f6c634300080b0033",
  "linkReferences": {},
  "deployedLinkReferences": {}
}