{
  "_format": "hh-sol-artifact-1",
  "contractName": "PoolifyPriceMulticall",
  "sourceName": "src/contracts/protocol/PoolifyPriceMulticall.sol",
  "abi": [
    {
      "inputs": [
        {
          "internalType": "address[][]",
          "name": "pools",
          "type": "address[][]"
        }
      ],
      "name": "getLpInfo",
      "outputs": [
        {
          "internalType": "uint256[]",
          "name": "",
          "type": "uint256[]"
        }
      ],
      "stateMutability": "view",
      "type": "function"
    }
  ],
  "bytecode": "0x608060405234801561001057600080fd5b50610973806100206000396000f3fe608060405234801561001057600080fd5b506004361061002b5760003560e01c8063fa6dd89a14610030575b600080fd5b61004a6004803603810190610045919061051e565b610060565b6040516100579190610633565b60405180910390f35b606060006003848490506100749190610684565b67ffffffffffffffff81111561008d5761008c6106de565b5b6040519080825280602002602001820160405280156100bb5781602001602082028036833780820191505090505b5090506000805b8585905081101561040e5760008686838181106100e2576100e161070d565b5b90506020028101906100f4919061074b565b60008181106101065761010561070d565b5b905060200201602081019061011b919061080c565b905060008787848181106101325761013161070d565b5b9050602002810190610144919061074b565b60018181106101565761015561070d565b5b905060200201602081019061016b919061080c565b905060008888858181106101825761018161070d565b5b9050602002810190610194919061074b565b60028181106101a6576101a561070d565b5b90506020020160208101906101bb919061080c565b9050610249836040516024016040516020818303038152906040527f18160ddd000000000000000000000000000000000000000000000000000000007bffffffffffffffffffffffffffffffffffffffffffffffffffffffff19166020820180517bffffffffffffffffffffffffffffffffffffffffffffffffffffffff838183161783525050505061041a565b86868061025590610839565b9750815181106102685761026761070d565b5b60200260200101818152505061030b82846040516024016102899190610891565b6040516020818303038152906040527f70a08231000000000000000000000000000000000000000000000000000000007bffffffffffffffffffffffffffffffffffffffffffffffffffffffff19166020820180517bffffffffffffffffffffffffffffffffffffffffffffffffffffffff838183161783525050505061041a565b86868061031790610839565b97508151811061032a5761032961070d565b5b6020026020010181815250506103cd818460405160240161034b9190610891565b6040516020818303038152906040527f70a08231000000000000000000000000000000000000000000000000000000007bffffffffffffffffffffffffffffffffffffffffffffffffffffffff19166020820180517bffffffffffffffffffffffffffffffffffffffffffffffffffffffff838183161783525050505061041a565b8686806103d990610839565b9750815181106103ec576103eb61070d565b5b602002602001018181525050505050808061040690610839565b9150506100c2565b50819250505092915050565b600080808473ffffffffffffffffffffffffffffffffffffffff16846040516104439190610926565b600060405180830381855afa9150503d806000811461047e576040519150601f19603f3d011682016040523d82523d6000602084013e610483565b606091505b509150915081801561049757506020815110155b156104a757600060208201015192505b505092915050565b600080fd5b600080fd5b600080fd5b600080fd5b600080fd5b60008083601f8401126104de576104dd6104b9565b5b8235905067ffffffffffffffff8111156104fb576104fa6104be565b5b602083019150836020820283011115610517576105166104c3565b5b9250929050565b60008060208385031215610535576105346104af565b5b600083013567ffffffffffffffff811115610553576105526104b4565b5b61055f858286016104c8565b92509250509250929050565b600081519050919050565b600082825260208201905092915050565b6000819050602082019050919050565b6000819050919050565b6105aa81610597565b82525050565b60006105bc83836105a1565b60208301905092915050565b6000602082019050919050565b60006105e08261056b565b6105ea8185610576565b93506105f583610587565b8060005b8381101561062657815161060d88826105b0565b9750610618836105c8565b9250506001810190506105f9565b5085935050505092915050565b6000602082019050818103600083015261064d81846105d5565b905092915050565b7f4e487b7100000000000000000000000000000000000000000000000000000000600052601160045260246000fd5b600061068f82610597565b915061069a83610597565b9250817fffffffffffffffffffffffffffffffffffffffffffffffffffffffffffffffff04831182151516156106d3576106d2610655565b5b828202905092915050565b7f4e487b7100000000000000000000000000000000000000000000000000000000600052604160045260246000fd5b7f4e487b7100000000000000000000000000000000000000000000000000000000600052603260045260246000fd5b600080fd5b600080fd5b600080fd5b600080833560016020038436030381126107685761076761073c565b5b80840192508235915067ffffffffffffffff82111561078a57610789610741565b5b6020830192506020820236038313156107a6576107a5610746565b5b509250929050565b600073ffffffffffffffffffffffffffffffffffffffff82169050919050565b60006107d9826107ae565b9050919050565b6107e9816107ce565b81146107f457600080fd5b50565b600081359050610806816107e0565b92915050565b600060208284031215610822576108216104af565b5b6000610830848285016107f7565b91505092915050565b600061084482610597565b91507fffffffffffffffffffffffffffffffffffffffffffffffffffffffffffffffff82141561087757610876610655565b5b600182019050919050565b61088b816107ce565b82525050565b60006020820190506108a66000830184610882565b92915050565b600081519050919050565b600081905092915050565b60005b838110156108e05780820151818401526020810190506108c5565b838111156108ef576000848401525b50505050565b6000610900826108ac565b61090a81856108b7565b935061091a8185602086016108c2565b80840191505092915050565b600061093282846108f5565b91508190509291505056fea2646970667358221220c72688144246f781bd43f547c5a7f6d56154b5ec394ace25072c8f56534a1c2d64736f6c634300080b0033",
  "linkReferences": {},
  "deployedLinkReferences": {}
}